{
	"LibraryStorage.sol": {
		"LibraryStorage": {
			"abi": [
				{
					"anonymous": false,
					"inputs": [
						{
							"indexed": true,
							"internalType": "string",
							"name": "bookName",
							"type": "string"
						}
					],
					"name": "newBookAdded",
					"type": "event"
				},
				{
					"anonymous": false,
					"inputs": [
						{
							"indexed": true,
							"internalType": "string",
							"name": "bookName",
							"type": "string"
						},
						{
							"indexed": false,
							"internalType": "address",
							"name": "owner",
							"type": "address"
						}
					],
					"name": "newBookTaken",
					"type": "event"
				},
				{
					"inputs": [
						{
							"internalType": "string",
							"name": "_bookName",
							"type": "string"
						}
					],
					"name": "addBook",
					"outputs": [],
					"stateMutability": "nonpayable",
					"type": "function"
				},
				{
					"inputs": [
						{
							"internalType": "address",
							"name": "",
							"type": "address"
						}
					],
					"name": "bookOwner",
					"outputs": [
						{
							"internalType": "uint256",
							"name": "",
							"type": "uint256"
						}
					],
					"stateMutability": "view",
					"type": "function"
				},
				{
					"inputs": [
						{
							"internalType": "uint256",
							"name": "",
							"type": "uint256"
						}
					],
					"name": "books",
					"outputs": [
						{
							"internalType": "string",
							"name": "bookName",
							"type": "string"
						},
						{
							"internalType": "address",
							"name": "owner",
							"type": "address"
						}
					],
					"stateMutability": "view",
					"type": "function"
				},
				{
					"inputs": [
						{
							"internalType": "uint256",
							"name": "bookId",
							"type": "uint256"
						}
					],
					"name": "borrowBook",
					"outputs": [],
					"stateMutability": "nonpayable",
					"type": "function"
				},
				{
					"inputs": [],
					"name": "getAvailableBook",
					"outputs": [
						{
							"components": [
								{
									"internalType": "string",
									"name": "bookName",
									"type": "string"
								},
								{
									"internalType": "address",
									"name": "owner",
									"type": "address"
								}
							],
							"internalType": "struct LibraryStorage.Book[]",
							"name": "",
							"type": "tuple[]"
						}
					],
					"stateMutability": "view",
					"type": "function"
				},
				{
					"inputs": [
						{
							"internalType": "uint256",
							"name": "bookId",
							"type": "uint256"
						}
					],
					"name": "returnBook",
					"outputs": [],
					"stateMutability": "nonpayable",
					"type": "function"
				}
			],
			"devdoc": {
				"kind": "dev",
				"methods": {},
				"version": 1
			},
			"evm": {
				"assembly": "    /* \"LibraryStorage.sol\":60:1761  contract LibraryStorage {\r... */\n  mstore(0x40, 0x80)\n  callvalue\n  dup1\n  iszero\n  tag_1\n  jumpi\n  0x00\n  dup1\n  revert\ntag_1:\n  pop\n  dataSize(sub_0)\n  dup1\n  dataOffset(sub_0)\n  0x00\n  codecopy\n  0x00\n  return\nstop\n\nsub_0: assembly {\n        /* \"LibraryStorage.sol\":60:1761  contract LibraryStorage {\r... */\n      mstore(0x40, 0x80)\n      callvalue\n      dup1\n      iszero\n      tag_1\n      jumpi\n      0x00\n      dup1\n      revert\n    tag_1:\n      pop\n      jumpi(tag_2, lt(calldatasize, 0x04))\n      shr(0xe0, calldataload(0x00))\n      dup1\n      0x03d24c49\n      eq\n      tag_3\n      jumpi\n      dup1\n      0x3bc5f48a\n      eq\n      tag_4\n      jumpi\n      dup1\n      0x68744046\n      eq\n      tag_5\n      jumpi\n      dup1\n      0x7e490a9e\n      eq\n      tag_6\n      jumpi\n      dup1\n      0xca5140c9\n      eq\n      tag_7\n      jumpi\n      dup1\n      0xe35d207c\n      eq\n      tag_8\n      jumpi\n    tag_2:\n      0x00\n      dup1\n      revert\n        /* \"LibraryStorage.sol\":97:138  mapping(address => uint) public bookOwner */\n    tag_3:\n      tag_9\n      0x04\n      dup1\n      calldatasize\n      sub\n      dup2\n      add\n      swap1\n      tag_10\n      swap2\n      swap1\n      tag_11\n      jump\t// in\n    tag_10:\n      tag_12\n      jump\t// in\n    tag_9:\n      mload(0x40)\n      tag_13\n      swap2\n      swap1\n      tag_14\n      jump\t// in\n    tag_13:\n      mload(0x40)\n      dup1\n      swap2\n      sub\n      swap1\n      return\n        /* \"LibraryStorage.sol\":364:578  function addBook(string memory _bookName) external {\r... */\n    tag_4:\n      tag_15\n      0x04\n      dup1\n      calldatasize\n      sub\n      dup2\n      add\n      swap1\n      tag_16\n      swap2\n      swap1\n      tag_17\n      jump\t// in\n    tag_16:\n      tag_18\n      jump\t// in\n    tag_15:\n      stop\n        /* \"LibraryStorage.sol\":220:240  Book [] public books */\n    tag_5:\n      tag_19\n      0x04\n      dup1\n      calldatasize\n      sub\n      dup2\n      add\n      swap1\n      tag_20\n      swap2\n      swap1\n      tag_21\n      jump\t// in\n    tag_20:\n      tag_22\n      jump\t// in\n    tag_19:\n      mload(0x40)\n      tag_23\n      swap3\n      swap2\n      swap1\n      tag_24\n      jump\t// in\n    tag_23:\n      mload(0x40)\n      dup1\n      swap2\n      sub\n      swap1\n      return\n        /* \"LibraryStorage.sol\":584:985  function borrowBook(uint bookId) external {\r... */\n    tag_6:\n      tag_25\n      0x04\n      dup1\n      calldatasize\n      sub\n      dup2\n      add\n      swap1\n      tag_26\n      swap2\n      swap1\n      tag_21\n      jump\t// in\n    tag_26:\n      tag_27\n      jump\t// in\n    tag_25:\n      stop\n        /* \"LibraryStorage.sol\":990:1178  function returnBook(uint bookId) external {\r... */\n    tag_7:\n      tag_28\n      0x04\n      dup1\n      calldatasize\n      sub\n      dup2\n      add\n      swap1\n      tag_29\n      swap2\n      swap1\n      tag_21\n      jump\t// in\n    tag_29:\n      tag_30\n      jump\t// in\n    tag_28:\n      stop\n        /* \"LibraryStorage.sol\":1184:1758  function getAvailableBook() external view returns (Book[] memory) {\r... */\n    tag_8:\n      tag_31\n      tag_32\n      jump\t// in\n    tag_31:\n      mload(0x40)\n      tag_33\n      swap2\n      swap1\n      tag_34\n      jump\t// in\n    tag_33:\n      mload(0x40)\n      dup1\n      swap2\n      sub\n      swap1\n      return\n        /* \"LibraryStorage.sol\":97:138  mapping(address => uint) public bookOwner */\n    tag_12:\n      mstore(0x20, 0x00)\n      dup1\n      0x00\n      mstore\n      keccak256(0x00, 0x40)\n      0x00\n      swap2\n      pop\n      swap1\n      pop\n      sload\n      dup2\n      jump\t// out\n        /* \"LibraryStorage.sol\":364:578  function addBook(string memory _bookName) external {\r... */\n    tag_18:\n        /* \"LibraryStorage.sol\":426:431  books */\n      0x01\n        /* \"LibraryStorage.sol\":437:520  Book({\r... */\n      mload(0x40)\n      dup1\n      0x40\n      add\n      0x40\n      mstore\n      dup1\n        /* \"LibraryStorage.sol\":467:476  _bookName */\n      dup4\n        /* \"LibraryStorage.sol\":437:520  Book({\r... */\n      dup2\n      mstore\n      0x20\n      add\n        /* \"LibraryStorage.sol\":506:507  0 */\n      0x00\n        /* \"LibraryStorage.sol\":437:520  Book({\r... */\n      0xffffffffffffffffffffffffffffffffffffffff\n      and\n      dup2\n      mstore\n      pop\n        /* \"LibraryStorage.sol\":426:521  books.push(Book({\r... */\n      swap1\n      dup1\n      0x01\n      dup2\n      sload\n      add\n      dup1\n      dup3\n      sstore\n      dup1\n      swap2\n      pop\n      pop\n      0x01\n      swap1\n      sub\n      swap1\n      0x00\n      mstore\n      keccak256(0x00, 0x20)\n      swap1\n      0x02\n      mul\n      add\n      0x00\n      swap1\n      swap2\n      swap1\n      swap2\n      swap1\n      swap2\n      pop\n      0x00\n      dup3\n      add\n      mload\n      dup2\n      0x00\n      add\n      swap1\n      dup1\n      mload\n      swap1\n      0x20\n      add\n      swap1\n      tag_37\n      swap3\n      swap2\n      swap1\n      tag_38\n      jump\t// in\n    tag_37:\n      pop\n      0x20\n      dup3\n      add\n      mload\n      dup2\n      0x01\n      add\n      exp(0x0100, 0x00)\n      dup2\n      sload\n      dup2\n      0xffffffffffffffffffffffffffffffffffffffff\n      mul\n      not\n      and\n      swap1\n      dup4\n      0xffffffffffffffffffffffffffffffffffffffff\n      and\n      mul\n      or\n      swap1\n      sstore\n      pop\n      pop\n      pop\n        /* \"LibraryStorage.sol\":560:569  _bookName */\n      dup1\n        /* \"LibraryStorage.sol\":547:570  newBookAdded(_bookName) */\n      mload(0x40)\n      tag_39\n      swap2\n      swap1\n      tag_40\n      jump\t// in\n    tag_39:\n      mload(0x40)\n      dup1\n      swap2\n      sub\n      swap1\n      keccak256\n      0x389883c247948e6a90f461d8febcbc3d72029c3e696e10f6c68cbb65d7e23fc9\n      mload(0x40)\n      mload(0x40)\n      dup1\n      swap2\n      sub\n      swap1\n      log2\n        /* \"LibraryStorage.sol\":364:578  function addBook(string memory _bookName) external {\r... */\n      pop\n      jump\t// out\n        /* \"LibraryStorage.sol\":220:240  Book [] public books */\n    tag_22:\n      0x01\n      dup2\n      dup2\n      sload\n      dup2\n      lt\n      tag_41\n      jumpi\n      0x00\n      dup1\n      revert\n    tag_41:\n      swap1\n      0x00\n      mstore\n      keccak256(0x00, 0x20)\n      swap1\n      0x02\n      mul\n      add\n      0x00\n      swap2\n      pop\n      swap1\n      pop\n      dup1\n      0x00\n      add\n      dup1\n      sload\n      tag_43\n      swap1\n      tag_44\n      jump\t// in\n    tag_43:\n      dup1\n      0x1f\n      add\n      0x20\n      dup1\n      swap2\n      div\n      mul\n      0x20\n      add\n      mload(0x40)\n      swap1\n      dup2\n      add\n      0x40\n      mstore\n      dup1\n      swap3\n      swap2\n      swap1\n      dup2\n      dup2\n      mstore\n      0x20\n      add\n      dup3\n      dup1\n      sload\n      tag_45\n      swap1\n      tag_44\n      jump\t// in\n    tag_45:\n      dup1\n      iszero\n      tag_46\n      jumpi\n      dup1\n      0x1f\n      lt\n      tag_47\n      jumpi\n      0x0100\n      dup1\n      dup4\n      sload\n      div\n      mul\n      dup4\n      mstore\n      swap2\n      0x20\n      add\n      swap2\n      jump(tag_46)\n    tag_47:\n      dup3\n      add\n      swap2\n      swap1\n      0x00\n      mstore\n      keccak256(0x00, 0x20)\n      swap1\n    tag_48:\n      dup2\n      sload\n      dup2\n      mstore\n      swap1\n      0x01\n      add\n      swap1\n      0x20\n      add\n      dup1\n      dup4\n      gt\n      tag_48\n      jumpi\n      dup3\n      swap1\n      sub\n      0x1f\n      and\n      dup3\n      add\n      swap2\n    tag_46:\n      pop\n      pop\n      pop\n      pop\n      pop\n      swap1\n      dup1\n      0x01\n      add\n      0x00\n      swap1\n      sload\n      swap1\n      0x0100\n      exp\n      swap1\n      div\n      0xffffffffffffffffffffffffffffffffffffffff\n      and\n      swap1\n      pop\n      dup3\n      jump\t// out\n        /* \"LibraryStorage.sol\":584:985  function borrowBook(uint bookId) external {\r... */\n    tag_27:\n        /* \"LibraryStorage.sol\":654:659  books */\n      0x01\n        /* \"LibraryStorage.sol\":654:666  books.length */\n      dup1\n      sload\n      swap1\n      pop\n        /* \"LibraryStorage.sol\":645:651  bookId */\n      dup2\n        /* \"LibraryStorage.sol\":645:666  bookId < books.length */\n      lt\n        /* \"LibraryStorage.sol\":637:679  require(bookId < books.length, \"Wrong ID\") */\n      tag_50\n      jumpi\n      mload(0x40)\n      0x08c379a000000000000000000000000000000000000000000000000000000000\n      dup2\n      mstore\n      0x04\n      add\n      tag_51\n      swap1\n      tag_52\n      jump\t// in\n    tag_51:\n      mload(0x40)\n      dup1\n      swap2\n      sub\n      swap1\n      revert\n    tag_50:\n        /* \"LibraryStorage.sol\":729:730  0 */\n      0x00\n        /* \"LibraryStorage.sol\":698:731  books[bookId].owner == address(0) */\n      0xffffffffffffffffffffffffffffffffffffffff\n      and\n        /* \"LibraryStorage.sol\":698:703  books */\n      0x01\n        /* \"LibraryStorage.sol\":704:710  bookId */\n      dup3\n        /* \"LibraryStorage.sol\":698:711  books[bookId] */\n      dup2\n      sload\n      dup2\n      lt\n      tag_53\n      jumpi\n      mstore(0x00, 0x4e487b7100000000000000000000000000000000000000000000000000000000)\n      mstore(0x04, 0x32)\n      revert(0x00, 0x24)\n    tag_53:\n      swap1\n      0x00\n      mstore\n      keccak256(0x00, 0x20)\n      swap1\n      0x02\n      mul\n      add\n        /* \"LibraryStorage.sol\":698:717  books[bookId].owner */\n      0x01\n      add\n      0x00\n      swap1\n      sload\n      swap1\n      0x0100\n      exp\n      swap1\n      div\n      0xffffffffffffffffffffffffffffffffffffffff\n      and\n        /* \"LibraryStorage.sol\":698:731  books[bookId].owner == address(0) */\n      0xffffffffffffffffffffffffffffffffffffffff\n      and\n      eq\n        /* \"LibraryStorage.sol\":690:755  require(books[bookId].owner == address(0), \"Book already taken!\") */\n      tag_55\n      jumpi\n      mload(0x40)\n      0x08c379a000000000000000000000000000000000000000000000000000000000\n      dup2\n      mstore\n      0x04\n      add\n      tag_56\n      swap1\n      tag_57\n      jump\t// in\n    tag_56:\n      mload(0x40)\n      dup1\n      swap2\n      sub\n      swap1\n      revert\n    tag_55:\n        /* \"LibraryStorage.sol\":799:800  1 */\n      0x01\n        /* \"LibraryStorage.sol\":774:783  bookOwner */\n      0x00\n        /* \"LibraryStorage.sol\":774:795  bookOwner[msg.sender] */\n      dup1\n        /* \"LibraryStorage.sol\":784:794  msg.sender */\n      caller\n        /* \"LibraryStorage.sol\":774:795  bookOwner[msg.sender] */\n      0xffffffffffffffffffffffffffffffffffffffff\n      and\n      0xffffffffffffffffffffffffffffffffffffffff\n      and\n      dup2\n      mstore\n      0x20\n      add\n      swap1\n      dup2\n      mstore\n      0x20\n      add\n      0x00\n      keccak256\n      sload\n        /* \"LibraryStorage.sol\":774:800  bookOwner[msg.sender] != 1 */\n      eq\n      iszero\n        /* \"LibraryStorage.sol\":766:828  require(bookOwner[msg.sender] != 1, \"U already taken a book!\") */\n      tag_58\n      jumpi\n      mload(0x40)\n      0x08c379a000000000000000000000000000000000000000000000000000000000\n      dup2\n      mstore\n      0x04\n      add\n      tag_59\n      swap1\n      tag_60\n      jump\t// in\n    tag_59:\n      mload(0x40)\n      dup1\n      swap2\n      sub\n      swap1\n      revert\n    tag_58:\n        /* \"LibraryStorage.sol\":859:869  msg.sender */\n      caller\n        /* \"LibraryStorage.sol\":839:844  books */\n      0x01\n        /* \"LibraryStorage.sol\":845:851  bookId */\n      dup3\n        /* \"LibraryStorage.sol\":839:852  books[bookId] */\n      dup2\n      sload\n      dup2\n      lt\n      tag_61\n      jumpi\n      mstore(0x00, 0x4e487b7100000000000000000000000000000000000000000000000000000000)\n      mstore(0x04, 0x32)\n      revert(0x00, 0x24)\n    tag_61:\n      swap1\n      0x00\n      mstore\n      keccak256(0x00, 0x20)\n      swap1\n      0x02\n      mul\n      add\n        /* \"LibraryStorage.sol\":839:858  books[bookId].owner */\n      0x01\n      add\n      0x00\n        /* \"LibraryStorage.sol\":839:869  books[bookId].owner=msg.sender */\n      0x0100\n      exp\n      dup2\n      sload\n      dup2\n      0xffffffffffffffffffffffffffffffffffffffff\n      mul\n      not\n      and\n      swap1\n      dup4\n      0xffffffffffffffffffffffffffffffffffffffff\n      and\n      mul\n      or\n      swap1\n      sstore\n      pop\n        /* \"LibraryStorage.sol\":912:913  1 */\n      0x01\n        /* \"LibraryStorage.sol\":903:909  bookId */\n      dup2\n        /* \"LibraryStorage.sol\":903:913  bookId + 1 */\n      tag_63\n      swap2\n      swap1\n      tag_64\n      jump\t// in\n    tag_63:\n        /* \"LibraryStorage.sol\":880:889  bookOwner */\n      0x00\n        /* \"LibraryStorage.sol\":880:901  bookOwner[msg.sender] */\n      dup1\n        /* \"LibraryStorage.sol\":890:900  msg.sender */\n      caller\n        /* \"LibraryStorage.sol\":880:901  bookOwner[msg.sender] */\n      0xffffffffffffffffffffffffffffffffffffffff\n      and\n      0xffffffffffffffffffffffffffffffffffffffff\n      and\n      dup2\n      mstore\n      0x20\n      add\n      swap1\n      dup2\n      mstore\n      0x20\n      add\n      0x00\n      keccak256\n        /* \"LibraryStorage.sol\":880:913  bookOwner[msg.sender]= bookId + 1 */\n      dup2\n      swap1\n      sstore\n      pop\n        /* \"LibraryStorage.sol\":942:947  books */\n      0x01\n        /* \"LibraryStorage.sol\":948:954  bookId */\n      dup2\n        /* \"LibraryStorage.sol\":942:955  books[bookId] */\n      dup2\n      sload\n      dup2\n      lt\n      tag_65\n      jumpi\n      mstore(0x00, 0x4e487b7100000000000000000000000000000000000000000000000000000000)\n      mstore(0x04, 0x32)\n      revert(0x00, 0x24)\n    tag_65:\n      swap1\n      0x00\n      mstore\n      keccak256(0x00, 0x20)\n      swap1\n      0x02\n      mul\n      add\n        /* \"LibraryStorage.sol\":942:964  books[bookId].bookName */\n      0x00\n      add\n        /* \"LibraryStorage.sol\":929:977  newBookTaken(books[bookId].bookName, msg.sender) */\n      mload(0x40)\n      tag_67\n      swap2\n      swap1\n      tag_68\n      jump\t// in\n    tag_67:\n      mload(0x40)\n      dup1\n      swap2\n      sub\n      swap1\n      keccak256\n      0x4bd98b3223c39f335bc6f823093ab65d500345beda2bd23303ae81271e26810d\n        /* \"LibraryStorage.sol\":966:976  msg.sender */\n      caller\n        /* \"LibraryStorage.sol\":929:977  newBookTaken(books[bookId].bookName, msg.sender) */\n      mload(0x40)\n      tag_69\n      swap2\n      swap1\n      tag_70\n      jump\t// in\n    tag_69:\n      mload(0x40)\n      dup1\n      swap2\n      sub\n      swap1\n      log2\n        /* \"LibraryStorage.sol\":584:985  function borrowBook(uint bookId) external {\r... */\n      pop\n      jump\t// out\n        /* \"LibraryStorage.sol\":990:1178  function returnBook(uint bookId) external {\r... */\n    tag_30:\n        /* \"LibraryStorage.sol\":1060:1065  books */\n      0x01\n        /* \"LibraryStorage.sol\":1066:1072  bookId */\n      dup2\n        /* \"LibraryStorage.sol\":1060:1073  books[bookId] */\n      dup2\n      sload\n      dup2\n      lt\n      tag_72\n      jumpi\n      mstore(0x00, 0x4e487b7100000000000000000000000000000000000000000000000000000000)\n      mstore(0x04, 0x32)\n      revert(0x00, 0x24)\n    tag_72:\n      swap1\n      0x00\n      mstore\n      keccak256(0x00, 0x20)\n      swap1\n      0x02\n      mul\n      add\n        /* \"LibraryStorage.sol\":1060:1079  books[bookId].owner */\n      0x01\n      add\n      0x00\n      swap1\n      sload\n      swap1\n      0x0100\n      exp\n      swap1\n      div\n      0xffffffffffffffffffffffffffffffffffffffff\n      and\n        /* \"LibraryStorage.sol\":1047:1079  msg.sender ==books[bookId].owner */\n      0xffffffffffffffffffffffffffffffffffffffff\n      and\n        /* \"LibraryStorage.sol\":1047:1057  msg.sender */\n      caller\n        /* \"LibraryStorage.sol\":1047:1079  msg.sender ==books[bookId].owner */\n      0xffffffffffffffffffffffffffffffffffffffff\n      and\n      eq\n        /* \"LibraryStorage.sol\":1039:1105  require(msg.sender ==books[bookId].owner,\"Only owner can return!\") */\n      tag_74\n      jumpi\n      mload(0x40)\n      0x08c379a000000000000000000000000000000000000000000000000000000000\n      dup2\n      mstore\n      0x04\n      add\n      tag_75\n      swap1\n      tag_76\n      jump\t// in\n    tag_75:\n      mload(0x40)\n      dup1\n      swap2\n      sub\n      swap1\n      revert\n    tag_74:\n        /* \"LibraryStorage.sol\":1142:1143  0 */\n      0x00\n        /* \"LibraryStorage.sol\":1112:1117  books */\n      0x01\n        /* \"LibraryStorage.sol\":1118:1124  bookId */\n      dup3\n        /* \"LibraryStorage.sol\":1112:1125  books[bookId] */\n      dup2\n      sload\n      dup2\n      lt\n      tag_77\n      jumpi\n      mstore(0x00, 0x4e487b7100000000000000000000000000000000000000000000000000000000)\n      mstore(0x04, 0x32)\n      revert(0x00, 0x24)\n    tag_77:\n      swap1\n      0x00\n      mstore\n      keccak256(0x00, 0x20)\n      swap1\n      0x02\n      mul\n      add\n        /* \"LibraryStorage.sol\":1112:1131  books[bookId].owner */\n      0x01\n      add\n      0x00\n        /* \"LibraryStorage.sol\":1112:1144  books[bookId].owner = address(0) */\n      0x0100\n      exp\n      dup2\n      sload\n      dup2\n      0xffffffffffffffffffffffffffffffffffffffff\n      mul\n      not\n      and\n      swap1\n      dup4\n      0xffffffffffffffffffffffffffffffffffffffff\n      and\n      mul\n      or\n      swap1\n      sstore\n      pop\n        /* \"LibraryStorage.sol\":1173:1174  0 */\n      0x00\n        /* \"LibraryStorage.sol\":1151:1160  bookOwner */\n      dup1\n        /* \"LibraryStorage.sol\":1151:1172  bookOwner[msg.sender] */\n      0x00\n        /* \"LibraryStorage.sol\":1161:1171  msg.sender */\n      caller\n        /* \"LibraryStorage.sol\":1151:1172  bookOwner[msg.sender] */\n      0xffffffffffffffffffffffffffffffffffffffff\n      and\n      0xffffffffffffffffffffffffffffffffffffffff\n      and\n      dup2\n      mstore\n      0x20\n      add\n      swap1\n      dup2\n      mstore\n      0x20\n      add\n      0x00\n      keccak256\n        /* \"LibraryStorage.sol\":1151:1174  bookOwner[msg.sender]=0 */\n      dup2\n      swap1\n      sstore\n      pop\n        /* \"LibraryStorage.sol\":990:1178  function returnBook(uint bookId) external {\r... */\n      pop\n      jump\t// out\n        /* \"LibraryStorage.sol\":1184:1758  function getAvailableBook() external view returns (Book[] memory) {\r... */\n    tag_32:\n        /* \"LibraryStorage.sol\":1235:1248  Book[] memory */\n      0x60\n        /* \"LibraryStorage.sol\":1261:1271  uint count */\n      0x00\n        /* \"LibraryStorage.sol\":1291:1297  uint i */\n      dup1\n        /* \"LibraryStorage.sol\":1286:1428  for (uint i = 0; i < books.length; i++) {\r... */\n    tag_80:\n        /* \"LibraryStorage.sol\":1307:1312  books */\n      0x01\n        /* \"LibraryStorage.sol\":1307:1319  books.length */\n      dup1\n      sload\n      swap1\n      pop\n        /* \"LibraryStorage.sol\":1303:1304  i */\n      dup2\n        /* \"LibraryStorage.sol\":1303:1319  i < books.length */\n      lt\n        /* \"LibraryStorage.sol\":1286:1428  for (uint i = 0; i < books.length; i++) {\r... */\n      iszero\n      tag_81\n      jumpi\n        /* \"LibraryStorage.sol\":1371:1372  0 */\n      0x00\n        /* \"LibraryStorage.sol\":1345:1373  books[i].owner == address(0) */\n      0xffffffffffffffffffffffffffffffffffffffff\n      and\n        /* \"LibraryStorage.sol\":1345:1350  books */\n      0x01\n        /* \"LibraryStorage.sol\":1351:1352  i */\n      dup3\n        /* \"LibraryStorage.sol\":1345:1353  books[i] */\n      dup2\n      sload\n      dup2\n      lt\n      tag_83\n      jumpi\n      mstore(0x00, 0x4e487b7100000000000000000000000000000000000000000000000000000000)\n      mstore(0x04, 0x32)\n      revert(0x00, 0x24)\n    tag_83:\n      swap1\n      0x00\n      mstore\n      keccak256(0x00, 0x20)\n      swap1\n      0x02\n      mul\n      add\n        /* \"LibraryStorage.sol\":1345:1359  books[i].owner */\n      0x01\n      add\n      0x00\n      swap1\n      sload\n      swap1\n      0x0100\n      exp\n      swap1\n      div\n      0xffffffffffffffffffffffffffffffffffffffff\n      and\n        /* \"LibraryStorage.sol\":1345:1373  books[i].owner == address(0) */\n      0xffffffffffffffffffffffffffffffffffffffff\n      and\n      eq\n        /* \"LibraryStorage.sol\":1341:1417  if (books[i].owner == address(0)) {\r... */\n      iszero\n      tag_85\n      jumpi\n        /* \"LibraryStorage.sol\":1394:1401  count++ */\n      dup2\n      dup1\n      tag_86\n      swap1\n      tag_87\n      jump\t// in\n    tag_86:\n      swap3\n      pop\n      pop\n        /* \"LibraryStorage.sol\":1341:1417  if (books[i].owner == address(0)) {\r... */\n    tag_85:\n        /* \"LibraryStorage.sol\":1321:1324  i++ */\n      dup1\n      dup1\n      tag_88\n      swap1\n      tag_87\n      jump\t// in\n    tag_88:\n      swap2\n      pop\n      pop\n        /* \"LibraryStorage.sol\":1286:1428  for (uint i = 0; i < books.length; i++) {\r... */\n      jump(tag_80)\n    tag_81:\n      pop\n        /* \"LibraryStorage.sol\":1440:1468  Book[] memory availableBooks */\n      0x00\n        /* \"LibraryStorage.sol\":1482:1487  count */\n      dup2\n        /* \"LibraryStorage.sol\":1471:1488  new Book[](count) */\n      0xffffffffffffffff\n      dup2\n      gt\n      iszero\n      tag_89\n      jumpi\n      mstore(0x00, 0x4e487b7100000000000000000000000000000000000000000000000000000000)\n      mstore(0x04, 0x41)\n      revert(0x00, 0x24)\n    tag_89:\n      mload(0x40)\n      swap1\n      dup1\n      dup3\n      mstore\n      dup1\n      0x20\n      mul\n      0x20\n      add\n      dup3\n      add\n      0x40\n      mstore\n      dup1\n      iszero\n      tag_90\n      jumpi\n      dup2\n      0x20\n      add\n    tag_91:\n      tag_92\n      tag_93\n      jump\t// in\n    tag_92:\n      dup2\n      mstore\n      0x20\n      add\n      swap1\n      0x01\n      swap1\n      sub\n      swap1\n      dup2\n      tag_91\n      jumpi\n      swap1\n      pop\n    tag_90:\n      pop\n        /* \"LibraryStorage.sol\":1440:1488  Book[] memory availableBooks = new Book[](count) */\n      swap1\n      pop\n        /* \"LibraryStorage.sol\":1499:1509  uint index */\n      0x00\n        /* \"LibraryStorage.sol\":1529:1535  uint i */\n      dup1\n        /* \"LibraryStorage.sol\":1524:1717  for (uint i = 0; i < books.length; i++) {\r... */\n    tag_94:\n        /* \"LibraryStorage.sol\":1545:1550  books */\n      0x01\n        /* \"LibraryStorage.sol\":1545:1557  books.length */\n      dup1\n      sload\n      swap1\n      pop\n        /* \"LibraryStorage.sol\":1541:1542  i */\n      dup2\n        /* \"LibraryStorage.sol\":1541:1557  i < books.length */\n      lt\n        /* \"LibraryStorage.sol\":1524:1717  for (uint i = 0; i < books.length; i++) {\r... */\n      iszero\n      tag_95\n      jumpi\n        /* \"LibraryStorage.sol\":1609:1610  0 */\n      0x00\n        /* \"LibraryStorage.sol\":1583:1611  books[i].owner == address(0) */\n      0xffffffffffffffffffffffffffffffffffffffff\n      and\n        /* \"LibraryStorage.sol\":1583:1588  books */\n      0x01\n        /* \"LibraryStorage.sol\":1589:1590  i */\n      dup3\n        /* \"LibraryStorage.sol\":1583:1591  books[i] */\n      dup2\n      sload\n      dup2\n      lt\n      tag_97\n      jumpi\n      mstore(0x00, 0x4e487b7100000000000000000000000000000000000000000000000000000000)\n      mstore(0x04, 0x32)\n      revert(0x00, 0x24)\n    tag_97:\n      swap1\n      0x00\n      mstore\n      keccak256(0x00, 0x20)\n      swap1\n      0x02\n      mul\n      add\n        /* \"LibraryStorage.sol\":1583:1597  books[i].owner */\n      0x01\n      add\n      0x00\n      swap1\n      sload\n      swap1\n      0x0100\n      exp\n      swap1\n      div\n      0xffffffffffffffffffffffffffffffffffffffff\n      and\n        /* \"LibraryStorage.sol\":1583:1611  books[i].owner == address(0) */\n      0xffffffffffffffffffffffffffffffffffffffff\n      and\n      eq\n        /* \"LibraryStorage.sol\":1579:1706  if (books[i].owner == address(0)) {\r... */\n      iszero\n      tag_99\n      jumpi\n        /* \"LibraryStorage.sol\":1656:1661  books */\n      0x01\n        /* \"LibraryStorage.sol\":1662:1663  i */\n      dup2\n        /* \"LibraryStorage.sol\":1656:1664  books[i] */\n      dup2\n      sload\n      dup2\n      lt\n      tag_100\n      jumpi\n      mstore(0x00, 0x4e487b7100000000000000000000000000000000000000000000000000000000)\n      mstore(0x04, 0x32)\n      revert(0x00, 0x24)\n    tag_100:\n      swap1\n      0x00\n      mstore\n      keccak256(0x00, 0x20)\n      swap1\n      0x02\n      mul\n      add\n        /* \"LibraryStorage.sol\":1632:1664  availableBooks[index] = books[i] */\n      mload(0x40)\n      dup1\n      0x40\n      add\n      0x40\n      mstore\n      swap1\n      dup2\n      0x00\n      dup3\n      add\n      dup1\n      sload\n      tag_102\n      swap1\n      tag_44\n      jump\t// in\n    tag_102:\n      dup1\n      0x1f\n      add\n      0x20\n      dup1\n      swap2\n      div\n      mul\n      0x20\n      add\n      mload(0x40)\n      swap1\n      dup2\n      add\n      0x40\n      mstore\n      dup1\n      swap3\n      swap2\n      swap1\n      dup2\n      dup2\n      mstore\n      0x20\n      add\n      dup3\n      dup1\n      sload\n      tag_103\n      swap1\n      tag_44\n      jump\t// in\n    tag_103:\n      dup1\n      iszero\n      tag_104\n      jumpi\n      dup1\n      0x1f\n      lt\n      tag_105\n      jumpi\n      0x0100\n      dup1\n      dup4\n      sload\n      div\n      mul\n      dup4\n      mstore\n      swap2\n      0x20\n      add\n      swap2\n      jump(tag_104)\n    tag_105:\n      dup3\n      add\n      swap2\n      swap1\n      0x00\n      mstore\n      keccak256(0x00, 0x20)\n      swap1\n    tag_106:\n      dup2\n      sload\n      dup2\n      mstore\n      swap1\n      0x01\n      add\n      swap1\n      0x20\n      add\n      dup1\n      dup4\n      gt\n      tag_106\n      jumpi\n      dup3\n      swap1\n      sub\n      0x1f\n      and\n      dup3\n      add\n      swap2\n    tag_104:\n      pop\n      pop\n      pop\n      pop\n      pop\n      dup2\n      mstore\n      0x20\n      add\n      0x01\n      dup3\n      add\n      0x00\n      swap1\n      sload\n      swap1\n      0x0100\n      exp\n      swap1\n      div\n      0xffffffffffffffffffffffffffffffffffffffff\n      and\n      0xffffffffffffffffffffffffffffffffffffffff\n      and\n      0xffffffffffffffffffffffffffffffffffffffff\n      and\n      dup2\n      mstore\n      pop\n      pop\n        /* \"LibraryStorage.sol\":1632:1646  availableBooks */\n      dup4\n        /* \"LibraryStorage.sol\":1647:1652  index */\n      dup4\n        /* \"LibraryStorage.sol\":1632:1653  availableBooks[index] */\n      dup2\n      mload\n      dup2\n      lt\n      tag_107\n      jumpi\n      mstore(0x00, 0x4e487b7100000000000000000000000000000000000000000000000000000000)\n      mstore(0x04, 0x32)\n      revert(0x00, 0x24)\n    tag_107:\n      0x20\n      mul\n      0x20\n      add\n      add\n        /* \"LibraryStorage.sol\":1632:1664  availableBooks[index] = books[i] */\n      dup2\n      swap1\n      mstore\n      pop\n        /* \"LibraryStorage.sol\":1683:1690  index++ */\n      dup2\n      dup1\n      tag_108\n      swap1\n      tag_87\n      jump\t// in\n    tag_108:\n      swap3\n      pop\n      pop\n        /* \"LibraryStorage.sol\":1579:1706  if (books[i].owner == address(0)) {\r... */\n    tag_99:\n        /* \"LibraryStorage.sol\":1559:1562  i++ */\n      dup1\n      dup1\n      tag_109\n      swap1\n      tag_87\n      jump\t// in\n    tag_109:\n      swap2\n      pop\n      pop\n        /* \"LibraryStorage.sol\":1524:1717  for (uint i = 0; i < books.length; i++) {\r... */\n      jump(tag_94)\n    tag_95:\n      pop\n        /* \"LibraryStorage.sol\":1736:1750  availableBooks */\n      dup2\n        /* \"LibraryStorage.sol\":1729:1750  return availableBooks */\n      swap4\n      pop\n      pop\n      pop\n      pop\n        /* \"LibraryStorage.sol\":1184:1758  function getAvailableBook() external view returns (Book[] memory) {\r... */\n      swap1\n      jump\t// out\n    tag_38:\n      dup3\n      dup1\n      sload\n      tag_110\n      swap1\n      tag_44\n      jump\t// in\n    tag_110:\n      swap1\n      0x00\n      mstore\n      keccak256(0x00, 0x20)\n      swap1\n      0x1f\n      add\n      0x20\n      swap1\n      div\n      dup2\n      add\n      swap3\n      dup3\n      tag_112\n      jumpi\n      0x00\n      dup6\n      sstore\n      jump(tag_111)\n    tag_112:\n      dup3\n      0x1f\n      lt\n      tag_113\n      jumpi\n      dup1\n      mload\n      not(0xff)\n      and\n      dup4\n      dup1\n      add\n      or\n      dup6\n      sstore\n      jump(tag_111)\n    tag_113:\n      dup3\n      dup1\n      add\n      0x01\n      add\n      dup6\n      sstore\n      dup3\n      iszero\n      tag_111\n      jumpi\n      swap2\n      dup3\n      add\n    tag_114:\n      dup3\n      dup2\n      gt\n      iszero\n      tag_115\n      jumpi\n      dup3\n      mload\n      dup3\n      sstore\n      swap2\n      0x20\n      add\n      swap2\n      swap1\n      0x01\n      add\n      swap1\n      jump(tag_114)\n    tag_115:\n    tag_111:\n      pop\n      swap1\n      pop\n      tag_116\n      swap2\n      swap1\n      tag_117\n      jump\t// in\n    tag_116:\n      pop\n      swap1\n      jump\t// out\n    tag_93:\n      mload(0x40)\n      dup1\n      0x40\n      add\n      0x40\n      mstore\n      dup1\n      0x60\n      dup2\n      mstore\n      0x20\n      add\n      and(0xffffffffffffffffffffffffffffffffffffffff, 0x00)\n      dup2\n      mstore\n      pop\n      swap1\n      jump\t// out\n    tag_117:\n    tag_118:\n      dup1\n      dup3\n      gt\n      iszero\n      tag_119\n      jumpi\n      0x00\n      dup2\n      0x00\n      swap1\n      sstore\n      pop\n      0x01\n      add\n      jump(tag_118)\n    tag_119:\n      pop\n      swap1\n      jump\t// out\n        /* \"#utility.yul\":7:351   */\n    tag_121:\n      0x00\n        /* \"#utility.yul\":110:175   */\n      tag_123\n        /* \"#utility.yul\":125:174   */\n      tag_124\n        /* \"#utility.yul\":167:173   */\n      dup5\n        /* \"#utility.yul\":125:174   */\n      tag_125\n      jump\t// in\n    tag_124:\n        /* \"#utility.yul\":110:175   */\n      tag_126\n      jump\t// in\n    tag_123:\n        /* \"#utility.yul\":101:175   */\n      swap1\n      pop\n        /* \"#utility.yul\":198:204   */\n      dup3\n        /* \"#utility.yul\":191:196   */\n      dup2\n        /* \"#utility.yul\":184:205   */\n      mstore\n        /* \"#utility.yul\":236:240   */\n      0x20\n        /* \"#utility.yul\":229:234   */\n      dup2\n        /* \"#utility.yul\":225:241   */\n      add\n        /* \"#utility.yul\":274:277   */\n      dup5\n        /* \"#utility.yul\":265:271   */\n      dup5\n        /* \"#utility.yul\":260:263   */\n      dup5\n        /* \"#utility.yul\":256:272   */\n      add\n        /* \"#utility.yul\":253:278   */\n      gt\n        /* \"#utility.yul\":250:252   */\n      iszero\n      tag_127\n      jumpi\n        /* \"#utility.yul\":291:292   */\n      0x00\n        /* \"#utility.yul\":288:289   */\n      dup1\n        /* \"#utility.yul\":281:293   */\n      revert\n        /* \"#utility.yul\":250:252   */\n    tag_127:\n        /* \"#utility.yul\":304:345   */\n      tag_128\n        /* \"#utility.yul\":338:344   */\n      dup5\n        /* \"#utility.yul\":333:336   */\n      dup3\n        /* \"#utility.yul\":328:331   */\n      dup6\n        /* \"#utility.yul\":304:345   */\n      tag_129\n      jump\t// in\n    tag_128:\n        /* \"#utility.yul\":91:351   */\n      pop\n      swap4\n      swap3\n      pop\n      pop\n      pop\n      jump\t// out\n        /* \"#utility.yul\":357:496   */\n    tag_130:\n      0x00\n        /* \"#utility.yul\":441:447   */\n      dup2\n        /* \"#utility.yul\":428:448   */\n      calldataload\n        /* \"#utility.yul\":419:448   */\n      swap1\n      pop\n        /* \"#utility.yul\":457:490   */\n      tag_132\n        /* \"#utility.yul\":484:489   */\n      dup2\n        /* \"#utility.yul\":457:490   */\n      tag_133\n      jump\t// in\n    tag_132:\n        /* \"#utility.yul\":409:496   */\n      swap3\n      swap2\n      pop\n      pop\n      jump\t// out\n        /* \"#utility.yul\":516:789   */\n    tag_134:\n      0x00\n        /* \"#utility.yul\":621:624   */\n      dup3\n        /* \"#utility.yul\":614:618   */\n      0x1f\n        /* \"#utility.yul\":606:612   */\n      dup4\n        /* \"#utility.yul\":602:619   */\n      add\n        /* \"#utility.yul\":598:625   */\n      slt\n        /* \"#utility.yul\":588:590   */\n      tag_136\n      jumpi\n        /* \"#utility.yul\":639:640   */\n      0x00\n        /* \"#utility.yul\":636:637   */\n      dup1\n        /* \"#utility.yul\":629:641   */\n      revert\n        /* \"#utility.yul\":588:590   */\n    tag_136:\n        /* \"#utility.yul\":679:685   */\n      dup2\n        /* \"#utility.yul\":666:686   */\n      calldataload\n        /* \"#utility.yul\":704:783   */\n      tag_137\n        /* \"#utility.yul\":779:782   */\n      dup5\n        /* \"#utility.yul\":771:777   */\n      dup3\n        /* \"#utility.yul\":764:768   */\n      0x20\n        /* \"#utility.yul\":756:762   */\n      dup7\n        /* \"#utility.yul\":752:769   */\n      add\n        /* \"#utility.yul\":704:783   */\n      tag_121\n      jump\t// in\n    tag_137:\n        /* \"#utility.yul\":695:783   */\n      swap2\n      pop\n        /* \"#utility.yul\":578:789   */\n      pop\n      swap3\n      swap2\n      pop\n      pop\n      jump\t// out\n        /* \"#utility.yul\":795:934   */\n    tag_138:\n      0x00\n        /* \"#utility.yul\":879:885   */\n      dup2\n        /* \"#utility.yul\":866:886   */\n      calldataload\n        /* \"#utility.yul\":857:886   */\n      swap1\n      pop\n        /* \"#utility.yul\":895:928   */\n      tag_140\n        /* \"#utility.yul\":922:927   */\n      dup2\n        /* \"#utility.yul\":895:928   */\n      tag_141\n      jump\t// in\n    tag_140:\n        /* \"#utility.yul\":847:934   */\n      swap3\n      swap2\n      pop\n      pop\n      jump\t// out\n        /* \"#utility.yul\":940:1202   */\n    tag_11:\n      0x00\n        /* \"#utility.yul\":1048:1050   */\n      0x20\n        /* \"#utility.yul\":1036:1045   */\n      dup3\n        /* \"#utility.yul\":1027:1034   */\n      dup5\n        /* \"#utility.yul\":1023:1046   */\n      sub\n        /* \"#utility.yul\":1019:1051   */\n      slt\n        /* \"#utility.yul\":1016:1018   */\n      iszero\n      tag_143\n      jumpi\n        /* \"#utility.yul\":1064:1065   */\n      0x00\n        /* \"#utility.yul\":1061:1062   */\n      dup1\n        /* \"#utility.yul\":1054:1066   */\n      revert\n        /* \"#utility.yul\":1016:1018   */\n    tag_143:\n        /* \"#utility.yul\":1107:1108   */\n      0x00\n        /* \"#utility.yul\":1132:1185   */\n      tag_144\n        /* \"#utility.yul\":1177:1184   */\n      dup5\n        /* \"#utility.yul\":1168:1174   */\n      dup3\n        /* \"#utility.yul\":1157:1166   */\n      dup6\n        /* \"#utility.yul\":1153:1175   */\n      add\n        /* \"#utility.yul\":1132:1185   */\n      tag_130\n      jump\t// in\n    tag_144:\n        /* \"#utility.yul\":1122:1185   */\n      swap2\n      pop\n        /* \"#utility.yul\":1078:1195   */\n      pop\n        /* \"#utility.yul\":1006:1202   */\n      swap3\n      swap2\n      pop\n      pop\n      jump\t// out\n        /* \"#utility.yul\":1208:1583   */\n    tag_17:\n      0x00\n        /* \"#utility.yul\":1326:1328   */\n      0x20\n        /* \"#utility.yul\":1314:1323   */\n      dup3\n        /* \"#utility.yul\":1305:1312   */\n      dup5\n        /* \"#utility.yul\":1301:1324   */\n      sub\n        /* \"#utility.yul\":1297:1329   */\n      slt\n        /* \"#utility.yul\":1294:1296   */\n      iszero\n      tag_146\n      jumpi\n        /* \"#utility.yul\":1342:1343   */\n      0x00\n        /* \"#utility.yul\":1339:1340   */\n      dup1\n        /* \"#utility.yul\":1332:1344   */\n      revert\n        /* \"#utility.yul\":1294:1296   */\n    tag_146:\n        /* \"#utility.yul\":1413:1414   */\n      0x00\n        /* \"#utility.yul\":1402:1411   */\n      dup3\n        /* \"#utility.yul\":1398:1415   */\n      add\n        /* \"#utility.yul\":1385:1416   */\n      calldataload\n        /* \"#utility.yul\":1443:1461   */\n      0xffffffffffffffff\n        /* \"#utility.yul\":1435:1441   */\n      dup2\n        /* \"#utility.yul\":1432:1462   */\n      gt\n        /* \"#utility.yul\":1429:1431   */\n      iszero\n      tag_147\n      jumpi\n        /* \"#utility.yul\":1475:1476   */\n      0x00\n        /* \"#utility.yul\":1472:1473   */\n      dup1\n        /* \"#utility.yul\":1465:1477   */\n      revert\n        /* \"#utility.yul\":1429:1431   */\n    tag_147:\n        /* \"#utility.yul\":1503:1566   */\n      tag_148\n        /* \"#utility.yul\":1558:1565   */\n      dup5\n        /* \"#utility.yul\":1549:1555   */\n      dup3\n        /* \"#utility.yul\":1538:1547   */\n      dup6\n        /* \"#utility.yul\":1534:1556   */\n      add\n        /* \"#utility.yul\":1503:1566   */\n      tag_134\n      jump\t// in\n    tag_148:\n        /* \"#utility.yul\":1493:1566   */\n      swap2\n      pop\n        /* \"#utility.yul\":1356:1576   */\n      pop\n        /* \"#utility.yul\":1284:1583   */\n      swap3\n      swap2\n      pop\n      pop\n      jump\t// out\n        /* \"#utility.yul\":1589:1851   */\n    tag_21:\n      0x00\n        /* \"#utility.yul\":1697:1699   */\n      0x20\n        /* \"#utility.yul\":1685:1694   */\n      dup3\n        /* \"#utility.yul\":1676:1683   */\n      dup5\n        /* \"#utility.yul\":1672:1695   */\n      sub\n        /* \"#utility.yul\":1668:1700   */\n      slt\n        /* \"#utility.yul\":1665:1667   */\n      iszero\n      tag_150\n      jumpi\n        /* \"#utility.yul\":1713:1714   */\n      0x00\n        /* \"#utility.yul\":1710:1711   */\n      dup1\n        /* \"#utility.yul\":1703:1715   */\n      revert\n        /* \"#utility.yul\":1665:1667   */\n    tag_150:\n        /* \"#utility.yul\":1756:1757   */\n      0x00\n        /* \"#utility.yul\":1781:1834   */\n      tag_151\n        /* \"#utility.yul\":1826:1833   */\n      dup5\n        /* \"#utility.yul\":1817:1823   */\n      dup3\n        /* \"#utility.yul\":1806:1815   */\n      dup6\n        /* \"#utility.yul\":1802:1824   */\n      add\n        /* \"#utility.yul\":1781:1834   */\n      tag_138\n      jump\t// in\n    tag_151:\n        /* \"#utility.yul\":1771:1834   */\n      swap2\n      pop\n        /* \"#utility.yul\":1727:1844   */\n      pop\n        /* \"#utility.yul\":1655:1851   */\n      swap3\n      swap2\n      pop\n      pop\n      jump\t// out\n        /* \"#utility.yul\":1857:2093   */\n    tag_152:\n      0x00\n        /* \"#utility.yul\":2001:2087   */\n      tag_154\n        /* \"#utility.yul\":2083:2086   */\n      dup4\n        /* \"#utility.yul\":2075:2081   */\n      dup4\n        /* \"#utility.yul\":2001:2087   */\n      tag_155\n      jump\t// in\n    tag_154:\n        /* \"#utility.yul\":1987:2087   */\n      swap1\n      pop\n        /* \"#utility.yul\":1977:2093   */\n      swap3\n      swap2\n      pop\n      pop\n      jump\t// out\n        /* \"#utility.yul\":2099:2207   */\n    tag_156:\n        /* \"#utility.yul\":2176:2200   */\n      tag_158\n        /* \"#utility.yul\":2194:2199   */\n      dup2\n        /* \"#utility.yul\":2176:2200   */\n      tag_159\n      jump\t// in\n    tag_158:\n        /* \"#utility.yul\":2171:2174   */\n      dup3\n        /* \"#utility.yul\":2164:2201   */\n      mstore\n        /* \"#utility.yul\":2154:2207   */\n      pop\n      pop\n      jump\t// out\n        /* \"#utility.yul\":2213:2331   */\n    tag_160:\n        /* \"#utility.yul\":2300:2324   */\n      tag_162\n        /* \"#utility.yul\":2318:2323   */\n      dup2\n        /* \"#utility.yul\":2300:2324   */\n      tag_159\n      jump\t// in\n    tag_162:\n        /* \"#utility.yul\":2295:2298   */\n      dup3\n        /* \"#utility.yul\":2288:2325   */\n      mstore\n        /* \"#utility.yul\":2278:2331   */\n      pop\n      pop\n      jump\t// out\n        /* \"#utility.yul\":2405:3476   */\n    tag_163:\n      0x00\n        /* \"#utility.yul\":2593:2667   */\n      tag_165\n        /* \"#utility.yul\":2661:2666   */\n      dup3\n        /* \"#utility.yul\":2593:2667   */\n      tag_166\n      jump\t// in\n    tag_165:\n        /* \"#utility.yul\":2683:2789   */\n      tag_167\n        /* \"#utility.yul\":2782:2788   */\n      dup2\n        /* \"#utility.yul\":2777:2780   */\n      dup6\n        /* \"#utility.yul\":2683:2789   */\n      tag_168\n      jump\t// in\n    tag_167:\n        /* \"#utility.yul\":2676:2789   */\n      swap4\n      pop\n        /* \"#utility.yul\":2815:2818   */\n      dup4\n        /* \"#utility.yul\":2860:2864   */\n      0x20\n        /* \"#utility.yul\":2852:2858   */\n      dup3\n        /* \"#utility.yul\":2848:2865   */\n      mul\n        /* \"#utility.yul\":2843:2846   */\n      dup6\n        /* \"#utility.yul\":2839:2866   */\n      add\n        /* \"#utility.yul\":2890:2966   */\n      tag_169\n        /* \"#utility.yul\":2960:2965   */\n      dup6\n        /* \"#utility.yul\":2890:2966   */\n      tag_170\n      jump\t// in\n    tag_169:\n        /* \"#utility.yul\":2989:2996   */\n      dup1\n        /* \"#utility.yul\":3020:3021   */\n      0x00\n        /* \"#utility.yul\":3005:3431   */\n    tag_171:\n        /* \"#utility.yul\":3030:3036   */\n      dup6\n        /* \"#utility.yul\":3027:3028   */\n      dup2\n        /* \"#utility.yul\":3024:3037   */\n      lt\n        /* \"#utility.yul\":3005:3431   */\n      iszero\n      tag_173\n      jumpi\n        /* \"#utility.yul\":3101:3110   */\n      dup5\n        /* \"#utility.yul\":3095:3099   */\n      dup5\n        /* \"#utility.yul\":3091:3111   */\n      sub\n        /* \"#utility.yul\":3086:3089   */\n      dup10\n        /* \"#utility.yul\":3079:3112   */\n      mstore\n        /* \"#utility.yul\":3152:3158   */\n      dup2\n        /* \"#utility.yul\":3146:3159   */\n      mload\n        /* \"#utility.yul\":3180:3284   */\n      tag_174\n        /* \"#utility.yul\":3279:3283   */\n      dup6\n        /* \"#utility.yul\":3264:3277   */\n      dup3\n        /* \"#utility.yul\":3180:3284   */\n      tag_152\n      jump\t// in\n    tag_174:\n        /* \"#utility.yul\":3172:3284   */\n      swap5\n      pop\n        /* \"#utility.yul\":3307:3387   */\n      tag_175\n        /* \"#utility.yul\":3380:3386   */\n      dup4\n        /* \"#utility.yul\":3307:3387   */\n      tag_176\n      jump\t// in\n    tag_175:\n        /* \"#utility.yul\":3297:3387   */\n      swap3\n      pop\n        /* \"#utility.yul\":3416:3420   */\n      0x20\n        /* \"#utility.yul\":3411:3414   */\n      dup11\n        /* \"#utility.yul\":3407:3421   */\n      add\n        /* \"#utility.yul\":3400:3421   */\n      swap10\n      pop\n        /* \"#utility.yul\":3065:3431   */\n      pop\n        /* \"#utility.yul\":3052:3053   */\n      0x01\n        /* \"#utility.yul\":3049:3050   */\n      dup2\n        /* \"#utility.yul\":3045:3054   */\n      add\n        /* \"#utility.yul\":3040:3054   */\n      swap1\n      pop\n        /* \"#utility.yul\":3005:3431   */\n      jump(tag_171)\n    tag_173:\n        /* \"#utility.yul\":3009:3023   */\n      pop\n        /* \"#utility.yul\":3447:3451   */\n      dup3\n        /* \"#utility.yul\":3440:3451   */\n      swap8\n      pop\n        /* \"#utility.yul\":3467:3470   */\n      dup8\n        /* \"#utility.yul\":3460:3470   */\n      swap6\n      pop\n        /* \"#utility.yul\":2569:3476   */\n      pop\n      pop\n      pop\n      pop\n      pop\n      swap3\n      swap2\n      pop\n      pop\n      jump\t// out\n        /* \"#utility.yul\":3482:3826   */\n    tag_177:\n      0x00\n        /* \"#utility.yul\":3588:3627   */\n      tag_179\n        /* \"#utility.yul\":3621:3626   */\n      dup3\n        /* \"#utility.yul\":3588:3627   */\n      tag_180\n      jump\t// in\n    tag_179:\n        /* \"#utility.yul\":3643:3704   */\n      tag_181\n        /* \"#utility.yul\":3697:3703   */\n      dup2\n        /* \"#utility.yul\":3692:3695   */\n      dup6\n        /* \"#utility.yul\":3643:3704   */\n      tag_182\n      jump\t// in\n    tag_181:\n        /* \"#utility.yul\":3636:3704   */\n      swap4\n      pop\n        /* \"#utility.yul\":3713:3765   */\n      tag_183\n        /* \"#utility.yul\":3758:3764   */\n      dup2\n        /* \"#utility.yul\":3753:3756   */\n      dup6\n        /* \"#utility.yul\":3746:3750   */\n      0x20\n        /* \"#utility.yul\":3739:3744   */\n      dup7\n        /* \"#utility.yul\":3735:3751   */\n      add\n        /* \"#utility.yul\":3713:3765   */\n      tag_184\n      jump\t// in\n    tag_183:\n        /* \"#utility.yul\":3790:3819   */\n      tag_185\n        /* \"#utility.yul\":3812:3818   */\n      dup2\n        /* \"#utility.yul\":3790:3819   */\n      tag_186\n      jump\t// in\n    tag_185:\n        /* \"#utility.yul\":3785:3788   */\n      dup5\n        /* \"#utility.yul\":3781:3820   */\n      add\n        /* \"#utility.yul\":3774:3820   */\n      swap2\n      pop\n        /* \"#utility.yul\":3564:3826   */\n      pop\n      swap3\n      swap2\n      pop\n      pop\n      jump\t// out\n        /* \"#utility.yul\":3832:4196   */\n    tag_187:\n      0x00\n        /* \"#utility.yul\":3948:3987   */\n      tag_189\n        /* \"#utility.yul\":3981:3986   */\n      dup3\n        /* \"#utility.yul\":3948:3987   */\n      tag_180\n      jump\t// in\n    tag_189:\n        /* \"#utility.yul\":4003:4074   */\n      tag_190\n        /* \"#utility.yul\":4067:4073   */\n      dup2\n        /* \"#utility.yul\":4062:4065   */\n      dup6\n        /* \"#utility.yul\":4003:4074   */\n      tag_191\n      jump\t// in\n    tag_190:\n        /* \"#utility.yul\":3996:4074   */\n      swap4\n      pop\n        /* \"#utility.yul\":4083:4135   */\n      tag_192\n        /* \"#utility.yul\":4128:4134   */\n      dup2\n        /* \"#utility.yul\":4123:4126   */\n      dup6\n        /* \"#utility.yul\":4116:4120   */\n      0x20\n        /* \"#utility.yul\":4109:4114   */\n      dup7\n        /* \"#utility.yul\":4105:4121   */\n      add\n        /* \"#utility.yul\":4083:4135   */\n      tag_184\n      jump\t// in\n    tag_192:\n        /* \"#utility.yul\":4160:4189   */\n      tag_193\n        /* \"#utility.yul\":4182:4188   */\n      dup2\n        /* \"#utility.yul\":4160:4189   */\n      tag_186\n      jump\t// in\n    tag_193:\n        /* \"#utility.yul\":4155:4158   */\n      dup5\n        /* \"#utility.yul\":4151:4190   */\n      add\n        /* \"#utility.yul\":4144:4190   */\n      swap2\n      pop\n        /* \"#utility.yul\":3924:4196   */\n      pop\n      swap3\n      swap2\n      pop\n      pop\n      jump\t// out\n        /* \"#utility.yul\":4202:4579   */\n    tag_194:\n      0x00\n        /* \"#utility.yul\":4336:4375   */\n      tag_196\n        /* \"#utility.yul\":4369:4374   */\n      dup3\n        /* \"#utility.yul\":4336:4375   */\n      tag_180\n      jump\t// in\n    tag_196:\n        /* \"#utility.yul\":4391:4480   */\n      tag_197\n        /* \"#utility.yul\":4473:4479   */\n      dup2\n        /* \"#utility.yul\":4468:4471   */\n      dup6\n        /* \"#utility.yul\":4391:4480   */\n      tag_198\n      jump\t// in\n    tag_197:\n        /* \"#utility.yul\":4384:4480   */\n      swap4\n      pop\n        /* \"#utility.yul\":4489:4541   */\n      tag_199\n        /* \"#utility.yul\":4534:4540   */\n      dup2\n        /* \"#utility.yul\":4529:4532   */\n      dup6\n        /* \"#utility.yul\":4522:4526   */\n      0x20\n        /* \"#utility.yul\":4515:4520   */\n      dup7\n        /* \"#utility.yul\":4511:4527   */\n      add\n        /* \"#utility.yul\":4489:4541   */\n      tag_184\n      jump\t// in\n    tag_199:\n        /* \"#utility.yul\":4566:4572   */\n      dup1\n        /* \"#utility.yul\":4561:4564   */\n      dup5\n        /* \"#utility.yul\":4557:4573   */\n      add\n        /* \"#utility.yul\":4550:4573   */\n      swap2\n      pop\n        /* \"#utility.yul\":4312:4579   */\n      pop\n      swap3\n      swap2\n      pop\n      pop\n      jump\t// out\n        /* \"#utility.yul\":4609:5454   */\n    tag_200:\n      0x00\n        /* \"#utility.yul\":4749:4754   */\n      dup2\n        /* \"#utility.yul\":4743:4755   */\n      sload\n        /* \"#utility.yul\":4778:4814   */\n      tag_202\n        /* \"#utility.yul\":4804:4813   */\n      dup2\n        /* \"#utility.yul\":4778:4814   */\n      tag_44\n      jump\t// in\n    tag_202:\n        /* \"#utility.yul\":4830:4919   */\n      tag_203\n        /* \"#utility.yul\":4912:4918   */\n      dup2\n        /* \"#utility.yul\":4907:4910   */\n      dup7\n        /* \"#utility.yul\":4830:4919   */\n      tag_198\n      jump\t// in\n    tag_203:\n        /* \"#utility.yul\":4823:4919   */\n      swap5\n      pop\n        /* \"#utility.yul\":4950:4951   */\n      0x01\n        /* \"#utility.yul\":4939:4948   */\n      dup3\n        /* \"#utility.yul\":4935:4952   */\n      and\n        /* \"#utility.yul\":4966:4967   */\n      0x00\n        /* \"#utility.yul\":4961:5098   */\n      dup2\n      eq\n      tag_205\n      jumpi\n        /* \"#utility.yul\":5112:5113   */\n      0x01\n        /* \"#utility.yul\":5107:5448   */\n      dup2\n      eq\n      tag_206\n      jumpi\n        /* \"#utility.yul\":4928:5448   */\n      jump(tag_204)\n        /* \"#utility.yul\":4961:5098   */\n    tag_205:\n        /* \"#utility.yul\":5045:5049   */\n      0xff\n        /* \"#utility.yul\":5041:5050   */\n      not\n        /* \"#utility.yul\":5030:5039   */\n      dup4\n        /* \"#utility.yul\":5026:5051   */\n      and\n        /* \"#utility.yul\":5021:5024   */\n      dup7\n        /* \"#utility.yul\":5014:5052   */\n      mstore\n        /* \"#utility.yul\":5081:5087   */\n      dup2\n        /* \"#utility.yul\":5076:5079   */\n      dup7\n        /* \"#utility.yul\":5072:5088   */\n      add\n        /* \"#utility.yul\":5065:5088   */\n      swap4\n      pop\n        /* \"#utility.yul\":4961:5098   */\n      jump(tag_204)\n        /* \"#utility.yul\":5107:5448   */\n    tag_206:\n        /* \"#utility.yul\":5174:5212   */\n      tag_207\n        /* \"#utility.yul\":5206:5211   */\n      dup6\n        /* \"#utility.yul\":5174:5212   */\n      tag_208\n      jump\t// in\n    tag_207:\n        /* \"#utility.yul\":5234:5235   */\n      0x00\n        /* \"#utility.yul\":5248:5402   */\n    tag_209:\n        /* \"#utility.yul\":5262:5268   */\n      dup4\n        /* \"#utility.yul\":5259:5260   */\n      dup2\n        /* \"#utility.yul\":5256:5269   */\n      lt\n        /* \"#utility.yul\":5248:5402   */\n      iszero\n      tag_211\n      jumpi\n        /* \"#utility.yul\":5336:5343   */\n      dup2\n        /* \"#utility.yul\":5330:5344   */\n      sload\n        /* \"#utility.yul\":5326:5327   */\n      dup2\n        /* \"#utility.yul\":5321:5324   */\n      dup10\n        /* \"#utility.yul\":5317:5328   */\n      add\n        /* \"#utility.yul\":5310:5345   */\n      mstore\n        /* \"#utility.yul\":5386:5387   */\n      0x01\n        /* \"#utility.yul\":5377:5384   */\n      dup3\n        /* \"#utility.yul\":5373:5388   */\n      add\n        /* \"#utility.yul\":5362:5388   */\n      swap2\n      pop\n        /* \"#utility.yul\":5284:5288   */\n      0x20\n        /* \"#utility.yul\":5281:5282   */\n      dup2\n        /* \"#utility.yul\":5277:5289   */\n      add\n        /* \"#utility.yul\":5272:5289   */\n      swap1\n      pop\n        /* \"#utility.yul\":5248:5402   */\n      jump(tag_209)\n    tag_211:\n        /* \"#utility.yul\":5431:5437   */\n      dup4\n        /* \"#utility.yul\":5426:5429   */\n      dup9\n        /* \"#utility.yul\":5422:5438   */\n      add\n        /* \"#utility.yul\":5415:5438   */\n      swap6\n      pop\n        /* \"#utility.yul\":5114:5448   */\n      pop\n      pop\n        /* \"#utility.yul\":4928:5448   */\n    tag_204:\n      pop\n        /* \"#utility.yul\":4716:5454   */\n      pop\n      pop\n      swap3\n      swap2\n      pop\n      pop\n      jump\t// out\n        /* \"#utility.yul\":5460:5780   */\n    tag_212:\n      0x00\n        /* \"#utility.yul\":5623:5690   */\n      tag_214\n        /* \"#utility.yul\":5687:5689   */\n      0x16\n        /* \"#utility.yul\":5682:5685   */\n      dup4\n        /* \"#utility.yul\":5623:5690   */\n      tag_191\n      jump\t// in\n    tag_214:\n        /* \"#utility.yul\":5616:5690   */\n      swap2\n      pop\n        /* \"#utility.yul\":5720:5744   */\n      0x4f6e6c79206f776e65722063616e2072657475726e2100000000000000000000\n        /* \"#utility.yul\":5716:5717   */\n      0x00\n        /* \"#utility.yul\":5711:5714   */\n      dup4\n        /* \"#utility.yul\":5707:5718   */\n      add\n        /* \"#utility.yul\":5700:5745   */\n      mstore\n        /* \"#utility.yul\":5771:5773   */\n      0x20\n        /* \"#utility.yul\":5766:5769   */\n      dup3\n        /* \"#utility.yul\":5762:5774   */\n      add\n        /* \"#utility.yul\":5755:5774   */\n      swap1\n      pop\n        /* \"#utility.yul\":5606:5780   */\n      swap2\n      swap1\n      pop\n      jump\t// out\n        /* \"#utility.yul\":5786:6103   */\n    tag_215:\n      0x00\n        /* \"#utility.yul\":5949:6016   */\n      tag_217\n        /* \"#utility.yul\":6013:6015   */\n      0x13\n        /* \"#utility.yul\":6008:6011   */\n      dup4\n        /* \"#utility.yul\":5949:6016   */\n      tag_191\n      jump\t// in\n    tag_217:\n        /* \"#utility.yul\":5942:6016   */\n      swap2\n      pop\n        /* \"#utility.yul\":6046:6067   */\n      0x426f6f6b20616c72656164792074616b656e2100000000000000000000000000\n        /* \"#utility.yul\":6042:6043   */\n      0x00\n        /* \"#utility.yul\":6037:6040   */\n      dup4\n        /* \"#utility.yul\":6033:6044   */\n      add\n        /* \"#utility.yul\":6026:6068   */\n      mstore\n        /* \"#utility.yul\":6094:6096   */\n      0x20\n        /* \"#utility.yul\":6089:6092   */\n      dup3\n        /* \"#utility.yul\":6085:6097   */\n      add\n        /* \"#utility.yul\":6078:6097   */\n      swap1\n      pop\n        /* \"#utility.yul\":5932:6103   */\n      swap2\n      swap1\n      pop\n      jump\t// out\n        /* \"#utility.yul\":6109:6430   */\n    tag_218:\n      0x00\n        /* \"#utility.yul\":6272:6339   */\n      tag_220\n        /* \"#utility.yul\":6336:6338   */\n      0x17\n        /* \"#utility.yul\":6331:6334   */\n      dup4\n        /* \"#utility.yul\":6272:6339   */\n      tag_191\n      jump\t// in\n    tag_220:\n        /* \"#utility.yul\":6265:6339   */\n      swap2\n      pop\n        /* \"#utility.yul\":6369:6394   */\n      0x5520616c72656164792074616b656e206120626f6f6b21000000000000000000\n        /* \"#utility.yul\":6365:6366   */\n      0x00\n        /* \"#utility.yul\":6360:6363   */\n      dup4\n        /* \"#utility.yul\":6356:6367   */\n      add\n        /* \"#utility.yul\":6349:6395   */\n      mstore\n        /* \"#utility.yul\":6421:6423   */\n      0x20\n        /* \"#utility.yul\":6416:6419   */\n      dup3\n        /* \"#utility.yul\":6412:6424   */\n      add\n        /* \"#utility.yul\":6405:6424   */\n      swap1\n      pop\n        /* \"#utility.yul\":6255:6430   */\n      swap2\n      swap1\n      pop\n      jump\t// out\n        /* \"#utility.yul\":6436:6741   */\n    tag_221:\n      0x00\n        /* \"#utility.yul\":6599:6665   */\n      tag_223\n        /* \"#utility.yul\":6663:6664   */\n      0x08\n        /* \"#utility.yul\":6658:6661   */\n      dup4\n        /* \"#utility.yul\":6599:6665   */\n      tag_191\n      jump\t// in\n    tag_223:\n        /* \"#utility.yul\":6592:6665   */\n      swap2\n      pop\n        /* \"#utility.yul\":6695:6705   */\n      0x57726f6e67204944000000000000000000000000000000000000000000000000\n        /* \"#utility.yul\":6691:6692   */\n      0x00\n        /* \"#utility.yul\":6686:6689   */\n      dup4\n        /* \"#utility.yul\":6682:6693   */\n      add\n        /* \"#utility.yul\":6675:6706   */\n      mstore\n        /* \"#utility.yul\":6732:6734   */\n      0x20\n        /* \"#utility.yul\":6727:6730   */\n      dup3\n        /* \"#utility.yul\":6723:6735   */\n      add\n        /* \"#utility.yul\":6716:6735   */\n      swap1\n      pop\n        /* \"#utility.yul\":6582:6741   */\n      swap2\n      swap1\n      pop\n      jump\t// out\n        /* \"#utility.yul\":6811:7402   */\n    tag_155:\n      0x00\n        /* \"#utility.yul\":6946:6950   */\n      0x40\n        /* \"#utility.yul\":6941:6944   */\n      dup4\n        /* \"#utility.yul\":6937:6951   */\n      add\n        /* \"#utility.yul\":7037:7041   */\n      0x00\n        /* \"#utility.yul\":7030:7035   */\n      dup4\n        /* \"#utility.yul\":7026:7042   */\n      add\n        /* \"#utility.yul\":7020:7043   */\n      mload\n        /* \"#utility.yul\":7090:7093   */\n      dup5\n        /* \"#utility.yul\":7084:7088   */\n      dup3\n        /* \"#utility.yul\":7080:7094   */\n      sub\n        /* \"#utility.yul\":7073:7077   */\n      0x00\n        /* \"#utility.yul\":7068:7071   */\n      dup7\n        /* \"#utility.yul\":7064:7078   */\n      add\n        /* \"#utility.yul\":7057:7095   */\n      mstore\n        /* \"#utility.yul\":7116:7189   */\n      tag_225\n        /* \"#utility.yul\":7184:7188   */\n      dup3\n        /* \"#utility.yul\":7170:7182   */\n      dup3\n        /* \"#utility.yul\":7116:7189   */\n      tag_177\n      jump\t// in\n    tag_225:\n        /* \"#utility.yul\":7108:7189   */\n      swap2\n      pop\n        /* \"#utility.yul\":6961:7200   */\n      pop\n        /* \"#utility.yul\":7283:7287   */\n      0x20\n        /* \"#utility.yul\":7276:7281   */\n      dup4\n        /* \"#utility.yul\":7272:7288   */\n      add\n        /* \"#utility.yul\":7266:7289   */\n      mload\n        /* \"#utility.yul\":7302:7365   */\n      tag_226\n        /* \"#utility.yul\":7359:7363   */\n      0x20\n        /* \"#utility.yul\":7354:7357   */\n      dup7\n        /* \"#utility.yul\":7350:7364   */\n      add\n        /* \"#utility.yul\":7336:7348   */\n      dup3\n        /* \"#utility.yul\":7302:7365   */\n      tag_156\n      jump\t// in\n    tag_226:\n        /* \"#utility.yul\":7210:7375   */\n      pop\n        /* \"#utility.yul\":7392:7396   */\n      dup1\n        /* \"#utility.yul\":7385:7396   */\n      swap2\n      pop\n        /* \"#utility.yul\":6915:7402   */\n      pop\n      swap3\n      swap2\n      pop\n      pop\n      jump\t// out\n        /* \"#utility.yul\":7408:7526   */\n    tag_227:\n        /* \"#utility.yul\":7495:7519   */\n      tag_229\n        /* \"#utility.yul\":7513:7518   */\n      dup2\n        /* \"#utility.yul\":7495:7519   */\n      tag_230\n      jump\t// in\n    tag_229:\n        /* \"#utility.yul\":7490:7493   */\n      dup3\n        /* \"#utility.yul\":7483:7520   */\n      mstore\n        /* \"#utility.yul\":7473:7526   */\n      pop\n      pop\n      jump\t// out\n        /* \"#utility.yul\":7532:7807   */\n    tag_40:\n      0x00\n        /* \"#utility.yul\":7686:7781   */\n      tag_232\n        /* \"#utility.yul\":7777:7780   */\n      dup3\n        /* \"#utility.yul\":7768:7774   */\n      dup5\n        /* \"#utility.yul\":7686:7781   */\n      tag_194\n      jump\t// in\n    tag_232:\n        /* \"#utility.yul\":7679:7781   */\n      swap2\n      pop\n        /* \"#utility.yul\":7798:7801   */\n      dup2\n        /* \"#utility.yul\":7791:7801   */\n      swap1\n      pop\n        /* \"#utility.yul\":7668:7807   */\n      swap3\n      swap2\n      pop\n      pop\n      jump\t// out\n        /* \"#utility.yul\":7813:8082   */\n    tag_68:\n      0x00\n        /* \"#utility.yul\":7964:8056   */\n      tag_234\n        /* \"#utility.yul\":8052:8055   */\n      dup3\n        /* \"#utility.yul\":8043:8049   */\n      dup5\n        /* \"#utility.yul\":7964:8056   */\n      tag_200\n      jump\t// in\n    tag_234:\n        /* \"#utility.yul\":7957:8056   */\n      swap2\n      pop\n        /* \"#utility.yul\":8073:8076   */\n      dup2\n        /* \"#utility.yul\":8066:8076   */\n      swap1\n      pop\n        /* \"#utility.yul\":7946:8082   */\n      swap3\n      swap2\n      pop\n      pop\n      jump\t// out\n        /* \"#utility.yul\":8088:8310   */\n    tag_70:\n      0x00\n        /* \"#utility.yul\":8219:8221   */\n      0x20\n        /* \"#utility.yul\":8208:8217   */\n      dup3\n        /* \"#utility.yul\":8204:8222   */\n      add\n        /* \"#utility.yul\":8196:8222   */\n      swap1\n      pop\n        /* \"#utility.yul\":8232:8303   */\n      tag_236\n        /* \"#utility.yul\":8300:8301   */\n      0x00\n        /* \"#utility.yul\":8289:8298   */\n      dup4\n        /* \"#utility.yul\":8285:8302   */\n      add\n        /* \"#utility.yul\":8276:8282   */\n      dup5\n        /* \"#utility.yul\":8232:8303   */\n      tag_160\n      jump\t// in\n    tag_236:\n        /* \"#utility.yul\":8186:8310   */\n      swap3\n      swap2\n      pop\n      pop\n      jump\t// out\n        /* \"#utility.yul\":8316:8769   */\n    tag_34:\n      0x00\n        /* \"#utility.yul\":8537:8539   */\n      0x20\n        /* \"#utility.yul\":8526:8535   */\n      dup3\n        /* \"#utility.yul\":8522:8540   */\n      add\n        /* \"#utility.yul\":8514:8540   */\n      swap1\n      pop\n        /* \"#utility.yul\":8586:8595   */\n      dup2\n        /* \"#utility.yul\":8580:8584   */\n      dup2\n        /* \"#utility.yul\":8576:8596   */\n      sub\n        /* \"#utility.yul\":8572:8573   */\n      0x00\n        /* \"#utility.yul\":8561:8570   */\n      dup4\n        /* \"#utility.yul\":8557:8574   */\n      add\n        /* \"#utility.yul\":8550:8597   */\n      mstore\n        /* \"#utility.yul\":8614:8762   */\n      tag_238\n        /* \"#utility.yul\":8757:8761   */\n      dup2\n        /* \"#utility.yul\":8748:8754   */\n      dup5\n        /* \"#utility.yul\":8614:8762   */\n      tag_163\n      jump\t// in\n    tag_238:\n        /* \"#utility.yul\":8606:8762   */\n      swap1\n      pop\n        /* \"#utility.yul\":8504:8769   */\n      swap3\n      swap2\n      pop\n      pop\n      jump\t// out\n        /* \"#utility.yul\":8775:9198   */\n    tag_24:\n      0x00\n        /* \"#utility.yul\":8954:8956   */\n      0x40\n        /* \"#utility.yul\":8943:8952   */\n      dup3\n        /* \"#utility.yul\":8939:8957   */\n      add\n        /* \"#utility.yul\":8931:8957   */\n      swap1\n      pop\n        /* \"#utility.yul\":9003:9012   */\n      dup2\n        /* \"#utility.yul\":8997:9001   */\n      dup2\n        /* \"#utility.yul\":8993:9013   */\n      sub\n        /* \"#utility.yul\":8989:8990   */\n      0x00\n        /* \"#utility.yul\":8978:8987   */\n      dup4\n        /* \"#utility.yul\":8974:8991   */\n      add\n        /* \"#utility.yul\":8967:9014   */\n      mstore\n        /* \"#utility.yul\":9031:9109   */\n      tag_240\n        /* \"#utility.yul\":9104:9108   */\n      dup2\n        /* \"#utility.yul\":9095:9101   */\n      dup6\n        /* \"#utility.yul\":9031:9109   */\n      tag_187\n      jump\t// in\n    tag_240:\n        /* \"#utility.yul\":9023:9109   */\n      swap1\n      pop\n        /* \"#utility.yul\":9119:9191   */\n      tag_241\n        /* \"#utility.yul\":9187:9189   */\n      0x20\n        /* \"#utility.yul\":9176:9185   */\n      dup4\n        /* \"#utility.yul\":9172:9190   */\n      add\n        /* \"#utility.yul\":9163:9169   */\n      dup5\n        /* \"#utility.yul\":9119:9191   */\n      tag_160\n      jump\t// in\n    tag_241:\n        /* \"#utility.yul\":8921:9198   */\n      swap4\n      swap3\n      pop\n      pop\n      pop\n      jump\t// out\n        /* \"#utility.yul\":9204:9623   */\n    tag_76:\n      0x00\n        /* \"#utility.yul\":9408:9410   */\n      0x20\n        /* \"#utility.yul\":9397:9406   */\n      dup3\n        /* \"#utility.yul\":9393:9411   */\n      add\n        /* \"#utility.yul\":9385:9411   */\n      swap1\n      pop\n        /* \"#utility.yul\":9457:9466   */\n      dup2\n        /* \"#utility.yul\":9451:9455   */\n      dup2\n        /* \"#utility.yul\":9447:9467   */\n      sub\n        /* \"#utility.yul\":9443:9444   */\n      0x00\n        /* \"#utility.yul\":9432:9441   */\n      dup4\n        /* \"#utility.yul\":9428:9445   */\n      add\n        /* \"#utility.yul\":9421:9468   */\n      mstore\n        /* \"#utility.yul\":9485:9616   */\n      tag_243\n        /* \"#utility.yul\":9611:9615   */\n      dup2\n        /* \"#utility.yul\":9485:9616   */\n      tag_212\n      jump\t// in\n    tag_243:\n        /* \"#utility.yul\":9477:9616   */\n      swap1\n      pop\n        /* \"#utility.yul\":9375:9623   */\n      swap2\n      swap1\n      pop\n      jump\t// out\n        /* \"#utility.yul\":9629:10048   */\n    tag_57:\n      0x00\n        /* \"#utility.yul\":9833:9835   */\n      0x20\n        /* \"#utility.yul\":9822:9831   */\n      dup3\n        /* \"#utility.yul\":9818:9836   */\n      add\n        /* \"#utility.yul\":9810:9836   */\n      swap1\n      pop\n        /* \"#utility.yul\":9882:9891   */\n      dup2\n        /* \"#utility.yul\":9876:9880   */\n      dup2\n        /* \"#utility.yul\":9872:9892   */\n      sub\n        /* \"#utility.yul\":9868:9869   */\n      0x00\n        /* \"#utility.yul\":9857:9866   */\n      dup4\n        /* \"#utility.yul\":9853:9870   */\n      add\n        /* \"#utility.yul\":9846:9893   */\n      mstore\n        /* \"#utility.yul\":9910:10041   */\n      tag_245\n        /* \"#utility.yul\":10036:10040   */\n      dup2\n        /* \"#utility.yul\":9910:10041   */\n      tag_215\n      jump\t// in\n    tag_245:\n        /* \"#utility.yul\":9902:10041   */\n      swap1\n      pop\n        /* \"#utility.yul\":9800:10048   */\n      swap2\n      swap1\n      pop\n      jump\t// out\n        /* \"#utility.yul\":10054:10473   */\n    tag_60:\n      0x00\n        /* \"#utility.yul\":10258:10260   */\n      0x20\n        /* \"#utility.yul\":10247:10256   */\n      dup3\n        /* \"#utility.yul\":10243:10261   */\n      add\n        /* \"#utility.yul\":10235:10261   */\n      swap1\n      pop\n        /* \"#utility.yul\":10307:10316   */\n      dup2\n        /* \"#utility.yul\":10301:10305   */\n      dup2\n        /* \"#utility.yul\":10297:10317   */\n      sub\n        /* \"#utility.yul\":10293:10294   */\n      0x00\n        /* \"#utility.yul\":10282:10291   */\n      dup4\n        /* \"#utility.yul\":10278:10295   */\n      add\n        /* \"#utility.yul\":10271:10318   */\n      mstore\n        /* \"#utility.yul\":10335:10466   */\n      tag_247\n        /* \"#utility.yul\":10461:10465   */\n      dup2\n        /* \"#utility.yul\":10335:10466   */\n      tag_218\n      jump\t// in\n    tag_247:\n        /* \"#utility.yul\":10327:10466   */\n      swap1\n      pop\n        /* \"#utility.yul\":10225:10473   */\n      swap2\n      swap1\n      pop\n      jump\t// out\n        /* \"#utility.yul\":10479:10898   */\n    tag_52:\n      0x00\n        /* \"#utility.yul\":10683:10685   */\n      0x20\n        /* \"#utility.yul\":10672:10681   */\n      dup3\n        /* \"#utility.yul\":10668:10686   */\n      add\n        /* \"#utility.yul\":10660:10686   */\n      swap1\n      pop\n        /* \"#utility.yul\":10732:10741   */\n      dup2\n        /* \"#utility.yul\":10726:10730   */\n      dup2\n        /* \"#utility.yul\":10722:10742   */\n      sub\n        /* \"#utility.yul\":10718:10719   */\n      0x00\n        /* \"#utility.yul\":10707:10716   */\n      dup4\n        /* \"#utility.yul\":10703:10720   */\n      add\n        /* \"#utility.yul\":10696:10743   */\n      mstore\n        /* \"#utility.yul\":10760:10891   */\n      tag_249\n        /* \"#utility.yul\":10886:10890   */\n      dup2\n        /* \"#utility.yul\":10760:10891   */\n      tag_221\n      jump\t// in\n    tag_249:\n        /* \"#utility.yul\":10752:10891   */\n      swap1\n      pop\n        /* \"#utility.yul\":10650:10898   */\n      swap2\n      swap1\n      pop\n      jump\t// out\n        /* \"#utility.yul\":10904:11126   */\n    tag_14:\n      0x00\n        /* \"#utility.yul\":11035:11037   */\n      0x20\n        /* \"#utility.yul\":11024:11033   */\n      dup3\n        /* \"#utility.yul\":11020:11038   */\n      add\n        /* \"#utility.yul\":11012:11038   */\n      swap1\n      pop\n        /* \"#utility.yul\":11048:11119   */\n      tag_251\n        /* \"#utility.yul\":11116:11117   */\n      0x00\n        /* \"#utility.yul\":11105:11114   */\n      dup4\n        /* \"#utility.yul\":11101:11118   */\n      add\n        /* \"#utility.yul\":11092:11098   */\n      dup5\n        /* \"#utility.yul\":11048:11119   */\n      tag_227\n      jump\t// in\n    tag_251:\n        /* \"#utility.yul\":11002:11126   */\n      swap3\n      swap2\n      pop\n      pop\n      jump\t// out\n        /* \"#utility.yul\":11132:11415   */\n    tag_126:\n      0x00\n        /* \"#utility.yul\":11198:11200   */\n      0x40\n        /* \"#utility.yul\":11192:11201   */\n      mload\n        /* \"#utility.yul\":11182:11201   */\n      swap1\n      pop\n        /* \"#utility.yul\":11240:11244   */\n      dup2\n        /* \"#utility.yul\":11232:11238   */\n      dup2\n        /* \"#utility.yul\":11228:11245   */\n      add\n        /* \"#utility.yul\":11347:11353   */\n      dup2\n        /* \"#utility.yul\":11335:11345   */\n      dup2\n        /* \"#utility.yul\":11332:11354   */\n      lt\n        /* \"#utility.yul\":11311:11329   */\n      0xffffffffffffffff\n        /* \"#utility.yul\":11299:11309   */\n      dup3\n        /* \"#utility.yul\":11296:11330   */\n      gt\n        /* \"#utility.yul\":11293:11355   */\n      or\n        /* \"#utility.yul\":11290:11292   */\n      iszero\n      tag_253\n      jumpi\n        /* \"#utility.yul\":11358:11376   */\n      tag_254\n      tag_255\n      jump\t// in\n    tag_254:\n        /* \"#utility.yul\":11290:11292   */\n    tag_253:\n        /* \"#utility.yul\":11398:11408   */\n      dup1\n        /* \"#utility.yul\":11394:11396   */\n      0x40\n        /* \"#utility.yul\":11387:11409   */\n      mstore\n        /* \"#utility.yul\":11172:11415   */\n      pop\n      swap2\n      swap1\n      pop\n      jump\t// out\n        /* \"#utility.yul\":11421:11753   */\n    tag_125:\n      0x00\n        /* \"#utility.yul\":11573:11591   */\n      0xffffffffffffffff\n        /* \"#utility.yul\":11565:11571   */\n      dup3\n        /* \"#utility.yul\":11562:11592   */\n      gt\n        /* \"#utility.yul\":11559:11561   */\n      iszero\n      tag_257\n      jumpi\n        /* \"#utility.yul\":11595:11613   */\n      tag_258\n      tag_255\n      jump\t// in\n    tag_258:\n        /* \"#utility.yul\":11559:11561   */\n    tag_257:\n        /* \"#utility.yul\":11680:11684   */\n      0x1f\n        /* \"#utility.yul\":11676:11685   */\n      not\n        /* \"#utility.yul\":11669:11673   */\n      0x1f\n        /* \"#utility.yul\":11661:11667   */\n      dup4\n        /* \"#utility.yul\":11657:11674   */\n      add\n        /* \"#utility.yul\":11653:11686   */\n      and\n        /* \"#utility.yul\":11645:11686   */\n      swap1\n      pop\n        /* \"#utility.yul\":11741:11745   */\n      0x20\n        /* \"#utility.yul\":11735:11739   */\n      dup2\n        /* \"#utility.yul\":11731:11746   */\n      add\n        /* \"#utility.yul\":11723:11746   */\n      swap1\n      pop\n        /* \"#utility.yul\":11488:11753   */\n      swap2\n      swap1\n      pop\n      jump\t// out\n        /* \"#utility.yul\":11759:11911   */\n    tag_170:\n      0x00\n        /* \"#utility.yul\":11869:11872   */\n      dup2\n        /* \"#utility.yul\":11861:11872   */\n      swap1\n      pop\n        /* \"#utility.yul\":11899:11903   */\n      0x20\n        /* \"#utility.yul\":11894:11897   */\n      dup3\n        /* \"#utility.yul\":11890:11904   */\n      add\n        /* \"#utility.yul\":11882:11904   */\n      swap1\n      pop\n        /* \"#utility.yul\":11851:11911   */\n      swap2\n      swap1\n      pop\n      jump\t// out\n        /* \"#utility.yul\":11917:12058   */\n    tag_208:\n      0x00\n        /* \"#utility.yul\":11989:11992   */\n      dup2\n        /* \"#utility.yul\":11981:11992   */\n      swap1\n      pop\n        /* \"#utility.yul\":12012:12015   */\n      dup2\n        /* \"#utility.yul\":12009:12010   */\n      0x00\n        /* \"#utility.yul\":12002:12016   */\n      mstore\n        /* \"#utility.yul\":12046:12050   */\n      0x20\n        /* \"#utility.yul\":12043:12044   */\n      0x00\n        /* \"#utility.yul\":12033:12051   */\n      keccak256\n        /* \"#utility.yul\":12025:12051   */\n      swap1\n      pop\n        /* \"#utility.yul\":11971:12058   */\n      swap2\n      swap1\n      pop\n      jump\t// out\n        /* \"#utility.yul\":12064:12198   */\n    tag_166:\n      0x00\n        /* \"#utility.yul\":12185:12190   */\n      dup2\n        /* \"#utility.yul\":12179:12191   */\n      mload\n        /* \"#utility.yul\":12169:12191   */\n      swap1\n      pop\n        /* \"#utility.yul\":12158:12198   */\n      swap2\n      swap1\n      pop\n      jump\t// out\n        /* \"#utility.yul\":12204:12303   */\n    tag_180:\n      0x00\n        /* \"#utility.yul\":12290:12295   */\n      dup2\n        /* \"#utility.yul\":12284:12296   */\n      mload\n        /* \"#utility.yul\":12274:12296   */\n      swap1\n      pop\n        /* \"#utility.yul\":12263:12303   */\n      swap2\n      swap1\n      pop\n      jump\t// out\n        /* \"#utility.yul\":12309:12442   */\n    tag_176:\n      0x00\n        /* \"#utility.yul\":12431:12435   */\n      0x20\n        /* \"#utility.yul\":12426:12429   */\n      dup3\n        /* \"#utility.yul\":12422:12436   */\n      add\n        /* \"#utility.yul\":12414:12436   */\n      swap1\n      pop\n        /* \"#utility.yul\":12404:12442   */\n      swap2\n      swap1\n      pop\n      jump\t// out\n        /* \"#utility.yul\":12448:12652   */\n    tag_168:\n      0x00\n        /* \"#utility.yul\":12601:12607   */\n      dup3\n        /* \"#utility.yul\":12596:12599   */\n      dup3\n        /* \"#utility.yul\":12589:12608   */\n      mstore\n        /* \"#utility.yul\":12641:12645   */\n      0x20\n        /* \"#utility.yul\":12636:12639   */\n      dup3\n        /* \"#utility.yul\":12632:12646   */\n      add\n        /* \"#utility.yul\":12617:12646   */\n      swap1\n      pop\n        /* \"#utility.yul\":12579:12652   */\n      swap3\n      swap2\n      pop\n      pop\n      jump\t// out\n        /* \"#utility.yul\":12658:12817   */\n    tag_182:\n      0x00\n        /* \"#utility.yul\":12766:12772   */\n      dup3\n        /* \"#utility.yul\":12761:12764   */\n      dup3\n        /* \"#utility.yul\":12754:12773   */\n      mstore\n        /* \"#utility.yul\":12806:12810   */\n      0x20\n        /* \"#utility.yul\":12801:12804   */\n      dup3\n        /* \"#utility.yul\":12797:12811   */\n      add\n        /* \"#utility.yul\":12782:12811   */\n      swap1\n      pop\n        /* \"#utility.yul\":12744:12817   */\n      swap3\n      swap2\n      pop\n      pop\n      jump\t// out\n        /* \"#utility.yul\":12823:12992   */\n    tag_191:\n      0x00\n        /* \"#utility.yul\":12941:12947   */\n      dup3\n        /* \"#utility.yul\":12936:12939   */\n      dup3\n        /* \"#utility.yul\":12929:12948   */\n      mstore\n        /* \"#utility.yul\":12981:12985   */\n      0x20\n        /* \"#utility.yul\":12976:12979   */\n      dup3\n        /* \"#utility.yul\":12972:12986   */\n      add\n        /* \"#utility.yul\":12957:12986   */\n      swap1\n      pop\n        /* \"#utility.yul\":12919:12992   */\n      swap3\n      swap2\n      pop\n      pop\n      jump\t// out\n        /* \"#utility.yul\":12998:13146   */\n    tag_198:\n      0x00\n        /* \"#utility.yul\":13137:13140   */\n      dup2\n        /* \"#utility.yul\":13122:13140   */\n      swap1\n      pop\n        /* \"#utility.yul\":13112:13146   */\n      swap3\n      swap2\n      pop\n      pop\n      jump\t// out\n        /* \"#utility.yul\":13152:13457   */\n    tag_64:\n      0x00\n        /* \"#utility.yul\":13211:13231   */\n      tag_269\n        /* \"#utility.yul\":13229:13230   */\n      dup3\n        /* \"#utility.yul\":13211:13231   */\n      tag_230\n      jump\t// in\n    tag_269:\n        /* \"#utility.yul\":13206:13231   */\n      swap2\n      pop\n        /* \"#utility.yul\":13245:13265   */\n      tag_270\n        /* \"#utility.yul\":13263:13264   */\n      dup4\n        /* \"#utility.yul\":13245:13265   */\n      tag_230\n      jump\t// in\n    tag_270:\n        /* \"#utility.yul\":13240:13265   */\n      swap3\n      pop\n        /* \"#utility.yul\":13399:13400   */\n      dup3\n        /* \"#utility.yul\":13331:13397   */\n      0xffffffffffffffffffffffffffffffffffffffffffffffffffffffffffffffff\n        /* \"#utility.yul\":13327:13401   */\n      sub\n        /* \"#utility.yul\":13324:13325   */\n      dup3\n        /* \"#utility.yul\":13321:13402   */\n      gt\n        /* \"#utility.yul\":13318:13320   */\n      iszero\n      tag_271\n      jumpi\n        /* \"#utility.yul\":13405:13423   */\n      tag_272\n      tag_273\n      jump\t// in\n    tag_272:\n        /* \"#utility.yul\":13318:13320   */\n    tag_271:\n        /* \"#utility.yul\":13449:13450   */\n      dup3\n        /* \"#utility.yul\":13446:13447   */\n      dup3\n        /* \"#utility.yul\":13442:13451   */\n      add\n        /* \"#utility.yul\":13435:13451   */\n      swap1\n      pop\n        /* \"#utility.yul\":13196:13457   */\n      swap3\n      swap2\n      pop\n      pop\n      jump\t// out\n        /* \"#utility.yul\":13463:13559   */\n    tag_159:\n      0x00\n        /* \"#utility.yul\":13529:13553   */\n      tag_275\n        /* \"#utility.yul\":13547:13552   */\n      dup3\n        /* \"#utility.yul\":13529:13553   */\n      tag_276\n      jump\t// in\n    tag_275:\n        /* \"#utility.yul\":13518:13553   */\n      swap1\n      pop\n        /* \"#utility.yul\":13508:13559   */\n      swap2\n      swap1\n      pop\n      jump\t// out\n        /* \"#utility.yul\":13565:13691   */\n    tag_276:\n      0x00\n        /* \"#utility.yul\":13642:13684   */\n      0xffffffffffffffffffffffffffffffffffffffff\n        /* \"#utility.yul\":13635:13640   */\n      dup3\n        /* \"#utility.yul\":13631:13685   */\n      and\n        /* \"#utility.yul\":13620:13685   */\n      swap1\n      pop\n        /* \"#utility.yul\":13610:13691   */\n      swap2\n      swap1\n      pop\n      jump\t// out\n        /* \"#utility.yul\":13697:13774   */\n    tag_230:\n      0x00\n        /* \"#utility.yul\":13763:13768   */\n      dup2\n        /* \"#utility.yul\":13752:13768   */\n      swap1\n      pop\n        /* \"#utility.yul\":13742:13774   */\n      swap2\n      swap1\n      pop\n      jump\t// out\n        /* \"#utility.yul\":13780:13934   */\n    tag_129:\n        /* \"#utility.yul\":13864:13870   */\n      dup3\n        /* \"#utility.yul\":13859:13862   */\n      dup2\n        /* \"#utility.yul\":13854:13857   */\n      dup4\n        /* \"#utility.yul\":13841:13871   */\n      calldatacopy\n        /* \"#utility.yul\":13926:13927   */\n      0x00\n        /* \"#utility.yul\":13917:13923   */\n      dup4\n        /* \"#utility.yul\":13912:13915   */\n      dup4\n        /* \"#utility.yul\":13908:13924   */\n      add\n        /* \"#utility.yul\":13901:13928   */\n      mstore\n        /* \"#utility.yul\":13831:13934   */\n      pop\n      pop\n      pop\n      jump\t// out\n        /* \"#utility.yul\":13940:14247   */\n    tag_184:\n        /* \"#utility.yul\":14008:14009   */\n      0x00\n        /* \"#utility.yul\":14018:14131   */\n    tag_281:\n        /* \"#utility.yul\":14032:14038   */\n      dup4\n        /* \"#utility.yul\":14029:14030   */\n      dup2\n        /* \"#utility.yul\":14026:14039   */\n      lt\n        /* \"#utility.yul\":14018:14131   */\n      iszero\n      tag_283\n      jumpi\n        /* \"#utility.yul\":14117:14118   */\n      dup1\n        /* \"#utility.yul\":14112:14115   */\n      dup3\n        /* \"#utility.yul\":14108:14119   */\n      add\n        /* \"#utility.yul\":14102:14120   */\n      mload\n        /* \"#utility.yul\":14098:14099   */\n      dup2\n        /* \"#utility.yul\":14093:14096   */\n      dup5\n        /* \"#utility.yul\":14089:14100   */\n      add\n        /* \"#utility.yul\":14082:14121   */\n      mstore\n        /* \"#utility.yul\":14054:14056   */\n      0x20\n        /* \"#utility.yul\":14051:14052   */\n      dup2\n        /* \"#utility.yul\":14047:14057   */\n      add\n        /* \"#utility.yul\":14042:14057   */\n      swap1\n      pop\n        /* \"#utility.yul\":14018:14131   */\n      jump(tag_281)\n    tag_283:\n        /* \"#utility.yul\":14149:14155   */\n      dup4\n        /* \"#utility.yul\":14146:14147   */\n      dup2\n        /* \"#utility.yul\":14143:14156   */\n      gt\n        /* \"#utility.yul\":14140:14142   */\n      iszero\n      tag_284\n      jumpi\n        /* \"#utility.yul\":14229:14230   */\n      0x00\n        /* \"#utility.yul\":14220:14226   */\n      dup5\n        /* \"#utility.yul\":14215:14218   */\n      dup5\n        /* \"#utility.yul\":14211:14227   */\n      add\n        /* \"#utility.yul\":14204:14231   */\n      mstore\n        /* \"#utility.yul\":14140:14142   */\n    tag_284:\n        /* \"#utility.yul\":13989:14247   */\n      pop\n      pop\n      pop\n      pop\n      jump\t// out\n        /* \"#utility.yul\":14253:14573   */\n    tag_44:\n      0x00\n        /* \"#utility.yul\":14334:14335   */\n      0x02\n        /* \"#utility.yul\":14328:14332   */\n      dup3\n        /* \"#utility.yul\":14324:14336   */\n      div\n        /* \"#utility.yul\":14314:14336   */\n      swap1\n      pop\n        /* \"#utility.yul\":14381:14382   */\n      0x01\n        /* \"#utility.yul\":14375:14379   */\n      dup3\n        /* \"#utility.yul\":14371:14383   */\n      and\n        /* \"#utility.yul\":14402:14420   */\n      dup1\n        /* \"#utility.yul\":14392:14394   */\n      tag_286\n      jumpi\n        /* \"#utility.yul\":14458:14462   */\n      0x7f\n        /* \"#utility.yul\":14450:14456   */\n      dup3\n        /* \"#utility.yul\":14446:14463   */\n      and\n        /* \"#utility.yul\":14436:14463   */\n      swap2\n      pop\n        /* \"#utility.yul\":14392:14394   */\n    tag_286:\n        /* \"#utility.yul\":14520:14522   */\n      0x20\n        /* \"#utility.yul\":14512:14518   */\n      dup3\n        /* \"#utility.yul\":14509:14523   */\n      lt\n        /* \"#utility.yul\":14489:14507   */\n      dup2\n        /* \"#utility.yul\":14486:14524   */\n      eq\n        /* \"#utility.yul\":14483:14485   */\n      iszero\n      tag_287\n      jumpi\n        /* \"#utility.yul\":14539:14557   */\n      tag_288\n      tag_289\n      jump\t// in\n    tag_288:\n        /* \"#utility.yul\":14483:14485   */\n    tag_287:\n        /* \"#utility.yul\":14304:14573   */\n      pop\n      swap2\n      swap1\n      pop\n      jump\t// out\n        /* \"#utility.yul\":14579:14812   */\n    tag_87:\n      0x00\n        /* \"#utility.yul\":14641:14665   */\n      tag_291\n        /* \"#utility.yul\":14659:14664   */\n      dup3\n        /* \"#utility.yul\":14641:14665   */\n      tag_230\n      jump\t// in\n    tag_291:\n        /* \"#utility.yul\":14632:14665   */\n      swap2\n      pop\n        /* \"#utility.yul\":14687:14753   */\n      0xffffffffffffffffffffffffffffffffffffffffffffffffffffffffffffffff\n        /* \"#utility.yul\":14680:14685   */\n      dup3\n        /* \"#utility.yul\":14677:14754   */\n      eq\n        /* \"#utility.yul\":14674:14676   */\n      iszero\n      tag_292\n      jumpi\n        /* \"#utility.yul\":14757:14775   */\n      tag_293\n      tag_273\n      jump\t// in\n    tag_293:\n        /* \"#utility.yul\":14674:14676   */\n    tag_292:\n        /* \"#utility.yul\":14804:14805   */\n      0x01\n        /* \"#utility.yul\":14797:14802   */\n      dup3\n        /* \"#utility.yul\":14793:14806   */\n      add\n        /* \"#utility.yul\":14786:14806   */\n      swap1\n      pop\n        /* \"#utility.yul\":14622:14812   */\n      swap2\n      swap1\n      pop\n      jump\t// out\n        /* \"#utility.yul\":14818:14998   */\n    tag_273:\n        /* \"#utility.yul\":14866:14943   */\n      0x4e487b7100000000000000000000000000000000000000000000000000000000\n        /* \"#utility.yul\":14863:14864   */\n      0x00\n        /* \"#utility.yul\":14856:14944   */\n      mstore\n        /* \"#utility.yul\":14963:14967   */\n      0x11\n        /* \"#utility.yul\":14960:14961   */\n      0x04\n        /* \"#utility.yul\":14953:14968   */\n      mstore\n        /* \"#utility.yul\":14987:14991   */\n      0x24\n        /* \"#utility.yul\":14984:14985   */\n      0x00\n        /* \"#utility.yul\":14977:14992   */\n      revert\n        /* \"#utility.yul\":15004:15184   */\n    tag_289:\n        /* \"#utility.yul\":15052:15129   */\n      0x4e487b7100000000000000000000000000000000000000000000000000000000\n        /* \"#utility.yul\":15049:15050   */\n      0x00\n        /* \"#utility.yul\":15042:15130   */\n      mstore\n        /* \"#utility.yul\":15149:15153   */\n      0x22\n        /* \"#utility.yul\":15146:15147   */\n      0x04\n        /* \"#utility.yul\":15139:15154   */\n      mstore\n        /* \"#utility.yul\":15173:15177   */\n      0x24\n        /* \"#utility.yul\":15170:15171   */\n      0x00\n        /* \"#utility.yul\":15163:15178   */\n      revert\n        /* \"#utility.yul\":15190:15370   */\n    tag_255:\n        /* \"#utility.yul\":15238:15315   */\n      0x4e487b7100000000000000000000000000000000000000000000000000000000\n        /* \"#utility.yul\":15235:15236   */\n      0x00\n        /* \"#utility.yul\":15228:15316   */\n      mstore\n        /* \"#utility.yul\":15335:15339   */\n      0x41\n        /* \"#utility.yul\":15332:15333   */\n      0x04\n        /* \"#utility.yul\":15325:15340   */\n      mstore\n        /* \"#utility.yul\":15359:15363   */\n      0x24\n        /* \"#utility.yul\":15356:15357   */\n      0x00\n        /* \"#utility.yul\":15349:15364   */\n      revert\n        /* \"#utility.yul\":15376:15478   */\n    tag_186:\n      0x00\n        /* \"#utility.yul\":15468:15470   */\n      0x1f\n        /* \"#utility.yul\":15464:15471   */\n      not\n        /* \"#utility.yul\":15459:15461   */\n      0x1f\n        /* \"#utility.yul\":15452:15457   */\n      dup4\n        /* \"#utility.yul\":15448:15462   */\n      add\n        /* \"#utility.yul\":15444:15472   */\n      and\n        /* \"#utility.yul\":15434:15472   */\n      swap1\n      pop\n        /* \"#utility.yul\":15424:15478   */\n      swap2\n      swap1\n      pop\n      jump\t// out\n        /* \"#utility.yul\":15484:15606   */\n    tag_133:\n        /* \"#utility.yul\":15557:15581   */\n      tag_299\n        /* \"#utility.yul\":15575:15580   */\n      dup2\n        /* \"#utility.yul\":15557:15581   */\n      tag_159\n      jump\t// in\n    tag_299:\n        /* \"#utility.yul\":15550:15555   */\n      dup2\n        /* \"#utility.yul\":15547:15582   */\n      eq\n        /* \"#utility.yul\":15537:15539   */\n      tag_300\n      jumpi\n        /* \"#utility.yul\":15596:15597   */\n      0x00\n        /* \"#utility.yul\":15593:15594   */\n      dup1\n        /* \"#utility.yul\":15586:15598   */\n      revert\n        /* \"#utility.yul\":15537:15539   */\n    tag_300:\n        /* \"#utility.yul\":15527:15606   */\n      pop\n      jump\t// out\n        /* \"#utility.yul\":15612:15734   */\n    tag_141:\n        /* \"#utility.yul\":15685:15709   */\n      tag_302\n        /* \"#utility.yul\":15703:15708   */\n      dup2\n        /* \"#utility.yul\":15685:15709   */\n      tag_230\n      jump\t// in\n    tag_302:\n        /* \"#utility.yul\":15678:15683   */\n      dup2\n        /* \"#utility.yul\":15675:15710   */\n      eq\n        /* \"#utility.yul\":15665:15667   */\n      tag_303\n      jumpi\n        /* \"#utility.yul\":15724:15725   */\n      0x00\n        /* \"#utility.yul\":15721:15722   */\n      dup1\n        /* \"#utility.yul\":15714:15726   */\n      revert\n        /* \"#utility.yul\":15665:15667   */\n    tag_303:\n        /* \"#utility.yul\":15655:15734   */\n      pop\n      jump\t// out\n\n    auxdata: 0xa2646970667358221220f51854c5454fc1fa418afd1de5c7014223cf7ed2e80be88ebb1eef693614dbe264736f6c63430008000033\n}\n",
				"bytecode": {
					"linkReferences": {},
					"object": "608060405234801561001057600080fd5b5061151c806100206000396000f3fe608060405234801561001057600080fd5b50600436106100625760003560e01c806303d24c49146100675780633bc5f48a1461009757806368744046146100b35780637e490a9e146100e4578063ca5140c914610100578063e35d207c1461011c575b600080fd5b610081600480360381019061007c9190610d06565b61013a565b60405161008e91906111c9565b60405180910390f35b6100b160048036038101906100ac9190610d2f565b610152565b005b6100cd60048036038101906100c89190610d70565b610254565b6040516100db929190611119565b60405180910390f35b6100fe60048036038101906100f99190610d70565b610330565b005b61011a60048036038101906101159190610d70565b610646565b005b6101246107f1565b60405161013191906110f7565b60405180910390f35b60006020528060005260406000206000915090505481565b60016040518060400160405280838152602001600073ffffffffffffffffffffffffffffffffffffffff16815250908060018154018082558091505060019003906000526020600020906002020160009091909190915060008201518160000190805190602001906101c5929190610ba1565b5060208201518160010160006101000a81548173ffffffffffffffffffffffffffffffffffffffff021916908373ffffffffffffffffffffffffffffffffffffffff16021790555050508060405161021d91906110ae565b60405180910390207f389883c247948e6a90f461d8febcbc3d72029c3e696e10f6c68cbb65d7e23fc960405160405180910390a250565b6001818154811061026457600080fd5b90600052602060002090600202016000915090508060000180546102879061139f565b80601f01602080910402602001604051908101604052809291908181526020018280546102b39061139f565b80156103005780601f106102d557610100808354040283529160200191610300565b820191906000526020600020905b8154815290600101906020018083116102e357829003601f168201915b5050505050908060010160009054906101000a900473ffffffffffffffffffffffffffffffffffffffff16905082565b6001805490508110610377576040517f08c379a000000000000000000000000000000000000000000000000000000000815260040161036e906111a9565b60405180910390fd5b600073ffffffffffffffffffffffffffffffffffffffff16600182815481106103c9577f4e487b7100000000000000000000000000000000000000000000000000000000600052603260045260246000fd5b906000526020600020906002020160010160009054906101000a900473ffffffffffffffffffffffffffffffffffffffff1673ffffffffffffffffffffffffffffffffffffffff1614610451576040517f08c379a000000000000000000000000000000000000000000000000000000000815260040161044890611169565b60405180910390fd5b60016000803373ffffffffffffffffffffffffffffffffffffffff1673ffffffffffffffffffffffffffffffffffffffff1681526020019081526020016000205414156104d3576040517f08c379a00000000000000000000000000000000000000000000000000000000081526004016104ca90611189565b60405180910390fd5b336001828154811061050e577f4e487b7100000000000000000000000000000000000000000000000000000000600052603260045260246000fd5b906000526020600020906002020160010160006101000a81548173ffffffffffffffffffffffffffffffffffffffff021916908373ffffffffffffffffffffffffffffffffffffffff16021790555060018161056a91906112cb565b6000803373ffffffffffffffffffffffffffffffffffffffff1673ffffffffffffffffffffffffffffffffffffffff16815260200190815260200160002081905550600181815481106105e6577f4e487b7100000000000000000000000000000000000000000000000000000000600052603260045260246000fd5b906000526020600020906002020160000160405161060491906110c5565b60405180910390207f4bd98b3223c39f335bc6f823093ab65d500345beda2bd23303ae81271e26810d3360405161063b91906110dc565b60405180910390a250565b60018181548110610680577f4e487b7100000000000000000000000000000000000000000000000000000000600052603260045260246000fd5b906000526020600020906002020160010160009054906101000a900473ffffffffffffffffffffffffffffffffffffffff1673ffffffffffffffffffffffffffffffffffffffff163373ffffffffffffffffffffffffffffffffffffffff161461071f576040517f08c379a000000000000000000000000000000000000000000000000000000000815260040161071690611149565b60405180910390fd5b60006001828154811061075b577f4e487b7100000000000000000000000000000000000000000000000000000000600052603260045260246000fd5b906000526020600020906002020160010160006101000a81548173ffffffffffffffffffffffffffffffffffffffff021916908373ffffffffffffffffffffffffffffffffffffffff16021790555060008060003373ffffffffffffffffffffffffffffffffffffffff1673ffffffffffffffffffffffffffffffffffffffff1681526020019081526020016000208190555050565b60606000805b6001805490508110156108c657600073ffffffffffffffffffffffffffffffffffffffff1660018281548110610856577f4e487b7100000000000000000000000000000000000000000000000000000000600052603260045260246000fd5b906000526020600020906002020160010160009054906101000a900473ffffffffffffffffffffffffffffffffffffffff1673ffffffffffffffffffffffffffffffffffffffff1614156108b35781806108af906113d1565b9250505b80806108be906113d1565b9150506107f7565b5060008167ffffffffffffffff811115610909577f4e487b7100000000000000000000000000000000000000000000000000000000600052604160045260246000fd5b60405190808252806020026020018201604052801561094257816020015b61092f610c27565b8152602001906001900390816109275790505b5090506000805b600180549050811015610b9757600073ffffffffffffffffffffffffffffffffffffffff16600182815481106109a8577f4e487b7100000000000000000000000000000000000000000000000000000000600052603260045260246000fd5b906000526020600020906002020160010160009054906101000a900473ffffffffffffffffffffffffffffffffffffffff1673ffffffffffffffffffffffffffffffffffffffff161415610b845760018181548110610a30577f4e487b7100000000000000000000000000000000000000000000000000000000600052603260045260246000fd5b9060005260206000209060020201604051806040016040529081600082018054610a599061139f565b80601f0160208091040260200160405190810160405280929190818152602001828054610a859061139f565b8015610ad25780601f10610aa757610100808354040283529160200191610ad2565b820191906000526020600020905b815481529060010190602001808311610ab557829003601f168201915b505050505081526020016001820160009054906101000a900473ffffffffffffffffffffffffffffffffffffffff1673ffffffffffffffffffffffffffffffffffffffff1673ffffffffffffffffffffffffffffffffffffffff1681525050838381518110610b6a577f4e487b7100000000000000000000000000000000000000000000000000000000600052603260045260246000fd5b60200260200101819052508180610b80906113d1565b9250505b8080610b8f906113d1565b915050610949565b5081935050505090565b828054610bad9061139f565b90600052602060002090601f016020900481019282610bcf5760008555610c16565b82601f10610be857805160ff1916838001178555610c16565b82800160010185558215610c16579182015b82811115610c15578251825591602001919060010190610bfa565b5b509050610c239190610c57565b5090565b604051806040016040528060608152602001600073ffffffffffffffffffffffffffffffffffffffff1681525090565b5b80821115610c70576000816000905550600101610c58565b5090565b6000610c87610c8284611215565b6111e4565b905082815260208101848484011115610c9f57600080fd5b610caa84828561135d565b509392505050565b600081359050610cc1816114b8565b92915050565b600082601f830112610cd857600080fd5b8135610ce8848260208601610c74565b91505092915050565b600081359050610d00816114cf565b92915050565b600060208284031215610d1857600080fd5b6000610d2684828501610cb2565b91505092915050565b600060208284031215610d4157600080fd5b600082013567ffffffffffffffff811115610d5b57600080fd5b610d6784828501610cc7565b91505092915050565b600060208284031215610d8257600080fd5b6000610d9084828501610cf1565b91505092915050565b6000610da58383611062565b905092915050565b610db681611321565b82525050565b610dc581611321565b82525050565b6000610dd68261126a565b610de0818561128d565b935083602082028501610df285611245565b8060005b85811015610e2e5784840389528151610e0f8582610d99565b9450610e1a83611280565b925060208a01995050600181019050610df6565b50829750879550505050505092915050565b6000610e4b82611275565b610e55818561129e565b9350610e6581856020860161136c565b610e6e816114a7565b840191505092915050565b6000610e8482611275565b610e8e81856112af565b9350610e9e81856020860161136c565b610ea7816114a7565b840191505092915050565b6000610ebd82611275565b610ec781856112c0565b9350610ed781856020860161136c565b80840191505092915050565b60008154610ef08161139f565b610efa81866112c0565b94506001821660008114610f155760018114610f2657610f59565b60ff19831686528186019350610f59565b610f2f85611255565b60005b83811015610f5157815481890152600182019150602081019050610f32565b838801955050505b50505092915050565b6000610f6f6016836112af565b91507f4f6e6c79206f776e65722063616e2072657475726e21000000000000000000006000830152602082019050919050565b6000610faf6013836112af565b91507f426f6f6b20616c72656164792074616b656e21000000000000000000000000006000830152602082019050919050565b6000610fef6017836112af565b91507f5520616c72656164792074616b656e206120626f6f6b210000000000000000006000830152602082019050919050565b600061102f6008836112af565b91507f57726f6e672049440000000000000000000000000000000000000000000000006000830152602082019050919050565b6000604083016000830151848203600086015261107f8282610e40565b91505060208301516110946020860182610dad565b508091505092915050565b6110a881611353565b82525050565b60006110ba8284610eb2565b915081905092915050565b60006110d18284610ee3565b915081905092915050565b60006020820190506110f16000830184610dbc565b92915050565b600060208201905081810360008301526111118184610dcb565b905092915050565b600060408201905081810360008301526111338185610e79565b90506111426020830184610dbc565b9392505050565b6000602082019050818103600083015261116281610f62565b9050919050565b6000602082019050818103600083015261118281610fa2565b9050919050565b600060208201905081810360008301526111a281610fe2565b9050919050565b600060208201905081810360008301526111c281611022565b9050919050565b60006020820190506111de600083018461109f565b92915050565b6000604051905081810181811067ffffffffffffffff8211171561120b5761120a611478565b5b8060405250919050565b600067ffffffffffffffff8211156112305761122f611478565b5b601f19601f8301169050602081019050919050565b6000819050602082019050919050565b60008190508160005260206000209050919050565b600081519050919050565b600081519050919050565b6000602082019050919050565b600082825260208201905092915050565b600082825260208201905092915050565b600082825260208201905092915050565b600081905092915050565b60006112d682611353565b91506112e183611353565b9250827fffffffffffffffffffffffffffffffffffffffffffffffffffffffffffffffff038211156113165761131561141a565b5b828201905092915050565b600061132c82611333565b9050919050565b600073ffffffffffffffffffffffffffffffffffffffff82169050919050565b6000819050919050565b82818337600083830152505050565b60005b8381101561138a57808201518184015260208101905061136f565b83811115611399576000848401525b50505050565b600060028204905060018216806113b757607f821691505b602082108114156113cb576113ca611449565b5b50919050565b60006113dc82611353565b91507fffffffffffffffffffffffffffffffffffffffffffffffffffffffffffffffff82141561140f5761140e61141a565b5b600182019050919050565b7f4e487b7100000000000000000000000000000000000000000000000000000000600052601160045260246000fd5b7f4e487b7100000000000000000000000000000000000000000000000000000000600052602260045260246000fd5b7f4e487b7100000000000000000000000000000000000000000000000000000000600052604160045260246000fd5b6000601f19601f8301169050919050565b6114c181611321565b81146114cc57600080fd5b50565b6114d881611353565b81146114e357600080fd5b5056fea2646970667358221220f51854c5454fc1fa418afd1de5c7014223cf7ed2e80be88ebb1eef693614dbe264736f6c63430008000033",
					"opcodes": "PUSH1 0x80 PUSH1 0x40 MSTORE CALLVALUE DUP1 ISZERO PUSH2 0x10 JUMPI PUSH1 0x0 DUP1 REVERT JUMPDEST POP PUSH2 0x151C DUP1 PUSH2 0x20 PUSH1 0x0 CODECOPY PUSH1 0x0 RETURN INVALID PUSH1 0x80 PUSH1 0x40 MSTORE CALLVALUE DUP1 ISZERO PUSH2 0x10 JUMPI PUSH1 0x0 DUP1 REVERT JUMPDEST POP PUSH1 0x4 CALLDATASIZE LT PUSH2 0x62 JUMPI PUSH1 0x0 CALLDATALOAD PUSH1 0xE0 SHR DUP1 PUSH4 0x3D24C49 EQ PUSH2 0x67 JUMPI DUP1 PUSH4 0x3BC5F48A EQ PUSH2 0x97 JUMPI DUP1 PUSH4 0x68744046 EQ PUSH2 0xB3 JUMPI DUP1 PUSH4 0x7E490A9E EQ PUSH2 0xE4 JUMPI DUP1 PUSH4 0xCA5140C9 EQ PUSH2 0x100 JUMPI DUP1 PUSH4 0xE35D207C EQ PUSH2 0x11C JUMPI JUMPDEST PUSH1 0x0 DUP1 REVERT JUMPDEST PUSH2 0x81 PUSH1 0x4 DUP1 CALLDATASIZE SUB DUP2 ADD SWAP1 PUSH2 0x7C SWAP2 SWAP1 PUSH2 0xD06 JUMP JUMPDEST PUSH2 0x13A JUMP JUMPDEST PUSH1 0x40 MLOAD PUSH2 0x8E SWAP2 SWAP1 PUSH2 0x11C9 JUMP JUMPDEST PUSH1 0x40 MLOAD DUP1 SWAP2 SUB SWAP1 RETURN JUMPDEST PUSH2 0xB1 PUSH1 0x4 DUP1 CALLDATASIZE SUB DUP2 ADD SWAP1 PUSH2 0xAC SWAP2 SWAP1 PUSH2 0xD2F JUMP JUMPDEST PUSH2 0x152 JUMP JUMPDEST STOP JUMPDEST PUSH2 0xCD PUSH1 0x4 DUP1 CALLDATASIZE SUB DUP2 ADD SWAP1 PUSH2 0xC8 SWAP2 SWAP1 PUSH2 0xD70 JUMP JUMPDEST PUSH2 0x254 JUMP JUMPDEST PUSH1 0x40 MLOAD PUSH2 0xDB SWAP3 SWAP2 SWAP1 PUSH2 0x1119 JUMP JUMPDEST PUSH1 0x40 MLOAD DUP1 SWAP2 SUB SWAP1 RETURN JUMPDEST PUSH2 0xFE PUSH1 0x4 DUP1 CALLDATASIZE SUB DUP2 ADD SWAP1 PUSH2 0xF9 SWAP2 SWAP1 PUSH2 0xD70 JUMP JUMPDEST PUSH2 0x330 JUMP JUMPDEST STOP JUMPDEST PUSH2 0x11A PUSH1 0x4 DUP1 CALLDATASIZE SUB DUP2 ADD SWAP1 PUSH2 0x115 SWAP2 SWAP1 PUSH2 0xD70 JUMP JUMPDEST PUSH2 0x646 JUMP JUMPDEST STOP JUMPDEST PUSH2 0x124 PUSH2 0x7F1 JUMP JUMPDEST PUSH1 0x40 MLOAD PUSH2 0x131 SWAP2 SWAP1 PUSH2 0x10F7 JUMP JUMPDEST PUSH1 0x40 MLOAD DUP1 SWAP2 SUB SWAP1 RETURN JUMPDEST PUSH1 0x0 PUSH1 0x20 MSTORE DUP1 PUSH1 0x0 MSTORE PUSH1 0x40 PUSH1 0x0 KECCAK256 PUSH1 0x0 SWAP2 POP SWAP1 POP SLOAD DUP2 JUMP JUMPDEST PUSH1 0x1 PUSH1 0x40 MLOAD DUP1 PUSH1 0x40 ADD PUSH1 0x40 MSTORE DUP1 DUP4 DUP2 MSTORE PUSH1 0x20 ADD PUSH1 0x0 PUSH20 0xFFFFFFFFFFFFFFFFFFFFFFFFFFFFFFFFFFFFFFFF AND DUP2 MSTORE POP SWAP1 DUP1 PUSH1 0x1 DUP2 SLOAD ADD DUP1 DUP3 SSTORE DUP1 SWAP2 POP POP PUSH1 0x1 SWAP1 SUB SWAP1 PUSH1 0x0 MSTORE PUSH1 0x20 PUSH1 0x0 KECCAK256 SWAP1 PUSH1 0x2 MUL ADD PUSH1 0x0 SWAP1 SWAP2 SWAP1 SWAP2 SWAP1 SWAP2 POP PUSH1 0x0 DUP3 ADD MLOAD DUP2 PUSH1 0x0 ADD SWAP1 DUP1 MLOAD SWAP1 PUSH1 0x20 ADD SWAP1 PUSH2 0x1C5 SWAP3 SWAP2 SWAP1 PUSH2 0xBA1 JUMP JUMPDEST POP PUSH1 0x20 DUP3 ADD MLOAD DUP2 PUSH1 0x1 ADD PUSH1 0x0 PUSH2 0x100 EXP DUP2 SLOAD DUP2 PUSH20 0xFFFFFFFFFFFFFFFFFFFFFFFFFFFFFFFFFFFFFFFF MUL NOT AND SWAP1 DUP4 PUSH20 0xFFFFFFFFFFFFFFFFFFFFFFFFFFFFFFFFFFFFFFFF AND MUL OR SWAP1 SSTORE POP POP POP DUP1 PUSH1 0x40 MLOAD PUSH2 0x21D SWAP2 SWAP1 PUSH2 0x10AE JUMP JUMPDEST PUSH1 0x40 MLOAD DUP1 SWAP2 SUB SWAP1 KECCAK256 PUSH32 0x389883C247948E6A90F461D8FEBCBC3D72029C3E696E10F6C68CBB65D7E23FC9 PUSH1 0x40 MLOAD PUSH1 0x40 MLOAD DUP1 SWAP2 SUB SWAP1 LOG2 POP JUMP JUMPDEST PUSH1 0x1 DUP2 DUP2 SLOAD DUP2 LT PUSH2 0x264 JUMPI PUSH1 0x0 DUP1 REVERT JUMPDEST SWAP1 PUSH1 0x0 MSTORE PUSH1 0x20 PUSH1 0x0 KECCAK256 SWAP1 PUSH1 0x2 MUL ADD PUSH1 0x0 SWAP2 POP SWAP1 POP DUP1 PUSH1 0x0 ADD DUP1 SLOAD PUSH2 0x287 SWAP1 PUSH2 0x139F JUMP JUMPDEST DUP1 PUSH1 0x1F ADD PUSH1 0x20 DUP1 SWAP2 DIV MUL PUSH1 0x20 ADD PUSH1 0x40 MLOAD SWAP1 DUP2 ADD PUSH1 0x40 MSTORE DUP1 SWAP3 SWAP2 SWAP1 DUP2 DUP2 MSTORE PUSH1 0x20 ADD DUP3 DUP1 SLOAD PUSH2 0x2B3 SWAP1 PUSH2 0x139F JUMP JUMPDEST DUP1 ISZERO PUSH2 0x300 JUMPI DUP1 PUSH1 0x1F LT PUSH2 0x2D5 JUMPI PUSH2 0x100 DUP1 DUP4 SLOAD DIV MUL DUP4 MSTORE SWAP2 PUSH1 0x20 ADD SWAP2 PUSH2 0x300 JUMP JUMPDEST DUP3 ADD SWAP2 SWAP1 PUSH1 0x0 MSTORE PUSH1 0x20 PUSH1 0x0 KECCAK256 SWAP1 JUMPDEST DUP2 SLOAD DUP2 MSTORE SWAP1 PUSH1 0x1 ADD SWAP1 PUSH1 0x20 ADD DUP1 DUP4 GT PUSH2 0x2E3 JUMPI DUP3 SWAP1 SUB PUSH1 0x1F AND DUP3 ADD SWAP2 JUMPDEST POP POP POP POP POP SWAP1 DUP1 PUSH1 0x1 ADD PUSH1 0x0 SWAP1 SLOAD SWAP1 PUSH2 0x100 EXP SWAP1 DIV PUSH20 0xFFFFFFFFFFFFFFFFFFFFFFFFFFFFFFFFFFFFFFFF AND SWAP1 POP DUP3 JUMP JUMPDEST PUSH1 0x1 DUP1 SLOAD SWAP1 POP DUP2 LT PUSH2 0x377 JUMPI PUSH1 0x40 MLOAD PUSH32 0x8C379A000000000000000000000000000000000000000000000000000000000 DUP2 MSTORE PUSH1 0x4 ADD PUSH2 0x36E SWAP1 PUSH2 0x11A9 JUMP JUMPDEST PUSH1 0x40 MLOAD DUP1 SWAP2 SUB SWAP1 REVERT JUMPDEST PUSH1 0x0 PUSH20 0xFFFFFFFFFFFFFFFFFFFFFFFFFFFFFFFFFFFFFFFF AND PUSH1 0x1 DUP3 DUP2 SLOAD DUP2 LT PUSH2 0x3C9 JUMPI PUSH32 0x4E487B7100000000000000000000000000000000000000000000000000000000 PUSH1 0x0 MSTORE PUSH1 0x32 PUSH1 0x4 MSTORE PUSH1 0x24 PUSH1 0x0 REVERT JUMPDEST SWAP1 PUSH1 0x0 MSTORE PUSH1 0x20 PUSH1 0x0 KECCAK256 SWAP1 PUSH1 0x2 MUL ADD PUSH1 0x1 ADD PUSH1 0x0 SWAP1 SLOAD SWAP1 PUSH2 0x100 EXP SWAP1 DIV PUSH20 0xFFFFFFFFFFFFFFFFFFFFFFFFFFFFFFFFFFFFFFFF AND PUSH20 0xFFFFFFFFFFFFFFFFFFFFFFFFFFFFFFFFFFFFFFFF AND EQ PUSH2 0x451 JUMPI PUSH1 0x40 MLOAD PUSH32 0x8C379A000000000000000000000000000000000000000000000000000000000 DUP2 MSTORE PUSH1 0x4 ADD PUSH2 0x448 SWAP1 PUSH2 0x1169 JUMP JUMPDEST PUSH1 0x40 MLOAD DUP1 SWAP2 SUB SWAP1 REVERT JUMPDEST PUSH1 0x1 PUSH1 0x0 DUP1 CALLER PUSH20 0xFFFFFFFFFFFFFFFFFFFFFFFFFFFFFFFFFFFFFFFF AND PUSH20 0xFFFFFFFFFFFFFFFFFFFFFFFFFFFFFFFFFFFFFFFF AND DUP2 MSTORE PUSH1 0x20 ADD SWAP1 DUP2 MSTORE PUSH1 0x20 ADD PUSH1 0x0 KECCAK256 SLOAD EQ ISZERO PUSH2 0x4D3 JUMPI PUSH1 0x40 MLOAD PUSH32 0x8C379A000000000000000000000000000000000000000000000000000000000 DUP2 MSTORE PUSH1 0x4 ADD PUSH2 0x4CA SWAP1 PUSH2 0x1189 JUMP JUMPDEST PUSH1 0x40 MLOAD DUP1 SWAP2 SUB SWAP1 REVERT JUMPDEST CALLER PUSH1 0x1 DUP3 DUP2 SLOAD DUP2 LT PUSH2 0x50E JUMPI PUSH32 0x4E487B7100000000000000000000000000000000000000000000000000000000 PUSH1 0x0 MSTORE PUSH1 0x32 PUSH1 0x4 MSTORE PUSH1 0x24 PUSH1 0x0 REVERT JUMPDEST SWAP1 PUSH1 0x0 MSTORE PUSH1 0x20 PUSH1 0x0 KECCAK256 SWAP1 PUSH1 0x2 MUL ADD PUSH1 0x1 ADD PUSH1 0x0 PUSH2 0x100 EXP DUP2 SLOAD DUP2 PUSH20 0xFFFFFFFFFFFFFFFFFFFFFFFFFFFFFFFFFFFFFFFF MUL NOT AND SWAP1 DUP4 PUSH20 0xFFFFFFFFFFFFFFFFFFFFFFFFFFFFFFFFFFFFFFFF AND MUL OR SWAP1 SSTORE POP PUSH1 0x1 DUP2 PUSH2 0x56A SWAP2 SWAP1 PUSH2 0x12CB JUMP JUMPDEST PUSH1 0x0 DUP1 CALLER PUSH20 0xFFFFFFFFFFFFFFFFFFFFFFFFFFFFFFFFFFFFFFFF AND PUSH20 0xFFFFFFFFFFFFFFFFFFFFFFFFFFFFFFFFFFFFFFFF AND DUP2 MSTORE PUSH1 0x20 ADD SWAP1 DUP2 MSTORE PUSH1 0x20 ADD PUSH1 0x0 KECCAK256 DUP2 SWAP1 SSTORE POP PUSH1 0x1 DUP2 DUP2 SLOAD DUP2 LT PUSH2 0x5E6 JUMPI PUSH32 0x4E487B7100000000000000000000000000000000000000000000000000000000 PUSH1 0x0 MSTORE PUSH1 0x32 PUSH1 0x4 MSTORE PUSH1 0x24 PUSH1 0x0 REVERT JUMPDEST SWAP1 PUSH1 0x0 MSTORE PUSH1 0x20 PUSH1 0x0 KECCAK256 SWAP1 PUSH1 0x2 MUL ADD PUSH1 0x0 ADD PUSH1 0x40 MLOAD PUSH2 0x604 SWAP2 SWAP1 PUSH2 0x10C5 JUMP JUMPDEST PUSH1 0x40 MLOAD DUP1 SWAP2 SUB SWAP1 KECCAK256 PUSH32 0x4BD98B3223C39F335BC6F823093AB65D500345BEDA2BD23303AE81271E26810D CALLER PUSH1 0x40 MLOAD PUSH2 0x63B SWAP2 SWAP1 PUSH2 0x10DC JUMP JUMPDEST PUSH1 0x40 MLOAD DUP1 SWAP2 SUB SWAP1 LOG2 POP JUMP JUMPDEST PUSH1 0x1 DUP2 DUP2 SLOAD DUP2 LT PUSH2 0x680 JUMPI PUSH32 0x4E487B7100000000000000000000000000000000000000000000000000000000 PUSH1 0x0 MSTORE PUSH1 0x32 PUSH1 0x4 MSTORE PUSH1 0x24 PUSH1 0x0 REVERT JUMPDEST SWAP1 PUSH1 0x0 MSTORE PUSH1 0x20 PUSH1 0x0 KECCAK256 SWAP1 PUSH1 0x2 MUL ADD PUSH1 0x1 ADD PUSH1 0x0 SWAP1 SLOAD SWAP1 PUSH2 0x100 EXP SWAP1 DIV PUSH20 0xFFFFFFFFFFFFFFFFFFFFFFFFFFFFFFFFFFFFFFFF AND PUSH20 0xFFFFFFFFFFFFFFFFFFFFFFFFFFFFFFFFFFFFFFFF AND CALLER PUSH20 0xFFFFFFFFFFFFFFFFFFFFFFFFFFFFFFFFFFFFFFFF AND EQ PUSH2 0x71F JUMPI PUSH1 0x40 MLOAD PUSH32 0x8C379A000000000000000000000000000000000000000000000000000000000 DUP2 MSTORE PUSH1 0x4 ADD PUSH2 0x716 SWAP1 PUSH2 0x1149 JUMP JUMPDEST PUSH1 0x40 MLOAD DUP1 SWAP2 SUB SWAP1 REVERT JUMPDEST PUSH1 0x0 PUSH1 0x1 DUP3 DUP2 SLOAD DUP2 LT PUSH2 0x75B JUMPI PUSH32 0x4E487B7100000000000000000000000000000000000000000000000000000000 PUSH1 0x0 MSTORE PUSH1 0x32 PUSH1 0x4 MSTORE PUSH1 0x24 PUSH1 0x0 REVERT JUMPDEST SWAP1 PUSH1 0x0 MSTORE PUSH1 0x20 PUSH1 0x0 KECCAK256 SWAP1 PUSH1 0x2 MUL ADD PUSH1 0x1 ADD PUSH1 0x0 PUSH2 0x100 EXP DUP2 SLOAD DUP2 PUSH20 0xFFFFFFFFFFFFFFFFFFFFFFFFFFFFFFFFFFFFFFFF MUL NOT AND SWAP1 DUP4 PUSH20 0xFFFFFFFFFFFFFFFFFFFFFFFFFFFFFFFFFFFFFFFF AND MUL OR SWAP1 SSTORE POP PUSH1 0x0 DUP1 PUSH1 0x0 CALLER PUSH20 0xFFFFFFFFFFFFFFFFFFFFFFFFFFFFFFFFFFFFFFFF AND PUSH20 0xFFFFFFFFFFFFFFFFFFFFFFFFFFFFFFFFFFFFFFFF AND DUP2 MSTORE PUSH1 0x20 ADD SWAP1 DUP2 MSTORE PUSH1 0x20 ADD PUSH1 0x0 KECCAK256 DUP2 SWAP1 SSTORE POP POP JUMP JUMPDEST PUSH1 0x60 PUSH1 0x0 DUP1 JUMPDEST PUSH1 0x1 DUP1 SLOAD SWAP1 POP DUP2 LT ISZERO PUSH2 0x8C6 JUMPI PUSH1 0x0 PUSH20 0xFFFFFFFFFFFFFFFFFFFFFFFFFFFFFFFFFFFFFFFF AND PUSH1 0x1 DUP3 DUP2 SLOAD DUP2 LT PUSH2 0x856 JUMPI PUSH32 0x4E487B7100000000000000000000000000000000000000000000000000000000 PUSH1 0x0 MSTORE PUSH1 0x32 PUSH1 0x4 MSTORE PUSH1 0x24 PUSH1 0x0 REVERT JUMPDEST SWAP1 PUSH1 0x0 MSTORE PUSH1 0x20 PUSH1 0x0 KECCAK256 SWAP1 PUSH1 0x2 MUL ADD PUSH1 0x1 ADD PUSH1 0x0 SWAP1 SLOAD SWAP1 PUSH2 0x100 EXP SWAP1 DIV PUSH20 0xFFFFFFFFFFFFFFFFFFFFFFFFFFFFFFFFFFFFFFFF AND PUSH20 0xFFFFFFFFFFFFFFFFFFFFFFFFFFFFFFFFFFFFFFFF AND EQ ISZERO PUSH2 0x8B3 JUMPI DUP2 DUP1 PUSH2 0x8AF SWAP1 PUSH2 0x13D1 JUMP JUMPDEST SWAP3 POP POP JUMPDEST DUP1 DUP1 PUSH2 0x8BE SWAP1 PUSH2 0x13D1 JUMP JUMPDEST SWAP2 POP POP PUSH2 0x7F7 JUMP JUMPDEST POP PUSH1 0x0 DUP2 PUSH8 0xFFFFFFFFFFFFFFFF DUP2 GT ISZERO PUSH2 0x909 JUMPI PUSH32 0x4E487B7100000000000000000000000000000000000000000000000000000000 PUSH1 0x0 MSTORE PUSH1 0x41 PUSH1 0x4 MSTORE PUSH1 0x24 PUSH1 0x0 REVERT JUMPDEST PUSH1 0x40 MLOAD SWAP1 DUP1 DUP3 MSTORE DUP1 PUSH1 0x20 MUL PUSH1 0x20 ADD DUP3 ADD PUSH1 0x40 MSTORE DUP1 ISZERO PUSH2 0x942 JUMPI DUP2 PUSH1 0x20 ADD JUMPDEST PUSH2 0x92F PUSH2 0xC27 JUMP JUMPDEST DUP2 MSTORE PUSH1 0x20 ADD SWAP1 PUSH1 0x1 SWAP1 SUB SWAP1 DUP2 PUSH2 0x927 JUMPI SWAP1 POP JUMPDEST POP SWAP1 POP PUSH1 0x0 DUP1 JUMPDEST PUSH1 0x1 DUP1 SLOAD SWAP1 POP DUP2 LT ISZERO PUSH2 0xB97 JUMPI PUSH1 0x0 PUSH20 0xFFFFFFFFFFFFFFFFFFFFFFFFFFFFFFFFFFFFFFFF AND PUSH1 0x1 DUP3 DUP2 SLOAD DUP2 LT PUSH2 0x9A8 JUMPI PUSH32 0x4E487B7100000000000000000000000000000000000000000000000000000000 PUSH1 0x0 MSTORE PUSH1 0x32 PUSH1 0x4 MSTORE PUSH1 0x24 PUSH1 0x0 REVERT JUMPDEST SWAP1 PUSH1 0x0 MSTORE PUSH1 0x20 PUSH1 0x0 KECCAK256 SWAP1 PUSH1 0x2 MUL ADD PUSH1 0x1 ADD PUSH1 0x0 SWAP1 SLOAD SWAP1 PUSH2 0x100 EXP SWAP1 DIV PUSH20 0xFFFFFFFFFFFFFFFFFFFFFFFFFFFFFFFFFFFFFFFF AND PUSH20 0xFFFFFFFFFFFFFFFFFFFFFFFFFFFFFFFFFFFFFFFF AND EQ ISZERO PUSH2 0xB84 JUMPI PUSH1 0x1 DUP2 DUP2 SLOAD DUP2 LT PUSH2 0xA30 JUMPI PUSH32 0x4E487B7100000000000000000000000000000000000000000000000000000000 PUSH1 0x0 MSTORE PUSH1 0x32 PUSH1 0x4 MSTORE PUSH1 0x24 PUSH1 0x0 REVERT JUMPDEST SWAP1 PUSH1 0x0 MSTORE PUSH1 0x20 PUSH1 0x0 KECCAK256 SWAP1 PUSH1 0x2 MUL ADD PUSH1 0x40 MLOAD DUP1 PUSH1 0x40 ADD PUSH1 0x40 MSTORE SWAP1 DUP2 PUSH1 0x0 DUP3 ADD DUP1 SLOAD PUSH2 0xA59 SWAP1 PUSH2 0x139F JUMP JUMPDEST DUP1 PUSH1 0x1F ADD PUSH1 0x20 DUP1 SWAP2 DIV MUL PUSH1 0x20 ADD PUSH1 0x40 MLOAD SWAP1 DUP2 ADD PUSH1 0x40 MSTORE DUP1 SWAP3 SWAP2 SWAP1 DUP2 DUP2 MSTORE PUSH1 0x20 ADD DUP3 DUP1 SLOAD PUSH2 0xA85 SWAP1 PUSH2 0x139F JUMP JUMPDEST DUP1 ISZERO PUSH2 0xAD2 JUMPI DUP1 PUSH1 0x1F LT PUSH2 0xAA7 JUMPI PUSH2 0x100 DUP1 DUP4 SLOAD DIV MUL DUP4 MSTORE SWAP2 PUSH1 0x20 ADD SWAP2 PUSH2 0xAD2 JUMP JUMPDEST DUP3 ADD SWAP2 SWAP1 PUSH1 0x0 MSTORE PUSH1 0x20 PUSH1 0x0 KECCAK256 SWAP1 JUMPDEST DUP2 SLOAD DUP2 MSTORE SWAP1 PUSH1 0x1 ADD SWAP1 PUSH1 0x20 ADD DUP1 DUP4 GT PUSH2 0xAB5 JUMPI DUP3 SWAP1 SUB PUSH1 0x1F AND DUP3 ADD SWAP2 JUMPDEST POP POP POP POP POP DUP2 MSTORE PUSH1 0x20 ADD PUSH1 0x1 DUP3 ADD PUSH1 0x0 SWAP1 SLOAD SWAP1 PUSH2 0x100 EXP SWAP1 DIV PUSH20 0xFFFFFFFFFFFFFFFFFFFFFFFFFFFFFFFFFFFFFFFF AND PUSH20 0xFFFFFFFFFFFFFFFFFFFFFFFFFFFFFFFFFFFFFFFF AND PUSH20 0xFFFFFFFFFFFFFFFFFFFFFFFFFFFFFFFFFFFFFFFF AND DUP2 MSTORE POP POP DUP4 DUP4 DUP2 MLOAD DUP2 LT PUSH2 0xB6A JUMPI PUSH32 0x4E487B7100000000000000000000000000000000000000000000000000000000 PUSH1 0x0 MSTORE PUSH1 0x32 PUSH1 0x4 MSTORE PUSH1 0x24 PUSH1 0x0 REVERT JUMPDEST PUSH1 0x20 MUL PUSH1 0x20 ADD ADD DUP2 SWAP1 MSTORE POP DUP2 DUP1 PUSH2 0xB80 SWAP1 PUSH2 0x13D1 JUMP JUMPDEST SWAP3 POP POP JUMPDEST DUP1 DUP1 PUSH2 0xB8F SWAP1 PUSH2 0x13D1 JUMP JUMPDEST SWAP2 POP POP PUSH2 0x949 JUMP JUMPDEST POP DUP2 SWAP4 POP POP POP POP SWAP1 JUMP JUMPDEST DUP3 DUP1 SLOAD PUSH2 0xBAD SWAP1 PUSH2 0x139F JUMP JUMPDEST SWAP1 PUSH1 0x0 MSTORE PUSH1 0x20 PUSH1 0x0 KECCAK256 SWAP1 PUSH1 0x1F ADD PUSH1 0x20 SWAP1 DIV DUP2 ADD SWAP3 DUP3 PUSH2 0xBCF JUMPI PUSH1 0x0 DUP6 SSTORE PUSH2 0xC16 JUMP JUMPDEST DUP3 PUSH1 0x1F LT PUSH2 0xBE8 JUMPI DUP1 MLOAD PUSH1 0xFF NOT AND DUP4 DUP1 ADD OR DUP6 SSTORE PUSH2 0xC16 JUMP JUMPDEST DUP3 DUP1 ADD PUSH1 0x1 ADD DUP6 SSTORE DUP3 ISZERO PUSH2 0xC16 JUMPI SWAP2 DUP3 ADD JUMPDEST DUP3 DUP2 GT ISZERO PUSH2 0xC15 JUMPI DUP3 MLOAD DUP3 SSTORE SWAP2 PUSH1 0x20 ADD SWAP2 SWAP1 PUSH1 0x1 ADD SWAP1 PUSH2 0xBFA JUMP JUMPDEST JUMPDEST POP SWAP1 POP PUSH2 0xC23 SWAP2 SWAP1 PUSH2 0xC57 JUMP JUMPDEST POP SWAP1 JUMP JUMPDEST PUSH1 0x40 MLOAD DUP1 PUSH1 0x40 ADD PUSH1 0x40 MSTORE DUP1 PUSH1 0x60 DUP2 MSTORE PUSH1 0x20 ADD PUSH1 0x0 PUSH20 0xFFFFFFFFFFFFFFFFFFFFFFFFFFFFFFFFFFFFFFFF AND DUP2 MSTORE POP SWAP1 JUMP JUMPDEST JUMPDEST DUP1 DUP3 GT ISZERO PUSH2 0xC70 JUMPI PUSH1 0x0 DUP2 PUSH1 0x0 SWAP1 SSTORE POP PUSH1 0x1 ADD PUSH2 0xC58 JUMP JUMPDEST POP SWAP1 JUMP JUMPDEST PUSH1 0x0 PUSH2 0xC87 PUSH2 0xC82 DUP5 PUSH2 0x1215 JUMP JUMPDEST PUSH2 0x11E4 JUMP JUMPDEST SWAP1 POP DUP3 DUP2 MSTORE PUSH1 0x20 DUP2 ADD DUP5 DUP5 DUP5 ADD GT ISZERO PUSH2 0xC9F JUMPI PUSH1 0x0 DUP1 REVERT JUMPDEST PUSH2 0xCAA DUP5 DUP3 DUP6 PUSH2 0x135D JUMP JUMPDEST POP SWAP4 SWAP3 POP POP POP JUMP JUMPDEST PUSH1 0x0 DUP2 CALLDATALOAD SWAP1 POP PUSH2 0xCC1 DUP2 PUSH2 0x14B8 JUMP JUMPDEST SWAP3 SWAP2 POP POP JUMP JUMPDEST PUSH1 0x0 DUP3 PUSH1 0x1F DUP4 ADD SLT PUSH2 0xCD8 JUMPI PUSH1 0x0 DUP1 REVERT JUMPDEST DUP2 CALLDATALOAD PUSH2 0xCE8 DUP5 DUP3 PUSH1 0x20 DUP7 ADD PUSH2 0xC74 JUMP JUMPDEST SWAP2 POP POP SWAP3 SWAP2 POP POP JUMP JUMPDEST PUSH1 0x0 DUP2 CALLDATALOAD SWAP1 POP PUSH2 0xD00 DUP2 PUSH2 0x14CF JUMP JUMPDEST SWAP3 SWAP2 POP POP JUMP JUMPDEST PUSH1 0x0 PUSH1 0x20 DUP3 DUP5 SUB SLT ISZERO PUSH2 0xD18 JUMPI PUSH1 0x0 DUP1 REVERT JUMPDEST PUSH1 0x0 PUSH2 0xD26 DUP5 DUP3 DUP6 ADD PUSH2 0xCB2 JUMP JUMPDEST SWAP2 POP POP SWAP3 SWAP2 POP POP JUMP JUMPDEST PUSH1 0x0 PUSH1 0x20 DUP3 DUP5 SUB SLT ISZERO PUSH2 0xD41 JUMPI PUSH1 0x0 DUP1 REVERT JUMPDEST PUSH1 0x0 DUP3 ADD CALLDATALOAD PUSH8 0xFFFFFFFFFFFFFFFF DUP2 GT ISZERO PUSH2 0xD5B JUMPI PUSH1 0x0 DUP1 REVERT JUMPDEST PUSH2 0xD67 DUP5 DUP3 DUP6 ADD PUSH2 0xCC7 JUMP JUMPDEST SWAP2 POP POP SWAP3 SWAP2 POP POP JUMP JUMPDEST PUSH1 0x0 PUSH1 0x20 DUP3 DUP5 SUB SLT ISZERO PUSH2 0xD82 JUMPI PUSH1 0x0 DUP1 REVERT JUMPDEST PUSH1 0x0 PUSH2 0xD90 DUP5 DUP3 DUP6 ADD PUSH2 0xCF1 JUMP JUMPDEST SWAP2 POP POP SWAP3 SWAP2 POP POP JUMP JUMPDEST PUSH1 0x0 PUSH2 0xDA5 DUP4 DUP4 PUSH2 0x1062 JUMP JUMPDEST SWAP1 POP SWAP3 SWAP2 POP POP JUMP JUMPDEST PUSH2 0xDB6 DUP2 PUSH2 0x1321 JUMP JUMPDEST DUP3 MSTORE POP POP JUMP JUMPDEST PUSH2 0xDC5 DUP2 PUSH2 0x1321 JUMP JUMPDEST DUP3 MSTORE POP POP JUMP JUMPDEST PUSH1 0x0 PUSH2 0xDD6 DUP3 PUSH2 0x126A JUMP JUMPDEST PUSH2 0xDE0 DUP2 DUP6 PUSH2 0x128D JUMP JUMPDEST SWAP4 POP DUP4 PUSH1 0x20 DUP3 MUL DUP6 ADD PUSH2 0xDF2 DUP6 PUSH2 0x1245 JUMP JUMPDEST DUP1 PUSH1 0x0 JUMPDEST DUP6 DUP2 LT ISZERO PUSH2 0xE2E JUMPI DUP5 DUP5 SUB DUP10 MSTORE DUP2 MLOAD PUSH2 0xE0F DUP6 DUP3 PUSH2 0xD99 JUMP JUMPDEST SWAP5 POP PUSH2 0xE1A DUP4 PUSH2 0x1280 JUMP JUMPDEST SWAP3 POP PUSH1 0x20 DUP11 ADD SWAP10 POP POP PUSH1 0x1 DUP2 ADD SWAP1 POP PUSH2 0xDF6 JUMP JUMPDEST POP DUP3 SWAP8 POP DUP8 SWAP6 POP POP POP POP POP POP SWAP3 SWAP2 POP POP JUMP JUMPDEST PUSH1 0x0 PUSH2 0xE4B DUP3 PUSH2 0x1275 JUMP JUMPDEST PUSH2 0xE55 DUP2 DUP6 PUSH2 0x129E JUMP JUMPDEST SWAP4 POP PUSH2 0xE65 DUP2 DUP6 PUSH1 0x20 DUP7 ADD PUSH2 0x136C JUMP JUMPDEST PUSH2 0xE6E DUP2 PUSH2 0x14A7 JUMP JUMPDEST DUP5 ADD SWAP2 POP POP SWAP3 SWAP2 POP POP JUMP JUMPDEST PUSH1 0x0 PUSH2 0xE84 DUP3 PUSH2 0x1275 JUMP JUMPDEST PUSH2 0xE8E DUP2 DUP6 PUSH2 0x12AF JUMP JUMPDEST SWAP4 POP PUSH2 0xE9E DUP2 DUP6 PUSH1 0x20 DUP7 ADD PUSH2 0x136C JUMP JUMPDEST PUSH2 0xEA7 DUP2 PUSH2 0x14A7 JUMP JUMPDEST DUP5 ADD SWAP2 POP POP SWAP3 SWAP2 POP POP JUMP JUMPDEST PUSH1 0x0 PUSH2 0xEBD DUP3 PUSH2 0x1275 JUMP JUMPDEST PUSH2 0xEC7 DUP2 DUP6 PUSH2 0x12C0 JUMP JUMPDEST SWAP4 POP PUSH2 0xED7 DUP2 DUP6 PUSH1 0x20 DUP7 ADD PUSH2 0x136C JUMP JUMPDEST DUP1 DUP5 ADD SWAP2 POP POP SWAP3 SWAP2 POP POP JUMP JUMPDEST PUSH1 0x0 DUP2 SLOAD PUSH2 0xEF0 DUP2 PUSH2 0x139F JUMP JUMPDEST PUSH2 0xEFA DUP2 DUP7 PUSH2 0x12C0 JUMP JUMPDEST SWAP5 POP PUSH1 0x1 DUP3 AND PUSH1 0x0 DUP2 EQ PUSH2 0xF15 JUMPI PUSH1 0x1 DUP2 EQ PUSH2 0xF26 JUMPI PUSH2 0xF59 JUMP JUMPDEST PUSH1 0xFF NOT DUP4 AND DUP7 MSTORE DUP2 DUP7 ADD SWAP4 POP PUSH2 0xF59 JUMP JUMPDEST PUSH2 0xF2F DUP6 PUSH2 0x1255 JUMP JUMPDEST PUSH1 0x0 JUMPDEST DUP4 DUP2 LT ISZERO PUSH2 0xF51 JUMPI DUP2 SLOAD DUP2 DUP10 ADD MSTORE PUSH1 0x1 DUP3 ADD SWAP2 POP PUSH1 0x20 DUP2 ADD SWAP1 POP PUSH2 0xF32 JUMP JUMPDEST DUP4 DUP9 ADD SWAP6 POP POP POP JUMPDEST POP POP POP SWAP3 SWAP2 POP POP JUMP JUMPDEST PUSH1 0x0 PUSH2 0xF6F PUSH1 0x16 DUP4 PUSH2 0x12AF JUMP JUMPDEST SWAP2 POP PUSH32 0x4F6E6C79206F776E65722063616E2072657475726E2100000000000000000000 PUSH1 0x0 DUP4 ADD MSTORE PUSH1 0x20 DUP3 ADD SWAP1 POP SWAP2 SWAP1 POP JUMP JUMPDEST PUSH1 0x0 PUSH2 0xFAF PUSH1 0x13 DUP4 PUSH2 0x12AF JUMP JUMPDEST SWAP2 POP PUSH32 0x426F6F6B20616C72656164792074616B656E2100000000000000000000000000 PUSH1 0x0 DUP4 ADD MSTORE PUSH1 0x20 DUP3 ADD SWAP1 POP SWAP2 SWAP1 POP JUMP JUMPDEST PUSH1 0x0 PUSH2 0xFEF PUSH1 0x17 DUP4 PUSH2 0x12AF JUMP JUMPDEST SWAP2 POP PUSH32 0x5520616C72656164792074616B656E206120626F6F6B21000000000000000000 PUSH1 0x0 DUP4 ADD MSTORE PUSH1 0x20 DUP3 ADD SWAP1 POP SWAP2 SWAP1 POP JUMP JUMPDEST PUSH1 0x0 PUSH2 0x102F PUSH1 0x8 DUP4 PUSH2 0x12AF JUMP JUMPDEST SWAP2 POP PUSH32 0x57726F6E67204944000000000000000000000000000000000000000000000000 PUSH1 0x0 DUP4 ADD MSTORE PUSH1 0x20 DUP3 ADD SWAP1 POP SWAP2 SWAP1 POP JUMP JUMPDEST PUSH1 0x0 PUSH1 0x40 DUP4 ADD PUSH1 0x0 DUP4 ADD MLOAD DUP5 DUP3 SUB PUSH1 0x0 DUP7 ADD MSTORE PUSH2 0x107F DUP3 DUP3 PUSH2 0xE40 JUMP JUMPDEST SWAP2 POP POP PUSH1 0x20 DUP4 ADD MLOAD PUSH2 0x1094 PUSH1 0x20 DUP7 ADD DUP3 PUSH2 0xDAD JUMP JUMPDEST POP DUP1 SWAP2 POP POP SWAP3 SWAP2 POP POP JUMP JUMPDEST PUSH2 0x10A8 DUP2 PUSH2 0x1353 JUMP JUMPDEST DUP3 MSTORE POP POP JUMP JUMPDEST PUSH1 0x0 PUSH2 0x10BA DUP3 DUP5 PUSH2 0xEB2 JUMP JUMPDEST SWAP2 POP DUP2 SWAP1 POP SWAP3 SWAP2 POP POP JUMP JUMPDEST PUSH1 0x0 PUSH2 0x10D1 DUP3 DUP5 PUSH2 0xEE3 JUMP JUMPDEST SWAP2 POP DUP2 SWAP1 POP SWAP3 SWAP2 POP POP JUMP JUMPDEST PUSH1 0x0 PUSH1 0x20 DUP3 ADD SWAP1 POP PUSH2 0x10F1 PUSH1 0x0 DUP4 ADD DUP5 PUSH2 0xDBC JUMP JUMPDEST SWAP3 SWAP2 POP POP JUMP JUMPDEST PUSH1 0x0 PUSH1 0x20 DUP3 ADD SWAP1 POP DUP2 DUP2 SUB PUSH1 0x0 DUP4 ADD MSTORE PUSH2 0x1111 DUP2 DUP5 PUSH2 0xDCB JUMP JUMPDEST SWAP1 POP SWAP3 SWAP2 POP POP JUMP JUMPDEST PUSH1 0x0 PUSH1 0x40 DUP3 ADD SWAP1 POP DUP2 DUP2 SUB PUSH1 0x0 DUP4 ADD MSTORE PUSH2 0x1133 DUP2 DUP6 PUSH2 0xE79 JUMP JUMPDEST SWAP1 POP PUSH2 0x1142 PUSH1 0x20 DUP4 ADD DUP5 PUSH2 0xDBC JUMP JUMPDEST SWAP4 SWAP3 POP POP POP JUMP JUMPDEST PUSH1 0x0 PUSH1 0x20 DUP3 ADD SWAP1 POP DUP2 DUP2 SUB PUSH1 0x0 DUP4 ADD MSTORE PUSH2 0x1162 DUP2 PUSH2 0xF62 JUMP JUMPDEST SWAP1 POP SWAP2 SWAP1 POP JUMP JUMPDEST PUSH1 0x0 PUSH1 0x20 DUP3 ADD SWAP1 POP DUP2 DUP2 SUB PUSH1 0x0 DUP4 ADD MSTORE PUSH2 0x1182 DUP2 PUSH2 0xFA2 JUMP JUMPDEST SWAP1 POP SWAP2 SWAP1 POP JUMP JUMPDEST PUSH1 0x0 PUSH1 0x20 DUP3 ADD SWAP1 POP DUP2 DUP2 SUB PUSH1 0x0 DUP4 ADD MSTORE PUSH2 0x11A2 DUP2 PUSH2 0xFE2 JUMP JUMPDEST SWAP1 POP SWAP2 SWAP1 POP JUMP JUMPDEST PUSH1 0x0 PUSH1 0x20 DUP3 ADD SWAP1 POP DUP2 DUP2 SUB PUSH1 0x0 DUP4 ADD MSTORE PUSH2 0x11C2 DUP2 PUSH2 0x1022 JUMP JUMPDEST SWAP1 POP SWAP2 SWAP1 POP JUMP JUMPDEST PUSH1 0x0 PUSH1 0x20 DUP3 ADD SWAP1 POP PUSH2 0x11DE PUSH1 0x0 DUP4 ADD DUP5 PUSH2 0x109F JUMP JUMPDEST SWAP3 SWAP2 POP POP JUMP JUMPDEST PUSH1 0x0 PUSH1 0x40 MLOAD SWAP1 POP DUP2 DUP2 ADD DUP2 DUP2 LT PUSH8 0xFFFFFFFFFFFFFFFF DUP3 GT OR ISZERO PUSH2 0x120B JUMPI PUSH2 0x120A PUSH2 0x1478 JUMP JUMPDEST JUMPDEST DUP1 PUSH1 0x40 MSTORE POP SWAP2 SWAP1 POP JUMP JUMPDEST PUSH1 0x0 PUSH8 0xFFFFFFFFFFFFFFFF DUP3 GT ISZERO PUSH2 0x1230 JUMPI PUSH2 0x122F PUSH2 0x1478 JUMP JUMPDEST JUMPDEST PUSH1 0x1F NOT PUSH1 0x1F DUP4 ADD AND SWAP1 POP PUSH1 0x20 DUP2 ADD SWAP1 POP SWAP2 SWAP1 POP JUMP JUMPDEST PUSH1 0x0 DUP2 SWAP1 POP PUSH1 0x20 DUP3 ADD SWAP1 POP SWAP2 SWAP1 POP JUMP JUMPDEST PUSH1 0x0 DUP2 SWAP1 POP DUP2 PUSH1 0x0 MSTORE PUSH1 0x20 PUSH1 0x0 KECCAK256 SWAP1 POP SWAP2 SWAP1 POP JUMP JUMPDEST PUSH1 0x0 DUP2 MLOAD SWAP1 POP SWAP2 SWAP1 POP JUMP JUMPDEST PUSH1 0x0 DUP2 MLOAD SWAP1 POP SWAP2 SWAP1 POP JUMP JUMPDEST PUSH1 0x0 PUSH1 0x20 DUP3 ADD SWAP1 POP SWAP2 SWAP1 POP JUMP JUMPDEST PUSH1 0x0 DUP3 DUP3 MSTORE PUSH1 0x20 DUP3 ADD SWAP1 POP SWAP3 SWAP2 POP POP JUMP JUMPDEST PUSH1 0x0 DUP3 DUP3 MSTORE PUSH1 0x20 DUP3 ADD SWAP1 POP SWAP3 SWAP2 POP POP JUMP JUMPDEST PUSH1 0x0 DUP3 DUP3 MSTORE PUSH1 0x20 DUP3 ADD SWAP1 POP SWAP3 SWAP2 POP POP JUMP JUMPDEST PUSH1 0x0 DUP2 SWAP1 POP SWAP3 SWAP2 POP POP JUMP JUMPDEST PUSH1 0x0 PUSH2 0x12D6 DUP3 PUSH2 0x1353 JUMP JUMPDEST SWAP2 POP PUSH2 0x12E1 DUP4 PUSH2 0x1353 JUMP JUMPDEST SWAP3 POP DUP3 PUSH32 0xFFFFFFFFFFFFFFFFFFFFFFFFFFFFFFFFFFFFFFFFFFFFFFFFFFFFFFFFFFFFFFFF SUB DUP3 GT ISZERO PUSH2 0x1316 JUMPI PUSH2 0x1315 PUSH2 0x141A JUMP JUMPDEST JUMPDEST DUP3 DUP3 ADD SWAP1 POP SWAP3 SWAP2 POP POP JUMP JUMPDEST PUSH1 0x0 PUSH2 0x132C DUP3 PUSH2 0x1333 JUMP JUMPDEST SWAP1 POP SWAP2 SWAP1 POP JUMP JUMPDEST PUSH1 0x0 PUSH20 0xFFFFFFFFFFFFFFFFFFFFFFFFFFFFFFFFFFFFFFFF DUP3 AND SWAP1 POP SWAP2 SWAP1 POP JUMP JUMPDEST PUSH1 0x0 DUP2 SWAP1 POP SWAP2 SWAP1 POP JUMP JUMPDEST DUP3 DUP2 DUP4 CALLDATACOPY PUSH1 0x0 DUP4 DUP4 ADD MSTORE POP POP POP JUMP JUMPDEST PUSH1 0x0 JUMPDEST DUP4 DUP2 LT ISZERO PUSH2 0x138A JUMPI DUP1 DUP3 ADD MLOAD DUP2 DUP5 ADD MSTORE PUSH1 0x20 DUP2 ADD SWAP1 POP PUSH2 0x136F JUMP JUMPDEST DUP4 DUP2 GT ISZERO PUSH2 0x1399 JUMPI PUSH1 0x0 DUP5 DUP5 ADD MSTORE JUMPDEST POP POP POP POP JUMP JUMPDEST PUSH1 0x0 PUSH1 0x2 DUP3 DIV SWAP1 POP PUSH1 0x1 DUP3 AND DUP1 PUSH2 0x13B7 JUMPI PUSH1 0x7F DUP3 AND SWAP2 POP JUMPDEST PUSH1 0x20 DUP3 LT DUP2 EQ ISZERO PUSH2 0x13CB JUMPI PUSH2 0x13CA PUSH2 0x1449 JUMP JUMPDEST JUMPDEST POP SWAP2 SWAP1 POP JUMP JUMPDEST PUSH1 0x0 PUSH2 0x13DC DUP3 PUSH2 0x1353 JUMP JUMPDEST SWAP2 POP PUSH32 0xFFFFFFFFFFFFFFFFFFFFFFFFFFFFFFFFFFFFFFFFFFFFFFFFFFFFFFFFFFFFFFFF DUP3 EQ ISZERO PUSH2 0x140F JUMPI PUSH2 0x140E PUSH2 0x141A JUMP JUMPDEST JUMPDEST PUSH1 0x1 DUP3 ADD SWAP1 POP SWAP2 SWAP1 POP JUMP JUMPDEST PUSH32 0x4E487B7100000000000000000000000000000000000000000000000000000000 PUSH1 0x0 MSTORE PUSH1 0x11 PUSH1 0x4 MSTORE PUSH1 0x24 PUSH1 0x0 REVERT JUMPDEST PUSH32 0x4E487B7100000000000000000000000000000000000000000000000000000000 PUSH1 0x0 MSTORE PUSH1 0x22 PUSH1 0x4 MSTORE PUSH1 0x24 PUSH1 0x0 REVERT JUMPDEST PUSH32 0x4E487B7100000000000000000000000000000000000000000000000000000000 PUSH1 0x0 MSTORE PUSH1 0x41 PUSH1 0x4 MSTORE PUSH1 0x24 PUSH1 0x0 REVERT JUMPDEST PUSH1 0x0 PUSH1 0x1F NOT PUSH1 0x1F DUP4 ADD AND SWAP1 POP SWAP2 SWAP1 POP JUMP JUMPDEST PUSH2 0x14C1 DUP2 PUSH2 0x1321 JUMP JUMPDEST DUP2 EQ PUSH2 0x14CC JUMPI PUSH1 0x0 DUP1 REVERT JUMPDEST POP JUMP JUMPDEST PUSH2 0x14D8 DUP2 PUSH2 0x1353 JUMP JUMPDEST DUP2 EQ PUSH2 0x14E3 JUMPI PUSH1 0x0 DUP1 REVERT JUMPDEST POP JUMP INVALID LOG2 PUSH5 0x6970667358 0x22 SLT KECCAK256 CREATE2 XOR SLOAD 0xC5 GASLIMIT 0x4F 0xC1 STATICCALL COINBASE DUP11 REVERT SAR 0xE5 0xC7 ADD TIMESTAMP 0x23 0xCF PUSH31 0xD2E80BE88EBB1EEF693614DBE264736F6C6343000800003300000000000000 "
				},
				"gasEstimates": {
					"creation": {
						"codeDepositCost": "1080800",
						"executionCost": "1120",
						"totalCost": "1081920"
					},
					"external": {
						"addBook(string)": "infinite",
						"bookOwner(address)": "1492",
						"books(uint256)": "infinite",
						"borrowBook(uint256)": "infinite",
						"getAvailableBook()": "infinite",
						"returnBook(uint256)": "29106"
					}
				},
				"methodIdentifiers": {
					"addBook(string)": "3bc5f48a",
					"bookOwner(address)": "03d24c49",
					"books(uint256)": "68744046",
					"borrowBook(uint256)": "7e490a9e",
					"getAvailableBook()": "e35d207c",
					"returnBook(uint256)": "ca5140c9"
				}
			},
			"storageLayout": {
				"storage": [
					{
						"astId": 5,
						"contract": "LibraryStorage.sol:LibraryStorage",
						"label": "bookOwner",
						"offset": 0,
						"slot": "0",
						"type": "t_mapping(t_address,t_uint256)"
					},
					{
						"astId": 14,
						"contract": "LibraryStorage.sol:LibraryStorage",
						"label": "books",
						"offset": 0,
						"slot": "1",
						"type": "t_array(t_struct(Book)10_storage)dyn_storage"
					}
				],
				"types": {
					"t_address": {
						"encoding": "inplace",
						"label": "address",
						"numberOfBytes": "20"
					},
					"t_array(t_struct(Book)10_storage)dyn_storage": {
						"base": "t_struct(Book)10_storage",
						"encoding": "dynamic_array",
						"label": "struct LibraryStorage.Book[]",
						"numberOfBytes": "32"
					},
					"t_mapping(t_address,t_uint256)": {
						"encoding": "mapping",
						"key": "t_address",
						"label": "mapping(address => uint256)",
						"numberOfBytes": "32",
						"value": "t_uint256"
					},
					"t_string_storage": {
						"encoding": "bytes",
						"label": "string",
						"numberOfBytes": "32"
					},
					"t_struct(Book)10_storage": {
						"encoding": "inplace",
						"label": "struct LibraryStorage.Book",
						"members": [
							{
								"astId": 7,
								"contract": "LibraryStorage.sol:LibraryStorage",
								"label": "bookName",
								"offset": 0,
								"slot": "0",
								"type": "t_string_storage"
							},
							{
								"astId": 9,
								"contract": "LibraryStorage.sol:LibraryStorage",
								"label": "owner",
								"offset": 0,
								"slot": "1",
								"type": "t_address"
							}
						],
						"numberOfBytes": "64"
					},
					"t_uint256": {
						"encoding": "inplace",
						"label": "uint256",
						"numberOfBytes": "32"
					}
				}
			},
			"userdoc": {
				"kind": "user",
				"methods": {},
				"version": 1
			}
		}
	}
}