{
	"TestProject.sol": {
		"TestProject": {
			"abi": [
				{
					"inputs": [
						{
							"internalType": "address",
							"name": "_fundAddress",
							"type": "address"
						}
					],
					"stateMutability": "nonpayable",
					"type": "constructor"
				},
				{
					"inputs": [],
					"name": "projectFundAddress",
					"outputs": [
						{
							"internalType": "address",
							"name": "",
							"type": "address"
						}
					],
					"stateMutability": "view",
					"type": "function"
				},
				{
					"inputs": [
						{
							"internalType": "string",
							"name": "_projectName",
							"type": "string"
						},
						{
							"internalType": "string",
							"name": "_message",
							"type": "string"
						}
					],
					"name": "proxyDonate",
					"outputs": [],
					"stateMutability": "payable",
					"type": "function"
				}
			],
			"devdoc": {
				"kind": "dev",
				"methods": {},
				"version": 1
			},
			"evm": {
				"assembly": "    /* \"TestProject.sol\":92:519  contract TestProject {\r... */\n  mstore(0x40, 0x80)\n    /* \"TestProject.sol\":162:248  constructor(address _fundAddress) {\r... */\n  callvalue\n  dup1\n  iszero\n  tag_1\n  jumpi\n  0x00\n  dup1\n  revert\ntag_1:\n  pop\n  mload(0x40)\n  sub(codesize, bytecodeSize)\n  dup1\n  bytecodeSize\n  dup4\n  codecopy\n  dup2\n  dup2\n  add\n  0x40\n  mstore\n  dup2\n  add\n  swap1\n  tag_2\n  swap2\n  swap1\n  tag_3\n  jump\t// in\ntag_2:\n    /* \"TestProject.sol\":228:240  _fundAddress */\n  dup1\n    /* \"TestProject.sol\":207:225  projectFundAddress */\n  0x00\n  dup1\n    /* \"TestProject.sol\":207:240  projectFundAddress = _fundAddress */\n  0x0100\n  exp\n  dup2\n  sload\n  dup2\n  0xffffffffffffffffffffffffffffffffffffffff\n  mul\n  not\n  and\n  swap1\n  dup4\n  0xffffffffffffffffffffffffffffffffffffffff\n  and\n  mul\n  or\n  swap1\n  sstore\n  pop\n    /* \"TestProject.sol\":162:248  constructor(address _fundAddress) {\r... */\n  pop\n    /* \"TestProject.sol\":92:519  contract TestProject {\r... */\n  jump(tag_6)\n    /* \"#utility.yul\":7:150   */\ntag_8:\n  0x00\n    /* \"#utility.yul\":95:101   */\n  dup2\n    /* \"#utility.yul\":89:102   */\n  mload\n    /* \"#utility.yul\":80:102   */\n  swap1\n  pop\n    /* \"#utility.yul\":111:144   */\n  tag_10\n    /* \"#utility.yul\":138:143   */\n  dup2\n    /* \"#utility.yul\":111:144   */\n  tag_11\n  jump\t// in\ntag_10:\n    /* \"#utility.yul\":70:150   */\n  swap3\n  swap2\n  pop\n  pop\n  jump\t// out\n    /* \"#utility.yul\":156:440   */\ntag_3:\n  0x00\n    /* \"#utility.yul\":275:277   */\n  0x20\n    /* \"#utility.yul\":263:272   */\n  dup3\n    /* \"#utility.yul\":254:261   */\n  dup5\n    /* \"#utility.yul\":250:273   */\n  sub\n    /* \"#utility.yul\":246:278   */\n  slt\n    /* \"#utility.yul\":243:245   */\n  iszero\n  tag_13\n  jumpi\n    /* \"#utility.yul\":291:292   */\n  0x00\n    /* \"#utility.yul\":288:289   */\n  dup1\n    /* \"#utility.yul\":281:293   */\n  revert\n    /* \"#utility.yul\":243:245   */\ntag_13:\n    /* \"#utility.yul\":334:335   */\n  0x00\n    /* \"#utility.yul\":359:423   */\n  tag_14\n    /* \"#utility.yul\":415:422   */\n  dup5\n    /* \"#utility.yul\":406:412   */\n  dup3\n    /* \"#utility.yul\":395:404   */\n  dup6\n    /* \"#utility.yul\":391:413   */\n  add\n    /* \"#utility.yul\":359:423   */\n  tag_8\n  jump\t// in\ntag_14:\n    /* \"#utility.yul\":349:423   */\n  swap2\n  pop\n    /* \"#utility.yul\":305:433   */\n  pop\n    /* \"#utility.yul\":233:440   */\n  swap3\n  swap2\n  pop\n  pop\n  jump\t// out\n    /* \"#utility.yul\":446:542   */\ntag_15:\n  0x00\n    /* \"#utility.yul\":512:536   */\n  tag_17\n    /* \"#utility.yul\":530:535   */\n  dup3\n    /* \"#utility.yul\":512:536   */\n  tag_18\n  jump\t// in\ntag_17:\n    /* \"#utility.yul\":501:536   */\n  swap1\n  pop\n    /* \"#utility.yul\":491:542   */\n  swap2\n  swap1\n  pop\n  jump\t// out\n    /* \"#utility.yul\":548:674   */\ntag_18:\n  0x00\n    /* \"#utility.yul\":625:667   */\n  0xffffffffffffffffffffffffffffffffffffffff\n    /* \"#utility.yul\":618:623   */\n  dup3\n    /* \"#utility.yul\":614:668   */\n  and\n    /* \"#utility.yul\":603:668   */\n  swap1\n  pop\n    /* \"#utility.yul\":593:674   */\n  swap2\n  swap1\n  pop\n  jump\t// out\n    /* \"#utility.yul\":680:802   */\ntag_11:\n    /* \"#utility.yul\":753:777   */\n  tag_21\n    /* \"#utility.yul\":771:776   */\n  dup2\n    /* \"#utility.yul\":753:777   */\n  tag_15\n  jump\t// in\ntag_21:\n    /* \"#utility.yul\":746:751   */\n  dup2\n    /* \"#utility.yul\":743:778   */\n  eq\n    /* \"#utility.yul\":733:735   */\n  tag_22\n  jumpi\n    /* \"#utility.yul\":792:793   */\n  0x00\n    /* \"#utility.yul\":789:790   */\n  dup1\n    /* \"#utility.yul\":782:794   */\n  revert\n    /* \"#utility.yul\":733:735   */\ntag_22:\n    /* \"#utility.yul\":723:802   */\n  pop\n  jump\t// out\n    /* \"TestProject.sol\":92:519  contract TestProject {\r... */\ntag_6:\n  dataSize(sub_0)\n  dup1\n  dataOffset(sub_0)\n  0x00\n  codecopy\n  0x00\n  return\nstop\n\nsub_0: assembly {\n        /* \"TestProject.sol\":92:519  contract TestProject {\r... */\n      mstore(0x40, 0x80)\n      jumpi(tag_1, lt(calldatasize, 0x04))\n      shr(0xe0, calldataload(0x00))\n      dup1\n      0x13c5d7a9\n      eq\n      tag_2\n      jumpi\n      dup1\n      0x7d2dcaae\n      eq\n      tag_3\n      jumpi\n    tag_1:\n      0x00\n      dup1\n      revert\n        /* \"TestProject.sol\":120:153  address public projectFundAddress */\n    tag_2:\n      callvalue\n      dup1\n      iszero\n      tag_4\n      jumpi\n      0x00\n      dup1\n      revert\n    tag_4:\n      pop\n      tag_5\n      tag_6\n      jump\t// in\n    tag_5:\n      mload(0x40)\n      tag_7\n      swap2\n      swap1\n      tag_8\n      jump\t// in\n    tag_7:\n      mload(0x40)\n      dup1\n      swap2\n      sub\n      swap1\n      return\n        /* \"TestProject.sol\":256:510  function proxyDonate(string memory _projectName, string memory _message) public payable {\r... */\n    tag_3:\n      tag_9\n      0x04\n      dup1\n      calldatasize\n      sub\n      dup2\n      add\n      swap1\n      tag_10\n      swap2\n      swap1\n      tag_11\n      jump\t// in\n    tag_10:\n      tag_12\n      jump\t// in\n    tag_9:\n      stop\n        /* \"TestProject.sol\":120:153  address public projectFundAddress */\n    tag_6:\n      0x00\n      dup1\n      sload\n      swap1\n      0x0100\n      exp\n      swap1\n      div\n      0xffffffffffffffffffffffffffffffffffffffff\n      and\n      dup2\n      jump\t// out\n        /* \"TestProject.sol\":256:510  function proxyDonate(string memory _projectName, string memory _message) public payable {\r... */\n    tag_12:\n        /* \"TestProject.sol\":375:376  0 */\n      0x00\n        /* \"TestProject.sol\":363:372  msg.value */\n      callvalue\n        /* \"TestProject.sol\":363:376  msg.value > 0 */\n      gt\n        /* \"TestProject.sol\":355:399  require(msg.value > 0, \"u need to have eth\") */\n      tag_14\n      jumpi\n      mload(0x40)\n      0x08c379a000000000000000000000000000000000000000000000000000000000\n      dup2\n      mstore\n      0x04\n      add\n      tag_15\n      swap1\n      tag_16\n      jump\t// in\n    tag_15:\n      mload(0x40)\n      dup1\n      swap2\n      sub\n      swap1\n      revert\n    tag_14:\n        /* \"TestProject.sol\":425:443  projectFundAddress */\n      0x00\n      dup1\n      sload\n      swap1\n      0x0100\n      exp\n      swap1\n      div\n      0xffffffffffffffffffffffffffffffffffffffff\n      and\n        /* \"TestProject.sol\":412:460  IProjectFund(projectFundAddress).donateToProject */\n      0xffffffffffffffffffffffffffffffffffffffff\n      and\n      0x0319e9c5\n        /* \"TestProject.sol\":468:477  msg.value */\n      callvalue\n        /* \"TestProject.sol\":479:491  _projectName */\n      dup5\n        /* \"TestProject.sol\":493:501  _message */\n      dup5\n        /* \"TestProject.sol\":412:502  IProjectFund(projectFundAddress).donateToProject{value: msg.value}(_projectName, _message) */\n      mload(0x40)\n      dup5\n      0xffffffff\n      and\n      0xe0\n      shl\n      dup2\n      mstore\n      0x04\n      add\n      tag_17\n      swap3\n      swap2\n      swap1\n      tag_18\n      jump\t// in\n    tag_17:\n      0x00\n      mload(0x40)\n      dup1\n      dup4\n      sub\n      dup2\n      dup6\n      dup9\n      dup1\n      extcodesize\n      iszero\n      dup1\n      iszero\n      tag_19\n      jumpi\n      0x00\n      dup1\n      revert\n    tag_19:\n      pop\n      gas\n      call\n      iszero\n      dup1\n      iszero\n      tag_21\n      jumpi\n      returndatasize\n      0x00\n      dup1\n      returndatacopy\n      revert(0x00, returndatasize)\n    tag_21:\n      pop\n      pop\n      pop\n      pop\n      pop\n        /* \"TestProject.sol\":256:510  function proxyDonate(string memory _projectName, string memory _message) public payable {\r... */\n      pop\n      pop\n      jump\t// out\n        /* \"#utility.yul\":7:351   */\n    tag_23:\n      0x00\n        /* \"#utility.yul\":110:175   */\n      tag_25\n        /* \"#utility.yul\":125:174   */\n      tag_26\n        /* \"#utility.yul\":167:173   */\n      dup5\n        /* \"#utility.yul\":125:174   */\n      tag_27\n      jump\t// in\n    tag_26:\n        /* \"#utility.yul\":110:175   */\n      tag_28\n      jump\t// in\n    tag_25:\n        /* \"#utility.yul\":101:175   */\n      swap1\n      pop\n        /* \"#utility.yul\":198:204   */\n      dup3\n        /* \"#utility.yul\":191:196   */\n      dup2\n        /* \"#utility.yul\":184:205   */\n      mstore\n        /* \"#utility.yul\":236:240   */\n      0x20\n        /* \"#utility.yul\":229:234   */\n      dup2\n        /* \"#utility.yul\":225:241   */\n      add\n        /* \"#utility.yul\":274:277   */\n      dup5\n        /* \"#utility.yul\":265:271   */\n      dup5\n        /* \"#utility.yul\":260:263   */\n      dup5\n        /* \"#utility.yul\":256:272   */\n      add\n        /* \"#utility.yul\":253:278   */\n      gt\n        /* \"#utility.yul\":250:252   */\n      iszero\n      tag_29\n      jumpi\n        /* \"#utility.yul\":291:292   */\n      0x00\n        /* \"#utility.yul\":288:289   */\n      dup1\n        /* \"#utility.yul\":281:293   */\n      revert\n        /* \"#utility.yul\":250:252   */\n    tag_29:\n        /* \"#utility.yul\":304:345   */\n      tag_30\n        /* \"#utility.yul\":338:344   */\n      dup5\n        /* \"#utility.yul\":333:336   */\n      dup3\n        /* \"#utility.yul\":328:331   */\n      dup6\n        /* \"#utility.yul\":304:345   */\n      tag_31\n      jump\t// in\n    tag_30:\n        /* \"#utility.yul\":91:351   */\n      pop\n      swap4\n      swap3\n      pop\n      pop\n      pop\n      jump\t// out\n        /* \"#utility.yul\":371:644   */\n    tag_32:\n      0x00\n        /* \"#utility.yul\":476:479   */\n      dup3\n        /* \"#utility.yul\":469:473   */\n      0x1f\n        /* \"#utility.yul\":461:467   */\n      dup4\n        /* \"#utility.yul\":457:474   */\n      add\n        /* \"#utility.yul\":453:480   */\n      slt\n        /* \"#utility.yul\":443:445   */\n      tag_34\n      jumpi\n        /* \"#utility.yul\":494:495   */\n      0x00\n        /* \"#utility.yul\":491:492   */\n      dup1\n        /* \"#utility.yul\":484:496   */\n      revert\n        /* \"#utility.yul\":443:445   */\n    tag_34:\n        /* \"#utility.yul\":534:540   */\n      dup2\n        /* \"#utility.yul\":521:541   */\n      calldataload\n        /* \"#utility.yul\":559:638   */\n      tag_35\n        /* \"#utility.yul\":634:637   */\n      dup5\n        /* \"#utility.yul\":626:632   */\n      dup3\n        /* \"#utility.yul\":619:623   */\n      0x20\n        /* \"#utility.yul\":611:617   */\n      dup7\n        /* \"#utility.yul\":607:624   */\n      add\n        /* \"#utility.yul\":559:638   */\n      tag_23\n      jump\t// in\n    tag_35:\n        /* \"#utility.yul\":550:638   */\n      swap2\n      pop\n        /* \"#utility.yul\":433:644   */\n      pop\n      swap3\n      swap2\n      pop\n      pop\n      jump\t// out\n        /* \"#utility.yul\":650:1283   */\n    tag_11:\n      0x00\n      dup1\n        /* \"#utility.yul\":795:797   */\n      0x40\n        /* \"#utility.yul\":783:792   */\n      dup4\n        /* \"#utility.yul\":774:781   */\n      dup6\n        /* \"#utility.yul\":770:793   */\n      sub\n        /* \"#utility.yul\":766:798   */\n      slt\n        /* \"#utility.yul\":763:765   */\n      iszero\n      tag_37\n      jumpi\n        /* \"#utility.yul\":811:812   */\n      0x00\n        /* \"#utility.yul\":808:809   */\n      dup1\n        /* \"#utility.yul\":801:813   */\n      revert\n        /* \"#utility.yul\":763:765   */\n    tag_37:\n        /* \"#utility.yul\":882:883   */\n      0x00\n        /* \"#utility.yul\":871:880   */\n      dup4\n        /* \"#utility.yul\":867:884   */\n      add\n        /* \"#utility.yul\":854:885   */\n      calldataload\n        /* \"#utility.yul\":912:930   */\n      0xffffffffffffffff\n        /* \"#utility.yul\":904:910   */\n      dup2\n        /* \"#utility.yul\":901:931   */\n      gt\n        /* \"#utility.yul\":898:900   */\n      iszero\n      tag_38\n      jumpi\n        /* \"#utility.yul\":944:945   */\n      0x00\n        /* \"#utility.yul\":941:942   */\n      dup1\n        /* \"#utility.yul\":934:946   */\n      revert\n        /* \"#utility.yul\":898:900   */\n    tag_38:\n        /* \"#utility.yul\":972:1035   */\n      tag_39\n        /* \"#utility.yul\":1027:1034   */\n      dup6\n        /* \"#utility.yul\":1018:1024   */\n      dup3\n        /* \"#utility.yul\":1007:1016   */\n      dup7\n        /* \"#utility.yul\":1003:1025   */\n      add\n        /* \"#utility.yul\":972:1035   */\n      tag_32\n      jump\t// in\n    tag_39:\n        /* \"#utility.yul\":962:1035   */\n      swap3\n      pop\n        /* \"#utility.yul\":825:1045   */\n      pop\n        /* \"#utility.yul\":1112:1114   */\n      0x20\n        /* \"#utility.yul\":1101:1110   */\n      dup4\n        /* \"#utility.yul\":1097:1115   */\n      add\n        /* \"#utility.yul\":1084:1116   */\n      calldataload\n        /* \"#utility.yul\":1143:1161   */\n      0xffffffffffffffff\n        /* \"#utility.yul\":1135:1141   */\n      dup2\n        /* \"#utility.yul\":1132:1162   */\n      gt\n        /* \"#utility.yul\":1129:1131   */\n      iszero\n      tag_40\n      jumpi\n        /* \"#utility.yul\":1175:1176   */\n      0x00\n        /* \"#utility.yul\":1172:1173   */\n      dup1\n        /* \"#utility.yul\":1165:1177   */\n      revert\n        /* \"#utility.yul\":1129:1131   */\n    tag_40:\n        /* \"#utility.yul\":1203:1266   */\n      tag_41\n        /* \"#utility.yul\":1258:1265   */\n      dup6\n        /* \"#utility.yul\":1249:1255   */\n      dup3\n        /* \"#utility.yul\":1238:1247   */\n      dup7\n        /* \"#utility.yul\":1234:1256   */\n      add\n        /* \"#utility.yul\":1203:1266   */\n      tag_32\n      jump\t// in\n    tag_41:\n        /* \"#utility.yul\":1193:1266   */\n      swap2\n      pop\n        /* \"#utility.yul\":1055:1276   */\n      pop\n        /* \"#utility.yul\":753:1283   */\n      swap3\n      pop\n      swap3\n      swap1\n      pop\n      jump\t// out\n        /* \"#utility.yul\":1289:1407   */\n    tag_42:\n        /* \"#utility.yul\":1376:1400   */\n      tag_44\n        /* \"#utility.yul\":1394:1399   */\n      dup2\n        /* \"#utility.yul\":1376:1400   */\n      tag_45\n      jump\t// in\n    tag_44:\n        /* \"#utility.yul\":1371:1374   */\n      dup3\n        /* \"#utility.yul\":1364:1401   */\n      mstore\n        /* \"#utility.yul\":1354:1407   */\n      pop\n      pop\n      jump\t// out\n        /* \"#utility.yul\":1413:1777   */\n    tag_46:\n      0x00\n        /* \"#utility.yul\":1529:1568   */\n      tag_48\n        /* \"#utility.yul\":1562:1567   */\n      dup3\n        /* \"#utility.yul\":1529:1568   */\n      tag_49\n      jump\t// in\n    tag_48:\n        /* \"#utility.yul\":1584:1655   */\n      tag_50\n        /* \"#utility.yul\":1648:1654   */\n      dup2\n        /* \"#utility.yul\":1643:1646   */\n      dup6\n        /* \"#utility.yul\":1584:1655   */\n      tag_51\n      jump\t// in\n    tag_50:\n        /* \"#utility.yul\":1577:1655   */\n      swap4\n      pop\n        /* \"#utility.yul\":1664:1716   */\n      tag_52\n        /* \"#utility.yul\":1709:1715   */\n      dup2\n        /* \"#utility.yul\":1704:1707   */\n      dup6\n        /* \"#utility.yul\":1697:1701   */\n      0x20\n        /* \"#utility.yul\":1690:1695   */\n      dup7\n        /* \"#utility.yul\":1686:1702   */\n      add\n        /* \"#utility.yul\":1664:1716   */\n      tag_53\n      jump\t// in\n    tag_52:\n        /* \"#utility.yul\":1741:1770   */\n      tag_54\n        /* \"#utility.yul\":1763:1769   */\n      dup2\n        /* \"#utility.yul\":1741:1770   */\n      tag_55\n      jump\t// in\n    tag_54:\n        /* \"#utility.yul\":1736:1739   */\n      dup5\n        /* \"#utility.yul\":1732:1771   */\n      add\n        /* \"#utility.yul\":1725:1771   */\n      swap2\n      pop\n        /* \"#utility.yul\":1505:1777   */\n      pop\n      swap3\n      swap2\n      pop\n      pop\n      jump\t// out\n        /* \"#utility.yul\":1783:2099   */\n    tag_56:\n      0x00\n        /* \"#utility.yul\":1946:2013   */\n      tag_58\n        /* \"#utility.yul\":2010:2012   */\n      0x12\n        /* \"#utility.yul\":2005:2008   */\n      dup4\n        /* \"#utility.yul\":1946:2013   */\n      tag_51\n      jump\t// in\n    tag_58:\n        /* \"#utility.yul\":1939:2013   */\n      swap2\n      pop\n        /* \"#utility.yul\":2043:2063   */\n      0x75206e65656420746f2068617665206574680000000000000000000000000000\n        /* \"#utility.yul\":2039:2040   */\n      0x00\n        /* \"#utility.yul\":2034:2037   */\n      dup4\n        /* \"#utility.yul\":2030:2041   */\n      add\n        /* \"#utility.yul\":2023:2064   */\n      mstore\n        /* \"#utility.yul\":2090:2092   */\n      0x20\n        /* \"#utility.yul\":2085:2088   */\n      dup3\n        /* \"#utility.yul\":2081:2093   */\n      add\n        /* \"#utility.yul\":2074:2093   */\n      swap1\n      pop\n        /* \"#utility.yul\":1929:2099   */\n      swap2\n      swap1\n      pop\n      jump\t// out\n        /* \"#utility.yul\":2105:2327   */\n    tag_8:\n      0x00\n        /* \"#utility.yul\":2236:2238   */\n      0x20\n        /* \"#utility.yul\":2225:2234   */\n      dup3\n        /* \"#utility.yul\":2221:2239   */\n      add\n        /* \"#utility.yul\":2213:2239   */\n      swap1\n      pop\n        /* \"#utility.yul\":2249:2320   */\n      tag_60\n        /* \"#utility.yul\":2317:2318   */\n      0x00\n        /* \"#utility.yul\":2306:2315   */\n      dup4\n        /* \"#utility.yul\":2302:2319   */\n      add\n        /* \"#utility.yul\":2293:2299   */\n      dup5\n        /* \"#utility.yul\":2249:2320   */\n      tag_42\n      jump\t// in\n    tag_60:\n        /* \"#utility.yul\":2203:2327   */\n      swap3\n      swap2\n      pop\n      pop\n      jump\t// out\n        /* \"#utility.yul\":2333:2847   */\n    tag_18:\n      0x00\n        /* \"#utility.yul\":2532:2534   */\n      0x40\n        /* \"#utility.yul\":2521:2530   */\n      dup3\n        /* \"#utility.yul\":2517:2535   */\n      add\n        /* \"#utility.yul\":2509:2535   */\n      swap1\n      pop\n        /* \"#utility.yul\":2581:2590   */\n      dup2\n        /* \"#utility.yul\":2575:2579   */\n      dup2\n        /* \"#utility.yul\":2571:2591   */\n      sub\n        /* \"#utility.yul\":2567:2568   */\n      0x00\n        /* \"#utility.yul\":2556:2565   */\n      dup4\n        /* \"#utility.yul\":2552:2569   */\n      add\n        /* \"#utility.yul\":2545:2592   */\n      mstore\n        /* \"#utility.yul\":2609:2687   */\n      tag_62\n        /* \"#utility.yul\":2682:2686   */\n      dup2\n        /* \"#utility.yul\":2673:2679   */\n      dup6\n        /* \"#utility.yul\":2609:2687   */\n      tag_46\n      jump\t// in\n    tag_62:\n        /* \"#utility.yul\":2601:2687   */\n      swap1\n      pop\n        /* \"#utility.yul\":2734:2743   */\n      dup2\n        /* \"#utility.yul\":2728:2732   */\n      dup2\n        /* \"#utility.yul\":2724:2744   */\n      sub\n        /* \"#utility.yul\":2719:2721   */\n      0x20\n        /* \"#utility.yul\":2708:2717   */\n      dup4\n        /* \"#utility.yul\":2704:2722   */\n      add\n        /* \"#utility.yul\":2697:2745   */\n      mstore\n        /* \"#utility.yul\":2762:2840   */\n      tag_63\n        /* \"#utility.yul\":2835:2839   */\n      dup2\n        /* \"#utility.yul\":2826:2832   */\n      dup5\n        /* \"#utility.yul\":2762:2840   */\n      tag_46\n      jump\t// in\n    tag_63:\n        /* \"#utility.yul\":2754:2840   */\n      swap1\n      pop\n        /* \"#utility.yul\":2499:2847   */\n      swap4\n      swap3\n      pop\n      pop\n      pop\n      jump\t// out\n        /* \"#utility.yul\":2853:3272   */\n    tag_16:\n      0x00\n        /* \"#utility.yul\":3057:3059   */\n      0x20\n        /* \"#utility.yul\":3046:3055   */\n      dup3\n        /* \"#utility.yul\":3042:3060   */\n      add\n        /* \"#utility.yul\":3034:3060   */\n      swap1\n      pop\n        /* \"#utility.yul\":3106:3115   */\n      dup2\n        /* \"#utility.yul\":3100:3104   */\n      dup2\n        /* \"#utility.yul\":3096:3116   */\n      sub\n        /* \"#utility.yul\":3092:3093   */\n      0x00\n        /* \"#utility.yul\":3081:3090   */\n      dup4\n        /* \"#utility.yul\":3077:3094   */\n      add\n        /* \"#utility.yul\":3070:3117   */\n      mstore\n        /* \"#utility.yul\":3134:3265   */\n      tag_65\n        /* \"#utility.yul\":3260:3264   */\n      dup2\n        /* \"#utility.yul\":3134:3265   */\n      tag_56\n      jump\t// in\n    tag_65:\n        /* \"#utility.yul\":3126:3265   */\n      swap1\n      pop\n        /* \"#utility.yul\":3024:3272   */\n      swap2\n      swap1\n      pop\n      jump\t// out\n        /* \"#utility.yul\":3278:3561   */\n    tag_28:\n      0x00\n        /* \"#utility.yul\":3344:3346   */\n      0x40\n        /* \"#utility.yul\":3338:3347   */\n      mload\n        /* \"#utility.yul\":3328:3347   */\n      swap1\n      pop\n        /* \"#utility.yul\":3386:3390   */\n      dup2\n        /* \"#utility.yul\":3378:3384   */\n      dup2\n        /* \"#utility.yul\":3374:3391   */\n      add\n        /* \"#utility.yul\":3493:3499   */\n      dup2\n        /* \"#utility.yul\":3481:3491   */\n      dup2\n        /* \"#utility.yul\":3478:3500   */\n      lt\n        /* \"#utility.yul\":3457:3475   */\n      0xffffffffffffffff\n        /* \"#utility.yul\":3445:3455   */\n      dup3\n        /* \"#utility.yul\":3442:3476   */\n      gt\n        /* \"#utility.yul\":3439:3501   */\n      or\n        /* \"#utility.yul\":3436:3438   */\n      iszero\n      tag_67\n      jumpi\n        /* \"#utility.yul\":3504:3522   */\n      tag_68\n      tag_69\n      jump\t// in\n    tag_68:\n        /* \"#utility.yul\":3436:3438   */\n    tag_67:\n        /* \"#utility.yul\":3544:3554   */\n      dup1\n        /* \"#utility.yul\":3540:3542   */\n      0x40\n        /* \"#utility.yul\":3533:3555   */\n      mstore\n        /* \"#utility.yul\":3318:3561   */\n      pop\n      swap2\n      swap1\n      pop\n      jump\t// out\n        /* \"#utility.yul\":3567:3899   */\n    tag_27:\n      0x00\n        /* \"#utility.yul\":3719:3737   */\n      0xffffffffffffffff\n        /* \"#utility.yul\":3711:3717   */\n      dup3\n        /* \"#utility.yul\":3708:3738   */\n      gt\n        /* \"#utility.yul\":3705:3707   */\n      iszero\n      tag_71\n      jumpi\n        /* \"#utility.yul\":3741:3759   */\n      tag_72\n      tag_69\n      jump\t// in\n    tag_72:\n        /* \"#utility.yul\":3705:3707   */\n    tag_71:\n        /* \"#utility.yul\":3826:3830   */\n      0x1f\n        /* \"#utility.yul\":3822:3831   */\n      not\n        /* \"#utility.yul\":3815:3819   */\n      0x1f\n        /* \"#utility.yul\":3807:3813   */\n      dup4\n        /* \"#utility.yul\":3803:3820   */\n      add\n        /* \"#utility.yul\":3799:3832   */\n      and\n        /* \"#utility.yul\":3791:3832   */\n      swap1\n      pop\n        /* \"#utility.yul\":3887:3891   */\n      0x20\n        /* \"#utility.yul\":3881:3885   */\n      dup2\n        /* \"#utility.yul\":3877:3892   */\n      add\n        /* \"#utility.yul\":3869:3892   */\n      swap1\n      pop\n        /* \"#utility.yul\":3634:3899   */\n      swap2\n      swap1\n      pop\n      jump\t// out\n        /* \"#utility.yul\":3905:4004   */\n    tag_49:\n      0x00\n        /* \"#utility.yul\":3991:3996   */\n      dup2\n        /* \"#utility.yul\":3985:3997   */\n      mload\n        /* \"#utility.yul\":3975:3997   */\n      swap1\n      pop\n        /* \"#utility.yul\":3964:4004   */\n      swap2\n      swap1\n      pop\n      jump\t// out\n        /* \"#utility.yul\":4010:4179   */\n    tag_51:\n      0x00\n        /* \"#utility.yul\":4128:4134   */\n      dup3\n        /* \"#utility.yul\":4123:4126   */\n      dup3\n        /* \"#utility.yul\":4116:4135   */\n      mstore\n        /* \"#utility.yul\":4168:4172   */\n      0x20\n        /* \"#utility.yul\":4163:4166   */\n      dup3\n        /* \"#utility.yul\":4159:4173   */\n      add\n        /* \"#utility.yul\":4144:4173   */\n      swap1\n      pop\n        /* \"#utility.yul\":4106:4179   */\n      swap3\n      swap2\n      pop\n      pop\n      jump\t// out\n        /* \"#utility.yul\":4185:4281   */\n    tag_45:\n      0x00\n        /* \"#utility.yul\":4251:4275   */\n      tag_76\n        /* \"#utility.yul\":4269:4274   */\n      dup3\n        /* \"#utility.yul\":4251:4275   */\n      tag_77\n      jump\t// in\n    tag_76:\n        /* \"#utility.yul\":4240:4275   */\n      swap1\n      pop\n        /* \"#utility.yul\":4230:4281   */\n      swap2\n      swap1\n      pop\n      jump\t// out\n        /* \"#utility.yul\":4287:4413   */\n    tag_77:\n      0x00\n        /* \"#utility.yul\":4364:4406   */\n      0xffffffffffffffffffffffffffffffffffffffff\n        /* \"#utility.yul\":4357:4362   */\n      dup3\n        /* \"#utility.yul\":4353:4407   */\n      and\n        /* \"#utility.yul\":4342:4407   */\n      swap1\n      pop\n        /* \"#utility.yul\":4332:4413   */\n      swap2\n      swap1\n      pop\n      jump\t// out\n        /* \"#utility.yul\":4419:4573   */\n    tag_31:\n        /* \"#utility.yul\":4503:4509   */\n      dup3\n        /* \"#utility.yul\":4498:4501   */\n      dup2\n        /* \"#utility.yul\":4493:4496   */\n      dup4\n        /* \"#utility.yul\":4480:4510   */\n      calldatacopy\n        /* \"#utility.yul\":4565:4566   */\n      0x00\n        /* \"#utility.yul\":4556:4562   */\n      dup4\n        /* \"#utility.yul\":4551:4554   */\n      dup4\n        /* \"#utility.yul\":4547:4563   */\n      add\n        /* \"#utility.yul\":4540:4567   */\n      mstore\n        /* \"#utility.yul\":4470:4573   */\n      pop\n      pop\n      pop\n      jump\t// out\n        /* \"#utility.yul\":4579:4886   */\n    tag_53:\n        /* \"#utility.yul\":4647:4648   */\n      0x00\n        /* \"#utility.yul\":4657:4770   */\n    tag_81:\n        /* \"#utility.yul\":4671:4677   */\n      dup4\n        /* \"#utility.yul\":4668:4669   */\n      dup2\n        /* \"#utility.yul\":4665:4678   */\n      lt\n        /* \"#utility.yul\":4657:4770   */\n      iszero\n      tag_83\n      jumpi\n        /* \"#utility.yul\":4756:4757   */\n      dup1\n        /* \"#utility.yul\":4751:4754   */\n      dup3\n        /* \"#utility.yul\":4747:4758   */\n      add\n        /* \"#utility.yul\":4741:4759   */\n      mload\n        /* \"#utility.yul\":4737:4738   */\n      dup2\n        /* \"#utility.yul\":4732:4735   */\n      dup5\n        /* \"#utility.yul\":4728:4739   */\n      add\n        /* \"#utility.yul\":4721:4760   */\n      mstore\n        /* \"#utility.yul\":4693:4695   */\n      0x20\n        /* \"#utility.yul\":4690:4691   */\n      dup2\n        /* \"#utility.yul\":4686:4696   */\n      add\n        /* \"#utility.yul\":4681:4696   */\n      swap1\n      pop\n        /* \"#utility.yul\":4657:4770   */\n      jump(tag_81)\n    tag_83:\n        /* \"#utility.yul\":4788:4794   */\n      dup4\n        /* \"#utility.yul\":4785:4786   */\n      dup2\n        /* \"#utility.yul\":4782:4795   */\n      gt\n        /* \"#utility.yul\":4779:4781   */\n      iszero\n      tag_84\n      jumpi\n        /* \"#utility.yul\":4868:4869   */\n      0x00\n        /* \"#utility.yul\":4859:4865   */\n      dup5\n        /* \"#utility.yul\":4854:4857   */\n      dup5\n        /* \"#utility.yul\":4850:4866   */\n      add\n        /* \"#utility.yul\":4843:4870   */\n      mstore\n        /* \"#utility.yul\":4779:4781   */\n    tag_84:\n        /* \"#utility.yul\":4628:4886   */\n      pop\n      pop\n      pop\n      pop\n      jump\t// out\n        /* \"#utility.yul\":4892:5072   */\n    tag_69:\n        /* \"#utility.yul\":4940:5017   */\n      0x4e487b7100000000000000000000000000000000000000000000000000000000\n        /* \"#utility.yul\":4937:4938   */\n      0x00\n        /* \"#utility.yul\":4930:5018   */\n      mstore\n        /* \"#utility.yul\":5037:5041   */\n      0x41\n        /* \"#utility.yul\":5034:5035   */\n      0x04\n        /* \"#utility.yul\":5027:5042   */\n      mstore\n        /* \"#utility.yul\":5061:5065   */\n      0x24\n        /* \"#utility.yul\":5058:5059   */\n      0x00\n        /* \"#utility.yul\":5051:5066   */\n      revert\n        /* \"#utility.yul\":5078:5180   */\n    tag_55:\n      0x00\n        /* \"#utility.yul\":5170:5172   */\n      0x1f\n        /* \"#utility.yul\":5166:5173   */\n      not\n        /* \"#utility.yul\":5161:5163   */\n      0x1f\n        /* \"#utility.yul\":5154:5159   */\n      dup4\n        /* \"#utility.yul\":5150:5164   */\n      add\n        /* \"#utility.yul\":5146:5174   */\n      and\n        /* \"#utility.yul\":5136:5174   */\n      swap1\n      pop\n        /* \"#utility.yul\":5126:5180   */\n      swap2\n      swap1\n      pop\n      jump\t// out\n\n    auxdata: 0xa26469706673582212207618acbd8296f117efaf3ab3f5d14cd6cdb7217db774c5303b1b7077b278ed4564736f6c63430008000033\n}\n",
				"bytecode": {
					"linkReferences": {},
					"object": "608060405234801561001057600080fd5b506040516105b13803806105b18339818101604052810190610032919061008d565b806000806101000a81548173ffffffffffffffffffffffffffffffffffffffff021916908373ffffffffffffffffffffffffffffffffffffffff160217905550506100ff565b600081519050610087816100e8565b92915050565b60006020828403121561009f57600080fd5b60006100ad84828501610078565b91505092915050565b60006100c1826100c8565b9050919050565b600073ffffffffffffffffffffffffffffffffffffffff82169050919050565b6100f1816100b6565b81146100fc57600080fd5b50565b6104a38061010e6000396000f3fe6080604052600436106100295760003560e01c806313c5d7a91461002e5780637d2dcaae14610059575b600080fd5b34801561003a57600080fd5b50610043610075565b60405161005091906102ca565b60405180910390f35b610073600480360381019061006e91906101d6565b610099565b005b60008054906101000a900473ffffffffffffffffffffffffffffffffffffffff1681565b600034116100dc576040517f08c379a00000000000000000000000000000000000000000000000000000000081526004016100d39061031c565b60405180910390fd5b60008054906101000a900473ffffffffffffffffffffffffffffffffffffffff1673ffffffffffffffffffffffffffffffffffffffff16630319e9c53484846040518463ffffffff1660e01b81526004016101389291906102e5565b6000604051808303818588803b15801561015157600080fd5b505af1158015610165573d6000803e3d6000fd5b50505050505050565b600061018161017c8461036d565b61033c565b90508281526020810184848401111561019957600080fd5b6101a48482856103eb565b509392505050565b600082601f8301126101bd57600080fd5b81356101cd84826020860161016e565b91505092915050565b600080604083850312156101e957600080fd5b600083013567ffffffffffffffff81111561020357600080fd5b61020f858286016101ac565b925050602083013567ffffffffffffffff81111561022c57600080fd5b610238858286016101ac565b9150509250929050565b61024b816103b9565b82525050565b600061025c8261039d565b61026681856103a8565b93506102768185602086016103fa565b61027f8161045c565b840191505092915050565b60006102976012836103a8565b91507f75206e65656420746f20686176652065746800000000000000000000000000006000830152602082019050919050565b60006020820190506102df6000830184610242565b92915050565b600060408201905081810360008301526102ff8185610251565b905081810360208301526103138184610251565b90509392505050565b600060208201905081810360008301526103358161028a565b9050919050565b6000604051905081810181811067ffffffffffffffff821117156103635761036261042d565b5b8060405250919050565b600067ffffffffffffffff8211156103885761038761042d565b5b601f19601f8301169050602081019050919050565b600081519050919050565b600082825260208201905092915050565b60006103c4826103cb565b9050919050565b600073ffffffffffffffffffffffffffffffffffffffff82169050919050565b82818337600083830152505050565b60005b838110156104185780820151818401526020810190506103fd565b83811115610427576000848401525b50505050565b7f4e487b7100000000000000000000000000000000000000000000000000000000600052604160045260246000fd5b6000601f19601f830116905091905056fea26469706673582212207618acbd8296f117efaf3ab3f5d14cd6cdb7217db774c5303b1b7077b278ed4564736f6c63430008000033",
					"opcodes": "PUSH1 0x80 PUSH1 0x40 MSTORE CALLVALUE DUP1 ISZERO PUSH2 0x10 JUMPI PUSH1 0x0 DUP1 REVERT JUMPDEST POP PUSH1 0x40 MLOAD PUSH2 0x5B1 CODESIZE SUB DUP1 PUSH2 0x5B1 DUP4 CODECOPY DUP2 DUP2 ADD PUSH1 0x40 MSTORE DUP2 ADD SWAP1 PUSH2 0x32 SWAP2 SWAP1 PUSH2 0x8D JUMP JUMPDEST DUP1 PUSH1 0x0 DUP1 PUSH2 0x100 EXP DUP2 SLOAD DUP2 PUSH20 0xFFFFFFFFFFFFFFFFFFFFFFFFFFFFFFFFFFFFFFFF MUL NOT AND SWAP1 DUP4 PUSH20 0xFFFFFFFFFFFFFFFFFFFFFFFFFFFFFFFFFFFFFFFF AND MUL OR SWAP1 SSTORE POP POP PUSH2 0xFF JUMP JUMPDEST PUSH1 0x0 DUP2 MLOAD SWAP1 POP PUSH2 0x87 DUP2 PUSH2 0xE8 JUMP JUMPDEST SWAP3 SWAP2 POP POP JUMP JUMPDEST PUSH1 0x0 PUSH1 0x20 DUP3 DUP5 SUB SLT ISZERO PUSH2 0x9F JUMPI PUSH1 0x0 DUP1 REVERT JUMPDEST PUSH1 0x0 PUSH2 0xAD DUP5 DUP3 DUP6 ADD PUSH2 0x78 JUMP JUMPDEST SWAP2 POP POP SWAP3 SWAP2 POP POP JUMP JUMPDEST PUSH1 0x0 PUSH2 0xC1 DUP3 PUSH2 0xC8 JUMP JUMPDEST SWAP1 POP SWAP2 SWAP1 POP JUMP JUMPDEST PUSH1 0x0 PUSH20 0xFFFFFFFFFFFFFFFFFFFFFFFFFFFFFFFFFFFFFFFF DUP3 AND SWAP1 POP SWAP2 SWAP1 POP JUMP JUMPDEST PUSH2 0xF1 DUP2 PUSH2 0xB6 JUMP JUMPDEST DUP2 EQ PUSH2 0xFC JUMPI PUSH1 0x0 DUP1 REVERT JUMPDEST POP JUMP JUMPDEST PUSH2 0x4A3 DUP1 PUSH2 0x10E PUSH1 0x0 CODECOPY PUSH1 0x0 RETURN INVALID PUSH1 0x80 PUSH1 0x40 MSTORE PUSH1 0x4 CALLDATASIZE LT PUSH2 0x29 JUMPI PUSH1 0x0 CALLDATALOAD PUSH1 0xE0 SHR DUP1 PUSH4 0x13C5D7A9 EQ PUSH2 0x2E JUMPI DUP1 PUSH4 0x7D2DCAAE EQ PUSH2 0x59 JUMPI JUMPDEST PUSH1 0x0 DUP1 REVERT JUMPDEST CALLVALUE DUP1 ISZERO PUSH2 0x3A JUMPI PUSH1 0x0 DUP1 REVERT JUMPDEST POP PUSH2 0x43 PUSH2 0x75 JUMP JUMPDEST PUSH1 0x40 MLOAD PUSH2 0x50 SWAP2 SWAP1 PUSH2 0x2CA JUMP JUMPDEST PUSH1 0x40 MLOAD DUP1 SWAP2 SUB SWAP1 RETURN JUMPDEST PUSH2 0x73 PUSH1 0x4 DUP1 CALLDATASIZE SUB DUP2 ADD SWAP1 PUSH2 0x6E SWAP2 SWAP1 PUSH2 0x1D6 JUMP JUMPDEST PUSH2 0x99 JUMP JUMPDEST STOP JUMPDEST PUSH1 0x0 DUP1 SLOAD SWAP1 PUSH2 0x100 EXP SWAP1 DIV PUSH20 0xFFFFFFFFFFFFFFFFFFFFFFFFFFFFFFFFFFFFFFFF AND DUP2 JUMP JUMPDEST PUSH1 0x0 CALLVALUE GT PUSH2 0xDC JUMPI PUSH1 0x40 MLOAD PUSH32 0x8C379A000000000000000000000000000000000000000000000000000000000 DUP2 MSTORE PUSH1 0x4 ADD PUSH2 0xD3 SWAP1 PUSH2 0x31C JUMP JUMPDEST PUSH1 0x40 MLOAD DUP1 SWAP2 SUB SWAP1 REVERT JUMPDEST PUSH1 0x0 DUP1 SLOAD SWAP1 PUSH2 0x100 EXP SWAP1 DIV PUSH20 0xFFFFFFFFFFFFFFFFFFFFFFFFFFFFFFFFFFFFFFFF AND PUSH20 0xFFFFFFFFFFFFFFFFFFFFFFFFFFFFFFFFFFFFFFFF AND PUSH4 0x319E9C5 CALLVALUE DUP5 DUP5 PUSH1 0x40 MLOAD DUP5 PUSH4 0xFFFFFFFF AND PUSH1 0xE0 SHL DUP2 MSTORE PUSH1 0x4 ADD PUSH2 0x138 SWAP3 SWAP2 SWAP1 PUSH2 0x2E5 JUMP JUMPDEST PUSH1 0x0 PUSH1 0x40 MLOAD DUP1 DUP4 SUB DUP2 DUP6 DUP9 DUP1 EXTCODESIZE ISZERO DUP1 ISZERO PUSH2 0x151 JUMPI PUSH1 0x0 DUP1 REVERT JUMPDEST POP GAS CALL ISZERO DUP1 ISZERO PUSH2 0x165 JUMPI RETURNDATASIZE PUSH1 0x0 DUP1 RETURNDATACOPY RETURNDATASIZE PUSH1 0x0 REVERT JUMPDEST POP POP POP POP POP POP POP JUMP JUMPDEST PUSH1 0x0 PUSH2 0x181 PUSH2 0x17C DUP5 PUSH2 0x36D JUMP JUMPDEST PUSH2 0x33C JUMP JUMPDEST SWAP1 POP DUP3 DUP2 MSTORE PUSH1 0x20 DUP2 ADD DUP5 DUP5 DUP5 ADD GT ISZERO PUSH2 0x199 JUMPI PUSH1 0x0 DUP1 REVERT JUMPDEST PUSH2 0x1A4 DUP5 DUP3 DUP6 PUSH2 0x3EB JUMP JUMPDEST POP SWAP4 SWAP3 POP POP POP JUMP JUMPDEST PUSH1 0x0 DUP3 PUSH1 0x1F DUP4 ADD SLT PUSH2 0x1BD JUMPI PUSH1 0x0 DUP1 REVERT JUMPDEST DUP2 CALLDATALOAD PUSH2 0x1CD DUP5 DUP3 PUSH1 0x20 DUP7 ADD PUSH2 0x16E JUMP JUMPDEST SWAP2 POP POP SWAP3 SWAP2 POP POP JUMP JUMPDEST PUSH1 0x0 DUP1 PUSH1 0x40 DUP4 DUP6 SUB SLT ISZERO PUSH2 0x1E9 JUMPI PUSH1 0x0 DUP1 REVERT JUMPDEST PUSH1 0x0 DUP4 ADD CALLDATALOAD PUSH8 0xFFFFFFFFFFFFFFFF DUP2 GT ISZERO PUSH2 0x203 JUMPI PUSH1 0x0 DUP1 REVERT JUMPDEST PUSH2 0x20F DUP6 DUP3 DUP7 ADD PUSH2 0x1AC JUMP JUMPDEST SWAP3 POP POP PUSH1 0x20 DUP4 ADD CALLDATALOAD PUSH8 0xFFFFFFFFFFFFFFFF DUP2 GT ISZERO PUSH2 0x22C JUMPI PUSH1 0x0 DUP1 REVERT JUMPDEST PUSH2 0x238 DUP6 DUP3 DUP7 ADD PUSH2 0x1AC JUMP JUMPDEST SWAP2 POP POP SWAP3 POP SWAP3 SWAP1 POP JUMP JUMPDEST PUSH2 0x24B DUP2 PUSH2 0x3B9 JUMP JUMPDEST DUP3 MSTORE POP POP JUMP JUMPDEST PUSH1 0x0 PUSH2 0x25C DUP3 PUSH2 0x39D JUMP JUMPDEST PUSH2 0x266 DUP2 DUP6 PUSH2 0x3A8 JUMP JUMPDEST SWAP4 POP PUSH2 0x276 DUP2 DUP6 PUSH1 0x20 DUP7 ADD PUSH2 0x3FA JUMP JUMPDEST PUSH2 0x27F DUP2 PUSH2 0x45C JUMP JUMPDEST DUP5 ADD SWAP2 POP POP SWAP3 SWAP2 POP POP JUMP JUMPDEST PUSH1 0x0 PUSH2 0x297 PUSH1 0x12 DUP4 PUSH2 0x3A8 JUMP JUMPDEST SWAP2 POP PUSH32 0x75206E65656420746F2068617665206574680000000000000000000000000000 PUSH1 0x0 DUP4 ADD MSTORE PUSH1 0x20 DUP3 ADD SWAP1 POP SWAP2 SWAP1 POP JUMP JUMPDEST PUSH1 0x0 PUSH1 0x20 DUP3 ADD SWAP1 POP PUSH2 0x2DF PUSH1 0x0 DUP4 ADD DUP5 PUSH2 0x242 JUMP JUMPDEST SWAP3 SWAP2 POP POP JUMP JUMPDEST PUSH1 0x0 PUSH1 0x40 DUP3 ADD SWAP1 POP DUP2 DUP2 SUB PUSH1 0x0 DUP4 ADD MSTORE PUSH2 0x2FF DUP2 DUP6 PUSH2 0x251 JUMP JUMPDEST SWAP1 POP DUP2 DUP2 SUB PUSH1 0x20 DUP4 ADD MSTORE PUSH2 0x313 DUP2 DUP5 PUSH2 0x251 JUMP JUMPDEST SWAP1 POP SWAP4 SWAP3 POP POP POP JUMP JUMPDEST PUSH1 0x0 PUSH1 0x20 DUP3 ADD SWAP1 POP DUP2 DUP2 SUB PUSH1 0x0 DUP4 ADD MSTORE PUSH2 0x335 DUP2 PUSH2 0x28A JUMP JUMPDEST SWAP1 POP SWAP2 SWAP1 POP JUMP JUMPDEST PUSH1 0x0 PUSH1 0x40 MLOAD SWAP1 POP DUP2 DUP2 ADD DUP2 DUP2 LT PUSH8 0xFFFFFFFFFFFFFFFF DUP3 GT OR ISZERO PUSH2 0x363 JUMPI PUSH2 0x362 PUSH2 0x42D JUMP JUMPDEST JUMPDEST DUP1 PUSH1 0x40 MSTORE POP SWAP2 SWAP1 POP JUMP JUMPDEST PUSH1 0x0 PUSH8 0xFFFFFFFFFFFFFFFF DUP3 GT ISZERO PUSH2 0x388 JUMPI PUSH2 0x387 PUSH2 0x42D JUMP JUMPDEST JUMPDEST PUSH1 0x1F NOT PUSH1 0x1F DUP4 ADD AND SWAP1 POP PUSH1 0x20 DUP2 ADD SWAP1 POP SWAP2 SWAP1 POP JUMP JUMPDEST PUSH1 0x0 DUP2 MLOAD SWAP1 POP SWAP2 SWAP1 POP JUMP JUMPDEST PUSH1 0x0 DUP3 DUP3 MSTORE PUSH1 0x20 DUP3 ADD SWAP1 POP SWAP3 SWAP2 POP POP JUMP JUMPDEST PUSH1 0x0 PUSH2 0x3C4 DUP3 PUSH2 0x3CB JUMP JUMPDEST SWAP1 POP SWAP2 SWAP1 POP JUMP JUMPDEST PUSH1 0x0 PUSH20 0xFFFFFFFFFFFFFFFFFFFFFFFFFFFFFFFFFFFFFFFF DUP3 AND SWAP1 POP SWAP2 SWAP1 POP JUMP JUMPDEST DUP3 DUP2 DUP4 CALLDATACOPY PUSH1 0x0 DUP4 DUP4 ADD MSTORE POP POP POP JUMP JUMPDEST PUSH1 0x0 JUMPDEST DUP4 DUP2 LT ISZERO PUSH2 0x418 JUMPI DUP1 DUP3 ADD MLOAD DUP2 DUP5 ADD MSTORE PUSH1 0x20 DUP2 ADD SWAP1 POP PUSH2 0x3FD JUMP JUMPDEST DUP4 DUP2 GT ISZERO PUSH2 0x427 JUMPI PUSH1 0x0 DUP5 DUP5 ADD MSTORE JUMPDEST POP POP POP POP JUMP JUMPDEST PUSH32 0x4E487B7100000000000000000000000000000000000000000000000000000000 PUSH1 0x0 MSTORE PUSH1 0x41 PUSH1 0x4 MSTORE PUSH1 0x24 PUSH1 0x0 REVERT JUMPDEST PUSH1 0x0 PUSH1 0x1F NOT PUSH1 0x1F DUP4 ADD AND SWAP1 POP SWAP2 SWAP1 POP JUMP INVALID LOG2 PUSH5 0x6970667358 0x22 SLT KECCAK256 PUSH23 0x18ACBD8296F117EFAF3AB3F5D14CD6CDB7217DB774C530 EXTCODESIZE SHL PUSH17 0x77B278ED4564736F6C6343000800003300 "
				},
				"gasEstimates": {
					"creation": {
						"codeDepositCost": "237400",
						"executionCost": "infinite",
						"totalCost": "infinite"
					},
					"external": {
						"projectFundAddress()": "1189",
						"proxyDonate(string,string)": "infinite"
					}
				},
				"methodIdentifiers": {
					"projectFundAddress()": "13c5d7a9",
					"proxyDonate(string,string)": "7d2dcaae"
				}
			},
			"storageLayout": {
				"storage": [
					{
						"astId": 21,
						"contract": "TestProject.sol:TestProject",
						"label": "projectFundAddress",
						"offset": 0,
						"slot": "0",
						"type": "t_address"
					}
				],
				"types": {
					"t_address": {
						"encoding": "inplace",
						"label": "address",
						"numberOfBytes": "20"
					}
				}
			},
			"userdoc": {
				"kind": "user",
				"methods": {},
				"version": 1
			}
		}
	}
}