{
  "_format": "hh-sol-artifact-1",
  "contractName": "LibraryStorage",
  "sourceName": "contracts/LibraryStorage.sol",
  "abi": [
    {
      "anonymous": false,
      "inputs": [
        {
          "indexed": true,
          "internalType": "string",
          "name": "bookName",
          "type": "string"
        },
        {
          "indexed": false,
          "internalType": "uint256",
          "name": "timestamp",
          "type": "uint256"
        }
      ],
      "name": "newBookAdded",
      "type": "event"
    },
    {
      "anonymous": false,
      "inputs": [
        {
          "indexed": true,
          "internalType": "string",
          "name": "bookName",
          "type": "string"
        }
      ],
      "name": "newBookReturned",
      "type": "event"
    },
    {
      "anonymous": false,
      "inputs": [
        {
          "indexed": true,
          "internalType": "string",
          "name": "bookName",
          "type": "string"
        },
        {
          "indexed": false,
          "internalType": "address",
          "name": "owner",
          "type": "address"
        }
      ],
      "name": "newBookTaken",
      "type": "event"
    },
    {
      "anonymous": false,
      "inputs": [
        {
          "indexed": true,
          "internalType": "string",
          "name": "bookName",
          "type": "string"
        }
      ],
      "name": "newReservation",
      "type": "event"
    },
    {
      "inputs": [
        {
          "internalType": "string",
          "name": "_bookName",
          "type": "string"
        }
      ],
      "name": "addBook",
      "outputs": [],
      "stateMutability": "nonpayable",
      "type": "function"
    },
    {
      "inputs": [
        {
          "internalType": "address",
          "name": "",
          "type": "address"
        }
      ],
      "name": "bookOwner",
      "outputs": [
        {
          "internalType": "uint256",
          "name": "",
          "type": "uint256"
        }
      ],
      "stateMutability": "view",
      "type": "function"
    },
    {
      "inputs": [
        {
          "internalType": "uint256",
          "name": "",
          "type": "uint256"
        }
      ],
      "name": "books",
      "outputs": [
        {
          "internalType": "string",
          "name": "bookName",
          "type": "string"
        },
        {
          "internalType": "address",
          "name": "owner",
          "type": "address"
        },
        {
          "internalType": "uint256",
          "name": "dueDate",
          "type": "uint256"
        }
      ],
      "stateMutability": "view",
      "type": "function"
    },
    {
      "inputs": [
        {
          "internalType": "uint256",
          "name": "bookId",
          "type": "uint256"
        }
      ],
      "name": "borrowBook",
      "outputs": [],
      "stateMutability": "nonpayable",
      "type": "function"
    },
    {
      "inputs": [
        {
          "internalType": "uint256",
          "name": "bookId",
          "type": "uint256"
        }
      ],
      "name": "cancelReservation",
      "outputs": [],
      "stateMutability": "nonpayable",
      "type": "function"
    },
    {
      "inputs": [],
      "name": "getAvailableBook",
      "outputs": [
        {
          "components": [
            {
              "internalType": "string",
              "name": "bookName",
              "type": "string"
            },
            {
              "internalType": "address",
              "name": "owner",
              "type": "address"
            },
            {
              "internalType": "uint256",
              "name": "dueDate",
              "type": "uint256"
            }
          ],
          "internalType": "struct LibraryStorage.Book[]",
          "name": "",
          "type": "tuple[]"
        }
      ],
      "stateMutability": "view",
      "type": "function"
    },
    {
      "inputs": [
        {
          "internalType": "uint256",
          "name": "bookId",
          "type": "uint256"
        }
      ],
      "name": "getMyReservations",
      "outputs": [
        {
          "internalType": "address[]",
          "name": "",
          "type": "address[]"
        }
      ],
      "stateMutability": "view",
      "type": "function"
    },
    {
      "inputs": [],
      "name": "getReservedBooks",
      "outputs": [
        {
          "components": [
            {
              "internalType": "string",
              "name": "bookName",
              "type": "string"
            },
            {
              "internalType": "address",
              "name": "owner",
              "type": "address"
            },
            {
              "internalType": "uint256",
              "name": "dueDate",
              "type": "uint256"
            }
          ],
          "internalType": "struct LibraryStorage.Book[]",
          "name": "",
          "type": "tuple[]"
        }
      ],
      "stateMutability": "view",
      "type": "function"
    },
    {
      "inputs": [
        {
          "internalType": "uint256",
          "name": "",
          "type": "uint256"
        },
        {
          "internalType": "uint256",
          "name": "",
          "type": "uint256"
        }
      ],
      "name": "reservations",
      "outputs": [
        {
          "internalType": "address",
          "name": "",
          "type": "address"
        }
      ],
      "stateMutability": "view",
      "type": "function"
    },
    {
      "inputs": [
        {
          "internalType": "uint256",
          "name": "bookId",
          "type": "uint256"
        }
      ],
      "name": "reserveBook",
      "outputs": [],
      "stateMutability": "nonpayable",
      "type": "function"
    },
    {
      "inputs": [
        {
          "internalType": "uint256",
          "name": "bookId",
          "type": "uint256"
        }
      ],
      "name": "returnBook",
      "outputs": [],
      "stateMutability": "nonpayable",
      "type": "function"
    }
  ],
  "bytecode": "0x6080604052348015600f57600080fd5b506128fe8061001f6000396000f3fe608060405234801561001057600080fd5b50600436106100a95760003560e01c80637e490a9e116100715780637e490a9e1461018c578063ae5e6cf4146101a8578063ca5140c9146101c4578063cc839458146101e0578063ce966b2b146101fe578063e35d207c1461021a576100a9565b806303d24c49146100ae57806330662b7b146100de5780633bc5f48a1461010e5780635a63bf0b1461012a578063687440461461015a575b600080fd5b6100c860048036038101906100c39190611a5d565b610238565b6040516100d59190611aa3565b60405180910390f35b6100f860048036038101906100f39190611aea565b610250565b6040516101059190611b39565b60405180910390f35b61012860048036038101906101239190611c9a565b61029e565b005b610144600480360381019061013f9190611ce3565b6103b4565b6040516101519190611dce565b60405180910390f35b610174600480360381019061016f9190611ce3565b610454565b60405161018393929190611e6f565b60405180910390f35b6101a660048036038101906101a19190611ce3565b610536565b005b6101c260048036038101906101bd9190611ce3565b6109d3565b005b6101de60048036038101906101d99190611ce3565b610c68565b005b6101e86110a5565b6040516101f59190612018565b60405180910390f35b61021860048036038101906102139190611ce3565b611393565b005b6102226116c6565b60405161022f9190612018565b60405180910390f35b60016020528060005260406000206000915090505481565b6000602052816000526040600020818154811061026c57600080fd5b906000526020600020016000915091509054906101000a900473ffffffffffffffffffffffffffffffffffffffff1681565b60026040518060600160405280838152602001600073ffffffffffffffffffffffffffffffffffffffff16815260200142815250908060018154018082558091505060019003906000526020600020906003020160009091909190915060008201518160000190816103109190612246565b5060208201518160010160006101000a81548173ffffffffffffffffffffffffffffffffffffffff021916908373ffffffffffffffffffffffffffffffffffffffff160217905550604082015181600201555050806040516103729190612354565b60405180910390207f15329d8fdf933588cc512c4e40439e62b3fb78891e7bfd95efcdb78958be63ae426040516103a99190611aa3565b60405180910390a250565b606060008083815260200190815260200160002080548060200260200160405190810160405280929190818152602001828054801561044857602002820191906000526020600020905b8160009054906101000a900473ffffffffffffffffffffffffffffffffffffffff1673ffffffffffffffffffffffffffffffffffffffff16815260200190600101908083116103fe575b50505050509050919050565b6002818154811061046457600080fd5b906000526020600020906003020160009150905080600001805461048790612069565b80601f01602080910402602001604051908101604052809291908181526020018280546104b390612069565b80156105005780601f106104d557610100808354040283529160200191610500565b820191906000526020600020905b8154815290600101906020018083116104e357829003601f168201915b5050505050908060010160009054906101000a900473ffffffffffffffffffffffffffffffffffffffff16908060020154905083565b600280549050811061057d576040517f08c379a0000000000000000000000000000000000000000000000000000000008152600401610574906123b7565b60405180910390fd5b6000600160003373ffffffffffffffffffffffffffffffffffffffff1673ffffffffffffffffffffffffffffffffffffffff16815260200190815260200160002054146105ff576040517f08c379a00000000000000000000000000000000000000000000000000000000081526004016105f690612423565b60405180910390fd5b600073ffffffffffffffffffffffffffffffffffffffff166002828154811061062b5761062a612443565b5b906000526020600020906003020160010160009054906101000a900473ffffffffffffffffffffffffffffffffffffffff1673ffffffffffffffffffffffffffffffffffffffff16146106b3576040517f08c379a00000000000000000000000000000000000000000000000000000000081526004016106aa906124be565b60405180910390fd5b33600282815481106106c8576106c7612443565b5b906000526020600020906003020160010160006101000a81548173ffffffffffffffffffffffffffffffffffffffff021916908373ffffffffffffffffffffffffffffffffffffffff160217905550600181610724919061250d565b600160003373ffffffffffffffffffffffffffffffffffffffff1673ffffffffffffffffffffffffffffffffffffffff1681526020019081526020016000208190555062093a8042610776919061250d565b6002828154811061078a57610789612443565b5b9060005260206000209060030201600201819055506000806000838152602001908152602001600020905060005b818054905081101561095d573373ffffffffffffffffffffffffffffffffffffffff168282815481106107ee576107ed612443565b5b9060005260206000200160009054906101000a900473ffffffffffffffffffffffffffffffffffffffff1673ffffffffffffffffffffffffffffffffffffffff16036109505760008190505b6001838054905061084b9190612541565b8110156109045782600182610860919061250d565b8154811061087157610870612443565b5b9060005260206000200160009054906101000a900473ffffffffffffffffffffffffffffffffffffffff168382815481106108af576108ae612443565b5b9060005260206000200160006101000a81548173ffffffffffffffffffffffffffffffffffffffff021916908373ffffffffffffffffffffffffffffffffffffffff160217905550808060010191505061083a565b508180548061091657610915612575565b5b6001900381819060005260206000200160006101000a81549073ffffffffffffffffffffffffffffffffffffffff0219169055905561095d565b80806001019150506107b8565b506002828154811061097257610971612443565b5b90600052602060002090600302016000016040516109909190612627565b60405180910390207f4bd98b3223c39f335bc6f823093ab65d500345beda2bd23303ae81271e26810d336040516109c79190611b39565b60405180910390a25050565b600080600083815260200190815260200160002090506000818054905090506002805490508310610a39576040517f08c379a0000000000000000000000000000000000000000000000000000000008152600401610a30906123b7565b60405180910390fd5b60008111610a7c576040517f08c379a0000000000000000000000000000000000000000000000000000000008152600401610a739061268a565b60405180910390fd5b6000805b82811015610c21573373ffffffffffffffffffffffffffffffffffffffff16848281548110610ab257610ab1612443565b5b9060005260206000200160009054906101000a900473ffffffffffffffffffffffffffffffffffffffff1673ffffffffffffffffffffffffffffffffffffffff1603610c145760008190505b600184610b0b9190612541565b811015610bc45784600182610b20919061250d565b81548110610b3157610b30612443565b5b9060005260206000200160009054906101000a900473ffffffffffffffffffffffffffffffffffffffff16858281548110610b6f57610b6e612443565b5b9060005260206000200160006101000a81548173ffffffffffffffffffffffffffffffffffffffff021916908373ffffffffffffffffffffffffffffffffffffffff1602179055508080600101915050610afe565b5083805480610bd657610bd5612575565b5b6001900381819060005260206000200160006101000a81549073ffffffffffffffffffffffffffffffffffffffff0219169055905560019150610c21565b8080600101915050610a80565b5080610c62576040517f08c379a0000000000000000000000000000000000000000000000000000000008152600401610c59906126f6565b60405180910390fd5b50505050565b6002805490508110610caf576040517f08c379a0000000000000000000000000000000000000000000000000000000008152600401610ca6906123b7565b60405180910390fd5b60028181548110610cc357610cc2612443565b5b906000526020600020906003020160010160009054906101000a900473ffffffffffffffffffffffffffffffffffffffff1673ffffffffffffffffffffffffffffffffffffffff163373ffffffffffffffffffffffffffffffffffffffff1614610d62576040517f08c379a0000000000000000000000000000000000000000000000000000000008152600401610d5990612762565b60405180910390fd5b600060028281548110610d7857610d77612443565b5b906000526020600020906003020160010160006101000a81548173ffffffffffffffffffffffffffffffffffffffff021916908373ffffffffffffffffffffffffffffffffffffffff1602179055506000600160003373ffffffffffffffffffffffffffffffffffffffff1673ffffffffffffffffffffffffffffffffffffffff16815260200190815260200160002081905550600080600083815260200190815260200160002090506000808280549050111561103a5781600081548110610e4457610e43612443565b5b9060005260206000200160009054906101000a900473ffffffffffffffffffffffffffffffffffffffff1690508060028481548110610e8657610e85612443565b5b906000526020600020906003020160010160006101000a81548173ffffffffffffffffffffffffffffffffffffffff021916908373ffffffffffffffffffffffffffffffffffffffff160217905550600183610ee2919061250d565b600160008373ffffffffffffffffffffffffffffffffffffffff1673ffffffffffffffffffffffffffffffffffffffff1681526020019081526020016000208190555060005b60018380549050610f399190612541565b811015610ff25782600182610f4e919061250d565b81548110610f5f57610f5e612443565b5b9060005260206000200160009054906101000a900473ffffffffffffffffffffffffffffffffffffffff16838281548110610f9d57610f9c612443565b5b9060005260206000200160006101000a81548173ffffffffffffffffffffffffffffffffffffffff021916908373ffffffffffffffffffffffffffffffffffffffff1602179055508080600101915050610f28565b508180548061100457611003612575565b5b6001900381819060005260206000200160006101000a81549073ffffffffffffffffffffffffffffffffffffffff021916905590555b6002838154811061104e5761104d612443565b5b906000526020600020906003020160000160405161106c9190612627565b60405180910390207fe23d9522753828ec4a3b4714aadebe8de97601dd9b177e4e23e18336beca766260405160405180910390a2505050565b60606000805b60028054905081101561114d57600073ffffffffffffffffffffffffffffffffffffffff16600282815481106110e4576110e3612443565b5b906000526020600020906003020160010160009054906101000a900473ffffffffffffffffffffffffffffffffffffffff1673ffffffffffffffffffffffffffffffffffffffff161461114057818061113c90612782565b9250505b80806001019150506110ab565b5060008167ffffffffffffffff81111561116a57611169611b6f565b5b6040519080825280602002602001820160405280156111a357816020015b6111906119b4565b8152602001906001900390816111885790505b5090506000805b60028054905081101561138957600073ffffffffffffffffffffffffffffffffffffffff16600282815481106111e3576111e2612443565b5b906000526020600020906003020160010160009054906101000a900473ffffffffffffffffffffffffffffffffffffffff1673ffffffffffffffffffffffffffffffffffffffff161461137c576002818154811061124457611243612443565b5b906000526020600020906003020160405180606001604052908160008201805461126d90612069565b80601f016020809104026020016040519081016040528092919081815260200182805461129990612069565b80156112e65780601f106112bb576101008083540402835291602001916112e6565b820191906000526020600020905b8154815290600101906020018083116112c957829003601f168201915b505050505081526020016001820160009054906101000a900473ffffffffffffffffffffffffffffffffffffffff1673ffffffffffffffffffffffffffffffffffffffff1673ffffffffffffffffffffffffffffffffffffffff16815260200160028201548152505083838151811061136257611361612443565b5b6020026020010181905250818061137890612782565b9250505b80806001019150506111aa565b5081935050505090565b6000806000838152602001908152602001600020905060028054905082106113f0576040517f08c379a00000000000000000000000000000000000000000000000000000000081526004016113e7906123b7565b60405180910390fd5b600073ffffffffffffffffffffffffffffffffffffffff166002838154811061141c5761141b612443565b5b906000526020600020906003020160010160009054906101000a900473ffffffffffffffffffffffffffffffffffffffff1673ffffffffffffffffffffffffffffffffffffffff16036114a4576040517f08c379a000000000000000000000000000000000000000000000000000000000815260040161149b90612816565b60405180910390fd5b3373ffffffffffffffffffffffffffffffffffffffff16600283815481106114cf576114ce612443565b5b906000526020600020906003020160010160009054906101000a900473ffffffffffffffffffffffffffffffffffffffff1673ffffffffffffffffffffffffffffffffffffffff160361152157600080fd5b60005b81805490508110156115e8573373ffffffffffffffffffffffffffffffffffffffff1682828154811061155a57611559612443565b5b9060005260206000200160009054906101000a900473ffffffffffffffffffffffffffffffffffffffff1673ffffffffffffffffffffffffffffffffffffffff16036115db576040517f08c379a00000000000000000000000000000000000000000000000000000000081526004016115d2906128a8565b60405180910390fd5b8080600101915050611524565b50600080838152602001908152602001600020339080600181540180825580915050600190039060005260206000200160009091909190916101000a81548173ffffffffffffffffffffffffffffffffffffffff021916908373ffffffffffffffffffffffffffffffffffffffff160217905550600282815481106116705761166f612443565b5b906000526020600020906003020160000160405161168e9190612627565b60405180910390207f17a57c05b5b3bd27fc5a3277bfa12de1e3ff7212dfc1cee7471e15c248614d4d60405160405180910390a25050565b60606000805b60028054905081101561176e57600073ffffffffffffffffffffffffffffffffffffffff166002828154811061170557611704612443565b5b906000526020600020906003020160010160009054906101000a900473ffffffffffffffffffffffffffffffffffffffff1673ffffffffffffffffffffffffffffffffffffffff160361176157818061175d90612782565b9250505b80806001019150506116cc565b5060008167ffffffffffffffff81111561178b5761178a611b6f565b5b6040519080825280602002602001820160405280156117c457816020015b6117b16119b4565b8152602001906001900390816117a95790505b5090506000805b6002805490508110156119aa57600073ffffffffffffffffffffffffffffffffffffffff166002828154811061180457611803612443565b5b906000526020600020906003020160010160009054906101000a900473ffffffffffffffffffffffffffffffffffffffff1673ffffffffffffffffffffffffffffffffffffffff160361199d576002818154811061186557611864612443565b5b906000526020600020906003020160405180606001604052908160008201805461188e90612069565b80601f01602080910402602001604051908101604052809291908181526020018280546118ba90612069565b80156119075780601f106118dc57610100808354040283529160200191611907565b820191906000526020600020905b8154815290600101906020018083116118ea57829003601f168201915b505050505081526020016001820160009054906101000a900473ffffffffffffffffffffffffffffffffffffffff1673ffffffffffffffffffffffffffffffffffffffff1673ffffffffffffffffffffffffffffffffffffffff16815260200160028201548152505083838151811061198357611982612443565b5b6020026020010181905250818061199990612782565b9250505b80806001019150506117cb565b5081935050505090565b604051806060016040528060608152602001600073ffffffffffffffffffffffffffffffffffffffff168152602001600081525090565b6000604051905090565b600080fd5b600080fd5b600073ffffffffffffffffffffffffffffffffffffffff82169050919050565b6000611a2a826119ff565b9050919050565b611a3a81611a1f565b8114611a4557600080fd5b50565b600081359050611a5781611a31565b92915050565b600060208284031215611a7357611a726119f5565b5b6000611a8184828501611a48565b91505092915050565b6000819050919050565b611a9d81611a8a565b82525050565b6000602082019050611ab86000830184611a94565b92915050565b611ac781611a8a565b8114611ad257600080fd5b50565b600081359050611ae481611abe565b92915050565b60008060408385031215611b0157611b006119f5565b5b6000611b0f85828601611ad5565b9250506020611b2085828601611ad5565b9150509250929050565b611b3381611a1f565b82525050565b6000602082019050611b4e6000830184611b2a565b92915050565b600080fd5b600080fd5b6000601f19601f8301169050919050565b7f4e487b7100000000000000000000000000000000000000000000000000000000600052604160045260246000fd5b611ba782611b5e565b810181811067ffffffffffffffff82111715611bc657611bc5611b6f565b5b80604052505050565b6000611bd96119eb565b9050611be58282611b9e565b919050565b600067ffffffffffffffff821115611c0557611c04611b6f565b5b611c0e82611b5e565b9050602081019050919050565b82818337600083830152505050565b6000611c3d611c3884611bea565b611bcf565b905082815260208101848484011115611c5957611c58611b59565b5b611c64848285611c1b565b509392505050565b600082601f830112611c8157611c80611b54565b5b8135611c91848260208601611c2a565b91505092915050565b600060208284031215611cb057611caf6119f5565b5b600082013567ffffffffffffffff811115611cce57611ccd6119fa565b5b611cda84828501611c6c565b91505092915050565b600060208284031215611cf957611cf86119f5565b5b6000611d0784828501611ad5565b91505092915050565b600081519050919050565b600082825260208201905092915050565b6000819050602082019050919050565b611d4581611a1f565b82525050565b6000611d578383611d3c565b60208301905092915050565b6000602082019050919050565b6000611d7b82611d10565b611d858185611d1b565b9350611d9083611d2c565b8060005b83811015611dc1578151611da88882611d4b565b9750611db383611d63565b925050600181019050611d94565b5085935050505092915050565b60006020820190508181036000830152611de88184611d70565b905092915050565b600081519050919050565b600082825260208201905092915050565b60005b83811015611e2a578082015181840152602081019050611e0f565b60008484015250505050565b6000611e4182611df0565b611e4b8185611dfb565b9350611e5b818560208601611e0c565b611e6481611b5e565b840191505092915050565b60006060820190508181036000830152611e898186611e36565b9050611e986020830185611b2a565b611ea56040830184611a94565b949350505050565b600081519050919050565b600082825260208201905092915050565b6000819050602082019050919050565b600082825260208201905092915050565b6000611ef582611df0565b611eff8185611ed9565b9350611f0f818560208601611e0c565b611f1881611b5e565b840191505092915050565b611f2c81611a8a565b82525050565b60006060830160008301518482036000860152611f4f8282611eea565b9150506020830151611f646020860182611d3c565b506040830151611f776040860182611f23565b508091505092915050565b6000611f8e8383611f32565b905092915050565b6000602082019050919050565b6000611fae82611ead565b611fb88185611eb8565b935083602082028501611fca85611ec9565b8060005b858110156120065784840389528151611fe78582611f82565b9450611ff283611f96565b925060208a01995050600181019050611fce565b50829750879550505050505092915050565b600060208201905081810360008301526120328184611fa3565b905092915050565b7f4e487b7100000000000000000000000000000000000000000000000000000000600052602260045260246000fd5b6000600282049050600182168061208157607f821691505b6020821081036120945761209361203a565b5b50919050565b60008190508160005260206000209050919050565b60006020601f8301049050919050565b600082821b905092915050565b6000600883026120fc7fffffffffffffffffffffffffffffffffffffffffffffffffffffffffffffffff826120bf565b61210686836120bf565b95508019841693508086168417925050509392505050565b6000819050919050565b600061214361213e61213984611a8a565b61211e565b611a8a565b9050919050565b6000819050919050565b61215d83612128565b6121716121698261214a565b8484546120cc565b825550505050565b600090565b612186612179565b612191818484612154565b505050565b5b818110156121b5576121aa60008261217e565b600181019050612197565b5050565b601f8211156121fa576121cb8161209a565b6121d4846120af565b810160208510156121e3578190505b6121f76121ef856120af565b830182612196565b50505b505050565b600082821c905092915050565b600061221d600019846008026121ff565b1980831691505092915050565b6000612236838361220c565b9150826002028217905092915050565b61224f82611df0565b67ffffffffffffffff81111561226857612267611b6f565b5b6122728254612069565b61227d8282856121b9565b600060209050601f8311600181146122b0576000841561229e578287015190505b6122a8858261222a565b865550612310565b601f1984166122be8661209a565b60005b828110156122e6578489015182556001820191506020850194506020810190506122c1565b8683101561230357848901516122ff601f89168261220c565b8355505b6001600288020188555050505b505050505050565b600081905092915050565b600061232e82611df0565b6123388185612318565b9350612348818560208601611e0c565b80840191505092915050565b60006123608284612323565b915081905092915050565b7f57726f6e67204944000000000000000000000000000000000000000000000000600082015250565b60006123a1600883611dfb565b91506123ac8261236b565b602082019050919050565b600060208201905081810360008301526123d081612394565b9050919050565b7f5527766520616c72656164792074616b656e206120626f6f6b21000000000000600082015250565b600061240d601a83611dfb565b9150612418826123d7565b602082019050919050565b6000602082019050818103600083015261243c81612400565b9050919050565b7f4e487b7100000000000000000000000000000000000000000000000000000000600052603260045260246000fd5b7f426f6f6b20616c72656164792074616b656e2100000000000000000000000000600082015250565b60006124a8601383611dfb565b91506124b382612472565b602082019050919050565b600060208201905081810360008301526124d78161249b565b9050919050565b7f4e487b7100000000000000000000000000000000000000000000000000000000600052601160045260246000fd5b600061251882611a8a565b915061252383611a8a565b925082820190508082111561253b5761253a6124de565b5b92915050565b600061254c82611a8a565b915061255783611a8a565b925082820390508181111561256f5761256e6124de565b5b92915050565b7f4e487b7100000000000000000000000000000000000000000000000000000000600052603160045260246000fd5b600081546125b181612069565b6125bb8186612318565b945060018216600081146125d657600181146125eb5761261e565b60ff198316865281151582028601935061261e565b6125f48561209a565b60005b83811015612616578154818901526001820191506020810190506125f7565b838801955050505b50505092915050565b600061263382846125a4565b915081905092915050565b7f4e6f207265736572766174696f6e7320666f756e642100000000000000000000600082015250565b6000612674601683611dfb565b915061267f8261263e565b602082019050919050565b600060208201905081810360008301526126a381612667565b9050919050565b7f5265736572766174696f6e206e6f7420666f756e642100000000000000000000600082015250565b60006126e0601683611dfb565b91506126eb826126aa565b602082019050919050565b6000602082019050818103600083015261270f816126d3565b9050919050565b7f4f6e6c79206f776e65722063616e2072657475726e2100000000000000000000600082015250565b600061274c601683611dfb565b915061275782612716565b602082019050919050565b6000602082019050818103600083015261277b8161273f565b9050919050565b600061278d82611a8a565b91507fffffffffffffffffffffffffffffffffffffffffffffffffffffffffffffffff82036127bf576127be6124de565b5b600182019050919050565b7f426f6f6b206973206672656520746f2062652074616b656e0000000000000000600082015250565b6000612800601883611dfb565b915061280b826127ca565b602082019050919050565b6000602082019050818103600083015261282f816127f3565b9050919050565b7f596f75206861766520616c72656164792072657365727665642074686973206260008201527f6f6f6b2100000000000000000000000000000000000000000000000000000000602082015250565b6000612892602483611dfb565b915061289d82612836565b604082019050919050565b600060208201905081810360008301526128c181612885565b905091905056fea2646970667358221220b77e67ceb06496b6da52724ef8830ff4cf1001a3e7b4814beef0eae5900dd2f564736f6c634300081d0033",
  "linkReferences": {},
  "deployedLinkReferences": {}
}