{
  "_format": "hh-sol-artifact-1",
  "contractName": "AdvancedDonationLog",
  "sourceName": "contracts/AdvancedDonationLog.sol",
  "abi": [
    {
      "inputs": [],
      "stateMutability": "nonpayable",
      "type": "constructor"
    },
    {
      "anonymous": false,
      "inputs": [
        {
          "indexed": true,
          "internalType": "address",
          "name": "sender",
          "type": "address"
        },
        {
          "indexed": false,
          "internalType": "uint256",
          "name": "amount",
          "type": "uint256"
        },
        {
          "indexed": false,
          "internalType": "string",
          "name": "message",
          "type": "string"
        },
        {
          "indexed": false,
          "internalType": "uint256",
          "name": "timestamp",
          "type": "uint256"
        }
      ],
      "name": "NewDonation",
      "type": "event"
    },
    {
      "inputs": [
        {
          "internalType": "string",
          "name": "_message",
          "type": "string"
        }
      ],
      "name": "donate",
      "outputs": [],
      "stateMutability": "payable",
      "type": "function"
    },
    {
      "inputs": [
        {
          "internalType": "uint256",
          "name": "",
          "type": "uint256"
        }
      ],
      "name": "donations",
      "outputs": [
        {
          "internalType": "address",
          "name": "sender",
          "type": "address"
        },
        {
          "internalType": "uint256",
          "name": "amount",
          "type": "uint256"
        },
        {
          "internalType": "string",
          "name": "message",
          "type": "string"
        },
        {
          "internalType": "uint256",
          "name": "timestamp",
          "type": "uint256"
        }
      ],
      "stateMutability": "view",
      "type": "function"
    },
    {
      "inputs": [
        {
          "internalType": "uint256",
          "name": "",
          "type": "uint256"
        }
      ],
      "name": "donators",
      "outputs": [
        {
          "internalType": "address",
          "name": "",
          "type": "address"
        }
      ],
      "stateMutability": "view",
      "type": "function"
    },
    {
      "inputs": [],
      "name": "getAllDonation",
      "outputs": [
        {
          "components": [
            {
              "internalType": "address",
              "name": "sender",
              "type": "address"
            },
            {
              "internalType": "uint256",
              "name": "amount",
              "type": "uint256"
            },
            {
              "internalType": "string",
              "name": "message",
              "type": "string"
            },
            {
              "internalType": "uint256",
              "name": "timestamp",
              "type": "uint256"
            }
          ],
          "internalType": "struct AdvancedDonationLog.Donation[]",
          "name": "",
          "type": "tuple[]"
        }
      ],
      "stateMutability": "view",
      "type": "function"
    },
    {
      "inputs": [],
      "name": "getMyDonation",
      "outputs": [
        {
          "internalType": "uint256",
          "name": "",
          "type": "uint256"
        }
      ],
      "stateMutability": "view",
      "type": "function"
    },
    {
      "inputs": [],
      "name": "owner",
      "outputs": [
        {
          "internalType": "address",
          "name": "",
          "type": "address"
        }
      ],
      "stateMutability": "view",
      "type": "function"
    },
    {
      "inputs": [
        {
          "internalType": "address",
          "name": "",
          "type": "address"
        }
      ],
      "name": "totalSent",
      "outputs": [
        {
          "internalType": "uint256",
          "name": "",
          "type": "uint256"
        }
      ],
      "stateMutability": "view",
      "type": "function"
    },
    {
      "inputs": [
        {
          "internalType": "uint256",
          "name": "_amount",
          "type": "uint256"
        }
      ],
      "name": "withdrawAll",
      "outputs": [],
      "stateMutability": "nonpayable",
      "type": "function"
    }
  ],
  "bytecode": "0x6080604052348015600f57600080fd5b50336000806101000a81548173ffffffffffffffffffffffffffffffffffffffff021916908373ffffffffffffffffffffffffffffffffffffffff16021790555061126a8061005f6000396000f3fe60806040526004361061007b5760003560e01c8063958e2d311161004e578063958e2d311461013e578063ac62f56614610167578063b5aebc80146101a4578063f8626af8146101c05761007b565b806308f81a9314610080578063365fd982146100bd57806352e9a1a0146100e85780638da5cb5b14610113575b600080fd5b34801561008c57600080fd5b506100a760048036038101906100a291906108f0565b610200565b6040516100b49190610936565b60405180910390f35b3480156100c957600080fd5b506100d2610218565b6040516100df9190610936565b60405180910390f35b3480156100f457600080fd5b506100fd61025f565b60405161010a9190610b24565b60405180910390f35b34801561011f57600080fd5b506101286103ba565b6040516101359190610b55565b60405180910390f35b34801561014a57600080fd5b5061016560048036038101906101609190610b9c565b6103de565b005b34801561017357600080fd5b5061018e60048036038101906101899190610b9c565b6104d6565b60405161019b9190610b55565b60405180910390f35b6101be60048036038101906101b99190610cfe565b610515565b005b3480156101cc57600080fd5b506101e760048036038101906101e29190610b9c565b610796565b6040516101f79493929190610d91565b60405180910390f35b60016020528060005260406000206000915090505481565b6000600160003373ffffffffffffffffffffffffffffffffffffffff1673ffffffffffffffffffffffffffffffffffffffff16815260200190815260200160002054905090565b60606004805480602002602001604051908101604052809291908181526020016000905b828210156103b157838290600052602060002090600402016040518060800160405290816000820160009054906101000a900473ffffffffffffffffffffffffffffffffffffffff1673ffffffffffffffffffffffffffffffffffffffff1673ffffffffffffffffffffffffffffffffffffffff1681526020016001820154815260200160028201805461031690610e0c565b80601f016020809104026020016040519081016040528092919081815260200182805461034290610e0c565b801561038f5780601f106103645761010080835404028352916020019161038f565b820191906000526020600020905b81548152906001019060200180831161037257829003601f168201915b5050505050815260200160038201548152505081526020019060010190610283565b50505050905090565b60008054906101000a900473ffffffffffffffffffffffffffffffffffffffff1681565b60008054906101000a900473ffffffffffffffffffffffffffffffffffffffff1673ffffffffffffffffffffffffffffffffffffffff163373ffffffffffffffffffffffffffffffffffffffff161461046c576040517f08c379a000000000000000000000000000000000000000000000000000000000815260040161046390610e89565b60405180910390fd5b60008054906101000a900473ffffffffffffffffffffffffffffffffffffffff1673ffffffffffffffffffffffffffffffffffffffff166108fc829081150290604051600060405180830381858888f193505050501580156104d2573d6000803e3d6000fd5b5050565b600581815481106104e657600080fd5b906000526020600020016000915054906101000a900473ffffffffffffffffffffffffffffffffffffffff1681565b60003411610558576040517f08c379a000000000000000000000000000000000000000000000000000000000815260040161054f90610ef5565b60405180910390fd5b34600160003373ffffffffffffffffffffffffffffffffffffffff1673ffffffffffffffffffffffffffffffffffffffff16815260200190815260200160002060008282546105a79190610f44565b9250508190555034600260003373ffffffffffffffffffffffffffffffffffffffff1673ffffffffffffffffffffffffffffffffffffffff16815260200190815260200160002060008282546105fd9190610f44565b92505081905550600060405180608001604052803373ffffffffffffffffffffffffffffffffffffffff168152602001348152602001838152602001428152509050600481908060018154018082558091505060019003906000526020600020906004020160009091909190915060008201518160000160006101000a81548173ffffffffffffffffffffffffffffffffffffffff021916908373ffffffffffffffffffffffffffffffffffffffff1602179055506020820151816001015560408201518160020190816106d19190611124565b506060820151816003015550506005339080600181540180825580915050600190039060005260206000200160009091909190916101000a81548173ffffffffffffffffffffffffffffffffffffffff021916908373ffffffffffffffffffffffffffffffffffffffff1602179055503373ffffffffffffffffffffffffffffffffffffffff167e36bf27ddb12c599012bcc5e46ebb2656200d40cb14b2c24eaea03b244653c934844260405161078a939291906111f6565b60405180910390a25050565b600481815481106107a657600080fd5b90600052602060002090600402016000915090508060000160009054906101000a900473ffffffffffffffffffffffffffffffffffffffff16908060010154908060020180546107f590610e0c565b80601f016020809104026020016040519081016040528092919081815260200182805461082190610e0c565b801561086e5780601f106108435761010080835404028352916020019161086e565b820191906000526020600020905b81548152906001019060200180831161085157829003601f168201915b5050505050908060030154905084565b6000604051905090565b600080fd5b600080fd5b600073ffffffffffffffffffffffffffffffffffffffff82169050919050565b60006108bd82610892565b9050919050565b6108cd816108b2565b81146108d857600080fd5b50565b6000813590506108ea816108c4565b92915050565b60006020828403121561090657610905610888565b5b6000610914848285016108db565b91505092915050565b6000819050919050565b6109308161091d565b82525050565b600060208201905061094b6000830184610927565b92915050565b600081519050919050565b600082825260208201905092915050565b6000819050602082019050919050565b610986816108b2565b82525050565b6109958161091d565b82525050565b600081519050919050565b600082825260208201905092915050565b60005b838110156109d55780820151818401526020810190506109ba565b60008484015250505050565b6000601f19601f8301169050919050565b60006109fd8261099b565b610a0781856109a6565b9350610a178185602086016109b7565b610a20816109e1565b840191505092915050565b6000608083016000830151610a43600086018261097d565b506020830151610a56602086018261098c565b5060408301518482036040860152610a6e82826109f2565b9150506060830151610a83606086018261098c565b508091505092915050565b6000610a9a8383610a2b565b905092915050565b6000602082019050919050565b6000610aba82610951565b610ac4818561095c565b935083602082028501610ad68561096d565b8060005b85811015610b125784840389528151610af38582610a8e565b9450610afe83610aa2565b925060208a01995050600181019050610ada565b50829750879550505050505092915050565b60006020820190508181036000830152610b3e8184610aaf565b905092915050565b610b4f816108b2565b82525050565b6000602082019050610b6a6000830184610b46565b92915050565b610b798161091d565b8114610b8457600080fd5b50565b600081359050610b9681610b70565b92915050565b600060208284031215610bb257610bb1610888565b5b6000610bc084828501610b87565b91505092915050565b600080fd5b600080fd5b7f4e487b7100000000000000000000000000000000000000000000000000000000600052604160045260246000fd5b610c0b826109e1565b810181811067ffffffffffffffff82111715610c2a57610c29610bd3565b5b80604052505050565b6000610c3d61087e565b9050610c498282610c02565b919050565b600067ffffffffffffffff821115610c6957610c68610bd3565b5b610c72826109e1565b9050602081019050919050565b82818337600083830152505050565b6000610ca1610c9c84610c4e565b610c33565b905082815260208101848484011115610cbd57610cbc610bce565b5b610cc8848285610c7f565b509392505050565b600082601f830112610ce557610ce4610bc9565b5b8135610cf5848260208601610c8e565b91505092915050565b600060208284031215610d1457610d13610888565b5b600082013567ffffffffffffffff811115610d3257610d3161088d565b5b610d3e84828501610cd0565b91505092915050565b600082825260208201905092915050565b6000610d638261099b565b610d6d8185610d47565b9350610d7d8185602086016109b7565b610d86816109e1565b840191505092915050565b6000608082019050610da66000830187610b46565b610db36020830186610927565b8181036040830152610dc58185610d58565b9050610dd46060830184610927565b95945050505050565b7f4e487b7100000000000000000000000000000000000000000000000000000000600052602260045260246000fd5b60006002820490506001821680610e2457607f821691505b602082108103610e3757610e36610ddd565b5b50919050565b7f55206d75737420626520616e206f776e65722100000000000000000000000000600082015250565b6000610e73601383610d47565b9150610e7e82610e3d565b602082019050919050565b60006020820190508181036000830152610ea281610e66565b9050919050565b7f75206e65656420746f206861766520736f6d6520455448000000000000000000600082015250565b6000610edf601783610d47565b9150610eea82610ea9565b602082019050919050565b60006020820190508181036000830152610f0e81610ed2565b9050919050565b7f4e487b7100000000000000000000000000000000000000000000000000000000600052601160045260246000fd5b6000610f4f8261091d565b9150610f5a8361091d565b9250828201905080821115610f7257610f71610f15565b5b92915050565b60008190508160005260206000209050919050565b60006020601f8301049050919050565b600082821b905092915050565b600060088302610fda7fffffffffffffffffffffffffffffffffffffffffffffffffffffffffffffffff82610f9d565b610fe48683610f9d565b95508019841693508086168417925050509392505050565b6000819050919050565b600061102161101c6110178461091d565b610ffc565b61091d565b9050919050565b6000819050919050565b61103b83611006565b61104f61104782611028565b848454610faa565b825550505050565b600090565b611064611057565b61106f818484611032565b505050565b5b818110156110935761108860008261105c565b600181019050611075565b5050565b601f8211156110d8576110a981610f78565b6110b284610f8d565b810160208510156110c1578190505b6110d56110cd85610f8d565b830182611074565b50505b505050565b600082821c905092915050565b60006110fb600019846008026110dd565b1980831691505092915050565b600061111483836110ea565b9150826002028217905092915050565b61112d8261099b565b67ffffffffffffffff81111561114657611145610bd3565b5b6111508254610e0c565b61115b828285611097565b600060209050601f83116001811461118e576000841561117c578287015190505b6111868582611108565b8655506111ee565b601f19841661119c86610f78565b60005b828110156111c45784890151825560018201915060208501945060208101905061119f565b868310156111e157848901516111dd601f8916826110ea565b8355505b6001600288020188555050505b505050505050565b600060608201905061120b6000830186610927565b818103602083015261121d8185610d58565b905061122c6040830184610927565b94935050505056fea26469706673582212204fac4f10b0fae2a4fcc78a6b50ce38f62781844bddc56333b7ad07ee304dbdb864736f6c634300081d0033",
  "linkReferences": {},
  "deployedLinkReferences": {}
}