{
  "_format": "hh-sol-artifact-1",
  "contractName": "AdvancedDonationLog",
  "sourceName": "contracts/AdvancedDonationLog.sol",
  "abi": [
    {
      "inputs": [],
      "stateMutability": "nonpayable",
      "type": "constructor"
    },
    {
      "anonymous": false,
      "inputs": [
        {
          "indexed": true,
          "internalType": "address",
          "name": "sender",
          "type": "address"
        },
        {
          "indexed": false,
          "internalType": "uint256",
          "name": "amount",
          "type": "uint256"
        },
        {
          "indexed": false,
          "internalType": "string",
          "name": "message",
          "type": "string"
        },
        {
          "indexed": false,
          "internalType": "uint256",
          "name": "timestamp",
          "type": "uint256"
        }
      ],
      "name": "NewDonation",
      "type": "event"
    },
    {
      "inputs": [
        {
          "internalType": "string",
          "name": "_message",
          "type": "string"
        }
      ],
      "name": "donate",
      "outputs": [],
      "stateMutability": "payable",
      "type": "function"
    },
    {
      "inputs": [
        {
          "internalType": "uint256",
          "name": "",
          "type": "uint256"
        }
      ],
      "name": "donations",
      "outputs": [
        {
          "internalType": "address",
          "name": "sender",
          "type": "address"
        },
        {
          "internalType": "uint256",
          "name": "amount",
          "type": "uint256"
        },
        {
          "internalType": "string",
          "name": "message",
          "type": "string"
        },
        {
          "internalType": "uint256",
          "name": "timestamp",
          "type": "uint256"
        }
      ],
      "stateMutability": "view",
      "type": "function"
    },
    {
      "inputs": [
        {
          "internalType": "uint256",
          "name": "",
          "type": "uint256"
        }
      ],
      "name": "donators",
      "outputs": [
        {
          "internalType": "address",
          "name": "",
          "type": "address"
        }
      ],
      "stateMutability": "view",
      "type": "function"
    },
    {
      "inputs": [],
      "name": "getAllDonation",
      "outputs": [
        {
          "components": [
            {
              "internalType": "address",
              "name": "sender",
              "type": "address"
            },
            {
              "internalType": "uint256",
              "name": "amount",
              "type": "uint256"
            },
            {
              "internalType": "string",
              "name": "message",
              "type": "string"
            },
            {
              "internalType": "uint256",
              "name": "timestamp",
              "type": "uint256"
            }
          ],
          "internalType": "struct AdvancedDonationLog.Donation[]",
          "name": "",
          "type": "tuple[]"
        }
      ],
      "stateMutability": "view",
      "type": "function"
    },
    {
      "inputs": [],
      "name": "getMyDonation",
      "outputs": [
        {
          "internalType": "uint256",
          "name": "",
          "type": "uint256"
        }
      ],
      "stateMutability": "view",
      "type": "function"
    },
    {
      "inputs": [],
      "name": "owner",
      "outputs": [
        {
          "internalType": "address",
          "name": "",
          "type": "address"
        }
      ],
      "stateMutability": "view",
      "type": "function"
    },
    {
      "inputs": [
        {
          "internalType": "address",
          "name": "",
          "type": "address"
        }
      ],
      "name": "totalSent",
      "outputs": [
        {
          "internalType": "uint256",
          "name": "",
          "type": "uint256"
        }
      ],
      "stateMutability": "view",
      "type": "function"
    },
    {
      "inputs": [
        {
          "internalType": "uint256",
          "name": "_amount",
          "type": "uint256"
        }
      ],
      "name": "withdrawAll",
      "outputs": [],
      "stateMutability": "nonpayable",
      "type": "function"
    }
  ],
  "bytecode": "0x6080604052348015600f57600080fd5b5060286792d04941585a8eb260c01b608460201b60201c565b6040673cade52119604dc360c01b608460201b60201c565b336000806101000a81548173ffffffffffffffffffffffffffffffffffffffff021916908373ffffffffffffffffffffffffffffffffffffffff1602179055506087565b50565b6116eb806100966000396000f3fe60806040526004361061007b5760003560e01c8063958e2d311161004e578063958e2d311461013e578063ac62f56614610167578063b5aebc80146101a4578063f8626af8146101c05761007b565b806308f81a9314610080578063365fd982146100bd57806352e9a1a0146100e85780638da5cb5b14610113575b600080fd5b34801561008c57600080fd5b506100a760048036038101906100a29190610c99565b610200565b6040516100b49190610cdf565b60405180910390f35b3480156100c957600080fd5b506100d2610218565b6040516100df9190610cdf565b60405180910390f35b3480156100f457600080fd5b506100fd61029b565b60405161010a9190610ecd565b60405180910390f35b34801561011f57600080fd5b50610128610432565b6040516101359190610efe565b60405180910390f35b34801561014a57600080fd5b5061016560048036038101906101609190610f45565b610456565b005b34801561017357600080fd5b5061018e60048036038101906101899190610f45565b610750565b60405161019b9190610efe565b60405180910390f35b6101be60048036038101906101b991906110a7565b61078f565b005b3480156101cc57600080fd5b506101e760048036038101906101e29190610f45565b610b3c565b6040516101f7949392919061113a565b60405180910390f35b60016020528060005260406000206000915090505481565b600061022e67da0d33ba57b8db5e60c01b610c24565b610242679c05b8180deb1ad360c01b610c24565b61025667d144e6eb5a07a9cb60c01b610c24565b600160003373ffffffffffffffffffffffffffffffffffffffff1673ffffffffffffffffffffffffffffffffffffffff16815260200190815260200160002054905090565b60606102b167db37229601c31adb60c01b610c24565b6102c567cea01bc5713722c060c01b610c24565b6102d9671420547dd8773ebf60c01b610c24565b6004805480602002602001604051908101604052809291908181526020016000905b8282101561042957838290600052602060002090600402016040518060800160405290816000820160009054906101000a900473ffffffffffffffffffffffffffffffffffffffff1673ffffffffffffffffffffffffffffffffffffffff1673ffffffffffffffffffffffffffffffffffffffff1681526020016001820154815260200160028201805461038e906111b5565b80601f01602080910402602001604051908101604052809291908181526020018280546103ba906111b5565b80156104075780601f106103dc57610100808354040283529160200191610407565b820191906000526020600020905b8154815290600101906020018083116103ea57829003601f168201915b50505050508152602001600382015481525050815260200190600101906102fb565b50505050905090565b60008054906101000a900473ffffffffffffffffffffffffffffffffffffffff1681565b61046a67d508f228554b7f0f60c01b610c24565b61047e676bd2d8a684cf13cc60c01b610c24565b61049267d1e921074f25222c60c01b610c24565b6104a667fdcbab01724e588860c01b610c24565b6104ba678b7781d4b9833ec460c01b610c24565b60008054906101000a900473ffffffffffffffffffffffffffffffffffffffff1673ffffffffffffffffffffffffffffffffffffffff163373ffffffffffffffffffffffffffffffffffffffff1614610548576040517f08c379a000000000000000000000000000000000000000000000000000000000815260040161053f90611232565b60405180910390fd5b61055c6704371afaae9f43ee60c01b610c24565b610570674be857b5b59a218560c01b610c24565b6105846782b5c48d238348c460c01b610c24565b61059867f215c7753afdca8b60c01b610c24565b6105ac67f97405c874a8606a60c01b610c24565b6105c067650a0f1b243621c460c01b610c24565b6105d467133bdbb58d3ec0dc60c01b610c24565b60008111610617576040517f08c379a000000000000000000000000000000000000000000000000000000000815260040161060e9061129e565b60405180910390fd5b61062b67bcd66a4386ad541760c01b610c24565b61063f67109118e272420e9260c01b610c24565b6106536774a3856d8208073060c01b610c24565b610667673ce4bd8592f9399d60c01b610c24565b478111156106aa576040517f08c379a00000000000000000000000000000000000000000000000000000000081526004016106a19061130a565b60405180910390fd5b6106be67964492ff53c2459660c01b610c24565b6106d267a85adc8ff46ace3860c01b610c24565b6106e6675a4d0aee6db6ede160c01b610c24565b60008054906101000a900473ffffffffffffffffffffffffffffffffffffffff1673ffffffffffffffffffffffffffffffffffffffff166108fc829081150290604051600060405180830381858888f1935050505015801561074c573d6000803e3d6000fd5b5050565b6005818154811061076057600080fd5b906000526020600020016000915054906101000a900473ffffffffffffffffffffffffffffffffffffffff1681565b6107a367b9eb88f0dd3d3e2e60c01b610c24565b6107b76711468d6ff90ace5c60c01b610c24565b6107cb674a168f68b80007e860c01b610c24565b6107df679d4dbfe76137798d60c01b610c24565b60003411610822576040517f08c379a000000000000000000000000000000000000000000000000000000000815260040161081990611376565b60405180910390fd5b610836675db32104de2a000d60c01b610c24565b61084a6780ea1233ca1f6d8960c01b610c24565b34600160003373ffffffffffffffffffffffffffffffffffffffff1673ffffffffffffffffffffffffffffffffffffffff168152602001908152602001600020600082825461089991906113c5565b925050819055506108b467942d563e122b83b560c01b610c24565b34600260003373ffffffffffffffffffffffffffffffffffffffff1673ffffffffffffffffffffffffffffffffffffffff168152602001908152602001600020600082825461090391906113c5565b9250508190555061091e671696e433569ccce460c01b610c24565b6109326709da5f16c5826f4160c01b610c24565b600060405180608001604052803373ffffffffffffffffffffffffffffffffffffffff16815260200134815260200183815260200142815250905061098167091e354bc65ea50b60c01b610c24565b61099567bdcb3b70dca91cca60c01b610c24565b600481908060018154018082558091505060019003906000526020600020906004020160009091909190915060008201518160000160006101000a81548173ffffffffffffffffffffffffffffffffffffffff021916908373ffffffffffffffffffffffffffffffffffffffff160217905550602082015181600101556040820151816002019081610a2791906115a5565b50606082015181600301555050610a4867d8bc422953679fda60c01b610c24565b610a5c673ea063b1552fd6e660c01b610c24565b6005339080600181540180825580915050600190039060005260206000200160009091909190916101000a81548173ffffffffffffffffffffffffffffffffffffffff021916908373ffffffffffffffffffffffffffffffffffffffff160217905550610ad36782889fc70137c7a560c01b610c24565b610ae7670aed0b52da1501a860c01b610c24565b3373ffffffffffffffffffffffffffffffffffffffff167e36bf27ddb12c599012bcc5e46ebb2656200d40cb14b2c24eaea03b244653c9348442604051610b3093929190611677565b60405180910390a25050565b60048181548110610b4c57600080fd5b90600052602060002090600402016000915090508060000160009054906101000a900473ffffffffffffffffffffffffffffffffffffffff1690806001015490806002018054610b9b906111b5565b80601f0160208091040260200160405190810160405280929190818152602001828054610bc7906111b5565b8015610c145780601f10610be957610100808354040283529160200191610c14565b820191906000526020600020905b815481529060010190602001808311610bf757829003601f168201915b5050505050908060030154905084565b50565b6000604051905090565b600080fd5b600080fd5b600073ffffffffffffffffffffffffffffffffffffffff82169050919050565b6000610c6682610c3b565b9050919050565b610c7681610c5b565b8114610c8157600080fd5b50565b600081359050610c9381610c6d565b92915050565b600060208284031215610caf57610cae610c31565b5b6000610cbd84828501610c84565b91505092915050565b6000819050919050565b610cd981610cc6565b82525050565b6000602082019050610cf46000830184610cd0565b92915050565b600081519050919050565b600082825260208201905092915050565b6000819050602082019050919050565b610d2f81610c5b565b82525050565b610d3e81610cc6565b82525050565b600081519050919050565b600082825260208201905092915050565b60005b83811015610d7e578082015181840152602081019050610d63565b60008484015250505050565b6000601f19601f8301169050919050565b6000610da682610d44565b610db08185610d4f565b9350610dc0818560208601610d60565b610dc981610d8a565b840191505092915050565b6000608083016000830151610dec6000860182610d26565b506020830151610dff6020860182610d35565b5060408301518482036040860152610e178282610d9b565b9150506060830151610e2c6060860182610d35565b508091505092915050565b6000610e438383610dd4565b905092915050565b6000602082019050919050565b6000610e6382610cfa565b610e6d8185610d05565b935083602082028501610e7f85610d16565b8060005b85811015610ebb5784840389528151610e9c8582610e37565b9450610ea783610e4b565b925060208a01995050600181019050610e83565b50829750879550505050505092915050565b60006020820190508181036000830152610ee78184610e58565b905092915050565b610ef881610c5b565b82525050565b6000602082019050610f136000830184610eef565b92915050565b610f2281610cc6565b8114610f2d57600080fd5b50565b600081359050610f3f81610f19565b92915050565b600060208284031215610f5b57610f5a610c31565b5b6000610f6984828501610f30565b91505092915050565b600080fd5b600080fd5b7f4e487b7100000000000000000000000000000000000000000000000000000000600052604160045260246000fd5b610fb482610d8a565b810181811067ffffffffffffffff82111715610fd357610fd2610f7c565b5b80604052505050565b6000610fe6610c27565b9050610ff28282610fab565b919050565b600067ffffffffffffffff82111561101257611011610f7c565b5b61101b82610d8a565b9050602081019050919050565b82818337600083830152505050565b600061104a61104584610ff7565b610fdc565b90508281526020810184848401111561106657611065610f77565b5b611071848285611028565b509392505050565b600082601f83011261108e5761108d610f72565b5b813561109e848260208601611037565b91505092915050565b6000602082840312156110bd576110bc610c31565b5b600082013567ffffffffffffffff8111156110db576110da610c36565b5b6110e784828501611079565b91505092915050565b600082825260208201905092915050565b600061110c82610d44565b61111681856110f0565b9350611126818560208601610d60565b61112f81610d8a565b840191505092915050565b600060808201905061114f6000830187610eef565b61115c6020830186610cd0565b818103604083015261116e8185611101565b905061117d6060830184610cd0565b95945050505050565b7f4e487b7100000000000000000000000000000000000000000000000000000000600052602260045260246000fd5b600060028204905060018216806111cd57607f821691505b6020821081036111e0576111df611186565b5b50919050565b7f55206d75737420626520616e206f776e65722100000000000000000000000000600082015250565b600061121c6013836110f0565b9150611227826111e6565b602082019050919050565b6000602082019050818103600083015261124b8161120f565b9050919050565b7f6e65656420455448000000000000000000000000000000000000000000000000600082015250565b60006112886008836110f0565b915061129382611252565b602082019050919050565b600060208201905081810360008301526112b78161127b565b9050919050565b7f77726f6e6720616d6f756e740000000000000000000000000000000000000000600082015250565b60006112f4600c836110f0565b91506112ff826112be565b602082019050919050565b60006020820190508181036000830152611323816112e7565b9050919050565b7f75206e65656420746f206861766520736f6d6520455448000000000000000000600082015250565b60006113606017836110f0565b915061136b8261132a565b602082019050919050565b6000602082019050818103600083015261138f81611353565b9050919050565b7f4e487b7100000000000000000000000000000000000000000000000000000000600052601160045260246000fd5b60006113d082610cc6565b91506113db83610cc6565b92508282019050808211156113f3576113f2611396565b5b92915050565b60008190508160005260206000209050919050565b60006020601f8301049050919050565b600082821b905092915050565b60006008830261145b7fffffffffffffffffffffffffffffffffffffffffffffffffffffffffffffffff8261141e565b611465868361141e565b95508019841693508086168417925050509392505050565b6000819050919050565b60006114a261149d61149884610cc6565b61147d565b610cc6565b9050919050565b6000819050919050565b6114bc83611487565b6114d06114c8826114a9565b84845461142b565b825550505050565b600090565b6114e56114d8565b6114f08184846114b3565b505050565b5b81811015611514576115096000826114dd565b6001810190506114f6565b5050565b601f8211156115595761152a816113f9565b6115338461140e565b81016020851015611542578190505b61155661154e8561140e565b8301826114f5565b50505b505050565b600082821c905092915050565b600061157c6000198460080261155e565b1980831691505092915050565b6000611595838361156b565b9150826002028217905092915050565b6115ae82610d44565b67ffffffffffffffff8111156115c7576115c6610f7c565b5b6115d182546111b5565b6115dc828285611518565b600060209050601f83116001811461160f57600084156115fd578287015190505b6116078582611589565b86555061166f565b601f19841661161d866113f9565b60005b8281101561164557848901518255600182019150602085019450602081019050611620565b86831015611662578489015161165e601f89168261156b565b8355505b6001600288020188555050505b505050505050565b600060608201905061168c6000830186610cd0565b818103602083015261169e8185611101565b90506116ad6040830184610cd0565b94935050505056fea26469706673582212207e4e4b57c999d37daf5d37f2764284fa4c47154754fd755e3923135902c1576f64736f6c634300081d0033",
  "linkReferences": {},
  "deployedLinkReferences": {}
}