{
  "_format": "hh-sol-artifact-1",
  "contractName": "DonationEventLog",
  "sourceName": "contracts/DonationEventLog.sol",
  "abi": [
    {
      "inputs": [],
      "stateMutability": "nonpayable",
      "type": "constructor"
    },
    {
      "anonymous": false,
      "inputs": [
        {
          "indexed": true,
          "internalType": "address",
          "name": "sender",
          "type": "address"
        },
        {
          "indexed": false,
          "internalType": "uint256",
          "name": "amount",
          "type": "uint256"
        },
        {
          "indexed": false,
          "internalType": "string",
          "name": "message",
          "type": "string"
        },
        {
          "indexed": false,
          "internalType": "uint256",
          "name": "timestamp",
          "type": "uint256"
        }
      ],
      "name": "NewDonation",
      "type": "event"
    },
    {
      "inputs": [
        {
          "internalType": "string",
          "name": "_message",
          "type": "string"
        }
      ],
      "name": "donate",
      "outputs": [],
      "stateMutability": "payable",
      "type": "function"
    },
    {
      "inputs": [
        {
          "internalType": "uint256",
          "name": "",
          "type": "uint256"
        }
      ],
      "name": "donations",
      "outputs": [
        {
          "internalType": "address",
          "name": "sender",
          "type": "address"
        },
        {
          "internalType": "uint256",
          "name": "amount",
          "type": "uint256"
        },
        {
          "internalType": "string",
          "name": "message",
          "type": "string"
        },
        {
          "internalType": "uint256",
          "name": "timestamp",
          "type": "uint256"
        }
      ],
      "stateMutability": "view",
      "type": "function"
    },
    {
      "inputs": [],
      "name": "getAllDonations",
      "outputs": [
        {
          "components": [
            {
              "internalType": "address",
              "name": "sender",
              "type": "address"
            },
            {
              "internalType": "uint256",
              "name": "amount",
              "type": "uint256"
            },
            {
              "internalType": "string",
              "name": "message",
              "type": "string"
            },
            {
              "internalType": "uint256",
              "name": "timestamp",
              "type": "uint256"
            }
          ],
          "internalType": "struct DonationEventLog.Donation[]",
          "name": "",
          "type": "tuple[]"
        }
      ],
      "stateMutability": "view",
      "type": "function"
    },
    {
      "inputs": [],
      "name": "owner",
      "outputs": [
        {
          "internalType": "address",
          "name": "",
          "type": "address"
        }
      ],
      "stateMutability": "view",
      "type": "function"
    },
    {
      "inputs": [
        {
          "internalType": "uint256",
          "name": "_amount",
          "type": "uint256"
        }
      ],
      "name": "withdrawAll",
      "outputs": [],
      "stateMutability": "nonpayable",
      "type": "function"
    }
  ],
  "bytecode": "0x6080604052348015600f57600080fd5b50336000806101000a81548173ffffffffffffffffffffffffffffffffffffffff021916908373ffffffffffffffffffffffffffffffffffffffff16021790555061106e8061005f6000396000f3fe60806040526004361061004a5760003560e01c806338a59a071461004f5780638da5cb5b1461007a578063958e2d31146100a5578063b5aebc80146100ce578063f8626af8146100ea575b600080fd5b34801561005b57600080fd5b5061006461012a565b6040516100719190610890565b60405180910390f35b34801561008657600080fd5b5061008f610285565b60405161009c91906108c1565b60405180910390f35b3480156100b157600080fd5b506100cc60048036038101906100c7919061091c565b6102a9565b005b6100e860048036038101906100e39190610a7e565b610427565b005b3480156100f657600080fd5b50610111600480360381019061010c919061091c565b610599565b6040516101219493929190610b20565b60405180910390f35b60606001805480602002602001604051908101604052809291908181526020016000905b8282101561027c57838290600052602060002090600402016040518060800160405290816000820160009054906101000a900473ffffffffffffffffffffffffffffffffffffffff1673ffffffffffffffffffffffffffffffffffffffff1673ffffffffffffffffffffffffffffffffffffffff168152602001600182015481526020016002820180546101e190610b9b565b80601f016020809104026020016040519081016040528092919081815260200182805461020d90610b9b565b801561025a5780601f1061022f5761010080835404028352916020019161025a565b820191906000526020600020905b81548152906001019060200180831161023d57829003601f168201915b505050505081526020016003820154815250508152602001906001019061014e565b50505050905090565b60008054906101000a900473ffffffffffffffffffffffffffffffffffffffff1681565b60008054906101000a900473ffffffffffffffffffffffffffffffffffffffff1673ffffffffffffffffffffffffffffffffffffffff163373ffffffffffffffffffffffffffffffffffffffff1614610337576040517f08c379a000000000000000000000000000000000000000000000000000000000815260040161032e90610c18565b60405180910390fd5b6000811161037a576040517f08c379a000000000000000000000000000000000000000000000000000000000815260040161037190610c84565b60405180910390fd5b478111156103bd576040517f08c379a00000000000000000000000000000000000000000000000000000000081526004016103b490610cf0565b60405180910390fd5b60008054906101000a900473ffffffffffffffffffffffffffffffffffffffff1673ffffffffffffffffffffffffffffffffffffffff166108fc829081150290604051600060405180830381858888f19350505050158015610423573d6000803e3d6000fd5b5050565b6000341161046a576040517f08c379a000000000000000000000000000000000000000000000000000000000815260040161046190610d5c565b60405180910390fd5b600060405180608001604052803373ffffffffffffffffffffffffffffffffffffffff168152602001348152602001838152602001428152509050600181908060018154018082558091505060019003906000526020600020906004020160009091909190915060008201518160000160006101000a81548173ffffffffffffffffffffffffffffffffffffffff021916908373ffffffffffffffffffffffffffffffffffffffff1602179055506020820151816001015560408201518160020190816105379190610f28565b506060820151816003015550503373ffffffffffffffffffffffffffffffffffffffff167e36bf27ddb12c599012bcc5e46ebb2656200d40cb14b2c24eaea03b244653c934844260405161058d93929190610ffa565b60405180910390a25050565b600181815481106105a957600080fd5b90600052602060002090600402016000915090508060000160009054906101000a900473ffffffffffffffffffffffffffffffffffffffff16908060010154908060020180546105f890610b9b565b80601f016020809104026020016040519081016040528092919081815260200182805461062490610b9b565b80156106715780601f1061064657610100808354040283529160200191610671565b820191906000526020600020905b81548152906001019060200180831161065457829003601f168201915b5050505050908060030154905084565b600081519050919050565b600082825260208201905092915050565b6000819050602082019050919050565b600073ffffffffffffffffffffffffffffffffffffffff82169050919050565b60006106d8826106ad565b9050919050565b6106e8816106cd565b82525050565b6000819050919050565b610701816106ee565b82525050565b600081519050919050565b600082825260208201905092915050565b60005b83811015610741578082015181840152602081019050610726565b60008484015250505050565b6000601f19601f8301169050919050565b600061076982610707565b6107738185610712565b9350610783818560208601610723565b61078c8161074d565b840191505092915050565b60006080830160008301516107af60008601826106df565b5060208301516107c260208601826106f8565b50604083015184820360408601526107da828261075e565b91505060608301516107ef60608601826106f8565b508091505092915050565b60006108068383610797565b905092915050565b6000602082019050919050565b600061082682610681565b610830818561068c565b9350836020820285016108428561069d565b8060005b8581101561087e578484038952815161085f85826107fa565b945061086a8361080e565b925060208a01995050600181019050610846565b50829750879550505050505092915050565b600060208201905081810360008301526108aa818461081b565b905092915050565b6108bb816106cd565b82525050565b60006020820190506108d660008301846108b2565b92915050565b6000604051905090565b600080fd5b600080fd5b6108f9816106ee565b811461090457600080fd5b50565b600081359050610916816108f0565b92915050565b600060208284031215610932576109316108e6565b5b600061094084828501610907565b91505092915050565b600080fd5b600080fd5b7f4e487b7100000000000000000000000000000000000000000000000000000000600052604160045260246000fd5b61098b8261074d565b810181811067ffffffffffffffff821117156109aa576109a9610953565b5b80604052505050565b60006109bd6108dc565b90506109c98282610982565b919050565b600067ffffffffffffffff8211156109e9576109e8610953565b5b6109f28261074d565b9050602081019050919050565b82818337600083830152505050565b6000610a21610a1c846109ce565b6109b3565b905082815260208101848484011115610a3d57610a3c61094e565b5b610a488482856109ff565b509392505050565b600082601f830112610a6557610a64610949565b5b8135610a75848260208601610a0e565b91505092915050565b600060208284031215610a9457610a936108e6565b5b600082013567ffffffffffffffff811115610ab257610ab16108eb565b5b610abe84828501610a50565b91505092915050565b610ad0816106ee565b82525050565b600082825260208201905092915050565b6000610af282610707565b610afc8185610ad6565b9350610b0c818560208601610723565b610b158161074d565b840191505092915050565b6000608082019050610b3560008301876108b2565b610b426020830186610ac7565b8181036040830152610b548185610ae7565b9050610b636060830184610ac7565b95945050505050565b7f4e487b7100000000000000000000000000000000000000000000000000000000600052602260045260246000fd5b60006002820490506001821680610bb357607f821691505b602082108103610bc657610bc5610b6c565b5b50919050565b7f596f7520617265206e6f7420746865206f776e65722100000000000000000000600082015250565b6000610c02601683610ad6565b9150610c0d82610bcc565b602082019050919050565b60006020820190508181036000830152610c3181610bf5565b9050919050565b7f6e65656420455448000000000000000000000000000000000000000000000000600082015250565b6000610c6e600883610ad6565b9150610c7982610c38565b602082019050919050565b60006020820190508181036000830152610c9d81610c61565b9050919050565b7f77726f6e6720616d6f756e740000000000000000000000000000000000000000600082015250565b6000610cda600c83610ad6565b9150610ce582610ca4565b602082019050919050565b60006020820190508181036000830152610d0981610ccd565b9050919050565b7f4e65656420736f6d652045544800000000000000000000000000000000000000600082015250565b6000610d46600d83610ad6565b9150610d5182610d10565b602082019050919050565b60006020820190508181036000830152610d7581610d39565b9050919050565b60008190508160005260206000209050919050565b60006020601f8301049050919050565b600082821b905092915050565b600060088302610dde7fffffffffffffffffffffffffffffffffffffffffffffffffffffffffffffffff82610da1565b610de88683610da1565b95508019841693508086168417925050509392505050565b6000819050919050565b6000610e25610e20610e1b846106ee565b610e00565b6106ee565b9050919050565b6000819050919050565b610e3f83610e0a565b610e53610e4b82610e2c565b848454610dae565b825550505050565b600090565b610e68610e5b565b610e73818484610e36565b505050565b5b81811015610e9757610e8c600082610e60565b600181019050610e79565b5050565b601f821115610edc57610ead81610d7c565b610eb684610d91565b81016020851015610ec5578190505b610ed9610ed185610d91565b830182610e78565b50505b505050565b600082821c905092915050565b6000610eff60001984600802610ee1565b1980831691505092915050565b6000610f188383610eee565b9150826002028217905092915050565b610f3182610707565b67ffffffffffffffff811115610f4a57610f49610953565b5b610f548254610b9b565b610f5f828285610e9b565b600060209050601f831160018114610f925760008415610f80578287015190505b610f8a8582610f0c565b865550610ff2565b601f198416610fa086610d7c565b60005b82811015610fc857848901518255600182019150602085019450602081019050610fa3565b86831015610fe55784890151610fe1601f891682610eee565b8355505b6001600288020188555050505b505050505050565b600060608201905061100f6000830186610ac7565b81810360208301526110218185610ae7565b90506110306040830184610ac7565b94935050505056fea26469706673582212207d62ed69b41a3d4f0e26ed4b0c687717beb1971e36a6456b1bc53fee4e1c63f264736f6c634300081d0033",
  "linkReferences": {},
  "deployedLinkReferences": {}
}