{
  "_format": "hh-sol-artifact-1",
  "contractName": "ERC20Base",
  "sourceName": "contracts/ERC20Base.sol",
  "abi": [
    {
      "inputs": [
        {
          "internalType": "string",
          "name": "name_",
          "type": "string"
        },
        {
          "internalType": "string",
          "name": "symbol_",
          "type": "string"
        },
        {
          "internalType": "uint256",
          "name": "initialSupply",
          "type": "uint256"
        },
        {
          "internalType": "address",
          "name": "exchanger",
          "type": "address"
        }
      ],
      "stateMutability": "nonpayable",
      "type": "constructor"
    },
    {
      "inputs": [],
      "name": "AccessControlBadConfirmation",
      "type": "error"
    },
    {
      "inputs": [
        {
          "internalType": "address",
          "name": "account",
          "type": "address"
        },
        {
          "internalType": "bytes32",
          "name": "neededRole",
          "type": "bytes32"
        }
      ],
      "name": "AccessControlUnauthorizedAccount",
      "type": "error"
    },
    {
      "anonymous": false,
      "inputs": [
        {
          "indexed": true,
          "internalType": "address",
          "name": "owner",
          "type": "address"
        },
        {
          "indexed": true,
          "internalType": "address",
          "name": "spender",
          "type": "address"
        },
        {
          "indexed": false,
          "internalType": "uint256",
          "name": "amount",
          "type": "uint256"
        }
      ],
      "name": "Approval",
      "type": "event"
    },
    {
      "anonymous": false,
      "inputs": [
        {
          "indexed": true,
          "internalType": "bytes32",
          "name": "role",
          "type": "bytes32"
        },
        {
          "indexed": true,
          "internalType": "bytes32",
          "name": "previousAdminRole",
          "type": "bytes32"
        },
        {
          "indexed": true,
          "internalType": "bytes32",
          "name": "newAdminRole",
          "type": "bytes32"
        }
      ],
      "name": "RoleAdminChanged",
      "type": "event"
    },
    {
      "anonymous": false,
      "inputs": [
        {
          "indexed": true,
          "internalType": "bytes32",
          "name": "role",
          "type": "bytes32"
        },
        {
          "indexed": true,
          "internalType": "address",
          "name": "account",
          "type": "address"
        },
        {
          "indexed": true,
          "internalType": "address",
          "name": "sender",
          "type": "address"
        }
      ],
      "name": "RoleGranted",
      "type": "event"
    },
    {
      "anonymous": false,
      "inputs": [
        {
          "indexed": true,
          "internalType": "bytes32",
          "name": "role",
          "type": "bytes32"
        },
        {
          "indexed": true,
          "internalType": "address",
          "name": "account",
          "type": "address"
        },
        {
          "indexed": true,
          "internalType": "address",
          "name": "sender",
          "type": "address"
        }
      ],
      "name": "RoleRevoked",
      "type": "event"
    },
    {
      "anonymous": false,
      "inputs": [
        {
          "indexed": true,
          "internalType": "address",
          "name": "from",
          "type": "address"
        },
        {
          "indexed": true,
          "internalType": "address",
          "name": "to",
          "type": "address"
        },
        {
          "indexed": false,
          "internalType": "uint256",
          "name": "amount",
          "type": "uint256"
        }
      ],
      "name": "Transfer",
      "type": "event"
    },
    {
      "inputs": [],
      "name": "DEFAULT_ADMIN_ROLE",
      "outputs": [
        {
          "internalType": "bytes32",
          "name": "",
          "type": "bytes32"
        }
      ],
      "stateMutability": "view",
      "type": "function"
    },
    {
      "inputs": [],
      "name": "MINTER_ROLE",
      "outputs": [
        {
          "internalType": "bytes32",
          "name": "",
          "type": "bytes32"
        }
      ],
      "stateMutability": "view",
      "type": "function"
    },
    {
      "inputs": [
        {
          "internalType": "address",
          "name": "_owner",
          "type": "address"
        },
        {
          "internalType": "address",
          "name": "spender",
          "type": "address"
        }
      ],
      "name": "allowance",
      "outputs": [
        {
          "internalType": "uint256",
          "name": "",
          "type": "uint256"
        }
      ],
      "stateMutability": "view",
      "type": "function"
    },
    {
      "inputs": [
        {
          "internalType": "address",
          "name": "",
          "type": "address"
        },
        {
          "internalType": "address",
          "name": "",
          "type": "address"
        }
      ],
      "name": "allowances",
      "outputs": [
        {
          "internalType": "uint256",
          "name": "",
          "type": "uint256"
        }
      ],
      "stateMutability": "view",
      "type": "function"
    },
    {
      "inputs": [
        {
          "internalType": "address",
          "name": "spender",
          "type": "address"
        },
        {
          "internalType": "uint256",
          "name": "amount",
          "type": "uint256"
        }
      ],
      "name": "approve",
      "outputs": [
        {
          "internalType": "bool",
          "name": "",
          "type": "bool"
        }
      ],
      "stateMutability": "nonpayable",
      "type": "function"
    },
    {
      "inputs": [
        {
          "internalType": "address",
          "name": "account",
          "type": "address"
        }
      ],
      "name": "balanceOf",
      "outputs": [
        {
          "internalType": "uint256",
          "name": "",
          "type": "uint256"
        }
      ],
      "stateMutability": "view",
      "type": "function"
    },
    {
      "inputs": [
        {
          "internalType": "address",
          "name": "",
          "type": "address"
        }
      ],
      "name": "balances",
      "outputs": [
        {
          "internalType": "uint256",
          "name": "",
          "type": "uint256"
        }
      ],
      "stateMutability": "view",
      "type": "function"
    },
    {
      "inputs": [
        {
          "internalType": "uint256",
          "name": "amount",
          "type": "uint256"
        }
      ],
      "name": "burn",
      "outputs": [],
      "stateMutability": "nonpayable",
      "type": "function"
    },
    {
      "inputs": [],
      "name": "decimals",
      "outputs": [
        {
          "internalType": "uint256",
          "name": "",
          "type": "uint256"
        }
      ],
      "stateMutability": "pure",
      "type": "function"
    },
    {
      "inputs": [
        {
          "internalType": "bytes32",
          "name": "role",
          "type": "bytes32"
        }
      ],
      "name": "getRoleAdmin",
      "outputs": [
        {
          "internalType": "bytes32",
          "name": "",
          "type": "bytes32"
        }
      ],
      "stateMutability": "view",
      "type": "function"
    },
    {
      "inputs": [
        {
          "internalType": "bytes32",
          "name": "role",
          "type": "bytes32"
        },
        {
          "internalType": "address",
          "name": "account",
          "type": "address"
        }
      ],
      "name": "grantRole",
      "outputs": [],
      "stateMutability": "nonpayable",
      "type": "function"
    },
    {
      "inputs": [
        {
          "internalType": "bytes32",
          "name": "role",
          "type": "bytes32"
        },
        {
          "internalType": "address",
          "name": "account",
          "type": "address"
        }
      ],
      "name": "hasRole",
      "outputs": [
        {
          "internalType": "bool",
          "name": "",
          "type": "bool"
        }
      ],
      "stateMutability": "view",
      "type": "function"
    },
    {
      "inputs": [
        {
          "internalType": "uint256",
          "name": "amount",
          "type": "uint256"
        },
        {
          "internalType": "address",
          "name": "to",
          "type": "address"
        }
      ],
      "name": "mint",
      "outputs": [],
      "stateMutability": "nonpayable",
      "type": "function"
    },
    {
      "inputs": [],
      "name": "name",
      "outputs": [
        {
          "internalType": "string",
          "name": "",
          "type": "string"
        }
      ],
      "stateMutability": "view",
      "type": "function"
    },
    {
      "inputs": [],
      "name": "owner",
      "outputs": [
        {
          "internalType": "address",
          "name": "",
          "type": "address"
        }
      ],
      "stateMutability": "view",
      "type": "function"
    },
    {
      "inputs": [
        {
          "internalType": "bytes32",
          "name": "role",
          "type": "bytes32"
        },
        {
          "internalType": "address",
          "name": "callerConfirmation",
          "type": "address"
        }
      ],
      "name": "renounceRole",
      "outputs": [],
      "stateMutability": "nonpayable",
      "type": "function"
    },
    {
      "inputs": [
        {
          "internalType": "bytes32",
          "name": "role",
          "type": "bytes32"
        },
        {
          "internalType": "address",
          "name": "account",
          "type": "address"
        }
      ],
      "name": "revokeRole",
      "outputs": [],
      "stateMutability": "nonpayable",
      "type": "function"
    },
    {
      "inputs": [
        {
          "internalType": "bytes4",
          "name": "interfaceId",
          "type": "bytes4"
        }
      ],
      "name": "supportsInterface",
      "outputs": [
        {
          "internalType": "bool",
          "name": "",
          "type": "bool"
        }
      ],
      "stateMutability": "view",
      "type": "function"
    },
    {
      "inputs": [],
      "name": "symbol",
      "outputs": [
        {
          "internalType": "string",
          "name": "",
          "type": "string"
        }
      ],
      "stateMutability": "view",
      "type": "function"
    },
    {
      "inputs": [],
      "name": "totalSupply",
      "outputs": [
        {
          "internalType": "uint256",
          "name": "",
          "type": "uint256"
        }
      ],
      "stateMutability": "view",
      "type": "function"
    },
    {
      "inputs": [],
      "name": "totalTokens",
      "outputs": [
        {
          "internalType": "uint256",
          "name": "",
          "type": "uint256"
        }
      ],
      "stateMutability": "view",
      "type": "function"
    },
    {
      "inputs": [
        {
          "internalType": "address",
          "name": "to",
          "type": "address"
        },
        {
          "internalType": "uint256",
          "name": "amount",
          "type": "uint256"
        }
      ],
      "name": "transfer",
      "outputs": [
        {
          "internalType": "bool",
          "name": "",
          "type": "bool"
        }
      ],
      "stateMutability": "nonpayable",
      "type": "function"
    },
    {
      "inputs": [
        {
          "internalType": "address",
          "name": "sender",
          "type": "address"
        },
        {
          "internalType": "address",
          "name": "recipient",
          "type": "address"
        },
        {
          "internalType": "uint256",
          "name": "amount",
          "type": "uint256"
        }
      ],
      "name": "transferFrom",
      "outputs": [
        {
          "internalType": "bool",
          "name": "",
          "type": "bool"
        }
      ],
      "stateMutability": "nonpayable",
      "type": "function"
    }
  ],
  "bytecode": "0x608060405234801561001057600080fd5b50604051612c9e380380612c9e83398181016040528101906100329190610730565b61004c676b5420ff76a3644a60c01b6101f560201b60201c565b61006667532ac57a3a538aea60c01b6101f560201b60201c565b836005908161007591906109e6565b5061009067ce82acdffdd180e460c01b6101f560201b60201c565b826006908161009f91906109e6565b506100ba67095b155cf6d9c19060c01b6101f560201b60201c565b33600160006101000a81548173ffffffffffffffffffffffffffffffffffffffff021916908373ffffffffffffffffffffffffffffffffffffffff16021790555061011567c48a048845c04e0360c01b6101f560201b60201c565b61012f67fce4add7a47cd1de60c01b6101f560201b60201c565b6101426000801b336101f860201b60201c565b5061015d675d77481302ee259460c01b6101f560201b60201c565b6101776798ecce922869863060c01b6101f560201b60201c565b6101a77f9f2df0fed2c77648de5860a4cc508cd0818c85b8b8a1ab4ceeef8d981c8956a6336101f860201b60201c565b506101c26792c70149599dcb6060c01b6101f560201b60201c565b6101dc6795d7b506648afe1560c01b6101f560201b60201c565b6101ec82826102f560201b60201c565b50505050610b45565b50565b600061020a838361049660201b60201c565b6102ea57600160008085815260200190815260200160002060000160008473ffffffffffffffffffffffffffffffffffffffff1673ffffffffffffffffffffffffffffffffffffffff16815260200190815260200160002060006101000a81548160ff02191690831515021790555061028761050060201b60201c565b73ffffffffffffffffffffffffffffffffffffffff168273ffffffffffffffffffffffffffffffffffffffff16847f2f8788117e7eff1d82e926ec794901d17c78024a50270940304540a733656f0d60405160405180910390a4600190506102ef565b600090505b92915050565b61030f6722b8b7c30427c68a60c01b6101f560201b60201c565b610329670847c58224fcee5c60c01b6101f560201b60201c565b610343672f1fbc009e1f483260c01b6101f560201b60201c565b6103556000828461050860201b60201c565b61036f675a8a94001b57559a60c01b6101f560201b60201c565b81600260008282546103819190610ae7565b925050819055506103a267b449d6c2b7c71e2060c01b6101f560201b60201c565b81600360008373ffffffffffffffffffffffffffffffffffffffff1673ffffffffffffffffffffffffffffffffffffffff16815260200190815260200160002060008282546103f19190610ae7565b92505081905550610412670efe204c2570e34260c01b6101f560201b60201c565b61042c67240778decfadd69360c01b6101f560201b60201c565b8073ffffffffffffffffffffffffffffffffffffffff16600073ffffffffffffffffffffffffffffffffffffffff167fddf252ad1be2c89b69c2b068fc378daa952ba7f163c4a11628f55a4df523b3ef8460405161048a9190610b2a565b60405180910390a35050565b600080600084815260200190815260200160002060000160008373ffffffffffffffffffffffffffffffffffffffff1673ffffffffffffffffffffffffffffffffffffffff16815260200190815260200160002060009054906101000a900460ff16905092915050565b600033905090565b610522678bc2096aa525334360c01b6101f560201b60201c565b505050565b6000604051905090565b600080fd5b600080fd5b600080fd5b600080fd5b6000601f19601f8301169050919050565b7f4e487b7100000000000000000000000000000000000000000000000000000000600052604160045260246000fd5b61058e82610545565b810181811067ffffffffffffffff821117156105ad576105ac610556565b5b80604052505050565b60006105c0610527565b90506105cc8282610585565b919050565b600067ffffffffffffffff8211156105ec576105eb610556565b5b6105f582610545565b9050602081019050919050565b60005b83811015610620578082015181840152602081019050610605565b60008484015250505050565b600061063f61063a846105d1565b6105b6565b90508281526020810184848401111561065b5761065a610540565b5b610666848285610602565b509392505050565b600082601f8301126106835761068261053b565b5b815161069384826020860161062c565b91505092915050565b6000819050919050565b6106af8161069c565b81146106ba57600080fd5b50565b6000815190506106cc816106a6565b92915050565b600073ffffffffffffffffffffffffffffffffffffffff82169050919050565b60006106fd826106d2565b9050919050565b61070d816106f2565b811461071857600080fd5b50565b60008151905061072a81610704565b92915050565b6000806000806080858703121561074a57610749610531565b5b600085015167ffffffffffffffff81111561076857610767610536565b5b6107748782880161066e565b945050602085015167ffffffffffffffff81111561079557610794610536565b5b6107a18782880161066e565b93505060406107b2878288016106bd565b92505060606107c38782880161071b565b91505092959194509250565b600081519050919050565b7f4e487b7100000000000000000000000000000000000000000000000000000000600052602260045260246000fd5b6000600282049050600182168061082157607f821691505b602082108103610834576108336107da565b5b50919050565b60008190508160005260206000209050919050565b60006020601f8301049050919050565b600082821b905092915050565b60006008830261089c7fffffffffffffffffffffffffffffffffffffffffffffffffffffffffffffffff8261085f565b6108a6868361085f565b95508019841693508086168417925050509392505050565b6000819050919050565b60006108e36108de6108d98461069c565b6108be565b61069c565b9050919050565b6000819050919050565b6108fd836108c8565b610911610909826108ea565b84845461086c565b825550505050565b600090565b610926610919565b6109318184846108f4565b505050565b5b818110156109555761094a60008261091e565b600181019050610937565b5050565b601f82111561099a5761096b8161083a565b6109748461084f565b81016020851015610983578190505b61099761098f8561084f565b830182610936565b50505b505050565b600082821c905092915050565b60006109bd6000198460080261099f565b1980831691505092915050565b60006109d683836109ac565b9150826002028217905092915050565b6109ef826107cf565b67ffffffffffffffff811115610a0857610a07610556565b5b610a128254610809565b610a1d828285610959565b600060209050601f831160018114610a505760008415610a3e578287015190505b610a4885826109ca565b865550610ab0565b601f198416610a5e8661083a565b60005b82811015610a8657848901518255600182019150602085019450602081019050610a61565b86831015610aa35784890151610a9f601f8916826109ac565b8355505b6001600288020188555050505b505050505050565b7f4e487b7100000000000000000000000000000000000000000000000000000000600052601160045260246000fd5b6000610af28261069c565b9150610afd8361069c565b9250828201905080821115610b1557610b14610ab8565b5b92915050565b610b248161069c565b82525050565b6000602082019050610b3f6000830184610b1b565b92915050565b61214a80610b546000396000f3fe608060405234801561001057600080fd5b506004361061014d5760003560e01c806355b6ed5c116100c357806395d89b411161007c57806395d89b41146103d8578063a217fddf146103f6578063a9059cbb14610414578063d539139314610444578063d547741f14610462578063dd62ed3e1461047e5761014d565b806355b6ed5c146102f057806370a08231146103205780637e1c0c09146103505780638da5cb5b1461036e57806391d148541461038c57806394bf804d146103bc5761014d565b8063248a9ca311610115578063248a9ca31461021e57806327e235e31461024e5780632f2ff15d1461027e578063313ce5671461029a57806336568abe146102b857806342966c68146102d45761014d565b806301ffc9a71461015257806306fdde0314610182578063095ea7b3146101a057806318160ddd146101d057806323b872dd146101ee575b600080fd5b61016c60048036038101906101679190611a53565b6104ae565b6040516101799190611a9b565b60405180910390f35b61018a610528565b6040516101979190611b46565b60405180910390f35b6101ba60048036038101906101b59190611bfc565b6105f6565b6040516101c79190611a9b565b60405180910390f35b6101d8610671565b6040516101e59190611c4b565b60405180910390f35b61020860048036038101906102039190611c66565b6106b6565b6040516102159190611a9b565b60405180910390f35b61023860048036038101906102339190611cef565b610a49565b6040516102459190611d2b565b60405180910390f35b61026860048036038101906102639190611d46565b610a68565b6040516102759190611c4b565b60405180910390f35b61029860048036038101906102939190611d73565b610a80565b005b6102a2610aa2565b6040516102af9190611c4b565b60405180910390f35b6102d260048036038101906102cd9190611d73565b610ae7565b005b6102ee60048036038101906102e99190611db3565b610b62565b005b61030a60048036038101906103059190611de0565b610bab565b6040516103179190611c4b565b60405180910390f35b61033a60048036038101906103359190611d46565b610bd0565b6040516103479190611c4b565b60405180910390f35b610358610c55565b6040516103659190611c4b565b60405180910390f35b610376610c5b565b6040516103839190611e2f565b60405180910390f35b6103a660048036038101906103a19190611d73565b610c81565b6040516103b39190611a9b565b60405180910390f35b6103d660048036038101906103d19190611e4a565b610ceb565b005b6103e0610d88565b6040516103ed9190611b46565b60405180910390f35b6103fe610e56565b60405161040b9190611d2b565b60405180910390f35b61042e60048036038101906104299190611bfc565b610e5d565b60405161043b9190611a9b565b60405180910390f35b61044c611128565b6040516104599190611d2b565b60405180910390f35b61047c60048036038101906104779190611d73565b61114c565b005b61049860048036038101906104939190611de0565b61116e565b6040516104a59190611c4b565b60405180910390f35b60007f7965db0b000000000000000000000000000000000000000000000000000000007bffffffffffffffffffffffffffffffffffffffffffffffffffffffff1916827bffffffffffffffffffffffffffffffffffffffffffffffffffffffff19161480610521575061052082611231565b5b9050919050565b606061053e67a05bb122d9d2c7b960c01b61129b565b61055267e1011750af3a833060c01b61129b565b61056667d43df1072bb8661160c01b61129b565b6005805461057390611eb9565b80601f016020809104026020016040519081016040528092919081815260200182805461059f90611eb9565b80156105ec5780601f106105c1576101008083540402835291602001916105ec565b820191906000526020600020905b8154815290600101906020018083116105cf57829003601f168201915b5050505050905090565b600061060c67a305ccb493bf739660c01b61129b565b61062067c4f4dfeedaf1d63260c01b61129b565b61063467ed9dcc78ac313ec760c01b61129b565b61063f33848461129e565b61065367a8fba518191363c560c01b61129b565b61066767c7c4fc7fd49a8b9560c01b61129b565b6001905092915050565b6000610686669077671fcafd6960c01b61129b565b61069a67f3ea140b4e17653f60c01b61129b565b6106ae6767b0c3a7c958fcd460c01b61129b565b600254905090565b60006106cc673d508fd4a72d0a6c60c01b61129b565b6106e0673fab12e3d4f3acbf60c01b61129b565b6106f467f74bde090b0df8b860c01b61129b565b610708673ad24d2ef20178cf60c01b61129b565b81600460008673ffffffffffffffffffffffffffffffffffffffff1673ffffffffffffffffffffffffffffffffffffffff16815260200190815260200160002060003373ffffffffffffffffffffffffffffffffffffffff1673ffffffffffffffffffffffffffffffffffffffff1681526020019081526020016000205410156107c7576040517f08c379a00000000000000000000000000000000000000000000000000000000081526004016107be90611f36565b60405180910390fd5b6107db679271f925335bd6d560c01b61129b565b6107ef67fbd0b2cb35e254c160c01b61129b565b610803673a5dc271bc68ec5660c01b61129b565b61080e8484846113d9565b610822676c07fe1d0ff2a7d160c01b61129b565b81600460008673ffffffffffffffffffffffffffffffffffffffff1673ffffffffffffffffffffffffffffffffffffffff16815260200190815260200160002060003373ffffffffffffffffffffffffffffffffffffffff1673ffffffffffffffffffffffffffffffffffffffff16815260200190815260200160002060008282546108ae9190611f85565b925050819055506108c967749f5af00f7bd82460c01b61129b565b81600360008673ffffffffffffffffffffffffffffffffffffffff1673ffffffffffffffffffffffffffffffffffffffff16815260200190815260200160002060008282546109189190611f85565b9250508190555061093367e7e9deaeb0f9d19060c01b61129b565b81600360008573ffffffffffffffffffffffffffffffffffffffff1673ffffffffffffffffffffffffffffffffffffffff16815260200190815260200160002060008282546109829190611fb9565b9250508190555061099d6708c4a2eb2eeed7fd60c01b61129b565b6109b167f39e25129c485aef60c01b61129b565b8273ffffffffffffffffffffffffffffffffffffffff168473ffffffffffffffffffffffffffffffffffffffff167fddf252ad1be2c89b69c2b068fc378daa952ba7f163c4a11628f55a4df523b3ef84604051610a0e9190611c4b565b60405180910390a3610a2a672d7c712fc796569d60c01b61129b565b610a3e67bf7ae113320d77e260c01b61129b565b600190509392505050565b6000806000838152602001908152602001600020600101549050919050565b60036020528060005260406000206000915090505481565b610a8982610a49565b610a92816113f2565b610a9c8383611406565b50505050565b6000610ab8673fb88017a9a1e78960c01b61129b565b610acc67c5a7d0064792ee1f60c01b61129b565b610ae067f9db599fc41e6d6e60c01b61129b565b6012905090565b610aef6114f7565b73ffffffffffffffffffffffffffffffffffffffff168173ffffffffffffffffffffffffffffffffffffffff1614610b53576040517f6697b23200000000000000000000000000000000000000000000000000000000815260040160405180910390fd5b610b5d82826114ff565b505050565b610b76675d822f95073c2f3a60c01b61129b565b610b8a67d324e8f1040770ec60c01b61129b565b610b9e67fc9e3c2b36ed39f060c01b61129b565b610ba833826115f1565b50565b6004602052816000526040600020602052806000526040600020600091509150505481565b6000610be667dcf87b56d98bd0af60c01b61129b565b610bfa673cd1b1882289cb2460c01b61129b565b610c0e677637f504e950c2ac60c01b61129b565b600360008373ffffffffffffffffffffffffffffffffffffffff1673ffffffffffffffffffffffffffffffffffffffff168152602001908152602001600020549050919050565b60025481565b600160009054906101000a900473ffffffffffffffffffffffffffffffffffffffff1681565b600080600084815260200190815260200160002060000160008373ffffffffffffffffffffffffffffffffffffffff1673ffffffffffffffffffffffffffffffffffffffff16815260200190815260200160002060009054906101000a900460ff16905092915050565b610cff67f3d4b1a7cea2d17c60c01b61129b565b7f9f2df0fed2c77648de5860a4cc508cd0818c85b8b8a1ab4ceeef8d981c8956a6610d29816113f2565b610d3d677db29ead327918c260c01b61129b565b610d51671d1885812e9f441360c01b61129b565b610d6567455c15dbe0d472b160c01b61129b565b610d79676f73bb57c404b26360c01b61129b565b610d838383611834565b505050565b6060610d9e67416512be65a24bb060c01b61129b565b610db267728b032badea352160c01b61129b565b610dc667049230eb3811d36e60c01b61129b565b60068054610dd390611eb9565b80601f0160208091040260200160405190810160405280929190818152602001828054610dff90611eb9565b8015610e4c5780601f10610e2157610100808354040283529160200191610e4c565b820191906000526020600020905b815481529060010190602001808311610e2f57829003601f168201915b5050505050905090565b6000801b81565b6000610e7367bca1436569a0587660c01b61129b565b3382610e8967adef7acae8aadb1c60c01b61129b565b610e9d675e14173d3f1a337960c01b61129b565b610eb16724970d2d233abbbd60c01b61129b565b610ec567489927f16f9c5ebc60c01b61129b565b80610ecf83610bd0565b1015610f10576040517f08c379a0000000000000000000000000000000000000000000000000000000008152600401610f079061205f565b60405180910390fd5b610f2467f18d95916ab17b4e60c01b61129b565b610f3867426b600231e3c21160c01b61129b565b610f4c677df4802f87b1f83a60c01b61129b565b610f6067ae92cb35ecf7e0ca60c01b61129b565b610f7467ff9f1837ed664eac60c01b61129b565b610f8867b560e715a103c15460c01b61129b565b610f933386866113d9565b610fa767fe0e446f0e89907160c01b61129b565b83600360003373ffffffffffffffffffffffffffffffffffffffff1673ffffffffffffffffffffffffffffffffffffffff1681526020019081526020016000206000828254610ff69190611f85565b925050819055506110116710b9da6ececfc09760c01b61129b565b83600360008773ffffffffffffffffffffffffffffffffffffffff1673ffffffffffffffffffffffffffffffffffffffff16815260200190815260200160002060008282546110609190611fb9565b9250508190555061107b676fd0e9243100904d60c01b61129b565b61108f6766511f1848c1253160c01b61129b565b8473ffffffffffffffffffffffffffffffffffffffff163373ffffffffffffffffffffffffffffffffffffffff167fddf252ad1be2c89b69c2b068fc378daa952ba7f163c4a11628f55a4df523b3ef866040516110ec9190611c4b565b60405180910390a3611108675e405516f978a71060c01b61129b565b61111c678c12e516d35cf28760c01b61129b565b60019250505092915050565b7f9f2df0fed2c77648de5860a4cc508cd0818c85b8b8a1ab4ceeef8d981c8956a681565b61115582610a49565b61115e816113f2565b61116883836114ff565b50505050565b60006111846760255968d814a67760c01b61129b565b6111986772fa8d09411de6fa60c01b61129b565b6111ac6745de33cf9862fde660c01b61129b565b600460008473ffffffffffffffffffffffffffffffffffffffff1673ffffffffffffffffffffffffffffffffffffffff16815260200190815260200160002060008373ffffffffffffffffffffffffffffffffffffffff1673ffffffffffffffffffffffffffffffffffffffff16815260200190815260200160002054905092915050565b60007f01ffc9a7000000000000000000000000000000000000000000000000000000007bffffffffffffffffffffffffffffffffffffffffffffffffffffffff1916827bffffffffffffffffffffffffffffffffffffffffffffffffffffffff1916149050919050565b50565b6112b26770220d169a18952a60c01b61129b565b6112c667a979bf5641704cae60c01b61129b565b80600460008573ffffffffffffffffffffffffffffffffffffffff1673ffffffffffffffffffffffffffffffffffffffff16815260200190815260200160002060008473ffffffffffffffffffffffffffffffffffffffff1673ffffffffffffffffffffffffffffffffffffffff1681526020019081526020016000208190555061135b67269e78817fc1811960c01b61129b565b61136f67a93aaf8d746ba80260c01b61129b565b8173ffffffffffffffffffffffffffffffffffffffff168373ffffffffffffffffffffffffffffffffffffffff167f8c5be1e5ebec7d5bd14f71427d1e84f3dd0314c0f7b2291e5b200ac8c7c3b925836040516113cc9190611c4b565b60405180910390a3505050565b6113ed678bc2096aa525334360c01b61129b565b505050565b611403816113fe6114f7565b6119a5565b50565b60006114128383610c81565b6114ec57600160008085815260200190815260200160002060000160008473ffffffffffffffffffffffffffffffffffffffff1673ffffffffffffffffffffffffffffffffffffffff16815260200190815260200160002060006101000a81548160ff0219169083151502179055506114896114f7565b73ffffffffffffffffffffffffffffffffffffffff168273ffffffffffffffffffffffffffffffffffffffff16847f2f8788117e7eff1d82e926ec794901d17c78024a50270940304540a733656f0d60405160405180910390a4600190506114f1565b600090505b92915050565b600033905090565b600061150b8383610c81565b156115e657600080600085815260200190815260200160002060000160008473ffffffffffffffffffffffffffffffffffffffff1673ffffffffffffffffffffffffffffffffffffffff16815260200190815260200160002060006101000a81548160ff0219169083151502179055506115836114f7565b73ffffffffffffffffffffffffffffffffffffffff168273ffffffffffffffffffffffffffffffffffffffff16847ff6391f5c32d9c69d2a47ea670b442974b53935d1edc7fd64eb21e047a839171b60405160405180910390a4600190506115eb565b600090505b92915050565b61160567263f0bab53cedc9260c01b61129b565b6116196760beb66d330b2f9f60c01b61129b565b61162d6766710ce464cfd5df60c01b61129b565b611639826000836113d9565b61164d6798b2ef85e89789c160c01b61129b565b611661677ff92e56802abfad60c01b61129b565b61167567492a85945c00d6ee60c01b61129b565b80600360008473ffffffffffffffffffffffffffffffffffffffff1673ffffffffffffffffffffffffffffffffffffffff1681526020019081526020016000205410156116f7576040517f08c379a00000000000000000000000000000000000000000000000000000000081526004016116ee906120cb565b60405180910390fd5b61170b6702f30127d048765660c01b61129b565b61171f67d04cb70834b5dc7860c01b61129b565b80600360008473ffffffffffffffffffffffffffffffffffffffff1673ffffffffffffffffffffffffffffffffffffffff168152602001908152602001600020600082825461176e9190611f85565b9250508190555061178967481ae834f3fb1ad160c01b61129b565b806002600082825461179b9190611f85565b925050819055506117b667fcfc9e3fdd33532160c01b61129b565b6117ca675eb3d98d59e8d36c60c01b61129b565b600073ffffffffffffffffffffffffffffffffffffffff168273ffffffffffffffffffffffffffffffffffffffff167fddf252ad1be2c89b69c2b068fc378daa952ba7f163c4a11628f55a4df523b3ef836040516118289190611c4b565b60405180910390a35050565b6118486722b8b7c30427c68a60c01b61129b565b61185c670847c58224fcee5c60c01b61129b565b611870672f1fbc009e1f483260c01b61129b565b61187c600082846113d9565b611890675a8a94001b57559a60c01b61129b565b81600260008282546118a29190611fb9565b925050819055506118bd67b449d6c2b7c71e2060c01b61129b565b81600360008373ffffffffffffffffffffffffffffffffffffffff1673ffffffffffffffffffffffffffffffffffffffff168152602001908152602001600020600082825461190c9190611fb9565b92505081905550611927670efe204c2570e34260c01b61129b565b61193b67240778decfadd69360c01b61129b565b8073ffffffffffffffffffffffffffffffffffffffff16600073ffffffffffffffffffffffffffffffffffffffff167fddf252ad1be2c89b69c2b068fc378daa952ba7f163c4a11628f55a4df523b3ef846040516119999190611c4b565b60405180910390a35050565b6119af8282610c81565b6119f25780826040517fe2517d3f0000000000000000000000000000000000000000000000000000000081526004016119e99291906120eb565b60405180910390fd5b5050565b600080fd5b60007fffffffff0000000000000000000000000000000000000000000000000000000082169050919050565b611a30816119fb565b8114611a3b57600080fd5b50565b600081359050611a4d81611a27565b92915050565b600060208284031215611a6957611a686119f6565b5b6000611a7784828501611a3e565b91505092915050565b60008115159050919050565b611a9581611a80565b82525050565b6000602082019050611ab06000830184611a8c565b92915050565b600081519050919050565b600082825260208201905092915050565b60005b83811015611af0578082015181840152602081019050611ad5565b60008484015250505050565b6000601f19601f8301169050919050565b6000611b1882611ab6565b611b228185611ac1565b9350611b32818560208601611ad2565b611b3b81611afc565b840191505092915050565b60006020820190508181036000830152611b608184611b0d565b905092915050565b600073ffffffffffffffffffffffffffffffffffffffff82169050919050565b6000611b9382611b68565b9050919050565b611ba381611b88565b8114611bae57600080fd5b50565b600081359050611bc081611b9a565b92915050565b6000819050919050565b611bd981611bc6565b8114611be457600080fd5b50565b600081359050611bf681611bd0565b92915050565b60008060408385031215611c1357611c126119f6565b5b6000611c2185828601611bb1565b9250506020611c3285828601611be7565b9150509250929050565b611c4581611bc6565b82525050565b6000602082019050611c606000830184611c3c565b92915050565b600080600060608486031215611c7f57611c7e6119f6565b5b6000611c8d86828701611bb1565b9350506020611c9e86828701611bb1565b9250506040611caf86828701611be7565b9150509250925092565b6000819050919050565b611ccc81611cb9565b8114611cd757600080fd5b50565b600081359050611ce981611cc3565b92915050565b600060208284031215611d0557611d046119f6565b5b6000611d1384828501611cda565b91505092915050565b611d2581611cb9565b82525050565b6000602082019050611d406000830184611d1c565b92915050565b600060208284031215611d5c57611d5b6119f6565b5b6000611d6a84828501611bb1565b91505092915050565b60008060408385031215611d8a57611d896119f6565b5b6000611d9885828601611cda565b9250506020611da985828601611bb1565b9150509250929050565b600060208284031215611dc957611dc86119f6565b5b6000611dd784828501611be7565b91505092915050565b60008060408385031215611df757611df66119f6565b5b6000611e0585828601611bb1565b9250506020611e1685828601611bb1565b9150509250929050565b611e2981611b88565b82525050565b6000602082019050611e446000830184611e20565b92915050565b60008060408385031215611e6157611e606119f6565b5b6000611e6f85828601611be7565b9250506020611e8085828601611bb1565b9150509250929050565b7f4e487b7100000000000000000000000000000000000000000000000000000000600052602260045260246000fd5b60006002820490506001821680611ed157607f821691505b602082108103611ee457611ee3611e8a565b5b50919050565b7f416c6c6f77616e636520746f6f206c6f77000000000000000000000000000000600082015250565b6000611f20601183611ac1565b9150611f2b82611eea565b602082019050919050565b60006020820190508181036000830152611f4f81611f13565b9050919050565b7f4e487b7100000000000000000000000000000000000000000000000000000000600052601160045260246000fd5b6000611f9082611bc6565b9150611f9b83611bc6565b9250828203905081811115611fb357611fb2611f56565b5b92915050565b6000611fc482611bc6565b9150611fcf83611bc6565b9250828201905080821115611fe757611fe6611f56565b5b92915050565b7f596f75206861766520746f6f206c6f7720616d6f756e74206f6620746f6b656e60008201527f7300000000000000000000000000000000000000000000000000000000000000602082015250565b6000612049602183611ac1565b915061205482611fed565b604082019050919050565b600060208201905081810360008301526120788161203c565b9050919050565b7f4e6f7420656e6f75676820746f6b656e7320746f206275726e00000000000000600082015250565b60006120b5601983611ac1565b91506120c08261207f565b602082019050919050565b600060208201905081810360008301526120e4816120a8565b9050919050565b60006040820190506121006000830185611e20565b61210d6020830184611d1c565b939250505056fea2646970667358221220f4a3486f68a6798457c1906df8f0970cdb75b7716b59bcfab2dcbb6b93fab14264736f6c634300081d0033",
  "linkReferences": {},
  "deployedLinkReferences": {}
}