{
  "_format": "hh-sol-artifact-1",
  "contractName": "ERC20Base",
  "sourceName": "contracts/ERC20Base.sol",
  "abi": [
    {
      "inputs": [
        {
          "internalType": "string",
          "name": "name_",
          "type": "string"
        },
        {
          "internalType": "string",
          "name": "symbol_",
          "type": "string"
        },
        {
          "internalType": "uint256",
          "name": "initialSupply",
          "type": "uint256"
        },
        {
          "internalType": "address",
          "name": "exchanger",
          "type": "address"
        }
      ],
      "stateMutability": "nonpayable",
      "type": "constructor"
    },
    {
      "inputs": [],
      "name": "AccessControlBadConfirmation",
      "type": "error"
    },
    {
      "inputs": [
        {
          "internalType": "address",
          "name": "account",
          "type": "address"
        },
        {
          "internalType": "bytes32",
          "name": "neededRole",
          "type": "bytes32"
        }
      ],
      "name": "AccessControlUnauthorizedAccount",
      "type": "error"
    },
    {
      "anonymous": false,
      "inputs": [
        {
          "indexed": true,
          "internalType": "address",
          "name": "owner",
          "type": "address"
        },
        {
          "indexed": true,
          "internalType": "address",
          "name": "spender",
          "type": "address"
        },
        {
          "indexed": false,
          "internalType": "uint256",
          "name": "amount",
          "type": "uint256"
        }
      ],
      "name": "Approval",
      "type": "event"
    },
    {
      "anonymous": false,
      "inputs": [
        {
          "indexed": true,
          "internalType": "bytes32",
          "name": "role",
          "type": "bytes32"
        },
        {
          "indexed": true,
          "internalType": "bytes32",
          "name": "previousAdminRole",
          "type": "bytes32"
        },
        {
          "indexed": true,
          "internalType": "bytes32",
          "name": "newAdminRole",
          "type": "bytes32"
        }
      ],
      "name": "RoleAdminChanged",
      "type": "event"
    },
    {
      "anonymous": false,
      "inputs": [
        {
          "indexed": true,
          "internalType": "bytes32",
          "name": "role",
          "type": "bytes32"
        },
        {
          "indexed": true,
          "internalType": "address",
          "name": "account",
          "type": "address"
        },
        {
          "indexed": true,
          "internalType": "address",
          "name": "sender",
          "type": "address"
        }
      ],
      "name": "RoleGranted",
      "type": "event"
    },
    {
      "anonymous": false,
      "inputs": [
        {
          "indexed": true,
          "internalType": "bytes32",
          "name": "role",
          "type": "bytes32"
        },
        {
          "indexed": true,
          "internalType": "address",
          "name": "account",
          "type": "address"
        },
        {
          "indexed": true,
          "internalType": "address",
          "name": "sender",
          "type": "address"
        }
      ],
      "name": "RoleRevoked",
      "type": "event"
    },
    {
      "anonymous": false,
      "inputs": [
        {
          "indexed": true,
          "internalType": "address",
          "name": "from",
          "type": "address"
        },
        {
          "indexed": true,
          "internalType": "address",
          "name": "to",
          "type": "address"
        },
        {
          "indexed": false,
          "internalType": "uint256",
          "name": "amount",
          "type": "uint256"
        }
      ],
      "name": "Transfer",
      "type": "event"
    },
    {
      "inputs": [],
      "name": "DEFAULT_ADMIN_ROLE",
      "outputs": [
        {
          "internalType": "bytes32",
          "name": "",
          "type": "bytes32"
        }
      ],
      "stateMutability": "view",
      "type": "function"
    },
    {
      "inputs": [],
      "name": "MINTER_ROLE",
      "outputs": [
        {
          "internalType": "bytes32",
          "name": "",
          "type": "bytes32"
        }
      ],
      "stateMutability": "view",
      "type": "function"
    },
    {
      "inputs": [
        {
          "internalType": "address",
          "name": "_owner",
          "type": "address"
        },
        {
          "internalType": "address",
          "name": "spender",
          "type": "address"
        }
      ],
      "name": "allowance",
      "outputs": [
        {
          "internalType": "uint256",
          "name": "",
          "type": "uint256"
        }
      ],
      "stateMutability": "view",
      "type": "function"
    },
    {
      "inputs": [
        {
          "internalType": "address",
          "name": "",
          "type": "address"
        },
        {
          "internalType": "address",
          "name": "",
          "type": "address"
        }
      ],
      "name": "allowances",
      "outputs": [
        {
          "internalType": "uint256",
          "name": "",
          "type": "uint256"
        }
      ],
      "stateMutability": "view",
      "type": "function"
    },
    {
      "inputs": [
        {
          "internalType": "address",
          "name": "spender",
          "type": "address"
        },
        {
          "internalType": "uint256",
          "name": "amount",
          "type": "uint256"
        }
      ],
      "name": "approve",
      "outputs": [
        {
          "internalType": "bool",
          "name": "",
          "type": "bool"
        }
      ],
      "stateMutability": "nonpayable",
      "type": "function"
    },
    {
      "inputs": [
        {
          "internalType": "address",
          "name": "account",
          "type": "address"
        }
      ],
      "name": "balanceOf",
      "outputs": [
        {
          "internalType": "uint256",
          "name": "",
          "type": "uint256"
        }
      ],
      "stateMutability": "view",
      "type": "function"
    },
    {
      "inputs": [
        {
          "internalType": "address",
          "name": "",
          "type": "address"
        }
      ],
      "name": "balances",
      "outputs": [
        {
          "internalType": "uint256",
          "name": "",
          "type": "uint256"
        }
      ],
      "stateMutability": "view",
      "type": "function"
    },
    {
      "inputs": [],
      "name": "decimals",
      "outputs": [
        {
          "internalType": "uint256",
          "name": "",
          "type": "uint256"
        }
      ],
      "stateMutability": "pure",
      "type": "function"
    },
    {
      "inputs": [
        {
          "internalType": "bytes32",
          "name": "role",
          "type": "bytes32"
        }
      ],
      "name": "getRoleAdmin",
      "outputs": [
        {
          "internalType": "bytes32",
          "name": "",
          "type": "bytes32"
        }
      ],
      "stateMutability": "view",
      "type": "function"
    },
    {
      "inputs": [
        {
          "internalType": "bytes32",
          "name": "role",
          "type": "bytes32"
        },
        {
          "internalType": "address",
          "name": "account",
          "type": "address"
        }
      ],
      "name": "grantRole",
      "outputs": [],
      "stateMutability": "nonpayable",
      "type": "function"
    },
    {
      "inputs": [
        {
          "internalType": "bytes32",
          "name": "role",
          "type": "bytes32"
        },
        {
          "internalType": "address",
          "name": "account",
          "type": "address"
        }
      ],
      "name": "hasRole",
      "outputs": [
        {
          "internalType": "bool",
          "name": "",
          "type": "bool"
        }
      ],
      "stateMutability": "view",
      "type": "function"
    },
    {
      "inputs": [
        {
          "internalType": "uint256",
          "name": "amount",
          "type": "uint256"
        },
        {
          "internalType": "address",
          "name": "to",
          "type": "address"
        }
      ],
      "name": "mint",
      "outputs": [],
      "stateMutability": "nonpayable",
      "type": "function"
    },
    {
      "inputs": [],
      "name": "name",
      "outputs": [
        {
          "internalType": "string",
          "name": "",
          "type": "string"
        }
      ],
      "stateMutability": "view",
      "type": "function"
    },
    {
      "inputs": [],
      "name": "owner",
      "outputs": [
        {
          "internalType": "address",
          "name": "",
          "type": "address"
        }
      ],
      "stateMutability": "view",
      "type": "function"
    },
    {
      "inputs": [
        {
          "internalType": "bytes32",
          "name": "role",
          "type": "bytes32"
        },
        {
          "internalType": "address",
          "name": "callerConfirmation",
          "type": "address"
        }
      ],
      "name": "renounceRole",
      "outputs": [],
      "stateMutability": "nonpayable",
      "type": "function"
    },
    {
      "inputs": [
        {
          "internalType": "bytes32",
          "name": "role",
          "type": "bytes32"
        },
        {
          "internalType": "address",
          "name": "account",
          "type": "address"
        }
      ],
      "name": "revokeRole",
      "outputs": [],
      "stateMutability": "nonpayable",
      "type": "function"
    },
    {
      "inputs": [
        {
          "internalType": "bytes4",
          "name": "interfaceId",
          "type": "bytes4"
        }
      ],
      "name": "supportsInterface",
      "outputs": [
        {
          "internalType": "bool",
          "name": "",
          "type": "bool"
        }
      ],
      "stateMutability": "view",
      "type": "function"
    },
    {
      "inputs": [],
      "name": "symbol",
      "outputs": [
        {
          "internalType": "string",
          "name": "",
          "type": "string"
        }
      ],
      "stateMutability": "view",
      "type": "function"
    },
    {
      "inputs": [],
      "name": "totalSupply",
      "outputs": [
        {
          "internalType": "uint256",
          "name": "",
          "type": "uint256"
        }
      ],
      "stateMutability": "view",
      "type": "function"
    },
    {
      "inputs": [],
      "name": "totalTokens",
      "outputs": [
        {
          "internalType": "uint256",
          "name": "",
          "type": "uint256"
        }
      ],
      "stateMutability": "view",
      "type": "function"
    },
    {
      "inputs": [
        {
          "internalType": "address",
          "name": "to",
          "type": "address"
        },
        {
          "internalType": "uint256",
          "name": "amount",
          "type": "uint256"
        }
      ],
      "name": "transfer",
      "outputs": [
        {
          "internalType": "bool",
          "name": "",
          "type": "bool"
        }
      ],
      "stateMutability": "nonpayable",
      "type": "function"
    },
    {
      "inputs": [
        {
          "internalType": "address",
          "name": "sender",
          "type": "address"
        },
        {
          "internalType": "address",
          "name": "recipient",
          "type": "address"
        },
        {
          "internalType": "uint256",
          "name": "amount",
          "type": "uint256"
        }
      ],
      "name": "transferFrom",
      "outputs": [
        {
          "internalType": "bool",
          "name": "",
          "type": "bool"
        }
      ],
      "stateMutability": "nonpayable",
      "type": "function"
    }
  ],
  "bytecode": "0x608060405234801561001057600080fd5b5060405161295238038061295283398181016040528101906100329190610730565b61004c67095b155cf6d9c19060c01b6101f560201b60201c565b61006667c48a048845c04e0360c01b6101f560201b60201c565b836005908161007591906109e6565b5061009067fce4add7a47cd1de60c01b6101f560201b60201c565b826006908161009f91906109e6565b506100ba675d77481302ee259460c01b6101f560201b60201c565b33600160006101000a81548173ffffffffffffffffffffffffffffffffffffffff021916908373ffffffffffffffffffffffffffffffffffffffff1602179055506101156798ecce922869863060c01b6101f560201b60201c565b61012f6792c70149599dcb6060c01b6101f560201b60201c565b6101426000801b336101f860201b60201c565b5061015d6795d7b506648afe1560c01b6101f560201b60201c565b61017767a05bb122d9d2c7b960c01b6101f560201b60201c565b6101a77f9f2df0fed2c77648de5860a4cc508cd0818c85b8b8a1ab4ceeef8d981c8956a6336101f860201b60201c565b506101c267e1011750af3a833060c01b6101f560201b60201c565b6101dc67d43df1072bb8661160c01b6101f560201b60201c565b6101ec82826102f560201b60201c565b50505050610b45565b50565b600061020a838361049660201b60201c565b6102ea57600160008085815260200190815260200160002060000160008473ffffffffffffffffffffffffffffffffffffffff1673ffffffffffffffffffffffffffffffffffffffff16815260200190815260200160002060006101000a81548160ff02191690831515021790555061028761050060201b60201c565b73ffffffffffffffffffffffffffffffffffffffff168273ffffffffffffffffffffffffffffffffffffffff16847f2f8788117e7eff1d82e926ec794901d17c78024a50270940304540a733656f0d60405160405180910390a4600190506102ef565b600090505b92915050565b61030f675a8a94001b57559a60c01b6101f560201b60201c565b61032967b449d6c2b7c71e2060c01b6101f560201b60201c565b610343670efe204c2570e34260c01b6101f560201b60201c565b6103556000828461050860201b60201c565b61036f67240778decfadd69360c01b6101f560201b60201c565b81600260008282546103819190610ae7565b925050819055506103a267263f0bab53cedc9260c01b6101f560201b60201c565b81600360008373ffffffffffffffffffffffffffffffffffffffff1673ffffffffffffffffffffffffffffffffffffffff16815260200190815260200160002060008282546103f19190610ae7565b925050819055506104126760beb66d330b2f9f60c01b6101f560201b60201c565b61042c6766710ce464cfd5df60c01b6101f560201b60201c565b8073ffffffffffffffffffffffffffffffffffffffff16600073ffffffffffffffffffffffffffffffffffffffff167fddf252ad1be2c89b69c2b068fc378daa952ba7f163c4a11628f55a4df523b3ef8460405161048a9190610b2a565b60405180910390a35050565b600080600084815260200190815260200160002060000160008373ffffffffffffffffffffffffffffffffffffffff1673ffffffffffffffffffffffffffffffffffffffff16815260200190815260200160002060009054906101000a900460ff16905092915050565b600033905090565b610522678bc2096aa525334360c01b6101f560201b60201c565b505050565b6000604051905090565b600080fd5b600080fd5b600080fd5b600080fd5b6000601f19601f8301169050919050565b7f4e487b7100000000000000000000000000000000000000000000000000000000600052604160045260246000fd5b61058e82610545565b810181811067ffffffffffffffff821117156105ad576105ac610556565b5b80604052505050565b60006105c0610527565b90506105cc8282610585565b919050565b600067ffffffffffffffff8211156105ec576105eb610556565b5b6105f582610545565b9050602081019050919050565b60005b83811015610620578082015181840152602081019050610605565b60008484015250505050565b600061063f61063a846105d1565b6105b6565b90508281526020810184848401111561065b5761065a610540565b5b610666848285610602565b509392505050565b600082601f8301126106835761068261053b565b5b815161069384826020860161062c565b91505092915050565b6000819050919050565b6106af8161069c565b81146106ba57600080fd5b50565b6000815190506106cc816106a6565b92915050565b600073ffffffffffffffffffffffffffffffffffffffff82169050919050565b60006106fd826106d2565b9050919050565b61070d816106f2565b811461071857600080fd5b50565b60008151905061072a81610704565b92915050565b6000806000806080858703121561074a57610749610531565b5b600085015167ffffffffffffffff81111561076857610767610536565b5b6107748782880161066e565b945050602085015167ffffffffffffffff81111561079557610794610536565b5b6107a18782880161066e565b93505060406107b2878288016106bd565b92505060606107c38782880161071b565b91505092959194509250565b600081519050919050565b7f4e487b7100000000000000000000000000000000000000000000000000000000600052602260045260246000fd5b6000600282049050600182168061082157607f821691505b602082108103610834576108336107da565b5b50919050565b60008190508160005260206000209050919050565b60006020601f8301049050919050565b600082821b905092915050565b60006008830261089c7fffffffffffffffffffffffffffffffffffffffffffffffffffffffffffffffff8261085f565b6108a6868361085f565b95508019841693508086168417925050509392505050565b6000819050919050565b60006108e36108de6108d98461069c565b6108be565b61069c565b9050919050565b6000819050919050565b6108fd836108c8565b610911610909826108ea565b84845461086c565b825550505050565b600090565b610926610919565b6109318184846108f4565b505050565b5b818110156109555761094a60008261091e565b600181019050610937565b5050565b601f82111561099a5761096b8161083a565b6109748461084f565b81016020851015610983578190505b61099761098f8561084f565b830182610936565b50505b505050565b600082821c905092915050565b60006109bd6000198460080261099f565b1980831691505092915050565b60006109d683836109ac565b9150826002028217905092915050565b6109ef826107cf565b67ffffffffffffffff811115610a0857610a07610556565b5b610a128254610809565b610a1d828285610959565b600060209050601f831160018114610a505760008415610a3e578287015190505b610a4885826109ca565b865550610ab0565b601f198416610a5e8661083a565b60005b82811015610a8657848901518255600182019150602085019450602081019050610a61565b86831015610aa35784890151610a9f601f8916826109ac565b8355505b6001600288020188555050505b505050505050565b7f4e487b7100000000000000000000000000000000000000000000000000000000600052601160045260246000fd5b6000610af28261069c565b9150610afd8361069c565b9250828201905080821115610b1557610b14610ab8565b5b92915050565b610b248161069c565b82525050565b6000602082019050610b3f6000830184610b1b565b92915050565b611dfe80610b546000396000f3fe608060405234801561001057600080fd5b50600436106101425760003560e01c806370a08231116100b857806395d89b411161007c57806395d89b41146103b1578063a217fddf146103cf578063a9059cbb146103ed578063d53913931461041d578063d547741f1461043b578063dd62ed3e1461045757610142565b806370a08231146102f95780637e1c0c09146103295780638da5cb5b1461034757806391d148541461036557806394bf804d1461039557610142565b8063248a9ca31161010a578063248a9ca31461021357806327e235e3146102435780632f2ff15d14610273578063313ce5671461028f57806336568abe146102ad57806355b6ed5c146102c957610142565b806301ffc9a71461014757806306fdde0314610177578063095ea7b31461019557806318160ddd146101c557806323b872dd146101e3575b600080fd5b610161600480360381019061015c91906117a0565b610487565b60405161016e91906117e8565b60405180910390f35b61017f610501565b60405161018c9190611893565b60405180910390f35b6101af60048036038101906101aa9190611949565b6105cf565b6040516101bc91906117e8565b60405180910390f35b6101cd61064a565b6040516101da9190611998565b60405180910390f35b6101fd60048036038101906101f891906119b3565b610690565b60405161020a91906117e8565b60405180910390f35b61022d60048036038101906102289190611a3c565b610a23565b60405161023a9190611a78565b60405180910390f35b61025d60048036038101906102589190611a93565b610a42565b60405161026a9190611998565b60405180910390f35b61028d60048036038101906102889190611ac0565b610a5a565b005b610297610a7c565b6040516102a49190611998565b60405180910390f35b6102c760048036038101906102c29190611ac0565b610ac0565b005b6102e360048036038101906102de9190611b00565b610b3b565b6040516102f09190611998565b60405180910390f35b610313600480360381019061030e9190611a93565b610b60565b6040516103209190611998565b60405180910390f35b610331610be5565b60405161033e9190611998565b60405180910390f35b61034f610beb565b60405161035c9190611b4f565b60405180910390f35b61037f600480360381019061037a9190611ac0565b610c11565b60405161038c91906117e8565b60405180910390f35b6103af60048036038101906103aa9190611b6a565b610c7b565b005b6103b9610d18565b6040516103c69190611893565b60405180910390f35b6103d7610de6565b6040516103e49190611a78565b60405180910390f35b61040760048036038101906104029190611949565b610ded565b60405161041491906117e8565b60405180910390f35b6104256110b8565b6040516104329190611a78565b60405180910390f35b61045560048036038101906104509190611ac0565b6110dc565b005b610471600480360381019061046c9190611b00565b6110fe565b60405161047e9190611998565b60405180910390f35b60007f7965db0b000000000000000000000000000000000000000000000000000000007bffffffffffffffffffffffffffffffffffffffffffffffffffffffff1916827bffffffffffffffffffffffffffffffffffffffffffffffffffffffff191614806104fa57506104f9826111c1565b5b9050919050565b606061051767416512be65a24bb060c01b61122b565b61052b67728b032badea352160c01b61122b565b61053f67049230eb3811d36e60c01b61122b565b6005805461054c90611bd9565b80601f016020809104026020016040519081016040528092919081815260200182805461057890611bd9565b80156105c55780601f1061059a576101008083540402835291602001916105c5565b820191906000526020600020905b8154815290600101906020018083116105a857829003601f168201915b5050505050905090565b60006105e567a305ccb493bf739660c01b61122b565b6105f967c4f4dfeedaf1d63260c01b61122b565b61060d67ed9dcc78ac313ec760c01b61122b565b61061833848461122e565b61062c67a8fba518191363c560c01b61122b565b61064067c7c4fc7fd49a8b9560c01b61122b565b6001905092915050565b600061066067dcf87b56d98bd0af60c01b61122b565b610674673cd1b1882289cb2460c01b61122b565b610688677637f504e950c2ac60c01b61122b565b600254905090565b60006106a6673ad24d2ef20178cf60c01b61122b565b6106ba679271f925335bd6d560c01b61122b565b6106ce67fbd0b2cb35e254c160c01b61122b565b6106e2673a5dc271bc68ec5660c01b61122b565b81600460008673ffffffffffffffffffffffffffffffffffffffff1673ffffffffffffffffffffffffffffffffffffffff16815260200190815260200160002060003373ffffffffffffffffffffffffffffffffffffffff1673ffffffffffffffffffffffffffffffffffffffff1681526020019081526020016000205410156107a1576040517f08c379a000000000000000000000000000000000000000000000000000000000815260040161079890611c56565b60405180910390fd5b6107b5676c07fe1d0ff2a7d160c01b61122b565b6107c967749f5af00f7bd82460c01b61122b565b6107dd67e7e9deaeb0f9d19060c01b61122b565b6107e8848484611369565b6107fc6708c4a2eb2eeed7fd60c01b61122b565b81600460008673ffffffffffffffffffffffffffffffffffffffff1673ffffffffffffffffffffffffffffffffffffffff16815260200190815260200160002060003373ffffffffffffffffffffffffffffffffffffffff1673ffffffffffffffffffffffffffffffffffffffff16815260200190815260200160002060008282546108889190611ca5565b925050819055506108a367f39e25129c485aef60c01b61122b565b81600360008673ffffffffffffffffffffffffffffffffffffffff1673ffffffffffffffffffffffffffffffffffffffff16815260200190815260200160002060008282546108f29190611ca5565b9250508190555061090d672d7c712fc796569d60c01b61122b565b81600360008573ffffffffffffffffffffffffffffffffffffffff1673ffffffffffffffffffffffffffffffffffffffff168152602001908152602001600020600082825461095c9190611cd9565b9250508190555061097767bf7ae113320d77e260c01b61122b565b61098b670a14e011512fe04960c01b61122b565b8273ffffffffffffffffffffffffffffffffffffffff168473ffffffffffffffffffffffffffffffffffffffff167fddf252ad1be2c89b69c2b068fc378daa952ba7f163c4a11628f55a4df523b3ef846040516109e89190611998565b60405180910390a3610a046767a435d0b83cdd5b60c01b61122b565b610a18671d1885812e9f441360c01b61122b565b600190509392505050565b6000806000838152602001908152602001600020600101549050919050565b60036020528060005260406000206000915090505481565b610a6382610a23565b610a6c81611382565b610a768383611396565b50505050565b6000610a91669077671fcafd6960c01b61122b565b610aa567f3ea140b4e17653f60c01b61122b565b610ab96767b0c3a7c958fcd460c01b61122b565b6012905090565b610ac8611487565b73ffffffffffffffffffffffffffffffffffffffff168173ffffffffffffffffffffffffffffffffffffffff1614610b2c576040517f6697b23200000000000000000000000000000000000000000000000000000000815260040160405180910390fd5b610b36828261148f565b505050565b6004602052816000526040600020602052806000526040600020600091509150505481565b6000610b7667fb45b114467e2bcb60c01b61122b565b610b8a671c84f10f6ac177cf60c01b61122b565b610b9e67ae92cb35ecf7e0ca60c01b61122b565b600360008373ffffffffffffffffffffffffffffffffffffffff1673ffffffffffffffffffffffffffffffffffffffff168152602001908152602001600020549050919050565b60025481565b600160009054906101000a900473ffffffffffffffffffffffffffffffffffffffff1681565b600080600084815260200190815260200160002060000160008373ffffffffffffffffffffffffffffffffffffffff1673ffffffffffffffffffffffffffffffffffffffff16815260200190815260200160002060009054906101000a900460ff16905092915050565b610c8f67ee90cb3f2bbeebf260c01b61122b565b7f9f2df0fed2c77648de5860a4cc508cd0818c85b8b8a1ab4ceeef8d981c8956a6610cb981611382565b610ccd67d88d16ea1982f15c60c01b61122b565b610ce16722b8b7c30427c68a60c01b61122b565b610cf5670847c58224fcee5c60c01b61122b565b610d09672f1fbc009e1f483260c01b61122b565b610d138383611581565b505050565b6060610d2e673fb88017a9a1e78960c01b61122b565b610d4267c5a7d0064792ee1f60c01b61122b565b610d5667f9db599fc41e6d6e60c01b61122b565b60068054610d6390611bd9565b80601f0160208091040260200160405190810160405280929190818152602001828054610d8f90611bd9565b8015610ddc5780601f10610db157610100808354040283529160200191610ddc565b820191906000526020600020905b815481529060010190602001808311610dbf57829003601f168201915b5050505050905090565b6000801b81565b6000610e03675d0dfb1aeab620ce60c01b61122b565b3382610e19679494b21fd752516f60c01b61122b565b610e2d676bdc75efc91c5d7f60c01b61122b565b610e416705ab94315383c38b60c01b61122b565b610e5567adef7acae8aadb1c60c01b61122b565b80610e5f83610b60565b1015610ea0576040517f08c379a0000000000000000000000000000000000000000000000000000000008152600401610e9790611d7f565b60405180910390fd5b610eb4675e14173d3f1a337960c01b61122b565b610ec86724970d2d233abbbd60c01b61122b565b610edc67b6d193f2cbca0bd560c01b61122b565b610ef067fe0e446f0e89907160c01b61122b565b610f046710b9da6ececfc09760c01b61122b565b610f18676fd0e9243100904d60c01b61122b565b610f23338686611369565b610f376766511f1848c1253160c01b61122b565b83600360003373ffffffffffffffffffffffffffffffffffffffff1673ffffffffffffffffffffffffffffffffffffffff1681526020019081526020016000206000828254610f869190611ca5565b92505081905550610fa1675e405516f978a71060c01b61122b565b83600360008773ffffffffffffffffffffffffffffffffffffffff1673ffffffffffffffffffffffffffffffffffffffff1681526020019081526020016000206000828254610ff09190611cd9565b9250508190555061100b678c12e516d35cf28760c01b61122b565b61101f67fac498aee86bd17460c01b61122b565b8473ffffffffffffffffffffffffffffffffffffffff163373ffffffffffffffffffffffffffffffffffffffff167fddf252ad1be2c89b69c2b068fc378daa952ba7f163c4a11628f55a4df523b3ef8660405161107c9190611998565b60405180910390a3611098672689603fd7fa59b960c01b61122b565b6110ac674524c87b0e2d1f1d60c01b61122b565b60019250505092915050565b7f9f2df0fed2c77648de5860a4cc508cd0818c85b8b8a1ab4ceeef8d981c8956a681565b6110e582610a23565b6110ee81611382565b6110f8838361148f565b50505050565b60006111146760255968d814a67760c01b61122b565b6111286772fa8d09411de6fa60c01b61122b565b61113c6745de33cf9862fde660c01b61122b565b600460008473ffffffffffffffffffffffffffffffffffffffff1673ffffffffffffffffffffffffffffffffffffffff16815260200190815260200160002060008373ffffffffffffffffffffffffffffffffffffffff1673ffffffffffffffffffffffffffffffffffffffff16815260200190815260200160002054905092915050565b60007f01ffc9a7000000000000000000000000000000000000000000000000000000007bffffffffffffffffffffffffffffffffffffffffffffffffffffffff1916827bffffffffffffffffffffffffffffffffffffffffffffffffffffffff1916149050919050565b50565b6112426770220d169a18952a60c01b61122b565b61125667a979bf5641704cae60c01b61122b565b80600460008573ffffffffffffffffffffffffffffffffffffffff1673ffffffffffffffffffffffffffffffffffffffff16815260200190815260200160002060008473ffffffffffffffffffffffffffffffffffffffff1673ffffffffffffffffffffffffffffffffffffffff168152602001908152602001600020819055506112eb67269e78817fc1811960c01b61122b565b6112ff67a93aaf8d746ba80260c01b61122b565b8173ffffffffffffffffffffffffffffffffffffffff168373ffffffffffffffffffffffffffffffffffffffff167f8c5be1e5ebec7d5bd14f71427d1e84f3dd0314c0f7b2291e5b200ac8c7c3b9258360405161135c9190611998565b60405180910390a3505050565b61137d678bc2096aa525334360c01b61122b565b505050565b6113938161138e611487565b6116f2565b50565b60006113a28383610c11565b61147c57600160008085815260200190815260200160002060000160008473ffffffffffffffffffffffffffffffffffffffff1673ffffffffffffffffffffffffffffffffffffffff16815260200190815260200160002060006101000a81548160ff021916908315150217905550611419611487565b73ffffffffffffffffffffffffffffffffffffffff168273ffffffffffffffffffffffffffffffffffffffff16847f2f8788117e7eff1d82e926ec794901d17c78024a50270940304540a733656f0d60405160405180910390a460019050611481565b600090505b92915050565b600033905090565b600061149b8383610c11565b1561157657600080600085815260200190815260200160002060000160008473ffffffffffffffffffffffffffffffffffffffff1673ffffffffffffffffffffffffffffffffffffffff16815260200190815260200160002060006101000a81548160ff021916908315150217905550611513611487565b73ffffffffffffffffffffffffffffffffffffffff168273ffffffffffffffffffffffffffffffffffffffff16847ff6391f5c32d9c69d2a47ea670b442974b53935d1edc7fd64eb21e047a839171b60405160405180910390a46001905061157b565b600090505b92915050565b611595675a8a94001b57559a60c01b61122b565b6115a967b449d6c2b7c71e2060c01b61122b565b6115bd670efe204c2570e34260c01b61122b565b6115c960008284611369565b6115dd67240778decfadd69360c01b61122b565b81600260008282546115ef9190611cd9565b9250508190555061160a67263f0bab53cedc9260c01b61122b565b81600360008373ffffffffffffffffffffffffffffffffffffffff1673ffffffffffffffffffffffffffffffffffffffff16815260200190815260200160002060008282546116599190611cd9565b925050819055506116746760beb66d330b2f9f60c01b61122b565b6116886766710ce464cfd5df60c01b61122b565b8073ffffffffffffffffffffffffffffffffffffffff16600073ffffffffffffffffffffffffffffffffffffffff167fddf252ad1be2c89b69c2b068fc378daa952ba7f163c4a11628f55a4df523b3ef846040516116e69190611998565b60405180910390a35050565b6116fc8282610c11565b61173f5780826040517fe2517d3f000000000000000000000000000000000000000000000000000000008152600401611736929190611d9f565b60405180910390fd5b5050565b600080fd5b60007fffffffff0000000000000000000000000000000000000000000000000000000082169050919050565b61177d81611748565b811461178857600080fd5b50565b60008135905061179a81611774565b92915050565b6000602082840312156117b6576117b5611743565b5b60006117c48482850161178b565b91505092915050565b60008115159050919050565b6117e2816117cd565b82525050565b60006020820190506117fd60008301846117d9565b92915050565b600081519050919050565b600082825260208201905092915050565b60005b8381101561183d578082015181840152602081019050611822565b60008484015250505050565b6000601f19601f8301169050919050565b600061186582611803565b61186f818561180e565b935061187f81856020860161181f565b61188881611849565b840191505092915050565b600060208201905081810360008301526118ad818461185a565b905092915050565b600073ffffffffffffffffffffffffffffffffffffffff82169050919050565b60006118e0826118b5565b9050919050565b6118f0816118d5565b81146118fb57600080fd5b50565b60008135905061190d816118e7565b92915050565b6000819050919050565b61192681611913565b811461193157600080fd5b50565b6000813590506119438161191d565b92915050565b600080604083850312156119605761195f611743565b5b600061196e858286016118fe565b925050602061197f85828601611934565b9150509250929050565b61199281611913565b82525050565b60006020820190506119ad6000830184611989565b92915050565b6000806000606084860312156119cc576119cb611743565b5b60006119da868287016118fe565b93505060206119eb868287016118fe565b92505060406119fc86828701611934565b9150509250925092565b6000819050919050565b611a1981611a06565b8114611a2457600080fd5b50565b600081359050611a3681611a10565b92915050565b600060208284031215611a5257611a51611743565b5b6000611a6084828501611a27565b91505092915050565b611a7281611a06565b82525050565b6000602082019050611a8d6000830184611a69565b92915050565b600060208284031215611aa957611aa8611743565b5b6000611ab7848285016118fe565b91505092915050565b60008060408385031215611ad757611ad6611743565b5b6000611ae585828601611a27565b9250506020611af6858286016118fe565b9150509250929050565b60008060408385031215611b1757611b16611743565b5b6000611b25858286016118fe565b9250506020611b36858286016118fe565b9150509250929050565b611b49816118d5565b82525050565b6000602082019050611b646000830184611b40565b92915050565b60008060408385031215611b8157611b80611743565b5b6000611b8f85828601611934565b9250506020611ba0858286016118fe565b9150509250929050565b7f4e487b7100000000000000000000000000000000000000000000000000000000600052602260045260246000fd5b60006002820490506001821680611bf157607f821691505b602082108103611c0457611c03611baa565b5b50919050565b7f416c6c6f77616e636520746f6f206c6f77000000000000000000000000000000600082015250565b6000611c4060118361180e565b9150611c4b82611c0a565b602082019050919050565b60006020820190508181036000830152611c6f81611c33565b9050919050565b7f4e487b7100000000000000000000000000000000000000000000000000000000600052601160045260246000fd5b6000611cb082611913565b9150611cbb83611913565b9250828203905081811115611cd357611cd2611c76565b5b92915050565b6000611ce482611913565b9150611cef83611913565b9250828201905080821115611d0757611d06611c76565b5b92915050565b7f596f75206861766520746f6f206c6f7720616d6f756e74206f6620746f6b656e60008201527f7300000000000000000000000000000000000000000000000000000000000000602082015250565b6000611d6960218361180e565b9150611d7482611d0d565b604082019050919050565b60006020820190508181036000830152611d9881611d5c565b9050919050565b6000604082019050611db46000830185611b40565b611dc16020830184611a69565b939250505056fea2646970667358221220e25b0fd43c212df5864cbf32d8fd1e0430c0adde9fa6b01f96c132b35e2fb24d64736f6c634300081d0033",
  "linkReferences": {},
  "deployedLinkReferences": {}
}