{
  "_format": "hh-sol-artifact-1",
  "contractName": "ERC20Base",
  "sourceName": "contracts/ERC20Base.sol",
  "abi": [
    {
      "inputs": [
        {
          "internalType": "string",
          "name": "name_",
          "type": "string"
        },
        {
          "internalType": "string",
          "name": "symbol_",
          "type": "string"
        },
        {
          "internalType": "uint256",
          "name": "initialSupply",
          "type": "uint256"
        },
        {
          "internalType": "address",
          "name": "exchanger",
          "type": "address"
        }
      ],
      "stateMutability": "nonpayable",
      "type": "constructor"
    },
    {
      "anonymous": false,
      "inputs": [
        {
          "indexed": true,
          "internalType": "address",
          "name": "owner",
          "type": "address"
        },
        {
          "indexed": true,
          "internalType": "address",
          "name": "spender",
          "type": "address"
        },
        {
          "indexed": false,
          "internalType": "uint256",
          "name": "amount",
          "type": "uint256"
        }
      ],
      "name": "Approval",
      "type": "event"
    },
    {
      "anonymous": false,
      "inputs": [
        {
          "indexed": true,
          "internalType": "address",
          "name": "from",
          "type": "address"
        },
        {
          "indexed": true,
          "internalType": "address",
          "name": "to",
          "type": "address"
        },
        {
          "indexed": false,
          "internalType": "uint256",
          "name": "amount",
          "type": "uint256"
        }
      ],
      "name": "Transfer",
      "type": "event"
    },
    {
      "inputs": [
        {
          "internalType": "address",
          "name": "_owner",
          "type": "address"
        },
        {
          "internalType": "address",
          "name": "spender",
          "type": "address"
        }
      ],
      "name": "allowance",
      "outputs": [
        {
          "internalType": "uint256",
          "name": "",
          "type": "uint256"
        }
      ],
      "stateMutability": "view",
      "type": "function"
    },
    {
      "inputs": [
        {
          "internalType": "address",
          "name": "",
          "type": "address"
        },
        {
          "internalType": "address",
          "name": "",
          "type": "address"
        }
      ],
      "name": "allowances",
      "outputs": [
        {
          "internalType": "uint256",
          "name": "",
          "type": "uint256"
        }
      ],
      "stateMutability": "view",
      "type": "function"
    },
    {
      "inputs": [
        {
          "internalType": "address",
          "name": "spender",
          "type": "address"
        },
        {
          "internalType": "uint256",
          "name": "amount",
          "type": "uint256"
        }
      ],
      "name": "approve",
      "outputs": [
        {
          "internalType": "bool",
          "name": "",
          "type": "bool"
        }
      ],
      "stateMutability": "nonpayable",
      "type": "function"
    },
    {
      "inputs": [
        {
          "internalType": "address",
          "name": "account",
          "type": "address"
        }
      ],
      "name": "balanceOf",
      "outputs": [
        {
          "internalType": "uint256",
          "name": "",
          "type": "uint256"
        }
      ],
      "stateMutability": "view",
      "type": "function"
    },
    {
      "inputs": [
        {
          "internalType": "address",
          "name": "",
          "type": "address"
        }
      ],
      "name": "balances",
      "outputs": [
        {
          "internalType": "uint256",
          "name": "",
          "type": "uint256"
        }
      ],
      "stateMutability": "view",
      "type": "function"
    },
    {
      "inputs": [],
      "name": "decimals",
      "outputs": [
        {
          "internalType": "uint256",
          "name": "",
          "type": "uint256"
        }
      ],
      "stateMutability": "pure",
      "type": "function"
    },
    {
      "inputs": [
        {
          "internalType": "uint256",
          "name": "amount",
          "type": "uint256"
        },
        {
          "internalType": "address",
          "name": "to",
          "type": "address"
        }
      ],
      "name": "mint",
      "outputs": [],
      "stateMutability": "nonpayable",
      "type": "function"
    },
    {
      "inputs": [],
      "name": "name",
      "outputs": [
        {
          "internalType": "string",
          "name": "",
          "type": "string"
        }
      ],
      "stateMutability": "view",
      "type": "function"
    },
    {
      "inputs": [],
      "name": "owner",
      "outputs": [
        {
          "internalType": "address",
          "name": "",
          "type": "address"
        }
      ],
      "stateMutability": "view",
      "type": "function"
    },
    {
      "inputs": [],
      "name": "symbol",
      "outputs": [
        {
          "internalType": "string",
          "name": "",
          "type": "string"
        }
      ],
      "stateMutability": "view",
      "type": "function"
    },
    {
      "inputs": [],
      "name": "totalSupply",
      "outputs": [
        {
          "internalType": "uint256",
          "name": "",
          "type": "uint256"
        }
      ],
      "stateMutability": "view",
      "type": "function"
    },
    {
      "inputs": [],
      "name": "totalTokens",
      "outputs": [
        {
          "internalType": "uint256",
          "name": "",
          "type": "uint256"
        }
      ],
      "stateMutability": "view",
      "type": "function"
    },
    {
      "inputs": [
        {
          "internalType": "address",
          "name": "to",
          "type": "address"
        },
        {
          "internalType": "uint256",
          "name": "amount",
          "type": "uint256"
        }
      ],
      "name": "transfer",
      "outputs": [
        {
          "internalType": "bool",
          "name": "",
          "type": "bool"
        }
      ],
      "stateMutability": "nonpayable",
      "type": "function"
    },
    {
      "inputs": [
        {
          "internalType": "address",
          "name": "sender",
          "type": "address"
        },
        {
          "internalType": "address",
          "name": "recipient",
          "type": "address"
        },
        {
          "internalType": "uint256",
          "name": "amount",
          "type": "uint256"
        }
      ],
      "name": "transferFrom",
      "outputs": [
        {
          "internalType": "bool",
          "name": "",
          "type": "bool"
        }
      ],
      "stateMutability": "nonpayable",
      "type": "function"
    }
  ],
  "bytecode": "0x608060405234801561001057600080fd5b50604051611945380380611945833981810160405281019061003291906103a4565b8360049081610041919061065a565b508260059081610051919061065a565b50336000806101000a81548173ffffffffffffffffffffffffffffffffffffffff021916908373ffffffffffffffffffffffffffffffffffffffff1602179055506100a282826100ab60201b60201c565b505050506107b9565b6100bd6000828461019660201b60201c565b81600160008282546100cf919061075b565b9250508190555081600260008373ffffffffffffffffffffffffffffffffffffffff1673ffffffffffffffffffffffffffffffffffffffff1681526020019081526020016000206000828254610125919061075b565b925050819055508073ffffffffffffffffffffffffffffffffffffffff16600073ffffffffffffffffffffffffffffffffffffffff167fddf252ad1be2c89b69c2b068fc378daa952ba7f163c4a11628f55a4df523b3ef8460405161018a919061079e565b60405180910390a35050565b505050565b6000604051905090565b600080fd5b600080fd5b600080fd5b600080fd5b6000601f19601f8301169050919050565b7f4e487b7100000000000000000000000000000000000000000000000000000000600052604160045260246000fd5b610202826101b9565b810181811067ffffffffffffffff82111715610221576102206101ca565b5b80604052505050565b600061023461019b565b905061024082826101f9565b919050565b600067ffffffffffffffff8211156102605761025f6101ca565b5b610269826101b9565b9050602081019050919050565b60005b83811015610294578082015181840152602081019050610279565b60008484015250505050565b60006102b36102ae84610245565b61022a565b9050828152602081018484840111156102cf576102ce6101b4565b5b6102da848285610276565b509392505050565b600082601f8301126102f7576102f66101af565b5b81516103078482602086016102a0565b91505092915050565b6000819050919050565b61032381610310565b811461032e57600080fd5b50565b6000815190506103408161031a565b92915050565b600073ffffffffffffffffffffffffffffffffffffffff82169050919050565b600061037182610346565b9050919050565b61038181610366565b811461038c57600080fd5b50565b60008151905061039e81610378565b92915050565b600080600080608085870312156103be576103bd6101a5565b5b600085015167ffffffffffffffff8111156103dc576103db6101aa565b5b6103e8878288016102e2565b945050602085015167ffffffffffffffff811115610409576104086101aa565b5b610415878288016102e2565b935050604061042687828801610331565b92505060606104378782880161038f565b91505092959194509250565b600081519050919050565b7f4e487b7100000000000000000000000000000000000000000000000000000000600052602260045260246000fd5b6000600282049050600182168061049557607f821691505b6020821081036104a8576104a761044e565b5b50919050565b60008190508160005260206000209050919050565b60006020601f8301049050919050565b600082821b905092915050565b6000600883026105107fffffffffffffffffffffffffffffffffffffffffffffffffffffffffffffffff826104d3565b61051a86836104d3565b95508019841693508086168417925050509392505050565b6000819050919050565b600061055761055261054d84610310565b610532565b610310565b9050919050565b6000819050919050565b6105718361053c565b61058561057d8261055e565b8484546104e0565b825550505050565b600090565b61059a61058d565b6105a5818484610568565b505050565b5b818110156105c9576105be600082610592565b6001810190506105ab565b5050565b601f82111561060e576105df816104ae565b6105e8846104c3565b810160208510156105f7578190505b61060b610603856104c3565b8301826105aa565b50505b505050565b600082821c905092915050565b600061063160001984600802610613565b1980831691505092915050565b600061064a8383610620565b9150826002028217905092915050565b61066382610443565b67ffffffffffffffff81111561067c5761067b6101ca565b5b610686825461047d565b6106918282856105cd565b600060209050601f8311600181146106c457600084156106b2578287015190505b6106bc858261063e565b865550610724565b601f1984166106d2866104ae565b60005b828110156106fa578489015182556001820191506020850194506020810190506106d5565b868310156107175784890151610713601f891682610620565b8355505b6001600288020188555050505b505050505050565b7f4e487b7100000000000000000000000000000000000000000000000000000000600052601160045260246000fd5b600061076682610310565b915061077183610310565b92508282019050808211156107895761078861072c565b5b92915050565b61079881610310565b82525050565b60006020820190506107b3600083018461078f565b92915050565b61117d806107c86000396000f3fe608060405234801561001057600080fd5b50600436106100ea5760003560e01c806370a082311161008c57806394bf804d1161006657806394bf804d1461027557806395d89b4114610291578063a9059cbb146102af578063dd62ed3e146102df576100ea565b806370a08231146102095780637e1c0c09146102395780638da5cb5b14610257576100ea565b806323b872dd116100c857806323b872dd1461015b57806327e235e31461018b578063313ce567146101bb57806355b6ed5c146101d9576100ea565b806306fdde03146100ef578063095ea7b31461010d57806318160ddd1461013d575b600080fd5b6100f761030f565b6040516101049190610c87565b60405180910390f35b61012760048036038101906101229190610d42565b6103a1565b6040516101349190610d9d565b60405180910390f35b6101456103b8565b6040516101529190610dc7565b60405180910390f35b61017560048036038101906101709190610de2565b6103c2565b6040516101829190610d9d565b60405180910390f35b6101a560048036038101906101a09190610e35565b61063d565b6040516101b29190610dc7565b60405180910390f35b6101c3610655565b6040516101d09190610dc7565b60405180910390f35b6101f360048036038101906101ee9190610e62565b61065e565b6040516102009190610dc7565b60405180910390f35b610223600480360381019061021e9190610e35565b610683565b6040516102309190610dc7565b60405180910390f35b6102416106cc565b60405161024e9190610dc7565b60405180910390f35b61025f6106d2565b60405161026c9190610eb1565b60405180910390f35b61028f600480360381019061028a9190610ecc565b6106f6565b005b610299610792565b6040516102a69190610c87565b60405180910390f35b6102c960048036038101906102c49190610d42565b610824565b6040516102d69190610d9d565b60405180910390f35b6102f960048036038101906102f49190610e62565b61099b565b6040516103069190610dc7565b60405180910390f35b60606004805461031e90610f3b565b80601f016020809104026020016040519081016040528092919081815260200182805461034a90610f3b565b80156103975780601f1061036c57610100808354040283529160200191610397565b820191906000526020600020905b81548152906001019060200180831161037a57829003601f168201915b5050505050905090565b60006103ae338484610a22565b6001905092915050565b6000600154905090565b600081600360008673ffffffffffffffffffffffffffffffffffffffff1673ffffffffffffffffffffffffffffffffffffffff16815260200190815260200160002060003373ffffffffffffffffffffffffffffffffffffffff1673ffffffffffffffffffffffffffffffffffffffff168152602001908152602001600020541015610483576040517f08c379a000000000000000000000000000000000000000000000000000000000815260040161047a90610fb8565b60405180910390fd5b61048e848484610b0d565b81600360008673ffffffffffffffffffffffffffffffffffffffff1673ffffffffffffffffffffffffffffffffffffffff16815260200190815260200160002060003373ffffffffffffffffffffffffffffffffffffffff1673ffffffffffffffffffffffffffffffffffffffff168152602001908152602001600020600082825461051a9190611007565b9250508190555081600260008673ffffffffffffffffffffffffffffffffffffffff1673ffffffffffffffffffffffffffffffffffffffff16815260200190815260200160002060008282546105709190611007565b9250508190555081600260008573ffffffffffffffffffffffffffffffffffffffff1673ffffffffffffffffffffffffffffffffffffffff16815260200190815260200160002060008282546105c6919061103b565b925050819055508273ffffffffffffffffffffffffffffffffffffffff168473ffffffffffffffffffffffffffffffffffffffff167fddf252ad1be2c89b69c2b068fc378daa952ba7f163c4a11628f55a4df523b3ef8460405161062a9190610dc7565b60405180910390a3600190509392505050565b60026020528060005260406000206000915090505481565b60006012905090565b6003602052816000526040600020602052806000526040600020600091509150505481565b6000600260008373ffffffffffffffffffffffffffffffffffffffff1673ffffffffffffffffffffffffffffffffffffffff168152602001908152602001600020549050919050565b60015481565b60008054906101000a900473ffffffffffffffffffffffffffffffffffffffff1681565b3373ffffffffffffffffffffffffffffffffffffffff1660008054906101000a900473ffffffffffffffffffffffffffffffffffffffff1673ffffffffffffffffffffffffffffffffffffffff1614610784576040517f08c379a000000000000000000000000000000000000000000000000000000000815260040161077b906110bb565b60405180910390fd5b61078e8282610b12565b5050565b6060600580546107a190610f3b565b80601f01602080910402602001604051908101604052809291908181526020018280546107cd90610f3b565b801561081a5780601f106107ef5761010080835404028352916020019161081a565b820191906000526020600020905b8154815290600101906020018083116107fd57829003601f168201915b5050505050905090565b600033828061083283610683565b1015610873576040517f08c379a000000000000000000000000000000000000000000000000000000000815260040161086a90611127565b60405180910390fd5b61087e338686610b0d565b83600260003373ffffffffffffffffffffffffffffffffffffffff1673ffffffffffffffffffffffffffffffffffffffff16815260200190815260200160002060008282546108cd9190611007565b9250508190555083600260008773ffffffffffffffffffffffffffffffffffffffff1673ffffffffffffffffffffffffffffffffffffffff1681526020019081526020016000206000828254610923919061103b565b925050819055508473ffffffffffffffffffffffffffffffffffffffff163373ffffffffffffffffffffffffffffffffffffffff167fddf252ad1be2c89b69c2b068fc378daa952ba7f163c4a11628f55a4df523b3ef866040516109879190610dc7565b60405180910390a360019250505092915050565b6000600360008473ffffffffffffffffffffffffffffffffffffffff1673ffffffffffffffffffffffffffffffffffffffff16815260200190815260200160002060008373ffffffffffffffffffffffffffffffffffffffff1673ffffffffffffffffffffffffffffffffffffffff16815260200190815260200160002054905092915050565b80600360008573ffffffffffffffffffffffffffffffffffffffff1673ffffffffffffffffffffffffffffffffffffffff16815260200190815260200160002060008473ffffffffffffffffffffffffffffffffffffffff1673ffffffffffffffffffffffffffffffffffffffff168152602001908152602001600020819055508173ffffffffffffffffffffffffffffffffffffffff168373ffffffffffffffffffffffffffffffffffffffff167f8c5be1e5ebec7d5bd14f71427d1e84f3dd0314c0f7b2291e5b200ac8c7c3b92583604051610b009190610dc7565b60405180910390a3505050565b505050565b610b1e60008284610b0d565b8160016000828254610b30919061103b565b9250508190555081600260008373ffffffffffffffffffffffffffffffffffffffff1673ffffffffffffffffffffffffffffffffffffffff1681526020019081526020016000206000828254610b86919061103b565b925050819055508073ffffffffffffffffffffffffffffffffffffffff16600073ffffffffffffffffffffffffffffffffffffffff167fddf252ad1be2c89b69c2b068fc378daa952ba7f163c4a11628f55a4df523b3ef84604051610beb9190610dc7565b60405180910390a35050565b600081519050919050565b600082825260208201905092915050565b60005b83811015610c31578082015181840152602081019050610c16565b60008484015250505050565b6000601f19601f8301169050919050565b6000610c5982610bf7565b610c638185610c02565b9350610c73818560208601610c13565b610c7c81610c3d565b840191505092915050565b60006020820190508181036000830152610ca18184610c4e565b905092915050565b600080fd5b600073ffffffffffffffffffffffffffffffffffffffff82169050919050565b6000610cd982610cae565b9050919050565b610ce981610cce565b8114610cf457600080fd5b50565b600081359050610d0681610ce0565b92915050565b6000819050919050565b610d1f81610d0c565b8114610d2a57600080fd5b50565b600081359050610d3c81610d16565b92915050565b60008060408385031215610d5957610d58610ca9565b5b6000610d6785828601610cf7565b9250506020610d7885828601610d2d565b9150509250929050565b60008115159050919050565b610d9781610d82565b82525050565b6000602082019050610db26000830184610d8e565b92915050565b610dc181610d0c565b82525050565b6000602082019050610ddc6000830184610db8565b92915050565b600080600060608486031215610dfb57610dfa610ca9565b5b6000610e0986828701610cf7565b9350506020610e1a86828701610cf7565b9250506040610e2b86828701610d2d565b9150509250925092565b600060208284031215610e4b57610e4a610ca9565b5b6000610e5984828501610cf7565b91505092915050565b60008060408385031215610e7957610e78610ca9565b5b6000610e8785828601610cf7565b9250506020610e9885828601610cf7565b9150509250929050565b610eab81610cce565b82525050565b6000602082019050610ec66000830184610ea2565b92915050565b60008060408385031215610ee357610ee2610ca9565b5b6000610ef185828601610d2d565b9250506020610f0285828601610cf7565b9150509250929050565b7f4e487b7100000000000000000000000000000000000000000000000000000000600052602260045260246000fd5b60006002820490506001821680610f5357607f821691505b602082108103610f6657610f65610f0c565b5b50919050565b7f416c6c6f77616e636520746f6f206c6f77000000000000000000000000000000600082015250565b6000610fa2601183610c02565b9150610fad82610f6c565b602082019050919050565b60006020820190508181036000830152610fd181610f95565b9050919050565b7f4e487b7100000000000000000000000000000000000000000000000000000000600052601160045260246000fd5b600061101282610d0c565b915061101d83610d0c565b925082820390508181111561103557611034610fd8565b5b92915050565b600061104682610d0c565b915061105183610d0c565b925082820190508082111561106957611068610fd8565b5b92915050565b7f4e6f7420616e206f776e64657221000000000000000000000000000000000000600082015250565b60006110a5600e83610c02565b91506110b08261106f565b602082019050919050565b600060208201905081810360008301526110d481611098565b9050919050565b7f4e6f7420656e6f75676820746f6b656e73210000000000000000000000000000600082015250565b6000611111601283610c02565b915061111c826110db565b602082019050919050565b6000602082019050818103600083015261114081611104565b905091905056fea2646970667358221220d9661f5c51b60fe727c5d873beaabbf54c1eb1275247bc12ed3611b080e4c9fd64736f6c634300081d0033",
  "linkReferences": {},
  "deployedLinkReferences": {}
}