{
  "_format": "hh-sol-artifact-1",
  "contractName": "BToken",
  "sourceName": "contracts/BToken.sol",
  "abi": [
    {
      "inputs": [
        {
          "internalType": "address",
          "name": "_initialMinterAndAdmin",
          "type": "address"
        },
        {
          "internalType": "uint256",
          "name": "_tokenPrice",
          "type": "uint256"
        }
      ],
      "stateMutability": "nonpayable",
      "type": "constructor"
    },
    {
      "inputs": [],
      "name": "AccessControlBadConfirmation",
      "type": "error"
    },
    {
      "inputs": [
        {
          "internalType": "address",
          "name": "account",
          "type": "address"
        },
        {
          "internalType": "bytes32",
          "name": "neededRole",
          "type": "bytes32"
        }
      ],
      "name": "AccessControlUnauthorizedAccount",
      "type": "error"
    },
    {
      "anonymous": false,
      "inputs": [
        {
          "indexed": true,
          "internalType": "address",
          "name": "owner",
          "type": "address"
        },
        {
          "indexed": true,
          "internalType": "address",
          "name": "spender",
          "type": "address"
        },
        {
          "indexed": false,
          "internalType": "uint256",
          "name": "amount",
          "type": "uint256"
        }
      ],
      "name": "Approval",
      "type": "event"
    },
    {
      "anonymous": false,
      "inputs": [
        {
          "indexed": false,
          "internalType": "address",
          "name": "sender",
          "type": "address"
        },
        {
          "indexed": false,
          "internalType": "uint256",
          "name": "amount",
          "type": "uint256"
        }
      ],
      "name": "Received",
      "type": "event"
    },
    {
      "anonymous": false,
      "inputs": [
        {
          "indexed": true,
          "internalType": "bytes32",
          "name": "role",
          "type": "bytes32"
        },
        {
          "indexed": true,
          "internalType": "bytes32",
          "name": "previousAdminRole",
          "type": "bytes32"
        },
        {
          "indexed": true,
          "internalType": "bytes32",
          "name": "newAdminRole",
          "type": "bytes32"
        }
      ],
      "name": "RoleAdminChanged",
      "type": "event"
    },
    {
      "anonymous": false,
      "inputs": [
        {
          "indexed": true,
          "internalType": "bytes32",
          "name": "role",
          "type": "bytes32"
        },
        {
          "indexed": true,
          "internalType": "address",
          "name": "account",
          "type": "address"
        },
        {
          "indexed": true,
          "internalType": "address",
          "name": "sender",
          "type": "address"
        }
      ],
      "name": "RoleGranted",
      "type": "event"
    },
    {
      "anonymous": false,
      "inputs": [
        {
          "indexed": true,
          "internalType": "bytes32",
          "name": "role",
          "type": "bytes32"
        },
        {
          "indexed": true,
          "internalType": "address",
          "name": "account",
          "type": "address"
        },
        {
          "indexed": true,
          "internalType": "address",
          "name": "sender",
          "type": "address"
        }
      ],
      "name": "RoleRevoked",
      "type": "event"
    },
    {
      "anonymous": false,
      "inputs": [
        {
          "indexed": true,
          "internalType": "address",
          "name": "from",
          "type": "address"
        },
        {
          "indexed": true,
          "internalType": "address",
          "name": "to",
          "type": "address"
        },
        {
          "indexed": false,
          "internalType": "uint256",
          "name": "amount",
          "type": "uint256"
        }
      ],
      "name": "Transfer",
      "type": "event"
    },
    {
      "inputs": [],
      "name": "DEFAULT_ADMIN_ROLE",
      "outputs": [
        {
          "internalType": "bytes32",
          "name": "",
          "type": "bytes32"
        }
      ],
      "stateMutability": "view",
      "type": "function"
    },
    {
      "inputs": [],
      "name": "MINTER_ROLE",
      "outputs": [
        {
          "internalType": "bytes32",
          "name": "",
          "type": "bytes32"
        }
      ],
      "stateMutability": "view",
      "type": "function"
    },
    {
      "inputs": [
        {
          "internalType": "address",
          "name": "_owner",
          "type": "address"
        },
        {
          "internalType": "address",
          "name": "spender",
          "type": "address"
        }
      ],
      "name": "allowance",
      "outputs": [
        {
          "internalType": "uint256",
          "name": "",
          "type": "uint256"
        }
      ],
      "stateMutability": "view",
      "type": "function"
    },
    {
      "inputs": [
        {
          "internalType": "address",
          "name": "",
          "type": "address"
        },
        {
          "internalType": "address",
          "name": "",
          "type": "address"
        }
      ],
      "name": "allowances",
      "outputs": [
        {
          "internalType": "uint256",
          "name": "",
          "type": "uint256"
        }
      ],
      "stateMutability": "view",
      "type": "function"
    },
    {
      "inputs": [
        {
          "internalType": "address",
          "name": "spender",
          "type": "address"
        },
        {
          "internalType": "uint256",
          "name": "amount",
          "type": "uint256"
        }
      ],
      "name": "approve",
      "outputs": [
        {
          "internalType": "bool",
          "name": "",
          "type": "bool"
        }
      ],
      "stateMutability": "nonpayable",
      "type": "function"
    },
    {
      "inputs": [
        {
          "internalType": "address",
          "name": "account",
          "type": "address"
        }
      ],
      "name": "balanceOf",
      "outputs": [
        {
          "internalType": "uint256",
          "name": "",
          "type": "uint256"
        }
      ],
      "stateMutability": "view",
      "type": "function"
    },
    {
      "inputs": [
        {
          "internalType": "address",
          "name": "",
          "type": "address"
        }
      ],
      "name": "balances",
      "outputs": [
        {
          "internalType": "uint256",
          "name": "",
          "type": "uint256"
        }
      ],
      "stateMutability": "view",
      "type": "function"
    },
    {
      "inputs": [
        {
          "internalType": "uint256",
          "name": "amount",
          "type": "uint256"
        }
      ],
      "name": "burn",
      "outputs": [],
      "stateMutability": "nonpayable",
      "type": "function"
    },
    {
      "inputs": [
        {
          "internalType": "uint256",
          "name": "numberOfTokens",
          "type": "uint256"
        }
      ],
      "name": "buyTokens",
      "outputs": [],
      "stateMutability": "payable",
      "type": "function"
    },
    {
      "inputs": [],
      "name": "decimals",
      "outputs": [
        {
          "internalType": "uint256",
          "name": "",
          "type": "uint256"
        }
      ],
      "stateMutability": "pure",
      "type": "function"
    },
    {
      "inputs": [
        {
          "internalType": "bytes32",
          "name": "role",
          "type": "bytes32"
        }
      ],
      "name": "getRoleAdmin",
      "outputs": [
        {
          "internalType": "bytes32",
          "name": "",
          "type": "bytes32"
        }
      ],
      "stateMutability": "view",
      "type": "function"
    },
    {
      "inputs": [
        {
          "internalType": "bytes32",
          "name": "role",
          "type": "bytes32"
        },
        {
          "internalType": "address",
          "name": "account",
          "type": "address"
        }
      ],
      "name": "grantRole",
      "outputs": [],
      "stateMutability": "nonpayable",
      "type": "function"
    },
    {
      "inputs": [
        {
          "internalType": "bytes32",
          "name": "role",
          "type": "bytes32"
        },
        {
          "internalType": "address",
          "name": "account",
          "type": "address"
        }
      ],
      "name": "hasRole",
      "outputs": [
        {
          "internalType": "bool",
          "name": "",
          "type": "bool"
        }
      ],
      "stateMutability": "view",
      "type": "function"
    },
    {
      "inputs": [
        {
          "internalType": "uint256",
          "name": "amount",
          "type": "uint256"
        },
        {
          "internalType": "address",
          "name": "to",
          "type": "address"
        }
      ],
      "name": "mint",
      "outputs": [],
      "stateMutability": "nonpayable",
      "type": "function"
    },
    {
      "inputs": [],
      "name": "name",
      "outputs": [
        {
          "internalType": "string",
          "name": "",
          "type": "string"
        }
      ],
      "stateMutability": "view",
      "type": "function"
    },
    {
      "inputs": [],
      "name": "owner",
      "outputs": [
        {
          "internalType": "address",
          "name": "",
          "type": "address"
        }
      ],
      "stateMutability": "view",
      "type": "function"
    },
    {
      "inputs": [
        {
          "internalType": "bytes32",
          "name": "role",
          "type": "bytes32"
        },
        {
          "internalType": "address",
          "name": "callerConfirmation",
          "type": "address"
        }
      ],
      "name": "renounceRole",
      "outputs": [],
      "stateMutability": "nonpayable",
      "type": "function"
    },
    {
      "inputs": [
        {
          "internalType": "bytes32",
          "name": "role",
          "type": "bytes32"
        },
        {
          "internalType": "address",
          "name": "account",
          "type": "address"
        }
      ],
      "name": "revokeRole",
      "outputs": [],
      "stateMutability": "nonpayable",
      "type": "function"
    },
    {
      "inputs": [
        {
          "internalType": "address",
          "name": "_tokenSwapAddress",
          "type": "address"
        }
      ],
      "name": "setTokenSwapAddress",
      "outputs": [],
      "stateMutability": "nonpayable",
      "type": "function"
    },
    {
      "inputs": [
        {
          "internalType": "bytes4",
          "name": "interfaceId",
          "type": "bytes4"
        }
      ],
      "name": "supportsInterface",
      "outputs": [
        {
          "internalType": "bool",
          "name": "",
          "type": "bool"
        }
      ],
      "stateMutability": "view",
      "type": "function"
    },
    {
      "inputs": [],
      "name": "symbol",
      "outputs": [
        {
          "internalType": "string",
          "name": "",
          "type": "string"
        }
      ],
      "stateMutability": "view",
      "type": "function"
    },
    {
      "inputs": [],
      "name": "tokenPrice",
      "outputs": [
        {
          "internalType": "uint256",
          "name": "",
          "type": "uint256"
        }
      ],
      "stateMutability": "view",
      "type": "function"
    },
    {
      "inputs": [],
      "name": "tokenSwap",
      "outputs": [
        {
          "internalType": "address",
          "name": "",
          "type": "address"
        }
      ],
      "stateMutability": "view",
      "type": "function"
    },
    {
      "inputs": [],
      "name": "tokensSold",
      "outputs": [
        {
          "internalType": "uint256",
          "name": "",
          "type": "uint256"
        }
      ],
      "stateMutability": "view",
      "type": "function"
    },
    {
      "inputs": [],
      "name": "totalSupply",
      "outputs": [
        {
          "internalType": "uint256",
          "name": "",
          "type": "uint256"
        }
      ],
      "stateMutability": "view",
      "type": "function"
    },
    {
      "inputs": [],
      "name": "totalTokens",
      "outputs": [
        {
          "internalType": "uint256",
          "name": "",
          "type": "uint256"
        }
      ],
      "stateMutability": "view",
      "type": "function"
    },
    {
      "inputs": [
        {
          "internalType": "address",
          "name": "to",
          "type": "address"
        },
        {
          "internalType": "uint256",
          "name": "amount",
          "type": "uint256"
        }
      ],
      "name": "transfer",
      "outputs": [
        {
          "internalType": "bool",
          "name": "",
          "type": "bool"
        }
      ],
      "stateMutability": "nonpayable",
      "type": "function"
    },
    {
      "inputs": [
        {
          "internalType": "address",
          "name": "sender",
          "type": "address"
        },
        {
          "internalType": "address",
          "name": "recipient",
          "type": "address"
        },
        {
          "internalType": "uint256",
          "name": "amount",
          "type": "uint256"
        }
      ],
      "name": "transferFrom",
      "outputs": [
        {
          "internalType": "bool",
          "name": "",
          "type": "bool"
        }
      ],
      "stateMutability": "nonpayable",
      "type": "function"
    },
    {
      "inputs": [
        {
          "internalType": "uint256",
          "name": "amount",
          "type": "uint256"
        }
      ],
      "name": "withdrawETH",
      "outputs": [],
      "stateMutability": "nonpayable",
      "type": "function"
    },
    {
      "stateMutability": "payable",
      "type": "receive"
    }
  ],
  "bytecode": "0x608060405234801561001057600080fd5b5060405161404b38038061404b83398181016040528101906100329190610975565b6040518060400160405280600681526020017f42546f6b656e00000000000000000000000000000000000000000000000000008152506040518060400160405280600181526020017f42000000000000000000000000000000000000000000000000000000000000008152506000846100bb676b5420ff76a3644a60c01b61038360201b60201c565b6100d567532ac57a3a538aea60c01b61038360201b60201c565b83600590816100e49190610bfb565b506100ff67ce82acdffdd180e460c01b61038360201b60201c565b826006908161010e9190610bfb565b5061012967095b155cf6d9c19060c01b61038360201b60201c565b33600160006101000a81548173ffffffffffffffffffffffffffffffffffffffff021916908373ffffffffffffffffffffffffffffffffffffffff16021790555061018467c48a048845c04e0360c01b61038360201b60201c565b61019e67fce4add7a47cd1de60c01b61038360201b60201c565b6101b16000801b3361038660201b60201c565b506101cc675d77481302ee259460c01b61038360201b60201c565b6101e66798ecce922869863060c01b61038360201b60201c565b6102167f9f2df0fed2c77648de5860a4cc508cd0818c85b8b8a1ab4ceeef8d981c8956a63361038660201b60201c565b506102316792c70149599dcb6060c01b61038360201b60201c565b61024b6795d7b506648afe1560c01b61038360201b60201c565b61025b828261048360201b60201c565b50505050610279677109db89ef00808160c01b61062460201b60201c565b6102936703efa2ad3b1a73f060c01b61062460201b60201c565b806007819055506102b4670b59b11505dbf8af60c01b61062460201b60201c565b81600960006101000a81548173ffffffffffffffffffffffffffffffffffffffff021916908373ffffffffffffffffffffffffffffffffffffffff16021790555061030f67f78233f3889875e860c01b61062460201b60201c565b61032967c77b8c043e7dc56960c01b61062460201b60201c565b61037b7f9f2df0fed2c77648de5860a4cc508cd0818c85b8b8a1ab4ceeef8d981c8956a6600960009054906101000a900473ffffffffffffffffffffffffffffffffffffffff1661038660201b60201c565b505050610e43565b50565b6000610398838361062760201b60201c565b61047857600160008085815260200190815260200160002060000160008473ffffffffffffffffffffffffffffffffffffffff1673ffffffffffffffffffffffffffffffffffffffff16815260200190815260200160002060006101000a81548160ff02191690831515021790555061041561069160201b60201c565b73ffffffffffffffffffffffffffffffffffffffff168273ffffffffffffffffffffffffffffffffffffffff16847f2f8788117e7eff1d82e926ec794901d17c78024a50270940304540a733656f0d60405160405180910390a46001905061047d565b600090505b92915050565b61049d6722b8b7c30427c68a60c01b61038360201b60201c565b6104b7670847c58224fcee5c60c01b61038360201b60201c565b6104d1672f1fbc009e1f483260c01b61038360201b60201c565b6104e36000828461069960201b60201c565b6104fd675a8a94001b57559a60c01b61038360201b60201c565b816002600082825461050f9190610cfc565b9250508190555061053067b449d6c2b7c71e2060c01b61038360201b60201c565b81600360008373ffffffffffffffffffffffffffffffffffffffff1673ffffffffffffffffffffffffffffffffffffffff168152602001908152602001600020600082825461057f9190610cfc565b925050819055506105a0670efe204c2570e34260c01b61038360201b60201c565b6105ba67240778decfadd69360c01b61038360201b60201c565b8073ffffffffffffffffffffffffffffffffffffffff16600073ffffffffffffffffffffffffffffffffffffffff167fddf252ad1be2c89b69c2b068fc378daa952ba7f163c4a11628f55a4df523b3ef846040516106189190610d3f565b60405180910390a35050565b50565b600080600084815260200190815260200160002060000160008373ffffffffffffffffffffffffffffffffffffffff1673ffffffffffffffffffffffffffffffffffffffff16815260200190815260200160002060009054906101000a900460ff16905092915050565b600033905090565b6106b367ad83de7a67dd907b60c01b61062460201b60201c565b6106cd6733fc43d590d554ea60c01b61062460201b60201c565b6106e7679e09b66cb2b091a860c01b61062460201b60201c565b600073ffffffffffffffffffffffffffffffffffffffff168373ffffffffffffffffffffffffffffffffffffffff16146107e5576107356703a467079bffc31960c01b61062460201b60201c565b61074f67d244a4ba10aecb7960c01b61062460201b60201c565b6107696793c5e70042c3b3f360c01b61062460201b60201c565b61078367d546dc262ce580cc60c01b61062460201b60201c565b600081116107c6576040517f08c379a00000000000000000000000000000000000000000000000000000000081526004016107bd90610db7565b60405180910390fd5b6107e067b5c8effdcf30e70f60c01b61062460201b60201c565b610800565b6107ff67bddf69a39199c58960c01b61062460201b60201c565b5b61081a679e3289400cceb88960c01b61062460201b60201c565b61083467fcbb57190131f83260c01b61062460201b60201c565b61084e67f51c78bdcca6f17260c01b61062460201b60201c565b600073ffffffffffffffffffffffffffffffffffffffff168273ffffffffffffffffffffffffffffffffffffffff16036108bd576040517f08c379a00000000000000000000000000000000000000000000000000000000081526004016108b490610e23565b60405180910390fd5b6108d767198c065ce12541d860c01b61062460201b60201c565b505050565b600080fd5b600073ffffffffffffffffffffffffffffffffffffffff82169050919050565b600061090c826108e1565b9050919050565b61091c81610901565b811461092757600080fd5b50565b60008151905061093981610913565b92915050565b6000819050919050565b6109528161093f565b811461095d57600080fd5b50565b60008151905061096f81610949565b92915050565b6000806040838503121561098c5761098b6108dc565b5b600061099a8582860161092a565b92505060206109ab85828601610960565b9150509250929050565b600081519050919050565b7f4e487b7100000000000000000000000000000000000000000000000000000000600052604160045260246000fd5b7f4e487b7100000000000000000000000000000000000000000000000000000000600052602260045260246000fd5b60006002820490506001821680610a3657607f821691505b602082108103610a4957610a486109ef565b5b50919050565b60008190508160005260206000209050919050565b60006020601f8301049050919050565b600082821b905092915050565b600060088302610ab17fffffffffffffffffffffffffffffffffffffffffffffffffffffffffffffffff82610a74565b610abb8683610a74565b95508019841693508086168417925050509392505050565b6000819050919050565b6000610af8610af3610aee8461093f565b610ad3565b61093f565b9050919050565b6000819050919050565b610b1283610add565b610b26610b1e82610aff565b848454610a81565b825550505050565b600090565b610b3b610b2e565b610b46818484610b09565b505050565b5b81811015610b6a57610b5f600082610b33565b600181019050610b4c565b5050565b601f821115610baf57610b8081610a4f565b610b8984610a64565b81016020851015610b98578190505b610bac610ba485610a64565b830182610b4b565b50505b505050565b600082821c905092915050565b6000610bd260001984600802610bb4565b1980831691505092915050565b6000610beb8383610bc1565b9150826002028217905092915050565b610c04826109b5565b67ffffffffffffffff811115610c1d57610c1c6109c0565b5b610c278254610a1e565b610c32828285610b6e565b600060209050601f831160018114610c655760008415610c53578287015190505b610c5d8582610bdf565b865550610cc5565b601f198416610c7386610a4f565b60005b82811015610c9b57848901518255600182019150602085019450602081019050610c76565b86831015610cb85784890151610cb4601f891682610bc1565b8355505b6001600288020188555050505b505050505050565b7f4e487b7100000000000000000000000000000000000000000000000000000000600052601160045260246000fd5b6000610d078261093f565b9150610d128361093f565b9250828201905080821115610d2a57610d29610ccd565b5b92915050565b610d398161093f565b82525050565b6000602082019050610d546000830184610d30565b92915050565b600082825260208201905092915050565b7f6e6f7420656e6f75676820746f6b656e73000000000000000000000000000000600082015250565b6000610da1601183610d5a565b9150610dac82610d6b565b602082019050919050565b60006020820190508181036000830152610dd081610d94565b9050919050565b7f696e76616c696420616464726573730000000000000000000000000000000000600082015250565b6000610e0d600f83610d5a565b9150610e1882610dd7565b602082019050919050565b60006020820190508181036000830152610e3c81610e00565b9050919050565b6131f980610e526000396000f3fe6080604052600436106101c65760003560e01c806355b6ed5c116100f757806395d89b4111610095578063d539139311610064578063d5391393146106db578063d547741f14610706578063dd62ed3e1461072f578063f14210a61461076c5761021a565b806395d89b411461061d5780639653dee514610648578063a217fddf14610673578063a9059cbb1461069e5761021a565b80637ff9b596116100d15780637ff9b596146105615780638da5cb5b1461058c57806391d14854146105b757806394bf804d146105f45761021a565b806355b6ed5c146104bc57806370a08231146104f95780637e1c0c09146105365761021a565b80632f2ff15d116101645780633610724e1161013e5780633610724e1461042357806336568abe1461043f57806342966c6814610468578063518ab2a8146104915761021a565b80632f2ff15d146103a6578063313ce567146103cf57806336104cb1146103fa5761021a565b806318160ddd116101a057806318160ddd146102c457806323b872dd146102ef578063248a9ca31461032c57806327e235e3146103695761021a565b806301ffc9a71461021f57806306fdde031461025c578063095ea7b3146102875761021a565b3661021a576101df676838233c708403a960c01b610795565b7f88a5966d370b9919b20f3e2c13ff65706f196a4e32cc2c12bf57088f88525874333460405161021092919061264c565b60405180910390a1005b600080fd5b34801561022b57600080fd5b50610246600480360381019061024191906126d2565b610798565b604051610253919061271a565b60405180910390f35b34801561026857600080fd5b50610271610812565b60405161027e91906127c5565b60405180910390f35b34801561029357600080fd5b506102ae60048036038101906102a9919061283f565b6108e0565b6040516102bb919061271a565b60405180910390f35b3480156102d057600080fd5b506102d961095b565b6040516102e6919061287f565b60405180910390f35b3480156102fb57600080fd5b506103166004803603810190610311919061289a565b6109a0565b604051610323919061271a565b60405180910390f35b34801561033857600080fd5b50610353600480360381019061034e9190612923565b610d33565b604051610360919061295f565b60405180910390f35b34801561037557600080fd5b50610390600480360381019061038b919061297a565b610d52565b60405161039d919061287f565b60405180910390f35b3480156103b257600080fd5b506103cd60048036038101906103c891906129a7565b610d6a565b005b3480156103db57600080fd5b506103e4610d8c565b6040516103f1919061287f565b60405180910390f35b34801561040657600080fd5b50610421600480360381019061041c919061297a565b610dd1565b005b61043d600480360381019061043891906129e7565b610f32565b005b34801561044b57600080fd5b50610466600480360381019061046191906129a7565b6111a0565b005b34801561047457600080fd5b5061048f600480360381019061048a91906129e7565b61121b565b005b34801561049d57600080fd5b506104a6611264565b6040516104b3919061287f565b60405180910390f35b3480156104c857600080fd5b506104e360048036038101906104de9190612a14565b61126a565b6040516104f0919061287f565b60405180910390f35b34801561050557600080fd5b50610520600480360381019061051b919061297a565b61128f565b60405161052d919061287f565b60405180910390f35b34801561054257600080fd5b5061054b611314565b604051610558919061287f565b60405180910390f35b34801561056d57600080fd5b5061057661131a565b604051610583919061287f565b60405180910390f35b34801561059857600080fd5b506105a1611320565b6040516105ae9190612a54565b60405180910390f35b3480156105c357600080fd5b506105de60048036038101906105d991906129a7565b611346565b6040516105eb919061271a565b60405180910390f35b34801561060057600080fd5b5061061b60048036038101906106169190612a6f565b6113b0565b005b34801561062957600080fd5b5061063261144d565b60405161063f91906127c5565b60405180910390f35b34801561065457600080fd5b5061065d61151b565b60405161066a9190612a54565b60405180910390f35b34801561067f57600080fd5b50610688611541565b604051610695919061295f565b60405180910390f35b3480156106aa57600080fd5b506106c560048036038101906106c0919061283f565b611548565b6040516106d2919061271a565b60405180910390f35b3480156106e757600080fd5b506106f0611813565b6040516106fd919061295f565b60405180910390f35b34801561071257600080fd5b5061072d600480360381019061072891906129a7565b611837565b005b34801561073b57600080fd5b5061075660048036038101906107519190612a14565b611859565b604051610763919061287f565b60405180910390f35b34801561077857600080fd5b50610793600480360381019061078e91906129e7565b61191c565b005b50565b60007f7965db0b000000000000000000000000000000000000000000000000000000007bffffffffffffffffffffffffffffffffffffffffffffffffffffffff1916827bffffffffffffffffffffffffffffffffffffffffffffffffffffffff1916148061080b575061080a82611aa4565b5b9050919050565b606061082867a05bb122d9d2c7b960c01b611b0e565b61083c67e1011750af3a833060c01b611b0e565b61085067d43df1072bb8661160c01b611b0e565b6005805461085d90612ade565b80601f016020809104026020016040519081016040528092919081815260200182805461088990612ade565b80156108d65780601f106108ab576101008083540402835291602001916108d6565b820191906000526020600020905b8154815290600101906020018083116108b957829003601f168201915b5050505050905090565b60006108f667a305ccb493bf739660c01b611b0e565b61090a67c4f4dfeedaf1d63260c01b611b0e565b61091e67ed9dcc78ac313ec760c01b611b0e565b610929338484611b11565b61093d67a8fba518191363c560c01b611b0e565b61095167c7c4fc7fd49a8b9560c01b611b0e565b6001905092915050565b6000610970669077671fcafd6960c01b611b0e565b61098467f3ea140b4e17653f60c01b611b0e565b6109986767b0c3a7c958fcd460c01b611b0e565b600254905090565b60006109b6673d508fd4a72d0a6c60c01b611b0e565b6109ca673fab12e3d4f3acbf60c01b611b0e565b6109de67f74bde090b0df8b860c01b611b0e565b6109f2673ad24d2ef20178cf60c01b611b0e565b81600460008673ffffffffffffffffffffffffffffffffffffffff1673ffffffffffffffffffffffffffffffffffffffff16815260200190815260200160002060003373ffffffffffffffffffffffffffffffffffffffff1673ffffffffffffffffffffffffffffffffffffffff168152602001908152602001600020541015610ab1576040517f08c379a0000000000000000000000000000000000000000000000000000000008152600401610aa890612b5b565b60405180910390fd5b610ac5679271f925335bd6d560c01b611b0e565b610ad967fbd0b2cb35e254c160c01b611b0e565b610aed673a5dc271bc68ec5660c01b611b0e565b610af8848484611c4c565b610b0c676c07fe1d0ff2a7d160c01b611b0e565b81600460008673ffffffffffffffffffffffffffffffffffffffff1673ffffffffffffffffffffffffffffffffffffffff16815260200190815260200160002060003373ffffffffffffffffffffffffffffffffffffffff1673ffffffffffffffffffffffffffffffffffffffff1681526020019081526020016000206000828254610b989190612baa565b92505081905550610bb367749f5af00f7bd82460c01b611b0e565b81600360008673ffffffffffffffffffffffffffffffffffffffff1673ffffffffffffffffffffffffffffffffffffffff1681526020019081526020016000206000828254610c029190612baa565b92505081905550610c1d67e7e9deaeb0f9d19060c01b611b0e565b81600360008573ffffffffffffffffffffffffffffffffffffffff1673ffffffffffffffffffffffffffffffffffffffff1681526020019081526020016000206000828254610c6c9190612bde565b92505081905550610c876708c4a2eb2eeed7fd60c01b611b0e565b610c9b67f39e25129c485aef60c01b611b0e565b8273ffffffffffffffffffffffffffffffffffffffff168473ffffffffffffffffffffffffffffffffffffffff167fddf252ad1be2c89b69c2b068fc378daa952ba7f163c4a11628f55a4df523b3ef84604051610cf8919061287f565b60405180910390a3610d14672d7c712fc796569d60c01b611b0e565b610d2867bf7ae113320d77e260c01b611b0e565b600190509392505050565b6000806000838152602001908152602001600020600101549050919050565b60036020528060005260406000206000915090505481565b610d7382610d33565b610d7c81611e41565b610d868383611e55565b50505050565b6000610da2673fb88017a9a1e78960c01b611b0e565b610db667c5a7d0064792ee1f60c01b611b0e565b610dca67f9db599fc41e6d6e60c01b611b0e565b6012905090565b610de5671f8829bb98f0c3ca60c01b610795565b6000801b610df281611e41565b610e06673326e72ea458b9f160c01b610795565b610e1a67de7bcd60189292e360c01b610795565b610e2e6714e20a17b88a6eeb60c01b610795565b610e42678e3b8a30ba4fe1e660c01b610795565b610e5667c5f69861fec5624a60c01b610795565b600073ffffffffffffffffffffffffffffffffffffffff168273ffffffffffffffffffffffffffffffffffffffff1603610ec5576040517f08c379a0000000000000000000000000000000000000000000000000000000008152600401610ebc90612c5e565b60405180910390fd5b610ed967274c9d52b26a9f4f60c01b610795565b610eed67f55aaf885309dfa560c01b610795565b81600960006101000a81548173ffffffffffffffffffffffffffffffffffffffff021916908373ffffffffffffffffffffffffffffffffffffffff1602179055505050565b610f4667f72050c7c33037eb60c01b610795565b610f5a673f8d736f3319b8c060c01b610795565b610f6e67f87d1ff73328e9ca60c01b610795565b6000610f78610d8c565b600a610f849190612db1565b82610f8f9190612dfc565b9050610fa567c4e35bce3c4b5ccf60c01b610795565b610fb967ab7115d2cd80985760c01b610795565b610fcd6761e847e9e4657ef860c01b610795565b81600754610fdb9190612dfc565b341461101c576040517f08c379a000000000000000000000000000000000000000000000000000000000815260040161101390612e8a565b60405180910390fd5b611030670b193d8b81f1ca3160c01b610795565b61104467de0646674310dcf360c01b610795565b6110586795a457edba370fd160c01b610795565b61106c67739e5dc231c6bfff60c01b610795565b803073ffffffffffffffffffffffffffffffffffffffff166370a08231306040518263ffffffff1660e01b81526004016110a69190612a54565b602060405180830381865afa1580156110c3573d6000803e3d6000fd5b505050506040513d601f19601f820116820180604052508101906110e79190612ebf565b1015611128576040517f08c379a000000000000000000000000000000000000000000000000000000000815260040161111f90612f38565b60405180910390fd5b61113c67e8492b1a49ced78160c01b610795565b61115067ef30a4b6eedd2e4560c01b610795565b61116467d3f3e00bc283a51360c01b610795565b61116f303383611f46565b61118367044a689405476aa960c01b610795565b80600860008282546111959190612bde565b925050819055505050565b6111a86120f3565b73ffffffffffffffffffffffffffffffffffffffff168173ffffffffffffffffffffffffffffffffffffffff161461120c576040517f6697b23200000000000000000000000000000000000000000000000000000000815260040160405180910390fd5b61121682826120fb565b505050565b61122f675d822f95073c2f3a60c01b611b0e565b61124367d324e8f1040770ec60c01b611b0e565b61125767fc9e3c2b36ed39f060c01b611b0e565b61126133826121ed565b50565b60085481565b6004602052816000526040600020602052806000526040600020600091509150505481565b60006112a567dcf87b56d98bd0af60c01b611b0e565b6112b9673cd1b1882289cb2460c01b611b0e565b6112cd677637f504e950c2ac60c01b611b0e565b600360008373ffffffffffffffffffffffffffffffffffffffff1673ffffffffffffffffffffffffffffffffffffffff168152602001908152602001600020549050919050565b60025481565b60075481565b600160009054906101000a900473ffffffffffffffffffffffffffffffffffffffff1681565b600080600084815260200190815260200160002060000160008373ffffffffffffffffffffffffffffffffffffffff1673ffffffffffffffffffffffffffffffffffffffff16815260200190815260200160002060009054906101000a900460ff16905092915050565b6113c467f3d4b1a7cea2d17c60c01b611b0e565b7f9f2df0fed2c77648de5860a4cc508cd0818c85b8b8a1ab4ceeef8d981c8956a66113ee81611e41565b611402677db29ead327918c260c01b611b0e565b611416671d1885812e9f441360c01b611b0e565b61142a67455c15dbe0d472b160c01b611b0e565b61143e676f73bb57c404b26360c01b611b0e565b6114488383612430565b505050565b606061146367416512be65a24bb060c01b611b0e565b61147767728b032badea352160c01b611b0e565b61148b67049230eb3811d36e60c01b611b0e565b6006805461149890612ade565b80601f01602080910402602001604051908101604052809291908181526020018280546114c490612ade565b80156115115780601f106114e657610100808354040283529160200191611511565b820191906000526020600020905b8154815290600101906020018083116114f457829003601f168201915b5050505050905090565b600960009054906101000a900473ffffffffffffffffffffffffffffffffffffffff1681565b6000801b81565b600061155e67bca1436569a0587660c01b611b0e565b338261157467adef7acae8aadb1c60c01b611b0e565b611588675e14173d3f1a337960c01b611b0e565b61159c6724970d2d233abbbd60c01b611b0e565b6115b067489927f16f9c5ebc60c01b611b0e565b806115ba8361128f565b10156115fb576040517f08c379a00000000000000000000000000000000000000000000000000000000081526004016115f290612fca565b60405180910390fd5b61160f67f18d95916ab17b4e60c01b611b0e565b61162367426b600231e3c21160c01b611b0e565b611637677df4802f87b1f83a60c01b611b0e565b61164b67ae92cb35ecf7e0ca60c01b611b0e565b61165f67ff9f1837ed664eac60c01b611b0e565b61167367b560e715a103c15460c01b611b0e565b61167e338686611c4c565b61169267fe0e446f0e89907160c01b611b0e565b83600360003373ffffffffffffffffffffffffffffffffffffffff1673ffffffffffffffffffffffffffffffffffffffff16815260200190815260200160002060008282546116e19190612baa565b925050819055506116fc6710b9da6ececfc09760c01b611b0e565b83600360008773ffffffffffffffffffffffffffffffffffffffff1673ffffffffffffffffffffffffffffffffffffffff168152602001908152602001600020600082825461174b9190612bde565b92505081905550611766676fd0e9243100904d60c01b611b0e565b61177a6766511f1848c1253160c01b611b0e565b8473ffffffffffffffffffffffffffffffffffffffff163373ffffffffffffffffffffffffffffffffffffffff167fddf252ad1be2c89b69c2b068fc378daa952ba7f163c4a11628f55a4df523b3ef866040516117d7919061287f565b60405180910390a36117f3675e405516f978a71060c01b611b0e565b611807678c12e516d35cf28760c01b611b0e565b60019250505092915050565b7f9f2df0fed2c77648de5860a4cc508cd0818c85b8b8a1ab4ceeef8d981c8956a681565b61184082610d33565b61184981611e41565b61185383836120fb565b50505050565b600061186f6760255968d814a67760c01b611b0e565b6118836772fa8d09411de6fa60c01b611b0e565b6118976745de33cf9862fde660c01b611b0e565b600460008473ffffffffffffffffffffffffffffffffffffffff1673ffffffffffffffffffffffffffffffffffffffff16815260200190815260200160002060008373ffffffffffffffffffffffffffffffffffffffff1673ffffffffffffffffffffffffffffffffffffffff16815260200190815260200160002054905092915050565b61193067348dcdc5d437d3fd60c01b610795565b611944675dc96eff3d77089a60c01b610795565b61195867628c3bae960d123160c01b610795565b61196c671a811b97efabbc4b60c01b610795565b600960009054906101000a900473ffffffffffffffffffffffffffffffffffffffff1673ffffffffffffffffffffffffffffffffffffffff163373ffffffffffffffffffffffffffffffffffffffff16146119fc576040517f08c379a00000000000000000000000000000000000000000000000000000000081526004016119f390613036565b60405180910390fd5b611a1067ab1619576f6766d260c01b610795565b611a246732150b3c0d6467c960c01b610795565b611a3867ed995c08d4bf5b3f60c01b610795565b600960009054906101000a900473ffffffffffffffffffffffffffffffffffffffff1673ffffffffffffffffffffffffffffffffffffffff166108fc829081150290604051600060405180830381858888f19350505050158015611aa0573d6000803e3d6000fd5b5050565b60007f01ffc9a7000000000000000000000000000000000000000000000000000000007bffffffffffffffffffffffffffffffffffffffffffffffffffffffff1916827bffffffffffffffffffffffffffffffffffffffffffffffffffffffff1916149050919050565b50565b611b256770220d169a18952a60c01b611b0e565b611b3967a979bf5641704cae60c01b611b0e565b80600460008573ffffffffffffffffffffffffffffffffffffffff1673ffffffffffffffffffffffffffffffffffffffff16815260200190815260200160002060008473ffffffffffffffffffffffffffffffffffffffff1673ffffffffffffffffffffffffffffffffffffffff16815260200190815260200160002081905550611bce67269e78817fc1811960c01b611b0e565b611be267a93aaf8d746ba80260c01b611b0e565b8173ffffffffffffffffffffffffffffffffffffffff168373ffffffffffffffffffffffffffffffffffffffff167f8c5be1e5ebec7d5bd14f71427d1e84f3dd0314c0f7b2291e5b200ac8c7c3b92583604051611c3f919061287f565b60405180910390a3505050565b611c6067ad83de7a67dd907b60c01b610795565b611c746733fc43d590d554ea60c01b610795565b611c88679e09b66cb2b091a860c01b610795565b600073ffffffffffffffffffffffffffffffffffffffff168373ffffffffffffffffffffffffffffffffffffffff1614611d6857611cd06703a467079bffc31960c01b610795565b611ce467d244a4ba10aecb7960c01b610795565b611cf86793c5e70042c3b3f360c01b610795565b611d0c67d546dc262ce580cc60c01b610795565b60008111611d4f576040517f08c379a0000000000000000000000000000000000000000000000000000000008152600401611d46906130a2565b60405180910390fd5b611d6367b5c8effdcf30e70f60c01b610795565b611d7d565b611d7c67bddf69a39199c58960c01b610795565b5b611d91679e3289400cceb88960c01b610795565b611da567fcbb57190131f83260c01b610795565b611db967f51c78bdcca6f17260c01b610795565b600073ffffffffffffffffffffffffffffffffffffffff168273ffffffffffffffffffffffffffffffffffffffff1603611e28576040517f08c379a0000000000000000000000000000000000000000000000000000000008152600401611e1f9061310e565b60405180910390fd5b611e3c67198c065ce12541d860c01b610795565b505050565b611e5281611e4d6120f3565b6125a1565b50565b6000611e618383611346565b611f3b57600160008085815260200190815260200160002060000160008473ffffffffffffffffffffffffffffffffffffffff1673ffffffffffffffffffffffffffffffffffffffff16815260200190815260200160002060006101000a81548160ff021916908315150217905550611ed86120f3565b73ffffffffffffffffffffffffffffffffffffffff168273ffffffffffffffffffffffffffffffffffffffff16847f2f8788117e7eff1d82e926ec794901d17c78024a50270940304540a733656f0d60405160405180910390a460019050611f40565b600090505b92915050565b611f5a67fac498aee86bd17460c01b611b0e565b611f6e672689603fd7fa59b960c01b611b0e565b611f82674524c87b0e2d1f1d60c01b611b0e565b611f8d838383611c4c565b611fa1673acfa7704c3cf9fc60c01b611b0e565b80600360008573ffffffffffffffffffffffffffffffffffffffff1673ffffffffffffffffffffffffffffffffffffffff1681526020019081526020016000206000828254611ff09190612baa565b9250508190555061200b67d10bda7a056e6cc960c01b611b0e565b80600360008473ffffffffffffffffffffffffffffffffffffffff1673ffffffffffffffffffffffffffffffffffffffff168152602001908152602001600020600082825461205a9190612bde565b92505081905550612075672ab3c8d6da3baf2460c01b611b0e565b612089676e0687b2bfe58d6e60c01b611b0e565b8173ffffffffffffffffffffffffffffffffffffffff168373ffffffffffffffffffffffffffffffffffffffff167fddf252ad1be2c89b69c2b068fc378daa952ba7f163c4a11628f55a4df523b3ef836040516120e6919061287f565b60405180910390a3505050565b600033905090565b60006121078383611346565b156121e257600080600085815260200190815260200160002060000160008473ffffffffffffffffffffffffffffffffffffffff1673ffffffffffffffffffffffffffffffffffffffff16815260200190815260200160002060006101000a81548160ff02191690831515021790555061217f6120f3565b73ffffffffffffffffffffffffffffffffffffffff168273ffffffffffffffffffffffffffffffffffffffff16847ff6391f5c32d9c69d2a47ea670b442974b53935d1edc7fd64eb21e047a839171b60405160405180910390a4600190506121e7565b600090505b92915050565b61220167263f0bab53cedc9260c01b611b0e565b6122156760beb66d330b2f9f60c01b611b0e565b6122296766710ce464cfd5df60c01b611b0e565b61223582600083611c4c565b6122496798b2ef85e89789c160c01b611b0e565b61225d677ff92e56802abfad60c01b611b0e565b61227167492a85945c00d6ee60c01b611b0e565b80600360008473ffffffffffffffffffffffffffffffffffffffff1673ffffffffffffffffffffffffffffffffffffffff1681526020019081526020016000205410156122f3576040517f08c379a00000000000000000000000000000000000000000000000000000000081526004016122ea9061317a565b60405180910390fd5b6123076702f30127d048765660c01b611b0e565b61231b67d04cb70834b5dc7860c01b611b0e565b80600360008473ffffffffffffffffffffffffffffffffffffffff1673ffffffffffffffffffffffffffffffffffffffff168152602001908152602001600020600082825461236a9190612baa565b9250508190555061238567481ae834f3fb1ad160c01b611b0e565b80600260008282546123979190612baa565b925050819055506123b267fcfc9e3fdd33532160c01b611b0e565b6123c6675eb3d98d59e8d36c60c01b611b0e565b600073ffffffffffffffffffffffffffffffffffffffff168273ffffffffffffffffffffffffffffffffffffffff167fddf252ad1be2c89b69c2b068fc378daa952ba7f163c4a11628f55a4df523b3ef83604051612424919061287f565b60405180910390a35050565b6124446722b8b7c30427c68a60c01b611b0e565b612458670847c58224fcee5c60c01b611b0e565b61246c672f1fbc009e1f483260c01b611b0e565b61247860008284611c4c565b61248c675a8a94001b57559a60c01b611b0e565b816002600082825461249e9190612bde565b925050819055506124b967b449d6c2b7c71e2060c01b611b0e565b81600360008373ffffffffffffffffffffffffffffffffffffffff1673ffffffffffffffffffffffffffffffffffffffff16815260200190815260200160002060008282546125089190612bde565b92505081905550612523670efe204c2570e34260c01b611b0e565b61253767240778decfadd69360c01b611b0e565b8073ffffffffffffffffffffffffffffffffffffffff16600073ffffffffffffffffffffffffffffffffffffffff167fddf252ad1be2c89b69c2b068fc378daa952ba7f163c4a11628f55a4df523b3ef84604051612595919061287f565b60405180910390a35050565b6125ab8282611346565b6125ee5780826040517fe2517d3f0000000000000000000000000000000000000000000000000000000081526004016125e592919061319a565b60405180910390fd5b5050565b600073ffffffffffffffffffffffffffffffffffffffff82169050919050565b600061261d826125f2565b9050919050565b61262d81612612565b82525050565b6000819050919050565b61264681612633565b82525050565b60006040820190506126616000830185612624565b61266e602083018461263d565b9392505050565b600080fd5b60007fffffffff0000000000000000000000000000000000000000000000000000000082169050919050565b6126af8161267a565b81146126ba57600080fd5b50565b6000813590506126cc816126a6565b92915050565b6000602082840312156126e8576126e7612675565b5b60006126f6848285016126bd565b91505092915050565b60008115159050919050565b612714816126ff565b82525050565b600060208201905061272f600083018461270b565b92915050565b600081519050919050565b600082825260208201905092915050565b60005b8381101561276f578082015181840152602081019050612754565b60008484015250505050565b6000601f19601f8301169050919050565b600061279782612735565b6127a18185612740565b93506127b1818560208601612751565b6127ba8161277b565b840191505092915050565b600060208201905081810360008301526127df818461278c565b905092915050565b6127f081612612565b81146127fb57600080fd5b50565b60008135905061280d816127e7565b92915050565b61281c81612633565b811461282757600080fd5b50565b60008135905061283981612813565b92915050565b6000806040838503121561285657612855612675565b5b6000612864858286016127fe565b92505060206128758582860161282a565b9150509250929050565b6000602082019050612894600083018461263d565b92915050565b6000806000606084860312156128b3576128b2612675565b5b60006128c1868287016127fe565b93505060206128d2868287016127fe565b92505060406128e38682870161282a565b9150509250925092565b6000819050919050565b612900816128ed565b811461290b57600080fd5b50565b60008135905061291d816128f7565b92915050565b60006020828403121561293957612938612675565b5b60006129478482850161290e565b91505092915050565b612959816128ed565b82525050565b60006020820190506129746000830184612950565b92915050565b6000602082840312156129905761298f612675565b5b600061299e848285016127fe565b91505092915050565b600080604083850312156129be576129bd612675565b5b60006129cc8582860161290e565b92505060206129dd858286016127fe565b9150509250929050565b6000602082840312156129fd576129fc612675565b5b6000612a0b8482850161282a565b91505092915050565b60008060408385031215612a2b57612a2a612675565b5b6000612a39858286016127fe565b9250506020612a4a858286016127fe565b9150509250929050565b6000602082019050612a696000830184612624565b92915050565b60008060408385031215612a8657612a85612675565b5b6000612a948582860161282a565b9250506020612aa5858286016127fe565b9150509250929050565b7f4e487b7100000000000000000000000000000000000000000000000000000000600052602260045260246000fd5b60006002820490506001821680612af657607f821691505b602082108103612b0957612b08612aaf565b5b50919050565b7f416c6c6f77616e636520746f6f206c6f77000000000000000000000000000000600082015250565b6000612b45601183612740565b9150612b5082612b0f565b602082019050919050565b60006020820190508181036000830152612b7481612b38565b9050919050565b7f4e487b7100000000000000000000000000000000000000000000000000000000600052601160045260246000fd5b6000612bb582612633565b9150612bc083612633565b9250828203905081811115612bd857612bd7612b7b565b5b92915050565b6000612be982612633565b9150612bf483612633565b9250828201905080821115612c0c57612c0b612b7b565b5b92915050565b7f546f6b656e5377617020616464726573732063616e6e6f74206265207a65726f600082015250565b6000612c48602083612740565b9150612c5382612c12565b602082019050919050565b60006020820190508181036000830152612c7781612c3b565b9050919050565b60008160011c9050919050565b6000808291508390505b6001851115612cd557808604811115612cb157612cb0612b7b565b5b6001851615612cc05780820291505b8081029050612cce85612c7e565b9450612c95565b94509492505050565b600082612cee5760019050612daa565b81612cfc5760009050612daa565b8160018114612d125760028114612d1c57612d4b565b6001915050612daa565b60ff841115612d2e57612d2d612b7b565b5b8360020a915084821115612d4557612d44612b7b565b5b50612daa565b5060208310610133831016604e8410600b8410161715612d805782820a905083811115612d7b57612d7a612b7b565b5b612daa565b612d8d8484846001612c8b565b92509050818404811115612da457612da3612b7b565b5b81810290505b9392505050565b6000612dbc82612633565b9150612dc783612633565b9250612df47fffffffffffffffffffffffffffffffffffffffffffffffffffffffffffffffff8484612cde565b905092915050565b6000612e0782612633565b9150612e1283612633565b9250828202612e2081612633565b91508282048414831517612e3757612e36612b7b565b5b5092915050565b7f496e636f72726563742045544820616d6f756e742073656e7400000000000000600082015250565b6000612e74601983612740565b9150612e7f82612e3e565b602082019050919050565b60006020820190508181036000830152612ea381612e67565b9050919050565b600081519050612eb981612813565b92915050565b600060208284031215612ed557612ed4612675565b5b6000612ee384828501612eaa565b91505092915050565b7f4e6f7420656e6f75676820746f6b656e73000000000000000000000000000000600082015250565b6000612f22601183612740565b9150612f2d82612eec565b602082019050919050565b60006020820190508181036000830152612f5181612f15565b9050919050565b7f596f75206861766520746f6f206c6f7720616d6f756e74206f6620746f6b656e60008201527f7300000000000000000000000000000000000000000000000000000000000000602082015250565b6000612fb4602183612740565b9150612fbf82612f58565b604082019050919050565b60006020820190508181036000830152612fe381612fa7565b9050919050565b7f4f6e6c7920546f6b656e537761702063616e2077697468647261770000000000600082015250565b6000613020601b83612740565b915061302b82612fea565b602082019050919050565b6000602082019050818103600083015261304f81613013565b9050919050565b7f6e6f7420656e6f75676820746f6b656e73000000000000000000000000000000600082015250565b600061308c601183612740565b915061309782613056565b602082019050919050565b600060208201905081810360008301526130bb8161307f565b9050919050565b7f696e76616c696420616464726573730000000000000000000000000000000000600082015250565b60006130f8600f83612740565b9150613103826130c2565b602082019050919050565b60006020820190508181036000830152613127816130eb565b9050919050565b7f4e6f7420656e6f75676820746f6b656e7320746f206275726e00000000000000600082015250565b6000613164601983612740565b915061316f8261312e565b602082019050919050565b6000602082019050818103600083015261319381613157565b9050919050565b60006040820190506131af6000830185612624565b6131bc6020830184612950565b939250505056fea26469706673582212205eb52448f444d142243ca85bfc7a412d2f6bc7eabb1e958c95c251b93206f49c64736f6c634300081d0033",
  "linkReferences": {},
  "deployedLinkReferences": {}
}