{
  "_format": "hh-sol-artifact-1",
  "contractName": "BToken",
  "sourceName": "contracts/BToken.sol",
  "abi": [
    {
      "inputs": [
        {
          "internalType": "address",
          "name": "exchanger",
          "type": "address"
        },
        {
          "internalType": "uint256",
          "name": "_tokenPrice",
          "type": "uint256"
        }
      ],
      "stateMutability": "nonpayable",
      "type": "constructor"
    },
    {
      "inputs": [],
      "name": "AccessControlBadConfirmation",
      "type": "error"
    },
    {
      "inputs": [
        {
          "internalType": "address",
          "name": "account",
          "type": "address"
        },
        {
          "internalType": "bytes32",
          "name": "neededRole",
          "type": "bytes32"
        }
      ],
      "name": "AccessControlUnauthorizedAccount",
      "type": "error"
    },
    {
      "anonymous": false,
      "inputs": [
        {
          "indexed": true,
          "internalType": "address",
          "name": "owner",
          "type": "address"
        },
        {
          "indexed": true,
          "internalType": "address",
          "name": "spender",
          "type": "address"
        },
        {
          "indexed": false,
          "internalType": "uint256",
          "name": "amount",
          "type": "uint256"
        }
      ],
      "name": "Approval",
      "type": "event"
    },
    {
      "anonymous": false,
      "inputs": [
        {
          "indexed": false,
          "internalType": "address",
          "name": "sender",
          "type": "address"
        },
        {
          "indexed": false,
          "internalType": "uint256",
          "name": "amount",
          "type": "uint256"
        }
      ],
      "name": "Received",
      "type": "event"
    },
    {
      "anonymous": false,
      "inputs": [
        {
          "indexed": true,
          "internalType": "bytes32",
          "name": "role",
          "type": "bytes32"
        },
        {
          "indexed": true,
          "internalType": "bytes32",
          "name": "previousAdminRole",
          "type": "bytes32"
        },
        {
          "indexed": true,
          "internalType": "bytes32",
          "name": "newAdminRole",
          "type": "bytes32"
        }
      ],
      "name": "RoleAdminChanged",
      "type": "event"
    },
    {
      "anonymous": false,
      "inputs": [
        {
          "indexed": true,
          "internalType": "bytes32",
          "name": "role",
          "type": "bytes32"
        },
        {
          "indexed": true,
          "internalType": "address",
          "name": "account",
          "type": "address"
        },
        {
          "indexed": true,
          "internalType": "address",
          "name": "sender",
          "type": "address"
        }
      ],
      "name": "RoleGranted",
      "type": "event"
    },
    {
      "anonymous": false,
      "inputs": [
        {
          "indexed": true,
          "internalType": "bytes32",
          "name": "role",
          "type": "bytes32"
        },
        {
          "indexed": true,
          "internalType": "address",
          "name": "account",
          "type": "address"
        },
        {
          "indexed": true,
          "internalType": "address",
          "name": "sender",
          "type": "address"
        }
      ],
      "name": "RoleRevoked",
      "type": "event"
    },
    {
      "anonymous": false,
      "inputs": [
        {
          "indexed": true,
          "internalType": "address",
          "name": "from",
          "type": "address"
        },
        {
          "indexed": true,
          "internalType": "address",
          "name": "to",
          "type": "address"
        },
        {
          "indexed": false,
          "internalType": "uint256",
          "name": "amount",
          "type": "uint256"
        }
      ],
      "name": "Transfer",
      "type": "event"
    },
    {
      "inputs": [],
      "name": "DEFAULT_ADMIN_ROLE",
      "outputs": [
        {
          "internalType": "bytes32",
          "name": "",
          "type": "bytes32"
        }
      ],
      "stateMutability": "view",
      "type": "function"
    },
    {
      "inputs": [],
      "name": "MINTER_ROLE",
      "outputs": [
        {
          "internalType": "bytes32",
          "name": "",
          "type": "bytes32"
        }
      ],
      "stateMutability": "view",
      "type": "function"
    },
    {
      "inputs": [
        {
          "internalType": "address",
          "name": "_owner",
          "type": "address"
        },
        {
          "internalType": "address",
          "name": "spender",
          "type": "address"
        }
      ],
      "name": "allowance",
      "outputs": [
        {
          "internalType": "uint256",
          "name": "",
          "type": "uint256"
        }
      ],
      "stateMutability": "view",
      "type": "function"
    },
    {
      "inputs": [
        {
          "internalType": "address",
          "name": "",
          "type": "address"
        },
        {
          "internalType": "address",
          "name": "",
          "type": "address"
        }
      ],
      "name": "allowances",
      "outputs": [
        {
          "internalType": "uint256",
          "name": "",
          "type": "uint256"
        }
      ],
      "stateMutability": "view",
      "type": "function"
    },
    {
      "inputs": [
        {
          "internalType": "address",
          "name": "spender",
          "type": "address"
        },
        {
          "internalType": "uint256",
          "name": "amount",
          "type": "uint256"
        }
      ],
      "name": "approve",
      "outputs": [
        {
          "internalType": "bool",
          "name": "",
          "type": "bool"
        }
      ],
      "stateMutability": "nonpayable",
      "type": "function"
    },
    {
      "inputs": [
        {
          "internalType": "address",
          "name": "account",
          "type": "address"
        }
      ],
      "name": "balanceOf",
      "outputs": [
        {
          "internalType": "uint256",
          "name": "",
          "type": "uint256"
        }
      ],
      "stateMutability": "view",
      "type": "function"
    },
    {
      "inputs": [
        {
          "internalType": "address",
          "name": "",
          "type": "address"
        }
      ],
      "name": "balances",
      "outputs": [
        {
          "internalType": "uint256",
          "name": "",
          "type": "uint256"
        }
      ],
      "stateMutability": "view",
      "type": "function"
    },
    {
      "inputs": [
        {
          "internalType": "uint256",
          "name": "numberOfTokens",
          "type": "uint256"
        }
      ],
      "name": "buyTokens",
      "outputs": [],
      "stateMutability": "payable",
      "type": "function"
    },
    {
      "inputs": [],
      "name": "decimals",
      "outputs": [
        {
          "internalType": "uint256",
          "name": "",
          "type": "uint256"
        }
      ],
      "stateMutability": "pure",
      "type": "function"
    },
    {
      "inputs": [
        {
          "internalType": "bytes32",
          "name": "role",
          "type": "bytes32"
        }
      ],
      "name": "getRoleAdmin",
      "outputs": [
        {
          "internalType": "bytes32",
          "name": "",
          "type": "bytes32"
        }
      ],
      "stateMutability": "view",
      "type": "function"
    },
    {
      "inputs": [
        {
          "internalType": "bytes32",
          "name": "role",
          "type": "bytes32"
        },
        {
          "internalType": "address",
          "name": "account",
          "type": "address"
        }
      ],
      "name": "grantRole",
      "outputs": [],
      "stateMutability": "nonpayable",
      "type": "function"
    },
    {
      "inputs": [
        {
          "internalType": "bytes32",
          "name": "role",
          "type": "bytes32"
        },
        {
          "internalType": "address",
          "name": "account",
          "type": "address"
        }
      ],
      "name": "hasRole",
      "outputs": [
        {
          "internalType": "bool",
          "name": "",
          "type": "bool"
        }
      ],
      "stateMutability": "view",
      "type": "function"
    },
    {
      "inputs": [
        {
          "internalType": "uint256",
          "name": "amount",
          "type": "uint256"
        },
        {
          "internalType": "address",
          "name": "to",
          "type": "address"
        }
      ],
      "name": "mint",
      "outputs": [],
      "stateMutability": "nonpayable",
      "type": "function"
    },
    {
      "inputs": [],
      "name": "name",
      "outputs": [
        {
          "internalType": "string",
          "name": "",
          "type": "string"
        }
      ],
      "stateMutability": "view",
      "type": "function"
    },
    {
      "inputs": [],
      "name": "owner",
      "outputs": [
        {
          "internalType": "address",
          "name": "",
          "type": "address"
        }
      ],
      "stateMutability": "view",
      "type": "function"
    },
    {
      "inputs": [
        {
          "internalType": "bytes32",
          "name": "role",
          "type": "bytes32"
        },
        {
          "internalType": "address",
          "name": "callerConfirmation",
          "type": "address"
        }
      ],
      "name": "renounceRole",
      "outputs": [],
      "stateMutability": "nonpayable",
      "type": "function"
    },
    {
      "inputs": [
        {
          "internalType": "bytes32",
          "name": "role",
          "type": "bytes32"
        },
        {
          "internalType": "address",
          "name": "account",
          "type": "address"
        }
      ],
      "name": "revokeRole",
      "outputs": [],
      "stateMutability": "nonpayable",
      "type": "function"
    },
    {
      "inputs": [
        {
          "internalType": "bytes4",
          "name": "interfaceId",
          "type": "bytes4"
        }
      ],
      "name": "supportsInterface",
      "outputs": [
        {
          "internalType": "bool",
          "name": "",
          "type": "bool"
        }
      ],
      "stateMutability": "view",
      "type": "function"
    },
    {
      "inputs": [],
      "name": "symbol",
      "outputs": [
        {
          "internalType": "string",
          "name": "",
          "type": "string"
        }
      ],
      "stateMutability": "view",
      "type": "function"
    },
    {
      "inputs": [],
      "name": "tokenPrice",
      "outputs": [
        {
          "internalType": "uint256",
          "name": "",
          "type": "uint256"
        }
      ],
      "stateMutability": "view",
      "type": "function"
    },
    {
      "inputs": [],
      "name": "tokenSwap",
      "outputs": [
        {
          "internalType": "address",
          "name": "",
          "type": "address"
        }
      ],
      "stateMutability": "view",
      "type": "function"
    },
    {
      "inputs": [],
      "name": "tokensSold",
      "outputs": [
        {
          "internalType": "uint256",
          "name": "",
          "type": "uint256"
        }
      ],
      "stateMutability": "view",
      "type": "function"
    },
    {
      "inputs": [],
      "name": "totalSupply",
      "outputs": [
        {
          "internalType": "uint256",
          "name": "",
          "type": "uint256"
        }
      ],
      "stateMutability": "view",
      "type": "function"
    },
    {
      "inputs": [],
      "name": "totalTokens",
      "outputs": [
        {
          "internalType": "uint256",
          "name": "",
          "type": "uint256"
        }
      ],
      "stateMutability": "view",
      "type": "function"
    },
    {
      "inputs": [
        {
          "internalType": "address",
          "name": "to",
          "type": "address"
        },
        {
          "internalType": "uint256",
          "name": "amount",
          "type": "uint256"
        }
      ],
      "name": "transfer",
      "outputs": [
        {
          "internalType": "bool",
          "name": "",
          "type": "bool"
        }
      ],
      "stateMutability": "nonpayable",
      "type": "function"
    },
    {
      "inputs": [
        {
          "internalType": "address",
          "name": "sender",
          "type": "address"
        },
        {
          "internalType": "address",
          "name": "recipient",
          "type": "address"
        },
        {
          "internalType": "uint256",
          "name": "amount",
          "type": "uint256"
        }
      ],
      "name": "transferFrom",
      "outputs": [
        {
          "internalType": "bool",
          "name": "",
          "type": "bool"
        }
      ],
      "stateMutability": "nonpayable",
      "type": "function"
    },
    {
      "stateMutability": "payable",
      "type": "receive"
    }
  ],
  "bytecode": "0x608060405234801561001057600080fd5b50604051612c68380380612c68833981810160405281019061003291906105dc565b6040518060400160405280600681526020017f42546f6b656e00000000000000000000000000000000000000000000000000008152506040518060400160405280600181526020017f420000000000000000000000000000000000000000000000000000000000000081525060008483600590816100b09190610862565b5082600690816100c09190610862565b5033600160006101000a81548173ffffffffffffffffffffffffffffffffffffffff021916908373ffffffffffffffffffffffffffffffffffffffff1602179055506101156000801b336101fd60201b60201c565b506101467f9f2df0fed2c77648de5860a4cc508cd0818c85b8b8a1ab4ceeef8d981c8956a6336101fd60201b60201c565b5061015782826102fa60201b60201c565b505050508060078190555081600960006101000a81548173ffffffffffffffffffffffffffffffffffffffff021916908373ffffffffffffffffffffffffffffffffffffffff1602179055506101f57f9f2df0fed2c77648de5860a4cc508cd0818c85b8b8a1ab4ceeef8d981c8956a6600960009054906101000a900473ffffffffffffffffffffffffffffffffffffffff166101fd60201b60201c565b505050610aaa565b600061020f83836103e560201b60201c565b6102ef57600160008085815260200190815260200160002060000160008473ffffffffffffffffffffffffffffffffffffffff1673ffffffffffffffffffffffffffffffffffffffff16815260200190815260200160002060006101000a81548160ff02191690831515021790555061028c61044f60201b60201c565b73ffffffffffffffffffffffffffffffffffffffff168273ffffffffffffffffffffffffffffffffffffffff16847f2f8788117e7eff1d82e926ec794901d17c78024a50270940304540a733656f0d60405160405180910390a4600190506102f4565b600090505b92915050565b61030c6000828461045760201b60201c565b816002600082825461031e9190610963565b9250508190555081600360008373ffffffffffffffffffffffffffffffffffffffff1673ffffffffffffffffffffffffffffffffffffffff16815260200190815260200160002060008282546103749190610963565b925050819055508073ffffffffffffffffffffffffffffffffffffffff16600073ffffffffffffffffffffffffffffffffffffffff167fddf252ad1be2c89b69c2b068fc378daa952ba7f163c4a11628f55a4df523b3ef846040516103d991906109a6565b60405180910390a35050565b600080600084815260200190815260200160002060000160008373ffffffffffffffffffffffffffffffffffffffff1673ffffffffffffffffffffffffffffffffffffffff16815260200190815260200160002060009054906101000a900460ff16905092915050565b600033905090565b600073ffffffffffffffffffffffffffffffffffffffff168373ffffffffffffffffffffffffffffffffffffffff16146104cf57600081116104ce576040517f08c379a00000000000000000000000000000000000000000000000000000000081526004016104c590610a1e565b60405180910390fd5b5b600073ffffffffffffffffffffffffffffffffffffffff168273ffffffffffffffffffffffffffffffffffffffff160361053e576040517f08c379a000000000000000000000000000000000000000000000000000000000815260040161053590610a8a565b60405180910390fd5b505050565b600080fd5b600073ffffffffffffffffffffffffffffffffffffffff82169050919050565b600061057382610548565b9050919050565b61058381610568565b811461058e57600080fd5b50565b6000815190506105a08161057a565b92915050565b6000819050919050565b6105b9816105a6565b81146105c457600080fd5b50565b6000815190506105d6816105b0565b92915050565b600080604083850312156105f3576105f2610543565b5b600061060185828601610591565b9250506020610612858286016105c7565b9150509250929050565b600081519050919050565b7f4e487b7100000000000000000000000000000000000000000000000000000000600052604160045260246000fd5b7f4e487b7100000000000000000000000000000000000000000000000000000000600052602260045260246000fd5b6000600282049050600182168061069d57607f821691505b6020821081036106b0576106af610656565b5b50919050565b60008190508160005260206000209050919050565b60006020601f8301049050919050565b600082821b905092915050565b6000600883026107187fffffffffffffffffffffffffffffffffffffffffffffffffffffffffffffffff826106db565b61072286836106db565b95508019841693508086168417925050509392505050565b6000819050919050565b600061075f61075a610755846105a6565b61073a565b6105a6565b9050919050565b6000819050919050565b61077983610744565b61078d61078582610766565b8484546106e8565b825550505050565b600090565b6107a2610795565b6107ad818484610770565b505050565b5b818110156107d1576107c660008261079a565b6001810190506107b3565b5050565b601f821115610816576107e7816106b6565b6107f0846106cb565b810160208510156107ff578190505b61081361080b856106cb565b8301826107b2565b50505b505050565b600082821c905092915050565b60006108396000198460080261081b565b1980831691505092915050565b60006108528383610828565b9150826002028217905092915050565b61086b8261061c565b67ffffffffffffffff81111561088457610883610627565b5b61088e8254610685565b6108998282856107d5565b600060209050601f8311600181146108cc57600084156108ba578287015190505b6108c48582610846565b86555061092c565b601f1984166108da866106b6565b60005b82811015610902578489015182556001820191506020850194506020810190506108dd565b8683101561091f578489015161091b601f891682610828565b8355505b6001600288020188555050505b505050505050565b7f4e487b7100000000000000000000000000000000000000000000000000000000600052601160045260246000fd5b600061096e826105a6565b9150610979836105a6565b925082820190508082111561099157610990610934565b5b92915050565b6109a0816105a6565b82525050565b60006020820190506109bb6000830184610997565b92915050565b600082825260208201905092915050565b7f6e6f7420656e6f75676820746f6b656e73000000000000000000000000000000600082015250565b6000610a086011836109c1565b9150610a13826109d2565b602082019050919050565b60006020820190508181036000830152610a37816109fb565b9050919050565b7f696e76616c696420616464726573730000000000000000000000000000000000600082015250565b6000610a74600f836109c1565b9150610a7f82610a3e565b602082019050919050565b60006020820190508181036000830152610aa381610a67565b9050919050565b6121af80610ab96000396000f3fe6080604052600436106101855760003560e01c806370a08231116100d157806395d89b411161008a578063a9059cbb11610064578063a9059cbb146105f7578063d539139314610634578063d547741f1461065f578063dd62ed3e14610688576101c5565b806395d89b41146105765780639653dee5146105a1578063a217fddf146105cc576101c5565b806370a08231146104525780637e1c0c091461048f5780637ff9b596146104ba5780638da5cb5b146104e557806391d148541461051057806394bf804d1461054d576101c5565b806327e235e31161013e5780633610724e116101185780633610724e146103a557806336568abe146103c1578063518ab2a8146103ea57806355b6ed5c14610415576101c5565b806327e235e3146103145780632f2ff15d14610351578063313ce5671461037a576101c5565b806301ffc9a7146101ca57806306fdde0314610207578063095ea7b31461023257806318160ddd1461026f57806323b872dd1461029a578063248a9ca3146102d7576101c5565b366101c5577f88a5966d370b9919b20f3e2c13ff65706f196a4e32cc2c12bf57088f8852587433346040516101bb929190611700565b60405180910390a1005b600080fd5b3480156101d657600080fd5b506101f160048036038101906101ec9190611786565b6106c5565b6040516101fe91906117ce565b60405180910390f35b34801561021357600080fd5b5061021c61073f565b6040516102299190611879565b60405180910390f35b34801561023e57600080fd5b50610259600480360381019061025491906118f3565b6107d1565b60405161026691906117ce565b60405180910390f35b34801561027b57600080fd5b506102846107e8565b6040516102919190611933565b60405180910390f35b3480156102a657600080fd5b506102c160048036038101906102bc919061194e565b6107f2565b6040516102ce91906117ce565b60405180910390f35b3480156102e357600080fd5b506102fe60048036038101906102f991906119d7565b610a6d565b60405161030b9190611a13565b60405180910390f35b34801561032057600080fd5b5061033b60048036038101906103369190611a2e565b610a8c565b6040516103489190611933565b60405180910390f35b34801561035d57600080fd5b5061037860048036038101906103739190611a5b565b610aa4565b005b34801561038657600080fd5b5061038f610ac6565b60405161039c9190611933565b60405180910390f35b6103bf60048036038101906103ba9190611a9b565b610acf565b005b3480156103cd57600080fd5b506103e860048036038101906103e39190611a5b565b610c69565b005b3480156103f657600080fd5b506103ff610ce4565b60405161040c9190611933565b60405180910390f35b34801561042157600080fd5b5061043c60048036038101906104379190611ac8565b610cea565b6040516104499190611933565b60405180910390f35b34801561045e57600080fd5b5061047960048036038101906104749190611a2e565b610d0f565b6040516104869190611933565b60405180910390f35b34801561049b57600080fd5b506104a4610d58565b6040516104b19190611933565b60405180910390f35b3480156104c657600080fd5b506104cf610d5e565b6040516104dc9190611933565b60405180910390f35b3480156104f157600080fd5b506104fa610d64565b6040516105079190611b08565b60405180910390f35b34801561051c57600080fd5b5061053760048036038101906105329190611a5b565b610d8a565b60405161054491906117ce565b60405180910390f35b34801561055957600080fd5b50610574600480360381019061056f9190611b23565b610df4565b005b34801561058257600080fd5b5061058b610e2d565b6040516105989190611879565b60405180910390f35b3480156105ad57600080fd5b506105b6610ebf565b6040516105c39190611b08565b60405180910390f35b3480156105d857600080fd5b506105e1610ee5565b6040516105ee9190611a13565b60405180910390f35b34801561060357600080fd5b5061061e600480360381019061061991906118f3565b610eec565b60405161062b91906117ce565b60405180910390f35b34801561064057600080fd5b50610649611063565b6040516106569190611a13565b60405180910390f35b34801561066b57600080fd5b5061068660048036038101906106819190611a5b565b611087565b005b34801561069457600080fd5b506106af60048036038101906106aa9190611ac8565b6110a9565b6040516106bc9190611933565b60405180910390f35b60007f7965db0b000000000000000000000000000000000000000000000000000000007bffffffffffffffffffffffffffffffffffffffffffffffffffffffff1916827bffffffffffffffffffffffffffffffffffffffffffffffffffffffff19161480610738575061073782611130565b5b9050919050565b60606005805461074e90611b92565b80601f016020809104026020016040519081016040528092919081815260200182805461077a90611b92565b80156107c75780601f1061079c576101008083540402835291602001916107c7565b820191906000526020600020905b8154815290600101906020018083116107aa57829003601f168201915b5050505050905090565b60006107de33848461119a565b6001905092915050565b6000600254905090565b600081600460008673ffffffffffffffffffffffffffffffffffffffff1673ffffffffffffffffffffffffffffffffffffffff16815260200190815260200160002060003373ffffffffffffffffffffffffffffffffffffffff1673ffffffffffffffffffffffffffffffffffffffff1681526020019081526020016000205410156108b3576040517f08c379a00000000000000000000000000000000000000000000000000000000081526004016108aa90611c0f565b60405180910390fd5b6108be848484611285565b81600460008673ffffffffffffffffffffffffffffffffffffffff1673ffffffffffffffffffffffffffffffffffffffff16815260200190815260200160002060003373ffffffffffffffffffffffffffffffffffffffff1673ffffffffffffffffffffffffffffffffffffffff168152602001908152602001600020600082825461094a9190611c5e565b9250508190555081600360008673ffffffffffffffffffffffffffffffffffffffff1673ffffffffffffffffffffffffffffffffffffffff16815260200190815260200160002060008282546109a09190611c5e565b9250508190555081600360008573ffffffffffffffffffffffffffffffffffffffff1673ffffffffffffffffffffffffffffffffffffffff16815260200190815260200160002060008282546109f69190611c92565b925050819055508273ffffffffffffffffffffffffffffffffffffffff168473ffffffffffffffffffffffffffffffffffffffff167fddf252ad1be2c89b69c2b068fc378daa952ba7f163c4a11628f55a4df523b3ef84604051610a5a9190611933565b60405180910390a3600190509392505050565b6000806000838152602001908152602001600020600101549050919050565b60036020528060005260406000206000915090505481565b610aad82610a6d565b610ab681611371565b610ac08383611385565b50505050565b60006012905090565b6000610ad9610ac6565b600a610ae59190611df9565b82610af09190611e44565b905081600754610b009190611e44565b3414610b41576040517f08c379a0000000000000000000000000000000000000000000000000000000008152600401610b3890611ed2565b60405180910390fd5b803073ffffffffffffffffffffffffffffffffffffffff166370a08231306040518263ffffffff1660e01b8152600401610b7b9190611b08565b602060405180830381865afa158015610b98573d6000803e3d6000fd5b505050506040513d601f19601f82011682018060405250810190610bbc9190611f07565b1015610bfd576040517f08c379a0000000000000000000000000000000000000000000000000000000008152600401610bf490611f80565b60405180910390fd5b6000610c093383610eec565b905080610c4b576040517f08c379a0000000000000000000000000000000000000000000000000000000008152600401610c4290611fec565b60405180910390fd5b8160086000828254610c5d9190611c92565b92505081905550505050565b610c71611476565b73ffffffffffffffffffffffffffffffffffffffff168173ffffffffffffffffffffffffffffffffffffffff1614610cd5576040517f6697b23200000000000000000000000000000000000000000000000000000000815260040160405180910390fd5b610cdf828261147e565b505050565b60085481565b6004602052816000526040600020602052806000526040600020600091509150505481565b6000600360008373ffffffffffffffffffffffffffffffffffffffff1673ffffffffffffffffffffffffffffffffffffffff168152602001908152602001600020549050919050565b60025481565b60075481565b600160009054906101000a900473ffffffffffffffffffffffffffffffffffffffff1681565b600080600084815260200190815260200160002060000160008373ffffffffffffffffffffffffffffffffffffffff1673ffffffffffffffffffffffffffffffffffffffff16815260200190815260200160002060009054906101000a900460ff16905092915050565b7f9f2df0fed2c77648de5860a4cc508cd0818c85b8b8a1ab4ceeef8d981c8956a6610e1e81611371565b610e288383611570565b505050565b606060068054610e3c90611b92565b80601f0160208091040260200160405190810160405280929190818152602001828054610e6890611b92565b8015610eb55780601f10610e8a57610100808354040283529160200191610eb5565b820191906000526020600020905b815481529060010190602001808311610e9857829003601f168201915b5050505050905090565b600960009054906101000a900473ffffffffffffffffffffffffffffffffffffffff1681565b6000801b81565b6000338280610efa83610d0f565b1015610f3b576040517f08c379a0000000000000000000000000000000000000000000000000000000008152600401610f3290612058565b60405180910390fd5b610f46338686611285565b83600360003373ffffffffffffffffffffffffffffffffffffffff1673ffffffffffffffffffffffffffffffffffffffff1681526020019081526020016000206000828254610f959190611c5e565b9250508190555083600360008773ffffffffffffffffffffffffffffffffffffffff1673ffffffffffffffffffffffffffffffffffffffff1681526020019081526020016000206000828254610feb9190611c92565b925050819055508473ffffffffffffffffffffffffffffffffffffffff163373ffffffffffffffffffffffffffffffffffffffff167fddf252ad1be2c89b69c2b068fc378daa952ba7f163c4a11628f55a4df523b3ef8660405161104f9190611933565b60405180910390a360019250505092915050565b7f9f2df0fed2c77648de5860a4cc508cd0818c85b8b8a1ab4ceeef8d981c8956a681565b61109082610a6d565b61109981611371565b6110a3838361147e565b50505050565b6000600460008473ffffffffffffffffffffffffffffffffffffffff1673ffffffffffffffffffffffffffffffffffffffff16815260200190815260200160002060008373ffffffffffffffffffffffffffffffffffffffff1673ffffffffffffffffffffffffffffffffffffffff16815260200190815260200160002054905092915050565b60007f01ffc9a7000000000000000000000000000000000000000000000000000000007bffffffffffffffffffffffffffffffffffffffffffffffffffffffff1916827bffffffffffffffffffffffffffffffffffffffffffffffffffffffff1916149050919050565b80600460008573ffffffffffffffffffffffffffffffffffffffff1673ffffffffffffffffffffffffffffffffffffffff16815260200190815260200160002060008473ffffffffffffffffffffffffffffffffffffffff1673ffffffffffffffffffffffffffffffffffffffff168152602001908152602001600020819055508173ffffffffffffffffffffffffffffffffffffffff168373ffffffffffffffffffffffffffffffffffffffff167f8c5be1e5ebec7d5bd14f71427d1e84f3dd0314c0f7b2291e5b200ac8c7c3b925836040516112789190611933565b60405180910390a3505050565b600073ffffffffffffffffffffffffffffffffffffffff168373ffffffffffffffffffffffffffffffffffffffff16146112fd57600081116112fc576040517f08c379a00000000000000000000000000000000000000000000000000000000081526004016112f3906120c4565b60405180910390fd5b5b600073ffffffffffffffffffffffffffffffffffffffff168273ffffffffffffffffffffffffffffffffffffffff160361136c576040517f08c379a000000000000000000000000000000000000000000000000000000000815260040161136390612130565b60405180910390fd5b505050565b6113828161137d611476565b611655565b50565b60006113918383610d8a565b61146b57600160008085815260200190815260200160002060000160008473ffffffffffffffffffffffffffffffffffffffff1673ffffffffffffffffffffffffffffffffffffffff16815260200190815260200160002060006101000a81548160ff021916908315150217905550611408611476565b73ffffffffffffffffffffffffffffffffffffffff168273ffffffffffffffffffffffffffffffffffffffff16847f2f8788117e7eff1d82e926ec794901d17c78024a50270940304540a733656f0d60405160405180910390a460019050611470565b600090505b92915050565b600033905090565b600061148a8383610d8a565b1561156557600080600085815260200190815260200160002060000160008473ffffffffffffffffffffffffffffffffffffffff1673ffffffffffffffffffffffffffffffffffffffff16815260200190815260200160002060006101000a81548160ff021916908315150217905550611502611476565b73ffffffffffffffffffffffffffffffffffffffff168273ffffffffffffffffffffffffffffffffffffffff16847ff6391f5c32d9c69d2a47ea670b442974b53935d1edc7fd64eb21e047a839171b60405160405180910390a46001905061156a565b600090505b92915050565b61157c60008284611285565b816002600082825461158e9190611c92565b9250508190555081600360008373ffffffffffffffffffffffffffffffffffffffff1673ffffffffffffffffffffffffffffffffffffffff16815260200190815260200160002060008282546115e49190611c92565b925050819055508073ffffffffffffffffffffffffffffffffffffffff16600073ffffffffffffffffffffffffffffffffffffffff167fddf252ad1be2c89b69c2b068fc378daa952ba7f163c4a11628f55a4df523b3ef846040516116499190611933565b60405180910390a35050565b61165f8282610d8a565b6116a25780826040517fe2517d3f000000000000000000000000000000000000000000000000000000008152600401611699929190612150565b60405180910390fd5b5050565b600073ffffffffffffffffffffffffffffffffffffffff82169050919050565b60006116d1826116a6565b9050919050565b6116e1816116c6565b82525050565b6000819050919050565b6116fa816116e7565b82525050565b600060408201905061171560008301856116d8565b61172260208301846116f1565b9392505050565b600080fd5b60007fffffffff0000000000000000000000000000000000000000000000000000000082169050919050565b6117638161172e565b811461176e57600080fd5b50565b6000813590506117808161175a565b92915050565b60006020828403121561179c5761179b611729565b5b60006117aa84828501611771565b91505092915050565b60008115159050919050565b6117c8816117b3565b82525050565b60006020820190506117e360008301846117bf565b92915050565b600081519050919050565b600082825260208201905092915050565b60005b83811015611823578082015181840152602081019050611808565b60008484015250505050565b6000601f19601f8301169050919050565b600061184b826117e9565b61185581856117f4565b9350611865818560208601611805565b61186e8161182f565b840191505092915050565b600060208201905081810360008301526118938184611840565b905092915050565b6118a4816116c6565b81146118af57600080fd5b50565b6000813590506118c18161189b565b92915050565b6118d0816116e7565b81146118db57600080fd5b50565b6000813590506118ed816118c7565b92915050565b6000806040838503121561190a57611909611729565b5b6000611918858286016118b2565b9250506020611929858286016118de565b9150509250929050565b600060208201905061194860008301846116f1565b92915050565b60008060006060848603121561196757611966611729565b5b6000611975868287016118b2565b9350506020611986868287016118b2565b9250506040611997868287016118de565b9150509250925092565b6000819050919050565b6119b4816119a1565b81146119bf57600080fd5b50565b6000813590506119d1816119ab565b92915050565b6000602082840312156119ed576119ec611729565b5b60006119fb848285016119c2565b91505092915050565b611a0d816119a1565b82525050565b6000602082019050611a286000830184611a04565b92915050565b600060208284031215611a4457611a43611729565b5b6000611a52848285016118b2565b91505092915050565b60008060408385031215611a7257611a71611729565b5b6000611a80858286016119c2565b9250506020611a91858286016118b2565b9150509250929050565b600060208284031215611ab157611ab0611729565b5b6000611abf848285016118de565b91505092915050565b60008060408385031215611adf57611ade611729565b5b6000611aed858286016118b2565b9250506020611afe858286016118b2565b9150509250929050565b6000602082019050611b1d60008301846116d8565b92915050565b60008060408385031215611b3a57611b39611729565b5b6000611b48858286016118de565b9250506020611b59858286016118b2565b9150509250929050565b7f4e487b7100000000000000000000000000000000000000000000000000000000600052602260045260246000fd5b60006002820490506001821680611baa57607f821691505b602082108103611bbd57611bbc611b63565b5b50919050565b7f416c6c6f77616e636520746f6f206c6f77000000000000000000000000000000600082015250565b6000611bf96011836117f4565b9150611c0482611bc3565b602082019050919050565b60006020820190508181036000830152611c2881611bec565b9050919050565b7f4e487b7100000000000000000000000000000000000000000000000000000000600052601160045260246000fd5b6000611c69826116e7565b9150611c74836116e7565b9250828203905081811115611c8c57611c8b611c2f565b5b92915050565b6000611c9d826116e7565b9150611ca8836116e7565b9250828201905080821115611cc057611cbf611c2f565b5b92915050565b60008160011c9050919050565b6000808291508390505b6001851115611d1d57808604811115611cf957611cf8611c2f565b5b6001851615611d085780820291505b8081029050611d1685611cc6565b9450611cdd565b94509492505050565b600082611d365760019050611df2565b81611d445760009050611df2565b8160018114611d5a5760028114611d6457611d93565b6001915050611df2565b60ff841115611d7657611d75611c2f565b5b8360020a915084821115611d8d57611d8c611c2f565b5b50611df2565b5060208310610133831016604e8410600b8410161715611dc85782820a905083811115611dc357611dc2611c2f565b5b611df2565b611dd58484846001611cd3565b92509050818404811115611dec57611deb611c2f565b5b81810290505b9392505050565b6000611e04826116e7565b9150611e0f836116e7565b9250611e3c7fffffffffffffffffffffffffffffffffffffffffffffffffffffffffffffffff8484611d26565b905092915050565b6000611e4f826116e7565b9150611e5a836116e7565b9250828202611e68816116e7565b91508282048414831517611e7f57611e7e611c2f565b5b5092915050565b7f496e636f72726563742045544820616d6f756e742073656e7400000000000000600082015250565b6000611ebc6019836117f4565b9150611ec782611e86565b602082019050919050565b60006020820190508181036000830152611eeb81611eaf565b9050919050565b600081519050611f01816118c7565b92915050565b600060208284031215611f1d57611f1c611729565b5b6000611f2b84828501611ef2565b91505092915050565b7f4e6f7420656e6f75676820746f6b656e73000000000000000000000000000000600082015250565b6000611f6a6011836117f4565b9150611f7582611f34565b602082019050919050565b60006020820190508181036000830152611f9981611f5d565b9050919050565b7f5472616e73666572206661696c65640000000000000000000000000000000000600082015250565b6000611fd6600f836117f4565b9150611fe182611fa0565b602082019050919050565b6000602082019050818103600083015261200581611fc9565b9050919050565b7f4e6f7420656e6f75676820746f6b656e73210000000000000000000000000000600082015250565b60006120426012836117f4565b915061204d8261200c565b602082019050919050565b6000602082019050818103600083015261207181612035565b9050919050565b7f6e6f7420656e6f75676820746f6b656e73000000000000000000000000000000600082015250565b60006120ae6011836117f4565b91506120b982612078565b602082019050919050565b600060208201905081810360008301526120dd816120a1565b9050919050565b7f696e76616c696420616464726573730000000000000000000000000000000000600082015250565b600061211a600f836117f4565b9150612125826120e4565b602082019050919050565b600060208201905081810360008301526121498161210d565b9050919050565b600060408201905061216560008301856116d8565b6121726020830184611a04565b939250505056fea26469706673582212204136b6b1185a3ea17cee6493faaba596e4984d6c02fe7b72e5875532d9f1b20664736f6c634300081d0033",
  "linkReferences": {},
  "deployedLinkReferences": {}
}