{
	"ERC20/ERC20Base.sol": {
		"ERC20Base": {
			"abi": [
				{
					"inputs": [
						{
							"internalType": "string",
							"name": "name_",
							"type": "string"
						},
						{
							"internalType": "string",
							"name": "symbol_",
							"type": "string"
						},
						{
							"internalType": "uint256",
							"name": "initialSupply",
							"type": "uint256"
						},
						{
							"internalType": "address",
							"name": "exchanger",
							"type": "address"
						}
					],
					"stateMutability": "nonpayable",
					"type": "constructor"
				},
				{
					"anonymous": false,
					"inputs": [
						{
							"indexed": true,
							"internalType": "address",
							"name": "owner",
							"type": "address"
						},
						{
							"indexed": true,
							"internalType": "address",
							"name": "spender",
							"type": "address"
						},
						{
							"indexed": false,
							"internalType": "uint256",
							"name": "amount",
							"type": "uint256"
						}
					],
					"name": "Approval",
					"type": "event"
				},
				{
					"anonymous": false,
					"inputs": [
						{
							"indexed": true,
							"internalType": "address",
							"name": "from",
							"type": "address"
						},
						{
							"indexed": true,
							"internalType": "address",
							"name": "to",
							"type": "address"
						},
						{
							"indexed": false,
							"internalType": "uint256",
							"name": "amount",
							"type": "uint256"
						}
					],
					"name": "Transfer",
					"type": "event"
				},
				{
					"inputs": [
						{
							"internalType": "address",
							"name": "_owner",
							"type": "address"
						},
						{
							"internalType": "address",
							"name": "spender",
							"type": "address"
						}
					],
					"name": "allowance",
					"outputs": [
						{
							"internalType": "uint256",
							"name": "",
							"type": "uint256"
						}
					],
					"stateMutability": "view",
					"type": "function"
				},
				{
					"inputs": [
						{
							"internalType": "address",
							"name": "",
							"type": "address"
						},
						{
							"internalType": "address",
							"name": "",
							"type": "address"
						}
					],
					"name": "allowances",
					"outputs": [
						{
							"internalType": "uint256",
							"name": "",
							"type": "uint256"
						}
					],
					"stateMutability": "view",
					"type": "function"
				},
				{
					"inputs": [
						{
							"internalType": "address",
							"name": "spender",
							"type": "address"
						},
						{
							"internalType": "uint256",
							"name": "amount",
							"type": "uint256"
						}
					],
					"name": "approve",
					"outputs": [
						{
							"internalType": "bool",
							"name": "",
							"type": "bool"
						}
					],
					"stateMutability": "nonpayable",
					"type": "function"
				},
				{
					"inputs": [
						{
							"internalType": "address",
							"name": "account",
							"type": "address"
						}
					],
					"name": "balanceOf",
					"outputs": [
						{
							"internalType": "uint256",
							"name": "",
							"type": "uint256"
						}
					],
					"stateMutability": "view",
					"type": "function"
				},
				{
					"inputs": [
						{
							"internalType": "address",
							"name": "",
							"type": "address"
						}
					],
					"name": "balances",
					"outputs": [
						{
							"internalType": "uint256",
							"name": "",
							"type": "uint256"
						}
					],
					"stateMutability": "view",
					"type": "function"
				},
				{
					"inputs": [],
					"name": "decimals",
					"outputs": [
						{
							"internalType": "uint256",
							"name": "",
							"type": "uint256"
						}
					],
					"stateMutability": "pure",
					"type": "function"
				},
				{
					"inputs": [
						{
							"internalType": "uint256",
							"name": "amount",
							"type": "uint256"
						},
						{
							"internalType": "address",
							"name": "to",
							"type": "address"
						}
					],
					"name": "mint",
					"outputs": [],
					"stateMutability": "nonpayable",
					"type": "function"
				},
				{
					"inputs": [],
					"name": "name",
					"outputs": [
						{
							"internalType": "string",
							"name": "",
							"type": "string"
						}
					],
					"stateMutability": "view",
					"type": "function"
				},
				{
					"inputs": [],
					"name": "owner",
					"outputs": [
						{
							"internalType": "address",
							"name": "",
							"type": "address"
						}
					],
					"stateMutability": "view",
					"type": "function"
				},
				{
					"inputs": [],
					"name": "symbol",
					"outputs": [
						{
							"internalType": "string",
							"name": "",
							"type": "string"
						}
					],
					"stateMutability": "view",
					"type": "function"
				},
				{
					"inputs": [],
					"name": "totalSupply",
					"outputs": [
						{
							"internalType": "uint256",
							"name": "",
							"type": "uint256"
						}
					],
					"stateMutability": "view",
					"type": "function"
				},
				{
					"inputs": [],
					"name": "totalTokens",
					"outputs": [
						{
							"internalType": "uint256",
							"name": "",
							"type": "uint256"
						}
					],
					"stateMutability": "view",
					"type": "function"
				},
				{
					"inputs": [
						{
							"internalType": "address",
							"name": "to",
							"type": "address"
						},
						{
							"internalType": "uint256",
							"name": "amount",
							"type": "uint256"
						}
					],
					"name": "transfer",
					"outputs": [
						{
							"internalType": "bool",
							"name": "",
							"type": "bool"
						}
					],
					"stateMutability": "nonpayable",
					"type": "function"
				},
				{
					"inputs": [
						{
							"internalType": "address",
							"name": "sender",
							"type": "address"
						},
						{
							"internalType": "address",
							"name": "recipient",
							"type": "address"
						},
						{
							"internalType": "uint256",
							"name": "amount",
							"type": "uint256"
						}
					],
					"name": "transferFrom",
					"outputs": [
						{
							"internalType": "bool",
							"name": "",
							"type": "bool"
						}
					],
					"stateMutability": "nonpayable",
					"type": "function"
				}
			],
			"devdoc": {
				"kind": "dev",
				"methods": {},
				"version": 1
			},
			"evm": {
				"assembly": "    /* \"ERC20/ERC20Base.sol\":87:3386  contract ERC20Base is IERC20 {... */\n  mstore(0x40, 0x80)\n    /* \"ERC20/ERC20Base.sol\":607:833  constructor(string memory name_, string memory symbol_, uint initialSupply, address exchanger) {... */\n  callvalue\n  dup1\n  iszero\n  tag_1\n  jumpi\n  revert(0x00, 0x00)\ntag_1:\n  pop\n  mload(0x40)\n  sub(codesize, bytecodeSize)\n  dup1\n  bytecodeSize\n  dup4\n  codecopy\n  dup2\n  dup2\n  add\n  0x40\n  mstore\n  dup2\n  add\n  swap1\n  tag_2\n  swap2\n  swap1\n  tag_3\n  jump\t// in\ntag_2:\n    /* \"ERC20/ERC20Base.sol\":721:726  name_ */\n  dup4\n    /* \"ERC20/ERC20Base.sol\":713:718  _name */\n  0x04\n    /* \"ERC20/ERC20Base.sol\":713:726  _name = name_ */\n  swap1\n  dup2\n  tag_6\n  swap2\n  swap1\n  tag_7\n  jump\t// in\ntag_6:\n  pop\n    /* \"ERC20/ERC20Base.sol\":747:754  symbol_ */\n  dup3\n    /* \"ERC20/ERC20Base.sol\":737:744  _symbol */\n  0x05\n    /* \"ERC20/ERC20Base.sol\":737:754  _symbol = symbol_ */\n  swap1\n  dup2\n  tag_8\n  swap2\n  swap1\n  tag_7\n  jump\t// in\ntag_8:\n  pop\n    /* \"ERC20/ERC20Base.sol\":773:783  msg.sender */\n  caller\n    /* \"ERC20/ERC20Base.sol\":765:770  owner */\n  0x00\n  0x00\n    /* \"ERC20/ERC20Base.sol\":765:783  owner = msg.sender */\n  0x0100\n  exp\n  dup2\n  sload\n  dup2\n  0xffffffffffffffffffffffffffffffffffffffff\n  mul\n  not\n  and\n  swap1\n  dup4\n  0xffffffffffffffffffffffffffffffffffffffff\n  and\n  mul\n  or\n  swap1\n  sstore\n  pop\n    /* \"ERC20/ERC20Base.sol\":794:825  _mint(initialSupply, exchanger) */\n  tag_9\n    /* \"ERC20/ERC20Base.sol\":800:813  initialSupply */\n  dup3\n    /* \"ERC20/ERC20Base.sol\":815:824  exchanger */\n  dup3\n    /* \"ERC20/ERC20Base.sol\":794:799  _mint */\n  shl(0x20, tag_10)\n    /* \"ERC20/ERC20Base.sol\":794:825  _mint(initialSupply, exchanger) */\n  0x20\n  shr\n  jump\t// in\ntag_9:\n    /* \"ERC20/ERC20Base.sol\":607:833  constructor(string memory name_, string memory symbol_, uint initialSupply, address exchanger) {... */\n  pop\n  pop\n  pop\n  pop\n    /* \"ERC20/ERC20Base.sol\":87:3386  contract ERC20Base is IERC20 {... */\n  jump(tag_11)\n    /* \"ERC20/ERC20Base.sol\":2222:2447  function _mint(uint amount, address to) internal {... */\ntag_10:\n    /* \"ERC20/ERC20Base.sol\":2282:2326  _beforeTokenTransfer(address(0), to, amount) */\n  tag_13\n    /* \"ERC20/ERC20Base.sol\":2311:2312  0 */\n  0x00\n    /* \"ERC20/ERC20Base.sol\":2315:2317  to */\n  dup3\n    /* \"ERC20/ERC20Base.sol\":2319:2325  amount */\n  dup5\n    /* \"ERC20/ERC20Base.sol\":2282:2302  _beforeTokenTransfer */\n  shl(0x20, tag_14)\n    /* \"ERC20/ERC20Base.sol\":2282:2326  _beforeTokenTransfer(address(0), to, amount) */\n  0x20\n  shr\n  jump\t// in\ntag_13:\n    /* \"ERC20/ERC20Base.sol\":2352:2358  amount */\n  dup2\n    /* \"ERC20/ERC20Base.sol\":2337:2348  totalTokens */\n  0x01\n  0x00\n    /* \"ERC20/ERC20Base.sol\":2337:2358  totalTokens += amount */\n  dup3\n  dup3\n  sload\n  tag_15\n  swap2\n  swap1\n  tag_16\n  jump\t// in\ntag_15:\n  swap3\n  pop\n  pop\n  dup2\n  swap1\n  sstore\n  pop\n    /* \"ERC20/ERC20Base.sol\":2385:2391  amount */\n  dup2\n    /* \"ERC20/ERC20Base.sol\":2369:2377  balances */\n  0x02\n    /* \"ERC20/ERC20Base.sol\":2369:2381  balances[to] */\n  0x00\n    /* \"ERC20/ERC20Base.sol\":2378:2380  to */\n  dup4\n    /* \"ERC20/ERC20Base.sol\":2369:2381  balances[to] */\n  0xffffffffffffffffffffffffffffffffffffffff\n  and\n  0xffffffffffffffffffffffffffffffffffffffff\n  and\n  dup2\n  mstore\n  0x20\n  add\n  swap1\n  dup2\n  mstore\n  0x20\n  add\n  0x00\n  keccak256\n  0x00\n    /* \"ERC20/ERC20Base.sol\":2369:2391  balances[to] += amount */\n  dup3\n  dup3\n  sload\n  tag_17\n  swap2\n  swap1\n  tag_16\n  jump\t// in\ntag_17:\n  swap3\n  pop\n  pop\n  dup2\n  swap1\n  sstore\n  pop\n    /* \"ERC20/ERC20Base.sol\":2428:2430  to */\n  dup1\n    /* \"ERC20/ERC20Base.sol\":2407:2439  Transfer(address(0), to, amount) */\n  0xffffffffffffffffffffffffffffffffffffffff\n  and\n    /* \"ERC20/ERC20Base.sol\":2424:2425  0 */\n  0x00\n    /* \"ERC20/ERC20Base.sol\":2407:2439  Transfer(address(0), to, amount) */\n  0xffffffffffffffffffffffffffffffffffffffff\n  and\n  0xddf252ad1be2c89b69c2b068fc378daa952ba7f163c4a11628f55a4df523b3ef\n    /* \"ERC20/ERC20Base.sol\":2432:2438  amount */\n  dup5\n    /* \"ERC20/ERC20Base.sol\":2407:2439  Transfer(address(0), to, amount) */\n  mload(0x40)\n  tag_18\n  swap2\n  swap1\n  tag_19\n  jump\t// in\ntag_18:\n  mload(0x40)\n  dup1\n  swap2\n  sub\n  swap1\n  log3\n    /* \"ERC20/ERC20Base.sol\":2222:2447  function _mint(uint amount, address to) internal {... */\n  pop\n  pop\n  jump\t// out\n    /* \"ERC20/ERC20Base.sol\":3261:3383  function _beforeTokenTransfer(... */\ntag_14:\n  pop\n  pop\n  pop\n  jump\t// out\n    /* \"#utility.yul\":7:82   */\ntag_21:\n    /* \"#utility.yul\":40:46   */\n  0x00\n    /* \"#utility.yul\":73:75   */\n  0x40\n    /* \"#utility.yul\":67:76   */\n  mload\n    /* \"#utility.yul\":57:76   */\n  swap1\n  pop\n    /* \"#utility.yul\":7:82   */\n  swap1\n  jump\t// out\n    /* \"#utility.yul\":88:205   */\ntag_22:\n    /* \"#utility.yul\":197:198   */\n  0x00\n    /* \"#utility.yul\":194:195   */\n  0x00\n    /* \"#utility.yul\":187:199   */\n  revert\n    /* \"#utility.yul\":211:328   */\ntag_23:\n    /* \"#utility.yul\":320:321   */\n  0x00\n    /* \"#utility.yul\":317:318   */\n  0x00\n    /* \"#utility.yul\":310:322   */\n  revert\n    /* \"#utility.yul\":334:451   */\ntag_24:\n    /* \"#utility.yul\":443:444   */\n  0x00\n    /* \"#utility.yul\":440:441   */\n  0x00\n    /* \"#utility.yul\":433:445   */\n  revert\n    /* \"#utility.yul\":457:574   */\ntag_25:\n    /* \"#utility.yul\":566:567   */\n  0x00\n    /* \"#utility.yul\":563:564   */\n  0x00\n    /* \"#utility.yul\":556:568   */\n  revert\n    /* \"#utility.yul\":580:682   */\ntag_26:\n    /* \"#utility.yul\":621:627   */\n  0x00\n    /* \"#utility.yul\":672:674   */\n  0x1f\n    /* \"#utility.yul\":668:675   */\n  not\n    /* \"#utility.yul\":663:665   */\n  0x1f\n    /* \"#utility.yul\":656:661   */\n  dup4\n    /* \"#utility.yul\":652:666   */\n  add\n    /* \"#utility.yul\":648:676   */\n  and\n    /* \"#utility.yul\":638:676   */\n  swap1\n  pop\n    /* \"#utility.yul\":580:682   */\n  swap2\n  swap1\n  pop\n  jump\t// out\n    /* \"#utility.yul\":688:868   */\ntag_27:\n    /* \"#utility.yul\":736:813   */\n  0x4e487b7100000000000000000000000000000000000000000000000000000000\n    /* \"#utility.yul\":733:734   */\n  0x00\n    /* \"#utility.yul\":726:814   */\n  mstore\n    /* \"#utility.yul\":833:837   */\n  0x41\n    /* \"#utility.yul\":830:831   */\n  0x04\n    /* \"#utility.yul\":823:838   */\n  mstore\n    /* \"#utility.yul\":857:861   */\n  0x24\n    /* \"#utility.yul\":854:855   */\n  0x00\n    /* \"#utility.yul\":847:862   */\n  revert\n    /* \"#utility.yul\":874:1155   */\ntag_28:\n    /* \"#utility.yul\":957:984   */\n  tag_70\n    /* \"#utility.yul\":979:983   */\n  dup3\n    /* \"#utility.yul\":957:984   */\n  tag_26\n  jump\t// in\ntag_70:\n    /* \"#utility.yul\":949:955   */\n  dup2\n    /* \"#utility.yul\":945:985   */\n  add\n    /* \"#utility.yul\":1087:1093   */\n  dup2\n    /* \"#utility.yul\":1075:1085   */\n  dup2\n    /* \"#utility.yul\":1072:1094   */\n  lt\n    /* \"#utility.yul\":1051:1069   */\n  0xffffffffffffffff\n    /* \"#utility.yul\":1039:1049   */\n  dup3\n    /* \"#utility.yul\":1036:1070   */\n  gt\n    /* \"#utility.yul\":1033:1095   */\n  or\n    /* \"#utility.yul\":1030:1118   */\n  iszero\n  tag_71\n  jumpi\n    /* \"#utility.yul\":1098:1116   */\n  tag_72\n  tag_27\n  jump\t// in\ntag_72:\n    /* \"#utility.yul\":1030:1118   */\ntag_71:\n    /* \"#utility.yul\":1138:1148   */\n  dup1\n    /* \"#utility.yul\":1134:1136   */\n  0x40\n    /* \"#utility.yul\":1127:1149   */\n  mstore\n    /* \"#utility.yul\":917:1155   */\n  pop\n    /* \"#utility.yul\":874:1155   */\n  pop\n  pop\n  jump\t// out\n    /* \"#utility.yul\":1161:1290   */\ntag_29:\n    /* \"#utility.yul\":1195:1201   */\n  0x00\n    /* \"#utility.yul\":1222:1242   */\n  tag_74\n  tag_21\n  jump\t// in\ntag_74:\n    /* \"#utility.yul\":1212:1242   */\n  swap1\n  pop\n    /* \"#utility.yul\":1251:1284   */\n  tag_75\n    /* \"#utility.yul\":1279:1283   */\n  dup3\n    /* \"#utility.yul\":1271:1277   */\n  dup3\n    /* \"#utility.yul\":1251:1284   */\n  tag_28\n  jump\t// in\ntag_75:\n    /* \"#utility.yul\":1161:1290   */\n  swap2\n  swap1\n  pop\n  jump\t// out\n    /* \"#utility.yul\":1296:1604   */\ntag_30:\n    /* \"#utility.yul\":1358:1362   */\n  0x00\n    /* \"#utility.yul\":1448:1466   */\n  0xffffffffffffffff\n    /* \"#utility.yul\":1440:1446   */\n  dup3\n    /* \"#utility.yul\":1437:1467   */\n  gt\n    /* \"#utility.yul\":1434:1490   */\n  iszero\n  tag_77\n  jumpi\n    /* \"#utility.yul\":1470:1488   */\n  tag_78\n  tag_27\n  jump\t// in\ntag_78:\n    /* \"#utility.yul\":1434:1490   */\ntag_77:\n    /* \"#utility.yul\":1508:1537   */\n  tag_79\n    /* \"#utility.yul\":1530:1536   */\n  dup3\n    /* \"#utility.yul\":1508:1537   */\n  tag_26\n  jump\t// in\ntag_79:\n    /* \"#utility.yul\":1500:1537   */\n  swap1\n  pop\n    /* \"#utility.yul\":1592:1596   */\n  0x20\n    /* \"#utility.yul\":1586:1590   */\n  dup2\n    /* \"#utility.yul\":1582:1597   */\n  add\n    /* \"#utility.yul\":1574:1597   */\n  swap1\n  pop\n    /* \"#utility.yul\":1296:1604   */\n  swap2\n  swap1\n  pop\n  jump\t// out\n    /* \"#utility.yul\":1610:1749   */\ntag_31:\n    /* \"#utility.yul\":1699:1705   */\n  dup3\n    /* \"#utility.yul\":1694:1697   */\n  dup2\n    /* \"#utility.yul\":1689:1692   */\n  dup4\n    /* \"#utility.yul\":1683:1706   */\n  mcopy\n    /* \"#utility.yul\":1740:1741   */\n  0x00\n    /* \"#utility.yul\":1731:1737   */\n  dup4\n    /* \"#utility.yul\":1726:1729   */\n  dup4\n    /* \"#utility.yul\":1722:1738   */\n  add\n    /* \"#utility.yul\":1715:1742   */\n  mstore\n    /* \"#utility.yul\":1610:1749   */\n  pop\n  pop\n  pop\n  jump\t// out\n    /* \"#utility.yul\":1755:2189   */\ntag_32:\n    /* \"#utility.yul\":1844:1849   */\n  0x00\n    /* \"#utility.yul\":1869:1935   */\n  tag_82\n    /* \"#utility.yul\":1885:1934   */\n  tag_83\n    /* \"#utility.yul\":1927:1933   */\n  dup5\n    /* \"#utility.yul\":1885:1934   */\n  tag_30\n  jump\t// in\ntag_83:\n    /* \"#utility.yul\":1869:1935   */\n  tag_29\n  jump\t// in\ntag_82:\n    /* \"#utility.yul\":1860:1935   */\n  swap1\n  pop\n    /* \"#utility.yul\":1958:1964   */\n  dup3\n    /* \"#utility.yul\":1951:1956   */\n  dup2\n    /* \"#utility.yul\":1944:1965   */\n  mstore\n    /* \"#utility.yul\":1996:2000   */\n  0x20\n    /* \"#utility.yul\":1989:1994   */\n  dup2\n    /* \"#utility.yul\":1985:2001   */\n  add\n    /* \"#utility.yul\":2034:2037   */\n  dup5\n    /* \"#utility.yul\":2025:2031   */\n  dup5\n    /* \"#utility.yul\":2020:2023   */\n  dup5\n    /* \"#utility.yul\":2016:2032   */\n  add\n    /* \"#utility.yul\":2013:2038   */\n  gt\n    /* \"#utility.yul\":2010:2122   */\n  iszero\n  tag_84\n  jumpi\n    /* \"#utility.yul\":2041:2120   */\n  tag_85\n  tag_25\n  jump\t// in\ntag_85:\n    /* \"#utility.yul\":2010:2122   */\ntag_84:\n    /* \"#utility.yul\":2131:2183   */\n  tag_86\n    /* \"#utility.yul\":2176:2182   */\n  dup5\n    /* \"#utility.yul\":2171:2174   */\n  dup3\n    /* \"#utility.yul\":2166:2169   */\n  dup6\n    /* \"#utility.yul\":2131:2183   */\n  tag_31\n  jump\t// in\ntag_86:\n    /* \"#utility.yul\":1850:2189   */\n  pop\n    /* \"#utility.yul\":1755:2189   */\n  swap4\n  swap3\n  pop\n  pop\n  pop\n  jump\t// out\n    /* \"#utility.yul\":2209:2564   */\ntag_33:\n    /* \"#utility.yul\":2276:2281   */\n  0x00\n    /* \"#utility.yul\":2325:2328   */\n  dup3\n    /* \"#utility.yul\":2318:2322   */\n  0x1f\n    /* \"#utility.yul\":2310:2316   */\n  dup4\n    /* \"#utility.yul\":2306:2323   */\n  add\n    /* \"#utility.yul\":2302:2329   */\n  slt\n    /* \"#utility.yul\":2292:2414   */\n  tag_88\n  jumpi\n    /* \"#utility.yul\":2333:2412   */\n  tag_89\n  tag_24\n  jump\t// in\ntag_89:\n    /* \"#utility.yul\":2292:2414   */\ntag_88:\n    /* \"#utility.yul\":2443:2449   */\n  dup2\n    /* \"#utility.yul\":2437:2450   */\n  mload\n    /* \"#utility.yul\":2468:2558   */\n  tag_90\n    /* \"#utility.yul\":2554:2557   */\n  dup5\n    /* \"#utility.yul\":2546:2552   */\n  dup3\n    /* \"#utility.yul\":2539:2543   */\n  0x20\n    /* \"#utility.yul\":2531:2537   */\n  dup7\n    /* \"#utility.yul\":2527:2544   */\n  add\n    /* \"#utility.yul\":2468:2558   */\n  tag_32\n  jump\t// in\ntag_90:\n    /* \"#utility.yul\":2459:2558   */\n  swap2\n  pop\n    /* \"#utility.yul\":2282:2564   */\n  pop\n    /* \"#utility.yul\":2209:2564   */\n  swap3\n  swap2\n  pop\n  pop\n  jump\t// out\n    /* \"#utility.yul\":2570:2647   */\ntag_34:\n    /* \"#utility.yul\":2607:2614   */\n  0x00\n    /* \"#utility.yul\":2636:2641   */\n  dup2\n    /* \"#utility.yul\":2625:2641   */\n  swap1\n  pop\n    /* \"#utility.yul\":2570:2647   */\n  swap2\n  swap1\n  pop\n  jump\t// out\n    /* \"#utility.yul\":2653:2775   */\ntag_35:\n    /* \"#utility.yul\":2726:2750   */\n  tag_93\n    /* \"#utility.yul\":2744:2749   */\n  dup2\n    /* \"#utility.yul\":2726:2750   */\n  tag_34\n  jump\t// in\ntag_93:\n    /* \"#utility.yul\":2719:2724   */\n  dup2\n    /* \"#utility.yul\":2716:2751   */\n  eq\n    /* \"#utility.yul\":2706:2769   */\n  tag_94\n  jumpi\n    /* \"#utility.yul\":2765:2766   */\n  0x00\n    /* \"#utility.yul\":2762:2763   */\n  0x00\n    /* \"#utility.yul\":2755:2767   */\n  revert\n    /* \"#utility.yul\":2706:2769   */\ntag_94:\n    /* \"#utility.yul\":2653:2775   */\n  pop\n  jump\t// out\n    /* \"#utility.yul\":2781:2924   */\ntag_36:\n    /* \"#utility.yul\":2838:2843   */\n  0x00\n    /* \"#utility.yul\":2869:2875   */\n  dup2\n    /* \"#utility.yul\":2863:2876   */\n  mload\n    /* \"#utility.yul\":2854:2876   */\n  swap1\n  pop\n    /* \"#utility.yul\":2885:2918   */\n  tag_96\n    /* \"#utility.yul\":2912:2917   */\n  dup2\n    /* \"#utility.yul\":2885:2918   */\n  tag_35\n  jump\t// in\ntag_96:\n    /* \"#utility.yul\":2781:2924   */\n  swap3\n  swap2\n  pop\n  pop\n  jump\t// out\n    /* \"#utility.yul\":2930:3056   */\ntag_37:\n    /* \"#utility.yul\":2967:2974   */\n  0x00\n    /* \"#utility.yul\":3007:3049   */\n  0xffffffffffffffffffffffffffffffffffffffff\n    /* \"#utility.yul\":3000:3005   */\n  dup3\n    /* \"#utility.yul\":2996:3050   */\n  and\n    /* \"#utility.yul\":2985:3050   */\n  swap1\n  pop\n    /* \"#utility.yul\":2930:3056   */\n  swap2\n  swap1\n  pop\n  jump\t// out\n    /* \"#utility.yul\":3062:3158   */\ntag_38:\n    /* \"#utility.yul\":3099:3106   */\n  0x00\n    /* \"#utility.yul\":3128:3152   */\n  tag_99\n    /* \"#utility.yul\":3146:3151   */\n  dup3\n    /* \"#utility.yul\":3128:3152   */\n  tag_37\n  jump\t// in\ntag_99:\n    /* \"#utility.yul\":3117:3152   */\n  swap1\n  pop\n    /* \"#utility.yul\":3062:3158   */\n  swap2\n  swap1\n  pop\n  jump\t// out\n    /* \"#utility.yul\":3164:3286   */\ntag_39:\n    /* \"#utility.yul\":3237:3261   */\n  tag_101\n    /* \"#utility.yul\":3255:3260   */\n  dup2\n    /* \"#utility.yul\":3237:3261   */\n  tag_38\n  jump\t// in\ntag_101:\n    /* \"#utility.yul\":3230:3235   */\n  dup2\n    /* \"#utility.yul\":3227:3262   */\n  eq\n    /* \"#utility.yul\":3217:3280   */\n  tag_102\n  jumpi\n    /* \"#utility.yul\":3276:3277   */\n  0x00\n    /* \"#utility.yul\":3273:3274   */\n  0x00\n    /* \"#utility.yul\":3266:3278   */\n  revert\n    /* \"#utility.yul\":3217:3280   */\ntag_102:\n    /* \"#utility.yul\":3164:3286   */\n  pop\n  jump\t// out\n    /* \"#utility.yul\":3292:3435   */\ntag_40:\n    /* \"#utility.yul\":3349:3354   */\n  0x00\n    /* \"#utility.yul\":3380:3386   */\n  dup2\n    /* \"#utility.yul\":3374:3387   */\n  mload\n    /* \"#utility.yul\":3365:3387   */\n  swap1\n  pop\n    /* \"#utility.yul\":3396:3429   */\n  tag_104\n    /* \"#utility.yul\":3423:3428   */\n  dup2\n    /* \"#utility.yul\":3396:3429   */\n  tag_39\n  jump\t// in\ntag_104:\n    /* \"#utility.yul\":3292:3435   */\n  swap3\n  swap2\n  pop\n  pop\n  jump\t// out\n    /* \"#utility.yul\":3441:4607   */\ntag_3:\n    /* \"#utility.yul\":3558:3564   */\n  0x00\n    /* \"#utility.yul\":3566:3572   */\n  0x00\n    /* \"#utility.yul\":3574:3580   */\n  0x00\n    /* \"#utility.yul\":3582:3588   */\n  0x00\n    /* \"#utility.yul\":3631:3634   */\n  0x80\n    /* \"#utility.yul\":3619:3628   */\n  dup6\n    /* \"#utility.yul\":3610:3617   */\n  dup8\n    /* \"#utility.yul\":3606:3629   */\n  sub\n    /* \"#utility.yul\":3602:3635   */\n  slt\n    /* \"#utility.yul\":3599:3719   */\n  iszero\n  tag_106\n  jumpi\n    /* \"#utility.yul\":3638:3717   */\n  tag_107\n  tag_22\n  jump\t// in\ntag_107:\n    /* \"#utility.yul\":3599:3719   */\ntag_106:\n    /* \"#utility.yul\":3779:3780   */\n  0x00\n    /* \"#utility.yul\":3768:3777   */\n  dup6\n    /* \"#utility.yul\":3764:3781   */\n  add\n    /* \"#utility.yul\":3758:3782   */\n  mload\n    /* \"#utility.yul\":3809:3827   */\n  0xffffffffffffffff\n    /* \"#utility.yul\":3801:3807   */\n  dup2\n    /* \"#utility.yul\":3798:3828   */\n  gt\n    /* \"#utility.yul\":3795:3912   */\n  iszero\n  tag_108\n  jumpi\n    /* \"#utility.yul\":3831:3910   */\n  tag_109\n  tag_23\n  jump\t// in\ntag_109:\n    /* \"#utility.yul\":3795:3912   */\ntag_108:\n    /* \"#utility.yul\":3936:4010   */\n  tag_110\n    /* \"#utility.yul\":4002:4009   */\n  dup8\n    /* \"#utility.yul\":3993:3999   */\n  dup3\n    /* \"#utility.yul\":3982:3991   */\n  dup9\n    /* \"#utility.yul\":3978:4000   */\n  add\n    /* \"#utility.yul\":3936:4010   */\n  tag_33\n  jump\t// in\ntag_110:\n    /* \"#utility.yul\":3926:4010   */\n  swap5\n  pop\n    /* \"#utility.yul\":3729:4020   */\n  pop\n    /* \"#utility.yul\":4080:4082   */\n  0x20\n    /* \"#utility.yul\":4069:4078   */\n  dup6\n    /* \"#utility.yul\":4065:4083   */\n  add\n    /* \"#utility.yul\":4059:4084   */\n  mload\n    /* \"#utility.yul\":4111:4129   */\n  0xffffffffffffffff\n    /* \"#utility.yul\":4103:4109   */\n  dup2\n    /* \"#utility.yul\":4100:4130   */\n  gt\n    /* \"#utility.yul\":4097:4214   */\n  iszero\n  tag_111\n  jumpi\n    /* \"#utility.yul\":4133:4212   */\n  tag_112\n  tag_23\n  jump\t// in\ntag_112:\n    /* \"#utility.yul\":4097:4214   */\ntag_111:\n    /* \"#utility.yul\":4238:4312   */\n  tag_113\n    /* \"#utility.yul\":4304:4311   */\n  dup8\n    /* \"#utility.yul\":4295:4301   */\n  dup3\n    /* \"#utility.yul\":4284:4293   */\n  dup9\n    /* \"#utility.yul\":4280:4302   */\n  add\n    /* \"#utility.yul\":4238:4312   */\n  tag_33\n  jump\t// in\ntag_113:\n    /* \"#utility.yul\":4228:4312   */\n  swap4\n  pop\n    /* \"#utility.yul\":4030:4322   */\n  pop\n    /* \"#utility.yul\":4361:4363   */\n  0x40\n    /* \"#utility.yul\":4387:4451   */\n  tag_114\n    /* \"#utility.yul\":4443:4450   */\n  dup8\n    /* \"#utility.yul\":4434:4440   */\n  dup3\n    /* \"#utility.yul\":4423:4432   */\n  dup9\n    /* \"#utility.yul\":4419:4441   */\n  add\n    /* \"#utility.yul\":4387:4451   */\n  tag_36\n  jump\t// in\ntag_114:\n    /* \"#utility.yul\":4377:4451   */\n  swap3\n  pop\n    /* \"#utility.yul\":4332:4461   */\n  pop\n    /* \"#utility.yul\":4500:4502   */\n  0x60\n    /* \"#utility.yul\":4526:4590   */\n  tag_115\n    /* \"#utility.yul\":4582:4589   */\n  dup8\n    /* \"#utility.yul\":4573:4579   */\n  dup3\n    /* \"#utility.yul\":4562:4571   */\n  dup9\n    /* \"#utility.yul\":4558:4580   */\n  add\n    /* \"#utility.yul\":4526:4590   */\n  tag_40\n  jump\t// in\ntag_115:\n    /* \"#utility.yul\":4516:4590   */\n  swap2\n  pop\n    /* \"#utility.yul\":4471:4600   */\n  pop\n    /* \"#utility.yul\":3441:4607   */\n  swap3\n  swap6\n  swap2\n  swap5\n  pop\n  swap3\n  pop\n  jump\t// out\n    /* \"#utility.yul\":4613:4712   */\ntag_41:\n    /* \"#utility.yul\":4665:4671   */\n  0x00\n    /* \"#utility.yul\":4699:4704   */\n  dup2\n    /* \"#utility.yul\":4693:4705   */\n  mload\n    /* \"#utility.yul\":4683:4705   */\n  swap1\n  pop\n    /* \"#utility.yul\":4613:4712   */\n  swap2\n  swap1\n  pop\n  jump\t// out\n    /* \"#utility.yul\":4718:4898   */\ntag_42:\n    /* \"#utility.yul\":4766:4843   */\n  0x4e487b7100000000000000000000000000000000000000000000000000000000\n    /* \"#utility.yul\":4763:4764   */\n  0x00\n    /* \"#utility.yul\":4756:4844   */\n  mstore\n    /* \"#utility.yul\":4863:4867   */\n  0x22\n    /* \"#utility.yul\":4860:4861   */\n  0x04\n    /* \"#utility.yul\":4853:4868   */\n  mstore\n    /* \"#utility.yul\":4887:4891   */\n  0x24\n    /* \"#utility.yul\":4884:4885   */\n  0x00\n    /* \"#utility.yul\":4877:4892   */\n  revert\n    /* \"#utility.yul\":4904:5224   */\ntag_43:\n    /* \"#utility.yul\":4948:4954   */\n  0x00\n    /* \"#utility.yul\":4985:4986   */\n  0x02\n    /* \"#utility.yul\":4979:4983   */\n  dup3\n    /* \"#utility.yul\":4975:4987   */\n  div\n    /* \"#utility.yul\":4965:4987   */\n  swap1\n  pop\n    /* \"#utility.yul\":5032:5033   */\n  0x01\n    /* \"#utility.yul\":5026:5030   */\n  dup3\n    /* \"#utility.yul\":5022:5034   */\n  and\n    /* \"#utility.yul\":5053:5071   */\n  dup1\n    /* \"#utility.yul\":5043:5124   */\n  tag_119\n  jumpi\n    /* \"#utility.yul\":5109:5113   */\n  0x7f\n    /* \"#utility.yul\":5101:5107   */\n  dup3\n    /* \"#utility.yul\":5097:5114   */\n  and\n    /* \"#utility.yul\":5087:5114   */\n  swap2\n  pop\n    /* \"#utility.yul\":5043:5124   */\ntag_119:\n    /* \"#utility.yul\":5171:5173   */\n  0x20\n    /* \"#utility.yul\":5163:5169   */\n  dup3\n    /* \"#utility.yul\":5160:5174   */\n  lt\n    /* \"#utility.yul\":5140:5158   */\n  dup2\n    /* \"#utility.yul\":5137:5175   */\n  sub\n    /* \"#utility.yul\":5134:5218   */\n  tag_120\n  jumpi\n    /* \"#utility.yul\":5190:5208   */\n  tag_121\n  tag_42\n  jump\t// in\ntag_121:\n    /* \"#utility.yul\":5134:5218   */\ntag_120:\n    /* \"#utility.yul\":4955:5224   */\n  pop\n    /* \"#utility.yul\":4904:5224   */\n  swap2\n  swap1\n  pop\n  jump\t// out\n    /* \"#utility.yul\":5230:5371   */\ntag_44:\n    /* \"#utility.yul\":5279:5283   */\n  0x00\n    /* \"#utility.yul\":5302:5305   */\n  dup2\n    /* \"#utility.yul\":5294:5305   */\n  swap1\n  pop\n    /* \"#utility.yul\":5325:5328   */\n  dup2\n    /* \"#utility.yul\":5322:5323   */\n  0x00\n    /* \"#utility.yul\":5315:5329   */\n  mstore\n    /* \"#utility.yul\":5359:5363   */\n  0x20\n    /* \"#utility.yul\":5356:5357   */\n  0x00\n    /* \"#utility.yul\":5346:5364   */\n  keccak256\n    /* \"#utility.yul\":5338:5364   */\n  swap1\n  pop\n    /* \"#utility.yul\":5230:5371   */\n  swap2\n  swap1\n  pop\n  jump\t// out\n    /* \"#utility.yul\":5377:5470   */\ntag_45:\n    /* \"#utility.yul\":5414:5420   */\n  0x00\n    /* \"#utility.yul\":5461:5463   */\n  0x20\n    /* \"#utility.yul\":5456:5458   */\n  0x1f\n    /* \"#utility.yul\":5449:5454   */\n  dup4\n    /* \"#utility.yul\":5445:5459   */\n  add\n    /* \"#utility.yul\":5441:5464   */\n  div\n    /* \"#utility.yul\":5431:5464   */\n  swap1\n  pop\n    /* \"#utility.yul\":5377:5470   */\n  swap2\n  swap1\n  pop\n  jump\t// out\n    /* \"#utility.yul\":5476:5583   */\ntag_46:\n    /* \"#utility.yul\":5520:5528   */\n  0x00\n    /* \"#utility.yul\":5570:5575   */\n  dup3\n    /* \"#utility.yul\":5564:5568   */\n  dup3\n    /* \"#utility.yul\":5560:5576   */\n  shl\n    /* \"#utility.yul\":5539:5576   */\n  swap1\n  pop\n    /* \"#utility.yul\":5476:5583   */\n  swap3\n  swap2\n  pop\n  pop\n  jump\t// out\n    /* \"#utility.yul\":5589:5982   */\ntag_47:\n    /* \"#utility.yul\":5658:5664   */\n  0x00\n    /* \"#utility.yul\":5708:5709   */\n  0x08\n    /* \"#utility.yul\":5696:5706   */\n  dup4\n    /* \"#utility.yul\":5692:5710   */\n  mul\n    /* \"#utility.yul\":5731:5828   */\n  tag_126\n    /* \"#utility.yul\":5761:5827   */\n  0xffffffffffffffffffffffffffffffffffffffffffffffffffffffffffffffff\n    /* \"#utility.yul\":5750:5759   */\n  dup3\n    /* \"#utility.yul\":5731:5828   */\n  tag_46\n  jump\t// in\ntag_126:\n    /* \"#utility.yul\":5849:5888   */\n  tag_127\n    /* \"#utility.yul\":5879:5887   */\n  dup7\n    /* \"#utility.yul\":5868:5877   */\n  dup4\n    /* \"#utility.yul\":5849:5888   */\n  tag_46\n  jump\t// in\ntag_127:\n    /* \"#utility.yul\":5837:5888   */\n  swap6\n  pop\n    /* \"#utility.yul\":5921:5925   */\n  dup1\n    /* \"#utility.yul\":5917:5926   */\n  not\n    /* \"#utility.yul\":5910:5915   */\n  dup5\n    /* \"#utility.yul\":5906:5927   */\n  and\n    /* \"#utility.yul\":5897:5927   */\n  swap4\n  pop\n    /* \"#utility.yul\":5970:5974   */\n  dup1\n    /* \"#utility.yul\":5960:5968   */\n  dup7\n    /* \"#utility.yul\":5956:5975   */\n  and\n    /* \"#utility.yul\":5949:5954   */\n  dup5\n    /* \"#utility.yul\":5946:5976   */\n  or\n    /* \"#utility.yul\":5936:5976   */\n  swap3\n  pop\n    /* \"#utility.yul\":5665:5982   */\n  pop\n  pop\n    /* \"#utility.yul\":5589:5982   */\n  swap4\n  swap3\n  pop\n  pop\n  pop\n  jump\t// out\n    /* \"#utility.yul\":5988:6048   */\ntag_48:\n    /* \"#utility.yul\":6016:6019   */\n  0x00\n    /* \"#utility.yul\":6037:6042   */\n  dup2\n    /* \"#utility.yul\":6030:6042   */\n  swap1\n  pop\n    /* \"#utility.yul\":5988:6048   */\n  swap2\n  swap1\n  pop\n  jump\t// out\n    /* \"#utility.yul\":6054:6196   */\ntag_49:\n    /* \"#utility.yul\":6104:6113   */\n  0x00\n    /* \"#utility.yul\":6137:6190   */\n  tag_130\n    /* \"#utility.yul\":6155:6189   */\n  tag_131\n    /* \"#utility.yul\":6164:6188   */\n  tag_132\n    /* \"#utility.yul\":6182:6187   */\n  dup5\n    /* \"#utility.yul\":6164:6188   */\n  tag_34\n  jump\t// in\ntag_132:\n    /* \"#utility.yul\":6155:6189   */\n  tag_48\n  jump\t// in\ntag_131:\n    /* \"#utility.yul\":6137:6190   */\n  tag_34\n  jump\t// in\ntag_130:\n    /* \"#utility.yul\":6124:6190   */\n  swap1\n  pop\n    /* \"#utility.yul\":6054:6196   */\n  swap2\n  swap1\n  pop\n  jump\t// out\n    /* \"#utility.yul\":6202:6277   */\ntag_50:\n    /* \"#utility.yul\":6245:6248   */\n  0x00\n    /* \"#utility.yul\":6266:6271   */\n  dup2\n    /* \"#utility.yul\":6259:6271   */\n  swap1\n  pop\n    /* \"#utility.yul\":6202:6277   */\n  swap2\n  swap1\n  pop\n  jump\t// out\n    /* \"#utility.yul\":6283:6552   */\ntag_51:\n    /* \"#utility.yul\":6393:6432   */\n  tag_135\n    /* \"#utility.yul\":6424:6431   */\n  dup4\n    /* \"#utility.yul\":6393:6432   */\n  tag_49\n  jump\t// in\ntag_135:\n    /* \"#utility.yul\":6454:6545   */\n  tag_136\n    /* \"#utility.yul\":6503:6544   */\n  tag_137\n    /* \"#utility.yul\":6527:6543   */\n  dup3\n    /* \"#utility.yul\":6503:6544   */\n  tag_50\n  jump\t// in\ntag_137:\n    /* \"#utility.yul\":6495:6501   */\n  dup5\n    /* \"#utility.yul\":6488:6492   */\n  dup5\n    /* \"#utility.yul\":6482:6493   */\n  sload\n    /* \"#utility.yul\":6454:6545   */\n  tag_47\n  jump\t// in\ntag_136:\n    /* \"#utility.yul\":6448:6452   */\n  dup3\n    /* \"#utility.yul\":6441:6546   */\n  sstore\n    /* \"#utility.yul\":6359:6552   */\n  pop\n    /* \"#utility.yul\":6283:6552   */\n  pop\n  pop\n  pop\n  jump\t// out\n    /* \"#utility.yul\":6558:6631   */\ntag_52:\n    /* \"#utility.yul\":6603:6606   */\n  0x00\n    /* \"#utility.yul\":6624:6625   */\n  0x00\n    /* \"#utility.yul\":6617:6625   */\n  swap1\n  pop\n    /* \"#utility.yul\":6558:6631   */\n  swap1\n  jump\t// out\n    /* \"#utility.yul\":6637:6826   */\ntag_53:\n    /* \"#utility.yul\":6714:6746   */\n  tag_140\n  tag_52\n  jump\t// in\ntag_140:\n    /* \"#utility.yul\":6755:6820   */\n  tag_141\n    /* \"#utility.yul\":6813:6819   */\n  dup2\n    /* \"#utility.yul\":6805:6811   */\n  dup5\n    /* \"#utility.yul\":6799:6803   */\n  dup5\n    /* \"#utility.yul\":6755:6820   */\n  tag_51\n  jump\t// in\ntag_141:\n    /* \"#utility.yul\":6690:6826   */\n  pop\n    /* \"#utility.yul\":6637:6826   */\n  pop\n  pop\n  jump\t// out\n    /* \"#utility.yul\":6832:7018   */\ntag_54:\n    /* \"#utility.yul\":6892:7012   */\ntag_143:\n    /* \"#utility.yul\":6909:6912   */\n  dup2\n    /* \"#utility.yul\":6902:6907   */\n  dup2\n    /* \"#utility.yul\":6899:6913   */\n  lt\n    /* \"#utility.yul\":6892:7012   */\n  iszero\n  tag_145\n  jumpi\n    /* \"#utility.yul\":6963:7002   */\n  tag_146\n    /* \"#utility.yul\":7000:7001   */\n  0x00\n    /* \"#utility.yul\":6993:6998   */\n  dup3\n    /* \"#utility.yul\":6963:7002   */\n  tag_53\n  jump\t// in\ntag_146:\n    /* \"#utility.yul\":6936:6937   */\n  0x01\n    /* \"#utility.yul\":6929:6934   */\n  dup2\n    /* \"#utility.yul\":6925:6938   */\n  add\n    /* \"#utility.yul\":6916:6938   */\n  swap1\n  pop\n    /* \"#utility.yul\":6892:7012   */\n  jump(tag_143)\ntag_145:\n    /* \"#utility.yul\":6832:7018   */\n  pop\n  pop\n  jump\t// out\n    /* \"#utility.yul\":7024:7567   */\ntag_55:\n    /* \"#utility.yul\":7125:7127   */\n  0x1f\n    /* \"#utility.yul\":7120:7123   */\n  dup3\n    /* \"#utility.yul\":7117:7128   */\n  gt\n    /* \"#utility.yul\":7114:7560   */\n  iszero\n  tag_148\n  jumpi\n    /* \"#utility.yul\":7159:7197   */\n  tag_149\n    /* \"#utility.yul\":7191:7196   */\n  dup2\n    /* \"#utility.yul\":7159:7197   */\n  tag_44\n  jump\t// in\ntag_149:\n    /* \"#utility.yul\":7243:7272   */\n  tag_150\n    /* \"#utility.yul\":7261:7271   */\n  dup5\n    /* \"#utility.yul\":7243:7272   */\n  tag_45\n  jump\t// in\ntag_150:\n    /* \"#utility.yul\":7233:7241   */\n  dup2\n    /* \"#utility.yul\":7229:7273   */\n  add\n    /* \"#utility.yul\":7426:7428   */\n  0x20\n    /* \"#utility.yul\":7414:7424   */\n  dup6\n    /* \"#utility.yul\":7411:7429   */\n  lt\n    /* \"#utility.yul\":7408:7457   */\n  iszero\n  tag_151\n  jumpi\n    /* \"#utility.yul\":7447:7455   */\n  dup2\n    /* \"#utility.yul\":7432:7455   */\n  swap1\n  pop\n    /* \"#utility.yul\":7408:7457   */\ntag_151:\n    /* \"#utility.yul\":7470:7550   */\n  tag_152\n    /* \"#utility.yul\":7526:7548   */\n  tag_153\n    /* \"#utility.yul\":7544:7547   */\n  dup6\n    /* \"#utility.yul\":7526:7548   */\n  tag_45\n  jump\t// in\ntag_153:\n    /* \"#utility.yul\":7516:7524   */\n  dup4\n    /* \"#utility.yul\":7512:7549   */\n  add\n    /* \"#utility.yul\":7499:7510   */\n  dup3\n    /* \"#utility.yul\":7470:7550   */\n  tag_54\n  jump\t// in\ntag_152:\n    /* \"#utility.yul\":7129:7560   */\n  pop\n  pop\n    /* \"#utility.yul\":7114:7560   */\ntag_148:\n    /* \"#utility.yul\":7024:7567   */\n  pop\n  pop\n  pop\n  jump\t// out\n    /* \"#utility.yul\":7573:7690   */\ntag_56:\n    /* \"#utility.yul\":7627:7635   */\n  0x00\n    /* \"#utility.yul\":7677:7682   */\n  dup3\n    /* \"#utility.yul\":7671:7675   */\n  dup3\n    /* \"#utility.yul\":7667:7683   */\n  shr\n    /* \"#utility.yul\":7646:7683   */\n  swap1\n  pop\n    /* \"#utility.yul\":7573:7690   */\n  swap3\n  swap2\n  pop\n  pop\n  jump\t// out\n    /* \"#utility.yul\":7696:7865   */\ntag_57:\n    /* \"#utility.yul\":7740:7746   */\n  0x00\n    /* \"#utility.yul\":7773:7824   */\n  tag_156\n    /* \"#utility.yul\":7821:7822   */\n  0x00\n    /* \"#utility.yul\":7817:7823   */\n  not\n    /* \"#utility.yul\":7809:7814   */\n  dup5\n    /* \"#utility.yul\":7806:7807   */\n  0x08\n    /* \"#utility.yul\":7802:7815   */\n  mul\n    /* \"#utility.yul\":7773:7824   */\n  tag_56\n  jump\t// in\ntag_156:\n    /* \"#utility.yul\":7769:7825   */\n  not\n    /* \"#utility.yul\":7854:7858   */\n  dup1\n    /* \"#utility.yul\":7848:7852   */\n  dup4\n    /* \"#utility.yul\":7844:7859   */\n  and\n    /* \"#utility.yul\":7834:7859   */\n  swap2\n  pop\n    /* \"#utility.yul\":7747:7865   */\n  pop\n    /* \"#utility.yul\":7696:7865   */\n  swap3\n  swap2\n  pop\n  pop\n  jump\t// out\n    /* \"#utility.yul\":7870:8165   */\ntag_58:\n    /* \"#utility.yul\":7946:7950   */\n  0x00\n    /* \"#utility.yul\":8092:8121   */\n  tag_158\n    /* \"#utility.yul\":8117:8120   */\n  dup4\n    /* \"#utility.yul\":8111:8115   */\n  dup4\n    /* \"#utility.yul\":8092:8121   */\n  tag_57\n  jump\t// in\ntag_158:\n    /* \"#utility.yul\":8084:8121   */\n  swap2\n  pop\n    /* \"#utility.yul\":8154:8157   */\n  dup3\n    /* \"#utility.yul\":8151:8152   */\n  0x02\n    /* \"#utility.yul\":8147:8158   */\n  mul\n    /* \"#utility.yul\":8141:8145   */\n  dup3\n    /* \"#utility.yul\":8138:8159   */\n  or\n    /* \"#utility.yul\":8130:8159   */\n  swap1\n  pop\n    /* \"#utility.yul\":7870:8165   */\n  swap3\n  swap2\n  pop\n  pop\n  jump\t// out\n    /* \"#utility.yul\":8170:9565   */\ntag_7:\n    /* \"#utility.yul\":8287:8324   */\n  tag_160\n    /* \"#utility.yul\":8320:8323   */\n  dup3\n    /* \"#utility.yul\":8287:8324   */\n  tag_41\n  jump\t// in\ntag_160:\n    /* \"#utility.yul\":8389:8407   */\n  0xffffffffffffffff\n    /* \"#utility.yul\":8381:8387   */\n  dup2\n    /* \"#utility.yul\":8378:8408   */\n  gt\n    /* \"#utility.yul\":8375:8431   */\n  iszero\n  tag_161\n  jumpi\n    /* \"#utility.yul\":8411:8429   */\n  tag_162\n  tag_27\n  jump\t// in\ntag_162:\n    /* \"#utility.yul\":8375:8431   */\ntag_161:\n    /* \"#utility.yul\":8455:8493   */\n  tag_163\n    /* \"#utility.yul\":8487:8491   */\n  dup3\n    /* \"#utility.yul\":8481:8492   */\n  sload\n    /* \"#utility.yul\":8455:8493   */\n  tag_43\n  jump\t// in\ntag_163:\n    /* \"#utility.yul\":8540:8607   */\n  tag_164\n    /* \"#utility.yul\":8600:8606   */\n  dup3\n    /* \"#utility.yul\":8592:8598   */\n  dup3\n    /* \"#utility.yul\":8586:8590   */\n  dup6\n    /* \"#utility.yul\":8540:8607   */\n  tag_55\n  jump\t// in\ntag_164:\n    /* \"#utility.yul\":8634:8635   */\n  0x00\n    /* \"#utility.yul\":8658:8662   */\n  0x20\n    /* \"#utility.yul\":8645:8662   */\n  swap1\n  pop\n    /* \"#utility.yul\":8690:8692   */\n  0x1f\n    /* \"#utility.yul\":8682:8688   */\n  dup4\n    /* \"#utility.yul\":8679:8693   */\n  gt\n    /* \"#utility.yul\":8707:8708   */\n  0x01\n    /* \"#utility.yul\":8702:9320   */\n  dup2\n  eq\n  tag_166\n  jumpi\n    /* \"#utility.yul\":9364:9365   */\n  0x00\n    /* \"#utility.yul\":9381:9387   */\n  dup5\n    /* \"#utility.yul\":9378:9455   */\n  iszero\n  tag_167\n  jumpi\n    /* \"#utility.yul\":9430:9439   */\n  dup3\n    /* \"#utility.yul\":9425:9428   */\n  dup8\n    /* \"#utility.yul\":9421:9440   */\n  add\n    /* \"#utility.yul\":9415:9441   */\n  mload\n    /* \"#utility.yul\":9406:9441   */\n  swap1\n  pop\n    /* \"#utility.yul\":9378:9455   */\ntag_167:\n    /* \"#utility.yul\":9481:9548   */\n  tag_168\n    /* \"#utility.yul\":9541:9547   */\n  dup6\n    /* \"#utility.yul\":9534:9539   */\n  dup3\n    /* \"#utility.yul\":9481:9548   */\n  tag_58\n  jump\t// in\ntag_168:\n    /* \"#utility.yul\":9475:9479   */\n  dup7\n    /* \"#utility.yul\":9468:9549   */\n  sstore\n    /* \"#utility.yul\":9337:9559   */\n  pop\n    /* \"#utility.yul\":8672:9559   */\n  jump(tag_165)\n    /* \"#utility.yul\":8702:9320   */\ntag_166:\n    /* \"#utility.yul\":8754:8758   */\n  0x1f\n    /* \"#utility.yul\":8750:8759   */\n  not\n    /* \"#utility.yul\":8742:8748   */\n  dup5\n    /* \"#utility.yul\":8738:8760   */\n  and\n    /* \"#utility.yul\":8788:8825   */\n  tag_169\n    /* \"#utility.yul\":8820:8824   */\n  dup7\n    /* \"#utility.yul\":8788:8825   */\n  tag_44\n  jump\t// in\ntag_169:\n    /* \"#utility.yul\":8847:8848   */\n  0x00\n    /* \"#utility.yul\":8861:9069   */\ntag_170:\n    /* \"#utility.yul\":8875:8882   */\n  dup3\n    /* \"#utility.yul\":8872:8873   */\n  dup2\n    /* \"#utility.yul\":8869:8883   */\n  lt\n    /* \"#utility.yul\":8861:9069   */\n  iszero\n  tag_172\n  jumpi\n    /* \"#utility.yul\":8954:8963   */\n  dup5\n    /* \"#utility.yul\":8949:8952   */\n  dup10\n    /* \"#utility.yul\":8945:8964   */\n  add\n    /* \"#utility.yul\":8939:8965   */\n  mload\n    /* \"#utility.yul\":8931:8937   */\n  dup3\n    /* \"#utility.yul\":8924:8966   */\n  sstore\n    /* \"#utility.yul\":9005:9006   */\n  0x01\n    /* \"#utility.yul\":8997:9003   */\n  dup3\n    /* \"#utility.yul\":8993:9007   */\n  add\n    /* \"#utility.yul\":8983:9007   */\n  swap2\n  pop\n    /* \"#utility.yul\":9052:9054   */\n  0x20\n    /* \"#utility.yul\":9041:9050   */\n  dup6\n    /* \"#utility.yul\":9037:9055   */\n  add\n    /* \"#utility.yul\":9024:9055   */\n  swap5\n  pop\n    /* \"#utility.yul\":8898:8902   */\n  0x20\n    /* \"#utility.yul\":8895:8896   */\n  dup2\n    /* \"#utility.yul\":8891:8903   */\n  add\n    /* \"#utility.yul\":8886:8903   */\n  swap1\n  pop\n    /* \"#utility.yul\":8861:9069   */\n  jump(tag_170)\ntag_172:\n    /* \"#utility.yul\":9097:9103   */\n  dup7\n    /* \"#utility.yul\":9088:9095   */\n  dup4\n    /* \"#utility.yul\":9085:9104   */\n  lt\n    /* \"#utility.yul\":9082:9261   */\n  iszero\n  tag_173\n  jumpi\n    /* \"#utility.yul\":9155:9164   */\n  dup5\n    /* \"#utility.yul\":9150:9153   */\n  dup10\n    /* \"#utility.yul\":9146:9165   */\n  add\n    /* \"#utility.yul\":9140:9166   */\n  mload\n    /* \"#utility.yul\":9198:9246   */\n  tag_174\n    /* \"#utility.yul\":9240:9244   */\n  0x1f\n    /* \"#utility.yul\":9232:9238   */\n  dup10\n    /* \"#utility.yul\":9228:9245   */\n  and\n    /* \"#utility.yul\":9217:9226   */\n  dup3\n    /* \"#utility.yul\":9198:9246   */\n  tag_57\n  jump\t// in\ntag_174:\n    /* \"#utility.yul\":9190:9196   */\n  dup4\n    /* \"#utility.yul\":9183:9247   */\n  sstore\n    /* \"#utility.yul\":9105:9261   */\n  pop\n    /* \"#utility.yul\":9082:9261   */\ntag_173:\n    /* \"#utility.yul\":9307:9308   */\n  0x01\n    /* \"#utility.yul\":9303:9304   */\n  0x02\n    /* \"#utility.yul\":9295:9301   */\n  dup9\n    /* \"#utility.yul\":9291:9305   */\n  mul\n    /* \"#utility.yul\":9287:9309   */\n  add\n    /* \"#utility.yul\":9281:9285   */\n  dup9\n    /* \"#utility.yul\":9274:9310   */\n  sstore\n    /* \"#utility.yul\":8709:9320   */\n  pop\n  pop\n  pop\n    /* \"#utility.yul\":8672:9559   */\ntag_165:\n  pop\n    /* \"#utility.yul\":8262:9565   */\n  pop\n  pop\n  pop\n    /* \"#utility.yul\":8170:9565   */\n  pop\n  pop\n  jump\t// out\n    /* \"#utility.yul\":9571:9751   */\ntag_59:\n    /* \"#utility.yul\":9619:9696   */\n  0x4e487b7100000000000000000000000000000000000000000000000000000000\n    /* \"#utility.yul\":9616:9617   */\n  0x00\n    /* \"#utility.yul\":9609:9697   */\n  mstore\n    /* \"#utility.yul\":9716:9720   */\n  0x11\n    /* \"#utility.yul\":9713:9714   */\n  0x04\n    /* \"#utility.yul\":9706:9721   */\n  mstore\n    /* \"#utility.yul\":9740:9744   */\n  0x24\n    /* \"#utility.yul\":9737:9738   */\n  0x00\n    /* \"#utility.yul\":9730:9745   */\n  revert\n    /* \"#utility.yul\":9757:9948   */\ntag_16:\n    /* \"#utility.yul\":9797:9800   */\n  0x00\n    /* \"#utility.yul\":9816:9836   */\n  tag_177\n    /* \"#utility.yul\":9834:9835   */\n  dup3\n    /* \"#utility.yul\":9816:9836   */\n  tag_34\n  jump\t// in\ntag_177:\n    /* \"#utility.yul\":9811:9836   */\n  swap2\n  pop\n    /* \"#utility.yul\":9850:9870   */\n  tag_178\n    /* \"#utility.yul\":9868:9869   */\n  dup4\n    /* \"#utility.yul\":9850:9870   */\n  tag_34\n  jump\t// in\ntag_178:\n    /* \"#utility.yul\":9845:9870   */\n  swap3\n  pop\n    /* \"#utility.yul\":9893:9894   */\n  dup3\n    /* \"#utility.yul\":9890:9891   */\n  dup3\n    /* \"#utility.yul\":9886:9895   */\n  add\n    /* \"#utility.yul\":9879:9895   */\n  swap1\n  pop\n    /* \"#utility.yul\":9914:9917   */\n  dup1\n    /* \"#utility.yul\":9911:9912   */\n  dup3\n    /* \"#utility.yul\":9908:9918   */\n  gt\n    /* \"#utility.yul\":9905:9941   */\n  iszero\n  tag_179\n  jumpi\n    /* \"#utility.yul\":9921:9939   */\n  tag_180\n  tag_59\n  jump\t// in\ntag_180:\n    /* \"#utility.yul\":9905:9941   */\ntag_179:\n    /* \"#utility.yul\":9757:9948   */\n  swap3\n  swap2\n  pop\n  pop\n  jump\t// out\n    /* \"#utility.yul\":9954:10072   */\ntag_60:\n    /* \"#utility.yul\":10041:10065   */\n  tag_182\n    /* \"#utility.yul\":10059:10064   */\n  dup2\n    /* \"#utility.yul\":10041:10065   */\n  tag_34\n  jump\t// in\ntag_182:\n    /* \"#utility.yul\":10036:10039   */\n  dup3\n    /* \"#utility.yul\":10029:10066   */\n  mstore\n    /* \"#utility.yul\":9954:10072   */\n  pop\n  pop\n  jump\t// out\n    /* \"#utility.yul\":10078:10300   */\ntag_19:\n    /* \"#utility.yul\":10171:10175   */\n  0x00\n    /* \"#utility.yul\":10209:10211   */\n  0x20\n    /* \"#utility.yul\":10198:10207   */\n  dup3\n    /* \"#utility.yul\":10194:10212   */\n  add\n    /* \"#utility.yul\":10186:10212   */\n  swap1\n  pop\n    /* \"#utility.yul\":10222:10293   */\n  tag_184\n    /* \"#utility.yul\":10290:10291   */\n  0x00\n    /* \"#utility.yul\":10279:10288   */\n  dup4\n    /* \"#utility.yul\":10275:10292   */\n  add\n    /* \"#utility.yul\":10266:10272   */\n  dup5\n    /* \"#utility.yul\":10222:10293   */\n  tag_60\n  jump\t// in\ntag_184:\n    /* \"#utility.yul\":10078:10300   */\n  swap3\n  swap2\n  pop\n  pop\n  jump\t// out\n    /* \"ERC20/ERC20Base.sol\":87:3386  contract ERC20Base is IERC20 {... */\ntag_11:\n  dataSize(sub_0)\n  dup1\n  dataOffset(sub_0)\n  0x00\n  codecopy\n  0x00\n  return\nstop\n\nsub_0: assembly {\n        /* \"ERC20/ERC20Base.sol\":87:3386  contract ERC20Base is IERC20 {... */\n      mstore(0x40, 0x80)\n      callvalue\n      dup1\n      iszero\n      tag_1\n      jumpi\n      revert(0x00, 0x00)\n    tag_1:\n      pop\n      jumpi(tag_2, lt(calldatasize, 0x04))\n      shr(0xe0, calldataload(0x00))\n      dup1\n      0x70a08231\n      gt\n      tag_17\n      jumpi\n      dup1\n      0x94bf804d\n      gt\n      tag_18\n      jumpi\n      dup1\n      0x94bf804d\n      eq\n      tag_13\n      jumpi\n      dup1\n      0x95d89b41\n      eq\n      tag_14\n      jumpi\n      dup1\n      0xa9059cbb\n      eq\n      tag_15\n      jumpi\n      dup1\n      0xdd62ed3e\n      eq\n      tag_16\n      jumpi\n      jump(tag_2)\n    tag_18:\n      dup1\n      0x70a08231\n      eq\n      tag_10\n      jumpi\n      dup1\n      0x7e1c0c09\n      eq\n      tag_11\n      jumpi\n      dup1\n      0x8da5cb5b\n      eq\n      tag_12\n      jumpi\n      jump(tag_2)\n    tag_17:\n      dup1\n      0x23b872dd\n      gt\n      tag_19\n      jumpi\n      dup1\n      0x23b872dd\n      eq\n      tag_6\n      jumpi\n      dup1\n      0x27e235e3\n      eq\n      tag_7\n      jumpi\n      dup1\n      0x313ce567\n      eq\n      tag_8\n      jumpi\n      dup1\n      0x55b6ed5c\n      eq\n      tag_9\n      jumpi\n      jump(tag_2)\n    tag_19:\n      dup1\n      0x06fdde03\n      eq\n      tag_3\n      jumpi\n      dup1\n      0x095ea7b3\n      eq\n      tag_4\n      jumpi\n      dup1\n      0x18160ddd\n      eq\n      tag_5\n      jumpi\n    tag_2:\n      revert(0x00, 0x00)\n        /* \"ERC20/ERC20Base.sol\":839:932  function name() external view override returns(string memory) {... */\n    tag_3:\n      tag_20\n      tag_21\n      jump\t// in\n    tag_20:\n      mload(0x40)\n      tag_22\n      swap2\n      swap1\n      tag_23\n      jump\t// in\n    tag_22:\n      mload(0x40)\n      dup1\n      swap2\n      sub\n      swap1\n      return\n        /* \"ERC20/ERC20Base.sol\":2910:3064  function approve(address spender, uint amount) public override returns(bool){... */\n    tag_4:\n      tag_24\n      0x04\n      dup1\n      calldatasize\n      sub\n      dup2\n      add\n      swap1\n      tag_25\n      swap2\n      swap1\n      tag_26\n      jump\t// in\n    tag_25:\n      tag_27\n      jump\t// in\n    tag_24:\n      mload(0x40)\n      tag_28\n      swap2\n      swap1\n      tag_29\n      jump\t// in\n    tag_28:\n      mload(0x40)\n      dup1\n      swap2\n      sub\n      swap1\n      return\n        /* \"ERC20/ERC20Base.sol\":1131:1226  function totalSupply() public view override returns(uint) {... */\n    tag_5:\n      tag_30\n      tag_31\n      jump\t// in\n    tag_30:\n      mload(0x40)\n      tag_32\n      swap2\n      swap1\n      tag_33\n      jump\t// in\n    tag_32:\n      mload(0x40)\n      dup1\n      swap2\n      sub\n      swap1\n      return\n        /* \"ERC20/ERC20Base.sol\":1669:2118  function transferFrom(address sender, address recipient, uint amount) public override returns (bool) {... */\n    tag_6:\n      tag_34\n      0x04\n      dup1\n      calldatasize\n      sub\n      dup2\n      add\n      swap1\n      tag_35\n      swap2\n      swap1\n      tag_36\n      jump\t// in\n    tag_35:\n      tag_37\n      jump\t// in\n    tag_34:\n      mload(0x40)\n      tag_38\n      swap2\n      swap1\n      tag_29\n      jump\t// in\n    tag_38:\n      mload(0x40)\n      dup1\n      swap2\n      sub\n      swap1\n      return\n        /* \"ERC20/ERC20Base.sol\":180:220  mapping(address => uint) public balances */\n    tag_7:\n      tag_39\n      0x04\n      dup1\n      calldatasize\n      sub\n      dup2\n      add\n      swap1\n      tag_40\n      swap2\n      swap1\n      tag_41\n      jump\t// in\n    tag_40:\n      tag_42\n      jump\t// in\n    tag_39:\n      mload(0x40)\n      tag_43\n      swap2\n      swap1\n      tag_33\n      jump\t// in\n    tag_43:\n      mload(0x40)\n      dup1\n      swap2\n      sub\n      swap1\n      return\n        /* \"ERC20/ERC20Base.sol\":1040:1125  function decimals() external pure override returns(uint) {... */\n    tag_8:\n      tag_44\n      tag_45\n      jump\t// in\n    tag_44:\n      mload(0x40)\n      tag_46\n      swap2\n      swap1\n      tag_33\n      jump\t// in\n    tag_46:\n      mload(0x40)\n      dup1\n      swap2\n      sub\n      swap1\n      return\n        /* \"ERC20/ERC20Base.sol\":227:289  mapping(address => mapping(address => uint)) public allowances */\n    tag_9:\n      tag_47\n      0x04\n      dup1\n      calldatasize\n      sub\n      dup2\n      add\n      swap1\n      tag_48\n      swap2\n      swap1\n      tag_49\n      jump\t// in\n    tag_48:\n      tag_50\n      jump\t// in\n    tag_47:\n      mload(0x40)\n      tag_51\n      swap2\n      swap1\n      tag_33\n      jump\t// in\n    tag_51:\n      mload(0x40)\n      dup1\n      swap2\n      sub\n      swap1\n      return\n        /* \"ERC20/ERC20Base.sol\":1232:1346  function balanceOf(address account) public view override returns(uint) {... */\n    tag_10:\n      tag_52\n      0x04\n      dup1\n      calldatasize\n      sub\n      dup2\n      add\n      swap1\n      tag_53\n      swap2\n      swap1\n      tag_41\n      jump\t// in\n    tag_53:\n      tag_54\n      jump\t// in\n    tag_52:\n      mload(0x40)\n      tag_55\n      swap2\n      swap1\n      tag_33\n      jump\t// in\n    tag_55:\n      mload(0x40)\n      dup1\n      swap2\n      sub\n      swap1\n      return\n        /* \"ERC20/ERC20Base.sol\":150:173  uint public totalTokens */\n    tag_11:\n      tag_56\n      tag_57\n      jump\t// in\n    tag_56:\n      mload(0x40)\n      tag_58\n      swap2\n      swap1\n      tag_33\n      jump\t// in\n    tag_58:\n      mload(0x40)\n      dup1\n      swap2\n      sub\n      swap1\n      return\n        /* \"ERC20/ERC20Base.sol\":123:143  address public owner */\n    tag_12:\n      tag_59\n      tag_60\n      jump\t// in\n    tag_59:\n      mload(0x40)\n      tag_61\n      swap2\n      swap1\n      tag_62\n      jump\t// in\n    tag_61:\n      mload(0x40)\n      dup1\n      swap2\n      sub\n      swap1\n      return\n        /* \"ERC20/ERC20Base.sol\":2124:2216  function mint(uint amount, address to) public onlyOwner {... */\n    tag_13:\n      tag_63\n      0x04\n      dup1\n      calldatasize\n      sub\n      dup2\n      add\n      swap1\n      tag_64\n      swap2\n      swap1\n      tag_65\n      jump\t// in\n    tag_64:\n      tag_66\n      jump\t// in\n    tag_63:\n      stop\n        /* \"ERC20/ERC20Base.sol\":938:1034  function symbol() external view override returns(string memory){... */\n    tag_14:\n      tag_67\n      tag_68\n      jump\t// in\n    tag_67:\n      mload(0x40)\n      tag_69\n      swap2\n      swap1\n      tag_23\n      jump\t// in\n    tag_69:\n      mload(0x40)\n      dup1\n      swap2\n      sub\n      swap1\n      return\n        /* \"ERC20/ERC20Base.sol\":1352:1663  function transfer(address to, uint amount) external override enoughBalance(msg.sender, amount) returns(bool){... */\n    tag_15:\n      tag_70\n      0x04\n      dup1\n      calldatasize\n      sub\n      dup2\n      add\n      swap1\n      tag_71\n      swap2\n      swap1\n      tag_26\n      jump\t// in\n    tag_71:\n      tag_72\n      jump\t// in\n    tag_70:\n      mload(0x40)\n      tag_73\n      swap2\n      swap1\n      tag_29\n      jump\t// in\n    tag_73:\n      mload(0x40)\n      dup1\n      swap2\n      sub\n      swap1\n      return\n        /* \"ERC20/ERC20Base.sol\":2765:2904  function allowance(address _owner, address spender) public view override returns(uint){... */\n    tag_16:\n      tag_74\n      0x04\n      dup1\n      calldatasize\n      sub\n      dup2\n      add\n      swap1\n      tag_75\n      swap2\n      swap1\n      tag_49\n      jump\t// in\n    tag_75:\n      tag_76\n      jump\t// in\n    tag_74:\n      mload(0x40)\n      tag_77\n      swap2\n      swap1\n      tag_33\n      jump\t// in\n    tag_77:\n      mload(0x40)\n      dup1\n      swap2\n      sub\n      swap1\n      return\n        /* \"ERC20/ERC20Base.sol\":839:932  function name() external view override returns(string memory) {... */\n    tag_21:\n        /* \"ERC20/ERC20Base.sol\":886:899  string memory */\n      0x60\n        /* \"ERC20/ERC20Base.sol\":919:924  _name */\n      0x04\n        /* \"ERC20/ERC20Base.sol\":912:924  return _name */\n      dup1\n      sload\n      tag_79\n      swap1\n      tag_80\n      jump\t// in\n    tag_79:\n      dup1\n      0x1f\n      add\n      0x20\n      dup1\n      swap2\n      div\n      mul\n      0x20\n      add\n      mload(0x40)\n      swap1\n      dup2\n      add\n      0x40\n      mstore\n      dup1\n      swap3\n      swap2\n      swap1\n      dup2\n      dup2\n      mstore\n      0x20\n      add\n      dup3\n      dup1\n      sload\n      tag_81\n      swap1\n      tag_80\n      jump\t// in\n    tag_81:\n      dup1\n      iszero\n      tag_82\n      jumpi\n      dup1\n      0x1f\n      lt\n      tag_83\n      jumpi\n      0x0100\n      dup1\n      dup4\n      sload\n      div\n      mul\n      dup4\n      mstore\n      swap2\n      0x20\n      add\n      swap2\n      jump(tag_82)\n    tag_83:\n      dup3\n      add\n      swap2\n      swap1\n      0x00\n      mstore\n      keccak256(0x00, 0x20)\n      swap1\n    tag_84:\n      dup2\n      sload\n      dup2\n      mstore\n      swap1\n      0x01\n      add\n      swap1\n      0x20\n      add\n      dup1\n      dup4\n      gt\n      tag_84\n      jumpi\n      dup3\n      swap1\n      sub\n      0x1f\n      and\n      dup3\n      add\n      swap2\n    tag_82:\n      pop\n      pop\n      pop\n      pop\n      pop\n      swap1\n      pop\n        /* \"ERC20/ERC20Base.sol\":839:932  function name() external view override returns(string memory) {... */\n      swap1\n      jump\t// out\n        /* \"ERC20/ERC20Base.sol\":2910:3064  function approve(address spender, uint amount) public override returns(bool){... */\n    tag_27:\n        /* \"ERC20/ERC20Base.sol\":2981:2985  bool */\n      0x00\n        /* \"ERC20/ERC20Base.sol\":2997:3034  _approve(msg.sender, spender, amount) */\n      tag_86\n        /* \"ERC20/ERC20Base.sol\":3006:3016  msg.sender */\n      caller\n        /* \"ERC20/ERC20Base.sol\":3018:3025  spender */\n      dup5\n        /* \"ERC20/ERC20Base.sol\":3027:3033  amount */\n      dup5\n        /* \"ERC20/ERC20Base.sol\":2997:3005  _approve */\n      tag_87\n        /* \"ERC20/ERC20Base.sol\":2997:3034  _approve(msg.sender, spender, amount) */\n      jump\t// in\n    tag_86:\n        /* \"ERC20/ERC20Base.sol\":3052:3056  true */\n      0x01\n        /* \"ERC20/ERC20Base.sol\":3045:3056  return true */\n      swap1\n      pop\n        /* \"ERC20/ERC20Base.sol\":2910:3064  function approve(address spender, uint amount) public override returns(bool){... */\n      swap3\n      swap2\n      pop\n      pop\n      jump\t// out\n        /* \"ERC20/ERC20Base.sol\":1131:1226  function totalSupply() public view override returns(uint) {... */\n    tag_31:\n        /* \"ERC20/ERC20Base.sol\":1183:1187  uint */\n      0x00\n        /* \"ERC20/ERC20Base.sol\":1207:1218  totalTokens */\n      sload(0x01)\n        /* \"ERC20/ERC20Base.sol\":1200:1218  return totalTokens */\n      swap1\n      pop\n        /* \"ERC20/ERC20Base.sol\":1131:1226  function totalSupply() public view override returns(uint) {... */\n      swap1\n      jump\t// out\n        /* \"ERC20/ERC20Base.sol\":1669:2118  function transferFrom(address sender, address recipient, uint amount) public override returns (bool) {... */\n    tag_37:\n        /* \"ERC20/ERC20Base.sol\":1764:1768  bool */\n      0x00\n        /* \"ERC20/ERC20Base.sol\":1823:1829  amount */\n      dup2\n        /* \"ERC20/ERC20Base.sol\":1789:1799  allowances */\n      0x03\n        /* \"ERC20/ERC20Base.sol\":1789:1807  allowances[sender] */\n      0x00\n        /* \"ERC20/ERC20Base.sol\":1800:1806  sender */\n      dup7\n        /* \"ERC20/ERC20Base.sol\":1789:1807  allowances[sender] */\n      0xffffffffffffffffffffffffffffffffffffffff\n      and\n      0xffffffffffffffffffffffffffffffffffffffff\n      and\n      dup2\n      mstore\n      0x20\n      add\n      swap1\n      dup2\n      mstore\n      0x20\n      add\n      0x00\n      keccak256\n        /* \"ERC20/ERC20Base.sol\":1789:1819  allowances[sender][msg.sender] */\n      0x00\n        /* \"ERC20/ERC20Base.sol\":1808:1818  msg.sender */\n      caller\n        /* \"ERC20/ERC20Base.sol\":1789:1819  allowances[sender][msg.sender] */\n      0xffffffffffffffffffffffffffffffffffffffff\n      and\n      0xffffffffffffffffffffffffffffffffffffffff\n      and\n      dup2\n      mstore\n      0x20\n      add\n      swap1\n      dup2\n      mstore\n      0x20\n      add\n      0x00\n      keccak256\n      sload\n        /* \"ERC20/ERC20Base.sol\":1789:1829  allowances[sender][msg.sender] >= amount */\n      lt\n      iszero\n        /* \"ERC20/ERC20Base.sol\":1781:1851  require(allowances[sender][msg.sender] >= amount, \"Allowance too low\") */\n      tag_90\n      jumpi\n      mload(0x40)\n      0x08c379a000000000000000000000000000000000000000000000000000000000\n      dup2\n      mstore\n      0x04\n      add\n      tag_91\n      swap1\n      tag_92\n      jump\t// in\n    tag_91:\n      mload(0x40)\n      dup1\n      swap2\n      sub\n      swap1\n      revert\n    tag_90:\n        /* \"ERC20/ERC20Base.sol\":1862:1909  _beforeTokenTransfer(sender, recipient, amount) */\n      tag_93\n        /* \"ERC20/ERC20Base.sol\":1883:1889  sender */\n      dup5\n        /* \"ERC20/ERC20Base.sol\":1891:1900  recipient */\n      dup5\n        /* \"ERC20/ERC20Base.sol\":1902:1908  amount */\n      dup5\n        /* \"ERC20/ERC20Base.sol\":1862:1882  _beforeTokenTransfer */\n      tag_94\n        /* \"ERC20/ERC20Base.sol\":1862:1909  _beforeTokenTransfer(sender, recipient, amount) */\n      jump\t// in\n    tag_93:\n        /* \"ERC20/ERC20Base.sol\":1954:1960  amount */\n      dup2\n        /* \"ERC20/ERC20Base.sol\":1920:1930  allowances */\n      0x03\n        /* \"ERC20/ERC20Base.sol\":1920:1938  allowances[sender] */\n      0x00\n        /* \"ERC20/ERC20Base.sol\":1931:1937  sender */\n      dup7\n        /* \"ERC20/ERC20Base.sol\":1920:1938  allowances[sender] */\n      0xffffffffffffffffffffffffffffffffffffffff\n      and\n      0xffffffffffffffffffffffffffffffffffffffff\n      and\n      dup2\n      mstore\n      0x20\n      add\n      swap1\n      dup2\n      mstore\n      0x20\n      add\n      0x00\n      keccak256\n        /* \"ERC20/ERC20Base.sol\":1920:1950  allowances[sender][msg.sender] */\n      0x00\n        /* \"ERC20/ERC20Base.sol\":1939:1949  msg.sender */\n      caller\n        /* \"ERC20/ERC20Base.sol\":1920:1950  allowances[sender][msg.sender] */\n      0xffffffffffffffffffffffffffffffffffffffff\n      and\n      0xffffffffffffffffffffffffffffffffffffffff\n      and\n      dup2\n      mstore\n      0x20\n      add\n      swap1\n      dup2\n      mstore\n      0x20\n      add\n      0x00\n      keccak256\n      0x00\n        /* \"ERC20/ERC20Base.sol\":1920:1960  allowances[sender][msg.sender] -= amount */\n      dup3\n      dup3\n      sload\n      tag_95\n      swap2\n      swap1\n      tag_96\n      jump\t// in\n    tag_95:\n      swap3\n      pop\n      pop\n      dup2\n      swap1\n      sstore\n      pop\n        /* \"ERC20/ERC20Base.sol\":1991:1997  amount */\n      dup2\n        /* \"ERC20/ERC20Base.sol\":1971:1979  balances */\n      0x02\n        /* \"ERC20/ERC20Base.sol\":1971:1987  balances[sender] */\n      0x00\n        /* \"ERC20/ERC20Base.sol\":1980:1986  sender */\n      dup7\n        /* \"ERC20/ERC20Base.sol\":1971:1987  balances[sender] */\n      0xffffffffffffffffffffffffffffffffffffffff\n      and\n      0xffffffffffffffffffffffffffffffffffffffff\n      and\n      dup2\n      mstore\n      0x20\n      add\n      swap1\n      dup2\n      mstore\n      0x20\n      add\n      0x00\n      keccak256\n      0x00\n        /* \"ERC20/ERC20Base.sol\":1971:1997  balances[sender] -= amount */\n      dup3\n      dup3\n      sload\n      tag_97\n      swap2\n      swap1\n      tag_96\n      jump\t// in\n    tag_97:\n      swap3\n      pop\n      pop\n      dup2\n      swap1\n      sstore\n      pop\n        /* \"ERC20/ERC20Base.sol\":2031:2037  amount */\n      dup2\n        /* \"ERC20/ERC20Base.sol\":2008:2016  balances */\n      0x02\n        /* \"ERC20/ERC20Base.sol\":2008:2027  balances[recipient] */\n      0x00\n        /* \"ERC20/ERC20Base.sol\":2017:2026  recipient */\n      dup6\n        /* \"ERC20/ERC20Base.sol\":2008:2027  balances[recipient] */\n      0xffffffffffffffffffffffffffffffffffffffff\n      and\n      0xffffffffffffffffffffffffffffffffffffffff\n      and\n      dup2\n      mstore\n      0x20\n      add\n      swap1\n      dup2\n      mstore\n      0x20\n      add\n      0x00\n      keccak256\n      0x00\n        /* \"ERC20/ERC20Base.sol\":2008:2037  balances[recipient] += amount */\n      dup3\n      dup3\n      sload\n      tag_98\n      swap2\n      swap1\n      tag_99\n      jump\t// in\n    tag_98:\n      swap3\n      pop\n      pop\n      dup2\n      swap1\n      sstore\n      pop\n        /* \"ERC20/ERC20Base.sol\":2070:2079  recipient */\n      dup3\n        /* \"ERC20/ERC20Base.sol\":2053:2088  Transfer(sender, recipient, amount) */\n      0xffffffffffffffffffffffffffffffffffffffff\n      and\n        /* \"ERC20/ERC20Base.sol\":2062:2068  sender */\n      dup5\n        /* \"ERC20/ERC20Base.sol\":2053:2088  Transfer(sender, recipient, amount) */\n      0xffffffffffffffffffffffffffffffffffffffff\n      and\n      0xddf252ad1be2c89b69c2b068fc378daa952ba7f163c4a11628f55a4df523b3ef\n        /* \"ERC20/ERC20Base.sol\":2081:2087  amount */\n      dup5\n        /* \"ERC20/ERC20Base.sol\":2053:2088  Transfer(sender, recipient, amount) */\n      mload(0x40)\n      tag_100\n      swap2\n      swap1\n      tag_33\n      jump\t// in\n    tag_100:\n      mload(0x40)\n      dup1\n      swap2\n      sub\n      swap1\n      log3\n        /* \"ERC20/ERC20Base.sol\":2106:2110  true */\n      0x01\n        /* \"ERC20/ERC20Base.sol\":2099:2110  return true */\n      swap1\n      pop\n        /* \"ERC20/ERC20Base.sol\":1669:2118  function transferFrom(address sender, address recipient, uint amount) public override returns (bool) {... */\n      swap4\n      swap3\n      pop\n      pop\n      pop\n      jump\t// out\n        /* \"ERC20/ERC20Base.sol\":180:220  mapping(address => uint) public balances */\n    tag_42:\n      mstore(0x20, 0x02)\n      dup1\n      0x00\n      mstore\n      keccak256(0x00, 0x40)\n      0x00\n      swap2\n      pop\n      swap1\n      pop\n      sload\n      dup2\n      jump\t// out\n        /* \"ERC20/ERC20Base.sol\":1040:1125  function decimals() external pure override returns(uint) {... */\n    tag_45:\n        /* \"ERC20/ERC20Base.sol\":1091:1095  uint */\n      0x00\n        /* \"ERC20/ERC20Base.sol\":1115:1117  18 */\n      0x12\n        /* \"ERC20/ERC20Base.sol\":1108:1117  return 18 */\n      swap1\n      pop\n        /* \"ERC20/ERC20Base.sol\":1040:1125  function decimals() external pure override returns(uint) {... */\n      swap1\n      jump\t// out\n        /* \"ERC20/ERC20Base.sol\":227:289  mapping(address => mapping(address => uint)) public allowances */\n    tag_50:\n      mstore(0x20, 0x03)\n      dup2\n      0x00\n      mstore\n      mstore(0x20, keccak256(0x00, 0x40))\n      dup1\n      0x00\n      mstore\n      keccak256(0x00, 0x40)\n      0x00\n      swap2\n      pop\n      swap2\n      pop\n      pop\n      sload\n      dup2\n      jump\t// out\n        /* \"ERC20/ERC20Base.sol\":1232:1346  function balanceOf(address account) public view override returns(uint) {... */\n    tag_54:\n        /* \"ERC20/ERC20Base.sol\":1297:1301  uint */\n      0x00\n        /* \"ERC20/ERC20Base.sol\":1321:1329  balances */\n      0x02\n        /* \"ERC20/ERC20Base.sol\":1321:1338  balances[account] */\n      0x00\n        /* \"ERC20/ERC20Base.sol\":1330:1337  account */\n      dup4\n        /* \"ERC20/ERC20Base.sol\":1321:1338  balances[account] */\n      0xffffffffffffffffffffffffffffffffffffffff\n      and\n      0xffffffffffffffffffffffffffffffffffffffff\n      and\n      dup2\n      mstore\n      0x20\n      add\n      swap1\n      dup2\n      mstore\n      0x20\n      add\n      0x00\n      keccak256\n      sload\n        /* \"ERC20/ERC20Base.sol\":1314:1338  return balances[account] */\n      swap1\n      pop\n        /* \"ERC20/ERC20Base.sol\":1232:1346  function balanceOf(address account) public view override returns(uint) {... */\n      swap2\n      swap1\n      pop\n      jump\t// out\n        /* \"ERC20/ERC20Base.sol\":150:173  uint public totalTokens */\n    tag_57:\n      sload(0x01)\n      dup2\n      jump\t// out\n        /* \"ERC20/ERC20Base.sol\":123:143  address public owner */\n    tag_60:\n      0x00\n      0x00\n      swap1\n      sload\n      swap1\n      0x0100\n      exp\n      swap1\n      div\n      0xffffffffffffffffffffffffffffffffffffffff\n      and\n      dup2\n      jump\t// out\n        /* \"ERC20/ERC20Base.sol\":2124:2216  function mint(uint amount, address to) public onlyOwner {... */\n    tag_66:\n        /* \"ERC20/ERC20Base.sol\":552:562  msg.sender */\n      caller\n        /* \"ERC20/ERC20Base.sol\":543:562  owner == msg.sender */\n      0xffffffffffffffffffffffffffffffffffffffff\n      and\n        /* \"ERC20/ERC20Base.sol\":543:548  owner */\n      0x00\n      0x00\n      swap1\n      sload\n      swap1\n      0x0100\n      exp\n      swap1\n      div\n      0xffffffffffffffffffffffffffffffffffffffff\n      and\n        /* \"ERC20/ERC20Base.sol\":543:562  owner == msg.sender */\n      0xffffffffffffffffffffffffffffffffffffffff\n      and\n      eq\n        /* \"ERC20/ERC20Base.sol\":535:581  require(owner == msg.sender, \"Not an ownder!\") */\n      tag_104\n      jumpi\n      mload(0x40)\n      0x08c379a000000000000000000000000000000000000000000000000000000000\n      dup2\n      mstore\n      0x04\n      add\n      tag_105\n      swap1\n      tag_106\n      jump\t// in\n    tag_105:\n      mload(0x40)\n      dup1\n      swap2\n      sub\n      swap1\n      revert\n    tag_104:\n        /* \"ERC20/ERC20Base.sol\":2191:2208  _mint(amount, to) */\n      tag_108\n        /* \"ERC20/ERC20Base.sol\":2197:2203  amount */\n      dup3\n        /* \"ERC20/ERC20Base.sol\":2205:2207  to */\n      dup3\n        /* \"ERC20/ERC20Base.sol\":2191:2196  _mint */\n      tag_109\n        /* \"ERC20/ERC20Base.sol\":2191:2208  _mint(amount, to) */\n      jump\t// in\n    tag_108:\n        /* \"ERC20/ERC20Base.sol\":2124:2216  function mint(uint amount, address to) public onlyOwner {... */\n      pop\n      pop\n      jump\t// out\n        /* \"ERC20/ERC20Base.sol\":938:1034  function symbol() external view override returns(string memory){... */\n    tag_68:\n        /* \"ERC20/ERC20Base.sol\":987:1000  string memory */\n      0x60\n        /* \"ERC20/ERC20Base.sol\":1019:1026  _symbol */\n      0x05\n        /* \"ERC20/ERC20Base.sol\":1012:1026  return _symbol */\n      dup1\n      sload\n      tag_111\n      swap1\n      tag_80\n      jump\t// in\n    tag_111:\n      dup1\n      0x1f\n      add\n      0x20\n      dup1\n      swap2\n      div\n      mul\n      0x20\n      add\n      mload(0x40)\n      swap1\n      dup2\n      add\n      0x40\n      mstore\n      dup1\n      swap3\n      swap2\n      swap1\n      dup2\n      dup2\n      mstore\n      0x20\n      add\n      dup3\n      dup1\n      sload\n      tag_112\n      swap1\n      tag_80\n      jump\t// in\n    tag_112:\n      dup1\n      iszero\n      tag_113\n      jumpi\n      dup1\n      0x1f\n      lt\n      tag_114\n      jumpi\n      0x0100\n      dup1\n      dup4\n      sload\n      div\n      mul\n      dup4\n      mstore\n      swap2\n      0x20\n      add\n      swap2\n      jump(tag_113)\n    tag_114:\n      dup3\n      add\n      swap2\n      swap1\n      0x00\n      mstore\n      keccak256(0x00, 0x20)\n      swap1\n    tag_115:\n      dup2\n      sload\n      dup2\n      mstore\n      swap1\n      0x01\n      add\n      swap1\n      0x20\n      add\n      dup1\n      dup4\n      gt\n      tag_115\n      jumpi\n      dup3\n      swap1\n      sub\n      0x1f\n      and\n      dup3\n      add\n      swap2\n    tag_113:\n      pop\n      pop\n      pop\n      pop\n      pop\n      swap1\n      pop\n        /* \"ERC20/ERC20Base.sol\":938:1034  function symbol() external view override returns(string memory){... */\n      swap1\n      jump\t// out\n        /* \"ERC20/ERC20Base.sol\":1352:1663  function transfer(address to, uint amount) external override enoughBalance(msg.sender, amount) returns(bool){... */\n    tag_72:\n        /* \"ERC20/ERC20Base.sol\":1455:1459  bool */\n      0x00\n        /* \"ERC20/ERC20Base.sol\":1427:1437  msg.sender */\n      caller\n        /* \"ERC20/ERC20Base.sol\":1439:1445  amount */\n      dup3\n        /* \"ERC20/ERC20Base.sol\":447:454  _amount */\n      dup1\n        /* \"ERC20/ERC20Base.sol\":427:443  balanceOf(_from) */\n      tag_117\n        /* \"ERC20/ERC20Base.sol\":437:442  _from */\n      dup4\n        /* \"ERC20/ERC20Base.sol\":427:436  balanceOf */\n      tag_54\n        /* \"ERC20/ERC20Base.sol\":427:443  balanceOf(_from) */\n      jump\t// in\n    tag_117:\n        /* \"ERC20/ERC20Base.sol\":427:454  balanceOf(_from) >= _amount */\n      lt\n      iszero\n        /* \"ERC20/ERC20Base.sol\":419:477  require(balanceOf(_from) >= _amount, \"Not enough tokens!\") */\n      tag_118\n      jumpi\n      mload(0x40)\n      0x08c379a000000000000000000000000000000000000000000000000000000000\n      dup2\n      mstore\n      0x04\n      add\n      tag_119\n      swap1\n      tag_120\n      jump\t// in\n    tag_119:\n      mload(0x40)\n      dup1\n      swap2\n      sub\n      swap1\n      revert\n    tag_118:\n        /* \"ERC20/ERC20Base.sol\":1471:1515  _beforeTokenTransfer(msg.sender, to, amount) */\n      tag_122\n        /* \"ERC20/ERC20Base.sol\":1492:1502  msg.sender */\n      caller\n        /* \"ERC20/ERC20Base.sol\":1504:1506  to */\n      dup7\n        /* \"ERC20/ERC20Base.sol\":1508:1514  amount */\n      dup7\n        /* \"ERC20/ERC20Base.sol\":1471:1491  _beforeTokenTransfer */\n      tag_94\n        /* \"ERC20/ERC20Base.sol\":1471:1515  _beforeTokenTransfer(msg.sender, to, amount) */\n      jump\t// in\n    tag_122:\n        /* \"ERC20/ERC20Base.sol\":1548:1554  amount */\n      dup4\n        /* \"ERC20/ERC20Base.sol\":1526:1534  balances */\n      0x02\n        /* \"ERC20/ERC20Base.sol\":1526:1546  balances[msg.sender] */\n      0x00\n        /* \"ERC20/ERC20Base.sol\":1535:1545  msg.sender */\n      caller\n        /* \"ERC20/ERC20Base.sol\":1526:1546  balances[msg.sender] */\n      0xffffffffffffffffffffffffffffffffffffffff\n      and\n      0xffffffffffffffffffffffffffffffffffffffff\n      and\n      dup2\n      mstore\n      0x20\n      add\n      swap1\n      dup2\n      mstore\n      0x20\n      add\n      0x00\n      keccak256\n      0x00\n        /* \"ERC20/ERC20Base.sol\":1526:1554  balances[msg.sender]-=amount */\n      dup3\n      dup3\n      sload\n      tag_123\n      swap2\n      swap1\n      tag_96\n      jump\t// in\n    tag_123:\n      swap3\n      pop\n      pop\n      dup2\n      swap1\n      sstore\n      pop\n        /* \"ERC20/ERC20Base.sol\":1579:1585  amount */\n      dup4\n        /* \"ERC20/ERC20Base.sol\":1565:1573  balances */\n      0x02\n        /* \"ERC20/ERC20Base.sol\":1565:1577  balances[to] */\n      0x00\n        /* \"ERC20/ERC20Base.sol\":1574:1576  to */\n      dup8\n        /* \"ERC20/ERC20Base.sol\":1565:1577  balances[to] */\n      0xffffffffffffffffffffffffffffffffffffffff\n      and\n      0xffffffffffffffffffffffffffffffffffffffff\n      and\n      dup2\n      mstore\n      0x20\n      add\n      swap1\n      dup2\n      mstore\n      0x20\n      add\n      0x00\n      keccak256\n      0x00\n        /* \"ERC20/ERC20Base.sol\":1565:1585  balances[to]+=amount */\n      dup3\n      dup3\n      sload\n      tag_124\n      swap2\n      swap1\n      tag_99\n      jump\t// in\n    tag_124:\n      swap3\n      pop\n      pop\n      dup2\n      swap1\n      sstore\n      pop\n        /* \"ERC20/ERC20Base.sol\":1622:1624  to */\n      dup5\n        /* \"ERC20/ERC20Base.sol\":1601:1633  Transfer(msg.sender, to, amount) */\n      0xffffffffffffffffffffffffffffffffffffffff\n      and\n        /* \"ERC20/ERC20Base.sol\":1610:1620  msg.sender */\n      caller\n        /* \"ERC20/ERC20Base.sol\":1601:1633  Transfer(msg.sender, to, amount) */\n      0xffffffffffffffffffffffffffffffffffffffff\n      and\n      0xddf252ad1be2c89b69c2b068fc378daa952ba7f163c4a11628f55a4df523b3ef\n        /* \"ERC20/ERC20Base.sol\":1626:1632  amount */\n      dup7\n        /* \"ERC20/ERC20Base.sol\":1601:1633  Transfer(msg.sender, to, amount) */\n      mload(0x40)\n      tag_125\n      swap2\n      swap1\n      tag_33\n      jump\t// in\n    tag_125:\n      mload(0x40)\n      dup1\n      swap2\n      sub\n      swap1\n      log3\n        /* \"ERC20/ERC20Base.sol\":1651:1655  true */\n      0x01\n        /* \"ERC20/ERC20Base.sol\":1644:1655  return true */\n      swap3\n      pop\n        /* \"ERC20/ERC20Base.sol\":1352:1663  function transfer(address to, uint amount) external override enoughBalance(msg.sender, amount) returns(bool){... */\n      pop\n      pop\n      swap3\n      swap2\n      pop\n      pop\n      jump\t// out\n        /* \"ERC20/ERC20Base.sol\":2765:2904  function allowance(address _owner, address spender) public view override returns(uint){... */\n    tag_76:\n        /* \"ERC20/ERC20Base.sol\":2846:2850  uint */\n      0x00\n        /* \"ERC20/ERC20Base.sol\":2869:2879  allowances */\n      0x03\n        /* \"ERC20/ERC20Base.sol\":2869:2887  allowances[_owner] */\n      0x00\n        /* \"ERC20/ERC20Base.sol\":2880:2886  _owner */\n      dup5\n        /* \"ERC20/ERC20Base.sol\":2869:2887  allowances[_owner] */\n      0xffffffffffffffffffffffffffffffffffffffff\n      and\n      0xffffffffffffffffffffffffffffffffffffffff\n      and\n      dup2\n      mstore\n      0x20\n      add\n      swap1\n      dup2\n      mstore\n      0x20\n      add\n      0x00\n      keccak256\n        /* \"ERC20/ERC20Base.sol\":2869:2896  allowances[_owner][spender] */\n      0x00\n        /* \"ERC20/ERC20Base.sol\":2888:2895  spender */\n      dup4\n        /* \"ERC20/ERC20Base.sol\":2869:2896  allowances[_owner][spender] */\n      0xffffffffffffffffffffffffffffffffffffffff\n      and\n      0xffffffffffffffffffffffffffffffffffffffff\n      and\n      dup2\n      mstore\n      0x20\n      add\n      swap1\n      dup2\n      mstore\n      0x20\n      add\n      0x00\n      keccak256\n      sload\n        /* \"ERC20/ERC20Base.sol\":2862:2896  return allowances[_owner][spender] */\n      swap1\n      pop\n        /* \"ERC20/ERC20Base.sol\":2765:2904  function allowance(address _owner, address spender) public view override returns(uint){... */\n      swap3\n      swap2\n      pop\n      pop\n      jump\t// out\n        /* \"ERC20/ERC20Base.sol\":3070:3255  function _approve(address sender, address spender, uint amount) internal virtual {... */\n    tag_87:\n        /* \"ERC20/ERC20Base.sol\":3192:3198  amount */\n      dup1\n        /* \"ERC20/ERC20Base.sol\":3162:3172  allowances */\n      0x03\n        /* \"ERC20/ERC20Base.sol\":3162:3180  allowances[sender] */\n      0x00\n        /* \"ERC20/ERC20Base.sol\":3173:3179  sender */\n      dup6\n        /* \"ERC20/ERC20Base.sol\":3162:3180  allowances[sender] */\n      0xffffffffffffffffffffffffffffffffffffffff\n      and\n      0xffffffffffffffffffffffffffffffffffffffff\n      and\n      dup2\n      mstore\n      0x20\n      add\n      swap1\n      dup2\n      mstore\n      0x20\n      add\n      0x00\n      keccak256\n        /* \"ERC20/ERC20Base.sol\":3162:3189  allowances[sender][spender] */\n      0x00\n        /* \"ERC20/ERC20Base.sol\":3181:3188  spender */\n      dup5\n        /* \"ERC20/ERC20Base.sol\":3162:3189  allowances[sender][spender] */\n      0xffffffffffffffffffffffffffffffffffffffff\n      and\n      0xffffffffffffffffffffffffffffffffffffffff\n      and\n      dup2\n      mstore\n      0x20\n      add\n      swap1\n      dup2\n      mstore\n      0x20\n      add\n      0x00\n      keccak256\n        /* \"ERC20/ERC20Base.sol\":3162:3198  allowances[sender][spender] = amount */\n      dup2\n      swap1\n      sstore\n      pop\n        /* \"ERC20/ERC20Base.sol\":3231:3238  spender */\n      dup2\n        /* \"ERC20/ERC20Base.sol\":3214:3247  Approval(sender, spender, amount) */\n      0xffffffffffffffffffffffffffffffffffffffff\n      and\n        /* \"ERC20/ERC20Base.sol\":3223:3229  sender */\n      dup4\n        /* \"ERC20/ERC20Base.sol\":3214:3247  Approval(sender, spender, amount) */\n      0xffffffffffffffffffffffffffffffffffffffff\n      and\n      0x8c5be1e5ebec7d5bd14f71427d1e84f3dd0314c0f7b2291e5b200ac8c7c3b925\n        /* \"ERC20/ERC20Base.sol\":3240:3246  amount */\n      dup4\n        /* \"ERC20/ERC20Base.sol\":3214:3247  Approval(sender, spender, amount) */\n      mload(0x40)\n      tag_128\n      swap2\n      swap1\n      tag_33\n      jump\t// in\n    tag_128:\n      mload(0x40)\n      dup1\n      swap2\n      sub\n      swap1\n      log3\n        /* \"ERC20/ERC20Base.sol\":3070:3255  function _approve(address sender, address spender, uint amount) internal virtual {... */\n      pop\n      pop\n      pop\n      jump\t// out\n        /* \"ERC20/ERC20Base.sol\":3261:3383  function _beforeTokenTransfer(... */\n    tag_94:\n      pop\n      pop\n      pop\n      jump\t// out\n        /* \"ERC20/ERC20Base.sol\":2222:2447  function _mint(uint amount, address to) internal {... */\n    tag_109:\n        /* \"ERC20/ERC20Base.sol\":2282:2326  _beforeTokenTransfer(address(0), to, amount) */\n      tag_131\n        /* \"ERC20/ERC20Base.sol\":2311:2312  0 */\n      0x00\n        /* \"ERC20/ERC20Base.sol\":2315:2317  to */\n      dup3\n        /* \"ERC20/ERC20Base.sol\":2319:2325  amount */\n      dup5\n        /* \"ERC20/ERC20Base.sol\":2282:2302  _beforeTokenTransfer */\n      tag_94\n        /* \"ERC20/ERC20Base.sol\":2282:2326  _beforeTokenTransfer(address(0), to, amount) */\n      jump\t// in\n    tag_131:\n        /* \"ERC20/ERC20Base.sol\":2352:2358  amount */\n      dup2\n        /* \"ERC20/ERC20Base.sol\":2337:2348  totalTokens */\n      0x01\n      0x00\n        /* \"ERC20/ERC20Base.sol\":2337:2358  totalTokens += amount */\n      dup3\n      dup3\n      sload\n      tag_132\n      swap2\n      swap1\n      tag_99\n      jump\t// in\n    tag_132:\n      swap3\n      pop\n      pop\n      dup2\n      swap1\n      sstore\n      pop\n        /* \"ERC20/ERC20Base.sol\":2385:2391  amount */\n      dup2\n        /* \"ERC20/ERC20Base.sol\":2369:2377  balances */\n      0x02\n        /* \"ERC20/ERC20Base.sol\":2369:2381  balances[to] */\n      0x00\n        /* \"ERC20/ERC20Base.sol\":2378:2380  to */\n      dup4\n        /* \"ERC20/ERC20Base.sol\":2369:2381  balances[to] */\n      0xffffffffffffffffffffffffffffffffffffffff\n      and\n      0xffffffffffffffffffffffffffffffffffffffff\n      and\n      dup2\n      mstore\n      0x20\n      add\n      swap1\n      dup2\n      mstore\n      0x20\n      add\n      0x00\n      keccak256\n      0x00\n        /* \"ERC20/ERC20Base.sol\":2369:2391  balances[to] += amount */\n      dup3\n      dup3\n      sload\n      tag_133\n      swap2\n      swap1\n      tag_99\n      jump\t// in\n    tag_133:\n      swap3\n      pop\n      pop\n      dup2\n      swap1\n      sstore\n      pop\n        /* \"ERC20/ERC20Base.sol\":2428:2430  to */\n      dup1\n        /* \"ERC20/ERC20Base.sol\":2407:2439  Transfer(address(0), to, amount) */\n      0xffffffffffffffffffffffffffffffffffffffff\n      and\n        /* \"ERC20/ERC20Base.sol\":2424:2425  0 */\n      0x00\n        /* \"ERC20/ERC20Base.sol\":2407:2439  Transfer(address(0), to, amount) */\n      0xffffffffffffffffffffffffffffffffffffffff\n      and\n      0xddf252ad1be2c89b69c2b068fc378daa952ba7f163c4a11628f55a4df523b3ef\n        /* \"ERC20/ERC20Base.sol\":2432:2438  amount */\n      dup5\n        /* \"ERC20/ERC20Base.sol\":2407:2439  Transfer(address(0), to, amount) */\n      mload(0x40)\n      tag_134\n      swap2\n      swap1\n      tag_33\n      jump\t// in\n    tag_134:\n      mload(0x40)\n      dup1\n      swap2\n      sub\n      swap1\n      log3\n        /* \"ERC20/ERC20Base.sol\":2222:2447  function _mint(uint amount, address to) internal {... */\n      pop\n      pop\n      jump\t// out\n        /* \"#utility.yul\":7:106   */\n    tag_135:\n        /* \"#utility.yul\":59:65   */\n      0x00\n        /* \"#utility.yul\":93:98   */\n      dup2\n        /* \"#utility.yul\":87:99   */\n      mload\n        /* \"#utility.yul\":77:99   */\n      swap1\n      pop\n        /* \"#utility.yul\":7:106   */\n      swap2\n      swap1\n      pop\n      jump\t// out\n        /* \"#utility.yul\":112:281   */\n    tag_136:\n        /* \"#utility.yul\":196:207   */\n      0x00\n        /* \"#utility.yul\":230:236   */\n      dup3\n        /* \"#utility.yul\":225:228   */\n      dup3\n        /* \"#utility.yul\":218:237   */\n      mstore\n        /* \"#utility.yul\":270:274   */\n      0x20\n        /* \"#utility.yul\":265:268   */\n      dup3\n        /* \"#utility.yul\":261:275   */\n      add\n        /* \"#utility.yul\":246:275   */\n      swap1\n      pop\n        /* \"#utility.yul\":112:281   */\n      swap3\n      swap2\n      pop\n      pop\n      jump\t// out\n        /* \"#utility.yul\":287:426   */\n    tag_137:\n        /* \"#utility.yul\":376:382   */\n      dup3\n        /* \"#utility.yul\":371:374   */\n      dup2\n        /* \"#utility.yul\":366:369   */\n      dup4\n        /* \"#utility.yul\":360:383   */\n      mcopy\n        /* \"#utility.yul\":417:418   */\n      0x00\n        /* \"#utility.yul\":408:414   */\n      dup4\n        /* \"#utility.yul\":403:406   */\n      dup4\n        /* \"#utility.yul\":399:415   */\n      add\n        /* \"#utility.yul\":392:419   */\n      mstore\n        /* \"#utility.yul\":287:426   */\n      pop\n      pop\n      pop\n      jump\t// out\n        /* \"#utility.yul\":432:534   */\n    tag_138:\n        /* \"#utility.yul\":473:479   */\n      0x00\n        /* \"#utility.yul\":524:526   */\n      0x1f\n        /* \"#utility.yul\":520:527   */\n      not\n        /* \"#utility.yul\":515:517   */\n      0x1f\n        /* \"#utility.yul\":508:513   */\n      dup4\n        /* \"#utility.yul\":504:518   */\n      add\n        /* \"#utility.yul\":500:528   */\n      and\n        /* \"#utility.yul\":490:528   */\n      swap1\n      pop\n        /* \"#utility.yul\":432:534   */\n      swap2\n      swap1\n      pop\n      jump\t// out\n        /* \"#utility.yul\":540:917   */\n    tag_139:\n        /* \"#utility.yul\":628:631   */\n      0x00\n        /* \"#utility.yul\":656:695   */\n      tag_168\n        /* \"#utility.yul\":689:694   */\n      dup3\n        /* \"#utility.yul\":656:695   */\n      tag_135\n      jump\t// in\n    tag_168:\n        /* \"#utility.yul\":711:782   */\n      tag_169\n        /* \"#utility.yul\":775:781   */\n      dup2\n        /* \"#utility.yul\":770:773   */\n      dup6\n        /* \"#utility.yul\":711:782   */\n      tag_136\n      jump\t// in\n    tag_169:\n        /* \"#utility.yul\":704:782   */\n      swap4\n      pop\n        /* \"#utility.yul\":791:856   */\n      tag_170\n        /* \"#utility.yul\":849:855   */\n      dup2\n        /* \"#utility.yul\":844:847   */\n      dup6\n        /* \"#utility.yul\":837:841   */\n      0x20\n        /* \"#utility.yul\":830:835   */\n      dup7\n        /* \"#utility.yul\":826:842   */\n      add\n        /* \"#utility.yul\":791:856   */\n      tag_137\n      jump\t// in\n    tag_170:\n        /* \"#utility.yul\":881:910   */\n      tag_171\n        /* \"#utility.yul\":903:909   */\n      dup2\n        /* \"#utility.yul\":881:910   */\n      tag_138\n      jump\t// in\n    tag_171:\n        /* \"#utility.yul\":876:879   */\n      dup5\n        /* \"#utility.yul\":872:911   */\n      add\n        /* \"#utility.yul\":865:911   */\n      swap2\n      pop\n        /* \"#utility.yul\":632:917   */\n      pop\n        /* \"#utility.yul\":540:917   */\n      swap3\n      swap2\n      pop\n      pop\n      jump\t// out\n        /* \"#utility.yul\":923:1236   */\n    tag_23:\n        /* \"#utility.yul\":1036:1040   */\n      0x00\n        /* \"#utility.yul\":1074:1076   */\n      0x20\n        /* \"#utility.yul\":1063:1072   */\n      dup3\n        /* \"#utility.yul\":1059:1077   */\n      add\n        /* \"#utility.yul\":1051:1077   */\n      swap1\n      pop\n        /* \"#utility.yul\":1123:1132   */\n      dup2\n        /* \"#utility.yul\":1117:1121   */\n      dup2\n        /* \"#utility.yul\":1113:1133   */\n      sub\n        /* \"#utility.yul\":1109:1110   */\n      0x00\n        /* \"#utility.yul\":1098:1107   */\n      dup4\n        /* \"#utility.yul\":1094:1111   */\n      add\n        /* \"#utility.yul\":1087:1134   */\n      mstore\n        /* \"#utility.yul\":1151:1229   */\n      tag_173\n        /* \"#utility.yul\":1224:1228   */\n      dup2\n        /* \"#utility.yul\":1215:1221   */\n      dup5\n        /* \"#utility.yul\":1151:1229   */\n      tag_139\n      jump\t// in\n    tag_173:\n        /* \"#utility.yul\":1143:1229   */\n      swap1\n      pop\n        /* \"#utility.yul\":923:1236   */\n      swap3\n      swap2\n      pop\n      pop\n      jump\t// out\n        /* \"#utility.yul\":1323:1440   */\n    tag_141:\n        /* \"#utility.yul\":1432:1433   */\n      0x00\n        /* \"#utility.yul\":1429:1430   */\n      0x00\n        /* \"#utility.yul\":1422:1434   */\n      revert\n        /* \"#utility.yul\":1569:1695   */\n    tag_143:\n        /* \"#utility.yul\":1606:1613   */\n      0x00\n        /* \"#utility.yul\":1646:1688   */\n      0xffffffffffffffffffffffffffffffffffffffff\n        /* \"#utility.yul\":1639:1644   */\n      dup3\n        /* \"#utility.yul\":1635:1689   */\n      and\n        /* \"#utility.yul\":1624:1689   */\n      swap1\n      pop\n        /* \"#utility.yul\":1569:1695   */\n      swap2\n      swap1\n      pop\n      jump\t// out\n        /* \"#utility.yul\":1701:1797   */\n    tag_144:\n        /* \"#utility.yul\":1738:1745   */\n      0x00\n        /* \"#utility.yul\":1767:1791   */\n      tag_179\n        /* \"#utility.yul\":1785:1790   */\n      dup3\n        /* \"#utility.yul\":1767:1791   */\n      tag_143\n      jump\t// in\n    tag_179:\n        /* \"#utility.yul\":1756:1791   */\n      swap1\n      pop\n        /* \"#utility.yul\":1701:1797   */\n      swap2\n      swap1\n      pop\n      jump\t// out\n        /* \"#utility.yul\":1803:1925   */\n    tag_145:\n        /* \"#utility.yul\":1876:1900   */\n      tag_181\n        /* \"#utility.yul\":1894:1899   */\n      dup2\n        /* \"#utility.yul\":1876:1900   */\n      tag_144\n      jump\t// in\n    tag_181:\n        /* \"#utility.yul\":1869:1874   */\n      dup2\n        /* \"#utility.yul\":1866:1901   */\n      eq\n        /* \"#utility.yul\":1856:1919   */\n      tag_182\n      jumpi\n        /* \"#utility.yul\":1915:1916   */\n      0x00\n        /* \"#utility.yul\":1912:1913   */\n      0x00\n        /* \"#utility.yul\":1905:1917   */\n      revert\n        /* \"#utility.yul\":1856:1919   */\n    tag_182:\n        /* \"#utility.yul\":1803:1925   */\n      pop\n      jump\t// out\n        /* \"#utility.yul\":1931:2070   */\n    tag_146:\n        /* \"#utility.yul\":1977:1982   */\n      0x00\n        /* \"#utility.yul\":2015:2021   */\n      dup2\n        /* \"#utility.yul\":2002:2022   */\n      calldataload\n        /* \"#utility.yul\":1993:2022   */\n      swap1\n      pop\n        /* \"#utility.yul\":2031:2064   */\n      tag_184\n        /* \"#utility.yul\":2058:2063   */\n      dup2\n        /* \"#utility.yul\":2031:2064   */\n      tag_145\n      jump\t// in\n    tag_184:\n        /* \"#utility.yul\":1931:2070   */\n      swap3\n      swap2\n      pop\n      pop\n      jump\t// out\n        /* \"#utility.yul\":2076:2153   */\n    tag_147:\n        /* \"#utility.yul\":2113:2120   */\n      0x00\n        /* \"#utility.yul\":2142:2147   */\n      dup2\n        /* \"#utility.yul\":2131:2147   */\n      swap1\n      pop\n        /* \"#utility.yul\":2076:2153   */\n      swap2\n      swap1\n      pop\n      jump\t// out\n        /* \"#utility.yul\":2159:2281   */\n    tag_148:\n        /* \"#utility.yul\":2232:2256   */\n      tag_187\n        /* \"#utility.yul\":2250:2255   */\n      dup2\n        /* \"#utility.yul\":2232:2256   */\n      tag_147\n      jump\t// in\n    tag_187:\n        /* \"#utility.yul\":2225:2230   */\n      dup2\n        /* \"#utility.yul\":2222:2257   */\n      eq\n        /* \"#utility.yul\":2212:2275   */\n      tag_188\n      jumpi\n        /* \"#utility.yul\":2271:2272   */\n      0x00\n        /* \"#utility.yul\":2268:2269   */\n      0x00\n        /* \"#utility.yul\":2261:2273   */\n      revert\n        /* \"#utility.yul\":2212:2275   */\n    tag_188:\n        /* \"#utility.yul\":2159:2281   */\n      pop\n      jump\t// out\n        /* \"#utility.yul\":2287:2426   */\n    tag_149:\n        /* \"#utility.yul\":2333:2338   */\n      0x00\n        /* \"#utility.yul\":2371:2377   */\n      dup2\n        /* \"#utility.yul\":2358:2378   */\n      calldataload\n        /* \"#utility.yul\":2349:2378   */\n      swap1\n      pop\n        /* \"#utility.yul\":2387:2420   */\n      tag_190\n        /* \"#utility.yul\":2414:2419   */\n      dup2\n        /* \"#utility.yul\":2387:2420   */\n      tag_148\n      jump\t// in\n    tag_190:\n        /* \"#utility.yul\":2287:2426   */\n      swap3\n      swap2\n      pop\n      pop\n      jump\t// out\n        /* \"#utility.yul\":2432:2906   */\n    tag_26:\n        /* \"#utility.yul\":2500:2506   */\n      0x00\n        /* \"#utility.yul\":2508:2514   */\n      0x00\n        /* \"#utility.yul\":2557:2559   */\n      0x40\n        /* \"#utility.yul\":2545:2554   */\n      dup4\n        /* \"#utility.yul\":2536:2543   */\n      dup6\n        /* \"#utility.yul\":2532:2555   */\n      sub\n        /* \"#utility.yul\":2528:2560   */\n      slt\n        /* \"#utility.yul\":2525:2644   */\n      iszero\n      tag_192\n      jumpi\n        /* \"#utility.yul\":2563:2642   */\n      tag_193\n      tag_141\n      jump\t// in\n    tag_193:\n        /* \"#utility.yul\":2525:2644   */\n    tag_192:\n        /* \"#utility.yul\":2683:2684   */\n      0x00\n        /* \"#utility.yul\":2708:2761   */\n      tag_194\n        /* \"#utility.yul\":2753:2760   */\n      dup6\n        /* \"#utility.yul\":2744:2750   */\n      dup3\n        /* \"#utility.yul\":2733:2742   */\n      dup7\n        /* \"#utility.yul\":2729:2751   */\n      add\n        /* \"#utility.yul\":2708:2761   */\n      tag_146\n      jump\t// in\n    tag_194:\n        /* \"#utility.yul\":2698:2761   */\n      swap3\n      pop\n        /* \"#utility.yul\":2654:2771   */\n      pop\n        /* \"#utility.yul\":2810:2812   */\n      0x20\n        /* \"#utility.yul\":2836:2889   */\n      tag_195\n        /* \"#utility.yul\":2881:2888   */\n      dup6\n        /* \"#utility.yul\":2872:2878   */\n      dup3\n        /* \"#utility.yul\":2861:2870   */\n      dup7\n        /* \"#utility.yul\":2857:2879   */\n      add\n        /* \"#utility.yul\":2836:2889   */\n      tag_149\n      jump\t// in\n    tag_195:\n        /* \"#utility.yul\":2826:2889   */\n      swap2\n      pop\n        /* \"#utility.yul\":2781:2899   */\n      pop\n        /* \"#utility.yul\":2432:2906   */\n      swap3\n      pop\n      swap3\n      swap1\n      pop\n      jump\t// out\n        /* \"#utility.yul\":2912:3002   */\n    tag_150:\n        /* \"#utility.yul\":2946:2953   */\n      0x00\n        /* \"#utility.yul\":2989:2994   */\n      dup2\n        /* \"#utility.yul\":2982:2995   */\n      iszero\n        /* \"#utility.yul\":2975:2996   */\n      iszero\n        /* \"#utility.yul\":2964:2996   */\n      swap1\n      pop\n        /* \"#utility.yul\":2912:3002   */\n      swap2\n      swap1\n      pop\n      jump\t// out\n        /* \"#utility.yul\":3008:3117   */\n    tag_151:\n        /* \"#utility.yul\":3089:3110   */\n      tag_198\n        /* \"#utility.yul\":3104:3109   */\n      dup2\n        /* \"#utility.yul\":3089:3110   */\n      tag_150\n      jump\t// in\n    tag_198:\n        /* \"#utility.yul\":3084:3087   */\n      dup3\n        /* \"#utility.yul\":3077:3111   */\n      mstore\n        /* \"#utility.yul\":3008:3117   */\n      pop\n      pop\n      jump\t// out\n        /* \"#utility.yul\":3123:3333   */\n    tag_29:\n        /* \"#utility.yul\":3210:3214   */\n      0x00\n        /* \"#utility.yul\":3248:3250   */\n      0x20\n        /* \"#utility.yul\":3237:3246   */\n      dup3\n        /* \"#utility.yul\":3233:3251   */\n      add\n        /* \"#utility.yul\":3225:3251   */\n      swap1\n      pop\n        /* \"#utility.yul\":3261:3326   */\n      tag_200\n        /* \"#utility.yul\":3323:3324   */\n      0x00\n        /* \"#utility.yul\":3312:3321   */\n      dup4\n        /* \"#utility.yul\":3308:3325   */\n      add\n        /* \"#utility.yul\":3299:3305   */\n      dup5\n        /* \"#utility.yul\":3261:3326   */\n      tag_151\n      jump\t// in\n    tag_200:\n        /* \"#utility.yul\":3123:3333   */\n      swap3\n      swap2\n      pop\n      pop\n      jump\t// out\n        /* \"#utility.yul\":3339:3457   */\n    tag_152:\n        /* \"#utility.yul\":3426:3450   */\n      tag_202\n        /* \"#utility.yul\":3444:3449   */\n      dup2\n        /* \"#utility.yul\":3426:3450   */\n      tag_147\n      jump\t// in\n    tag_202:\n        /* \"#utility.yul\":3421:3424   */\n      dup3\n        /* \"#utility.yul\":3414:3451   */\n      mstore\n        /* \"#utility.yul\":3339:3457   */\n      pop\n      pop\n      jump\t// out\n        /* \"#utility.yul\":3463:3685   */\n    tag_33:\n        /* \"#utility.yul\":3556:3560   */\n      0x00\n        /* \"#utility.yul\":3594:3596   */\n      0x20\n        /* \"#utility.yul\":3583:3592   */\n      dup3\n        /* \"#utility.yul\":3579:3597   */\n      add\n        /* \"#utility.yul\":3571:3597   */\n      swap1\n      pop\n        /* \"#utility.yul\":3607:3678   */\n      tag_204\n        /* \"#utility.yul\":3675:3676   */\n      0x00\n        /* \"#utility.yul\":3664:3673   */\n      dup4\n        /* \"#utility.yul\":3660:3677   */\n      add\n        /* \"#utility.yul\":3651:3657   */\n      dup5\n        /* \"#utility.yul\":3607:3678   */\n      tag_152\n      jump\t// in\n    tag_204:\n        /* \"#utility.yul\":3463:3685   */\n      swap3\n      swap2\n      pop\n      pop\n      jump\t// out\n        /* \"#utility.yul\":3691:4310   */\n    tag_36:\n        /* \"#utility.yul\":3768:3774   */\n      0x00\n        /* \"#utility.yul\":3776:3782   */\n      0x00\n        /* \"#utility.yul\":3784:3790   */\n      0x00\n        /* \"#utility.yul\":3833:3835   */\n      0x60\n        /* \"#utility.yul\":3821:3830   */\n      dup5\n        /* \"#utility.yul\":3812:3819   */\n      dup7\n        /* \"#utility.yul\":3808:3831   */\n      sub\n        /* \"#utility.yul\":3804:3836   */\n      slt\n        /* \"#utility.yul\":3801:3920   */\n      iszero\n      tag_206\n      jumpi\n        /* \"#utility.yul\":3839:3918   */\n      tag_207\n      tag_141\n      jump\t// in\n    tag_207:\n        /* \"#utility.yul\":3801:3920   */\n    tag_206:\n        /* \"#utility.yul\":3959:3960   */\n      0x00\n        /* \"#utility.yul\":3984:4037   */\n      tag_208\n        /* \"#utility.yul\":4029:4036   */\n      dup7\n        /* \"#utility.yul\":4020:4026   */\n      dup3\n        /* \"#utility.yul\":4009:4018   */\n      dup8\n        /* \"#utility.yul\":4005:4027   */\n      add\n        /* \"#utility.yul\":3984:4037   */\n      tag_146\n      jump\t// in\n    tag_208:\n        /* \"#utility.yul\":3974:4037   */\n      swap4\n      pop\n        /* \"#utility.yul\":3930:4047   */\n      pop\n        /* \"#utility.yul\":4086:4088   */\n      0x20\n        /* \"#utility.yul\":4112:4165   */\n      tag_209\n        /* \"#utility.yul\":4157:4164   */\n      dup7\n        /* \"#utility.yul\":4148:4154   */\n      dup3\n        /* \"#utility.yul\":4137:4146   */\n      dup8\n        /* \"#utility.yul\":4133:4155   */\n      add\n        /* \"#utility.yul\":4112:4165   */\n      tag_146\n      jump\t// in\n    tag_209:\n        /* \"#utility.yul\":4102:4165   */\n      swap3\n      pop\n        /* \"#utility.yul\":4057:4175   */\n      pop\n        /* \"#utility.yul\":4214:4216   */\n      0x40\n        /* \"#utility.yul\":4240:4293   */\n      tag_210\n        /* \"#utility.yul\":4285:4292   */\n      dup7\n        /* \"#utility.yul\":4276:4282   */\n      dup3\n        /* \"#utility.yul\":4265:4274   */\n      dup8\n        /* \"#utility.yul\":4261:4283   */\n      add\n        /* \"#utility.yul\":4240:4293   */\n      tag_149\n      jump\t// in\n    tag_210:\n        /* \"#utility.yul\":4230:4293   */\n      swap2\n      pop\n        /* \"#utility.yul\":4185:4303   */\n      pop\n        /* \"#utility.yul\":3691:4310   */\n      swap3\n      pop\n      swap3\n      pop\n      swap3\n      jump\t// out\n        /* \"#utility.yul\":4316:4645   */\n    tag_41:\n        /* \"#utility.yul\":4375:4381   */\n      0x00\n        /* \"#utility.yul\":4424:4426   */\n      0x20\n        /* \"#utility.yul\":4412:4421   */\n      dup3\n        /* \"#utility.yul\":4403:4410   */\n      dup5\n        /* \"#utility.yul\":4399:4422   */\n      sub\n        /* \"#utility.yul\":4395:4427   */\n      slt\n        /* \"#utility.yul\":4392:4511   */\n      iszero\n      tag_212\n      jumpi\n        /* \"#utility.yul\":4430:4509   */\n      tag_213\n      tag_141\n      jump\t// in\n    tag_213:\n        /* \"#utility.yul\":4392:4511   */\n    tag_212:\n        /* \"#utility.yul\":4550:4551   */\n      0x00\n        /* \"#utility.yul\":4575:4628   */\n      tag_214\n        /* \"#utility.yul\":4620:4627   */\n      dup5\n        /* \"#utility.yul\":4611:4617   */\n      dup3\n        /* \"#utility.yul\":4600:4609   */\n      dup6\n        /* \"#utility.yul\":4596:4618   */\n      add\n        /* \"#utility.yul\":4575:4628   */\n      tag_146\n      jump\t// in\n    tag_214:\n        /* \"#utility.yul\":4565:4628   */\n      swap2\n      pop\n        /* \"#utility.yul\":4521:4638   */\n      pop\n        /* \"#utility.yul\":4316:4645   */\n      swap3\n      swap2\n      pop\n      pop\n      jump\t// out\n        /* \"#utility.yul\":4651:5125   */\n    tag_49:\n        /* \"#utility.yul\":4719:4725   */\n      0x00\n        /* \"#utility.yul\":4727:4733   */\n      0x00\n        /* \"#utility.yul\":4776:4778   */\n      0x40\n        /* \"#utility.yul\":4764:4773   */\n      dup4\n        /* \"#utility.yul\":4755:4762   */\n      dup6\n        /* \"#utility.yul\":4751:4774   */\n      sub\n        /* \"#utility.yul\":4747:4779   */\n      slt\n        /* \"#utility.yul\":4744:4863   */\n      iszero\n      tag_216\n      jumpi\n        /* \"#utility.yul\":4782:4861   */\n      tag_217\n      tag_141\n      jump\t// in\n    tag_217:\n        /* \"#utility.yul\":4744:4863   */\n    tag_216:\n        /* \"#utility.yul\":4902:4903   */\n      0x00\n        /* \"#utility.yul\":4927:4980   */\n      tag_218\n        /* \"#utility.yul\":4972:4979   */\n      dup6\n        /* \"#utility.yul\":4963:4969   */\n      dup3\n        /* \"#utility.yul\":4952:4961   */\n      dup7\n        /* \"#utility.yul\":4948:4970   */\n      add\n        /* \"#utility.yul\":4927:4980   */\n      tag_146\n      jump\t// in\n    tag_218:\n        /* \"#utility.yul\":4917:4980   */\n      swap3\n      pop\n        /* \"#utility.yul\":4873:4990   */\n      pop\n        /* \"#utility.yul\":5029:5031   */\n      0x20\n        /* \"#utility.yul\":5055:5108   */\n      tag_219\n        /* \"#utility.yul\":5100:5107   */\n      dup6\n        /* \"#utility.yul\":5091:5097   */\n      dup3\n        /* \"#utility.yul\":5080:5089   */\n      dup7\n        /* \"#utility.yul\":5076:5098   */\n      add\n        /* \"#utility.yul\":5055:5108   */\n      tag_146\n      jump\t// in\n    tag_219:\n        /* \"#utility.yul\":5045:5108   */\n      swap2\n      pop\n        /* \"#utility.yul\":5000:5118   */\n      pop\n        /* \"#utility.yul\":4651:5125   */\n      swap3\n      pop\n      swap3\n      swap1\n      pop\n      jump\t// out\n        /* \"#utility.yul\":5131:5249   */\n    tag_153:\n        /* \"#utility.yul\":5218:5242   */\n      tag_221\n        /* \"#utility.yul\":5236:5241   */\n      dup2\n        /* \"#utility.yul\":5218:5242   */\n      tag_144\n      jump\t// in\n    tag_221:\n        /* \"#utility.yul\":5213:5216   */\n      dup3\n        /* \"#utility.yul\":5206:5243   */\n      mstore\n        /* \"#utility.yul\":5131:5249   */\n      pop\n      pop\n      jump\t// out\n        /* \"#utility.yul\":5255:5477   */\n    tag_62:\n        /* \"#utility.yul\":5348:5352   */\n      0x00\n        /* \"#utility.yul\":5386:5388   */\n      0x20\n        /* \"#utility.yul\":5375:5384   */\n      dup3\n        /* \"#utility.yul\":5371:5389   */\n      add\n        /* \"#utility.yul\":5363:5389   */\n      swap1\n      pop\n        /* \"#utility.yul\":5399:5470   */\n      tag_223\n        /* \"#utility.yul\":5467:5468   */\n      0x00\n        /* \"#utility.yul\":5456:5465   */\n      dup4\n        /* \"#utility.yul\":5452:5469   */\n      add\n        /* \"#utility.yul\":5443:5449   */\n      dup5\n        /* \"#utility.yul\":5399:5470   */\n      tag_153\n      jump\t// in\n    tag_223:\n        /* \"#utility.yul\":5255:5477   */\n      swap3\n      swap2\n      pop\n      pop\n      jump\t// out\n        /* \"#utility.yul\":5483:5957   */\n    tag_65:\n        /* \"#utility.yul\":5551:5557   */\n      0x00\n        /* \"#utility.yul\":5559:5565   */\n      0x00\n        /* \"#utility.yul\":5608:5610   */\n      0x40\n        /* \"#utility.yul\":5596:5605   */\n      dup4\n        /* \"#utility.yul\":5587:5594   */\n      dup6\n        /* \"#utility.yul\":5583:5606   */\n      sub\n        /* \"#utility.yul\":5579:5611   */\n      slt\n        /* \"#utility.yul\":5576:5695   */\n      iszero\n      tag_225\n      jumpi\n        /* \"#utility.yul\":5614:5693   */\n      tag_226\n      tag_141\n      jump\t// in\n    tag_226:\n        /* \"#utility.yul\":5576:5695   */\n    tag_225:\n        /* \"#utility.yul\":5734:5735   */\n      0x00\n        /* \"#utility.yul\":5759:5812   */\n      tag_227\n        /* \"#utility.yul\":5804:5811   */\n      dup6\n        /* \"#utility.yul\":5795:5801   */\n      dup3\n        /* \"#utility.yul\":5784:5793   */\n      dup7\n        /* \"#utility.yul\":5780:5802   */\n      add\n        /* \"#utility.yul\":5759:5812   */\n      tag_149\n      jump\t// in\n    tag_227:\n        /* \"#utility.yul\":5749:5812   */\n      swap3\n      pop\n        /* \"#utility.yul\":5705:5822   */\n      pop\n        /* \"#utility.yul\":5861:5863   */\n      0x20\n        /* \"#utility.yul\":5887:5940   */\n      tag_228\n        /* \"#utility.yul\":5932:5939   */\n      dup6\n        /* \"#utility.yul\":5923:5929   */\n      dup3\n        /* \"#utility.yul\":5912:5921   */\n      dup7\n        /* \"#utility.yul\":5908:5930   */\n      add\n        /* \"#utility.yul\":5887:5940   */\n      tag_146\n      jump\t// in\n    tag_228:\n        /* \"#utility.yul\":5877:5940   */\n      swap2\n      pop\n        /* \"#utility.yul\":5832:5950   */\n      pop\n        /* \"#utility.yul\":5483:5957   */\n      swap3\n      pop\n      swap3\n      swap1\n      pop\n      jump\t// out\n        /* \"#utility.yul\":5963:6143   */\n    tag_154:\n        /* \"#utility.yul\":6011:6088   */\n      0x4e487b7100000000000000000000000000000000000000000000000000000000\n        /* \"#utility.yul\":6008:6009   */\n      0x00\n        /* \"#utility.yul\":6001:6089   */\n      mstore\n        /* \"#utility.yul\":6108:6112   */\n      0x22\n        /* \"#utility.yul\":6105:6106   */\n      0x04\n        /* \"#utility.yul\":6098:6113   */\n      mstore\n        /* \"#utility.yul\":6132:6136   */\n      0x24\n        /* \"#utility.yul\":6129:6130   */\n      0x00\n        /* \"#utility.yul\":6122:6137   */\n      revert\n        /* \"#utility.yul\":6149:6469   */\n    tag_80:\n        /* \"#utility.yul\":6193:6199   */\n      0x00\n        /* \"#utility.yul\":6230:6231   */\n      0x02\n        /* \"#utility.yul\":6224:6228   */\n      dup3\n        /* \"#utility.yul\":6220:6232   */\n      div\n        /* \"#utility.yul\":6210:6232   */\n      swap1\n      pop\n        /* \"#utility.yul\":6277:6278   */\n      0x01\n        /* \"#utility.yul\":6271:6275   */\n      dup3\n        /* \"#utility.yul\":6267:6279   */\n      and\n        /* \"#utility.yul\":6298:6316   */\n      dup1\n        /* \"#utility.yul\":6288:6369   */\n      tag_231\n      jumpi\n        /* \"#utility.yul\":6354:6358   */\n      0x7f\n        /* \"#utility.yul\":6346:6352   */\n      dup3\n        /* \"#utility.yul\":6342:6359   */\n      and\n        /* \"#utility.yul\":6332:6359   */\n      swap2\n      pop\n        /* \"#utility.yul\":6288:6369   */\n    tag_231:\n        /* \"#utility.yul\":6416:6418   */\n      0x20\n        /* \"#utility.yul\":6408:6414   */\n      dup3\n        /* \"#utility.yul\":6405:6419   */\n      lt\n        /* \"#utility.yul\":6385:6403   */\n      dup2\n        /* \"#utility.yul\":6382:6420   */\n      sub\n        /* \"#utility.yul\":6379:6463   */\n      tag_232\n      jumpi\n        /* \"#utility.yul\":6435:6453   */\n      tag_233\n      tag_154\n      jump\t// in\n    tag_233:\n        /* \"#utility.yul\":6379:6463   */\n    tag_232:\n        /* \"#utility.yul\":6200:6469   */\n      pop\n        /* \"#utility.yul\":6149:6469   */\n      swap2\n      swap1\n      pop\n      jump\t// out\n        /* \"#utility.yul\":6475:6642   */\n    tag_155:\n        /* \"#utility.yul\":6615:6634   */\n      0x416c6c6f77616e636520746f6f206c6f77000000000000000000000000000000\n        /* \"#utility.yul\":6611:6612   */\n      0x00\n        /* \"#utility.yul\":6603:6609   */\n      dup3\n        /* \"#utility.yul\":6599:6613   */\n      add\n        /* \"#utility.yul\":6592:6635   */\n      mstore\n        /* \"#utility.yul\":6475:6642   */\n      pop\n      jump\t// out\n        /* \"#utility.yul\":6648:7014   */\n    tag_156:\n        /* \"#utility.yul\":6790:6793   */\n      0x00\n        /* \"#utility.yul\":6811:6878   */\n      tag_236\n        /* \"#utility.yul\":6875:6877   */\n      0x11\n        /* \"#utility.yul\":6870:6873   */\n      dup4\n        /* \"#utility.yul\":6811:6878   */\n      tag_136\n      jump\t// in\n    tag_236:\n        /* \"#utility.yul\":6804:6878   */\n      swap2\n      pop\n        /* \"#utility.yul\":6887:6980   */\n      tag_237\n        /* \"#utility.yul\":6976:6979   */\n      dup3\n        /* \"#utility.yul\":6887:6980   */\n      tag_155\n      jump\t// in\n    tag_237:\n        /* \"#utility.yul\":7005:7007   */\n      0x20\n        /* \"#utility.yul\":7000:7003   */\n      dup3\n        /* \"#utility.yul\":6996:7008   */\n      add\n        /* \"#utility.yul\":6989:7008   */\n      swap1\n      pop\n        /* \"#utility.yul\":6648:7014   */\n      swap2\n      swap1\n      pop\n      jump\t// out\n        /* \"#utility.yul\":7020:7439   */\n    tag_92:\n        /* \"#utility.yul\":7186:7190   */\n      0x00\n        /* \"#utility.yul\":7224:7226   */\n      0x20\n        /* \"#utility.yul\":7213:7222   */\n      dup3\n        /* \"#utility.yul\":7209:7227   */\n      add\n        /* \"#utility.yul\":7201:7227   */\n      swap1\n      pop\n        /* \"#utility.yul\":7273:7282   */\n      dup2\n        /* \"#utility.yul\":7267:7271   */\n      dup2\n        /* \"#utility.yul\":7263:7283   */\n      sub\n        /* \"#utility.yul\":7259:7260   */\n      0x00\n        /* \"#utility.yul\":7248:7257   */\n      dup4\n        /* \"#utility.yul\":7244:7261   */\n      add\n        /* \"#utility.yul\":7237:7284   */\n      mstore\n        /* \"#utility.yul\":7301:7432   */\n      tag_239\n        /* \"#utility.yul\":7427:7431   */\n      dup2\n        /* \"#utility.yul\":7301:7432   */\n      tag_156\n      jump\t// in\n    tag_239:\n        /* \"#utility.yul\":7293:7432   */\n      swap1\n      pop\n        /* \"#utility.yul\":7020:7439   */\n      swap2\n      swap1\n      pop\n      jump\t// out\n        /* \"#utility.yul\":7445:7625   */\n    tag_157:\n        /* \"#utility.yul\":7493:7570   */\n      0x4e487b7100000000000000000000000000000000000000000000000000000000\n        /* \"#utility.yul\":7490:7491   */\n      0x00\n        /* \"#utility.yul\":7483:7571   */\n      mstore\n        /* \"#utility.yul\":7590:7594   */\n      0x11\n        /* \"#utility.yul\":7587:7588   */\n      0x04\n        /* \"#utility.yul\":7580:7595   */\n      mstore\n        /* \"#utility.yul\":7614:7618   */\n      0x24\n        /* \"#utility.yul\":7611:7612   */\n      0x00\n        /* \"#utility.yul\":7604:7619   */\n      revert\n        /* \"#utility.yul\":7631:7825   */\n    tag_96:\n        /* \"#utility.yul\":7671:7675   */\n      0x00\n        /* \"#utility.yul\":7691:7711   */\n      tag_242\n        /* \"#utility.yul\":7709:7710   */\n      dup3\n        /* \"#utility.yul\":7691:7711   */\n      tag_147\n      jump\t// in\n    tag_242:\n        /* \"#utility.yul\":7686:7711   */\n      swap2\n      pop\n        /* \"#utility.yul\":7725:7745   */\n      tag_243\n        /* \"#utility.yul\":7743:7744   */\n      dup4\n        /* \"#utility.yul\":7725:7745   */\n      tag_147\n      jump\t// in\n    tag_243:\n        /* \"#utility.yul\":7720:7745   */\n      swap3\n      pop\n        /* \"#utility.yul\":7769:7770   */\n      dup3\n        /* \"#utility.yul\":7766:7767   */\n      dup3\n        /* \"#utility.yul\":7762:7771   */\n      sub\n        /* \"#utility.yul\":7754:7771   */\n      swap1\n      pop\n        /* \"#utility.yul\":7793:7794   */\n      dup2\n        /* \"#utility.yul\":7787:7791   */\n      dup2\n        /* \"#utility.yul\":7784:7795   */\n      gt\n        /* \"#utility.yul\":7781:7818   */\n      iszero\n      tag_244\n      jumpi\n        /* \"#utility.yul\":7798:7816   */\n      tag_245\n      tag_157\n      jump\t// in\n    tag_245:\n        /* \"#utility.yul\":7781:7818   */\n    tag_244:\n        /* \"#utility.yul\":7631:7825   */\n      swap3\n      swap2\n      pop\n      pop\n      jump\t// out\n        /* \"#utility.yul\":7831:8022   */\n    tag_99:\n        /* \"#utility.yul\":7871:7874   */\n      0x00\n        /* \"#utility.yul\":7890:7910   */\n      tag_247\n        /* \"#utility.yul\":7908:7909   */\n      dup3\n        /* \"#utility.yul\":7890:7910   */\n      tag_147\n      jump\t// in\n    tag_247:\n        /* \"#utility.yul\":7885:7910   */\n      swap2\n      pop\n        /* \"#utility.yul\":7924:7944   */\n      tag_248\n        /* \"#utility.yul\":7942:7943   */\n      dup4\n        /* \"#utility.yul\":7924:7944   */\n      tag_147\n      jump\t// in\n    tag_248:\n        /* \"#utility.yul\":7919:7944   */\n      swap3\n      pop\n        /* \"#utility.yul\":7967:7968   */\n      dup3\n        /* \"#utility.yul\":7964:7965   */\n      dup3\n        /* \"#utility.yul\":7960:7969   */\n      add\n        /* \"#utility.yul\":7953:7969   */\n      swap1\n      pop\n        /* \"#utility.yul\":7988:7991   */\n      dup1\n        /* \"#utility.yul\":7985:7986   */\n      dup3\n        /* \"#utility.yul\":7982:7992   */\n      gt\n        /* \"#utility.yul\":7979:8015   */\n      iszero\n      tag_249\n      jumpi\n        /* \"#utility.yul\":7995:8013   */\n      tag_250\n      tag_157\n      jump\t// in\n    tag_250:\n        /* \"#utility.yul\":7979:8015   */\n    tag_249:\n        /* \"#utility.yul\":7831:8022   */\n      swap3\n      swap2\n      pop\n      pop\n      jump\t// out\n        /* \"#utility.yul\":8028:8192   */\n    tag_158:\n        /* \"#utility.yul\":8168:8184   */\n      0x4e6f7420616e206f776e64657221000000000000000000000000000000000000\n        /* \"#utility.yul\":8164:8165   */\n      0x00\n        /* \"#utility.yul\":8156:8162   */\n      dup3\n        /* \"#utility.yul\":8152:8166   */\n      add\n        /* \"#utility.yul\":8145:8185   */\n      mstore\n        /* \"#utility.yul\":8028:8192   */\n      pop\n      jump\t// out\n        /* \"#utility.yul\":8198:8564   */\n    tag_159:\n        /* \"#utility.yul\":8340:8343   */\n      0x00\n        /* \"#utility.yul\":8361:8428   */\n      tag_253\n        /* \"#utility.yul\":8425:8427   */\n      0x0e\n        /* \"#utility.yul\":8420:8423   */\n      dup4\n        /* \"#utility.yul\":8361:8428   */\n      tag_136\n      jump\t// in\n    tag_253:\n        /* \"#utility.yul\":8354:8428   */\n      swap2\n      pop\n        /* \"#utility.yul\":8437:8530   */\n      tag_254\n        /* \"#utility.yul\":8526:8529   */\n      dup3\n        /* \"#utility.yul\":8437:8530   */\n      tag_158\n      jump\t// in\n    tag_254:\n        /* \"#utility.yul\":8555:8557   */\n      0x20\n        /* \"#utility.yul\":8550:8553   */\n      dup3\n        /* \"#utility.yul\":8546:8558   */\n      add\n        /* \"#utility.yul\":8539:8558   */\n      swap1\n      pop\n        /* \"#utility.yul\":8198:8564   */\n      swap2\n      swap1\n      pop\n      jump\t// out\n        /* \"#utility.yul\":8570:8989   */\n    tag_106:\n        /* \"#utility.yul\":8736:8740   */\n      0x00\n        /* \"#utility.yul\":8774:8776   */\n      0x20\n        /* \"#utility.yul\":8763:8772   */\n      dup3\n        /* \"#utility.yul\":8759:8777   */\n      add\n        /* \"#utility.yul\":8751:8777   */\n      swap1\n      pop\n        /* \"#utility.yul\":8823:8832   */\n      dup2\n        /* \"#utility.yul\":8817:8821   */\n      dup2\n        /* \"#utility.yul\":8813:8833   */\n      sub\n        /* \"#utility.yul\":8809:8810   */\n      0x00\n        /* \"#utility.yul\":8798:8807   */\n      dup4\n        /* \"#utility.yul\":8794:8811   */\n      add\n        /* \"#utility.yul\":8787:8834   */\n      mstore\n        /* \"#utility.yul\":8851:8982   */\n      tag_256\n        /* \"#utility.yul\":8977:8981   */\n      dup2\n        /* \"#utility.yul\":8851:8982   */\n      tag_159\n      jump\t// in\n    tag_256:\n        /* \"#utility.yul\":8843:8982   */\n      swap1\n      pop\n        /* \"#utility.yul\":8570:8989   */\n      swap2\n      swap1\n      pop\n      jump\t// out\n        /* \"#utility.yul\":8995:9163   */\n    tag_160:\n        /* \"#utility.yul\":9135:9155   */\n      0x4e6f7420656e6f75676820746f6b656e73210000000000000000000000000000\n        /* \"#utility.yul\":9131:9132   */\n      0x00\n        /* \"#utility.yul\":9123:9129   */\n      dup3\n        /* \"#utility.yul\":9119:9133   */\n      add\n        /* \"#utility.yul\":9112:9156   */\n      mstore\n        /* \"#utility.yul\":8995:9163   */\n      pop\n      jump\t// out\n        /* \"#utility.yul\":9169:9535   */\n    tag_161:\n        /* \"#utility.yul\":9311:9314   */\n      0x00\n        /* \"#utility.yul\":9332:9399   */\n      tag_259\n        /* \"#utility.yul\":9396:9398   */\n      0x12\n        /* \"#utility.yul\":9391:9394   */\n      dup4\n        /* \"#utility.yul\":9332:9399   */\n      tag_136\n      jump\t// in\n    tag_259:\n        /* \"#utility.yul\":9325:9399   */\n      swap2\n      pop\n        /* \"#utility.yul\":9408:9501   */\n      tag_260\n        /* \"#utility.yul\":9497:9500   */\n      dup3\n        /* \"#utility.yul\":9408:9501   */\n      tag_160\n      jump\t// in\n    tag_260:\n        /* \"#utility.yul\":9526:9528   */\n      0x20\n        /* \"#utility.yul\":9521:9524   */\n      dup3\n        /* \"#utility.yul\":9517:9529   */\n      add\n        /* \"#utility.yul\":9510:9529   */\n      swap1\n      pop\n        /* \"#utility.yul\":9169:9535   */\n      swap2\n      swap1\n      pop\n      jump\t// out\n        /* \"#utility.yul\":9541:9960   */\n    tag_120:\n        /* \"#utility.yul\":9707:9711   */\n      0x00\n        /* \"#utility.yul\":9745:9747   */\n      0x20\n        /* \"#utility.yul\":9734:9743   */\n      dup3\n        /* \"#utility.yul\":9730:9748   */\n      add\n        /* \"#utility.yul\":9722:9748   */\n      swap1\n      pop\n        /* \"#utility.yul\":9794:9803   */\n      dup2\n        /* \"#utility.yul\":9788:9792   */\n      dup2\n        /* \"#utility.yul\":9784:9804   */\n      sub\n        /* \"#utility.yul\":9780:9781   */\n      0x00\n        /* \"#utility.yul\":9769:9778   */\n      dup4\n        /* \"#utility.yul\":9765:9782   */\n      add\n        /* \"#utility.yul\":9758:9805   */\n      mstore\n        /* \"#utility.yul\":9822:9953   */\n      tag_262\n        /* \"#utility.yul\":9948:9952   */\n      dup2\n        /* \"#utility.yul\":9822:9953   */\n      tag_161\n      jump\t// in\n    tag_262:\n        /* \"#utility.yul\":9814:9953   */\n      swap1\n      pop\n        /* \"#utility.yul\":9541:9960   */\n      swap2\n      swap1\n      pop\n      jump\t// out\n\n    auxdata: 0xa2646970667358221220d68724ce386d9b7706570298a335e5c0be656679ee1c2db6cce93d03d7dd252564736f6c634300081d0033\n}\n",
				"bytecode": {
					"linkReferences": {},
					"object": "608060405234801561000f575f5ffd5b506040516118673803806118678339818101604052810190610031919061036d565b83600490816100409190610610565b5082600590816100509190610610565b50335f5f6101000a81548173ffffffffffffffffffffffffffffffffffffffff021916908373ffffffffffffffffffffffffffffffffffffffff1602179055506100a082826100a960201b60201c565b50505050610767565b6100ba5f828461018e60201b60201c565b8160015f8282546100cb919061070c565b925050819055508160025f8373ffffffffffffffffffffffffffffffffffffffff1673ffffffffffffffffffffffffffffffffffffffff1681526020019081526020015f205f82825461011e919061070c565b925050819055508073ffffffffffffffffffffffffffffffffffffffff165f73ffffffffffffffffffffffffffffffffffffffff167fddf252ad1be2c89b69c2b068fc378daa952ba7f163c4a11628f55a4df523b3ef84604051610182919061074e565b60405180910390a35050565b505050565b5f604051905090565b5f5ffd5b5f5ffd5b5f5ffd5b5f5ffd5b5f601f19601f8301169050919050565b7f4e487b71000000000000000000000000000000000000000000000000000000005f52604160045260245ffd5b6101f2826101ac565b810181811067ffffffffffffffff82111715610211576102106101bc565b5b80604052505050565b5f610223610193565b905061022f82826101e9565b919050565b5f67ffffffffffffffff82111561024e5761024d6101bc565b5b610257826101ac565b9050602081019050919050565b8281835e5f83830152505050565b5f61028461027f84610234565b61021a565b9050828152602081018484840111156102a05761029f6101a8565b5b6102ab848285610264565b509392505050565b5f82601f8301126102c7576102c66101a4565b5b81516102d7848260208601610272565b91505092915050565b5f819050919050565b6102f2816102e0565b81146102fc575f5ffd5b50565b5f8151905061030d816102e9565b92915050565b5f73ffffffffffffffffffffffffffffffffffffffff82169050919050565b5f61033c82610313565b9050919050565b61034c81610332565b8114610356575f5ffd5b50565b5f8151905061036781610343565b92915050565b5f5f5f5f608085870312156103855761038461019c565b5b5f85015167ffffffffffffffff8111156103a2576103a16101a0565b5b6103ae878288016102b3565b945050602085015167ffffffffffffffff8111156103cf576103ce6101a0565b5b6103db878288016102b3565b93505060406103ec878288016102ff565b92505060606103fd87828801610359565b91505092959194509250565b5f81519050919050565b7f4e487b71000000000000000000000000000000000000000000000000000000005f52602260045260245ffd5b5f600282049050600182168061045757607f821691505b60208210810361046a57610469610413565b5b50919050565b5f819050815f5260205f209050919050565b5f6020601f8301049050919050565b5f82821b905092915050565b5f600883026104cc7fffffffffffffffffffffffffffffffffffffffffffffffffffffffffffffffff82610491565b6104d68683610491565b95508019841693508086168417925050509392505050565b5f819050919050565b5f61051161050c610507846102e0565b6104ee565b6102e0565b9050919050565b5f819050919050565b61052a836104f7565b61053e61053682610518565b84845461049d565b825550505050565b5f5f905090565b610555610546565b610560818484610521565b505050565b5b81811015610583576105785f8261054d565b600181019050610566565b5050565b601f8211156105c85761059981610470565b6105a284610482565b810160208510156105b1578190505b6105c56105bd85610482565b830182610565565b50505b505050565b5f82821c905092915050565b5f6105e85f19846008026105cd565b1980831691505092915050565b5f61060083836105d9565b9150826002028217905092915050565b61061982610409565b67ffffffffffffffff811115610632576106316101bc565b5b61063c8254610440565b610647828285610587565b5f60209050601f831160018114610678575f8415610666578287015190505b61067085826105f5565b8655506106d7565b601f19841661068686610470565b5f5b828110156106ad57848901518255600182019150602085019450602081019050610688565b868310156106ca57848901516106c6601f8916826105d9565b8355505b6001600288020188555050505b505050505050565b7f4e487b71000000000000000000000000000000000000000000000000000000005f52601160045260245ffd5b5f610716826102e0565b9150610721836102e0565b9250828201905080821115610739576107386106df565b5b92915050565b610748816102e0565b82525050565b5f6020820190506107615f83018461073f565b92915050565b6110f3806107745f395ff3fe608060405234801561000f575f5ffd5b50600436106100e8575f3560e01c806370a082311161008a57806394bf804d1161006457806394bf804d1461027257806395d89b411461028e578063a9059cbb146102ac578063dd62ed3e146102dc576100e8565b806370a08231146102065780637e1c0c09146102365780638da5cb5b14610254576100e8565b806323b872dd116100c657806323b872dd1461015857806327e235e314610188578063313ce567146101b857806355b6ed5c146101d6576100e8565b806306fdde03146100ec578063095ea7b31461010a57806318160ddd1461013a575b5f5ffd5b6100f461030c565b6040516101019190610c2c565b60405180910390f35b610124600480360381019061011f9190610cdd565b61039c565b6040516101319190610d35565b60405180910390f35b6101426103b2565b60405161014f9190610d5d565b60405180910390f35b610172600480360381019061016d9190610d76565b6103bb565b60405161017f9190610d35565b60405180910390f35b6101a2600480360381019061019d9190610dc6565b610626565b6040516101af9190610d5d565b60405180910390f35b6101c061063b565b6040516101cd9190610d5d565b60405180910390f35b6101f060048036038101906101eb9190610df1565b610643565b6040516101fd9190610d5d565b60405180910390f35b610220600480360381019061021b9190610dc6565b610663565b60405161022d9190610d5d565b60405180910390f35b61023e6106a9565b60405161024b9190610d5d565b60405180910390f35b61025c6106af565b6040516102699190610e3e565b60405180910390f35b61028c60048036038101906102879190610e57565b6106d3565b005b61029661076f565b6040516102a39190610c2c565b60405180910390f35b6102c660048036038101906102c19190610cdd565b6107ff565b6040516102d39190610d35565b60405180910390f35b6102f660048036038101906102f19190610df1565b61096f565b6040516103039190610d5d565b60405180910390f35b60606004805461031b90610ec2565b80601f016020809104026020016040519081016040528092919081815260200182805461034790610ec2565b80156103925780601f1061036957610100808354040283529160200191610392565b820191905f5260205f20905b81548152906001019060200180831161037557829003601f168201915b5050505050905090565b5f6103a83384846109f1565b6001905092915050565b5f600154905090565b5f8160035f8673ffffffffffffffffffffffffffffffffffffffff1673ffffffffffffffffffffffffffffffffffffffff1681526020019081526020015f205f3373ffffffffffffffffffffffffffffffffffffffff1673ffffffffffffffffffffffffffffffffffffffff1681526020019081526020015f20541015610477576040517f08c379a000000000000000000000000000000000000000000000000000000000815260040161046e90610f3c565b60405180910390fd5b610482848484610ad8565b8160035f8673ffffffffffffffffffffffffffffffffffffffff1673ffffffffffffffffffffffffffffffffffffffff1681526020019081526020015f205f3373ffffffffffffffffffffffffffffffffffffffff1673ffffffffffffffffffffffffffffffffffffffff1681526020019081526020015f205f8282546105099190610f87565b925050819055508160025f8673ffffffffffffffffffffffffffffffffffffffff1673ffffffffffffffffffffffffffffffffffffffff1681526020019081526020015f205f82825461055c9190610f87565b925050819055508160025f8573ffffffffffffffffffffffffffffffffffffffff1673ffffffffffffffffffffffffffffffffffffffff1681526020019081526020015f205f8282546105af9190610fba565b925050819055508273ffffffffffffffffffffffffffffffffffffffff168473ffffffffffffffffffffffffffffffffffffffff167fddf252ad1be2c89b69c2b068fc378daa952ba7f163c4a11628f55a4df523b3ef846040516106139190610d5d565b60405180910390a3600190509392505050565b6002602052805f5260405f205f915090505481565b5f6012905090565b6003602052815f5260405f20602052805f5260405f205f91509150505481565b5f60025f8373ffffffffffffffffffffffffffffffffffffffff1673ffffffffffffffffffffffffffffffffffffffff1681526020019081526020015f20549050919050565b60015481565b5f5f9054906101000a900473ffffffffffffffffffffffffffffffffffffffff1681565b3373ffffffffffffffffffffffffffffffffffffffff165f5f9054906101000a900473ffffffffffffffffffffffffffffffffffffffff1673ffffffffffffffffffffffffffffffffffffffff1614610761576040517f08c379a000000000000000000000000000000000000000000000000000000000815260040161075890611037565b60405180910390fd5b61076b8282610add565b5050565b60606005805461077e90610ec2565b80601f01602080910402602001604051908101604052809291908181526020018280546107aa90610ec2565b80156107f55780601f106107cc576101008083540402835291602001916107f5565b820191905f5260205f20905b8154815290600101906020018083116107d857829003601f168201915b5050505050905090565b5f33828061080c83610663565b101561084d576040517f08c379a00000000000000000000000000000000000000000000000000000000081526004016108449061109f565b60405180910390fd5b610858338686610ad8565b8360025f3373ffffffffffffffffffffffffffffffffffffffff1673ffffffffffffffffffffffffffffffffffffffff1681526020019081526020015f205f8282546108a49190610f87565b925050819055508360025f8773ffffffffffffffffffffffffffffffffffffffff1673ffffffffffffffffffffffffffffffffffffffff1681526020019081526020015f205f8282546108f79190610fba565b925050819055508473ffffffffffffffffffffffffffffffffffffffff163373ffffffffffffffffffffffffffffffffffffffff167fddf252ad1be2c89b69c2b068fc378daa952ba7f163c4a11628f55a4df523b3ef8660405161095b9190610d5d565b60405180910390a360019250505092915050565b5f60035f8473ffffffffffffffffffffffffffffffffffffffff1673ffffffffffffffffffffffffffffffffffffffff1681526020019081526020015f205f8373ffffffffffffffffffffffffffffffffffffffff1673ffffffffffffffffffffffffffffffffffffffff1681526020019081526020015f2054905092915050565b8060035f8573ffffffffffffffffffffffffffffffffffffffff1673ffffffffffffffffffffffffffffffffffffffff1681526020019081526020015f205f8473ffffffffffffffffffffffffffffffffffffffff1673ffffffffffffffffffffffffffffffffffffffff1681526020019081526020015f20819055508173ffffffffffffffffffffffffffffffffffffffff168373ffffffffffffffffffffffffffffffffffffffff167f8c5be1e5ebec7d5bd14f71427d1e84f3dd0314c0f7b2291e5b200ac8c7c3b92583604051610acb9190610d5d565b60405180910390a3505050565b505050565b610ae85f8284610ad8565b8160015f828254610af99190610fba565b925050819055508160025f8373ffffffffffffffffffffffffffffffffffffffff1673ffffffffffffffffffffffffffffffffffffffff1681526020019081526020015f205f828254610b4c9190610fba565b925050819055508073ffffffffffffffffffffffffffffffffffffffff165f73ffffffffffffffffffffffffffffffffffffffff167fddf252ad1be2c89b69c2b068fc378daa952ba7f163c4a11628f55a4df523b3ef84604051610bb09190610d5d565b60405180910390a35050565b5f81519050919050565b5f82825260208201905092915050565b8281835e5f83830152505050565b5f601f19601f8301169050919050565b5f610bfe82610bbc565b610c088185610bc6565b9350610c18818560208601610bd6565b610c2181610be4565b840191505092915050565b5f6020820190508181035f830152610c448184610bf4565b905092915050565b5f5ffd5b5f73ffffffffffffffffffffffffffffffffffffffff82169050919050565b5f610c7982610c50565b9050919050565b610c8981610c6f565b8114610c93575f5ffd5b50565b5f81359050610ca481610c80565b92915050565b5f819050919050565b610cbc81610caa565b8114610cc6575f5ffd5b50565b5f81359050610cd781610cb3565b92915050565b5f5f60408385031215610cf357610cf2610c4c565b5b5f610d0085828601610c96565b9250506020610d1185828601610cc9565b9150509250929050565b5f8115159050919050565b610d2f81610d1b565b82525050565b5f602082019050610d485f830184610d26565b92915050565b610d5781610caa565b82525050565b5f602082019050610d705f830184610d4e565b92915050565b5f5f5f60608486031215610d8d57610d8c610c4c565b5b5f610d9a86828701610c96565b9350506020610dab86828701610c96565b9250506040610dbc86828701610cc9565b9150509250925092565b5f60208284031215610ddb57610dda610c4c565b5b5f610de884828501610c96565b91505092915050565b5f5f60408385031215610e0757610e06610c4c565b5b5f610e1485828601610c96565b9250506020610e2585828601610c96565b9150509250929050565b610e3881610c6f565b82525050565b5f602082019050610e515f830184610e2f565b92915050565b5f5f60408385031215610e6d57610e6c610c4c565b5b5f610e7a85828601610cc9565b9250506020610e8b85828601610c96565b9150509250929050565b7f4e487b71000000000000000000000000000000000000000000000000000000005f52602260045260245ffd5b5f6002820490506001821680610ed957607f821691505b602082108103610eec57610eeb610e95565b5b50919050565b7f416c6c6f77616e636520746f6f206c6f770000000000000000000000000000005f82015250565b5f610f26601183610bc6565b9150610f3182610ef2565b602082019050919050565b5f6020820190508181035f830152610f5381610f1a565b9050919050565b7f4e487b71000000000000000000000000000000000000000000000000000000005f52601160045260245ffd5b5f610f9182610caa565b9150610f9c83610caa565b9250828203905081811115610fb457610fb3610f5a565b5b92915050565b5f610fc482610caa565b9150610fcf83610caa565b9250828201905080821115610fe757610fe6610f5a565b5b92915050565b7f4e6f7420616e206f776e646572210000000000000000000000000000000000005f82015250565b5f611021600e83610bc6565b915061102c82610fed565b602082019050919050565b5f6020820190508181035f83015261104e81611015565b9050919050565b7f4e6f7420656e6f75676820746f6b656e732100000000000000000000000000005f82015250565b5f611089601283610bc6565b915061109482611055565b602082019050919050565b5f6020820190508181035f8301526110b68161107d565b905091905056fea2646970667358221220d68724ce386d9b7706570298a335e5c0be656679ee1c2db6cce93d03d7dd252564736f6c634300081d0033",
					"opcodes": "PUSH1 0x80 PUSH1 0x40 MSTORE CALLVALUE DUP1 ISZERO PUSH2 0xF JUMPI PUSH0 PUSH0 REVERT JUMPDEST POP PUSH1 0x40 MLOAD PUSH2 0x1867 CODESIZE SUB DUP1 PUSH2 0x1867 DUP4 CODECOPY DUP2 DUP2 ADD PUSH1 0x40 MSTORE DUP2 ADD SWAP1 PUSH2 0x31 SWAP2 SWAP1 PUSH2 0x36D JUMP JUMPDEST DUP4 PUSH1 0x4 SWAP1 DUP2 PUSH2 0x40 SWAP2 SWAP1 PUSH2 0x610 JUMP JUMPDEST POP DUP3 PUSH1 0x5 SWAP1 DUP2 PUSH2 0x50 SWAP2 SWAP1 PUSH2 0x610 JUMP JUMPDEST POP CALLER PUSH0 PUSH0 PUSH2 0x100 EXP DUP2 SLOAD DUP2 PUSH20 0xFFFFFFFFFFFFFFFFFFFFFFFFFFFFFFFFFFFFFFFF MUL NOT AND SWAP1 DUP4 PUSH20 0xFFFFFFFFFFFFFFFFFFFFFFFFFFFFFFFFFFFFFFFF AND MUL OR SWAP1 SSTORE POP PUSH2 0xA0 DUP3 DUP3 PUSH2 0xA9 PUSH1 0x20 SHL PUSH1 0x20 SHR JUMP JUMPDEST POP POP POP POP PUSH2 0x767 JUMP JUMPDEST PUSH2 0xBA PUSH0 DUP3 DUP5 PUSH2 0x18E PUSH1 0x20 SHL PUSH1 0x20 SHR JUMP JUMPDEST DUP2 PUSH1 0x1 PUSH0 DUP3 DUP3 SLOAD PUSH2 0xCB SWAP2 SWAP1 PUSH2 0x70C JUMP JUMPDEST SWAP3 POP POP DUP2 SWAP1 SSTORE POP DUP2 PUSH1 0x2 PUSH0 DUP4 PUSH20 0xFFFFFFFFFFFFFFFFFFFFFFFFFFFFFFFFFFFFFFFF AND PUSH20 0xFFFFFFFFFFFFFFFFFFFFFFFFFFFFFFFFFFFFFFFF AND DUP2 MSTORE PUSH1 0x20 ADD SWAP1 DUP2 MSTORE PUSH1 0x20 ADD PUSH0 KECCAK256 PUSH0 DUP3 DUP3 SLOAD PUSH2 0x11E SWAP2 SWAP1 PUSH2 0x70C JUMP JUMPDEST SWAP3 POP POP DUP2 SWAP1 SSTORE POP DUP1 PUSH20 0xFFFFFFFFFFFFFFFFFFFFFFFFFFFFFFFFFFFFFFFF AND PUSH0 PUSH20 0xFFFFFFFFFFFFFFFFFFFFFFFFFFFFFFFFFFFFFFFF AND PUSH32 0xDDF252AD1BE2C89B69C2B068FC378DAA952BA7F163C4A11628F55A4DF523B3EF DUP5 PUSH1 0x40 MLOAD PUSH2 0x182 SWAP2 SWAP1 PUSH2 0x74E JUMP JUMPDEST PUSH1 0x40 MLOAD DUP1 SWAP2 SUB SWAP1 LOG3 POP POP JUMP JUMPDEST POP POP POP JUMP JUMPDEST PUSH0 PUSH1 0x40 MLOAD SWAP1 POP SWAP1 JUMP JUMPDEST PUSH0 PUSH0 REVERT JUMPDEST PUSH0 PUSH0 REVERT JUMPDEST PUSH0 PUSH0 REVERT JUMPDEST PUSH0 PUSH0 REVERT JUMPDEST PUSH0 PUSH1 0x1F NOT PUSH1 0x1F DUP4 ADD AND SWAP1 POP SWAP2 SWAP1 POP JUMP JUMPDEST PUSH32 0x4E487B7100000000000000000000000000000000000000000000000000000000 PUSH0 MSTORE PUSH1 0x41 PUSH1 0x4 MSTORE PUSH1 0x24 PUSH0 REVERT JUMPDEST PUSH2 0x1F2 DUP3 PUSH2 0x1AC JUMP JUMPDEST DUP2 ADD DUP2 DUP2 LT PUSH8 0xFFFFFFFFFFFFFFFF DUP3 GT OR ISZERO PUSH2 0x211 JUMPI PUSH2 0x210 PUSH2 0x1BC JUMP JUMPDEST JUMPDEST DUP1 PUSH1 0x40 MSTORE POP POP POP JUMP JUMPDEST PUSH0 PUSH2 0x223 PUSH2 0x193 JUMP JUMPDEST SWAP1 POP PUSH2 0x22F DUP3 DUP3 PUSH2 0x1E9 JUMP JUMPDEST SWAP2 SWAP1 POP JUMP JUMPDEST PUSH0 PUSH8 0xFFFFFFFFFFFFFFFF DUP3 GT ISZERO PUSH2 0x24E JUMPI PUSH2 0x24D PUSH2 0x1BC JUMP JUMPDEST JUMPDEST PUSH2 0x257 DUP3 PUSH2 0x1AC JUMP JUMPDEST SWAP1 POP PUSH1 0x20 DUP2 ADD SWAP1 POP SWAP2 SWAP1 POP JUMP JUMPDEST DUP3 DUP2 DUP4 MCOPY PUSH0 DUP4 DUP4 ADD MSTORE POP POP POP JUMP JUMPDEST PUSH0 PUSH2 0x284 PUSH2 0x27F DUP5 PUSH2 0x234 JUMP JUMPDEST PUSH2 0x21A JUMP JUMPDEST SWAP1 POP DUP3 DUP2 MSTORE PUSH1 0x20 DUP2 ADD DUP5 DUP5 DUP5 ADD GT ISZERO PUSH2 0x2A0 JUMPI PUSH2 0x29F PUSH2 0x1A8 JUMP JUMPDEST JUMPDEST PUSH2 0x2AB DUP5 DUP3 DUP6 PUSH2 0x264 JUMP JUMPDEST POP SWAP4 SWAP3 POP POP POP JUMP JUMPDEST PUSH0 DUP3 PUSH1 0x1F DUP4 ADD SLT PUSH2 0x2C7 JUMPI PUSH2 0x2C6 PUSH2 0x1A4 JUMP JUMPDEST JUMPDEST DUP2 MLOAD PUSH2 0x2D7 DUP5 DUP3 PUSH1 0x20 DUP7 ADD PUSH2 0x272 JUMP JUMPDEST SWAP2 POP POP SWAP3 SWAP2 POP POP JUMP JUMPDEST PUSH0 DUP2 SWAP1 POP SWAP2 SWAP1 POP JUMP JUMPDEST PUSH2 0x2F2 DUP2 PUSH2 0x2E0 JUMP JUMPDEST DUP2 EQ PUSH2 0x2FC JUMPI PUSH0 PUSH0 REVERT JUMPDEST POP JUMP JUMPDEST PUSH0 DUP2 MLOAD SWAP1 POP PUSH2 0x30D DUP2 PUSH2 0x2E9 JUMP JUMPDEST SWAP3 SWAP2 POP POP JUMP JUMPDEST PUSH0 PUSH20 0xFFFFFFFFFFFFFFFFFFFFFFFFFFFFFFFFFFFFFFFF DUP3 AND SWAP1 POP SWAP2 SWAP1 POP JUMP JUMPDEST PUSH0 PUSH2 0x33C DUP3 PUSH2 0x313 JUMP JUMPDEST SWAP1 POP SWAP2 SWAP1 POP JUMP JUMPDEST PUSH2 0x34C DUP2 PUSH2 0x332 JUMP JUMPDEST DUP2 EQ PUSH2 0x356 JUMPI PUSH0 PUSH0 REVERT JUMPDEST POP JUMP JUMPDEST PUSH0 DUP2 MLOAD SWAP1 POP PUSH2 0x367 DUP2 PUSH2 0x343 JUMP JUMPDEST SWAP3 SWAP2 POP POP JUMP JUMPDEST PUSH0 PUSH0 PUSH0 PUSH0 PUSH1 0x80 DUP6 DUP8 SUB SLT ISZERO PUSH2 0x385 JUMPI PUSH2 0x384 PUSH2 0x19C JUMP JUMPDEST JUMPDEST PUSH0 DUP6 ADD MLOAD PUSH8 0xFFFFFFFFFFFFFFFF DUP2 GT ISZERO PUSH2 0x3A2 JUMPI PUSH2 0x3A1 PUSH2 0x1A0 JUMP JUMPDEST JUMPDEST PUSH2 0x3AE DUP8 DUP3 DUP9 ADD PUSH2 0x2B3 JUMP JUMPDEST SWAP5 POP POP PUSH1 0x20 DUP6 ADD MLOAD PUSH8 0xFFFFFFFFFFFFFFFF DUP2 GT ISZERO PUSH2 0x3CF JUMPI PUSH2 0x3CE PUSH2 0x1A0 JUMP JUMPDEST JUMPDEST PUSH2 0x3DB DUP8 DUP3 DUP9 ADD PUSH2 0x2B3 JUMP JUMPDEST SWAP4 POP POP PUSH1 0x40 PUSH2 0x3EC DUP8 DUP3 DUP9 ADD PUSH2 0x2FF JUMP JUMPDEST SWAP3 POP POP PUSH1 0x60 PUSH2 0x3FD DUP8 DUP3 DUP9 ADD PUSH2 0x359 JUMP JUMPDEST SWAP2 POP POP SWAP3 SWAP6 SWAP2 SWAP5 POP SWAP3 POP JUMP JUMPDEST PUSH0 DUP2 MLOAD SWAP1 POP SWAP2 SWAP1 POP JUMP JUMPDEST PUSH32 0x4E487B7100000000000000000000000000000000000000000000000000000000 PUSH0 MSTORE PUSH1 0x22 PUSH1 0x4 MSTORE PUSH1 0x24 PUSH0 REVERT JUMPDEST PUSH0 PUSH1 0x2 DUP3 DIV SWAP1 POP PUSH1 0x1 DUP3 AND DUP1 PUSH2 0x457 JUMPI PUSH1 0x7F DUP3 AND SWAP2 POP JUMPDEST PUSH1 0x20 DUP3 LT DUP2 SUB PUSH2 0x46A JUMPI PUSH2 0x469 PUSH2 0x413 JUMP JUMPDEST JUMPDEST POP SWAP2 SWAP1 POP JUMP JUMPDEST PUSH0 DUP2 SWAP1 POP DUP2 PUSH0 MSTORE PUSH1 0x20 PUSH0 KECCAK256 SWAP1 POP SWAP2 SWAP1 POP JUMP JUMPDEST PUSH0 PUSH1 0x20 PUSH1 0x1F DUP4 ADD DIV SWAP1 POP SWAP2 SWAP1 POP JUMP JUMPDEST PUSH0 DUP3 DUP3 SHL SWAP1 POP SWAP3 SWAP2 POP POP JUMP JUMPDEST PUSH0 PUSH1 0x8 DUP4 MUL PUSH2 0x4CC PUSH32 0xFFFFFFFFFFFFFFFFFFFFFFFFFFFFFFFFFFFFFFFFFFFFFFFFFFFFFFFFFFFFFFFF DUP3 PUSH2 0x491 JUMP JUMPDEST PUSH2 0x4D6 DUP7 DUP4 PUSH2 0x491 JUMP JUMPDEST SWAP6 POP DUP1 NOT DUP5 AND SWAP4 POP DUP1 DUP7 AND DUP5 OR SWAP3 POP POP POP SWAP4 SWAP3 POP POP POP JUMP JUMPDEST PUSH0 DUP2 SWAP1 POP SWAP2 SWAP1 POP JUMP JUMPDEST PUSH0 PUSH2 0x511 PUSH2 0x50C PUSH2 0x507 DUP5 PUSH2 0x2E0 JUMP JUMPDEST PUSH2 0x4EE JUMP JUMPDEST PUSH2 0x2E0 JUMP JUMPDEST SWAP1 POP SWAP2 SWAP1 POP JUMP JUMPDEST PUSH0 DUP2 SWAP1 POP SWAP2 SWAP1 POP JUMP JUMPDEST PUSH2 0x52A DUP4 PUSH2 0x4F7 JUMP JUMPDEST PUSH2 0x53E PUSH2 0x536 DUP3 PUSH2 0x518 JUMP JUMPDEST DUP5 DUP5 SLOAD PUSH2 0x49D JUMP JUMPDEST DUP3 SSTORE POP POP POP POP JUMP JUMPDEST PUSH0 PUSH0 SWAP1 POP SWAP1 JUMP JUMPDEST PUSH2 0x555 PUSH2 0x546 JUMP JUMPDEST PUSH2 0x560 DUP2 DUP5 DUP5 PUSH2 0x521 JUMP JUMPDEST POP POP POP JUMP JUMPDEST JUMPDEST DUP2 DUP2 LT ISZERO PUSH2 0x583 JUMPI PUSH2 0x578 PUSH0 DUP3 PUSH2 0x54D JUMP JUMPDEST PUSH1 0x1 DUP2 ADD SWAP1 POP PUSH2 0x566 JUMP JUMPDEST POP POP JUMP JUMPDEST PUSH1 0x1F DUP3 GT ISZERO PUSH2 0x5C8 JUMPI PUSH2 0x599 DUP2 PUSH2 0x470 JUMP JUMPDEST PUSH2 0x5A2 DUP5 PUSH2 0x482 JUMP JUMPDEST DUP2 ADD PUSH1 0x20 DUP6 LT ISZERO PUSH2 0x5B1 JUMPI DUP2 SWAP1 POP JUMPDEST PUSH2 0x5C5 PUSH2 0x5BD DUP6 PUSH2 0x482 JUMP JUMPDEST DUP4 ADD DUP3 PUSH2 0x565 JUMP JUMPDEST POP POP JUMPDEST POP POP POP JUMP JUMPDEST PUSH0 DUP3 DUP3 SHR SWAP1 POP SWAP3 SWAP2 POP POP JUMP JUMPDEST PUSH0 PUSH2 0x5E8 PUSH0 NOT DUP5 PUSH1 0x8 MUL PUSH2 0x5CD JUMP JUMPDEST NOT DUP1 DUP4 AND SWAP2 POP POP SWAP3 SWAP2 POP POP JUMP JUMPDEST PUSH0 PUSH2 0x600 DUP4 DUP4 PUSH2 0x5D9 JUMP JUMPDEST SWAP2 POP DUP3 PUSH1 0x2 MUL DUP3 OR SWAP1 POP SWAP3 SWAP2 POP POP JUMP JUMPDEST PUSH2 0x619 DUP3 PUSH2 0x409 JUMP JUMPDEST PUSH8 0xFFFFFFFFFFFFFFFF DUP2 GT ISZERO PUSH2 0x632 JUMPI PUSH2 0x631 PUSH2 0x1BC JUMP JUMPDEST JUMPDEST PUSH2 0x63C DUP3 SLOAD PUSH2 0x440 JUMP JUMPDEST PUSH2 0x647 DUP3 DUP3 DUP6 PUSH2 0x587 JUMP JUMPDEST PUSH0 PUSH1 0x20 SWAP1 POP PUSH1 0x1F DUP4 GT PUSH1 0x1 DUP2 EQ PUSH2 0x678 JUMPI PUSH0 DUP5 ISZERO PUSH2 0x666 JUMPI DUP3 DUP8 ADD MLOAD SWAP1 POP JUMPDEST PUSH2 0x670 DUP6 DUP3 PUSH2 0x5F5 JUMP JUMPDEST DUP7 SSTORE POP PUSH2 0x6D7 JUMP JUMPDEST PUSH1 0x1F NOT DUP5 AND PUSH2 0x686 DUP7 PUSH2 0x470 JUMP JUMPDEST PUSH0 JUMPDEST DUP3 DUP2 LT ISZERO PUSH2 0x6AD JUMPI DUP5 DUP10 ADD MLOAD DUP3 SSTORE PUSH1 0x1 DUP3 ADD SWAP2 POP PUSH1 0x20 DUP6 ADD SWAP5 POP PUSH1 0x20 DUP2 ADD SWAP1 POP PUSH2 0x688 JUMP JUMPDEST DUP7 DUP4 LT ISZERO PUSH2 0x6CA JUMPI DUP5 DUP10 ADD MLOAD PUSH2 0x6C6 PUSH1 0x1F DUP10 AND DUP3 PUSH2 0x5D9 JUMP JUMPDEST DUP4 SSTORE POP JUMPDEST PUSH1 0x1 PUSH1 0x2 DUP9 MUL ADD DUP9 SSTORE POP POP POP JUMPDEST POP POP POP POP POP POP JUMP JUMPDEST PUSH32 0x4E487B7100000000000000000000000000000000000000000000000000000000 PUSH0 MSTORE PUSH1 0x11 PUSH1 0x4 MSTORE PUSH1 0x24 PUSH0 REVERT JUMPDEST PUSH0 PUSH2 0x716 DUP3 PUSH2 0x2E0 JUMP JUMPDEST SWAP2 POP PUSH2 0x721 DUP4 PUSH2 0x2E0 JUMP JUMPDEST SWAP3 POP DUP3 DUP3 ADD SWAP1 POP DUP1 DUP3 GT ISZERO PUSH2 0x739 JUMPI PUSH2 0x738 PUSH2 0x6DF JUMP JUMPDEST JUMPDEST SWAP3 SWAP2 POP POP JUMP JUMPDEST PUSH2 0x748 DUP2 PUSH2 0x2E0 JUMP JUMPDEST DUP3 MSTORE POP POP JUMP JUMPDEST PUSH0 PUSH1 0x20 DUP3 ADD SWAP1 POP PUSH2 0x761 PUSH0 DUP4 ADD DUP5 PUSH2 0x73F JUMP JUMPDEST SWAP3 SWAP2 POP POP JUMP JUMPDEST PUSH2 0x10F3 DUP1 PUSH2 0x774 PUSH0 CODECOPY PUSH0 RETURN INVALID PUSH1 0x80 PUSH1 0x40 MSTORE CALLVALUE DUP1 ISZERO PUSH2 0xF JUMPI PUSH0 PUSH0 REVERT JUMPDEST POP PUSH1 0x4 CALLDATASIZE LT PUSH2 0xE8 JUMPI PUSH0 CALLDATALOAD PUSH1 0xE0 SHR DUP1 PUSH4 0x70A08231 GT PUSH2 0x8A JUMPI DUP1 PUSH4 0x94BF804D GT PUSH2 0x64 JUMPI DUP1 PUSH4 0x94BF804D EQ PUSH2 0x272 JUMPI DUP1 PUSH4 0x95D89B41 EQ PUSH2 0x28E JUMPI DUP1 PUSH4 0xA9059CBB EQ PUSH2 0x2AC JUMPI DUP1 PUSH4 0xDD62ED3E EQ PUSH2 0x2DC JUMPI PUSH2 0xE8 JUMP JUMPDEST DUP1 PUSH4 0x70A08231 EQ PUSH2 0x206 JUMPI DUP1 PUSH4 0x7E1C0C09 EQ PUSH2 0x236 JUMPI DUP1 PUSH4 0x8DA5CB5B EQ PUSH2 0x254 JUMPI PUSH2 0xE8 JUMP JUMPDEST DUP1 PUSH4 0x23B872DD GT PUSH2 0xC6 JUMPI DUP1 PUSH4 0x23B872DD EQ PUSH2 0x158 JUMPI DUP1 PUSH4 0x27E235E3 EQ PUSH2 0x188 JUMPI DUP1 PUSH4 0x313CE567 EQ PUSH2 0x1B8 JUMPI DUP1 PUSH4 0x55B6ED5C EQ PUSH2 0x1D6 JUMPI PUSH2 0xE8 JUMP JUMPDEST DUP1 PUSH4 0x6FDDE03 EQ PUSH2 0xEC JUMPI DUP1 PUSH4 0x95EA7B3 EQ PUSH2 0x10A JUMPI DUP1 PUSH4 0x18160DDD EQ PUSH2 0x13A JUMPI JUMPDEST PUSH0 PUSH0 REVERT JUMPDEST PUSH2 0xF4 PUSH2 0x30C JUMP JUMPDEST PUSH1 0x40 MLOAD PUSH2 0x101 SWAP2 SWAP1 PUSH2 0xC2C JUMP JUMPDEST PUSH1 0x40 MLOAD DUP1 SWAP2 SUB SWAP1 RETURN JUMPDEST PUSH2 0x124 PUSH1 0x4 DUP1 CALLDATASIZE SUB DUP2 ADD SWAP1 PUSH2 0x11F SWAP2 SWAP1 PUSH2 0xCDD JUMP JUMPDEST PUSH2 0x39C JUMP JUMPDEST PUSH1 0x40 MLOAD PUSH2 0x131 SWAP2 SWAP1 PUSH2 0xD35 JUMP JUMPDEST PUSH1 0x40 MLOAD DUP1 SWAP2 SUB SWAP1 RETURN JUMPDEST PUSH2 0x142 PUSH2 0x3B2 JUMP JUMPDEST PUSH1 0x40 MLOAD PUSH2 0x14F SWAP2 SWAP1 PUSH2 0xD5D JUMP JUMPDEST PUSH1 0x40 MLOAD DUP1 SWAP2 SUB SWAP1 RETURN JUMPDEST PUSH2 0x172 PUSH1 0x4 DUP1 CALLDATASIZE SUB DUP2 ADD SWAP1 PUSH2 0x16D SWAP2 SWAP1 PUSH2 0xD76 JUMP JUMPDEST PUSH2 0x3BB JUMP JUMPDEST PUSH1 0x40 MLOAD PUSH2 0x17F SWAP2 SWAP1 PUSH2 0xD35 JUMP JUMPDEST PUSH1 0x40 MLOAD DUP1 SWAP2 SUB SWAP1 RETURN JUMPDEST PUSH2 0x1A2 PUSH1 0x4 DUP1 CALLDATASIZE SUB DUP2 ADD SWAP1 PUSH2 0x19D SWAP2 SWAP1 PUSH2 0xDC6 JUMP JUMPDEST PUSH2 0x626 JUMP JUMPDEST PUSH1 0x40 MLOAD PUSH2 0x1AF SWAP2 SWAP1 PUSH2 0xD5D JUMP JUMPDEST PUSH1 0x40 MLOAD DUP1 SWAP2 SUB SWAP1 RETURN JUMPDEST PUSH2 0x1C0 PUSH2 0x63B JUMP JUMPDEST PUSH1 0x40 MLOAD PUSH2 0x1CD SWAP2 SWAP1 PUSH2 0xD5D JUMP JUMPDEST PUSH1 0x40 MLOAD DUP1 SWAP2 SUB SWAP1 RETURN JUMPDEST PUSH2 0x1F0 PUSH1 0x4 DUP1 CALLDATASIZE SUB DUP2 ADD SWAP1 PUSH2 0x1EB SWAP2 SWAP1 PUSH2 0xDF1 JUMP JUMPDEST PUSH2 0x643 JUMP JUMPDEST PUSH1 0x40 MLOAD PUSH2 0x1FD SWAP2 SWAP1 PUSH2 0xD5D JUMP JUMPDEST PUSH1 0x40 MLOAD DUP1 SWAP2 SUB SWAP1 RETURN JUMPDEST PUSH2 0x220 PUSH1 0x4 DUP1 CALLDATASIZE SUB DUP2 ADD SWAP1 PUSH2 0x21B SWAP2 SWAP1 PUSH2 0xDC6 JUMP JUMPDEST PUSH2 0x663 JUMP JUMPDEST PUSH1 0x40 MLOAD PUSH2 0x22D SWAP2 SWAP1 PUSH2 0xD5D JUMP JUMPDEST PUSH1 0x40 MLOAD DUP1 SWAP2 SUB SWAP1 RETURN JUMPDEST PUSH2 0x23E PUSH2 0x6A9 JUMP JUMPDEST PUSH1 0x40 MLOAD PUSH2 0x24B SWAP2 SWAP1 PUSH2 0xD5D JUMP JUMPDEST PUSH1 0x40 MLOAD DUP1 SWAP2 SUB SWAP1 RETURN JUMPDEST PUSH2 0x25C PUSH2 0x6AF JUMP JUMPDEST PUSH1 0x40 MLOAD PUSH2 0x269 SWAP2 SWAP1 PUSH2 0xE3E JUMP JUMPDEST PUSH1 0x40 MLOAD DUP1 SWAP2 SUB SWAP1 RETURN JUMPDEST PUSH2 0x28C PUSH1 0x4 DUP1 CALLDATASIZE SUB DUP2 ADD SWAP1 PUSH2 0x287 SWAP2 SWAP1 PUSH2 0xE57 JUMP JUMPDEST PUSH2 0x6D3 JUMP JUMPDEST STOP JUMPDEST PUSH2 0x296 PUSH2 0x76F JUMP JUMPDEST PUSH1 0x40 MLOAD PUSH2 0x2A3 SWAP2 SWAP1 PUSH2 0xC2C JUMP JUMPDEST PUSH1 0x40 MLOAD DUP1 SWAP2 SUB SWAP1 RETURN JUMPDEST PUSH2 0x2C6 PUSH1 0x4 DUP1 CALLDATASIZE SUB DUP2 ADD SWAP1 PUSH2 0x2C1 SWAP2 SWAP1 PUSH2 0xCDD JUMP JUMPDEST PUSH2 0x7FF JUMP JUMPDEST PUSH1 0x40 MLOAD PUSH2 0x2D3 SWAP2 SWAP1 PUSH2 0xD35 JUMP JUMPDEST PUSH1 0x40 MLOAD DUP1 SWAP2 SUB SWAP1 RETURN JUMPDEST PUSH2 0x2F6 PUSH1 0x4 DUP1 CALLDATASIZE SUB DUP2 ADD SWAP1 PUSH2 0x2F1 SWAP2 SWAP1 PUSH2 0xDF1 JUMP JUMPDEST PUSH2 0x96F JUMP JUMPDEST PUSH1 0x40 MLOAD PUSH2 0x303 SWAP2 SWAP1 PUSH2 0xD5D JUMP JUMPDEST PUSH1 0x40 MLOAD DUP1 SWAP2 SUB SWAP1 RETURN JUMPDEST PUSH1 0x60 PUSH1 0x4 DUP1 SLOAD PUSH2 0x31B SWAP1 PUSH2 0xEC2 JUMP JUMPDEST DUP1 PUSH1 0x1F ADD PUSH1 0x20 DUP1 SWAP2 DIV MUL PUSH1 0x20 ADD PUSH1 0x40 MLOAD SWAP1 DUP2 ADD PUSH1 0x40 MSTORE DUP1 SWAP3 SWAP2 SWAP1 DUP2 DUP2 MSTORE PUSH1 0x20 ADD DUP3 DUP1 SLOAD PUSH2 0x347 SWAP1 PUSH2 0xEC2 JUMP JUMPDEST DUP1 ISZERO PUSH2 0x392 JUMPI DUP1 PUSH1 0x1F LT PUSH2 0x369 JUMPI PUSH2 0x100 DUP1 DUP4 SLOAD DIV MUL DUP4 MSTORE SWAP2 PUSH1 0x20 ADD SWAP2 PUSH2 0x392 JUMP JUMPDEST DUP3 ADD SWAP2 SWAP1 PUSH0 MSTORE PUSH1 0x20 PUSH0 KECCAK256 SWAP1 JUMPDEST DUP2 SLOAD DUP2 MSTORE SWAP1 PUSH1 0x1 ADD SWAP1 PUSH1 0x20 ADD DUP1 DUP4 GT PUSH2 0x375 JUMPI DUP3 SWAP1 SUB PUSH1 0x1F AND DUP3 ADD SWAP2 JUMPDEST POP POP POP POP POP SWAP1 POP SWAP1 JUMP JUMPDEST PUSH0 PUSH2 0x3A8 CALLER DUP5 DUP5 PUSH2 0x9F1 JUMP JUMPDEST PUSH1 0x1 SWAP1 POP SWAP3 SWAP2 POP POP JUMP JUMPDEST PUSH0 PUSH1 0x1 SLOAD SWAP1 POP SWAP1 JUMP JUMPDEST PUSH0 DUP2 PUSH1 0x3 PUSH0 DUP7 PUSH20 0xFFFFFFFFFFFFFFFFFFFFFFFFFFFFFFFFFFFFFFFF AND PUSH20 0xFFFFFFFFFFFFFFFFFFFFFFFFFFFFFFFFFFFFFFFF AND DUP2 MSTORE PUSH1 0x20 ADD SWAP1 DUP2 MSTORE PUSH1 0x20 ADD PUSH0 KECCAK256 PUSH0 CALLER PUSH20 0xFFFFFFFFFFFFFFFFFFFFFFFFFFFFFFFFFFFFFFFF AND PUSH20 0xFFFFFFFFFFFFFFFFFFFFFFFFFFFFFFFFFFFFFFFF AND DUP2 MSTORE PUSH1 0x20 ADD SWAP1 DUP2 MSTORE PUSH1 0x20 ADD PUSH0 KECCAK256 SLOAD LT ISZERO PUSH2 0x477 JUMPI PUSH1 0x40 MLOAD PUSH32 0x8C379A000000000000000000000000000000000000000000000000000000000 DUP2 MSTORE PUSH1 0x4 ADD PUSH2 0x46E SWAP1 PUSH2 0xF3C JUMP JUMPDEST PUSH1 0x40 MLOAD DUP1 SWAP2 SUB SWAP1 REVERT JUMPDEST PUSH2 0x482 DUP5 DUP5 DUP5 PUSH2 0xAD8 JUMP JUMPDEST DUP2 PUSH1 0x3 PUSH0 DUP7 PUSH20 0xFFFFFFFFFFFFFFFFFFFFFFFFFFFFFFFFFFFFFFFF AND PUSH20 0xFFFFFFFFFFFFFFFFFFFFFFFFFFFFFFFFFFFFFFFF AND DUP2 MSTORE PUSH1 0x20 ADD SWAP1 DUP2 MSTORE PUSH1 0x20 ADD PUSH0 KECCAK256 PUSH0 CALLER PUSH20 0xFFFFFFFFFFFFFFFFFFFFFFFFFFFFFFFFFFFFFFFF AND PUSH20 0xFFFFFFFFFFFFFFFFFFFFFFFFFFFFFFFFFFFFFFFF AND DUP2 MSTORE PUSH1 0x20 ADD SWAP1 DUP2 MSTORE PUSH1 0x20 ADD PUSH0 KECCAK256 PUSH0 DUP3 DUP3 SLOAD PUSH2 0x509 SWAP2 SWAP1 PUSH2 0xF87 JUMP JUMPDEST SWAP3 POP POP DUP2 SWAP1 SSTORE POP DUP2 PUSH1 0x2 PUSH0 DUP7 PUSH20 0xFFFFFFFFFFFFFFFFFFFFFFFFFFFFFFFFFFFFFFFF AND PUSH20 0xFFFFFFFFFFFFFFFFFFFFFFFFFFFFFFFFFFFFFFFF AND DUP2 MSTORE PUSH1 0x20 ADD SWAP1 DUP2 MSTORE PUSH1 0x20 ADD PUSH0 KECCAK256 PUSH0 DUP3 DUP3 SLOAD PUSH2 0x55C SWAP2 SWAP1 PUSH2 0xF87 JUMP JUMPDEST SWAP3 POP POP DUP2 SWAP1 SSTORE POP DUP2 PUSH1 0x2 PUSH0 DUP6 PUSH20 0xFFFFFFFFFFFFFFFFFFFFFFFFFFFFFFFFFFFFFFFF AND PUSH20 0xFFFFFFFFFFFFFFFFFFFFFFFFFFFFFFFFFFFFFFFF AND DUP2 MSTORE PUSH1 0x20 ADD SWAP1 DUP2 MSTORE PUSH1 0x20 ADD PUSH0 KECCAK256 PUSH0 DUP3 DUP3 SLOAD PUSH2 0x5AF SWAP2 SWAP1 PUSH2 0xFBA JUMP JUMPDEST SWAP3 POP POP DUP2 SWAP1 SSTORE POP DUP3 PUSH20 0xFFFFFFFFFFFFFFFFFFFFFFFFFFFFFFFFFFFFFFFF AND DUP5 PUSH20 0xFFFFFFFFFFFFFFFFFFFFFFFFFFFFFFFFFFFFFFFF AND PUSH32 0xDDF252AD1BE2C89B69C2B068FC378DAA952BA7F163C4A11628F55A4DF523B3EF DUP5 PUSH1 0x40 MLOAD PUSH2 0x613 SWAP2 SWAP1 PUSH2 0xD5D JUMP JUMPDEST PUSH1 0x40 MLOAD DUP1 SWAP2 SUB SWAP1 LOG3 PUSH1 0x1 SWAP1 POP SWAP4 SWAP3 POP POP POP JUMP JUMPDEST PUSH1 0x2 PUSH1 0x20 MSTORE DUP1 PUSH0 MSTORE PUSH1 0x40 PUSH0 KECCAK256 PUSH0 SWAP2 POP SWAP1 POP SLOAD DUP2 JUMP JUMPDEST PUSH0 PUSH1 0x12 SWAP1 POP SWAP1 JUMP JUMPDEST PUSH1 0x3 PUSH1 0x20 MSTORE DUP2 PUSH0 MSTORE PUSH1 0x40 PUSH0 KECCAK256 PUSH1 0x20 MSTORE DUP1 PUSH0 MSTORE PUSH1 0x40 PUSH0 KECCAK256 PUSH0 SWAP2 POP SWAP2 POP POP SLOAD DUP2 JUMP JUMPDEST PUSH0 PUSH1 0x2 PUSH0 DUP4 PUSH20 0xFFFFFFFFFFFFFFFFFFFFFFFFFFFFFFFFFFFFFFFF AND PUSH20 0xFFFFFFFFFFFFFFFFFFFFFFFFFFFFFFFFFFFFFFFF AND DUP2 MSTORE PUSH1 0x20 ADD SWAP1 DUP2 MSTORE PUSH1 0x20 ADD PUSH0 KECCAK256 SLOAD SWAP1 POP SWAP2 SWAP1 POP JUMP JUMPDEST PUSH1 0x1 SLOAD DUP2 JUMP JUMPDEST PUSH0 PUSH0 SWAP1 SLOAD SWAP1 PUSH2 0x100 EXP SWAP1 DIV PUSH20 0xFFFFFFFFFFFFFFFFFFFFFFFFFFFFFFFFFFFFFFFF AND DUP2 JUMP JUMPDEST CALLER PUSH20 0xFFFFFFFFFFFFFFFFFFFFFFFFFFFFFFFFFFFFFFFF AND PUSH0 PUSH0 SWAP1 SLOAD SWAP1 PUSH2 0x100 EXP SWAP1 DIV PUSH20 0xFFFFFFFFFFFFFFFFFFFFFFFFFFFFFFFFFFFFFFFF AND PUSH20 0xFFFFFFFFFFFFFFFFFFFFFFFFFFFFFFFFFFFFFFFF AND EQ PUSH2 0x761 JUMPI PUSH1 0x40 MLOAD PUSH32 0x8C379A000000000000000000000000000000000000000000000000000000000 DUP2 MSTORE PUSH1 0x4 ADD PUSH2 0x758 SWAP1 PUSH2 0x1037 JUMP JUMPDEST PUSH1 0x40 MLOAD DUP1 SWAP2 SUB SWAP1 REVERT JUMPDEST PUSH2 0x76B DUP3 DUP3 PUSH2 0xADD JUMP JUMPDEST POP POP JUMP JUMPDEST PUSH1 0x60 PUSH1 0x5 DUP1 SLOAD PUSH2 0x77E SWAP1 PUSH2 0xEC2 JUMP JUMPDEST DUP1 PUSH1 0x1F ADD PUSH1 0x20 DUP1 SWAP2 DIV MUL PUSH1 0x20 ADD PUSH1 0x40 MLOAD SWAP1 DUP2 ADD PUSH1 0x40 MSTORE DUP1 SWAP3 SWAP2 SWAP1 DUP2 DUP2 MSTORE PUSH1 0x20 ADD DUP3 DUP1 SLOAD PUSH2 0x7AA SWAP1 PUSH2 0xEC2 JUMP JUMPDEST DUP1 ISZERO PUSH2 0x7F5 JUMPI DUP1 PUSH1 0x1F LT PUSH2 0x7CC JUMPI PUSH2 0x100 DUP1 DUP4 SLOAD DIV MUL DUP4 MSTORE SWAP2 PUSH1 0x20 ADD SWAP2 PUSH2 0x7F5 JUMP JUMPDEST DUP3 ADD SWAP2 SWAP1 PUSH0 MSTORE PUSH1 0x20 PUSH0 KECCAK256 SWAP1 JUMPDEST DUP2 SLOAD DUP2 MSTORE SWAP1 PUSH1 0x1 ADD SWAP1 PUSH1 0x20 ADD DUP1 DUP4 GT PUSH2 0x7D8 JUMPI DUP3 SWAP1 SUB PUSH1 0x1F AND DUP3 ADD SWAP2 JUMPDEST POP POP POP POP POP SWAP1 POP SWAP1 JUMP JUMPDEST PUSH0 CALLER DUP3 DUP1 PUSH2 0x80C DUP4 PUSH2 0x663 JUMP JUMPDEST LT ISZERO PUSH2 0x84D JUMPI PUSH1 0x40 MLOAD PUSH32 0x8C379A000000000000000000000000000000000000000000000000000000000 DUP2 MSTORE PUSH1 0x4 ADD PUSH2 0x844 SWAP1 PUSH2 0x109F JUMP JUMPDEST PUSH1 0x40 MLOAD DUP1 SWAP2 SUB SWAP1 REVERT JUMPDEST PUSH2 0x858 CALLER DUP7 DUP7 PUSH2 0xAD8 JUMP JUMPDEST DUP4 PUSH1 0x2 PUSH0 CALLER PUSH20 0xFFFFFFFFFFFFFFFFFFFFFFFFFFFFFFFFFFFFFFFF AND PUSH20 0xFFFFFFFFFFFFFFFFFFFFFFFFFFFFFFFFFFFFFFFF AND DUP2 MSTORE PUSH1 0x20 ADD SWAP1 DUP2 MSTORE PUSH1 0x20 ADD PUSH0 KECCAK256 PUSH0 DUP3 DUP3 SLOAD PUSH2 0x8A4 SWAP2 SWAP1 PUSH2 0xF87 JUMP JUMPDEST SWAP3 POP POP DUP2 SWAP1 SSTORE POP DUP4 PUSH1 0x2 PUSH0 DUP8 PUSH20 0xFFFFFFFFFFFFFFFFFFFFFFFFFFFFFFFFFFFFFFFF AND PUSH20 0xFFFFFFFFFFFFFFFFFFFFFFFFFFFFFFFFFFFFFFFF AND DUP2 MSTORE PUSH1 0x20 ADD SWAP1 DUP2 MSTORE PUSH1 0x20 ADD PUSH0 KECCAK256 PUSH0 DUP3 DUP3 SLOAD PUSH2 0x8F7 SWAP2 SWAP1 PUSH2 0xFBA JUMP JUMPDEST SWAP3 POP POP DUP2 SWAP1 SSTORE POP DUP5 PUSH20 0xFFFFFFFFFFFFFFFFFFFFFFFFFFFFFFFFFFFFFFFF AND CALLER PUSH20 0xFFFFFFFFFFFFFFFFFFFFFFFFFFFFFFFFFFFFFFFF AND PUSH32 0xDDF252AD1BE2C89B69C2B068FC378DAA952BA7F163C4A11628F55A4DF523B3EF DUP7 PUSH1 0x40 MLOAD PUSH2 0x95B SWAP2 SWAP1 PUSH2 0xD5D JUMP JUMPDEST PUSH1 0x40 MLOAD DUP1 SWAP2 SUB SWAP1 LOG3 PUSH1 0x1 SWAP3 POP POP POP SWAP3 SWAP2 POP POP JUMP JUMPDEST PUSH0 PUSH1 0x3 PUSH0 DUP5 PUSH20 0xFFFFFFFFFFFFFFFFFFFFFFFFFFFFFFFFFFFFFFFF AND PUSH20 0xFFFFFFFFFFFFFFFFFFFFFFFFFFFFFFFFFFFFFFFF AND DUP2 MSTORE PUSH1 0x20 ADD SWAP1 DUP2 MSTORE PUSH1 0x20 ADD PUSH0 KECCAK256 PUSH0 DUP4 PUSH20 0xFFFFFFFFFFFFFFFFFFFFFFFFFFFFFFFFFFFFFFFF AND PUSH20 0xFFFFFFFFFFFFFFFFFFFFFFFFFFFFFFFFFFFFFFFF AND DUP2 MSTORE PUSH1 0x20 ADD SWAP1 DUP2 MSTORE PUSH1 0x20 ADD PUSH0 KECCAK256 SLOAD SWAP1 POP SWAP3 SWAP2 POP POP JUMP JUMPDEST DUP1 PUSH1 0x3 PUSH0 DUP6 PUSH20 0xFFFFFFFFFFFFFFFFFFFFFFFFFFFFFFFFFFFFFFFF AND PUSH20 0xFFFFFFFFFFFFFFFFFFFFFFFFFFFFFFFFFFFFFFFF AND DUP2 MSTORE PUSH1 0x20 ADD SWAP1 DUP2 MSTORE PUSH1 0x20 ADD PUSH0 KECCAK256 PUSH0 DUP5 PUSH20 0xFFFFFFFFFFFFFFFFFFFFFFFFFFFFFFFFFFFFFFFF AND PUSH20 0xFFFFFFFFFFFFFFFFFFFFFFFFFFFFFFFFFFFFFFFF AND DUP2 MSTORE PUSH1 0x20 ADD SWAP1 DUP2 MSTORE PUSH1 0x20 ADD PUSH0 KECCAK256 DUP2 SWAP1 SSTORE POP DUP2 PUSH20 0xFFFFFFFFFFFFFFFFFFFFFFFFFFFFFFFFFFFFFFFF AND DUP4 PUSH20 0xFFFFFFFFFFFFFFFFFFFFFFFFFFFFFFFFFFFFFFFF AND PUSH32 0x8C5BE1E5EBEC7D5BD14F71427D1E84F3DD0314C0F7B2291E5B200AC8C7C3B925 DUP4 PUSH1 0x40 MLOAD PUSH2 0xACB SWAP2 SWAP1 PUSH2 0xD5D JUMP JUMPDEST PUSH1 0x40 MLOAD DUP1 SWAP2 SUB SWAP1 LOG3 POP POP POP JUMP JUMPDEST POP POP POP JUMP JUMPDEST PUSH2 0xAE8 PUSH0 DUP3 DUP5 PUSH2 0xAD8 JUMP JUMPDEST DUP2 PUSH1 0x1 PUSH0 DUP3 DUP3 SLOAD PUSH2 0xAF9 SWAP2 SWAP1 PUSH2 0xFBA JUMP JUMPDEST SWAP3 POP POP DUP2 SWAP1 SSTORE POP DUP2 PUSH1 0x2 PUSH0 DUP4 PUSH20 0xFFFFFFFFFFFFFFFFFFFFFFFFFFFFFFFFFFFFFFFF AND PUSH20 0xFFFFFFFFFFFFFFFFFFFFFFFFFFFFFFFFFFFFFFFF AND DUP2 MSTORE PUSH1 0x20 ADD SWAP1 DUP2 MSTORE PUSH1 0x20 ADD PUSH0 KECCAK256 PUSH0 DUP3 DUP3 SLOAD PUSH2 0xB4C SWAP2 SWAP1 PUSH2 0xFBA JUMP JUMPDEST SWAP3 POP POP DUP2 SWAP1 SSTORE POP DUP1 PUSH20 0xFFFFFFFFFFFFFFFFFFFFFFFFFFFFFFFFFFFFFFFF AND PUSH0 PUSH20 0xFFFFFFFFFFFFFFFFFFFFFFFFFFFFFFFFFFFFFFFF AND PUSH32 0xDDF252AD1BE2C89B69C2B068FC378DAA952BA7F163C4A11628F55A4DF523B3EF DUP5 PUSH1 0x40 MLOAD PUSH2 0xBB0 SWAP2 SWAP1 PUSH2 0xD5D JUMP JUMPDEST PUSH1 0x40 MLOAD DUP1 SWAP2 SUB SWAP1 LOG3 POP POP JUMP JUMPDEST PUSH0 DUP2 MLOAD SWAP1 POP SWAP2 SWAP1 POP JUMP JUMPDEST PUSH0 DUP3 DUP3 MSTORE PUSH1 0x20 DUP3 ADD SWAP1 POP SWAP3 SWAP2 POP POP JUMP JUMPDEST DUP3 DUP2 DUP4 MCOPY PUSH0 DUP4 DUP4 ADD MSTORE POP POP POP JUMP JUMPDEST PUSH0 PUSH1 0x1F NOT PUSH1 0x1F DUP4 ADD AND SWAP1 POP SWAP2 SWAP1 POP JUMP JUMPDEST PUSH0 PUSH2 0xBFE DUP3 PUSH2 0xBBC JUMP JUMPDEST PUSH2 0xC08 DUP2 DUP6 PUSH2 0xBC6 JUMP JUMPDEST SWAP4 POP PUSH2 0xC18 DUP2 DUP6 PUSH1 0x20 DUP7 ADD PUSH2 0xBD6 JUMP JUMPDEST PUSH2 0xC21 DUP2 PUSH2 0xBE4 JUMP JUMPDEST DUP5 ADD SWAP2 POP POP SWAP3 SWAP2 POP POP JUMP JUMPDEST PUSH0 PUSH1 0x20 DUP3 ADD SWAP1 POP DUP2 DUP2 SUB PUSH0 DUP4 ADD MSTORE PUSH2 0xC44 DUP2 DUP5 PUSH2 0xBF4 JUMP JUMPDEST SWAP1 POP SWAP3 SWAP2 POP POP JUMP JUMPDEST PUSH0 PUSH0 REVERT JUMPDEST PUSH0 PUSH20 0xFFFFFFFFFFFFFFFFFFFFFFFFFFFFFFFFFFFFFFFF DUP3 AND SWAP1 POP SWAP2 SWAP1 POP JUMP JUMPDEST PUSH0 PUSH2 0xC79 DUP3 PUSH2 0xC50 JUMP JUMPDEST SWAP1 POP SWAP2 SWAP1 POP JUMP JUMPDEST PUSH2 0xC89 DUP2 PUSH2 0xC6F JUMP JUMPDEST DUP2 EQ PUSH2 0xC93 JUMPI PUSH0 PUSH0 REVERT JUMPDEST POP JUMP JUMPDEST PUSH0 DUP2 CALLDATALOAD SWAP1 POP PUSH2 0xCA4 DUP2 PUSH2 0xC80 JUMP JUMPDEST SWAP3 SWAP2 POP POP JUMP JUMPDEST PUSH0 DUP2 SWAP1 POP SWAP2 SWAP1 POP JUMP JUMPDEST PUSH2 0xCBC DUP2 PUSH2 0xCAA JUMP JUMPDEST DUP2 EQ PUSH2 0xCC6 JUMPI PUSH0 PUSH0 REVERT JUMPDEST POP JUMP JUMPDEST PUSH0 DUP2 CALLDATALOAD SWAP1 POP PUSH2 0xCD7 DUP2 PUSH2 0xCB3 JUMP JUMPDEST SWAP3 SWAP2 POP POP JUMP JUMPDEST PUSH0 PUSH0 PUSH1 0x40 DUP4 DUP6 SUB SLT ISZERO PUSH2 0xCF3 JUMPI PUSH2 0xCF2 PUSH2 0xC4C JUMP JUMPDEST JUMPDEST PUSH0 PUSH2 0xD00 DUP6 DUP3 DUP7 ADD PUSH2 0xC96 JUMP JUMPDEST SWAP3 POP POP PUSH1 0x20 PUSH2 0xD11 DUP6 DUP3 DUP7 ADD PUSH2 0xCC9 JUMP JUMPDEST SWAP2 POP POP SWAP3 POP SWAP3 SWAP1 POP JUMP JUMPDEST PUSH0 DUP2 ISZERO ISZERO SWAP1 POP SWAP2 SWAP1 POP JUMP JUMPDEST PUSH2 0xD2F DUP2 PUSH2 0xD1B JUMP JUMPDEST DUP3 MSTORE POP POP JUMP JUMPDEST PUSH0 PUSH1 0x20 DUP3 ADD SWAP1 POP PUSH2 0xD48 PUSH0 DUP4 ADD DUP5 PUSH2 0xD26 JUMP JUMPDEST SWAP3 SWAP2 POP POP JUMP JUMPDEST PUSH2 0xD57 DUP2 PUSH2 0xCAA JUMP JUMPDEST DUP3 MSTORE POP POP JUMP JUMPDEST PUSH0 PUSH1 0x20 DUP3 ADD SWAP1 POP PUSH2 0xD70 PUSH0 DUP4 ADD DUP5 PUSH2 0xD4E JUMP JUMPDEST SWAP3 SWAP2 POP POP JUMP JUMPDEST PUSH0 PUSH0 PUSH0 PUSH1 0x60 DUP5 DUP7 SUB SLT ISZERO PUSH2 0xD8D JUMPI PUSH2 0xD8C PUSH2 0xC4C JUMP JUMPDEST JUMPDEST PUSH0 PUSH2 0xD9A DUP7 DUP3 DUP8 ADD PUSH2 0xC96 JUMP JUMPDEST SWAP4 POP POP PUSH1 0x20 PUSH2 0xDAB DUP7 DUP3 DUP8 ADD PUSH2 0xC96 JUMP JUMPDEST SWAP3 POP POP PUSH1 0x40 PUSH2 0xDBC DUP7 DUP3 DUP8 ADD PUSH2 0xCC9 JUMP JUMPDEST SWAP2 POP POP SWAP3 POP SWAP3 POP SWAP3 JUMP JUMPDEST PUSH0 PUSH1 0x20 DUP3 DUP5 SUB SLT ISZERO PUSH2 0xDDB JUMPI PUSH2 0xDDA PUSH2 0xC4C JUMP JUMPDEST JUMPDEST PUSH0 PUSH2 0xDE8 DUP5 DUP3 DUP6 ADD PUSH2 0xC96 JUMP JUMPDEST SWAP2 POP POP SWAP3 SWAP2 POP POP JUMP JUMPDEST PUSH0 PUSH0 PUSH1 0x40 DUP4 DUP6 SUB SLT ISZERO PUSH2 0xE07 JUMPI PUSH2 0xE06 PUSH2 0xC4C JUMP JUMPDEST JUMPDEST PUSH0 PUSH2 0xE14 DUP6 DUP3 DUP7 ADD PUSH2 0xC96 JUMP JUMPDEST SWAP3 POP POP PUSH1 0x20 PUSH2 0xE25 DUP6 DUP3 DUP7 ADD PUSH2 0xC96 JUMP JUMPDEST SWAP2 POP POP SWAP3 POP SWAP3 SWAP1 POP JUMP JUMPDEST PUSH2 0xE38 DUP2 PUSH2 0xC6F JUMP JUMPDEST DUP3 MSTORE POP POP JUMP JUMPDEST PUSH0 PUSH1 0x20 DUP3 ADD SWAP1 POP PUSH2 0xE51 PUSH0 DUP4 ADD DUP5 PUSH2 0xE2F JUMP JUMPDEST SWAP3 SWAP2 POP POP JUMP JUMPDEST PUSH0 PUSH0 PUSH1 0x40 DUP4 DUP6 SUB SLT ISZERO PUSH2 0xE6D JUMPI PUSH2 0xE6C PUSH2 0xC4C JUMP JUMPDEST JUMPDEST PUSH0 PUSH2 0xE7A DUP6 DUP3 DUP7 ADD PUSH2 0xCC9 JUMP JUMPDEST SWAP3 POP POP PUSH1 0x20 PUSH2 0xE8B DUP6 DUP3 DUP7 ADD PUSH2 0xC96 JUMP JUMPDEST SWAP2 POP POP SWAP3 POP SWAP3 SWAP1 POP JUMP JUMPDEST PUSH32 0x4E487B7100000000000000000000000000000000000000000000000000000000 PUSH0 MSTORE PUSH1 0x22 PUSH1 0x4 MSTORE PUSH1 0x24 PUSH0 REVERT JUMPDEST PUSH0 PUSH1 0x2 DUP3 DIV SWAP1 POP PUSH1 0x1 DUP3 AND DUP1 PUSH2 0xED9 JUMPI PUSH1 0x7F DUP3 AND SWAP2 POP JUMPDEST PUSH1 0x20 DUP3 LT DUP2 SUB PUSH2 0xEEC JUMPI PUSH2 0xEEB PUSH2 0xE95 JUMP JUMPDEST JUMPDEST POP SWAP2 SWAP1 POP JUMP JUMPDEST PUSH32 0x416C6C6F77616E636520746F6F206C6F77000000000000000000000000000000 PUSH0 DUP3 ADD MSTORE POP JUMP JUMPDEST PUSH0 PUSH2 0xF26 PUSH1 0x11 DUP4 PUSH2 0xBC6 JUMP JUMPDEST SWAP2 POP PUSH2 0xF31 DUP3 PUSH2 0xEF2 JUMP JUMPDEST PUSH1 0x20 DUP3 ADD SWAP1 POP SWAP2 SWAP1 POP JUMP JUMPDEST PUSH0 PUSH1 0x20 DUP3 ADD SWAP1 POP DUP2 DUP2 SUB PUSH0 DUP4 ADD MSTORE PUSH2 0xF53 DUP2 PUSH2 0xF1A JUMP JUMPDEST SWAP1 POP SWAP2 SWAP1 POP JUMP JUMPDEST PUSH32 0x4E487B7100000000000000000000000000000000000000000000000000000000 PUSH0 MSTORE PUSH1 0x11 PUSH1 0x4 MSTORE PUSH1 0x24 PUSH0 REVERT JUMPDEST PUSH0 PUSH2 0xF91 DUP3 PUSH2 0xCAA JUMP JUMPDEST SWAP2 POP PUSH2 0xF9C DUP4 PUSH2 0xCAA JUMP JUMPDEST SWAP3 POP DUP3 DUP3 SUB SWAP1 POP DUP2 DUP2 GT ISZERO PUSH2 0xFB4 JUMPI PUSH2 0xFB3 PUSH2 0xF5A JUMP JUMPDEST JUMPDEST SWAP3 SWAP2 POP POP JUMP JUMPDEST PUSH0 PUSH2 0xFC4 DUP3 PUSH2 0xCAA JUMP JUMPDEST SWAP2 POP PUSH2 0xFCF DUP4 PUSH2 0xCAA JUMP JUMPDEST SWAP3 POP DUP3 DUP3 ADD SWAP1 POP DUP1 DUP3 GT ISZERO PUSH2 0xFE7 JUMPI PUSH2 0xFE6 PUSH2 0xF5A JUMP JUMPDEST JUMPDEST SWAP3 SWAP2 POP POP JUMP JUMPDEST PUSH32 0x4E6F7420616E206F776E64657221000000000000000000000000000000000000 PUSH0 DUP3 ADD MSTORE POP JUMP JUMPDEST PUSH0 PUSH2 0x1021 PUSH1 0xE DUP4 PUSH2 0xBC6 JUMP JUMPDEST SWAP2 POP PUSH2 0x102C DUP3 PUSH2 0xFED JUMP JUMPDEST PUSH1 0x20 DUP3 ADD SWAP1 POP SWAP2 SWAP1 POP JUMP JUMPDEST PUSH0 PUSH1 0x20 DUP3 ADD SWAP1 POP DUP2 DUP2 SUB PUSH0 DUP4 ADD MSTORE PUSH2 0x104E DUP2 PUSH2 0x1015 JUMP JUMPDEST SWAP1 POP SWAP2 SWAP1 POP JUMP JUMPDEST PUSH32 0x4E6F7420656E6F75676820746F6B656E73210000000000000000000000000000 PUSH0 DUP3 ADD MSTORE POP JUMP JUMPDEST PUSH0 PUSH2 0x1089 PUSH1 0x12 DUP4 PUSH2 0xBC6 JUMP JUMPDEST SWAP2 POP PUSH2 0x1094 DUP3 PUSH2 0x1055 JUMP JUMPDEST PUSH1 0x20 DUP3 ADD SWAP1 POP SWAP2 SWAP1 POP JUMP JUMPDEST PUSH0 PUSH1 0x20 DUP3 ADD SWAP1 POP DUP2 DUP2 SUB PUSH0 DUP4 ADD MSTORE PUSH2 0x10B6 DUP2 PUSH2 0x107D JUMP JUMPDEST SWAP1 POP SWAP2 SWAP1 POP JUMP INVALID LOG2 PUSH5 0x6970667358 0x22 SLT KECCAK256 0xD6 DUP8 0x24 0xCE CODESIZE PUSH14 0x9B7706570298A335E5C0BE656679 RETURNCONTRACT 0x1C 0x2D 0xB6 0xCC 0xE9 RETURNDATASIZE SUB 0xD7 0xDD 0x25 0x25 PUSH5 0x736F6C6343 STOP ADDMOD SAR STOP CALLER "
				},
				"gasEstimates": {
					"creation": {
						"codeDepositCost": "867800",
						"executionCost": "infinite",
						"totalCost": "infinite"
					},
					"external": {
						"allowance(address,address)": "infinite",
						"allowances(address,address)": "infinite",
						"approve(address,uint256)": "infinite",
						"balanceOf(address)": "2852",
						"balances(address)": "2847",
						"decimals()": "399",
						"mint(uint256,address)": "infinite",
						"name()": "infinite",
						"owner()": "2574",
						"symbol()": "infinite",
						"totalSupply()": "2500",
						"totalTokens()": "2470",
						"transfer(address,uint256)": "infinite",
						"transferFrom(address,address,uint256)": "infinite"
					},
					"internal": {
						"_approve(address,address,uint256)": "infinite",
						"_beforeTokenTransfer(address,address,uint256)": "15",
						"_burn(address,uint256)": "infinite",
						"_mint(uint256,address)": "infinite"
					}
				},
				"methodIdentifiers": {
					"allowance(address,address)": "dd62ed3e",
					"allowances(address,address)": "55b6ed5c",
					"approve(address,uint256)": "095ea7b3",
					"balanceOf(address)": "70a08231",
					"balances(address)": "27e235e3",
					"decimals()": "313ce567",
					"mint(uint256,address)": "94bf804d",
					"name()": "06fdde03",
					"owner()": "8da5cb5b",
					"symbol()": "95d89b41",
					"totalSupply()": "18160ddd",
					"totalTokens()": "7e1c0c09",
					"transfer(address,uint256)": "a9059cbb",
					"transferFrom(address,address,uint256)": "23b872dd"
				}
			},
			"storageLayout": {
				"storage": [
					{
						"astId": 6,
						"contract": "ERC20/ERC20Base.sol:ERC20Base",
						"label": "owner",
						"offset": 0,
						"slot": "0",
						"type": "t_address"
					},
					{
						"astId": 8,
						"contract": "ERC20/ERC20Base.sol:ERC20Base",
						"label": "totalTokens",
						"offset": 0,
						"slot": "1",
						"type": "t_uint256"
					},
					{
						"astId": 12,
						"contract": "ERC20/ERC20Base.sol:ERC20Base",
						"label": "balances",
						"offset": 0,
						"slot": "2",
						"type": "t_mapping(t_address,t_uint256)"
					},
					{
						"astId": 18,
						"contract": "ERC20/ERC20Base.sol:ERC20Base",
						"label": "allowances",
						"offset": 0,
						"slot": "3",
						"type": "t_mapping(t_address,t_mapping(t_address,t_uint256))"
					},
					{
						"astId": 20,
						"contract": "ERC20/ERC20Base.sol:ERC20Base",
						"label": "_name",
						"offset": 0,
						"slot": "4",
						"type": "t_string_storage"
					},
					{
						"astId": 22,
						"contract": "ERC20/ERC20Base.sol:ERC20Base",
						"label": "_symbol",
						"offset": 0,
						"slot": "5",
						"type": "t_string_storage"
					}
				],
				"types": {
					"t_address": {
						"encoding": "inplace",
						"label": "address",
						"numberOfBytes": "20"
					},
					"t_mapping(t_address,t_mapping(t_address,t_uint256))": {
						"encoding": "mapping",
						"key": "t_address",
						"label": "mapping(address => mapping(address => uint256))",
						"numberOfBytes": "32",
						"value": "t_mapping(t_address,t_uint256)"
					},
					"t_mapping(t_address,t_uint256)": {
						"encoding": "mapping",
						"key": "t_address",
						"label": "mapping(address => uint256)",
						"numberOfBytes": "32",
						"value": "t_uint256"
					},
					"t_string_storage": {
						"encoding": "bytes",
						"label": "string",
						"numberOfBytes": "32"
					},
					"t_uint256": {
						"encoding": "inplace",
						"label": "uint256",
						"numberOfBytes": "32"
					}
				}
			},
			"userdoc": {
				"kind": "user",
				"methods": {},
				"version": 1
			}
		}
	}
}