{
  "_format": "hh-sol-artifact-1",
  "contractName": "TokenSwap",
  "sourceName": "contracts/TokenSwap.sol",
  "abi": [
    {
      "inputs": [
        {
          "internalType": "address",
          "name": "_tokenA",
          "type": "address"
        },
        {
          "internalType": "address",
          "name": "_tokenB",
          "type": "address"
        }
      ],
      "stateMutability": "nonpayable",
      "type": "constructor"
    },
    {
      "inputs": [],
      "name": "ReentrancyGuardReentrantCall",
      "type": "error"
    },
    {
      "anonymous": false,
      "inputs": [
        {
          "indexed": false,
          "internalType": "address",
          "name": "oldAdmin",
          "type": "address"
        },
        {
          "indexed": false,
          "internalType": "address",
          "name": "newAdmin",
          "type": "address"
        }
      ],
      "name": "AdminChanged",
      "type": "event"
    },
    {
      "anonymous": false,
      "inputs": [
        {
          "indexed": false,
          "internalType": "uint256",
          "name": "amount",
          "type": "uint256"
        }
      ],
      "name": "ETHWithdrawn",
      "type": "event"
    },
    {
      "anonymous": false,
      "inputs": [
        {
          "indexed": false,
          "internalType": "uint256",
          "name": "_fees",
          "type": "uint256"
        }
      ],
      "name": "SetNewFees",
      "type": "event"
    },
    {
      "anonymous": false,
      "inputs": [
        {
          "indexed": true,
          "internalType": "uint256",
          "name": "_ratio",
          "type": "uint256"
        }
      ],
      "name": "SetNewRatio",
      "type": "event"
    },
    {
      "anonymous": false,
      "inputs": [
        {
          "indexed": true,
          "internalType": "address",
          "name": "user",
          "type": "address"
        },
        {
          "indexed": false,
          "internalType": "string",
          "name": "direction",
          "type": "string"
        },
        {
          "indexed": false,
          "internalType": "uint256",
          "name": "amountIn",
          "type": "uint256"
        },
        {
          "indexed": false,
          "internalType": "uint256",
          "name": "amountOut",
          "type": "uint256"
        },
        {
          "indexed": false,
          "internalType": "uint256",
          "name": "fees",
          "type": "uint256"
        }
      ],
      "name": "TokenSwapped",
      "type": "event"
    },
    {
      "anonymous": false,
      "inputs": [
        {
          "indexed": false,
          "internalType": "address",
          "name": "token",
          "type": "address"
        },
        {
          "indexed": false,
          "internalType": "uint256",
          "name": "amount",
          "type": "uint256"
        }
      ],
      "name": "TokensWithdrawn",
      "type": "event"
    },
    {
      "inputs": [],
      "name": "admin",
      "outputs": [
        {
          "internalType": "address payable",
          "name": "",
          "type": "address"
        }
      ],
      "stateMutability": "view",
      "type": "function"
    },
    {
      "inputs": [
        {
          "internalType": "uint256",
          "name": "amount",
          "type": "uint256"
        }
      ],
      "name": "buyTokensA",
      "outputs": [],
      "stateMutability": "payable",
      "type": "function"
    },
    {
      "inputs": [
        {
          "internalType": "uint256",
          "name": "amount",
          "type": "uint256"
        }
      ],
      "name": "buyTokensB",
      "outputs": [],
      "stateMutability": "payable",
      "type": "function"
    },
    {
      "inputs": [
        {
          "internalType": "address",
          "name": "newAdmin",
          "type": "address"
        }
      ],
      "name": "changeAdmin",
      "outputs": [],
      "stateMutability": "nonpayable",
      "type": "function"
    },
    {
      "inputs": [],
      "name": "fees",
      "outputs": [
        {
          "internalType": "uint256",
          "name": "",
          "type": "uint256"
        }
      ],
      "stateMutability": "view",
      "type": "function"
    },
    {
      "inputs": [],
      "name": "getFees",
      "outputs": [
        {
          "internalType": "uint256",
          "name": "",
          "type": "uint256"
        }
      ],
      "stateMutability": "view",
      "type": "function"
    },
    {
      "inputs": [],
      "name": "getRatio",
      "outputs": [
        {
          "internalType": "uint256",
          "name": "",
          "type": "uint256"
        }
      ],
      "stateMutability": "view",
      "type": "function"
    },
    {
      "inputs": [],
      "name": "ratioAB",
      "outputs": [
        {
          "internalType": "uint256",
          "name": "",
          "type": "uint256"
        }
      ],
      "stateMutability": "view",
      "type": "function"
    },
    {
      "inputs": [
        {
          "internalType": "uint256",
          "name": "_fees",
          "type": "uint256"
        }
      ],
      "name": "setFees",
      "outputs": [],
      "stateMutability": "nonpayable",
      "type": "function"
    },
    {
      "inputs": [
        {
          "internalType": "uint256",
          "name": "_ratio",
          "type": "uint256"
        }
      ],
      "name": "setRatio",
      "outputs": [],
      "stateMutability": "nonpayable",
      "type": "function"
    },
    {
      "inputs": [
        {
          "internalType": "uint256",
          "name": "amountTKA",
          "type": "uint256"
        }
      ],
      "name": "swapTKA",
      "outputs": [
        {
          "internalType": "uint256",
          "name": "",
          "type": "uint256"
        }
      ],
      "stateMutability": "nonpayable",
      "type": "function"
    },
    {
      "inputs": [
        {
          "internalType": "uint256",
          "name": "amountTKB",
          "type": "uint256"
        }
      ],
      "name": "swapTKB",
      "outputs": [
        {
          "internalType": "uint256",
          "name": "",
          "type": "uint256"
        }
      ],
      "stateMutability": "nonpayable",
      "type": "function"
    },
    {
      "inputs": [],
      "name": "tokenA",
      "outputs": [
        {
          "internalType": "contract IERC20",
          "name": "",
          "type": "address"
        }
      ],
      "stateMutability": "view",
      "type": "function"
    },
    {
      "inputs": [],
      "name": "tokenAInstance",
      "outputs": [
        {
          "internalType": "contract AToken",
          "name": "",
          "type": "address"
        }
      ],
      "stateMutability": "view",
      "type": "function"
    },
    {
      "inputs": [],
      "name": "tokenB",
      "outputs": [
        {
          "internalType": "contract IERC20",
          "name": "",
          "type": "address"
        }
      ],
      "stateMutability": "view",
      "type": "function"
    },
    {
      "inputs": [],
      "name": "tokenBInstance",
      "outputs": [
        {
          "internalType": "contract BToken",
          "name": "",
          "type": "address"
        }
      ],
      "stateMutability": "view",
      "type": "function"
    },
    {
      "inputs": [
        {
          "internalType": "uint256",
          "name": "amount",
          "type": "uint256"
        }
      ],
      "name": "withdrawETH",
      "outputs": [],
      "stateMutability": "nonpayable",
      "type": "function"
    },
    {
      "inputs": [
        {
          "internalType": "uint256",
          "name": "amount",
          "type": "uint256"
        }
      ],
      "name": "withdrawETHFromAToken",
      "outputs": [],
      "stateMutability": "nonpayable",
      "type": "function"
    },
    {
      "inputs": [
        {
          "internalType": "uint256",
          "name": "amount",
          "type": "uint256"
        }
      ],
      "name": "withdrawETHFromBToken",
      "outputs": [],
      "stateMutability": "nonpayable",
      "type": "function"
    },
    {
      "inputs": [
        {
          "internalType": "address",
          "name": "token",
          "type": "address"
        },
        {
          "internalType": "uint256",
          "name": "amount",
          "type": "uint256"
        }
      ],
      "name": "withdrawTokens",
      "outputs": [],
      "stateMutability": "nonpayable",
      "type": "function"
    },
    {
      "stateMutability": "payable",
      "type": "receive"
    }
  ],
  "bytecode": "0x608060405234801561001057600080fd5b50604051613dd6380380613dd683398181016040528101906100329190610399565b600160008190555061005467705dc0d6bebe10ce60c01b61033360201b60201c565b61006e677ad7a65453e33b4c60c01b61033360201b60201c565b33600560006101000a81548173ffffffffffffffffffffffffffffffffffffffff021916908373ffffffffffffffffffffffffffffffffffffffff1602179055506100c9673235d549fbe2eba760c01b61033360201b60201c565b81600160006101000a81548173ffffffffffffffffffffffffffffffffffffffff021916908373ffffffffffffffffffffffffffffffffffffffff16021790555061012467c0a7d52321dadb7260c01b61033360201b60201c565b80600260006101000a81548173ffffffffffffffffffffffffffffffffffffffff021916908373ffffffffffffffffffffffffffffffffffffffff16021790555061017f67023b26ffcd3cb72360c01b61033360201b60201c565b61019967e2b8871f561e807e60c01b61033360201b60201c565b6101b3673c738b2fde3c99b760c01b61033360201b60201c565b600073ffffffffffffffffffffffffffffffffffffffff168273ffffffffffffffffffffffffffffffffffffffff161415801561021d5750600073ffffffffffffffffffffffffffffffffffffffff168173ffffffffffffffffffffffffffffffffffffffff1614155b61025c576040517f08c379a000000000000000000000000000000000000000000000000000000000815260040161025390610436565b60405180910390fd5b61027667ac79d9f038742b5560c01b61033360201b60201c565b61029067d921b72adb1d5e3060c01b61033360201b60201c565b81600360006101000a81548173ffffffffffffffffffffffffffffffffffffffff021916908373ffffffffffffffffffffffffffffffffffffffff1602179055506102eb675c68e3dc96971e1d60c01b61033360201b60201c565b80600460006101000a81548173ffffffffffffffffffffffffffffffffffffffff021916908373ffffffffffffffffffffffffffffffffffffffff1602179055505050610456565b50565b600080fd5b600073ffffffffffffffffffffffffffffffffffffffff82169050919050565b60006103668261033b565b9050919050565b6103768161035b565b811461038157600080fd5b50565b6000815190506103938161036d565b92915050565b600080604083850312156103b0576103af610336565b5b60006103be85828601610384565b92505060206103cf85828601610384565b9150509250929050565b600082825260208201905092915050565b7f546f6b656e20616464726573732063616e6e6f74206265203000000000000000600082015250565b60006104206019836103d9565b915061042b826103ea565b602082019050919050565b6000602082019050818103600083015261044f81610413565b9050919050565b613971806104656000396000f3fe6080604052600436106101235760003560e01c80639af1d35a116100a0578063e51426d711610064578063e51426d7146103bd578063ec1ebd7a146103e8578063f14210a614610413578063f21d8e0b1461043c578063f851a440146104585761012a565b80639af1d35a146102ea578063b2237ba314610315578063d807cce01461033e578063db8d55f114610367578063e48400d9146103925761012a565b80633d18678e116100e75780633d18678e146102055780635f64b55b1461022e5780637124578a146102595780637226d2c3146102845780638f283970146102c15761012a565b806306b091f91461012f5780630fc63d10146101585780631e4d9a2c14610183578063292c9cf5146101ac5780632ee2a9f7146101c85761012a565b3661012a57005b600080fd5b34801561013b57600080fd5b5061015660048036038101906101519190612df2565b610483565b005b34801561016457600080fd5b5061016d6106f4565b60405161017a9190612e91565b60405180910390f35b34801561018f57600080fd5b506101aa60048036038101906101a59190612eac565b61071a565b005b6101c660048036038101906101c19190612eac565b610975565b005b3480156101d457600080fd5b506101ef60048036038101906101ea9190612eac565b610b72565b6040516101fc9190612ee8565b60405180910390f35b34801561021157600080fd5b5061022c60048036038101906102279190612eac565b611401565b005b34801561023a57600080fd5b506102436115c2565b6040516102509190612e91565b60405180910390f35b34801561026557600080fd5b5061026e6115e8565b60405161027b9190612f36565b60405180910390f35b34801561029057600080fd5b506102ab60048036038101906102a69190612eac565b61160e565b6040516102b89190612ee8565b60405180910390f35b3480156102cd57600080fd5b506102e860048036038101906102e39190612f51565b611e9e565b005b3480156102f657600080fd5b506102ff61217c565b60405161030c9190612ee8565b60405180910390f35b34801561032157600080fd5b5061033c60048036038101906103379190612eac565b612182565b005b34801561034a57600080fd5b5061036560048036038101906103609190612eac565b612339565b005b34801561037357600080fd5b5061037c612594565b6040516103899190612ee8565b60405180910390f35b34801561039e57600080fd5b506103a761270a565b6040516103b49190612f9f565b60405180910390f35b3480156103c957600080fd5b506103d2612730565b6040516103df9190612ee8565b60405180910390f35b3480156103f457600080fd5b506103fd612736565b60405161040a9190612ee8565b60405180910390f35b34801561041f57600080fd5b5061043a60048036038101906104359190612eac565b6128ac565b005b61045660048036038101906104519190612eac565b612ae3565b005b34801561046457600080fd5b5061046d612ce0565b60405161047a9190612fdb565b60405180910390f35b61049767379114c5cfbdcfde60c01b612d06565b6104ab671f16b247ae9ff4d760c01b612d06565b6104bf67de01744844d0ddd160c01b612d06565b6104d367f5a77203119e89a160c01b612d06565b6104e767593f5691d9cf4dde60c01b612d06565b600560009054906101000a900473ffffffffffffffffffffffffffffffffffffffff1673ffffffffffffffffffffffffffffffffffffffff163373ffffffffffffffffffffffffffffffffffffffff1614610577576040517f08c379a000000000000000000000000000000000000000000000000000000000815260040161056e90613053565b60405180910390fd5b61058b670f10d3daa2b375a460c01b612d06565b61059f67dc2e52724b287f7160c01b612d06565b6105b367d481ccffb47e461160c01b612d06565b6105c767d9d787b1189f213160c01b612d06565b6105db67781ecef8539eb71860c01b612d06565b6105ef67ce48a46158052fb860c01b612d06565b8173ffffffffffffffffffffffffffffffffffffffff1663a9059cbb600560009054906101000a900473ffffffffffffffffffffffffffffffffffffffff16836040518363ffffffff1660e01b815260040161064c929190613094565b6020604051808303816000875af115801561066b573d6000803e3d6000fd5b505050506040513d601f19601f8201168201806040525081019061068f91906130f5565b506106a366b48b8f04875d0160c01b612d06565b6106b7676d3b816d4b9177ce60c01b612d06565b7f6352c5382c4a4578e712449ca65e83cdb392d045dfcf1cad9615189db2da244b82826040516106e8929190613131565b60405180910390a15050565b600160009054906101000a900473ffffffffffffffffffffffffffffffffffffffff1681565b61072e671d5700ff8132b1b860c01b612d06565b610742671f16b247ae9ff4d760c01b612d06565b61075667de01744844d0ddd160c01b612d06565b61076a67f5a77203119e89a160c01b612d06565b61077e67593f5691d9cf4dde60c01b612d06565b600560009054906101000a900473ffffffffffffffffffffffffffffffffffffffff1673ffffffffffffffffffffffffffffffffffffffff163373ffffffffffffffffffffffffffffffffffffffff161461080e576040517f08c379a000000000000000000000000000000000000000000000000000000000815260040161080590613053565b60405180910390fd5b610822670f10d3daa2b375a460c01b612d06565b61083667dc2e52724b287f7160c01b612d06565b61084a67c3e0e51d4f03348b60c01b612d06565b61085e67d778b772a12dfb7660c01b612d06565b6108726760fb28ca796b46d060c01b612d06565b61088667bd52cbda30e8cc7060c01b612d06565b600460009054906101000a900473ffffffffffffffffffffffffffffffffffffffff1673ffffffffffffffffffffffffffffffffffffffff1663f14210a6826040518263ffffffff1660e01b81526004016108e19190612ee8565b600060405180830381600087803b1580156108fb57600080fd5b505af115801561090f573d6000803e3d6000fd5b50505050610927674a2b61603d3c3f0260c01b612d06565b61093b67805c888f2947bd1660c01b612d06565b7f043f607a14d3b4f0a11a0b2e192bbfcd894298ba5abf22553be6081406db28aa8160405161096a9190612ee8565b60405180910390a150565b61098967f0b8025671aea75f60c01b612d06565b61099d671f16b247ae9ff4d760c01b612d06565b6109b167de01744844d0ddd160c01b612d06565b6109c567f5a77203119e89a160c01b612d06565b6109d967593f5691d9cf4dde60c01b612d06565b600560009054906101000a900473ffffffffffffffffffffffffffffffffffffffff1673ffffffffffffffffffffffffffffffffffffffff163373ffffffffffffffffffffffffffffffffffffffff1614610a69576040517f08c379a0000000000000000000000000000000000000000000000000000000008152600401610a6090613053565b60405180910390fd5b610a7d670f10d3daa2b375a460c01b612d06565b610a9167dc2e52724b287f7160c01b612d06565b610aa56729d4647253c1831560c01b612d06565b610ab967564418279e87056d60c01b612d06565b610acd67b8f284e6f77c76a860c01b612d06565b610ae167f3c735d192fc444160c01b612d06565b600360009054906101000a900473ffffffffffffffffffffffffffffffffffffffff1673ffffffffffffffffffffffffffffffffffffffff16633610724e34836040518363ffffffff1660e01b8152600401610b3d9190612ee8565b6000604051808303818588803b158015610b5657600080fd5b505af1158015610b6a573d6000803e3d6000fd5b505050505050565b6000610b8867ce02da8f34f9a5e760c01b612d06565b610b90612d09565b610ba4673aef831d7b258d1960c01b612d06565b610bb867f8523d95c191f11960c01b612d06565b610bcc6794ffc2a50a72153360c01b612d06565b610be067aa58727b1cf6ad3860c01b612d06565b610bf467437540679f031b9f60c01b612d06565b60008211610c37576040517f08c379a0000000000000000000000000000000000000000000000000000000008152600401610c2e906131a6565b60405180910390fd5b610c4b673d6bbad970653e0b60c01b612d06565b610c5f67de7050a96914a90760c01b612d06565b610c73672587bdafe660bc3360c01b612d06565b610c87672a810e1900ba545d60c01b612d06565b81600260009054906101000a900473ffffffffffffffffffffffffffffffffffffffff1673ffffffffffffffffffffffffffffffffffffffff166370a08231336040518263ffffffff1660e01b8152600401610ce391906131c6565b602060405180830381865afa158015610d00573d6000803e3d6000fd5b505050506040513d601f19601f82011682018060405250810190610d2491906131f6565b1015610d65576040517f08c379a0000000000000000000000000000000000000000000000000000000008152600401610d5c9061326f565b60405180910390fd5b610d79677a4dac6647e0d92560c01b612d06565b610d8d67dc8da8c393daa6ca60c01b612d06565b610da06695634af874285f60c01b612d06565b610db467c3c14d5940a2bba060c01b612d06565b81600260009054906101000a900473ffffffffffffffffffffffffffffffffffffffff1673ffffffffffffffffffffffffffffffffffffffff1663dd62ed3e33306040518363ffffffff1660e01b8152600401610e1292919061328f565b602060405180830381865afa158015610e2f573d6000803e3d6000fd5b505050506040513d601f19601f82011682018060405250810190610e5391906131f6565b1015610e94576040517f08c379a0000000000000000000000000000000000000000000000000000000008152600401610e8b90613304565b60405180910390fd5b610ea867097962978e2f075e60c01b612d06565b610ebc6746ceded12660e4df60c01b612d06565b610ed0672f39043a3a98a77f60c01b612d06565b610ee4678526e6bd4bb60c4f60c01b612d06565b600060065411610f29576040517f08c379a0000000000000000000000000000000000000000000000000000000008152600401610f2090613370565b60405180910390fd5b610f3d679a8b95744d93bf8a60c01b612d06565b610f516776c347f8d12bf89360c01b612d06565b610f656747b90c5acc7ab79f60c01b612d06565b600060065483610f7591906133ee565b9050610f8b67163523c30736602a60c01b612d06565b610f9f679a6377708bea232060c01b612d06565b6000606460075483610fb1919061341f565b610fbb91906133ee565b9050610fd1670b1d6a4677d2b8d060c01b612d06565b610fe5674e5554e3353c1a0560c01b612d06565b60008183610ff39190613461565b905061100967d839a49ee258308160c01b612d06565b61101d67520414c8ec6eb3c160c01b612d06565b611031677850c512146f783360c01b612d06565b60008111611074576040517f08c379a000000000000000000000000000000000000000000000000000000000815260040161106b90613507565b60405180910390fd5b611088670c5fc56472be49c560c01b612d06565b61109c67194f3e643484460760c01b612d06565b6110b0679e0654e00084d1c460c01b612d06565b6110c4679812035704352f8b60c01b612d06565b80600160009054906101000a900473ffffffffffffffffffffffffffffffffffffffff1673ffffffffffffffffffffffffffffffffffffffff166370a08231306040518263ffffffff1660e01b815260040161112091906131c6565b602060405180830381865afa15801561113d573d6000803e3d6000fd5b505050506040513d601f19601f8201168201806040525081019061116191906131f6565b10156111a2576040517f08c379a000000000000000000000000000000000000000000000000000000000815260040161119990613573565b60405180910390fd5b6111b667066434f1c0c99c4860c01b612d06565b6111ca6745d71f88edc30e3f60c01b612d06565b6111de670bd81028146418ed60c01b612d06565b600260009054906101000a900473ffffffffffffffffffffffffffffffffffffffff1673ffffffffffffffffffffffffffffffffffffffff166323b872dd3330886040518463ffffffff1660e01b815260040161123d93929190613593565b6020604051808303816000875af115801561125c573d6000803e3d6000fd5b505050506040513d601f19601f8201168201806040525081019061128091906130f5565b5061129567e817e36f1c93f36360c01b612d06565b6112a9678ec5e5ae2b1a047c60c01b612d06565b600160009054906101000a900473ffffffffffffffffffffffffffffffffffffffff1673ffffffffffffffffffffffffffffffffffffffff1663a9059cbb33836040518363ffffffff1660e01b8152600401611306929190613131565b6020604051808303816000875af1158015611325573d6000803e3d6000fd5b505050506040513d601f19601f8201168201806040525081019061134991906130f5565b5061135e671d56254f1170780360c01b612d06565b61137267a5f911d6dcff19ef60c01b612d06565b3373ffffffffffffffffffffffffffffffffffffffff167fb89fed6cc88390149dc7d080f1bf6d57e9049fe6a35140f3b208a6a310073daa86836007546040516113be93929190613616565b60405180910390a26113da677759a846eb9e33fd60c01b612d06565b6113ee672bcc704ef5ef810460c01b612d06565b8093505050506113fc612d4f565b919050565b6114156733f4c6d86aecc2d260c01b612d06565b611429671f16b247ae9ff4d760c01b612d06565b61143d67de01744844d0ddd160c01b612d06565b61145167f5a77203119e89a160c01b612d06565b61146567593f5691d9cf4dde60c01b612d06565b600560009054906101000a900473ffffffffffffffffffffffffffffffffffffffff1673ffffffffffffffffffffffffffffffffffffffff163373ffffffffffffffffffffffffffffffffffffffff16146114f5576040517f08c379a00000000000000000000000000000000000000000000000000000000081526004016114ec90613053565b60405180910390fd5b611509670f10d3daa2b375a460c01b612d06565b61151d67dc2e52724b287f7160c01b612d06565b611531670c3961b47291e0ff60c01b612d06565b611545675d00e11351a85ff360c01b612d06565b61155967ba424fb713bfbce060c01b612d06565b8060078190555061157467050deeaa7ce3e69960c01b612d06565b611588670c19ccedd33d34a060c01b612d06565b7f9a8458c31bcdc30e25b92c7c0fffe34ffa21597dc6760eb48afdb18b0e291925816040516115b79190612ee8565b60405180910390a150565b600260009054906101000a900473ffffffffffffffffffffffffffffffffffffffff1681565b600360009054906101000a900473ffffffffffffffffffffffffffffffffffffffff1681565b600061162467c2892a2256cbbb0160c01b612d06565b61162c612d09565b61164067b794249f2d6b49fe60c01b612d06565b6116546746357c2fc695fa5760c01b612d06565b61166867f6b6a8a2b3e626e460c01b612d06565b61167c67d37b314e481c4bbc60c01b612d06565b61169067e06ae9826779bf8e60c01b612d06565b600082116116d3576040517f08c379a00000000000000000000000000000000000000000000000000000000081526004016116ca906136ac565b60405180910390fd5b6116e767f4223dfa681988ce60c01b612d06565b6116fb67a3ec37309e915aab60c01b612d06565b61170f672bad6640ff0e641860c01b612d06565b61172367cdefed9acd17a01160c01b612d06565b81600160009054906101000a900473ffffffffffffffffffffffffffffffffffffffff1673ffffffffffffffffffffffffffffffffffffffff166370a08231336040518263ffffffff1660e01b815260040161177f91906131c6565b602060405180830381865afa15801561179c573d6000803e3d6000fd5b505050506040513d601f19601f820116820180604052508101906117c091906131f6565b1015611801576040517f08c379a00000000000000000000000000000000000000000000000000000000081526004016117f890613718565b60405180910390fd5b6118156737f6f957a79610fc60c01b612d06565b6118296794198118dfe962d960c01b612d06565b61183d6771565ccc49d4f48560c01b612d06565b61185167154e239204d3789c60c01b612d06565b81600160009054906101000a900473ffffffffffffffffffffffffffffffffffffffff1673ffffffffffffffffffffffffffffffffffffffff1663dd62ed3e33306040518363ffffffff1660e01b81526004016118af92919061328f565b602060405180830381865afa1580156118cc573d6000803e3d6000fd5b505050506040513d601f19601f820116820180604052508101906118f091906131f6565b1015611931576040517f08c379a000000000000000000000000000000000000000000000000000000000815260040161192890613784565b60405180910390fd5b611945677f069c3181ca50b660c01b612d06565b611959677484754f20b945a260c01b612d06565b61196d67f9cbfc26c2bc666f60c01b612d06565b6119816733d9cd48feb7f99b60c01b612d06565b6000600654116119c6576040517f08c379a00000000000000000000000000000000000000000000000000000000081526004016119bd90613370565b60405180910390fd5b6119da67ab11e61bf92c72e460c01b612d06565b6119ee6731271690f542776060c01b612d06565b611a026755308e367eb9a15a60c01b612d06565b600060065483611a12919061341f565b9050611a2867e6f7a321723c470660c01b612d06565b611a3c67cfef2b2f4898870160c01b612d06565b6000606460075483611a4e919061341f565b611a5891906133ee565b9050611a6e670d85d3768cf2303e60c01b612d06565b611a8267f525681480beca0460c01b612d06565b60008183611a909190613461565b9050611aa6678b35ad6aced12b7c60c01b612d06565b611aba67666d1e86492ac2de60c01b612d06565b611ace6742936b70c8d642f760c01b612d06565b60008111611b11576040517f08c379a0000000000000000000000000000000000000000000000000000000008152600401611b0890613507565b60405180910390fd5b611b2567d6366e7bd362054260c01b612d06565b611b39670b71e39a24a6ed1c60c01b612d06565b611b4d6732f899c7a58fa9fe60c01b612d06565b611b616758cc853ef6006a0560c01b612d06565b80600260009054906101000a900473ffffffffffffffffffffffffffffffffffffffff1673ffffffffffffffffffffffffffffffffffffffff166370a08231306040518263ffffffff1660e01b8152600401611bbd91906131c6565b602060405180830381865afa158015611bda573d6000803e3d6000fd5b505050506040513d601f19601f82011682018060405250810190611bfe91906131f6565b1015611c3f576040517f08c379a0000000000000000000000000000000000000000000000000000000008152600401611c36906137f0565b60405180910390fd5b611c5367351e601ff267cf6860c01b612d06565b611c67672cd9f3bfadd8ada060c01b612d06565b611c7b67084272c3503e4a6160c01b612d06565b600160009054906101000a900473ffffffffffffffffffffffffffffffffffffffff1673ffffffffffffffffffffffffffffffffffffffff166323b872dd3330886040518463ffffffff1660e01b8152600401611cda93929190613593565b6020604051808303816000875af1158015611cf9573d6000803e3d6000fd5b505050506040513d601f19601f82011682018060405250810190611d1d91906130f5565b50611d3267e6502ca7b0791fe860c01b612d06565b611d4667f193f943010a48d360c01b612d06565b600260009054906101000a900473ffffffffffffffffffffffffffffffffffffffff1673ffffffffffffffffffffffffffffffffffffffff1663a9059cbb33836040518363ffffffff1660e01b8152600401611da3929190613131565b6020604051808303816000875af1158015611dc2573d6000803e3d6000fd5b505050506040513d601f19601f82011682018060405250810190611de691906130f5565b50611dfb67634aecd1338a33a660c01b612d06565b611e0f67b1357b4fb6f3269360c01b612d06565b3373ffffffffffffffffffffffffffffffffffffffff167fb89fed6cc88390149dc7d080f1bf6d57e9049fe6a35140f3b208a6a310073daa8683600754604051611e5b9392919061385c565b60405180910390a2611e7767b19aac6c70a59fbb60c01b612d06565b611e8b67483730ce87201a5560c01b612d06565b809350505050611e99612d4f565b919050565b611eb26799ee935879e1ed3560c01b612d06565b611ec6671f16b247ae9ff4d760c01b612d06565b611eda67de01744844d0ddd160c01b612d06565b611eee67f5a77203119e89a160c01b612d06565b611f0267593f5691d9cf4dde60c01b612d06565b600560009054906101000a900473ffffffffffffffffffffffffffffffffffffffff1673ffffffffffffffffffffffffffffffffffffffff163373ffffffffffffffffffffffffffffffffffffffff1614611f92576040517f08c379a0000000000000000000000000000000000000000000000000000000008152600401611f8990613053565b60405180910390fd5b611fa6670f10d3daa2b375a460c01b612d06565b611fba67dc2e52724b287f7160c01b612d06565b611fce67842fe4fb9c793e7e60c01b612d06565b611fe267097642f19308fd8860c01b612d06565b611ff6674f047e1992d0636460c01b612d06565b61200a67b0b09e6491b29b4960c01b612d06565b61201e674f66b49f5f812fce60c01b612d06565b600073ffffffffffffffffffffffffffffffffffffffff168173ffffffffffffffffffffffffffffffffffffffff160361208d576040517f08c379a0000000000000000000000000000000000000000000000000000000008152600401612084906138f2565b60405180910390fd5b6120a1676a912ab724019cf660c01b612d06565b6120b567cb7015ee9b6b685e60c01b612d06565b6120c967f1f070eac76da56b60c01b612d06565b7f7e644d79422f17c01e4894b5f4f588d331ebfa28653d42ae832dc59e38c9798f600560009054906101000a900473ffffffffffffffffffffffffffffffffffffffff168260405161211c929190613912565b60405180910390a161213867ee67f773ffbc9d3860c01b612d06565b80600560006101000a81548173ffffffffffffffffffffffffffffffffffffffff021916908373ffffffffffffffffffffffffffffffffffffffff16021790555050565b60075481565b61219667b44484e5b764d00260c01b612d06565b6121aa671f16b247ae9ff4d760c01b612d06565b6121be67de01744844d0ddd160c01b612d06565b6121d267f5a77203119e89a160c01b612d06565b6121e667593f5691d9cf4dde60c01b612d06565b600560009054906101000a900473ffffffffffffffffffffffffffffffffffffffff1673ffffffffffffffffffffffffffffffffffffffff163373ffffffffffffffffffffffffffffffffffffffff1614612276576040517f08c379a000000000000000000000000000000000000000000000000000000000815260040161226d90613053565b60405180910390fd5b61228a670f10d3daa2b375a460c01b612d06565b61229e67dc2e52724b287f7160c01b612d06565b6122b267100cfb73f7fc805e60c01b612d06565b6122c667d134eca57d04a6e460c01b612d06565b6122da67a3610afd876fe04a60c01b612d06565b806006819055506122f56717c22125f1e04bda60c01b612d06565b61230967b93be83d051edf5b60c01b612d06565b807f20db44d484c1f7f7b0e1e5de67131e8e31bba57d88446092c7611b9518c1069c60405160405180910390a250565b61234d6734004177672a5d6360c01b612d06565b612361671f16b247ae9ff4d760c01b612d06565b61237567de01744844d0ddd160c01b612d06565b61238967f5a77203119e89a160c01b612d06565b61239d67593f5691d9cf4dde60c01b612d06565b600560009054906101000a900473ffffffffffffffffffffffffffffffffffffffff1673ffffffffffffffffffffffffffffffffffffffff163373ffffffffffffffffffffffffffffffffffffffff161461242d576040517f08c379a000000000000000000000000000000000000000000000000000000000815260040161242490613053565b60405180910390fd5b612441670f10d3daa2b375a460c01b612d06565b61245567dc2e52724b287f7160c01b612d06565b612469670366433ed7ee133b60c01b612d06565b61247d67315e56cea448064660c01b612d06565b61249167cf1d1009856920b260c01b612d06565b6124a56738e55c3e468c600760c01b612d06565b600360009054906101000a900473ffffffffffffffffffffffffffffffffffffffff1673ffffffffffffffffffffffffffffffffffffffff1663f14210a6826040518263ffffffff1660e01b81526004016125009190612ee8565b600060405180830381600087803b15801561251a57600080fd5b505af115801561252e573d6000803e3d6000fd5b5050505061254667edc7792fe44aeaa060c01b612d06565b61255a6728bcb6205ba22c8560c01b612d06565b7f043f607a14d3b4f0a11a0b2e192bbfcd894298ba5abf22553be6081406db28aa816040516125899190612ee8565b60405180910390a150565b60006125aa679554d4422fee19fb60c01b612d06565b6125be671f16b247ae9ff4d760c01b612d06565b6125d267de01744844d0ddd160c01b612d06565b6125e667f5a77203119e89a160c01b612d06565b6125fa67593f5691d9cf4dde60c01b612d06565b600560009054906101000a900473ffffffffffffffffffffffffffffffffffffffff1673ffffffffffffffffffffffffffffffffffffffff163373ffffffffffffffffffffffffffffffffffffffff161461268a576040517f08c379a000000000000000000000000000000000000000000000000000000000815260040161268190613053565b60405180910390fd5b61269e670f10d3daa2b375a460c01b612d06565b6126b267dc2e52724b287f7160c01b612d06565b6126c6671c10073228bfb58d60c01b612d06565b6126da673a37421fe897865f60c01b612d06565b6126ee67391ac9cf942a234d60c01b612d06565b61270267eba10a615804666060c01b612d06565b600754905090565b600460009054906101000a900473ffffffffffffffffffffffffffffffffffffffff1681565b60065481565b600061274c67bb9a2fdf2f03c31060c01b612d06565b612760671f16b247ae9ff4d760c01b612d06565b61277467de01744844d0ddd160c01b612d06565b61278867f5a77203119e89a160c01b612d06565b61279c67593f5691d9cf4dde60c01b612d06565b600560009054906101000a900473ffffffffffffffffffffffffffffffffffffffff1673ffffffffffffffffffffffffffffffffffffffff163373ffffffffffffffffffffffffffffffffffffffff161461282c576040517f08c379a000000000000000000000000000000000000000000000000000000000815260040161282390613053565b60405180910390fd5b612840670f10d3daa2b375a460c01b612d06565b61285467dc2e52724b287f7160c01b612d06565b6128686727f6627e5e6f9ae460c01b612d06565b61287c67b02c7b61660bfe2060c01b612d06565b61289067b3f474e89819949760c01b612d06565b6128a4679cf1c467db7e6abe60c01b612d06565b600654905090565b6128c067e27904a195c7fe8a60c01b612d06565b6128d4671f16b247ae9ff4d760c01b612d06565b6128e867de01744844d0ddd160c01b612d06565b6128fc67f5a77203119e89a160c01b612d06565b61291067593f5691d9cf4dde60c01b612d06565b600560009054906101000a900473ffffffffffffffffffffffffffffffffffffffff1673ffffffffffffffffffffffffffffffffffffffff163373ffffffffffffffffffffffffffffffffffffffff16146129a0576040517f08c379a000000000000000000000000000000000000000000000000000000000815260040161299790613053565b60405180910390fd5b6129b4670f10d3daa2b375a460c01b612d06565b6129c867dc2e52724b287f7160c01b612d06565b6129dc67a0764677dc18ab3760c01b612d06565b6129f0675a6410bba795f39c60c01b612d06565b612a04679aacb59ad65755c760c01b612d06565b612a1867f94704b7d1760e4360c01b612d06565b600560009054906101000a900473ffffffffffffffffffffffffffffffffffffffff1673ffffffffffffffffffffffffffffffffffffffff166108fc829081150290604051600060405180830381858888f19350505050158015612a80573d6000803e3d6000fd5b50612a9567fd0e72a7f4dbd81160c01b612d06565b612aa96737582a60713f619a60c01b612d06565b7f043f607a14d3b4f0a11a0b2e192bbfcd894298ba5abf22553be6081406db28aa81604051612ad89190612ee8565b60405180910390a150565b612af76751d508226a07c23560c01b612d06565b612b0b671f16b247ae9ff4d760c01b612d06565b612b1f67de01744844d0ddd160c01b612d06565b612b3367f5a77203119e89a160c01b612d06565b612b4767593f5691d9cf4dde60c01b612d06565b600560009054906101000a900473ffffffffffffffffffffffffffffffffffffffff1673ffffffffffffffffffffffffffffffffffffffff163373ffffffffffffffffffffffffffffffffffffffff1614612bd7576040517f08c379a0000000000000000000000000000000000000000000000000000000008152600401612bce90613053565b60405180910390fd5b612beb670f10d3daa2b375a460c01b612d06565b612bff67dc2e52724b287f7160c01b612d06565b612c136792aec981f6ebc1f860c01b612d06565b612c2767549989f5cec0a01860c01b612d06565b612c3b67e7e11e481e9c609a60c01b612d06565b612c4f67aacd36e0f81d282f60c01b612d06565b600460009054906101000a900473ffffffffffffffffffffffffffffffffffffffff1673ffffffffffffffffffffffffffffffffffffffff16633610724e34836040518363ffffffff1660e01b8152600401612cab9190612ee8565b6000604051808303818588803b158015612cc457600080fd5b505af1158015612cd8573d6000803e3d6000fd5b505050505050565b600560009054906101000a900473ffffffffffffffffffffffffffffffffffffffff1681565b50565b600260005403612d45576040517f3ee5aeb500000000000000000000000000000000000000000000000000000000815260040160405180910390fd5b6002600081905550565b6001600081905550565b600080fd5b600073ffffffffffffffffffffffffffffffffffffffff82169050919050565b6000612d8982612d5e565b9050919050565b612d9981612d7e565b8114612da457600080fd5b50565b600081359050612db681612d90565b92915050565b6000819050919050565b612dcf81612dbc565b8114612dda57600080fd5b50565b600081359050612dec81612dc6565b92915050565b60008060408385031215612e0957612e08612d59565b5b6000612e1785828601612da7565b9250506020612e2885828601612ddd565b9150509250929050565b6000819050919050565b6000612e57612e52612e4d84612d5e565b612e32565b612d5e565b9050919050565b6000612e6982612e3c565b9050919050565b6000612e7b82612e5e565b9050919050565b612e8b81612e70565b82525050565b6000602082019050612ea66000830184612e82565b92915050565b600060208284031215612ec257612ec1612d59565b5b6000612ed084828501612ddd565b91505092915050565b612ee281612dbc565b82525050565b6000602082019050612efd6000830184612ed9565b92915050565b6000612f0e82612e3c565b9050919050565b6000612f2082612f03565b9050919050565b612f3081612f15565b82525050565b6000602082019050612f4b6000830184612f27565b92915050565b600060208284031215612f6757612f66612d59565b5b6000612f7584828501612da7565b91505092915050565b6000612f8982612f03565b9050919050565b612f9981612f7e565b82525050565b6000602082019050612fb46000830184612f90565b92915050565b6000612fc582612d5e565b9050919050565b612fd581612fba565b82525050565b6000602082019050612ff06000830184612fcc565b92915050565b600082825260208201905092915050565b7f4f6e6c792061646d696e00000000000000000000000000000000000000000000600082015250565b600061303d600a83612ff6565b915061304882613007565b602082019050919050565b6000602082019050818103600083015261306c81613030565b9050919050565b600061307e82612e5e565b9050919050565b61308e81613073565b82525050565b60006040820190506130a96000830185613085565b6130b66020830184612ed9565b9392505050565b60008115159050919050565b6130d2816130bd565b81146130dd57600080fd5b50565b6000815190506130ef816130c9565b92915050565b60006020828403121561310b5761310a612d59565b5b6000613119848285016130e0565b91505092915050565b61312b81612d7e565b82525050565b60006040820190506131466000830185613122565b6131536020830184612ed9565b9392505050565b7f4e6f7420656e6f75676820546f6b656e42000000000000000000000000000000600082015250565b6000613190601183612ff6565b915061319b8261315a565b602082019050919050565b600060208201905081810360008301526131bf81613183565b9050919050565b60006020820190506131db6000830184613122565b92915050565b6000815190506131f081612dc6565b92915050565b60006020828403121561320c5761320b612d59565b5b600061321a848285016131e1565b91505092915050565b7f496e73756666696369656e742042546f6b656e2062616c616e63650000000000600082015250565b6000613259601b83612ff6565b915061326482613223565b602082019050919050565b600060208201905081810360008301526132888161324c565b9050919050565b60006040820190506132a46000830185613122565b6132b16020830184613122565b9392505050565b7f417070726f766520546f6b656e42206669727374000000000000000000000000600082015250565b60006132ee601483612ff6565b91506132f9826132b8565b602082019050919050565b6000602082019050818103600083015261331d816132e1565b9050919050565b7f726174696f206e6f742073657400000000000000000000000000000000000000600082015250565b600061335a600d83612ff6565b915061336582613324565b602082019050919050565b600060208201905081810360008301526133898161334d565b9050919050565b7f4e487b7100000000000000000000000000000000000000000000000000000000600052601260045260246000fd5b7f4e487b7100000000000000000000000000000000000000000000000000000000600052601160045260246000fd5b60006133f982612dbc565b915061340483612dbc565b92508261341457613413613390565b5b828204905092915050565b600061342a82612dbc565b915061343583612dbc565b925082820261344381612dbc565b9150828204841483151761345a576134596133bf565b5b5092915050565b600061346c82612dbc565b915061347783612dbc565b925082820390508181111561348f5761348e6133bf565b5b92915050565b7f45786368616e676520616d6f756e74206d75737420626520677265617465722060008201527f7468616e207a65726f0000000000000000000000000000000000000000000000602082015250565b60006134f1602983612ff6565b91506134fc82613495565b604082019050919050565b60006020820190508181036000830152613520816134e4565b9050919050565b7f496e73756666696369656e742041546f6b656e206c6971756964697479000000600082015250565b600061355d601d83612ff6565b915061356882613527565b602082019050919050565b6000602082019050818103600083015261358c81613550565b9050919050565b60006060820190506135a86000830186613122565b6135b56020830185613122565b6135c26040830184612ed9565b949350505050565b7f422d3e4100000000000000000000000000000000000000000000000000000000600082015250565b6000613600600483612ff6565b915061360b826135ca565b602082019050919050565b6000608082019050818103600083015261362f816135f3565b905061363e6020830186612ed9565b61364b6040830185612ed9565b6136586060830184612ed9565b949350505050565b7f4e6f7420656e6f75676820546f6b656e41000000000000000000000000000000600082015250565b6000613696601183612ff6565b91506136a182613660565b602082019050919050565b600060208201905081810360008301526136c581613689565b9050919050565b7f496e73756666696369656e742041546f6b656e2062616c616e63650000000000600082015250565b6000613702601b83612ff6565b915061370d826136cc565b602082019050919050565b60006020820190508181036000830152613731816136f5565b9050919050565b7f417070726f766520546f6b656e41206669727374000000000000000000000000600082015250565b600061376e601483612ff6565b915061377982613738565b602082019050919050565b6000602082019050818103600083015261379d81613761565b9050919050565b7f496e73756666696369656e742042546f6b656e206c6971756964697479000000600082015250565b60006137da601d83612ff6565b91506137e5826137a4565b602082019050919050565b60006020820190508181036000830152613809816137cd565b9050919050565b7f412d3e4200000000000000000000000000000000000000000000000000000000600082015250565b6000613846600483612ff6565b915061385182613810565b602082019050919050565b6000608082019050818103600083015261387581613839565b90506138846020830186612ed9565b6138916040830185612ed9565b61389e6060830184612ed9565b949350505050565b7f63616e6e6f742062652030206164647265737300000000000000000000000000600082015250565b60006138dc601383612ff6565b91506138e7826138a6565b602082019050919050565b6000602082019050818103600083015261390b816138cf565b9050919050565b60006040820190506139276000830185613085565b6139346020830184613122565b939250505056fea264697066735822122002d599e1b81835da5ce4f845a59df553409cbaeb56a2b45d815438737ecd0d2764736f6c634300081d0033",
  "linkReferences": {},
  "deployedLinkReferences": {}
}