{
  "_format": "hh-sol-artifact-1",
  "contractName": "TokenSwap",
  "sourceName": "contracts/TokenSwap.sol",
  "abi": [
    {
      "inputs": [
        {
          "internalType": "address",
          "name": "_tokenA",
          "type": "address"
        },
        {
          "internalType": "address",
          "name": "_tokenB",
          "type": "address"
        }
      ],
      "stateMutability": "nonpayable",
      "type": "constructor"
    },
    {
      "inputs": [],
      "name": "ReentrancyGuardReentrantCall",
      "type": "error"
    },
    {
      "anonymous": false,
      "inputs": [
        {
          "indexed": false,
          "internalType": "address",
          "name": "oldAdmin",
          "type": "address"
        },
        {
          "indexed": false,
          "internalType": "address",
          "name": "newAdmin",
          "type": "address"
        }
      ],
      "name": "AdminChanged",
      "type": "event"
    },
    {
      "anonymous": false,
      "inputs": [
        {
          "indexed": false,
          "internalType": "uint256",
          "name": "amount",
          "type": "uint256"
        }
      ],
      "name": "ETHWithdrawn",
      "type": "event"
    },
    {
      "anonymous": false,
      "inputs": [
        {
          "indexed": false,
          "internalType": "uint256",
          "name": "_fees",
          "type": "uint256"
        }
      ],
      "name": "SetNewFees",
      "type": "event"
    },
    {
      "anonymous": false,
      "inputs": [
        {
          "indexed": true,
          "internalType": "uint256",
          "name": "_ratio",
          "type": "uint256"
        }
      ],
      "name": "SetNewRatio",
      "type": "event"
    },
    {
      "anonymous": false,
      "inputs": [
        {
          "indexed": true,
          "internalType": "address",
          "name": "user",
          "type": "address"
        },
        {
          "indexed": false,
          "internalType": "string",
          "name": "direction",
          "type": "string"
        },
        {
          "indexed": false,
          "internalType": "uint256",
          "name": "amountIn",
          "type": "uint256"
        },
        {
          "indexed": false,
          "internalType": "uint256",
          "name": "amountOut",
          "type": "uint256"
        },
        {
          "indexed": false,
          "internalType": "uint256",
          "name": "fees",
          "type": "uint256"
        }
      ],
      "name": "TokenSwapped",
      "type": "event"
    },
    {
      "anonymous": false,
      "inputs": [
        {
          "indexed": false,
          "internalType": "address",
          "name": "token",
          "type": "address"
        },
        {
          "indexed": false,
          "internalType": "uint256",
          "name": "amount",
          "type": "uint256"
        }
      ],
      "name": "TokensWithdrawn",
      "type": "event"
    },
    {
      "inputs": [],
      "name": "admin",
      "outputs": [
        {
          "internalType": "address payable",
          "name": "",
          "type": "address"
        }
      ],
      "stateMutability": "view",
      "type": "function"
    },
    {
      "inputs": [
        {
          "internalType": "uint256",
          "name": "amount",
          "type": "uint256"
        }
      ],
      "name": "buyTokensA",
      "outputs": [],
      "stateMutability": "payable",
      "type": "function"
    },
    {
      "inputs": [
        {
          "internalType": "uint256",
          "name": "amount",
          "type": "uint256"
        }
      ],
      "name": "buyTokensB",
      "outputs": [],
      "stateMutability": "payable",
      "type": "function"
    },
    {
      "inputs": [
        {
          "internalType": "address",
          "name": "newAdmin",
          "type": "address"
        }
      ],
      "name": "changeAdmin",
      "outputs": [],
      "stateMutability": "nonpayable",
      "type": "function"
    },
    {
      "inputs": [],
      "name": "fees",
      "outputs": [
        {
          "internalType": "uint256",
          "name": "",
          "type": "uint256"
        }
      ],
      "stateMutability": "view",
      "type": "function"
    },
    {
      "inputs": [],
      "name": "getFees",
      "outputs": [
        {
          "internalType": "uint256",
          "name": "",
          "type": "uint256"
        }
      ],
      "stateMutability": "view",
      "type": "function"
    },
    {
      "inputs": [],
      "name": "getRatio",
      "outputs": [
        {
          "internalType": "uint256",
          "name": "",
          "type": "uint256"
        }
      ],
      "stateMutability": "view",
      "type": "function"
    },
    {
      "inputs": [],
      "name": "ratioAB",
      "outputs": [
        {
          "internalType": "uint256",
          "name": "",
          "type": "uint256"
        }
      ],
      "stateMutability": "view",
      "type": "function"
    },
    {
      "inputs": [
        {
          "internalType": "uint256",
          "name": "_fees",
          "type": "uint256"
        }
      ],
      "name": "setFees",
      "outputs": [],
      "stateMutability": "nonpayable",
      "type": "function"
    },
    {
      "inputs": [
        {
          "internalType": "uint256",
          "name": "_ratio",
          "type": "uint256"
        }
      ],
      "name": "setRatio",
      "outputs": [],
      "stateMutability": "nonpayable",
      "type": "function"
    },
    {
      "inputs": [
        {
          "internalType": "uint256",
          "name": "amountTKA",
          "type": "uint256"
        }
      ],
      "name": "swapTKA",
      "outputs": [
        {
          "internalType": "uint256",
          "name": "",
          "type": "uint256"
        }
      ],
      "stateMutability": "nonpayable",
      "type": "function"
    },
    {
      "inputs": [
        {
          "internalType": "uint256",
          "name": "amountTKB",
          "type": "uint256"
        }
      ],
      "name": "swapTKB",
      "outputs": [
        {
          "internalType": "uint256",
          "name": "",
          "type": "uint256"
        }
      ],
      "stateMutability": "nonpayable",
      "type": "function"
    },
    {
      "inputs": [],
      "name": "tokenA",
      "outputs": [
        {
          "internalType": "contract IERC20",
          "name": "",
          "type": "address"
        }
      ],
      "stateMutability": "view",
      "type": "function"
    },
    {
      "inputs": [],
      "name": "tokenAInstance",
      "outputs": [
        {
          "internalType": "contract AToken",
          "name": "",
          "type": "address"
        }
      ],
      "stateMutability": "view",
      "type": "function"
    },
    {
      "inputs": [],
      "name": "tokenB",
      "outputs": [
        {
          "internalType": "contract IERC20",
          "name": "",
          "type": "address"
        }
      ],
      "stateMutability": "view",
      "type": "function"
    },
    {
      "inputs": [],
      "name": "tokenBInstance",
      "outputs": [
        {
          "internalType": "contract BToken",
          "name": "",
          "type": "address"
        }
      ],
      "stateMutability": "view",
      "type": "function"
    },
    {
      "inputs": [
        {
          "internalType": "uint256",
          "name": "amount",
          "type": "uint256"
        }
      ],
      "name": "withdrawETH",
      "outputs": [],
      "stateMutability": "nonpayable",
      "type": "function"
    },
    {
      "inputs": [
        {
          "internalType": "address",
          "name": "token",
          "type": "address"
        },
        {
          "internalType": "uint256",
          "name": "amount",
          "type": "uint256"
        }
      ],
      "name": "withdrawTokens",
      "outputs": [],
      "stateMutability": "nonpayable",
      "type": "function"
    }
  ],
  "bytecode": "0x608060405234801561001057600080fd5b506040516128a53803806128a583398181016040528101906100329190610292565b600160008190555033600560006101000a81548173ffffffffffffffffffffffffffffffffffffffff021916908373ffffffffffffffffffffffffffffffffffffffff16021790555081600160006101000a81548173ffffffffffffffffffffffffffffffffffffffff021916908373ffffffffffffffffffffffffffffffffffffffff16021790555080600260006101000a81548173ffffffffffffffffffffffffffffffffffffffff021916908373ffffffffffffffffffffffffffffffffffffffff160217905550600073ffffffffffffffffffffffffffffffffffffffff168273ffffffffffffffffffffffffffffffffffffffff16141580156101675750600073ffffffffffffffffffffffffffffffffffffffff168173ffffffffffffffffffffffffffffffffffffffff1614155b6101a6576040517f08c379a000000000000000000000000000000000000000000000000000000000815260040161019d9061032f565b60405180910390fd5b81600360006101000a81548173ffffffffffffffffffffffffffffffffffffffff021916908373ffffffffffffffffffffffffffffffffffffffff16021790555080600460006101000a81548173ffffffffffffffffffffffffffffffffffffffff021916908373ffffffffffffffffffffffffffffffffffffffff160217905550505061034f565b600080fd5b600073ffffffffffffffffffffffffffffffffffffffff82169050919050565b600061025f82610234565b9050919050565b61026f81610254565b811461027a57600080fd5b50565b60008151905061028c81610266565b92915050565b600080604083850312156102a9576102a861022f565b5b60006102b78582860161027d565b92505060206102c88582860161027d565b9150509250929050565b600082825260208201905092915050565b7f546f6b656e20616464726573732063616e6e6f74206265203000000000000000600082015250565b60006103196019836102d2565b9150610324826102e3565b602082019050919050565b600060208201905081810360008301526103488161030c565b9050919050565b6125478061035e6000396000f3fe6080604052600436106101095760003560e01c80639af1d35a11610095578063e51426d711610064578063e51426d71461034a578063ec1ebd7a14610375578063f14210a6146103a0578063f21d8e0b146103c9578063f851a440146103e557610109565b80639af1d35a146102a0578063b2237ba3146102cb578063db8d55f1146102f4578063e48400d91461031f57610109565b80633d18678e116100dc5780633d18678e146101bb5780635f64b55b146101e45780637124578a1461020f5780637226d2c31461023a5780638f2839701461027757610109565b806306b091f91461010e5780630fc63d1014610137578063292c9cf5146101625780632ee2a9f71461017e575b600080fd5b34801561011a57600080fd5b50610135600480360381019061013091906119c8565b610410565b005b34801561014357600080fd5b5061014c61057e565b6040516101599190611a67565b60405180910390f35b61017c60048036038101906101779190611a82565b6105a4565b005b34801561018a57600080fd5b506101a560048036038101906101a09190611a82565b6106c5565b6040516101b29190611abe565b60405180910390f35b3480156101c757600080fd5b506101e260048036038101906101dd9190611a82565b610c21565b005b3480156101f057600080fd5b506101f9610cf2565b6040516102069190611a67565b60405180910390f35b34801561021b57600080fd5b50610224610d18565b6040516102319190611b0c565b60405180910390f35b34801561024657600080fd5b50610261600480360381019061025c9190611a82565b610d3e565b60405161026e9190611abe565b60405180910390f35b34801561028357600080fd5b5061029e60048036038101906102999190611b27565b61129a565b005b3480156102ac57600080fd5b506102b5611438565b6040516102c29190611abe565b60405180910390f35b3480156102d757600080fd5b506102f260048036038101906102ed9190611a82565b61143e565b005b34801561030057600080fd5b50610309611505565b6040516103169190611abe565b60405180910390f35b34801561032b57600080fd5b5061033461159f565b6040516103419190611b75565b60405180910390f35b34801561035657600080fd5b5061035f6115c5565b60405161036c9190611abe565b60405180910390f35b34801561038157600080fd5b5061038a6115cb565b6040516103979190611abe565b60405180910390f35b3480156103ac57600080fd5b506103c760048036038101906103c29190611a82565b611665565b005b6103e360048036038101906103de9190611a82565b611798565b005b3480156103f157600080fd5b506103fa6118b9565b6040516104079190611bb1565b60405180910390f35b600560009054906101000a900473ffffffffffffffffffffffffffffffffffffffff1673ffffffffffffffffffffffffffffffffffffffff163373ffffffffffffffffffffffffffffffffffffffff16146104a0576040517f08c379a000000000000000000000000000000000000000000000000000000000815260040161049790611c29565b60405180910390fd5b8173ffffffffffffffffffffffffffffffffffffffff1663a9059cbb600560009054906101000a900473ffffffffffffffffffffffffffffffffffffffff16836040518363ffffffff1660e01b81526004016104fd929190611c6a565b6020604051808303816000875af115801561051c573d6000803e3d6000fd5b505050506040513d601f19601f820116820180604052508101906105409190611ccb565b507f6352c5382c4a4578e712449ca65e83cdb392d045dfcf1cad9615189db2da244b8282604051610572929190611d07565b60405180910390a15050565b600160009054906101000a900473ffffffffffffffffffffffffffffffffffffffff1681565b600560009054906101000a900473ffffffffffffffffffffffffffffffffffffffff1673ffffffffffffffffffffffffffffffffffffffff163373ffffffffffffffffffffffffffffffffffffffff1614610634576040517f08c379a000000000000000000000000000000000000000000000000000000000815260040161062b90611c29565b60405180910390fd5b600360009054906101000a900473ffffffffffffffffffffffffffffffffffffffff1673ffffffffffffffffffffffffffffffffffffffff16633610724e34836040518363ffffffff1660e01b81526004016106909190611abe565b6000604051808303818588803b1580156106a957600080fd5b505af11580156106bd573d6000803e3d6000fd5b505050505050565b60006106cf6118df565b60008211610712576040517f08c379a000000000000000000000000000000000000000000000000000000000815260040161070990611d7c565b60405180910390fd5b81600260009054906101000a900473ffffffffffffffffffffffffffffffffffffffff1673ffffffffffffffffffffffffffffffffffffffff166370a08231336040518263ffffffff1660e01b815260040161076e9190611d9c565b602060405180830381865afa15801561078b573d6000803e3d6000fd5b505050506040513d601f19601f820116820180604052508101906107af9190611dcc565b10156107f0576040517f08c379a00000000000000000000000000000000000000000000000000000000081526004016107e790611e45565b60405180910390fd5b81600260009054906101000a900473ffffffffffffffffffffffffffffffffffffffff1673ffffffffffffffffffffffffffffffffffffffff1663dd62ed3e33306040518363ffffffff1660e01b815260040161084e929190611e65565b602060405180830381865afa15801561086b573d6000803e3d6000fd5b505050506040513d601f19601f8201168201806040525081019061088f9190611dcc565b10156108d0576040517f08c379a00000000000000000000000000000000000000000000000000000000081526004016108c790611eda565b60405180910390fd5b600060065411610915576040517f08c379a000000000000000000000000000000000000000000000000000000000815260040161090c90611f46565b60405180910390fd5b6000600654836109259190611fc4565b905060006064600754836109399190611ff5565b6109439190611fc4565b9050600081836109539190612037565b905060008111610998576040517f08c379a000000000000000000000000000000000000000000000000000000000815260040161098f906120dd565b60405180910390fd5b80600160009054906101000a900473ffffffffffffffffffffffffffffffffffffffff1673ffffffffffffffffffffffffffffffffffffffff166370a08231306040518263ffffffff1660e01b81526004016109f49190611d9c565b602060405180830381865afa158015610a11573d6000803e3d6000fd5b505050506040513d601f19601f82011682018060405250810190610a359190611dcc565b1015610a76576040517f08c379a0000000000000000000000000000000000000000000000000000000008152600401610a6d90612149565b60405180910390fd5b600260009054906101000a900473ffffffffffffffffffffffffffffffffffffffff1673ffffffffffffffffffffffffffffffffffffffff166323b872dd3330886040518463ffffffff1660e01b8152600401610ad593929190612169565b6020604051808303816000875af1158015610af4573d6000803e3d6000fd5b505050506040513d601f19601f82011682018060405250810190610b189190611ccb565b50600160009054906101000a900473ffffffffffffffffffffffffffffffffffffffff1673ffffffffffffffffffffffffffffffffffffffff1663a9059cbb33836040518363ffffffff1660e01b8152600401610b76929190611d07565b6020604051808303816000875af1158015610b95573d6000803e3d6000fd5b505050506040513d601f19601f82011682018060405250810190610bb99190611ccb565b503373ffffffffffffffffffffffffffffffffffffffff167fb89fed6cc88390149dc7d080f1bf6d57e9049fe6a35140f3b208a6a310073daa8683600754604051610c06939291906121ec565b60405180910390a2809350505050610c1c611925565b919050565b600560009054906101000a900473ffffffffffffffffffffffffffffffffffffffff1673ffffffffffffffffffffffffffffffffffffffff163373ffffffffffffffffffffffffffffffffffffffff1614610cb1576040517f08c379a0000000000000000000000000000000000000000000000000000000008152600401610ca890611c29565b60405180910390fd5b806007819055507f9a8458c31bcdc30e25b92c7c0fffe34ffa21597dc6760eb48afdb18b0e29192581604051610ce79190611abe565b60405180910390a150565b600260009054906101000a900473ffffffffffffffffffffffffffffffffffffffff1681565b600360009054906101000a900473ffffffffffffffffffffffffffffffffffffffff1681565b6000610d486118df565b60008211610d8b576040517f08c379a0000000000000000000000000000000000000000000000000000000008152600401610d8290612282565b60405180910390fd5b81600160009054906101000a900473ffffffffffffffffffffffffffffffffffffffff1673ffffffffffffffffffffffffffffffffffffffff166370a08231336040518263ffffffff1660e01b8152600401610de79190611d9c565b602060405180830381865afa158015610e04573d6000803e3d6000fd5b505050506040513d601f19601f82011682018060405250810190610e289190611dcc565b1015610e69576040517f08c379a0000000000000000000000000000000000000000000000000000000008152600401610e60906122ee565b60405180910390fd5b81600160009054906101000a900473ffffffffffffffffffffffffffffffffffffffff1673ffffffffffffffffffffffffffffffffffffffff1663dd62ed3e33306040518363ffffffff1660e01b8152600401610ec7929190611e65565b602060405180830381865afa158015610ee4573d6000803e3d6000fd5b505050506040513d601f19601f82011682018060405250810190610f089190611dcc565b1015610f49576040517f08c379a0000000000000000000000000000000000000000000000000000000008152600401610f409061235a565b60405180910390fd5b600060065411610f8e576040517f08c379a0000000000000000000000000000000000000000000000000000000008152600401610f8590611f46565b60405180910390fd5b600060065483610f9e9190611ff5565b90506000606460075483610fb29190611ff5565b610fbc9190611fc4565b905060008183610fcc9190612037565b905060008111611011576040517f08c379a0000000000000000000000000000000000000000000000000000000008152600401611008906120dd565b60405180910390fd5b80600260009054906101000a900473ffffffffffffffffffffffffffffffffffffffff1673ffffffffffffffffffffffffffffffffffffffff166370a08231306040518263ffffffff1660e01b815260040161106d9190611d9c565b602060405180830381865afa15801561108a573d6000803e3d6000fd5b505050506040513d601f19601f820116820180604052508101906110ae9190611dcc565b10156110ef576040517f08c379a00000000000000000000000000000000000000000000000000000000081526004016110e6906123c6565b60405180910390fd5b600160009054906101000a900473ffffffffffffffffffffffffffffffffffffffff1673ffffffffffffffffffffffffffffffffffffffff166323b872dd3330886040518463ffffffff1660e01b815260040161114e93929190612169565b6020604051808303816000875af115801561116d573d6000803e3d6000fd5b505050506040513d601f19601f820116820180604052508101906111919190611ccb565b50600260009054906101000a900473ffffffffffffffffffffffffffffffffffffffff1673ffffffffffffffffffffffffffffffffffffffff1663a9059cbb33836040518363ffffffff1660e01b81526004016111ef929190611d07565b6020604051808303816000875af115801561120e573d6000803e3d6000fd5b505050506040513d601f19601f820116820180604052508101906112329190611ccb565b503373ffffffffffffffffffffffffffffffffffffffff167fb89fed6cc88390149dc7d080f1bf6d57e9049fe6a35140f3b208a6a310073daa868360075460405161127f93929190612432565b60405180910390a2809350505050611295611925565b919050565b600560009054906101000a900473ffffffffffffffffffffffffffffffffffffffff1673ffffffffffffffffffffffffffffffffffffffff163373ffffffffffffffffffffffffffffffffffffffff161461132a576040517f08c379a000000000000000000000000000000000000000000000000000000000815260040161132190611c29565b60405180910390fd5b600073ffffffffffffffffffffffffffffffffffffffff168173ffffffffffffffffffffffffffffffffffffffff1603611399576040517f08c379a0000000000000000000000000000000000000000000000000000000008152600401611390906124c8565b60405180910390fd5b7f7e644d79422f17c01e4894b5f4f588d331ebfa28653d42ae832dc59e38c9798f600560009054906101000a900473ffffffffffffffffffffffffffffffffffffffff16826040516113ec9291906124e8565b60405180910390a180600560006101000a81548173ffffffffffffffffffffffffffffffffffffffff021916908373ffffffffffffffffffffffffffffffffffffffff16021790555050565b60075481565b600560009054906101000a900473ffffffffffffffffffffffffffffffffffffffff1673ffffffffffffffffffffffffffffffffffffffff163373ffffffffffffffffffffffffffffffffffffffff16146114ce576040517f08c379a00000000000000000000000000000000000000000000000000000000081526004016114c590611c29565b60405180910390fd5b80600681905550807f20db44d484c1f7f7b0e1e5de67131e8e31bba57d88446092c7611b9518c1069c60405160405180910390a250565b6000600560009054906101000a900473ffffffffffffffffffffffffffffffffffffffff1673ffffffffffffffffffffffffffffffffffffffff163373ffffffffffffffffffffffffffffffffffffffff1614611597576040517f08c379a000000000000000000000000000000000000000000000000000000000815260040161158e90611c29565b60405180910390fd5b600754905090565b600460009054906101000a900473ffffffffffffffffffffffffffffffffffffffff1681565b60065481565b6000600560009054906101000a900473ffffffffffffffffffffffffffffffffffffffff1673ffffffffffffffffffffffffffffffffffffffff163373ffffffffffffffffffffffffffffffffffffffff161461165d576040517f08c379a000000000000000000000000000000000000000000000000000000000815260040161165490611c29565b60405180910390fd5b600654905090565b600560009054906101000a900473ffffffffffffffffffffffffffffffffffffffff1673ffffffffffffffffffffffffffffffffffffffff163373ffffffffffffffffffffffffffffffffffffffff16146116f5576040517f08c379a00000000000000000000000000000000000000000000000000000000081526004016116ec90611c29565b60405180910390fd5b600560009054906101000a900473ffffffffffffffffffffffffffffffffffffffff1673ffffffffffffffffffffffffffffffffffffffff166108fc829081150290604051600060405180830381858888f1935050505015801561175d573d6000803e3d6000fd5b507f043f607a14d3b4f0a11a0b2e192bbfcd894298ba5abf22553be6081406db28aa8160405161178d9190611abe565b60405180910390a150565b600560009054906101000a900473ffffffffffffffffffffffffffffffffffffffff1673ffffffffffffffffffffffffffffffffffffffff163373ffffffffffffffffffffffffffffffffffffffff1614611828576040517f08c379a000000000000000000000000000000000000000000000000000000000815260040161181f90611c29565b60405180910390fd5b600460009054906101000a900473ffffffffffffffffffffffffffffffffffffffff1673ffffffffffffffffffffffffffffffffffffffff16633610724e34836040518363ffffffff1660e01b81526004016118849190611abe565b6000604051808303818588803b15801561189d57600080fd5b505af11580156118b1573d6000803e3d6000fd5b505050505050565b600560009054906101000a900473ffffffffffffffffffffffffffffffffffffffff1681565b60026000540361191b576040517f3ee5aeb500000000000000000000000000000000000000000000000000000000815260040160405180910390fd5b6002600081905550565b6001600081905550565b600080fd5b600073ffffffffffffffffffffffffffffffffffffffff82169050919050565b600061195f82611934565b9050919050565b61196f81611954565b811461197a57600080fd5b50565b60008135905061198c81611966565b92915050565b6000819050919050565b6119a581611992565b81146119b057600080fd5b50565b6000813590506119c28161199c565b92915050565b600080604083850312156119df576119de61192f565b5b60006119ed8582860161197d565b92505060206119fe858286016119b3565b9150509250929050565b6000819050919050565b6000611a2d611a28611a2384611934565b611a08565b611934565b9050919050565b6000611a3f82611a12565b9050919050565b6000611a5182611a34565b9050919050565b611a6181611a46565b82525050565b6000602082019050611a7c6000830184611a58565b92915050565b600060208284031215611a9857611a9761192f565b5b6000611aa6848285016119b3565b91505092915050565b611ab881611992565b82525050565b6000602082019050611ad36000830184611aaf565b92915050565b6000611ae482611a12565b9050919050565b6000611af682611ad9565b9050919050565b611b0681611aeb565b82525050565b6000602082019050611b216000830184611afd565b92915050565b600060208284031215611b3d57611b3c61192f565b5b6000611b4b8482850161197d565b91505092915050565b6000611b5f82611ad9565b9050919050565b611b6f81611b54565b82525050565b6000602082019050611b8a6000830184611b66565b92915050565b6000611b9b82611934565b9050919050565b611bab81611b90565b82525050565b6000602082019050611bc66000830184611ba2565b92915050565b600082825260208201905092915050565b7f4f6e6c792061646d696e00000000000000000000000000000000000000000000600082015250565b6000611c13600a83611bcc565b9150611c1e82611bdd565b602082019050919050565b60006020820190508181036000830152611c4281611c06565b9050919050565b6000611c5482611a34565b9050919050565b611c6481611c49565b82525050565b6000604082019050611c7f6000830185611c5b565b611c8c6020830184611aaf565b9392505050565b60008115159050919050565b611ca881611c93565b8114611cb357600080fd5b50565b600081519050611cc581611c9f565b92915050565b600060208284031215611ce157611ce061192f565b5b6000611cef84828501611cb6565b91505092915050565b611d0181611954565b82525050565b6000604082019050611d1c6000830185611cf8565b611d296020830184611aaf565b9392505050565b7f4e6f7420656e6f75676820546f6b656e42000000000000000000000000000000600082015250565b6000611d66601183611bcc565b9150611d7182611d30565b602082019050919050565b60006020820190508181036000830152611d9581611d59565b9050919050565b6000602082019050611db16000830184611cf8565b92915050565b600081519050611dc68161199c565b92915050565b600060208284031215611de257611de161192f565b5b6000611df084828501611db7565b91505092915050565b7f496e73756666696369656e742042546f6b656e2062616c616e63650000000000600082015250565b6000611e2f601b83611bcc565b9150611e3a82611df9565b602082019050919050565b60006020820190508181036000830152611e5e81611e22565b9050919050565b6000604082019050611e7a6000830185611cf8565b611e876020830184611cf8565b9392505050565b7f417070726f766520546f6b656e42206669727374000000000000000000000000600082015250565b6000611ec4601483611bcc565b9150611ecf82611e8e565b602082019050919050565b60006020820190508181036000830152611ef381611eb7565b9050919050565b7f726174696f206e6f742073657400000000000000000000000000000000000000600082015250565b6000611f30600d83611bcc565b9150611f3b82611efa565b602082019050919050565b60006020820190508181036000830152611f5f81611f23565b9050919050565b7f4e487b7100000000000000000000000000000000000000000000000000000000600052601260045260246000fd5b7f4e487b7100000000000000000000000000000000000000000000000000000000600052601160045260246000fd5b6000611fcf82611992565b9150611fda83611992565b925082611fea57611fe9611f66565b5b828204905092915050565b600061200082611992565b915061200b83611992565b925082820261201981611992565b915082820484148315176120305761202f611f95565b5b5092915050565b600061204282611992565b915061204d83611992565b925082820390508181111561206557612064611f95565b5b92915050565b7f45786368616e676520616d6f756e74206d75737420626520677265617465722060008201527f7468616e207a65726f0000000000000000000000000000000000000000000000602082015250565b60006120c7602983611bcc565b91506120d28261206b565b604082019050919050565b600060208201905081810360008301526120f6816120ba565b9050919050565b7f496e73756666696369656e742041546f6b656e206c6971756964697479000000600082015250565b6000612133601d83611bcc565b915061213e826120fd565b602082019050919050565b6000602082019050818103600083015261216281612126565b9050919050565b600060608201905061217e6000830186611cf8565b61218b6020830185611cf8565b6121986040830184611aaf565b949350505050565b7f422d3e4100000000000000000000000000000000000000000000000000000000600082015250565b60006121d6600483611bcc565b91506121e1826121a0565b602082019050919050565b60006080820190508181036000830152612205816121c9565b90506122146020830186611aaf565b6122216040830185611aaf565b61222e6060830184611aaf565b949350505050565b7f4e6f7420656e6f75676820546f6b656e41000000000000000000000000000000600082015250565b600061226c601183611bcc565b915061227782612236565b602082019050919050565b6000602082019050818103600083015261229b8161225f565b9050919050565b7f496e73756666696369656e742041546f6b656e2062616c616e63650000000000600082015250565b60006122d8601b83611bcc565b91506122e3826122a2565b602082019050919050565b60006020820190508181036000830152612307816122cb565b9050919050565b7f417070726f766520546f6b656e41206669727374000000000000000000000000600082015250565b6000612344601483611bcc565b915061234f8261230e565b602082019050919050565b6000602082019050818103600083015261237381612337565b9050919050565b7f496e73756666696369656e742042546f6b656e206c6971756964697479000000600082015250565b60006123b0601d83611bcc565b91506123bb8261237a565b602082019050919050565b600060208201905081810360008301526123df816123a3565b9050919050565b7f412d3e4200000000000000000000000000000000000000000000000000000000600082015250565b600061241c600483611bcc565b9150612427826123e6565b602082019050919050565b6000608082019050818103600083015261244b8161240f565b905061245a6020830186611aaf565b6124676040830185611aaf565b6124746060830184611aaf565b949350505050565b7f63616e6e6f742062652030206164647265737300000000000000000000000000600082015250565b60006124b2601383611bcc565b91506124bd8261247c565b602082019050919050565b600060208201905081810360008301526124e1816124a5565b9050919050565b60006040820190506124fd6000830185611c5b565b61250a6020830184611cf8565b939250505056fea264697066735822122012ce10a73a275292c32162c89c52a950ca30547e0097224a79a7b92203c4473464736f6c634300081d0033",
  "linkReferences": {},
  "deployedLinkReferences": {}
}