{
  "_format": "hh-sol-artifact-1",
  "contractName": "AToken",
  "sourceName": "contracts/AToken.sol",
  "abi": [
    {
      "inputs": [
        {
          "internalType": "address",
          "name": "exchanger",
          "type": "address"
        },
        {
          "internalType": "uint256",
          "name": "_tokenPrice",
          "type": "uint256"
        }
      ],
      "stateMutability": "nonpayable",
      "type": "constructor"
    },
    {
      "anonymous": false,
      "inputs": [
        {
          "indexed": true,
          "internalType": "address",
          "name": "owner",
          "type": "address"
        },
        {
          "indexed": true,
          "internalType": "address",
          "name": "spender",
          "type": "address"
        },
        {
          "indexed": false,
          "internalType": "uint256",
          "name": "amount",
          "type": "uint256"
        }
      ],
      "name": "Approval",
      "type": "event"
    },
    {
      "anonymous": false,
      "inputs": [
        {
          "indexed": false,
          "internalType": "address",
          "name": "sender",
          "type": "address"
        },
        {
          "indexed": false,
          "internalType": "uint256",
          "name": "amount",
          "type": "uint256"
        }
      ],
      "name": "Received",
      "type": "event"
    },
    {
      "anonymous": false,
      "inputs": [
        {
          "indexed": true,
          "internalType": "address",
          "name": "from",
          "type": "address"
        },
        {
          "indexed": true,
          "internalType": "address",
          "name": "to",
          "type": "address"
        },
        {
          "indexed": false,
          "internalType": "uint256",
          "name": "amount",
          "type": "uint256"
        }
      ],
      "name": "Transfer",
      "type": "event"
    },
    {
      "inputs": [
        {
          "internalType": "address",
          "name": "_owner",
          "type": "address"
        },
        {
          "internalType": "address",
          "name": "spender",
          "type": "address"
        }
      ],
      "name": "allowance",
      "outputs": [
        {
          "internalType": "uint256",
          "name": "",
          "type": "uint256"
        }
      ],
      "stateMutability": "view",
      "type": "function"
    },
    {
      "inputs": [
        {
          "internalType": "address",
          "name": "",
          "type": "address"
        },
        {
          "internalType": "address",
          "name": "",
          "type": "address"
        }
      ],
      "name": "allowances",
      "outputs": [
        {
          "internalType": "uint256",
          "name": "",
          "type": "uint256"
        }
      ],
      "stateMutability": "view",
      "type": "function"
    },
    {
      "inputs": [
        {
          "internalType": "address",
          "name": "spender",
          "type": "address"
        },
        {
          "internalType": "uint256",
          "name": "amount",
          "type": "uint256"
        }
      ],
      "name": "approve",
      "outputs": [
        {
          "internalType": "bool",
          "name": "",
          "type": "bool"
        }
      ],
      "stateMutability": "nonpayable",
      "type": "function"
    },
    {
      "inputs": [
        {
          "internalType": "address",
          "name": "account",
          "type": "address"
        }
      ],
      "name": "balanceOf",
      "outputs": [
        {
          "internalType": "uint256",
          "name": "",
          "type": "uint256"
        }
      ],
      "stateMutability": "view",
      "type": "function"
    },
    {
      "inputs": [
        {
          "internalType": "address",
          "name": "",
          "type": "address"
        }
      ],
      "name": "balances",
      "outputs": [
        {
          "internalType": "uint256",
          "name": "",
          "type": "uint256"
        }
      ],
      "stateMutability": "view",
      "type": "function"
    },
    {
      "inputs": [
        {
          "internalType": "uint256",
          "name": "numberOfTokens",
          "type": "uint256"
        }
      ],
      "name": "buyTokens",
      "outputs": [],
      "stateMutability": "payable",
      "type": "function"
    },
    {
      "inputs": [],
      "name": "decimals",
      "outputs": [
        {
          "internalType": "uint256",
          "name": "",
          "type": "uint256"
        }
      ],
      "stateMutability": "pure",
      "type": "function"
    },
    {
      "inputs": [
        {
          "internalType": "uint256",
          "name": "amount",
          "type": "uint256"
        },
        {
          "internalType": "address",
          "name": "to",
          "type": "address"
        }
      ],
      "name": "mint",
      "outputs": [],
      "stateMutability": "nonpayable",
      "type": "function"
    },
    {
      "inputs": [],
      "name": "name",
      "outputs": [
        {
          "internalType": "string",
          "name": "",
          "type": "string"
        }
      ],
      "stateMutability": "view",
      "type": "function"
    },
    {
      "inputs": [],
      "name": "owner",
      "outputs": [
        {
          "internalType": "address",
          "name": "",
          "type": "address"
        }
      ],
      "stateMutability": "view",
      "type": "function"
    },
    {
      "inputs": [],
      "name": "symbol",
      "outputs": [
        {
          "internalType": "string",
          "name": "",
          "type": "string"
        }
      ],
      "stateMutability": "view",
      "type": "function"
    },
    {
      "inputs": [],
      "name": "tokenPrice",
      "outputs": [
        {
          "internalType": "uint256",
          "name": "",
          "type": "uint256"
        }
      ],
      "stateMutability": "view",
      "type": "function"
    },
    {
      "inputs": [],
      "name": "tokensSold",
      "outputs": [
        {
          "internalType": "uint256",
          "name": "",
          "type": "uint256"
        }
      ],
      "stateMutability": "view",
      "type": "function"
    },
    {
      "inputs": [],
      "name": "totalSupply",
      "outputs": [
        {
          "internalType": "uint256",
          "name": "",
          "type": "uint256"
        }
      ],
      "stateMutability": "view",
      "type": "function"
    },
    {
      "inputs": [],
      "name": "totalTokens",
      "outputs": [
        {
          "internalType": "uint256",
          "name": "",
          "type": "uint256"
        }
      ],
      "stateMutability": "view",
      "type": "function"
    },
    {
      "inputs": [
        {
          "internalType": "address",
          "name": "to",
          "type": "address"
        },
        {
          "internalType": "uint256",
          "name": "amount",
          "type": "uint256"
        }
      ],
      "name": "transfer",
      "outputs": [
        {
          "internalType": "bool",
          "name": "",
          "type": "bool"
        }
      ],
      "stateMutability": "nonpayable",
      "type": "function"
    },
    {
      "inputs": [
        {
          "internalType": "address",
          "name": "sender",
          "type": "address"
        },
        {
          "internalType": "address",
          "name": "recipient",
          "type": "address"
        },
        {
          "internalType": "uint256",
          "name": "amount",
          "type": "uint256"
        }
      ],
      "name": "transferFrom",
      "outputs": [
        {
          "internalType": "bool",
          "name": "",
          "type": "bool"
        }
      ],
      "stateMutability": "nonpayable",
      "type": "function"
    },
    {
      "stateMutability": "payable",
      "type": "receive"
    }
  ],
  "bytecode": "0x608060405234801561001057600080fd5b5060405161249338038061249383398181016040528101906100329190610488565b6040518060400160405280600681526020017f41546f6b656e00000000000000000000000000000000000000000000000000008152506040518060400160405280600181526020017f410000000000000000000000000000000000000000000000000000000000000081525060008483600490816100b0919061070e565b5082600590816100c0919061070e565b50336000806101000a81548173ffffffffffffffffffffffffffffffffffffffff021916908373ffffffffffffffffffffffffffffffffffffffff160217905550610111828261013c60201b60201c565b5050505080600681905550610135683635c9adc5dea000003061022760201b60201c565b5050610a2e565b61014e600082846102c960201b60201c565b8160016000828254610160919061080f565b9250508190555081600260008373ffffffffffffffffffffffffffffffffffffffff1673ffffffffffffffffffffffffffffffffffffffff16815260200190815260200160002060008282546101b6919061080f565b925050819055508073ffffffffffffffffffffffffffffffffffffffff16600073ffffffffffffffffffffffffffffffffffffffff167fddf252ad1be2c89b69c2b068fc378daa952ba7f163c4a11628f55a4df523b3ef8460405161021b9190610852565b60405180910390a35050565b3373ffffffffffffffffffffffffffffffffffffffff1660008054906101000a900473ffffffffffffffffffffffffffffffffffffffff1673ffffffffffffffffffffffffffffffffffffffff16146102b5576040517f08c379a00000000000000000000000000000000000000000000000000000000081526004016102ac906108ca565b60405180910390fd5b6102c5828261013c60201b60201c565b5050565b600073ffffffffffffffffffffffffffffffffffffffff168373ffffffffffffffffffffffffffffffffffffffff1603610338576040517f08c379a000000000000000000000000000000000000000000000000000000000815260040161032f90610936565b60405180910390fd5b6000811161037b576040517f08c379a0000000000000000000000000000000000000000000000000000000008152600401610372906109a2565b60405180910390fd5b600073ffffffffffffffffffffffffffffffffffffffff168273ffffffffffffffffffffffffffffffffffffffff16036103ea576040517f08c379a00000000000000000000000000000000000000000000000000000000081526004016103e190610a0e565b60405180910390fd5b505050565b600080fd5b600073ffffffffffffffffffffffffffffffffffffffff82169050919050565b600061041f826103f4565b9050919050565b61042f81610414565b811461043a57600080fd5b50565b60008151905061044c81610426565b92915050565b6000819050919050565b61046581610452565b811461047057600080fd5b50565b6000815190506104828161045c565b92915050565b6000806040838503121561049f5761049e6103ef565b5b60006104ad8582860161043d565b92505060206104be85828601610473565b9150509250929050565b600081519050919050565b7f4e487b7100000000000000000000000000000000000000000000000000000000600052604160045260246000fd5b7f4e487b7100000000000000000000000000000000000000000000000000000000600052602260045260246000fd5b6000600282049050600182168061054957607f821691505b60208210810361055c5761055b610502565b5b50919050565b60008190508160005260206000209050919050565b60006020601f8301049050919050565b600082821b905092915050565b6000600883026105c47fffffffffffffffffffffffffffffffffffffffffffffffffffffffffffffffff82610587565b6105ce8683610587565b95508019841693508086168417925050509392505050565b6000819050919050565b600061060b61060661060184610452565b6105e6565b610452565b9050919050565b6000819050919050565b610625836105f0565b61063961063182610612565b848454610594565b825550505050565b600090565b61064e610641565b61065981848461061c565b505050565b5b8181101561067d57610672600082610646565b60018101905061065f565b5050565b601f8211156106c25761069381610562565b61069c84610577565b810160208510156106ab578190505b6106bf6106b785610577565b83018261065e565b50505b505050565b600082821c905092915050565b60006106e5600019846008026106c7565b1980831691505092915050565b60006106fe83836106d4565b9150826002028217905092915050565b610717826104c8565b67ffffffffffffffff8111156107305761072f6104d3565b5b61073a8254610531565b610745828285610681565b600060209050601f8311600181146107785760008415610766578287015190505b61077085826106f2565b8655506107d8565b601f19841661078686610562565b60005b828110156107ae57848901518255600182019150602085019450602081019050610789565b868310156107cb57848901516107c7601f8916826106d4565b8355505b6001600288020188555050505b505050505050565b7f4e487b7100000000000000000000000000000000000000000000000000000000600052601160045260246000fd5b600061081a82610452565b915061082583610452565b925082820190508082111561083d5761083c6107e0565b5b92915050565b61084c81610452565b82525050565b60006020820190506108676000830184610843565b92915050565b600082825260208201905092915050565b7f4e6f7420616e206f776e64657221000000000000000000000000000000000000600082015250565b60006108b4600e8361086d565b91506108bf8261087e565b602082019050919050565b600060208201905081810360008301526108e3816108a7565b9050919050565b7f61646472657373206e6f7420666f756e64000000000000000000000000000000600082015250565b600061092060118361086d565b915061092b826108ea565b602082019050919050565b6000602082019050818103600083015261094f81610913565b9050919050565b7f6e6f7420656e6f75676820746f6b656e73000000000000000000000000000000600082015250565b600061098c60118361086d565b915061099782610956565b602082019050919050565b600060208201905081810360008301526109bb8161097f565b9050919050565b7f696e76616c696420616464726573730000000000000000000000000000000000600082015250565b60006109f8600f8361086d565b9150610a03826109c2565b602082019050919050565b60006020820190508181036000830152610a27816109eb565b9050919050565b611a5680610a3d6000396000f3fe6080604052600436106101025760003560e01c806355b6ed5c116100955780638da5cb5b116100645780638da5cb5b1461039657806394bf804d146103c157806395d89b41146103ea578063a9059cbb14610415578063dd62ed3e1461045257610142565b806355b6ed5c146102c657806370a08231146103035780637e1c0c09146103405780637ff9b5961461036b57610142565b806327e235e3116100d157806327e235e314610217578063313ce567146102545780633610724e1461027f578063518ab2a81461029b57610142565b806306fdde0314610147578063095ea7b31461017257806318160ddd146101af57806323b872dd146101da57610142565b36610142577f88a5966d370b9919b20f3e2c13ff65706f196a4e32cc2c12bf57088f8852587433346040516101389291906111c8565b60405180910390a1005b600080fd5b34801561015357600080fd5b5061015c61048f565b6040516101699190611281565b60405180910390f35b34801561017e57600080fd5b5061019960048036038101906101949190611300565b610521565b6040516101a6919061135b565b60405180910390f35b3480156101bb57600080fd5b506101c4610538565b6040516101d19190611376565b60405180910390f35b3480156101e657600080fd5b5061020160048036038101906101fc9190611391565b610542565b60405161020e919061135b565b60405180910390f35b34801561022357600080fd5b5061023e600480360381019061023991906113e4565b6107bd565b60405161024b9190611376565b60405180910390f35b34801561026057600080fd5b506102696107d5565b6040516102769190611376565b60405180910390f35b61029960048036038101906102949190611411565b6107de565b005b3480156102a757600080fd5b506102b0610910565b6040516102bd9190611376565b60405180910390f35b3480156102d257600080fd5b506102ed60048036038101906102e8919061143e565b610916565b6040516102fa9190611376565b60405180910390f35b34801561030f57600080fd5b5061032a600480360381019061032591906113e4565b61093b565b6040516103379190611376565b60405180910390f35b34801561034c57600080fd5b50610355610984565b6040516103629190611376565b60405180910390f35b34801561037757600080fd5b5061038061098a565b60405161038d9190611376565b60405180910390f35b3480156103a257600080fd5b506103ab610990565b6040516103b8919061147e565b60405180910390f35b3480156103cd57600080fd5b506103e860048036038101906103e39190611499565b6109b4565b005b3480156103f657600080fd5b506103ff610a50565b60405161040c9190611281565b60405180910390f35b34801561042157600080fd5b5061043c60048036038101906104379190611300565b610ae2565b604051610449919061135b565b60405180910390f35b34801561045e57600080fd5b506104796004803603810190610474919061143e565b610c59565b6040516104869190611376565b60405180910390f35b60606004805461049e90611508565b80601f01602080910402602001604051908101604052809291908181526020018280546104ca90611508565b80156105175780601f106104ec57610100808354040283529160200191610517565b820191906000526020600020905b8154815290600101906020018083116104fa57829003601f168201915b5050505050905090565b600061052e338484610ce0565b6001905092915050565b6000600154905090565b600081600360008673ffffffffffffffffffffffffffffffffffffffff1673ffffffffffffffffffffffffffffffffffffffff16815260200190815260200160002060003373ffffffffffffffffffffffffffffffffffffffff1673ffffffffffffffffffffffffffffffffffffffff168152602001908152602001600020541015610603576040517f08c379a00000000000000000000000000000000000000000000000000000000081526004016105fa90611585565b60405180910390fd5b61060e848484610dcb565b81600360008673ffffffffffffffffffffffffffffffffffffffff1673ffffffffffffffffffffffffffffffffffffffff16815260200190815260200160002060003373ffffffffffffffffffffffffffffffffffffffff1673ffffffffffffffffffffffffffffffffffffffff168152602001908152602001600020600082825461069a91906115d4565b9250508190555081600260008673ffffffffffffffffffffffffffffffffffffffff1673ffffffffffffffffffffffffffffffffffffffff16815260200190815260200160002060008282546106f091906115d4565b9250508190555081600260008573ffffffffffffffffffffffffffffffffffffffff1673ffffffffffffffffffffffffffffffffffffffff16815260200190815260200160002060008282546107469190611608565b925050819055508273ffffffffffffffffffffffffffffffffffffffff168473ffffffffffffffffffffffffffffffffffffffff167fddf252ad1be2c89b69c2b068fc378daa952ba7f163c4a11628f55a4df523b3ef846040516107aa9190611376565b60405180910390a3600190509392505050565b60026020528060005260406000206000915090505481565b60006012905090565b806006546107ec919061163c565b341461082d576040517f08c379a0000000000000000000000000000000000000000000000000000000008152600401610824906116ca565b60405180910390fd5b803073ffffffffffffffffffffffffffffffffffffffff166370a08231306040518263ffffffff1660e01b8152600401610867919061147e565b602060405180830381865afa158015610884573d6000803e3d6000fd5b505050506040513d601f19601f820116820180604052508101906108a891906116ff565b10156108e9576040517f08c379a00000000000000000000000000000000000000000000000000000000081526004016108e090611778565b60405180910390fd5b6108f4303383610ef1565b80600760008282546109069190611608565b9250508190555050565b60075481565b6003602052816000526040600020602052806000526040600020600091509150505481565b6000600260008373ffffffffffffffffffffffffffffffffffffffff1673ffffffffffffffffffffffffffffffffffffffff168152602001908152602001600020549050919050565b60015481565b60065481565b60008054906101000a900473ffffffffffffffffffffffffffffffffffffffff1681565b3373ffffffffffffffffffffffffffffffffffffffff1660008054906101000a900473ffffffffffffffffffffffffffffffffffffffff1673ffffffffffffffffffffffffffffffffffffffff1614610a42576040517f08c379a0000000000000000000000000000000000000000000000000000000008152600401610a39906117e4565b60405180910390fd5b610a4c8282611089565b5050565b606060058054610a5f90611508565b80601f0160208091040260200160405190810160405280929190818152602001828054610a8b90611508565b8015610ad85780601f10610aad57610100808354040283529160200191610ad8565b820191906000526020600020905b815481529060010190602001808311610abb57829003601f168201915b5050505050905090565b6000338280610af08361093b565b1015610b31576040517f08c379a0000000000000000000000000000000000000000000000000000000008152600401610b2890611850565b60405180910390fd5b610b3c338686610dcb565b83600260003373ffffffffffffffffffffffffffffffffffffffff1673ffffffffffffffffffffffffffffffffffffffff1681526020019081526020016000206000828254610b8b91906115d4565b9250508190555083600260008773ffffffffffffffffffffffffffffffffffffffff1673ffffffffffffffffffffffffffffffffffffffff1681526020019081526020016000206000828254610be19190611608565b925050819055508473ffffffffffffffffffffffffffffffffffffffff163373ffffffffffffffffffffffffffffffffffffffff167fddf252ad1be2c89b69c2b068fc378daa952ba7f163c4a11628f55a4df523b3ef86604051610c459190611376565b60405180910390a360019250505092915050565b6000600360008473ffffffffffffffffffffffffffffffffffffffff1673ffffffffffffffffffffffffffffffffffffffff16815260200190815260200160002060008373ffffffffffffffffffffffffffffffffffffffff1673ffffffffffffffffffffffffffffffffffffffff16815260200190815260200160002054905092915050565b80600360008573ffffffffffffffffffffffffffffffffffffffff1673ffffffffffffffffffffffffffffffffffffffff16815260200190815260200160002060008473ffffffffffffffffffffffffffffffffffffffff1673ffffffffffffffffffffffffffffffffffffffff168152602001908152602001600020819055508173ffffffffffffffffffffffffffffffffffffffff168373ffffffffffffffffffffffffffffffffffffffff167f8c5be1e5ebec7d5bd14f71427d1e84f3dd0314c0f7b2291e5b200ac8c7c3b92583604051610dbe9190611376565b60405180910390a3505050565b600073ffffffffffffffffffffffffffffffffffffffff168373ffffffffffffffffffffffffffffffffffffffff1603610e3a576040517f08c379a0000000000000000000000000000000000000000000000000000000008152600401610e31906118bc565b60405180910390fd5b60008111610e7d576040517f08c379a0000000000000000000000000000000000000000000000000000000008152600401610e7490611928565b60405180910390fd5b600073ffffffffffffffffffffffffffffffffffffffff168273ffffffffffffffffffffffffffffffffffffffff1603610eec576040517f08c379a0000000000000000000000000000000000000000000000000000000008152600401610ee390611994565b60405180910390fd5b505050565b80600260008573ffffffffffffffffffffffffffffffffffffffff1673ffffffffffffffffffffffffffffffffffffffff168152602001908152602001600020541015610f73576040517f08c379a0000000000000000000000000000000000000000000000000000000008152600401610f6a90611a00565b60405180910390fd5b80600260008573ffffffffffffffffffffffffffffffffffffffff1673ffffffffffffffffffffffffffffffffffffffff1681526020019081526020016000206000828254610fc291906115d4565b9250508190555080600260008473ffffffffffffffffffffffffffffffffffffffff1673ffffffffffffffffffffffffffffffffffffffff16815260200190815260200160002060008282546110189190611608565b925050819055508173ffffffffffffffffffffffffffffffffffffffff168373ffffffffffffffffffffffffffffffffffffffff167fddf252ad1be2c89b69c2b068fc378daa952ba7f163c4a11628f55a4df523b3ef8360405161107c9190611376565b60405180910390a3505050565b61109560008284610dcb565b81600160008282546110a79190611608565b9250508190555081600260008373ffffffffffffffffffffffffffffffffffffffff1673ffffffffffffffffffffffffffffffffffffffff16815260200190815260200160002060008282546110fd9190611608565b925050819055508073ffffffffffffffffffffffffffffffffffffffff16600073ffffffffffffffffffffffffffffffffffffffff167fddf252ad1be2c89b69c2b068fc378daa952ba7f163c4a11628f55a4df523b3ef846040516111629190611376565b60405180910390a35050565b600073ffffffffffffffffffffffffffffffffffffffff82169050919050565b60006111998261116e565b9050919050565b6111a98161118e565b82525050565b6000819050919050565b6111c2816111af565b82525050565b60006040820190506111dd60008301856111a0565b6111ea60208301846111b9565b9392505050565b600081519050919050565b600082825260208201905092915050565b60005b8381101561122b578082015181840152602081019050611210565b60008484015250505050565b6000601f19601f8301169050919050565b6000611253826111f1565b61125d81856111fc565b935061126d81856020860161120d565b61127681611237565b840191505092915050565b6000602082019050818103600083015261129b8184611248565b905092915050565b600080fd5b6112b18161118e565b81146112bc57600080fd5b50565b6000813590506112ce816112a8565b92915050565b6112dd816111af565b81146112e857600080fd5b50565b6000813590506112fa816112d4565b92915050565b60008060408385031215611317576113166112a3565b5b6000611325858286016112bf565b9250506020611336858286016112eb565b9150509250929050565b60008115159050919050565b61135581611340565b82525050565b6000602082019050611370600083018461134c565b92915050565b600060208201905061138b60008301846111b9565b92915050565b6000806000606084860312156113aa576113a96112a3565b5b60006113b8868287016112bf565b93505060206113c9868287016112bf565b92505060406113da868287016112eb565b9150509250925092565b6000602082840312156113fa576113f96112a3565b5b6000611408848285016112bf565b91505092915050565b600060208284031215611427576114266112a3565b5b6000611435848285016112eb565b91505092915050565b60008060408385031215611455576114546112a3565b5b6000611463858286016112bf565b9250506020611474858286016112bf565b9150509250929050565b600060208201905061149360008301846111a0565b92915050565b600080604083850312156114b0576114af6112a3565b5b60006114be858286016112eb565b92505060206114cf858286016112bf565b9150509250929050565b7f4e487b7100000000000000000000000000000000000000000000000000000000600052602260045260246000fd5b6000600282049050600182168061152057607f821691505b602082108103611533576115326114d9565b5b50919050565b7f416c6c6f77616e636520746f6f206c6f77000000000000000000000000000000600082015250565b600061156f6011836111fc565b915061157a82611539565b602082019050919050565b6000602082019050818103600083015261159e81611562565b9050919050565b7f4e487b7100000000000000000000000000000000000000000000000000000000600052601160045260246000fd5b60006115df826111af565b91506115ea836111af565b9250828203905081811115611602576116016115a5565b5b92915050565b6000611613826111af565b915061161e836111af565b9250828201905080821115611636576116356115a5565b5b92915050565b6000611647826111af565b9150611652836111af565b9250828202611660816111af565b91508282048414831517611677576116766115a5565b5b5092915050565b7f496e636f72726563742045544820616d6f756e742073656e7400000000000000600082015250565b60006116b46019836111fc565b91506116bf8261167e565b602082019050919050565b600060208201905081810360008301526116e3816116a7565b9050919050565b6000815190506116f9816112d4565b92915050565b600060208284031215611715576117146112a3565b5b6000611723848285016116ea565b91505092915050565b7f4e6f7420656e6f75676820746f6b656e73000000000000000000000000000000600082015250565b60006117626011836111fc565b915061176d8261172c565b602082019050919050565b6000602082019050818103600083015261179181611755565b9050919050565b7f4e6f7420616e206f776e64657221000000000000000000000000000000000000600082015250565b60006117ce600e836111fc565b91506117d982611798565b602082019050919050565b600060208201905081810360008301526117fd816117c1565b9050919050565b7f4e6f7420656e6f75676820746f6b656e73210000000000000000000000000000600082015250565b600061183a6012836111fc565b915061184582611804565b602082019050919050565b600060208201905081810360008301526118698161182d565b9050919050565b7f61646472657373206e6f7420666f756e64000000000000000000000000000000600082015250565b60006118a66011836111fc565b91506118b182611870565b602082019050919050565b600060208201905081810360008301526118d581611899565b9050919050565b7f6e6f7420656e6f75676820746f6b656e73000000000000000000000000000000600082015250565b60006119126011836111fc565b915061191d826118dc565b602082019050919050565b6000602082019050818103600083015261194181611905565b9050919050565b7f696e76616c696420616464726573730000000000000000000000000000000000600082015250565b600061197e600f836111fc565b915061198982611948565b602082019050919050565b600060208201905081810360008301526119ad81611971565b9050919050565b7f4e6f7420656e6f7567682062616c616e63650000000000000000000000000000600082015250565b60006119ea6012836111fc565b91506119f5826119b4565b602082019050919050565b60006020820190508181036000830152611a19816119dd565b905091905056fea264697066735822122063a36ee9ff6b92edcce68766bd946df383f4765b7284787cdfd35846373cdb4364736f6c634300081d0033",
  "linkReferences": {},
  "deployedLinkReferences": {}
}