{
  "_format": "hh-sol-artifact-1",
  "contractName": "AToken",
  "sourceName": "contracts/AToken.sol",
  "abi": [
    {
      "inputs": [
        {
          "internalType": "address",
          "name": "_initialMinterAndAdmin",
          "type": "address"
        },
        {
          "internalType": "uint256",
          "name": "_tokenPrice",
          "type": "uint256"
        }
      ],
      "stateMutability": "nonpayable",
      "type": "constructor"
    },
    {
      "inputs": [],
      "name": "AccessControlBadConfirmation",
      "type": "error"
    },
    {
      "inputs": [
        {
          "internalType": "address",
          "name": "account",
          "type": "address"
        },
        {
          "internalType": "bytes32",
          "name": "neededRole",
          "type": "bytes32"
        }
      ],
      "name": "AccessControlUnauthorizedAccount",
      "type": "error"
    },
    {
      "anonymous": false,
      "inputs": [
        {
          "indexed": true,
          "internalType": "address",
          "name": "owner",
          "type": "address"
        },
        {
          "indexed": true,
          "internalType": "address",
          "name": "spender",
          "type": "address"
        },
        {
          "indexed": false,
          "internalType": "uint256",
          "name": "amount",
          "type": "uint256"
        }
      ],
      "name": "Approval",
      "type": "event"
    },
    {
      "anonymous": false,
      "inputs": [
        {
          "indexed": false,
          "internalType": "address",
          "name": "sender",
          "type": "address"
        },
        {
          "indexed": false,
          "internalType": "uint256",
          "name": "amount",
          "type": "uint256"
        }
      ],
      "name": "Received",
      "type": "event"
    },
    {
      "anonymous": false,
      "inputs": [
        {
          "indexed": true,
          "internalType": "bytes32",
          "name": "role",
          "type": "bytes32"
        },
        {
          "indexed": true,
          "internalType": "bytes32",
          "name": "previousAdminRole",
          "type": "bytes32"
        },
        {
          "indexed": true,
          "internalType": "bytes32",
          "name": "newAdminRole",
          "type": "bytes32"
        }
      ],
      "name": "RoleAdminChanged",
      "type": "event"
    },
    {
      "anonymous": false,
      "inputs": [
        {
          "indexed": true,
          "internalType": "bytes32",
          "name": "role",
          "type": "bytes32"
        },
        {
          "indexed": true,
          "internalType": "address",
          "name": "account",
          "type": "address"
        },
        {
          "indexed": true,
          "internalType": "address",
          "name": "sender",
          "type": "address"
        }
      ],
      "name": "RoleGranted",
      "type": "event"
    },
    {
      "anonymous": false,
      "inputs": [
        {
          "indexed": true,
          "internalType": "bytes32",
          "name": "role",
          "type": "bytes32"
        },
        {
          "indexed": true,
          "internalType": "address",
          "name": "account",
          "type": "address"
        },
        {
          "indexed": true,
          "internalType": "address",
          "name": "sender",
          "type": "address"
        }
      ],
      "name": "RoleRevoked",
      "type": "event"
    },
    {
      "anonymous": false,
      "inputs": [
        {
          "indexed": true,
          "internalType": "address",
          "name": "from",
          "type": "address"
        },
        {
          "indexed": true,
          "internalType": "address",
          "name": "to",
          "type": "address"
        },
        {
          "indexed": false,
          "internalType": "uint256",
          "name": "amount",
          "type": "uint256"
        }
      ],
      "name": "Transfer",
      "type": "event"
    },
    {
      "inputs": [],
      "name": "DEFAULT_ADMIN_ROLE",
      "outputs": [
        {
          "internalType": "bytes32",
          "name": "",
          "type": "bytes32"
        }
      ],
      "stateMutability": "view",
      "type": "function"
    },
    {
      "inputs": [],
      "name": "MINTER_ROLE",
      "outputs": [
        {
          "internalType": "bytes32",
          "name": "",
          "type": "bytes32"
        }
      ],
      "stateMutability": "view",
      "type": "function"
    },
    {
      "inputs": [
        {
          "internalType": "address",
          "name": "_owner",
          "type": "address"
        },
        {
          "internalType": "address",
          "name": "spender",
          "type": "address"
        }
      ],
      "name": "allowance",
      "outputs": [
        {
          "internalType": "uint256",
          "name": "",
          "type": "uint256"
        }
      ],
      "stateMutability": "view",
      "type": "function"
    },
    {
      "inputs": [
        {
          "internalType": "address",
          "name": "",
          "type": "address"
        },
        {
          "internalType": "address",
          "name": "",
          "type": "address"
        }
      ],
      "name": "allowances",
      "outputs": [
        {
          "internalType": "uint256",
          "name": "",
          "type": "uint256"
        }
      ],
      "stateMutability": "view",
      "type": "function"
    },
    {
      "inputs": [
        {
          "internalType": "address",
          "name": "spender",
          "type": "address"
        },
        {
          "internalType": "uint256",
          "name": "amount",
          "type": "uint256"
        }
      ],
      "name": "approve",
      "outputs": [
        {
          "internalType": "bool",
          "name": "",
          "type": "bool"
        }
      ],
      "stateMutability": "nonpayable",
      "type": "function"
    },
    {
      "inputs": [
        {
          "internalType": "address",
          "name": "account",
          "type": "address"
        }
      ],
      "name": "balanceOf",
      "outputs": [
        {
          "internalType": "uint256",
          "name": "",
          "type": "uint256"
        }
      ],
      "stateMutability": "view",
      "type": "function"
    },
    {
      "inputs": [
        {
          "internalType": "address",
          "name": "",
          "type": "address"
        }
      ],
      "name": "balances",
      "outputs": [
        {
          "internalType": "uint256",
          "name": "",
          "type": "uint256"
        }
      ],
      "stateMutability": "view",
      "type": "function"
    },
    {
      "inputs": [
        {
          "internalType": "uint256",
          "name": "numberOfTokens",
          "type": "uint256"
        }
      ],
      "name": "buyTokens",
      "outputs": [],
      "stateMutability": "payable",
      "type": "function"
    },
    {
      "inputs": [],
      "name": "decimals",
      "outputs": [
        {
          "internalType": "uint256",
          "name": "",
          "type": "uint256"
        }
      ],
      "stateMutability": "pure",
      "type": "function"
    },
    {
      "inputs": [
        {
          "internalType": "bytes32",
          "name": "role",
          "type": "bytes32"
        }
      ],
      "name": "getRoleAdmin",
      "outputs": [
        {
          "internalType": "bytes32",
          "name": "",
          "type": "bytes32"
        }
      ],
      "stateMutability": "view",
      "type": "function"
    },
    {
      "inputs": [
        {
          "internalType": "bytes32",
          "name": "role",
          "type": "bytes32"
        },
        {
          "internalType": "address",
          "name": "account",
          "type": "address"
        }
      ],
      "name": "grantRole",
      "outputs": [],
      "stateMutability": "nonpayable",
      "type": "function"
    },
    {
      "inputs": [
        {
          "internalType": "bytes32",
          "name": "role",
          "type": "bytes32"
        },
        {
          "internalType": "address",
          "name": "account",
          "type": "address"
        }
      ],
      "name": "hasRole",
      "outputs": [
        {
          "internalType": "bool",
          "name": "",
          "type": "bool"
        }
      ],
      "stateMutability": "view",
      "type": "function"
    },
    {
      "inputs": [
        {
          "internalType": "uint256",
          "name": "amount",
          "type": "uint256"
        },
        {
          "internalType": "address",
          "name": "to",
          "type": "address"
        }
      ],
      "name": "mint",
      "outputs": [],
      "stateMutability": "nonpayable",
      "type": "function"
    },
    {
      "inputs": [],
      "name": "name",
      "outputs": [
        {
          "internalType": "string",
          "name": "",
          "type": "string"
        }
      ],
      "stateMutability": "view",
      "type": "function"
    },
    {
      "inputs": [],
      "name": "owner",
      "outputs": [
        {
          "internalType": "address",
          "name": "",
          "type": "address"
        }
      ],
      "stateMutability": "view",
      "type": "function"
    },
    {
      "inputs": [
        {
          "internalType": "bytes32",
          "name": "role",
          "type": "bytes32"
        },
        {
          "internalType": "address",
          "name": "callerConfirmation",
          "type": "address"
        }
      ],
      "name": "renounceRole",
      "outputs": [],
      "stateMutability": "nonpayable",
      "type": "function"
    },
    {
      "inputs": [
        {
          "internalType": "bytes32",
          "name": "role",
          "type": "bytes32"
        },
        {
          "internalType": "address",
          "name": "account",
          "type": "address"
        }
      ],
      "name": "revokeRole",
      "outputs": [],
      "stateMutability": "nonpayable",
      "type": "function"
    },
    {
      "inputs": [
        {
          "internalType": "address",
          "name": "_tokenSwapAddress",
          "type": "address"
        }
      ],
      "name": "setTokenSwapAddress",
      "outputs": [],
      "stateMutability": "nonpayable",
      "type": "function"
    },
    {
      "inputs": [
        {
          "internalType": "bytes4",
          "name": "interfaceId",
          "type": "bytes4"
        }
      ],
      "name": "supportsInterface",
      "outputs": [
        {
          "internalType": "bool",
          "name": "",
          "type": "bool"
        }
      ],
      "stateMutability": "view",
      "type": "function"
    },
    {
      "inputs": [],
      "name": "symbol",
      "outputs": [
        {
          "internalType": "string",
          "name": "",
          "type": "string"
        }
      ],
      "stateMutability": "view",
      "type": "function"
    },
    {
      "inputs": [],
      "name": "tokenPrice",
      "outputs": [
        {
          "internalType": "uint256",
          "name": "",
          "type": "uint256"
        }
      ],
      "stateMutability": "view",
      "type": "function"
    },
    {
      "inputs": [],
      "name": "tokenSwap",
      "outputs": [
        {
          "internalType": "address",
          "name": "",
          "type": "address"
        }
      ],
      "stateMutability": "view",
      "type": "function"
    },
    {
      "inputs": [],
      "name": "tokensSold",
      "outputs": [
        {
          "internalType": "uint256",
          "name": "",
          "type": "uint256"
        }
      ],
      "stateMutability": "view",
      "type": "function"
    },
    {
      "inputs": [],
      "name": "totalSupply",
      "outputs": [
        {
          "internalType": "uint256",
          "name": "",
          "type": "uint256"
        }
      ],
      "stateMutability": "view",
      "type": "function"
    },
    {
      "inputs": [],
      "name": "totalTokens",
      "outputs": [
        {
          "internalType": "uint256",
          "name": "",
          "type": "uint256"
        }
      ],
      "stateMutability": "view",
      "type": "function"
    },
    {
      "inputs": [
        {
          "internalType": "address",
          "name": "to",
          "type": "address"
        },
        {
          "internalType": "uint256",
          "name": "amount",
          "type": "uint256"
        }
      ],
      "name": "transfer",
      "outputs": [
        {
          "internalType": "bool",
          "name": "",
          "type": "bool"
        }
      ],
      "stateMutability": "nonpayable",
      "type": "function"
    },
    {
      "inputs": [
        {
          "internalType": "address",
          "name": "sender",
          "type": "address"
        },
        {
          "internalType": "address",
          "name": "recipient",
          "type": "address"
        },
        {
          "internalType": "uint256",
          "name": "amount",
          "type": "uint256"
        }
      ],
      "name": "transferFrom",
      "outputs": [
        {
          "internalType": "bool",
          "name": "",
          "type": "bool"
        }
      ],
      "stateMutability": "nonpayable",
      "type": "function"
    },
    {
      "inputs": [
        {
          "internalType": "uint256",
          "name": "amount",
          "type": "uint256"
        }
      ],
      "name": "withdrawETH",
      "outputs": [],
      "stateMutability": "nonpayable",
      "type": "function"
    },
    {
      "stateMutability": "payable",
      "type": "receive"
    }
  ],
  "bytecode": "0x608060405234801561001057600080fd5b5060405161301c38038061301c833981810160405281019061003291906105dc565b6040518060400160405280600681526020017f41546f6b656e00000000000000000000000000000000000000000000000000008152506040518060400160405280600181526020017f410000000000000000000000000000000000000000000000000000000000000081525060008483600590816100b09190610862565b5082600690816100c09190610862565b5033600160006101000a81548173ffffffffffffffffffffffffffffffffffffffff021916908373ffffffffffffffffffffffffffffffffffffffff1602179055506101156000801b336101fd60201b60201c565b506101467f9f2df0fed2c77648de5860a4cc508cd0818c85b8b8a1ab4ceeef8d981c8956a6336101fd60201b60201c565b5061015782826102fa60201b60201c565b505050508060078190555081600960006101000a81548173ffffffffffffffffffffffffffffffffffffffff021916908373ffffffffffffffffffffffffffffffffffffffff1602179055506101f57f9f2df0fed2c77648de5860a4cc508cd0818c85b8b8a1ab4ceeef8d981c8956a6600960009054906101000a900473ffffffffffffffffffffffffffffffffffffffff166101fd60201b60201c565b505050610aaa565b600061020f83836103e560201b60201c565b6102ef57600160008085815260200190815260200160002060000160008473ffffffffffffffffffffffffffffffffffffffff1673ffffffffffffffffffffffffffffffffffffffff16815260200190815260200160002060006101000a81548160ff02191690831515021790555061028c61044f60201b60201c565b73ffffffffffffffffffffffffffffffffffffffff168273ffffffffffffffffffffffffffffffffffffffff16847f2f8788117e7eff1d82e926ec794901d17c78024a50270940304540a733656f0d60405160405180910390a4600190506102f4565b600090505b92915050565b61030c6000828461045760201b60201c565b816002600082825461031e9190610963565b9250508190555081600360008373ffffffffffffffffffffffffffffffffffffffff1673ffffffffffffffffffffffffffffffffffffffff16815260200190815260200160002060008282546103749190610963565b925050819055508073ffffffffffffffffffffffffffffffffffffffff16600073ffffffffffffffffffffffffffffffffffffffff167fddf252ad1be2c89b69c2b068fc378daa952ba7f163c4a11628f55a4df523b3ef846040516103d991906109a6565b60405180910390a35050565b600080600084815260200190815260200160002060000160008373ffffffffffffffffffffffffffffffffffffffff1673ffffffffffffffffffffffffffffffffffffffff16815260200190815260200160002060009054906101000a900460ff16905092915050565b600033905090565b600073ffffffffffffffffffffffffffffffffffffffff168373ffffffffffffffffffffffffffffffffffffffff16146104cf57600081116104ce576040517f08c379a00000000000000000000000000000000000000000000000000000000081526004016104c590610a1e565b60405180910390fd5b5b600073ffffffffffffffffffffffffffffffffffffffff168273ffffffffffffffffffffffffffffffffffffffff160361053e576040517f08c379a000000000000000000000000000000000000000000000000000000000815260040161053590610a8a565b60405180910390fd5b505050565b600080fd5b600073ffffffffffffffffffffffffffffffffffffffff82169050919050565b600061057382610548565b9050919050565b61058381610568565b811461058e57600080fd5b50565b6000815190506105a08161057a565b92915050565b6000819050919050565b6105b9816105a6565b81146105c457600080fd5b50565b6000815190506105d6816105b0565b92915050565b600080604083850312156105f3576105f2610543565b5b600061060185828601610591565b9250506020610612858286016105c7565b9150509250929050565b600081519050919050565b7f4e487b7100000000000000000000000000000000000000000000000000000000600052604160045260246000fd5b7f4e487b7100000000000000000000000000000000000000000000000000000000600052602260045260246000fd5b6000600282049050600182168061069d57607f821691505b6020821081036106b0576106af610656565b5b50919050565b60008190508160005260206000209050919050565b60006020601f8301049050919050565b600082821b905092915050565b6000600883026107187fffffffffffffffffffffffffffffffffffffffffffffffffffffffffffffffff826106db565b61072286836106db565b95508019841693508086168417925050509392505050565b6000819050919050565b600061075f61075a610755846105a6565b61073a565b6105a6565b9050919050565b6000819050919050565b61077983610744565b61078d61078582610766565b8484546106e8565b825550505050565b600090565b6107a2610795565b6107ad818484610770565b505050565b5b818110156107d1576107c660008261079a565b6001810190506107b3565b5050565b601f821115610816576107e7816106b6565b6107f0846106cb565b810160208510156107ff578190505b61081361080b856106cb565b8301826107b2565b50505b505050565b600082821c905092915050565b60006108396000198460080261081b565b1980831691505092915050565b60006108528383610828565b9150826002028217905092915050565b61086b8261061c565b67ffffffffffffffff81111561088457610883610627565b5b61088e8254610685565b6108998282856107d5565b600060209050601f8311600181146108cc57600084156108ba578287015190505b6108c48582610846565b86555061092c565b601f1984166108da866106b6565b60005b82811015610902578489015182556001820191506020850194506020810190506108dd565b8683101561091f578489015161091b601f891682610828565b8355505b6001600288020188555050505b505050505050565b7f4e487b7100000000000000000000000000000000000000000000000000000000600052601160045260246000fd5b600061096e826105a6565b9150610979836105a6565b925082820190508082111561099157610990610934565b5b92915050565b6109a0816105a6565b82525050565b60006020820190506109bb6000830184610997565b92915050565b600082825260208201905092915050565b7f6e6f7420656e6f75676820746f6b656e73000000000000000000000000000000600082015250565b6000610a086011836109c1565b9150610a13826109d2565b602082019050919050565b60006020820190508181036000830152610a37816109fb565b9050919050565b7f696e76616c696420616464726573730000000000000000000000000000000000600082015250565b6000610a74600f836109c1565b9150610a7f82610a3e565b602082019050919050565b60006020820190508181036000830152610aa381610a67565b9050919050565b61256380610ab96000396000f3fe6080604052600436106101bb5760003560e01c806370a08231116100ec5780639653dee51161008a578063d539139311610064578063d539139314610693578063d547741f146106be578063dd62ed3e146106e7578063f14210a614610724576101fb565b80639653dee514610600578063a217fddf1461062b578063a9059cbb14610656576101fb565b80638da5cb5b116100c65780638da5cb5b1461054457806391d148541461056f57806394bf804d146105ac57806395d89b41146105d5576101fb565b806370a08231146104b15780637e1c0c09146104ee5780637ff9b59614610519576101fb565b80632f2ff15d116101595780633610724e116101335780633610724e1461040457806336568abe14610420578063518ab2a81461044957806355b6ed5c14610474576101fb565b80632f2ff15d14610387578063313ce567146103b057806336104cb1146103db576101fb565b806318160ddd1161019557806318160ddd146102a557806323b872dd146102d0578063248a9ca31461030d57806327e235e31461034a576101fb565b806301ffc9a71461020057806306fdde031461023d578063095ea7b314610268576101fb565b366101fb577f88a5966d370b9919b20f3e2c13ff65706f196a4e32cc2c12bf57088f8852587433346040516101f1929190611a22565b60405180910390a1005b600080fd5b34801561020c57600080fd5b5061022760048036038101906102229190611aa8565b61074d565b6040516102349190611af0565b60405180910390f35b34801561024957600080fd5b506102526107c7565b60405161025f9190611b9b565b60405180910390f35b34801561027457600080fd5b5061028f600480360381019061028a9190611c15565b610859565b60405161029c9190611af0565b60405180910390f35b3480156102b157600080fd5b506102ba610870565b6040516102c79190611c55565b60405180910390f35b3480156102dc57600080fd5b506102f760048036038101906102f29190611c70565b61087a565b6040516103049190611af0565b60405180910390f35b34801561031957600080fd5b50610334600480360381019061032f9190611cf9565b610af5565b6040516103419190611d35565b60405180910390f35b34801561035657600080fd5b50610371600480360381019061036c9190611d50565b610b14565b60405161037e9190611c55565b60405180910390f35b34801561039357600080fd5b506103ae60048036038101906103a99190611d7d565b610b2c565b005b3480156103bc57600080fd5b506103c5610b4e565b6040516103d29190611c55565b60405180910390f35b3480156103e757600080fd5b5061040260048036038101906103fd9190611d50565b610b57565b005b61041e60048036038101906104199190611dbd565b610c18565b005b34801561042c57600080fd5b5061044760048036038101906104429190611d7d565b610d6e565b005b34801561045557600080fd5b5061045e610de9565b60405161046b9190611c55565b60405180910390f35b34801561048057600080fd5b5061049b60048036038101906104969190611dea565b610def565b6040516104a89190611c55565b60405180910390f35b3480156104bd57600080fd5b506104d860048036038101906104d39190611d50565b610e14565b6040516104e59190611c55565b60405180910390f35b3480156104fa57600080fd5b50610503610e5d565b6040516105109190611c55565b60405180910390f35b34801561052557600080fd5b5061052e610e63565b60405161053b9190611c55565b60405180910390f35b34801561055057600080fd5b50610559610e69565b6040516105669190611e2a565b60405180910390f35b34801561057b57600080fd5b5061059660048036038101906105919190611d7d565b610e8f565b6040516105a39190611af0565b60405180910390f35b3480156105b857600080fd5b506105d360048036038101906105ce9190611e45565b610ef9565b005b3480156105e157600080fd5b506105ea610f32565b6040516105f79190611b9b565b60405180910390f35b34801561060c57600080fd5b50610615610fc4565b6040516106229190611e2a565b60405180910390f35b34801561063757600080fd5b50610640610fea565b60405161064d9190611d35565b60405180910390f35b34801561066257600080fd5b5061067d60048036038101906106789190611c15565b610ff1565b60405161068a9190611af0565b60405180910390f35b34801561069f57600080fd5b506106a8611168565b6040516106b59190611d35565b60405180910390f35b3480156106ca57600080fd5b506106e560048036038101906106e09190611d7d565b61118c565b005b3480156106f357600080fd5b5061070e60048036038101906107099190611dea565b6111ae565b60405161071b9190611c55565b60405180910390f35b34801561073057600080fd5b5061074b60048036038101906107469190611dbd565b611235565b005b60007f7965db0b000000000000000000000000000000000000000000000000000000007bffffffffffffffffffffffffffffffffffffffffffffffffffffffff1916827bffffffffffffffffffffffffffffffffffffffffffffffffffffffff191614806107c057506107bf82611331565b5b9050919050565b6060600580546107d690611eb4565b80601f016020809104026020016040519081016040528092919081815260200182805461080290611eb4565b801561084f5780601f106108245761010080835404028352916020019161084f565b820191906000526020600020905b81548152906001019060200180831161083257829003601f168201915b5050505050905090565b600061086633848461139b565b6001905092915050565b6000600254905090565b600081600460008673ffffffffffffffffffffffffffffffffffffffff1673ffffffffffffffffffffffffffffffffffffffff16815260200190815260200160002060003373ffffffffffffffffffffffffffffffffffffffff1673ffffffffffffffffffffffffffffffffffffffff16815260200190815260200160002054101561093b576040517f08c379a000000000000000000000000000000000000000000000000000000000815260040161093290611f31565b60405180910390fd5b610946848484611486565b81600460008673ffffffffffffffffffffffffffffffffffffffff1673ffffffffffffffffffffffffffffffffffffffff16815260200190815260200160002060003373ffffffffffffffffffffffffffffffffffffffff1673ffffffffffffffffffffffffffffffffffffffff16815260200190815260200160002060008282546109d29190611f80565b9250508190555081600360008673ffffffffffffffffffffffffffffffffffffffff1673ffffffffffffffffffffffffffffffffffffffff1681526020019081526020016000206000828254610a289190611f80565b9250508190555081600360008573ffffffffffffffffffffffffffffffffffffffff1673ffffffffffffffffffffffffffffffffffffffff1681526020019081526020016000206000828254610a7e9190611fb4565b925050819055508273ffffffffffffffffffffffffffffffffffffffff168473ffffffffffffffffffffffffffffffffffffffff167fddf252ad1be2c89b69c2b068fc378daa952ba7f163c4a11628f55a4df523b3ef84604051610ae29190611c55565b60405180910390a3600190509392505050565b6000806000838152602001908152602001600020600101549050919050565b60036020528060005260406000206000915090505481565b610b3582610af5565b610b3e81611572565b610b488383611586565b50505050565b60006012905090565b6000801b610b6481611572565b600073ffffffffffffffffffffffffffffffffffffffff168273ffffffffffffffffffffffffffffffffffffffff1603610bd3576040517f08c379a0000000000000000000000000000000000000000000000000000000008152600401610bca90612034565b60405180910390fd5b81600960006101000a81548173ffffffffffffffffffffffffffffffffffffffff021916908373ffffffffffffffffffffffffffffffffffffffff1602179055505050565b6000610c22610b4e565b600a610c2e9190612187565b82610c3991906121d2565b905081600754610c4991906121d2565b3414610c8a576040517f08c379a0000000000000000000000000000000000000000000000000000000008152600401610c8190612260565b60405180910390fd5b803073ffffffffffffffffffffffffffffffffffffffff166370a08231306040518263ffffffff1660e01b8152600401610cc49190611e2a565b602060405180830381865afa158015610ce1573d6000803e3d6000fd5b505050506040513d601f19601f82011682018060405250810190610d059190612295565b1015610d46576040517f08c379a0000000000000000000000000000000000000000000000000000000008152600401610d3d9061230e565b60405180910390fd5b610d51303383611677565b8060086000828254610d639190611fb4565b925050819055505050565b610d76611798565b73ffffffffffffffffffffffffffffffffffffffff168173ffffffffffffffffffffffffffffffffffffffff1614610dda576040517f6697b23200000000000000000000000000000000000000000000000000000000815260040160405180910390fd5b610de482826117a0565b505050565b60085481565b6004602052816000526040600020602052806000526040600020600091509150505481565b6000600360008373ffffffffffffffffffffffffffffffffffffffff1673ffffffffffffffffffffffffffffffffffffffff168152602001908152602001600020549050919050565b60025481565b60075481565b600160009054906101000a900473ffffffffffffffffffffffffffffffffffffffff1681565b600080600084815260200190815260200160002060000160008373ffffffffffffffffffffffffffffffffffffffff1673ffffffffffffffffffffffffffffffffffffffff16815260200190815260200160002060009054906101000a900460ff16905092915050565b7f9f2df0fed2c77648de5860a4cc508cd0818c85b8b8a1ab4ceeef8d981c8956a6610f2381611572565b610f2d8383611892565b505050565b606060068054610f4190611eb4565b80601f0160208091040260200160405190810160405280929190818152602001828054610f6d90611eb4565b8015610fba5780601f10610f8f57610100808354040283529160200191610fba565b820191906000526020600020905b815481529060010190602001808311610f9d57829003601f168201915b5050505050905090565b600960009054906101000a900473ffffffffffffffffffffffffffffffffffffffff1681565b6000801b81565b6000338280610fff83610e14565b1015611040576040517f08c379a0000000000000000000000000000000000000000000000000000000008152600401611037906123a0565b60405180910390fd5b61104b338686611486565b83600360003373ffffffffffffffffffffffffffffffffffffffff1673ffffffffffffffffffffffffffffffffffffffff168152602001908152602001600020600082825461109a9190611f80565b9250508190555083600360008773ffffffffffffffffffffffffffffffffffffffff1673ffffffffffffffffffffffffffffffffffffffff16815260200190815260200160002060008282546110f09190611fb4565b925050819055508473ffffffffffffffffffffffffffffffffffffffff163373ffffffffffffffffffffffffffffffffffffffff167fddf252ad1be2c89b69c2b068fc378daa952ba7f163c4a11628f55a4df523b3ef866040516111549190611c55565b60405180910390a360019250505092915050565b7f9f2df0fed2c77648de5860a4cc508cd0818c85b8b8a1ab4ceeef8d981c8956a681565b61119582610af5565b61119e81611572565b6111a883836117a0565b50505050565b6000600460008473ffffffffffffffffffffffffffffffffffffffff1673ffffffffffffffffffffffffffffffffffffffff16815260200190815260200160002060008373ffffffffffffffffffffffffffffffffffffffff1673ffffffffffffffffffffffffffffffffffffffff16815260200190815260200160002054905092915050565b600960009054906101000a900473ffffffffffffffffffffffffffffffffffffffff1673ffffffffffffffffffffffffffffffffffffffff163373ffffffffffffffffffffffffffffffffffffffff16146112c5576040517f08c379a00000000000000000000000000000000000000000000000000000000081526004016112bc9061240c565b60405180910390fd5b600960009054906101000a900473ffffffffffffffffffffffffffffffffffffffff1673ffffffffffffffffffffffffffffffffffffffff166108fc829081150290604051600060405180830381858888f1935050505015801561132d573d6000803e3d6000fd5b5050565b60007f01ffc9a7000000000000000000000000000000000000000000000000000000007bffffffffffffffffffffffffffffffffffffffffffffffffffffffff1916827bffffffffffffffffffffffffffffffffffffffffffffffffffffffff1916149050919050565b80600460008573ffffffffffffffffffffffffffffffffffffffff1673ffffffffffffffffffffffffffffffffffffffff16815260200190815260200160002060008473ffffffffffffffffffffffffffffffffffffffff1673ffffffffffffffffffffffffffffffffffffffff168152602001908152602001600020819055508173ffffffffffffffffffffffffffffffffffffffff168373ffffffffffffffffffffffffffffffffffffffff167f8c5be1e5ebec7d5bd14f71427d1e84f3dd0314c0f7b2291e5b200ac8c7c3b925836040516114799190611c55565b60405180910390a3505050565b600073ffffffffffffffffffffffffffffffffffffffff168373ffffffffffffffffffffffffffffffffffffffff16146114fe57600081116114fd576040517f08c379a00000000000000000000000000000000000000000000000000000000081526004016114f490612478565b60405180910390fd5b5b600073ffffffffffffffffffffffffffffffffffffffff168273ffffffffffffffffffffffffffffffffffffffff160361156d576040517f08c379a0000000000000000000000000000000000000000000000000000000008152600401611564906124e4565b60405180910390fd5b505050565b6115838161157e611798565b611977565b50565b60006115928383610e8f565b61166c57600160008085815260200190815260200160002060000160008473ffffffffffffffffffffffffffffffffffffffff1673ffffffffffffffffffffffffffffffffffffffff16815260200190815260200160002060006101000a81548160ff021916908315150217905550611609611798565b73ffffffffffffffffffffffffffffffffffffffff168273ffffffffffffffffffffffffffffffffffffffff16847f2f8788117e7eff1d82e926ec794901d17c78024a50270940304540a733656f0d60405160405180910390a460019050611671565b600090505b92915050565b611682838383611486565b80600360008573ffffffffffffffffffffffffffffffffffffffff1673ffffffffffffffffffffffffffffffffffffffff16815260200190815260200160002060008282546116d19190611f80565b9250508190555080600360008473ffffffffffffffffffffffffffffffffffffffff1673ffffffffffffffffffffffffffffffffffffffff16815260200190815260200160002060008282546117279190611fb4565b925050819055508173ffffffffffffffffffffffffffffffffffffffff168373ffffffffffffffffffffffffffffffffffffffff167fddf252ad1be2c89b69c2b068fc378daa952ba7f163c4a11628f55a4df523b3ef8360405161178b9190611c55565b60405180910390a3505050565b600033905090565b60006117ac8383610e8f565b1561188757600080600085815260200190815260200160002060000160008473ffffffffffffffffffffffffffffffffffffffff1673ffffffffffffffffffffffffffffffffffffffff16815260200190815260200160002060006101000a81548160ff021916908315150217905550611824611798565b73ffffffffffffffffffffffffffffffffffffffff168273ffffffffffffffffffffffffffffffffffffffff16847ff6391f5c32d9c69d2a47ea670b442974b53935d1edc7fd64eb21e047a839171b60405160405180910390a46001905061188c565b600090505b92915050565b61189e60008284611486565b81600260008282546118b09190611fb4565b9250508190555081600360008373ffffffffffffffffffffffffffffffffffffffff1673ffffffffffffffffffffffffffffffffffffffff16815260200190815260200160002060008282546119069190611fb4565b925050819055508073ffffffffffffffffffffffffffffffffffffffff16600073ffffffffffffffffffffffffffffffffffffffff167fddf252ad1be2c89b69c2b068fc378daa952ba7f163c4a11628f55a4df523b3ef8460405161196b9190611c55565b60405180910390a35050565b6119818282610e8f565b6119c45780826040517fe2517d3f0000000000000000000000000000000000000000000000000000000081526004016119bb929190612504565b60405180910390fd5b5050565b600073ffffffffffffffffffffffffffffffffffffffff82169050919050565b60006119f3826119c8565b9050919050565b611a03816119e8565b82525050565b6000819050919050565b611a1c81611a09565b82525050565b6000604082019050611a3760008301856119fa565b611a446020830184611a13565b9392505050565b600080fd5b60007fffffffff0000000000000000000000000000000000000000000000000000000082169050919050565b611a8581611a50565b8114611a9057600080fd5b50565b600081359050611aa281611a7c565b92915050565b600060208284031215611abe57611abd611a4b565b5b6000611acc84828501611a93565b91505092915050565b60008115159050919050565b611aea81611ad5565b82525050565b6000602082019050611b056000830184611ae1565b92915050565b600081519050919050565b600082825260208201905092915050565b60005b83811015611b45578082015181840152602081019050611b2a565b60008484015250505050565b6000601f19601f8301169050919050565b6000611b6d82611b0b565b611b778185611b16565b9350611b87818560208601611b27565b611b9081611b51565b840191505092915050565b60006020820190508181036000830152611bb58184611b62565b905092915050565b611bc6816119e8565b8114611bd157600080fd5b50565b600081359050611be381611bbd565b92915050565b611bf281611a09565b8114611bfd57600080fd5b50565b600081359050611c0f81611be9565b92915050565b60008060408385031215611c2c57611c2b611a4b565b5b6000611c3a85828601611bd4565b9250506020611c4b85828601611c00565b9150509250929050565b6000602082019050611c6a6000830184611a13565b92915050565b600080600060608486031215611c8957611c88611a4b565b5b6000611c9786828701611bd4565b9350506020611ca886828701611bd4565b9250506040611cb986828701611c00565b9150509250925092565b6000819050919050565b611cd681611cc3565b8114611ce157600080fd5b50565b600081359050611cf381611ccd565b92915050565b600060208284031215611d0f57611d0e611a4b565b5b6000611d1d84828501611ce4565b91505092915050565b611d2f81611cc3565b82525050565b6000602082019050611d4a6000830184611d26565b92915050565b600060208284031215611d6657611d65611a4b565b5b6000611d7484828501611bd4565b91505092915050565b60008060408385031215611d9457611d93611a4b565b5b6000611da285828601611ce4565b9250506020611db385828601611bd4565b9150509250929050565b600060208284031215611dd357611dd2611a4b565b5b6000611de184828501611c00565b91505092915050565b60008060408385031215611e0157611e00611a4b565b5b6000611e0f85828601611bd4565b9250506020611e2085828601611bd4565b9150509250929050565b6000602082019050611e3f60008301846119fa565b92915050565b60008060408385031215611e5c57611e5b611a4b565b5b6000611e6a85828601611c00565b9250506020611e7b85828601611bd4565b9150509250929050565b7f4e487b7100000000000000000000000000000000000000000000000000000000600052602260045260246000fd5b60006002820490506001821680611ecc57607f821691505b602082108103611edf57611ede611e85565b5b50919050565b7f416c6c6f77616e636520746f6f206c6f77000000000000000000000000000000600082015250565b6000611f1b601183611b16565b9150611f2682611ee5565b602082019050919050565b60006020820190508181036000830152611f4a81611f0e565b9050919050565b7f4e487b7100000000000000000000000000000000000000000000000000000000600052601160045260246000fd5b6000611f8b82611a09565b9150611f9683611a09565b9250828203905081811115611fae57611fad611f51565b5b92915050565b6000611fbf82611a09565b9150611fca83611a09565b9250828201905080821115611fe257611fe1611f51565b5b92915050565b7f546f6b656e5377617020616464726573732063616e6e6f74206265207a65726f600082015250565b600061201e602083611b16565b915061202982611fe8565b602082019050919050565b6000602082019050818103600083015261204d81612011565b9050919050565b60008160011c9050919050565b6000808291508390505b60018511156120ab5780860481111561208757612086611f51565b5b60018516156120965780820291505b80810290506120a485612054565b945061206b565b94509492505050565b6000826120c45760019050612180565b816120d25760009050612180565b81600181146120e857600281146120f257612121565b6001915050612180565b60ff84111561210457612103611f51565b5b8360020a91508482111561211b5761211a611f51565b5b50612180565b5060208310610133831016604e8410600b84101617156121565782820a90508381111561215157612150611f51565b5b612180565b6121638484846001612061565b9250905081840481111561217a57612179611f51565b5b81810290505b9392505050565b600061219282611a09565b915061219d83611a09565b92506121ca7fffffffffffffffffffffffffffffffffffffffffffffffffffffffffffffffff84846120b4565b905092915050565b60006121dd82611a09565b91506121e883611a09565b92508282026121f681611a09565b9150828204841483151761220d5761220c611f51565b5b5092915050565b7f496e636f72726563742045544820616d6f756e742073656e7400000000000000600082015250565b600061224a601983611b16565b915061225582612214565b602082019050919050565b600060208201905081810360008301526122798161223d565b9050919050565b60008151905061228f81611be9565b92915050565b6000602082840312156122ab576122aa611a4b565b5b60006122b984828501612280565b91505092915050565b7f4e6f7420656e6f75676820746f6b656e73000000000000000000000000000000600082015250565b60006122f8601183611b16565b9150612303826122c2565b602082019050919050565b60006020820190508181036000830152612327816122eb565b9050919050565b7f596f75206861766520746f6f206c6f7720616d6f756e74206f6620746f6b656e60008201527f7300000000000000000000000000000000000000000000000000000000000000602082015250565b600061238a602183611b16565b91506123958261232e565b604082019050919050565b600060208201905081810360008301526123b98161237d565b9050919050565b7f4f6e6c7920546f6b656e537761702063616e2077697468647261770000000000600082015250565b60006123f6601b83611b16565b9150612401826123c0565b602082019050919050565b60006020820190508181036000830152612425816123e9565b9050919050565b7f6e6f7420656e6f75676820746f6b656e73000000000000000000000000000000600082015250565b6000612462601183611b16565b915061246d8261242c565b602082019050919050565b6000602082019050818103600083015261249181612455565b9050919050565b7f696e76616c696420616464726573730000000000000000000000000000000000600082015250565b60006124ce600f83611b16565b91506124d982612498565b602082019050919050565b600060208201905081810360008301526124fd816124c1565b9050919050565b600060408201905061251960008301856119fa565b6125266020830184611d26565b939250505056fea2646970667358221220375d7bb68ef2cb896b5ba28fbadaea18dab9ae2154694188b254f03eb788b60a64736f6c634300081d0033",
  "linkReferences": {},
  "deployedLinkReferences": {}
}