{
  "_format": "hh-sol-artifact-1",
  "contractName": "AToken",
  "sourceName": "contracts/AToken.sol",
  "abi": [
    {
      "inputs": [
        {
          "internalType": "address",
          "name": "exchanger",
          "type": "address"
        },
        {
          "internalType": "uint256",
          "name": "_tokenPrice",
          "type": "uint256"
        }
      ],
      "stateMutability": "nonpayable",
      "type": "constructor"
    },
    {
      "inputs": [],
      "name": "AccessControlBadConfirmation",
      "type": "error"
    },
    {
      "inputs": [
        {
          "internalType": "address",
          "name": "account",
          "type": "address"
        },
        {
          "internalType": "bytes32",
          "name": "neededRole",
          "type": "bytes32"
        }
      ],
      "name": "AccessControlUnauthorizedAccount",
      "type": "error"
    },
    {
      "anonymous": false,
      "inputs": [
        {
          "indexed": true,
          "internalType": "address",
          "name": "owner",
          "type": "address"
        },
        {
          "indexed": true,
          "internalType": "address",
          "name": "spender",
          "type": "address"
        },
        {
          "indexed": false,
          "internalType": "uint256",
          "name": "amount",
          "type": "uint256"
        }
      ],
      "name": "Approval",
      "type": "event"
    },
    {
      "anonymous": false,
      "inputs": [
        {
          "indexed": false,
          "internalType": "address",
          "name": "sender",
          "type": "address"
        },
        {
          "indexed": false,
          "internalType": "uint256",
          "name": "amount",
          "type": "uint256"
        }
      ],
      "name": "Received",
      "type": "event"
    },
    {
      "anonymous": false,
      "inputs": [
        {
          "indexed": true,
          "internalType": "bytes32",
          "name": "role",
          "type": "bytes32"
        },
        {
          "indexed": true,
          "internalType": "bytes32",
          "name": "previousAdminRole",
          "type": "bytes32"
        },
        {
          "indexed": true,
          "internalType": "bytes32",
          "name": "newAdminRole",
          "type": "bytes32"
        }
      ],
      "name": "RoleAdminChanged",
      "type": "event"
    },
    {
      "anonymous": false,
      "inputs": [
        {
          "indexed": true,
          "internalType": "bytes32",
          "name": "role",
          "type": "bytes32"
        },
        {
          "indexed": true,
          "internalType": "address",
          "name": "account",
          "type": "address"
        },
        {
          "indexed": true,
          "internalType": "address",
          "name": "sender",
          "type": "address"
        }
      ],
      "name": "RoleGranted",
      "type": "event"
    },
    {
      "anonymous": false,
      "inputs": [
        {
          "indexed": true,
          "internalType": "bytes32",
          "name": "role",
          "type": "bytes32"
        },
        {
          "indexed": true,
          "internalType": "address",
          "name": "account",
          "type": "address"
        },
        {
          "indexed": true,
          "internalType": "address",
          "name": "sender",
          "type": "address"
        }
      ],
      "name": "RoleRevoked",
      "type": "event"
    },
    {
      "anonymous": false,
      "inputs": [
        {
          "indexed": true,
          "internalType": "address",
          "name": "from",
          "type": "address"
        },
        {
          "indexed": true,
          "internalType": "address",
          "name": "to",
          "type": "address"
        },
        {
          "indexed": false,
          "internalType": "uint256",
          "name": "amount",
          "type": "uint256"
        }
      ],
      "name": "Transfer",
      "type": "event"
    },
    {
      "inputs": [],
      "name": "DEFAULT_ADMIN_ROLE",
      "outputs": [
        {
          "internalType": "bytes32",
          "name": "",
          "type": "bytes32"
        }
      ],
      "stateMutability": "view",
      "type": "function"
    },
    {
      "inputs": [],
      "name": "MINTER_ROLE",
      "outputs": [
        {
          "internalType": "bytes32",
          "name": "",
          "type": "bytes32"
        }
      ],
      "stateMutability": "view",
      "type": "function"
    },
    {
      "inputs": [
        {
          "internalType": "address",
          "name": "_owner",
          "type": "address"
        },
        {
          "internalType": "address",
          "name": "spender",
          "type": "address"
        }
      ],
      "name": "allowance",
      "outputs": [
        {
          "internalType": "uint256",
          "name": "",
          "type": "uint256"
        }
      ],
      "stateMutability": "view",
      "type": "function"
    },
    {
      "inputs": [
        {
          "internalType": "address",
          "name": "",
          "type": "address"
        },
        {
          "internalType": "address",
          "name": "",
          "type": "address"
        }
      ],
      "name": "allowances",
      "outputs": [
        {
          "internalType": "uint256",
          "name": "",
          "type": "uint256"
        }
      ],
      "stateMutability": "view",
      "type": "function"
    },
    {
      "inputs": [
        {
          "internalType": "address",
          "name": "spender",
          "type": "address"
        },
        {
          "internalType": "uint256",
          "name": "amount",
          "type": "uint256"
        }
      ],
      "name": "approve",
      "outputs": [
        {
          "internalType": "bool",
          "name": "",
          "type": "bool"
        }
      ],
      "stateMutability": "nonpayable",
      "type": "function"
    },
    {
      "inputs": [
        {
          "internalType": "address",
          "name": "account",
          "type": "address"
        }
      ],
      "name": "balanceOf",
      "outputs": [
        {
          "internalType": "uint256",
          "name": "",
          "type": "uint256"
        }
      ],
      "stateMutability": "view",
      "type": "function"
    },
    {
      "inputs": [
        {
          "internalType": "address",
          "name": "",
          "type": "address"
        }
      ],
      "name": "balances",
      "outputs": [
        {
          "internalType": "uint256",
          "name": "",
          "type": "uint256"
        }
      ],
      "stateMutability": "view",
      "type": "function"
    },
    {
      "inputs": [
        {
          "internalType": "uint256",
          "name": "numberOfTokens",
          "type": "uint256"
        }
      ],
      "name": "buyTokens",
      "outputs": [],
      "stateMutability": "payable",
      "type": "function"
    },
    {
      "inputs": [],
      "name": "decimals",
      "outputs": [
        {
          "internalType": "uint256",
          "name": "",
          "type": "uint256"
        }
      ],
      "stateMutability": "pure",
      "type": "function"
    },
    {
      "inputs": [
        {
          "internalType": "bytes32",
          "name": "role",
          "type": "bytes32"
        }
      ],
      "name": "getRoleAdmin",
      "outputs": [
        {
          "internalType": "bytes32",
          "name": "",
          "type": "bytes32"
        }
      ],
      "stateMutability": "view",
      "type": "function"
    },
    {
      "inputs": [
        {
          "internalType": "bytes32",
          "name": "role",
          "type": "bytes32"
        },
        {
          "internalType": "address",
          "name": "account",
          "type": "address"
        }
      ],
      "name": "grantRole",
      "outputs": [],
      "stateMutability": "nonpayable",
      "type": "function"
    },
    {
      "inputs": [
        {
          "internalType": "bytes32",
          "name": "role",
          "type": "bytes32"
        },
        {
          "internalType": "address",
          "name": "account",
          "type": "address"
        }
      ],
      "name": "hasRole",
      "outputs": [
        {
          "internalType": "bool",
          "name": "",
          "type": "bool"
        }
      ],
      "stateMutability": "view",
      "type": "function"
    },
    {
      "inputs": [
        {
          "internalType": "uint256",
          "name": "amount",
          "type": "uint256"
        },
        {
          "internalType": "address",
          "name": "to",
          "type": "address"
        }
      ],
      "name": "mint",
      "outputs": [],
      "stateMutability": "nonpayable",
      "type": "function"
    },
    {
      "inputs": [],
      "name": "name",
      "outputs": [
        {
          "internalType": "string",
          "name": "",
          "type": "string"
        }
      ],
      "stateMutability": "view",
      "type": "function"
    },
    {
      "inputs": [],
      "name": "owner",
      "outputs": [
        {
          "internalType": "address",
          "name": "",
          "type": "address"
        }
      ],
      "stateMutability": "view",
      "type": "function"
    },
    {
      "inputs": [
        {
          "internalType": "bytes32",
          "name": "role",
          "type": "bytes32"
        },
        {
          "internalType": "address",
          "name": "callerConfirmation",
          "type": "address"
        }
      ],
      "name": "renounceRole",
      "outputs": [],
      "stateMutability": "nonpayable",
      "type": "function"
    },
    {
      "inputs": [
        {
          "internalType": "bytes32",
          "name": "role",
          "type": "bytes32"
        },
        {
          "internalType": "address",
          "name": "account",
          "type": "address"
        }
      ],
      "name": "revokeRole",
      "outputs": [],
      "stateMutability": "nonpayable",
      "type": "function"
    },
    {
      "inputs": [
        {
          "internalType": "bytes4",
          "name": "interfaceId",
          "type": "bytes4"
        }
      ],
      "name": "supportsInterface",
      "outputs": [
        {
          "internalType": "bool",
          "name": "",
          "type": "bool"
        }
      ],
      "stateMutability": "view",
      "type": "function"
    },
    {
      "inputs": [],
      "name": "symbol",
      "outputs": [
        {
          "internalType": "string",
          "name": "",
          "type": "string"
        }
      ],
      "stateMutability": "view",
      "type": "function"
    },
    {
      "inputs": [],
      "name": "tokenPrice",
      "outputs": [
        {
          "internalType": "uint256",
          "name": "",
          "type": "uint256"
        }
      ],
      "stateMutability": "view",
      "type": "function"
    },
    {
      "inputs": [],
      "name": "tokenSwap",
      "outputs": [
        {
          "internalType": "address",
          "name": "",
          "type": "address"
        }
      ],
      "stateMutability": "view",
      "type": "function"
    },
    {
      "inputs": [],
      "name": "tokensSold",
      "outputs": [
        {
          "internalType": "uint256",
          "name": "",
          "type": "uint256"
        }
      ],
      "stateMutability": "view",
      "type": "function"
    },
    {
      "inputs": [],
      "name": "totalSupply",
      "outputs": [
        {
          "internalType": "uint256",
          "name": "",
          "type": "uint256"
        }
      ],
      "stateMutability": "view",
      "type": "function"
    },
    {
      "inputs": [],
      "name": "totalTokens",
      "outputs": [
        {
          "internalType": "uint256",
          "name": "",
          "type": "uint256"
        }
      ],
      "stateMutability": "view",
      "type": "function"
    },
    {
      "inputs": [
        {
          "internalType": "address",
          "name": "to",
          "type": "address"
        },
        {
          "internalType": "uint256",
          "name": "amount",
          "type": "uint256"
        }
      ],
      "name": "transfer",
      "outputs": [
        {
          "internalType": "bool",
          "name": "",
          "type": "bool"
        }
      ],
      "stateMutability": "nonpayable",
      "type": "function"
    },
    {
      "inputs": [
        {
          "internalType": "address",
          "name": "sender",
          "type": "address"
        },
        {
          "internalType": "address",
          "name": "recipient",
          "type": "address"
        },
        {
          "internalType": "uint256",
          "name": "amount",
          "type": "uint256"
        }
      ],
      "name": "transferFrom",
      "outputs": [
        {
          "internalType": "bool",
          "name": "",
          "type": "bool"
        }
      ],
      "stateMutability": "nonpayable",
      "type": "function"
    },
    {
      "stateMutability": "payable",
      "type": "receive"
    }
  ],
  "bytecode": "0x608060405234801561001057600080fd5b50604051612cff380380612cff833981810160405281019061003291906105dc565b6040518060400160405280600681526020017f41546f6b656e00000000000000000000000000000000000000000000000000008152506040518060400160405280600181526020017f410000000000000000000000000000000000000000000000000000000000000081525060008483600590816100b09190610862565b5082600690816100c09190610862565b5033600160006101000a81548173ffffffffffffffffffffffffffffffffffffffff021916908373ffffffffffffffffffffffffffffffffffffffff1602179055506101156000801b336101fd60201b60201c565b506101467f9f2df0fed2c77648de5860a4cc508cd0818c85b8b8a1ab4ceeef8d981c8956a6336101fd60201b60201c565b5061015782826102fa60201b60201c565b505050508060078190555081600960006101000a81548173ffffffffffffffffffffffffffffffffffffffff021916908373ffffffffffffffffffffffffffffffffffffffff1602179055506101f57f9f2df0fed2c77648de5860a4cc508cd0818c85b8b8a1ab4ceeef8d981c8956a6600960009054906101000a900473ffffffffffffffffffffffffffffffffffffffff166101fd60201b60201c565b505050610aaa565b600061020f83836103e560201b60201c565b6102ef57600160008085815260200190815260200160002060000160008473ffffffffffffffffffffffffffffffffffffffff1673ffffffffffffffffffffffffffffffffffffffff16815260200190815260200160002060006101000a81548160ff02191690831515021790555061028c61044f60201b60201c565b73ffffffffffffffffffffffffffffffffffffffff168273ffffffffffffffffffffffffffffffffffffffff16847f2f8788117e7eff1d82e926ec794901d17c78024a50270940304540a733656f0d60405160405180910390a4600190506102f4565b600090505b92915050565b61030c6000828461045760201b60201c565b816002600082825461031e9190610963565b9250508190555081600360008373ffffffffffffffffffffffffffffffffffffffff1673ffffffffffffffffffffffffffffffffffffffff16815260200190815260200160002060008282546103749190610963565b925050819055508073ffffffffffffffffffffffffffffffffffffffff16600073ffffffffffffffffffffffffffffffffffffffff167fddf252ad1be2c89b69c2b068fc378daa952ba7f163c4a11628f55a4df523b3ef846040516103d991906109a6565b60405180910390a35050565b600080600084815260200190815260200160002060000160008373ffffffffffffffffffffffffffffffffffffffff1673ffffffffffffffffffffffffffffffffffffffff16815260200190815260200160002060009054906101000a900460ff16905092915050565b600033905090565b600073ffffffffffffffffffffffffffffffffffffffff168373ffffffffffffffffffffffffffffffffffffffff16146104cf57600081116104ce576040517f08c379a00000000000000000000000000000000000000000000000000000000081526004016104c590610a1e565b60405180910390fd5b5b600073ffffffffffffffffffffffffffffffffffffffff168273ffffffffffffffffffffffffffffffffffffffff160361053e576040517f08c379a000000000000000000000000000000000000000000000000000000000815260040161053590610a8a565b60405180910390fd5b505050565b600080fd5b600073ffffffffffffffffffffffffffffffffffffffff82169050919050565b600061057382610548565b9050919050565b61058381610568565b811461058e57600080fd5b50565b6000815190506105a08161057a565b92915050565b6000819050919050565b6105b9816105a6565b81146105c457600080fd5b50565b6000815190506105d6816105b0565b92915050565b600080604083850312156105f3576105f2610543565b5b600061060185828601610591565b9250506020610612858286016105c7565b9150509250929050565b600081519050919050565b7f4e487b7100000000000000000000000000000000000000000000000000000000600052604160045260246000fd5b7f4e487b7100000000000000000000000000000000000000000000000000000000600052602260045260246000fd5b6000600282049050600182168061069d57607f821691505b6020821081036106b0576106af610656565b5b50919050565b60008190508160005260206000209050919050565b60006020601f8301049050919050565b600082821b905092915050565b6000600883026107187fffffffffffffffffffffffffffffffffffffffffffffffffffffffffffffffff826106db565b61072286836106db565b95508019841693508086168417925050509392505050565b6000819050919050565b600061075f61075a610755846105a6565b61073a565b6105a6565b9050919050565b6000819050919050565b61077983610744565b61078d61078582610766565b8484546106e8565b825550505050565b600090565b6107a2610795565b6107ad818484610770565b505050565b5b818110156107d1576107c660008261079a565b6001810190506107b3565b5050565b601f821115610816576107e7816106b6565b6107f0846106cb565b810160208510156107ff578190505b61081361080b856106cb565b8301826107b2565b50505b505050565b600082821c905092915050565b60006108396000198460080261081b565b1980831691505092915050565b60006108528383610828565b9150826002028217905092915050565b61086b8261061c565b67ffffffffffffffff81111561088457610883610627565b5b61088e8254610685565b6108998282856107d5565b600060209050601f8311600181146108cc57600084156108ba578287015190505b6108c48582610846565b86555061092c565b601f1984166108da866106b6565b60005b82811015610902578489015182556001820191506020850194506020810190506108dd565b8683101561091f578489015161091b601f891682610828565b8355505b6001600288020188555050505b505050505050565b7f4e487b7100000000000000000000000000000000000000000000000000000000600052601160045260246000fd5b600061096e826105a6565b9150610979836105a6565b925082820190508082111561099157610990610934565b5b92915050565b6109a0816105a6565b82525050565b60006020820190506109bb6000830184610997565b92915050565b600082825260208201905092915050565b7f6e6f7420656e6f75676820746f6b656e73000000000000000000000000000000600082015250565b6000610a086011836109c1565b9150610a13826109d2565b602082019050919050565b60006020820190508181036000830152610a37816109fb565b9050919050565b7f696e76616c696420616464726573730000000000000000000000000000000000600082015250565b6000610a74600f836109c1565b9150610a7f82610a3e565b602082019050919050565b60006020820190508181036000830152610aa381610a67565b9050919050565b61224680610ab96000396000f3fe6080604052600436106101855760003560e01c806370a08231116100d157806395d89b411161008a578063a9059cbb11610064578063a9059cbb146105f7578063d539139314610634578063d547741f1461065f578063dd62ed3e14610688576101c5565b806395d89b41146105765780639653dee5146105a1578063a217fddf146105cc576101c5565b806370a08231146104525780637e1c0c091461048f5780637ff9b596146104ba5780638da5cb5b146104e557806391d148541461051057806394bf804d1461054d576101c5565b806327e235e31161013e5780633610724e116101185780633610724e146103a557806336568abe146103c1578063518ab2a8146103ea57806355b6ed5c14610415576101c5565b806327e235e3146103145780632f2ff15d14610351578063313ce5671461037a576101c5565b806301ffc9a7146101ca57806306fdde0314610207578063095ea7b31461023257806318160ddd1461026f57806323b872dd1461029a578063248a9ca3146102d7576101c5565b366101c5577f88a5966d370b9919b20f3e2c13ff65706f196a4e32cc2c12bf57088f8852587433346040516101bb9291906117dd565b60405180910390a1005b600080fd5b3480156101d657600080fd5b506101f160048036038101906101ec9190611863565b6106c5565b6040516101fe91906118ab565b60405180910390f35b34801561021357600080fd5b5061021c61073f565b6040516102299190611956565b60405180910390f35b34801561023e57600080fd5b50610259600480360381019061025491906119d0565b6107d1565b60405161026691906118ab565b60405180910390f35b34801561027b57600080fd5b506102846107e8565b6040516102919190611a10565b60405180910390f35b3480156102a657600080fd5b506102c160048036038101906102bc9190611a2b565b6107f2565b6040516102ce91906118ab565b60405180910390f35b3480156102e357600080fd5b506102fe60048036038101906102f99190611ab4565b610a6d565b60405161030b9190611af0565b60405180910390f35b34801561032057600080fd5b5061033b60048036038101906103369190611b0b565b610a8c565b6040516103489190611a10565b60405180910390f35b34801561035d57600080fd5b5061037860048036038101906103739190611b38565b610aa4565b005b34801561038657600080fd5b5061038f610ac6565b60405161039c9190611a10565b60405180910390f35b6103bf60048036038101906103ba9190611b78565b610acf565b005b3480156103cd57600080fd5b506103e860048036038101906103e39190611b38565b610c25565b005b3480156103f657600080fd5b506103ff610ca0565b60405161040c9190611a10565b60405180910390f35b34801561042157600080fd5b5061043c60048036038101906104379190611ba5565b610ca6565b6040516104499190611a10565b60405180910390f35b34801561045e57600080fd5b5061047960048036038101906104749190611b0b565b610ccb565b6040516104869190611a10565b60405180910390f35b34801561049b57600080fd5b506104a4610d14565b6040516104b19190611a10565b60405180910390f35b3480156104c657600080fd5b506104cf610d1a565b6040516104dc9190611a10565b60405180910390f35b3480156104f157600080fd5b506104fa610d20565b6040516105079190611be5565b60405180910390f35b34801561051c57600080fd5b5061053760048036038101906105329190611b38565b610d46565b60405161054491906118ab565b60405180910390f35b34801561055957600080fd5b50610574600480360381019061056f9190611c00565b610db0565b005b34801561058257600080fd5b5061058b610de9565b6040516105989190611956565b60405180910390f35b3480156105ad57600080fd5b506105b6610e7b565b6040516105c39190611be5565b60405180910390f35b3480156105d857600080fd5b506105e1610ea1565b6040516105ee9190611af0565b60405180910390f35b34801561060357600080fd5b5061061e600480360381019061061991906119d0565b610ea8565b60405161062b91906118ab565b60405180910390f35b34801561064057600080fd5b5061064961101f565b6040516106569190611af0565b60405180910390f35b34801561066b57600080fd5b5061068660048036038101906106819190611b38565b611043565b005b34801561069457600080fd5b506106af60048036038101906106aa9190611ba5565b611065565b6040516106bc9190611a10565b60405180910390f35b60007f7965db0b000000000000000000000000000000000000000000000000000000007bffffffffffffffffffffffffffffffffffffffffffffffffffffffff1916827bffffffffffffffffffffffffffffffffffffffffffffffffffffffff191614806107385750610737826110ec565b5b9050919050565b60606005805461074e90611c6f565b80601f016020809104026020016040519081016040528092919081815260200182805461077a90611c6f565b80156107c75780601f1061079c576101008083540402835291602001916107c7565b820191906000526020600020905b8154815290600101906020018083116107aa57829003601f168201915b5050505050905090565b60006107de338484611156565b6001905092915050565b6000600254905090565b600081600460008673ffffffffffffffffffffffffffffffffffffffff1673ffffffffffffffffffffffffffffffffffffffff16815260200190815260200160002060003373ffffffffffffffffffffffffffffffffffffffff1673ffffffffffffffffffffffffffffffffffffffff1681526020019081526020016000205410156108b3576040517f08c379a00000000000000000000000000000000000000000000000000000000081526004016108aa90611cec565b60405180910390fd5b6108be848484611241565b81600460008673ffffffffffffffffffffffffffffffffffffffff1673ffffffffffffffffffffffffffffffffffffffff16815260200190815260200160002060003373ffffffffffffffffffffffffffffffffffffffff1673ffffffffffffffffffffffffffffffffffffffff168152602001908152602001600020600082825461094a9190611d3b565b9250508190555081600360008673ffffffffffffffffffffffffffffffffffffffff1673ffffffffffffffffffffffffffffffffffffffff16815260200190815260200160002060008282546109a09190611d3b565b9250508190555081600360008573ffffffffffffffffffffffffffffffffffffffff1673ffffffffffffffffffffffffffffffffffffffff16815260200190815260200160002060008282546109f69190611d6f565b925050819055508273ffffffffffffffffffffffffffffffffffffffff168473ffffffffffffffffffffffffffffffffffffffff167fddf252ad1be2c89b69c2b068fc378daa952ba7f163c4a11628f55a4df523b3ef84604051610a5a9190611a10565b60405180910390a3600190509392505050565b6000806000838152602001908152602001600020600101549050919050565b60036020528060005260406000206000915090505481565b610aad82610a6d565b610ab68161132d565b610ac08383611341565b50505050565b60006012905090565b6000610ad9610ac6565b600a610ae59190611ed6565b82610af09190611f21565b905081600754610b009190611f21565b3414610b41576040517f08c379a0000000000000000000000000000000000000000000000000000000008152600401610b3890611faf565b60405180910390fd5b803073ffffffffffffffffffffffffffffffffffffffff166370a08231306040518263ffffffff1660e01b8152600401610b7b9190611be5565b602060405180830381865afa158015610b98573d6000803e3d6000fd5b505050506040513d601f19601f82011682018060405250810190610bbc9190611fe4565b1015610bfd576040517f08c379a0000000000000000000000000000000000000000000000000000000008152600401610bf49061205d565b60405180910390fd5b610c08303383611432565b8060086000828254610c1a9190611d6f565b925050819055505050565b610c2d611553565b73ffffffffffffffffffffffffffffffffffffffff168173ffffffffffffffffffffffffffffffffffffffff1614610c91576040517f6697b23200000000000000000000000000000000000000000000000000000000815260040160405180910390fd5b610c9b828261155b565b505050565b60085481565b6004602052816000526040600020602052806000526040600020600091509150505481565b6000600360008373ffffffffffffffffffffffffffffffffffffffff1673ffffffffffffffffffffffffffffffffffffffff168152602001908152602001600020549050919050565b60025481565b60075481565b600160009054906101000a900473ffffffffffffffffffffffffffffffffffffffff1681565b600080600084815260200190815260200160002060000160008373ffffffffffffffffffffffffffffffffffffffff1673ffffffffffffffffffffffffffffffffffffffff16815260200190815260200160002060009054906101000a900460ff16905092915050565b7f9f2df0fed2c77648de5860a4cc508cd0818c85b8b8a1ab4ceeef8d981c8956a6610dda8161132d565b610de4838361164d565b505050565b606060068054610df890611c6f565b80601f0160208091040260200160405190810160405280929190818152602001828054610e2490611c6f565b8015610e715780601f10610e4657610100808354040283529160200191610e71565b820191906000526020600020905b815481529060010190602001808311610e5457829003601f168201915b5050505050905090565b600960009054906101000a900473ffffffffffffffffffffffffffffffffffffffff1681565b6000801b81565b6000338280610eb683610ccb565b1015610ef7576040517f08c379a0000000000000000000000000000000000000000000000000000000008152600401610eee906120ef565b60405180910390fd5b610f02338686611241565b83600360003373ffffffffffffffffffffffffffffffffffffffff1673ffffffffffffffffffffffffffffffffffffffff1681526020019081526020016000206000828254610f519190611d3b565b9250508190555083600360008773ffffffffffffffffffffffffffffffffffffffff1673ffffffffffffffffffffffffffffffffffffffff1681526020019081526020016000206000828254610fa79190611d6f565b925050819055508473ffffffffffffffffffffffffffffffffffffffff163373ffffffffffffffffffffffffffffffffffffffff167fddf252ad1be2c89b69c2b068fc378daa952ba7f163c4a11628f55a4df523b3ef8660405161100b9190611a10565b60405180910390a360019250505092915050565b7f9f2df0fed2c77648de5860a4cc508cd0818c85b8b8a1ab4ceeef8d981c8956a681565b61104c82610a6d565b6110558161132d565b61105f838361155b565b50505050565b6000600460008473ffffffffffffffffffffffffffffffffffffffff1673ffffffffffffffffffffffffffffffffffffffff16815260200190815260200160002060008373ffffffffffffffffffffffffffffffffffffffff1673ffffffffffffffffffffffffffffffffffffffff16815260200190815260200160002054905092915050565b60007f01ffc9a7000000000000000000000000000000000000000000000000000000007bffffffffffffffffffffffffffffffffffffffffffffffffffffffff1916827bffffffffffffffffffffffffffffffffffffffffffffffffffffffff1916149050919050565b80600460008573ffffffffffffffffffffffffffffffffffffffff1673ffffffffffffffffffffffffffffffffffffffff16815260200190815260200160002060008473ffffffffffffffffffffffffffffffffffffffff1673ffffffffffffffffffffffffffffffffffffffff168152602001908152602001600020819055508173ffffffffffffffffffffffffffffffffffffffff168373ffffffffffffffffffffffffffffffffffffffff167f8c5be1e5ebec7d5bd14f71427d1e84f3dd0314c0f7b2291e5b200ac8c7c3b925836040516112349190611a10565b60405180910390a3505050565b600073ffffffffffffffffffffffffffffffffffffffff168373ffffffffffffffffffffffffffffffffffffffff16146112b957600081116112b8576040517f08c379a00000000000000000000000000000000000000000000000000000000081526004016112af9061215b565b60405180910390fd5b5b600073ffffffffffffffffffffffffffffffffffffffff168273ffffffffffffffffffffffffffffffffffffffff1603611328576040517f08c379a000000000000000000000000000000000000000000000000000000000815260040161131f906121c7565b60405180910390fd5b505050565b61133e81611339611553565b611732565b50565b600061134d8383610d46565b61142757600160008085815260200190815260200160002060000160008473ffffffffffffffffffffffffffffffffffffffff1673ffffffffffffffffffffffffffffffffffffffff16815260200190815260200160002060006101000a81548160ff0219169083151502179055506113c4611553565b73ffffffffffffffffffffffffffffffffffffffff168273ffffffffffffffffffffffffffffffffffffffff16847f2f8788117e7eff1d82e926ec794901d17c78024a50270940304540a733656f0d60405160405180910390a46001905061142c565b600090505b92915050565b61143d838383611241565b80600360008573ffffffffffffffffffffffffffffffffffffffff1673ffffffffffffffffffffffffffffffffffffffff168152602001908152602001600020600082825461148c9190611d3b565b9250508190555080600360008473ffffffffffffffffffffffffffffffffffffffff1673ffffffffffffffffffffffffffffffffffffffff16815260200190815260200160002060008282546114e29190611d6f565b925050819055508173ffffffffffffffffffffffffffffffffffffffff168373ffffffffffffffffffffffffffffffffffffffff167fddf252ad1be2c89b69c2b068fc378daa952ba7f163c4a11628f55a4df523b3ef836040516115469190611a10565b60405180910390a3505050565b600033905090565b60006115678383610d46565b1561164257600080600085815260200190815260200160002060000160008473ffffffffffffffffffffffffffffffffffffffff1673ffffffffffffffffffffffffffffffffffffffff16815260200190815260200160002060006101000a81548160ff0219169083151502179055506115df611553565b73ffffffffffffffffffffffffffffffffffffffff168273ffffffffffffffffffffffffffffffffffffffff16847ff6391f5c32d9c69d2a47ea670b442974b53935d1edc7fd64eb21e047a839171b60405160405180910390a460019050611647565b600090505b92915050565b61165960008284611241565b816002600082825461166b9190611d6f565b9250508190555081600360008373ffffffffffffffffffffffffffffffffffffffff1673ffffffffffffffffffffffffffffffffffffffff16815260200190815260200160002060008282546116c19190611d6f565b925050819055508073ffffffffffffffffffffffffffffffffffffffff16600073ffffffffffffffffffffffffffffffffffffffff167fddf252ad1be2c89b69c2b068fc378daa952ba7f163c4a11628f55a4df523b3ef846040516117269190611a10565b60405180910390a35050565b61173c8282610d46565b61177f5780826040517fe2517d3f0000000000000000000000000000000000000000000000000000000081526004016117769291906121e7565b60405180910390fd5b5050565b600073ffffffffffffffffffffffffffffffffffffffff82169050919050565b60006117ae82611783565b9050919050565b6117be816117a3565b82525050565b6000819050919050565b6117d7816117c4565b82525050565b60006040820190506117f260008301856117b5565b6117ff60208301846117ce565b9392505050565b600080fd5b60007fffffffff0000000000000000000000000000000000000000000000000000000082169050919050565b6118408161180b565b811461184b57600080fd5b50565b60008135905061185d81611837565b92915050565b60006020828403121561187957611878611806565b5b60006118878482850161184e565b91505092915050565b60008115159050919050565b6118a581611890565b82525050565b60006020820190506118c0600083018461189c565b92915050565b600081519050919050565b600082825260208201905092915050565b60005b838110156119005780820151818401526020810190506118e5565b60008484015250505050565b6000601f19601f8301169050919050565b6000611928826118c6565b61193281856118d1565b93506119428185602086016118e2565b61194b8161190c565b840191505092915050565b60006020820190508181036000830152611970818461191d565b905092915050565b611981816117a3565b811461198c57600080fd5b50565b60008135905061199e81611978565b92915050565b6119ad816117c4565b81146119b857600080fd5b50565b6000813590506119ca816119a4565b92915050565b600080604083850312156119e7576119e6611806565b5b60006119f58582860161198f565b9250506020611a06858286016119bb565b9150509250929050565b6000602082019050611a2560008301846117ce565b92915050565b600080600060608486031215611a4457611a43611806565b5b6000611a528682870161198f565b9350506020611a638682870161198f565b9250506040611a74868287016119bb565b9150509250925092565b6000819050919050565b611a9181611a7e565b8114611a9c57600080fd5b50565b600081359050611aae81611a88565b92915050565b600060208284031215611aca57611ac9611806565b5b6000611ad884828501611a9f565b91505092915050565b611aea81611a7e565b82525050565b6000602082019050611b056000830184611ae1565b92915050565b600060208284031215611b2157611b20611806565b5b6000611b2f8482850161198f565b91505092915050565b60008060408385031215611b4f57611b4e611806565b5b6000611b5d85828601611a9f565b9250506020611b6e8582860161198f565b9150509250929050565b600060208284031215611b8e57611b8d611806565b5b6000611b9c848285016119bb565b91505092915050565b60008060408385031215611bbc57611bbb611806565b5b6000611bca8582860161198f565b9250506020611bdb8582860161198f565b9150509250929050565b6000602082019050611bfa60008301846117b5565b92915050565b60008060408385031215611c1757611c16611806565b5b6000611c25858286016119bb565b9250506020611c368582860161198f565b9150509250929050565b7f4e487b7100000000000000000000000000000000000000000000000000000000600052602260045260246000fd5b60006002820490506001821680611c8757607f821691505b602082108103611c9a57611c99611c40565b5b50919050565b7f416c6c6f77616e636520746f6f206c6f77000000000000000000000000000000600082015250565b6000611cd66011836118d1565b9150611ce182611ca0565b602082019050919050565b60006020820190508181036000830152611d0581611cc9565b9050919050565b7f4e487b7100000000000000000000000000000000000000000000000000000000600052601160045260246000fd5b6000611d46826117c4565b9150611d51836117c4565b9250828203905081811115611d6957611d68611d0c565b5b92915050565b6000611d7a826117c4565b9150611d85836117c4565b9250828201905080821115611d9d57611d9c611d0c565b5b92915050565b60008160011c9050919050565b6000808291508390505b6001851115611dfa57808604811115611dd657611dd5611d0c565b5b6001851615611de55780820291505b8081029050611df385611da3565b9450611dba565b94509492505050565b600082611e135760019050611ecf565b81611e215760009050611ecf565b8160018114611e375760028114611e4157611e70565b6001915050611ecf565b60ff841115611e5357611e52611d0c565b5b8360020a915084821115611e6a57611e69611d0c565b5b50611ecf565b5060208310610133831016604e8410600b8410161715611ea55782820a905083811115611ea057611e9f611d0c565b5b611ecf565b611eb28484846001611db0565b92509050818404811115611ec957611ec8611d0c565b5b81810290505b9392505050565b6000611ee1826117c4565b9150611eec836117c4565b9250611f197fffffffffffffffffffffffffffffffffffffffffffffffffffffffffffffffff8484611e03565b905092915050565b6000611f2c826117c4565b9150611f37836117c4565b9250828202611f45816117c4565b91508282048414831517611f5c57611f5b611d0c565b5b5092915050565b7f496e636f72726563742045544820616d6f756e742073656e7400000000000000600082015250565b6000611f996019836118d1565b9150611fa482611f63565b602082019050919050565b60006020820190508181036000830152611fc881611f8c565b9050919050565b600081519050611fde816119a4565b92915050565b600060208284031215611ffa57611ff9611806565b5b600061200884828501611fcf565b91505092915050565b7f4e6f7420656e6f75676820746f6b656e73000000000000000000000000000000600082015250565b60006120476011836118d1565b915061205282612011565b602082019050919050565b600060208201905081810360008301526120768161203a565b9050919050565b7f596f75206861766520746f6f206c6f7720616d6f756e74206f6620746f6b656e60008201527f7300000000000000000000000000000000000000000000000000000000000000602082015250565b60006120d96021836118d1565b91506120e48261207d565b604082019050919050565b60006020820190508181036000830152612108816120cc565b9050919050565b7f6e6f7420656e6f75676820746f6b656e73000000000000000000000000000000600082015250565b60006121456011836118d1565b91506121508261210f565b602082019050919050565b6000602082019050818103600083015261217481612138565b9050919050565b7f696e76616c696420616464726573730000000000000000000000000000000000600082015250565b60006121b1600f836118d1565b91506121bc8261217b565b602082019050919050565b600060208201905081810360008301526121e0816121a4565b9050919050565b60006040820190506121fc60008301856117b5565b6122096020830184611ae1565b939250505056fea2646970667358221220d6ac20cbbfedd54e08b5c1b2c0a4d64b845dd99895f6ef3a34d93225e5e7b27164736f6c634300081d0033",
  "linkReferences": {},
  "deployedLinkReferences": {}
}