{
  "_format": "hh-sol-artifact-1",
  "contractName": "AToken",
  "sourceName": "contracts/AToken.sol",
  "abi": [
    {
      "inputs": [
        {
          "internalType": "address",
          "name": "_initialMinterAndAdmin",
          "type": "address"
        },
        {
          "internalType": "uint256",
          "name": "_tokenPrice",
          "type": "uint256"
        }
      ],
      "stateMutability": "nonpayable",
      "type": "constructor"
    },
    {
      "inputs": [],
      "name": "AccessControlBadConfirmation",
      "type": "error"
    },
    {
      "inputs": [
        {
          "internalType": "address",
          "name": "account",
          "type": "address"
        },
        {
          "internalType": "bytes32",
          "name": "neededRole",
          "type": "bytes32"
        }
      ],
      "name": "AccessControlUnauthorizedAccount",
      "type": "error"
    },
    {
      "anonymous": false,
      "inputs": [
        {
          "indexed": true,
          "internalType": "address",
          "name": "owner",
          "type": "address"
        },
        {
          "indexed": true,
          "internalType": "address",
          "name": "spender",
          "type": "address"
        },
        {
          "indexed": false,
          "internalType": "uint256",
          "name": "amount",
          "type": "uint256"
        }
      ],
      "name": "Approval",
      "type": "event"
    },
    {
      "anonymous": false,
      "inputs": [
        {
          "indexed": false,
          "internalType": "address",
          "name": "sender",
          "type": "address"
        },
        {
          "indexed": false,
          "internalType": "uint256",
          "name": "amount",
          "type": "uint256"
        }
      ],
      "name": "Received",
      "type": "event"
    },
    {
      "anonymous": false,
      "inputs": [
        {
          "indexed": true,
          "internalType": "bytes32",
          "name": "role",
          "type": "bytes32"
        },
        {
          "indexed": true,
          "internalType": "bytes32",
          "name": "previousAdminRole",
          "type": "bytes32"
        },
        {
          "indexed": true,
          "internalType": "bytes32",
          "name": "newAdminRole",
          "type": "bytes32"
        }
      ],
      "name": "RoleAdminChanged",
      "type": "event"
    },
    {
      "anonymous": false,
      "inputs": [
        {
          "indexed": true,
          "internalType": "bytes32",
          "name": "role",
          "type": "bytes32"
        },
        {
          "indexed": true,
          "internalType": "address",
          "name": "account",
          "type": "address"
        },
        {
          "indexed": true,
          "internalType": "address",
          "name": "sender",
          "type": "address"
        }
      ],
      "name": "RoleGranted",
      "type": "event"
    },
    {
      "anonymous": false,
      "inputs": [
        {
          "indexed": true,
          "internalType": "bytes32",
          "name": "role",
          "type": "bytes32"
        },
        {
          "indexed": true,
          "internalType": "address",
          "name": "account",
          "type": "address"
        },
        {
          "indexed": true,
          "internalType": "address",
          "name": "sender",
          "type": "address"
        }
      ],
      "name": "RoleRevoked",
      "type": "event"
    },
    {
      "anonymous": false,
      "inputs": [
        {
          "indexed": true,
          "internalType": "address",
          "name": "from",
          "type": "address"
        },
        {
          "indexed": true,
          "internalType": "address",
          "name": "to",
          "type": "address"
        },
        {
          "indexed": false,
          "internalType": "uint256",
          "name": "amount",
          "type": "uint256"
        }
      ],
      "name": "Transfer",
      "type": "event"
    },
    {
      "inputs": [],
      "name": "DEFAULT_ADMIN_ROLE",
      "outputs": [
        {
          "internalType": "bytes32",
          "name": "",
          "type": "bytes32"
        }
      ],
      "stateMutability": "view",
      "type": "function"
    },
    {
      "inputs": [],
      "name": "MINTER_ROLE",
      "outputs": [
        {
          "internalType": "bytes32",
          "name": "",
          "type": "bytes32"
        }
      ],
      "stateMutability": "view",
      "type": "function"
    },
    {
      "inputs": [
        {
          "internalType": "address",
          "name": "_owner",
          "type": "address"
        },
        {
          "internalType": "address",
          "name": "spender",
          "type": "address"
        }
      ],
      "name": "allowance",
      "outputs": [
        {
          "internalType": "uint256",
          "name": "",
          "type": "uint256"
        }
      ],
      "stateMutability": "view",
      "type": "function"
    },
    {
      "inputs": [
        {
          "internalType": "address",
          "name": "",
          "type": "address"
        },
        {
          "internalType": "address",
          "name": "",
          "type": "address"
        }
      ],
      "name": "allowances",
      "outputs": [
        {
          "internalType": "uint256",
          "name": "",
          "type": "uint256"
        }
      ],
      "stateMutability": "view",
      "type": "function"
    },
    {
      "inputs": [
        {
          "internalType": "address",
          "name": "spender",
          "type": "address"
        },
        {
          "internalType": "uint256",
          "name": "amount",
          "type": "uint256"
        }
      ],
      "name": "approve",
      "outputs": [
        {
          "internalType": "bool",
          "name": "",
          "type": "bool"
        }
      ],
      "stateMutability": "nonpayable",
      "type": "function"
    },
    {
      "inputs": [
        {
          "internalType": "address",
          "name": "account",
          "type": "address"
        }
      ],
      "name": "balanceOf",
      "outputs": [
        {
          "internalType": "uint256",
          "name": "",
          "type": "uint256"
        }
      ],
      "stateMutability": "view",
      "type": "function"
    },
    {
      "inputs": [
        {
          "internalType": "address",
          "name": "",
          "type": "address"
        }
      ],
      "name": "balances",
      "outputs": [
        {
          "internalType": "uint256",
          "name": "",
          "type": "uint256"
        }
      ],
      "stateMutability": "view",
      "type": "function"
    },
    {
      "inputs": [
        {
          "internalType": "uint256",
          "name": "numberOfTokens",
          "type": "uint256"
        }
      ],
      "name": "buyTokens",
      "outputs": [],
      "stateMutability": "payable",
      "type": "function"
    },
    {
      "inputs": [],
      "name": "decimals",
      "outputs": [
        {
          "internalType": "uint256",
          "name": "",
          "type": "uint256"
        }
      ],
      "stateMutability": "pure",
      "type": "function"
    },
    {
      "inputs": [
        {
          "internalType": "bytes32",
          "name": "role",
          "type": "bytes32"
        }
      ],
      "name": "getRoleAdmin",
      "outputs": [
        {
          "internalType": "bytes32",
          "name": "",
          "type": "bytes32"
        }
      ],
      "stateMutability": "view",
      "type": "function"
    },
    {
      "inputs": [
        {
          "internalType": "bytes32",
          "name": "role",
          "type": "bytes32"
        },
        {
          "internalType": "address",
          "name": "account",
          "type": "address"
        }
      ],
      "name": "grantRole",
      "outputs": [],
      "stateMutability": "nonpayable",
      "type": "function"
    },
    {
      "inputs": [
        {
          "internalType": "bytes32",
          "name": "role",
          "type": "bytes32"
        },
        {
          "internalType": "address",
          "name": "account",
          "type": "address"
        }
      ],
      "name": "hasRole",
      "outputs": [
        {
          "internalType": "bool",
          "name": "",
          "type": "bool"
        }
      ],
      "stateMutability": "view",
      "type": "function"
    },
    {
      "inputs": [
        {
          "internalType": "uint256",
          "name": "amount",
          "type": "uint256"
        },
        {
          "internalType": "address",
          "name": "to",
          "type": "address"
        }
      ],
      "name": "mint",
      "outputs": [],
      "stateMutability": "nonpayable",
      "type": "function"
    },
    {
      "inputs": [],
      "name": "name",
      "outputs": [
        {
          "internalType": "string",
          "name": "",
          "type": "string"
        }
      ],
      "stateMutability": "view",
      "type": "function"
    },
    {
      "inputs": [],
      "name": "owner",
      "outputs": [
        {
          "internalType": "address",
          "name": "",
          "type": "address"
        }
      ],
      "stateMutability": "view",
      "type": "function"
    },
    {
      "inputs": [
        {
          "internalType": "bytes32",
          "name": "role",
          "type": "bytes32"
        },
        {
          "internalType": "address",
          "name": "callerConfirmation",
          "type": "address"
        }
      ],
      "name": "renounceRole",
      "outputs": [],
      "stateMutability": "nonpayable",
      "type": "function"
    },
    {
      "inputs": [
        {
          "internalType": "bytes32",
          "name": "role",
          "type": "bytes32"
        },
        {
          "internalType": "address",
          "name": "account",
          "type": "address"
        }
      ],
      "name": "revokeRole",
      "outputs": [],
      "stateMutability": "nonpayable",
      "type": "function"
    },
    {
      "inputs": [
        {
          "internalType": "address",
          "name": "_tokenSwapAddress",
          "type": "address"
        }
      ],
      "name": "setTokenSwapAddress",
      "outputs": [],
      "stateMutability": "nonpayable",
      "type": "function"
    },
    {
      "inputs": [
        {
          "internalType": "bytes4",
          "name": "interfaceId",
          "type": "bytes4"
        }
      ],
      "name": "supportsInterface",
      "outputs": [
        {
          "internalType": "bool",
          "name": "",
          "type": "bool"
        }
      ],
      "stateMutability": "view",
      "type": "function"
    },
    {
      "inputs": [],
      "name": "symbol",
      "outputs": [
        {
          "internalType": "string",
          "name": "",
          "type": "string"
        }
      ],
      "stateMutability": "view",
      "type": "function"
    },
    {
      "inputs": [],
      "name": "tokenPrice",
      "outputs": [
        {
          "internalType": "uint256",
          "name": "",
          "type": "uint256"
        }
      ],
      "stateMutability": "view",
      "type": "function"
    },
    {
      "inputs": [],
      "name": "tokenSwap",
      "outputs": [
        {
          "internalType": "address",
          "name": "",
          "type": "address"
        }
      ],
      "stateMutability": "view",
      "type": "function"
    },
    {
      "inputs": [],
      "name": "tokensSold",
      "outputs": [
        {
          "internalType": "uint256",
          "name": "",
          "type": "uint256"
        }
      ],
      "stateMutability": "view",
      "type": "function"
    },
    {
      "inputs": [],
      "name": "totalSupply",
      "outputs": [
        {
          "internalType": "uint256",
          "name": "",
          "type": "uint256"
        }
      ],
      "stateMutability": "view",
      "type": "function"
    },
    {
      "inputs": [],
      "name": "totalTokens",
      "outputs": [
        {
          "internalType": "uint256",
          "name": "",
          "type": "uint256"
        }
      ],
      "stateMutability": "view",
      "type": "function"
    },
    {
      "inputs": [
        {
          "internalType": "address",
          "name": "to",
          "type": "address"
        },
        {
          "internalType": "uint256",
          "name": "amount",
          "type": "uint256"
        }
      ],
      "name": "transfer",
      "outputs": [
        {
          "internalType": "bool",
          "name": "",
          "type": "bool"
        }
      ],
      "stateMutability": "nonpayable",
      "type": "function"
    },
    {
      "inputs": [
        {
          "internalType": "address",
          "name": "sender",
          "type": "address"
        },
        {
          "internalType": "address",
          "name": "recipient",
          "type": "address"
        },
        {
          "internalType": "uint256",
          "name": "amount",
          "type": "uint256"
        }
      ],
      "name": "transferFrom",
      "outputs": [
        {
          "internalType": "bool",
          "name": "",
          "type": "bool"
        }
      ],
      "stateMutability": "nonpayable",
      "type": "function"
    },
    {
      "inputs": [
        {
          "internalType": "uint256",
          "name": "amount",
          "type": "uint256"
        }
      ],
      "name": "withdrawETH",
      "outputs": [],
      "stateMutability": "nonpayable",
      "type": "function"
    },
    {
      "stateMutability": "payable",
      "type": "receive"
    }
  ],
  "bytecode": "0x608060405234801561001057600080fd5b50604051613d1f380380613d1f83398181016040528101906100329190610975565b6040518060400160405280600681526020017f41546f6b656e00000000000000000000000000000000000000000000000000008152506040518060400160405280600181526020017f41000000000000000000000000000000000000000000000000000000000000008152506000846100bb67095b155cf6d9c19060c01b61038360201b60201c565b6100d567c48a048845c04e0360c01b61038360201b60201c565b83600590816100e49190610bfb565b506100ff67fce4add7a47cd1de60c01b61038360201b60201c565b826006908161010e9190610bfb565b50610129675d77481302ee259460c01b61038360201b60201c565b33600160006101000a81548173ffffffffffffffffffffffffffffffffffffffff021916908373ffffffffffffffffffffffffffffffffffffffff1602179055506101846798ecce922869863060c01b61038360201b60201c565b61019e6792c70149599dcb6060c01b61038360201b60201c565b6101b16000801b3361038660201b60201c565b506101cc6795d7b506648afe1560c01b61038360201b60201c565b6101e667a05bb122d9d2c7b960c01b61038360201b60201c565b6102167f9f2df0fed2c77648de5860a4cc508cd0818c85b8b8a1ab4ceeef8d981c8956a63361038660201b60201c565b5061023167e1011750af3a833060c01b61038360201b60201c565b61024b67d43df1072bb8661160c01b61038360201b60201c565b61025b828261048360201b60201c565b505050506102796775590982f7113db160c01b61062460201b60201c565b61029367f5b475772988214860c01b61062460201b60201c565b806007819055506102b4674400e037338d9e1b60c01b61062460201b60201c565b81600960006101000a81548173ffffffffffffffffffffffffffffffffffffffff021916908373ffffffffffffffffffffffffffffffffffffffff16021790555061030f67693f1f8d3cc1c6d360c01b61062460201b60201c565b610329675017eb7feabc636c60c01b61062460201b60201c565b61037b7f9f2df0fed2c77648de5860a4cc508cd0818c85b8b8a1ab4ceeef8d981c8956a6600960009054906101000a900473ffffffffffffffffffffffffffffffffffffffff1661038660201b60201c565b505050610e43565b50565b6000610398838361062760201b60201c565b61047857600160008085815260200190815260200160002060000160008473ffffffffffffffffffffffffffffffffffffffff1673ffffffffffffffffffffffffffffffffffffffff16815260200190815260200160002060006101000a81548160ff02191690831515021790555061041561069160201b60201c565b73ffffffffffffffffffffffffffffffffffffffff168273ffffffffffffffffffffffffffffffffffffffff16847f2f8788117e7eff1d82e926ec794901d17c78024a50270940304540a733656f0d60405160405180910390a46001905061047d565b600090505b92915050565b61049d675a8a94001b57559a60c01b61038360201b60201c565b6104b767b449d6c2b7c71e2060c01b61038360201b60201c565b6104d1670efe204c2570e34260c01b61038360201b60201c565b6104e36000828461069960201b60201c565b6104fd67240778decfadd69360c01b61038360201b60201c565b816002600082825461050f9190610cfc565b9250508190555061053067263f0bab53cedc9260c01b61038360201b60201c565b81600360008373ffffffffffffffffffffffffffffffffffffffff1673ffffffffffffffffffffffffffffffffffffffff168152602001908152602001600020600082825461057f9190610cfc565b925050819055506105a06760beb66d330b2f9f60c01b61038360201b60201c565b6105ba6766710ce464cfd5df60c01b61038360201b60201c565b8073ffffffffffffffffffffffffffffffffffffffff16600073ffffffffffffffffffffffffffffffffffffffff167fddf252ad1be2c89b69c2b068fc378daa952ba7f163c4a11628f55a4df523b3ef846040516106189190610d3f565b60405180910390a35050565b50565b600080600084815260200190815260200160002060000160008373ffffffffffffffffffffffffffffffffffffffff1673ffffffffffffffffffffffffffffffffffffffff16815260200190815260200160002060009054906101000a900460ff16905092915050565b600033905090565b6106b367d03773378b73022b60c01b61062460201b60201c565b6106cd67ba1a7aea8360f08c60c01b61062460201b60201c565b6106e76771da0bf4ff99fc6160c01b61062460201b60201c565b600073ffffffffffffffffffffffffffffffffffffffff168373ffffffffffffffffffffffffffffffffffffffff16146107e5576107356721511d1aef5073ab60c01b61062460201b60201c565b61074f67f6f174754830c4f460c01b61062460201b60201c565b61076967e6d2e36431a1ccb060c01b61062460201b60201c565b610783678a57c0689b56fdfc60c01b61062460201b60201c565b600081116107c6576040517f08c379a00000000000000000000000000000000000000000000000000000000081526004016107bd90610db7565b60405180910390fd5b6107e067a1b8f0b112210d5660c01b61062460201b60201c565b610800565b6107ff6736329c1ad0449b1960c01b61062460201b60201c565b5b61081a672ff5756c31eb6bd860c01b61062460201b60201c565b610834677d1cd9adba90b83860c01b61062460201b60201c565b61084e67cf2e109ff2216d8460c01b61062460201b60201c565b600073ffffffffffffffffffffffffffffffffffffffff168273ffffffffffffffffffffffffffffffffffffffff16036108bd576040517f08c379a00000000000000000000000000000000000000000000000000000000081526004016108b490610e23565b60405180910390fd5b6108d7677c56e97f4d44de5c60c01b61062460201b60201c565b505050565b600080fd5b600073ffffffffffffffffffffffffffffffffffffffff82169050919050565b600061090c826108e1565b9050919050565b61091c81610901565b811461092757600080fd5b50565b60008151905061093981610913565b92915050565b6000819050919050565b6109528161093f565b811461095d57600080fd5b50565b60008151905061096f81610949565b92915050565b6000806040838503121561098c5761098b6108dc565b5b600061099a8582860161092a565b92505060206109ab85828601610960565b9150509250929050565b600081519050919050565b7f4e487b7100000000000000000000000000000000000000000000000000000000600052604160045260246000fd5b7f4e487b7100000000000000000000000000000000000000000000000000000000600052602260045260246000fd5b60006002820490506001821680610a3657607f821691505b602082108103610a4957610a486109ef565b5b50919050565b60008190508160005260206000209050919050565b60006020601f8301049050919050565b600082821b905092915050565b600060088302610ab17fffffffffffffffffffffffffffffffffffffffffffffffffffffffffffffffff82610a74565b610abb8683610a74565b95508019841693508086168417925050509392505050565b6000819050919050565b6000610af8610af3610aee8461093f565b610ad3565b61093f565b9050919050565b6000819050919050565b610b1283610add565b610b26610b1e82610aff565b848454610a81565b825550505050565b600090565b610b3b610b2e565b610b46818484610b09565b505050565b5b81811015610b6a57610b5f600082610b33565b600181019050610b4c565b5050565b601f821115610baf57610b8081610a4f565b610b8984610a64565b81016020851015610b98578190505b610bac610ba485610a64565b830182610b4b565b50505b505050565b600082821c905092915050565b6000610bd260001984600802610bb4565b1980831691505092915050565b6000610beb8383610bc1565b9150826002028217905092915050565b610c04826109b5565b67ffffffffffffffff811115610c1d57610c1c6109c0565b5b610c278254610a1e565b610c32828285610b6e565b600060209050601f831160018114610c655760008415610c53578287015190505b610c5d8582610bdf565b865550610cc5565b601f198416610c7386610a4f565b60005b82811015610c9b57848901518255600182019150602085019450602081019050610c76565b86831015610cb85784890151610cb4601f891682610bc1565b8355505b6001600288020188555050505b505050505050565b7f4e487b7100000000000000000000000000000000000000000000000000000000600052601160045260246000fd5b6000610d078261093f565b9150610d128361093f565b9250828201905080821115610d2a57610d29610ccd565b5b92915050565b610d398161093f565b82525050565b6000602082019050610d546000830184610d30565b92915050565b600082825260208201905092915050565b7f6e6f7420656e6f75676820746f6b656e73000000000000000000000000000000600082015250565b6000610da1601183610d5a565b9150610dac82610d6b565b602082019050919050565b60006020820190508181036000830152610dd081610d94565b9050919050565b7f696e76616c696420616464726573730000000000000000000000000000000000600082015250565b6000610e0d600f83610d5a565b9150610e1882610dd7565b602082019050919050565b60006020820190508181036000830152610e3c81610e00565b9050919050565b612ecd80610e526000396000f3fe6080604052600436106101bb5760003560e01c806370a08231116100ec5780639653dee51161008a578063d539139311610064578063d5391393146106a7578063d547741f146106d2578063dd62ed3e146106fb578063f14210a6146107385761020f565b80639653dee514610614578063a217fddf1461063f578063a9059cbb1461066a5761020f565b80638da5cb5b116100c65780638da5cb5b1461055857806391d148541461058357806394bf804d146105c057806395d89b41146105e95761020f565b806370a08231146104c55780637e1c0c09146105025780637ff9b5961461052d5761020f565b80632f2ff15d116101595780633610724e116101335780633610724e1461041857806336568abe14610434578063518ab2a81461045d57806355b6ed5c146104885761020f565b80632f2ff15d1461039b578063313ce567146103c457806336104cb1146103ef5761020f565b806318160ddd1161019557806318160ddd146102b957806323b872dd146102e4578063248a9ca31461032157806327e235e31461035e5761020f565b806301ffc9a71461021457806306fdde0314610251578063095ea7b31461027c5761020f565b3661020f576101d4674ba8a030b583faea60c01b610761565b7f88a5966d370b9919b20f3e2c13ff65706f196a4e32cc2c12bf57088f88525874333460405161020592919061238c565b60405180910390a1005b600080fd5b34801561022057600080fd5b5061023b60048036038101906102369190612412565b610764565b604051610248919061245a565b60405180910390f35b34801561025d57600080fd5b506102666107de565b6040516102739190612505565b60405180910390f35b34801561028857600080fd5b506102a3600480360381019061029e919061257f565b6108ac565b6040516102b0919061245a565b60405180910390f35b3480156102c557600080fd5b506102ce610927565b6040516102db91906125bf565b60405180910390f35b3480156102f057600080fd5b5061030b600480360381019061030691906125da565b61096d565b604051610318919061245a565b60405180910390f35b34801561032d57600080fd5b5061034860048036038101906103439190612663565b610d00565b604051610355919061269f565b60405180910390f35b34801561036a57600080fd5b50610385600480360381019061038091906126ba565b610d1f565b60405161039291906125bf565b60405180910390f35b3480156103a757600080fd5b506103c260048036038101906103bd91906126e7565b610d37565b005b3480156103d057600080fd5b506103d9610d59565b6040516103e691906125bf565b60405180910390f35b3480156103fb57600080fd5b50610416600480360381019061041191906126ba565b610d9d565b005b610432600480360381019061042d9190612727565b610efe565b005b34801561044057600080fd5b5061045b600480360381019061045691906126e7565b61116c565b005b34801561046957600080fd5b506104726111e7565b60405161047f91906125bf565b60405180910390f35b34801561049457600080fd5b506104af60048036038101906104aa9190612754565b6111ed565b6040516104bc91906125bf565b60405180910390f35b3480156104d157600080fd5b506104ec60048036038101906104e791906126ba565b611212565b6040516104f991906125bf565b60405180910390f35b34801561050e57600080fd5b50610517611297565b60405161052491906125bf565b60405180910390f35b34801561053957600080fd5b5061054261129d565b60405161054f91906125bf565b60405180910390f35b34801561056457600080fd5b5061056d6112a3565b60405161057a9190612794565b60405180910390f35b34801561058f57600080fd5b506105aa60048036038101906105a591906126e7565b6112c9565b6040516105b7919061245a565b60405180910390f35b3480156105cc57600080fd5b506105e760048036038101906105e291906127af565b611333565b005b3480156105f557600080fd5b506105fe6113d0565b60405161060b9190612505565b60405180910390f35b34801561062057600080fd5b5061062961149e565b6040516106369190612794565b60405180910390f35b34801561064b57600080fd5b506106546114c4565b604051610661919061269f565b60405180910390f35b34801561067657600080fd5b50610691600480360381019061068c919061257f565b6114cb565b60405161069e919061245a565b60405180910390f35b3480156106b357600080fd5b506106bc611796565b6040516106c9919061269f565b60405180910390f35b3480156106de57600080fd5b506106f960048036038101906106f491906126e7565b6117ba565b005b34801561070757600080fd5b50610722600480360381019061071d9190612754565b6117dc565b60405161072f91906125bf565b60405180910390f35b34801561074457600080fd5b5061075f600480360381019061075a9190612727565b61189f565b005b50565b60007f7965db0b000000000000000000000000000000000000000000000000000000007bffffffffffffffffffffffffffffffffffffffffffffffffffffffff1916827bffffffffffffffffffffffffffffffffffffffffffffffffffffffff191614806107d757506107d682611a27565b5b9050919050565b60606107f467416512be65a24bb060c01b611a91565b61080867728b032badea352160c01b611a91565b61081c67049230eb3811d36e60c01b611a91565b600580546108299061281e565b80601f01602080910402602001604051908101604052809291908181526020018280546108559061281e565b80156108a25780601f10610877576101008083540402835291602001916108a2565b820191906000526020600020905b81548152906001019060200180831161088557829003601f168201915b5050505050905090565b60006108c267a305ccb493bf739660c01b611a91565b6108d667c4f4dfeedaf1d63260c01b611a91565b6108ea67ed9dcc78ac313ec760c01b611a91565b6108f5338484611a94565b61090967a8fba518191363c560c01b611a91565b61091d67c7c4fc7fd49a8b9560c01b611a91565b6001905092915050565b600061093d67dcf87b56d98bd0af60c01b611a91565b610951673cd1b1882289cb2460c01b611a91565b610965677637f504e950c2ac60c01b611a91565b600254905090565b6000610983673ad24d2ef20178cf60c01b611a91565b610997679271f925335bd6d560c01b611a91565b6109ab67fbd0b2cb35e254c160c01b611a91565b6109bf673a5dc271bc68ec5660c01b611a91565b81600460008673ffffffffffffffffffffffffffffffffffffffff1673ffffffffffffffffffffffffffffffffffffffff16815260200190815260200160002060003373ffffffffffffffffffffffffffffffffffffffff1673ffffffffffffffffffffffffffffffffffffffff168152602001908152602001600020541015610a7e576040517f08c379a0000000000000000000000000000000000000000000000000000000008152600401610a759061289b565b60405180910390fd5b610a92676c07fe1d0ff2a7d160c01b611a91565b610aa667749f5af00f7bd82460c01b611a91565b610aba67e7e9deaeb0f9d19060c01b611a91565b610ac5848484611bcf565b610ad96708c4a2eb2eeed7fd60c01b611a91565b81600460008673ffffffffffffffffffffffffffffffffffffffff1673ffffffffffffffffffffffffffffffffffffffff16815260200190815260200160002060003373ffffffffffffffffffffffffffffffffffffffff1673ffffffffffffffffffffffffffffffffffffffff1681526020019081526020016000206000828254610b6591906128ea565b92505081905550610b8067f39e25129c485aef60c01b611a91565b81600360008673ffffffffffffffffffffffffffffffffffffffff1673ffffffffffffffffffffffffffffffffffffffff1681526020019081526020016000206000828254610bcf91906128ea565b92505081905550610bea672d7c712fc796569d60c01b611a91565b81600360008573ffffffffffffffffffffffffffffffffffffffff1673ffffffffffffffffffffffffffffffffffffffff1681526020019081526020016000206000828254610c39919061291e565b92505081905550610c5467bf7ae113320d77e260c01b611a91565b610c68670a14e011512fe04960c01b611a91565b8273ffffffffffffffffffffffffffffffffffffffff168473ffffffffffffffffffffffffffffffffffffffff167fddf252ad1be2c89b69c2b068fc378daa952ba7f163c4a11628f55a4df523b3ef84604051610cc591906125bf565b60405180910390a3610ce16767a435d0b83cdd5b60c01b611a91565b610cf5671d1885812e9f441360c01b611a91565b600190509392505050565b6000806000838152602001908152602001600020600101549050919050565b60036020528060005260406000206000915090505481565b610d4082610d00565b610d4981611dc4565b610d538383611dd8565b50505050565b6000610d6e669077671fcafd6960c01b611a91565b610d8267f3ea140b4e17653f60c01b611a91565b610d966767b0c3a7c958fcd460c01b611a91565b6012905090565b610db1673d80ce613560218960c01b610761565b6000801b610dbe81611dc4565b610dd267e7cc9729f09aa8d160c01b610761565b610de667a15670460af8d1ac60c01b610761565b610dfa673cdfa1c78a1075d060c01b610761565b610e0e67e5315199a85675ec60c01b610761565b610e22675cda06920931459d60c01b610761565b600073ffffffffffffffffffffffffffffffffffffffff168273ffffffffffffffffffffffffffffffffffffffff1603610e91576040517f08c379a0000000000000000000000000000000000000000000000000000000008152600401610e889061299e565b60405180910390fd5b610ea567661bbed885f632b860c01b610761565b610eb967d69cf1f099a4a69160c01b610761565b81600960006101000a81548173ffffffffffffffffffffffffffffffffffffffff021916908373ffffffffffffffffffffffffffffffffffffffff1602179055505050565b610f1267240be3efdbeb17f360c01b610761565b610f2667626ec5fe4c44f5d060c01b610761565b610f3a67bf74410db39ca44460c01b610761565b6000610f44610d59565b600a610f509190612af1565b82610f5b9190612b3c565b9050610f7167d74afc0b552e4d3f60c01b610761565b610f856774624faab253ee7360c01b610761565b610f99679722a12e7eeb3ed560c01b610761565b81600754610fa79190612b3c565b3414610fe8576040517f08c379a0000000000000000000000000000000000000000000000000000000008152600401610fdf90612bca565b60405180910390fd5b610ffc67666bcd009065b6e560c01b610761565b611010670657f6c6bfb0952160c01b610761565b61102467fe5b9c1f7e6ff0d260c01b610761565b611038672341e7f52b74642560c01b610761565b803073ffffffffffffffffffffffffffffffffffffffff166370a08231306040518263ffffffff1660e01b81526004016110729190612794565b602060405180830381865afa15801561108f573d6000803e3d6000fd5b505050506040513d601f19601f820116820180604052508101906110b39190612bff565b10156110f4576040517f08c379a00000000000000000000000000000000000000000000000000000000081526004016110eb90612c78565b60405180910390fd5b611108672ec03166ce28bb7460c01b610761565b61111c670b51ade88f5522d160c01b610761565b61113067a079498c79ac0f0960c01b610761565b61113b303383611ec9565b61114f67b33401f8d169bdeb60c01b610761565b8060086000828254611161919061291e565b925050819055505050565b611174612076565b73ffffffffffffffffffffffffffffffffffffffff168173ffffffffffffffffffffffffffffffffffffffff16146111d8576040517f6697b23200000000000000000000000000000000000000000000000000000000815260040160405180910390fd5b6111e2828261207e565b505050565b60085481565b6004602052816000526040600020602052806000526040600020600091509150505481565b600061122867fb45b114467e2bcb60c01b611a91565b61123c671c84f10f6ac177cf60c01b611a91565b61125067ae92cb35ecf7e0ca60c01b611a91565b600360008373ffffffffffffffffffffffffffffffffffffffff1673ffffffffffffffffffffffffffffffffffffffff168152602001908152602001600020549050919050565b60025481565b60075481565b600160009054906101000a900473ffffffffffffffffffffffffffffffffffffffff1681565b600080600084815260200190815260200160002060000160008373ffffffffffffffffffffffffffffffffffffffff1673ffffffffffffffffffffffffffffffffffffffff16815260200190815260200160002060009054906101000a900460ff16905092915050565b61134767ee90cb3f2bbeebf260c01b611a91565b7f9f2df0fed2c77648de5860a4cc508cd0818c85b8b8a1ab4ceeef8d981c8956a661137181611dc4565b61138567d88d16ea1982f15c60c01b611a91565b6113996722b8b7c30427c68a60c01b611a91565b6113ad670847c58224fcee5c60c01b611a91565b6113c1672f1fbc009e1f483260c01b611a91565b6113cb8383612170565b505050565b60606113e6673fb88017a9a1e78960c01b611a91565b6113fa67c5a7d0064792ee1f60c01b611a91565b61140e67f9db599fc41e6d6e60c01b611a91565b6006805461141b9061281e565b80601f01602080910402602001604051908101604052809291908181526020018280546114479061281e565b80156114945780601f1061146957610100808354040283529160200191611494565b820191906000526020600020905b81548152906001019060200180831161147757829003601f168201915b5050505050905090565b600960009054906101000a900473ffffffffffffffffffffffffffffffffffffffff1681565b6000801b81565b60006114e1675d0dfb1aeab620ce60c01b611a91565b33826114f7679494b21fd752516f60c01b611a91565b61150b676bdc75efc91c5d7f60c01b611a91565b61151f6705ab94315383c38b60c01b611a91565b61153367adef7acae8aadb1c60c01b611a91565b8061153d83611212565b101561157e576040517f08c379a000000000000000000000000000000000000000000000000000000000815260040161157590612d0a565b60405180910390fd5b611592675e14173d3f1a337960c01b611a91565b6115a66724970d2d233abbbd60c01b611a91565b6115ba67b6d193f2cbca0bd560c01b611a91565b6115ce67fe0e446f0e89907160c01b611a91565b6115e26710b9da6ececfc09760c01b611a91565b6115f6676fd0e9243100904d60c01b611a91565b611601338686611bcf565b6116156766511f1848c1253160c01b611a91565b83600360003373ffffffffffffffffffffffffffffffffffffffff1673ffffffffffffffffffffffffffffffffffffffff168152602001908152602001600020600082825461166491906128ea565b9250508190555061167f675e405516f978a71060c01b611a91565b83600360008773ffffffffffffffffffffffffffffffffffffffff1673ffffffffffffffffffffffffffffffffffffffff16815260200190815260200160002060008282546116ce919061291e565b925050819055506116e9678c12e516d35cf28760c01b611a91565b6116fd67fac498aee86bd17460c01b611a91565b8473ffffffffffffffffffffffffffffffffffffffff163373ffffffffffffffffffffffffffffffffffffffff167fddf252ad1be2c89b69c2b068fc378daa952ba7f163c4a11628f55a4df523b3ef8660405161175a91906125bf565b60405180910390a3611776672689603fd7fa59b960c01b611a91565b61178a674524c87b0e2d1f1d60c01b611a91565b60019250505092915050565b7f9f2df0fed2c77648de5860a4cc508cd0818c85b8b8a1ab4ceeef8d981c8956a681565b6117c382610d00565b6117cc81611dc4565b6117d6838361207e565b50505050565b60006117f26760255968d814a67760c01b611a91565b6118066772fa8d09411de6fa60c01b611a91565b61181a6745de33cf9862fde660c01b611a91565b600460008473ffffffffffffffffffffffffffffffffffffffff1673ffffffffffffffffffffffffffffffffffffffff16815260200190815260200160002060008373ffffffffffffffffffffffffffffffffffffffff1673ffffffffffffffffffffffffffffffffffffffff16815260200190815260200160002054905092915050565b6118b3675ecbf0c04c862b4b60c01b610761565b6118c767b634f7c8baaf6a1f60c01b610761565b6118db67fc75889ff2fd45b860c01b610761565b6118ef673c8ceb283b42be2660c01b610761565b600960009054906101000a900473ffffffffffffffffffffffffffffffffffffffff1673ffffffffffffffffffffffffffffffffffffffff163373ffffffffffffffffffffffffffffffffffffffff161461197f576040517f08c379a000000000000000000000000000000000000000000000000000000000815260040161197690612d76565b60405180910390fd5b61199367705da6714682dc0f60c01b610761565b6119a7677a9dbb0e4438920060c01b610761565b6119bb670ff0671cce1b68df60c01b610761565b600960009054906101000a900473ffffffffffffffffffffffffffffffffffffffff1673ffffffffffffffffffffffffffffffffffffffff166108fc829081150290604051600060405180830381858888f19350505050158015611a23573d6000803e3d6000fd5b5050565b60007f01ffc9a7000000000000000000000000000000000000000000000000000000007bffffffffffffffffffffffffffffffffffffffffffffffffffffffff1916827bffffffffffffffffffffffffffffffffffffffffffffffffffffffff1916149050919050565b50565b611aa86770220d169a18952a60c01b611a91565b611abc67a979bf5641704cae60c01b611a91565b80600460008573ffffffffffffffffffffffffffffffffffffffff1673ffffffffffffffffffffffffffffffffffffffff16815260200190815260200160002060008473ffffffffffffffffffffffffffffffffffffffff1673ffffffffffffffffffffffffffffffffffffffff16815260200190815260200160002081905550611b5167269e78817fc1811960c01b611a91565b611b6567a93aaf8d746ba80260c01b611a91565b8173ffffffffffffffffffffffffffffffffffffffff168373ffffffffffffffffffffffffffffffffffffffff167f8c5be1e5ebec7d5bd14f71427d1e84f3dd0314c0f7b2291e5b200ac8c7c3b92583604051611bc291906125bf565b60405180910390a3505050565b611be367d03773378b73022b60c01b610761565b611bf767ba1a7aea8360f08c60c01b610761565b611c0b6771da0bf4ff99fc6160c01b610761565b600073ffffffffffffffffffffffffffffffffffffffff168373ffffffffffffffffffffffffffffffffffffffff1614611ceb57611c536721511d1aef5073ab60c01b610761565b611c6767f6f174754830c4f460c01b610761565b611c7b67e6d2e36431a1ccb060c01b610761565b611c8f678a57c0689b56fdfc60c01b610761565b60008111611cd2576040517f08c379a0000000000000000000000000000000000000000000000000000000008152600401611cc990612de2565b60405180910390fd5b611ce667a1b8f0b112210d5660c01b610761565b611d00565b611cff6736329c1ad0449b1960c01b610761565b5b611d14672ff5756c31eb6bd860c01b610761565b611d28677d1cd9adba90b83860c01b610761565b611d3c67cf2e109ff2216d8460c01b610761565b600073ffffffffffffffffffffffffffffffffffffffff168273ffffffffffffffffffffffffffffffffffffffff1603611dab576040517f08c379a0000000000000000000000000000000000000000000000000000000008152600401611da290612e4e565b60405180910390fd5b611dbf677c56e97f4d44de5c60c01b610761565b505050565b611dd581611dd0612076565b6122e1565b50565b6000611de483836112c9565b611ebe57600160008085815260200190815260200160002060000160008473ffffffffffffffffffffffffffffffffffffffff1673ffffffffffffffffffffffffffffffffffffffff16815260200190815260200160002060006101000a81548160ff021916908315150217905550611e5b612076565b73ffffffffffffffffffffffffffffffffffffffff168273ffffffffffffffffffffffffffffffffffffffff16847f2f8788117e7eff1d82e926ec794901d17c78024a50270940304540a733656f0d60405160405180910390a460019050611ec3565b600090505b92915050565b611edd673acfa7704c3cf9fc60c01b611a91565b611ef167d10bda7a056e6cc960c01b611a91565b611f05672ab3c8d6da3baf2460c01b611a91565b611f10838383611bcf565b611f24676e0687b2bfe58d6e60c01b611a91565b80600360008573ffffffffffffffffffffffffffffffffffffffff1673ffffffffffffffffffffffffffffffffffffffff1681526020019081526020016000206000828254611f7391906128ea565b92505081905550611f8e673d508fd4a72d0a6c60c01b611a91565b80600360008473ffffffffffffffffffffffffffffffffffffffff1673ffffffffffffffffffffffffffffffffffffffff1681526020019081526020016000206000828254611fdd919061291e565b92505081905550611ff8673fab12e3d4f3acbf60c01b611a91565b61200c67f74bde090b0df8b860c01b611a91565b8173ffffffffffffffffffffffffffffffffffffffff168373ffffffffffffffffffffffffffffffffffffffff167fddf252ad1be2c89b69c2b068fc378daa952ba7f163c4a11628f55a4df523b3ef8360405161206991906125bf565b60405180910390a3505050565b600033905090565b600061208a83836112c9565b1561216557600080600085815260200190815260200160002060000160008473ffffffffffffffffffffffffffffffffffffffff1673ffffffffffffffffffffffffffffffffffffffff16815260200190815260200160002060006101000a81548160ff021916908315150217905550612102612076565b73ffffffffffffffffffffffffffffffffffffffff168273ffffffffffffffffffffffffffffffffffffffff16847ff6391f5c32d9c69d2a47ea670b442974b53935d1edc7fd64eb21e047a839171b60405160405180910390a46001905061216a565b600090505b92915050565b612184675a8a94001b57559a60c01b611a91565b61219867b449d6c2b7c71e2060c01b611a91565b6121ac670efe204c2570e34260c01b611a91565b6121b860008284611bcf565b6121cc67240778decfadd69360c01b611a91565b81600260008282546121de919061291e565b925050819055506121f967263f0bab53cedc9260c01b611a91565b81600360008373ffffffffffffffffffffffffffffffffffffffff1673ffffffffffffffffffffffffffffffffffffffff1681526020019081526020016000206000828254612248919061291e565b925050819055506122636760beb66d330b2f9f60c01b611a91565b6122776766710ce464cfd5df60c01b611a91565b8073ffffffffffffffffffffffffffffffffffffffff16600073ffffffffffffffffffffffffffffffffffffffff167fddf252ad1be2c89b69c2b068fc378daa952ba7f163c4a11628f55a4df523b3ef846040516122d591906125bf565b60405180910390a35050565b6122eb82826112c9565b61232e5780826040517fe2517d3f000000000000000000000000000000000000000000000000000000008152600401612325929190612e6e565b60405180910390fd5b5050565b600073ffffffffffffffffffffffffffffffffffffffff82169050919050565b600061235d82612332565b9050919050565b61236d81612352565b82525050565b6000819050919050565b61238681612373565b82525050565b60006040820190506123a16000830185612364565b6123ae602083018461237d565b9392505050565b600080fd5b60007fffffffff0000000000000000000000000000000000000000000000000000000082169050919050565b6123ef816123ba565b81146123fa57600080fd5b50565b60008135905061240c816123e6565b92915050565b600060208284031215612428576124276123b5565b5b6000612436848285016123fd565b91505092915050565b60008115159050919050565b6124548161243f565b82525050565b600060208201905061246f600083018461244b565b92915050565b600081519050919050565b600082825260208201905092915050565b60005b838110156124af578082015181840152602081019050612494565b60008484015250505050565b6000601f19601f8301169050919050565b60006124d782612475565b6124e18185612480565b93506124f1818560208601612491565b6124fa816124bb565b840191505092915050565b6000602082019050818103600083015261251f81846124cc565b905092915050565b61253081612352565b811461253b57600080fd5b50565b60008135905061254d81612527565b92915050565b61255c81612373565b811461256757600080fd5b50565b60008135905061257981612553565b92915050565b60008060408385031215612596576125956123b5565b5b60006125a48582860161253e565b92505060206125b58582860161256a565b9150509250929050565b60006020820190506125d4600083018461237d565b92915050565b6000806000606084860312156125f3576125f26123b5565b5b60006126018682870161253e565b93505060206126128682870161253e565b92505060406126238682870161256a565b9150509250925092565b6000819050919050565b6126408161262d565b811461264b57600080fd5b50565b60008135905061265d81612637565b92915050565b600060208284031215612679576126786123b5565b5b60006126878482850161264e565b91505092915050565b6126998161262d565b82525050565b60006020820190506126b46000830184612690565b92915050565b6000602082840312156126d0576126cf6123b5565b5b60006126de8482850161253e565b91505092915050565b600080604083850312156126fe576126fd6123b5565b5b600061270c8582860161264e565b925050602061271d8582860161253e565b9150509250929050565b60006020828403121561273d5761273c6123b5565b5b600061274b8482850161256a565b91505092915050565b6000806040838503121561276b5761276a6123b5565b5b60006127798582860161253e565b925050602061278a8582860161253e565b9150509250929050565b60006020820190506127a96000830184612364565b92915050565b600080604083850312156127c6576127c56123b5565b5b60006127d48582860161256a565b92505060206127e58582860161253e565b9150509250929050565b7f4e487b7100000000000000000000000000000000000000000000000000000000600052602260045260246000fd5b6000600282049050600182168061283657607f821691505b602082108103612849576128486127ef565b5b50919050565b7f416c6c6f77616e636520746f6f206c6f77000000000000000000000000000000600082015250565b6000612885601183612480565b91506128908261284f565b602082019050919050565b600060208201905081810360008301526128b481612878565b9050919050565b7f4e487b7100000000000000000000000000000000000000000000000000000000600052601160045260246000fd5b60006128f582612373565b915061290083612373565b9250828203905081811115612918576129176128bb565b5b92915050565b600061292982612373565b915061293483612373565b925082820190508082111561294c5761294b6128bb565b5b92915050565b7f546f6b656e5377617020616464726573732063616e6e6f74206265207a65726f600082015250565b6000612988602083612480565b915061299382612952565b602082019050919050565b600060208201905081810360008301526129b78161297b565b9050919050565b60008160011c9050919050565b6000808291508390505b6001851115612a15578086048111156129f1576129f06128bb565b5b6001851615612a005780820291505b8081029050612a0e856129be565b94506129d5565b94509492505050565b600082612a2e5760019050612aea565b81612a3c5760009050612aea565b8160018114612a525760028114612a5c57612a8b565b6001915050612aea565b60ff841115612a6e57612a6d6128bb565b5b8360020a915084821115612a8557612a846128bb565b5b50612aea565b5060208310610133831016604e8410600b8410161715612ac05782820a905083811115612abb57612aba6128bb565b5b612aea565b612acd84848460016129cb565b92509050818404811115612ae457612ae36128bb565b5b81810290505b9392505050565b6000612afc82612373565b9150612b0783612373565b9250612b347fffffffffffffffffffffffffffffffffffffffffffffffffffffffffffffffff8484612a1e565b905092915050565b6000612b4782612373565b9150612b5283612373565b9250828202612b6081612373565b91508282048414831517612b7757612b766128bb565b5b5092915050565b7f496e636f72726563742045544820616d6f756e742073656e7400000000000000600082015250565b6000612bb4601983612480565b9150612bbf82612b7e565b602082019050919050565b60006020820190508181036000830152612be381612ba7565b9050919050565b600081519050612bf981612553565b92915050565b600060208284031215612c1557612c146123b5565b5b6000612c2384828501612bea565b91505092915050565b7f4e6f7420656e6f75676820746f6b656e73000000000000000000000000000000600082015250565b6000612c62601183612480565b9150612c6d82612c2c565b602082019050919050565b60006020820190508181036000830152612c9181612c55565b9050919050565b7f596f75206861766520746f6f206c6f7720616d6f756e74206f6620746f6b656e60008201527f7300000000000000000000000000000000000000000000000000000000000000602082015250565b6000612cf4602183612480565b9150612cff82612c98565b604082019050919050565b60006020820190508181036000830152612d2381612ce7565b9050919050565b7f4f6e6c7920546f6b656e537761702063616e2077697468647261770000000000600082015250565b6000612d60601b83612480565b9150612d6b82612d2a565b602082019050919050565b60006020820190508181036000830152612d8f81612d53565b9050919050565b7f6e6f7420656e6f75676820746f6b656e73000000000000000000000000000000600082015250565b6000612dcc601183612480565b9150612dd782612d96565b602082019050919050565b60006020820190508181036000830152612dfb81612dbf565b9050919050565b7f696e76616c696420616464726573730000000000000000000000000000000000600082015250565b6000612e38600f83612480565b9150612e4382612e02565b602082019050919050565b60006020820190508181036000830152612e6781612e2b565b9050919050565b6000604082019050612e836000830185612364565b612e906020830184612690565b939250505056fea264697066735822122044f61d57d40d8ac808b0ec21be40127517d3ee5af525306d940f7c94f73e712464736f6c634300081d0033",
  "linkReferences": {},
  "deployedLinkReferences": {}
}