{
  "_format": "hh-sol-artifact-1",
  "contractName": "AMM",
  "sourceName": "contracts/AMM.sol",
  "abi": [
    {
      "inputs": [
        {
          "internalType": "address",
          "name": "_tokenA",
          "type": "address"
        },
        {
          "internalType": "address",
          "name": "_tokenB",
          "type": "address"
        }
      ],
      "stateMutability": "nonpayable",
      "type": "constructor"
    },
    {
      "inputs": [],
      "name": "ReentrancyGuardReentrantCall",
      "type": "error"
    },
    {
      "anonymous": false,
      "inputs": [
        {
          "indexed": true,
          "internalType": "address",
          "name": "owner",
          "type": "address"
        },
        {
          "indexed": true,
          "internalType": "address",
          "name": "spender",
          "type": "address"
        },
        {
          "indexed": false,
          "internalType": "uint256",
          "name": "amount",
          "type": "uint256"
        }
      ],
      "name": "Approval",
      "type": "event"
    },
    {
      "anonymous": false,
      "inputs": [
        {
          "indexed": true,
          "internalType": "address",
          "name": "provider",
          "type": "address"
        },
        {
          "indexed": false,
          "internalType": "uint256",
          "name": "amountA",
          "type": "uint256"
        },
        {
          "indexed": false,
          "internalType": "uint256",
          "name": "amountB",
          "type": "uint256"
        },
        {
          "indexed": false,
          "internalType": "uint256",
          "name": "shares",
          "type": "uint256"
        }
      ],
      "name": "LiquidityAdded",
      "type": "event"
    },
    {
      "anonymous": false,
      "inputs": [
        {
          "indexed": false,
          "internalType": "address",
          "name": "recipient",
          "type": "address"
        },
        {
          "indexed": false,
          "internalType": "uint256",
          "name": "amount",
          "type": "uint256"
        }
      ],
      "name": "TokenSwaped",
      "type": "event"
    },
    {
      "anonymous": false,
      "inputs": [
        {
          "indexed": true,
          "internalType": "address",
          "name": "from",
          "type": "address"
        },
        {
          "indexed": true,
          "internalType": "address",
          "name": "to",
          "type": "address"
        },
        {
          "indexed": false,
          "internalType": "uint256",
          "name": "amount",
          "type": "uint256"
        }
      ],
      "name": "Transfer",
      "type": "event"
    },
    {
      "inputs": [
        {
          "internalType": "uint256",
          "name": "_amountA",
          "type": "uint256"
        },
        {
          "internalType": "uint256",
          "name": "_amountB",
          "type": "uint256"
        }
      ],
      "name": "addLiquidity",
      "outputs": [
        {
          "internalType": "uint256",
          "name": "shares",
          "type": "uint256"
        }
      ],
      "stateMutability": "payable",
      "type": "function"
    },
    {
      "inputs": [
        {
          "internalType": "address",
          "name": "_owner",
          "type": "address"
        },
        {
          "internalType": "address",
          "name": "spender",
          "type": "address"
        }
      ],
      "name": "allowance",
      "outputs": [
        {
          "internalType": "uint256",
          "name": "",
          "type": "uint256"
        }
      ],
      "stateMutability": "view",
      "type": "function"
    },
    {
      "inputs": [
        {
          "internalType": "address",
          "name": "",
          "type": "address"
        },
        {
          "internalType": "address",
          "name": "",
          "type": "address"
        }
      ],
      "name": "allowances",
      "outputs": [
        {
          "internalType": "uint256",
          "name": "",
          "type": "uint256"
        }
      ],
      "stateMutability": "view",
      "type": "function"
    },
    {
      "inputs": [
        {
          "internalType": "address",
          "name": "spender",
          "type": "address"
        },
        {
          "internalType": "uint256",
          "name": "amount",
          "type": "uint256"
        }
      ],
      "name": "approve",
      "outputs": [
        {
          "internalType": "bool",
          "name": "",
          "type": "bool"
        }
      ],
      "stateMutability": "nonpayable",
      "type": "function"
    },
    {
      "inputs": [
        {
          "internalType": "address",
          "name": "account",
          "type": "address"
        }
      ],
      "name": "balanceOf",
      "outputs": [
        {
          "internalType": "uint256",
          "name": "",
          "type": "uint256"
        }
      ],
      "stateMutability": "view",
      "type": "function"
    },
    {
      "inputs": [
        {
          "internalType": "address",
          "name": "",
          "type": "address"
        }
      ],
      "name": "balanceOfaccount",
      "outputs": [
        {
          "internalType": "uint256",
          "name": "",
          "type": "uint256"
        }
      ],
      "stateMutability": "view",
      "type": "function"
    },
    {
      "inputs": [
        {
          "internalType": "address",
          "name": "",
          "type": "address"
        }
      ],
      "name": "balances",
      "outputs": [
        {
          "internalType": "uint256",
          "name": "",
          "type": "uint256"
        }
      ],
      "stateMutability": "view",
      "type": "function"
    },
    {
      "inputs": [],
      "name": "decimals",
      "outputs": [
        {
          "internalType": "uint256",
          "name": "",
          "type": "uint256"
        }
      ],
      "stateMutability": "pure",
      "type": "function"
    },
    {
      "inputs": [
        {
          "internalType": "uint256",
          "name": "amount",
          "type": "uint256"
        },
        {
          "internalType": "address",
          "name": "to",
          "type": "address"
        }
      ],
      "name": "mint",
      "outputs": [],
      "stateMutability": "nonpayable",
      "type": "function"
    },
    {
      "inputs": [],
      "name": "name",
      "outputs": [
        {
          "internalType": "string",
          "name": "",
          "type": "string"
        }
      ],
      "stateMutability": "view",
      "type": "function"
    },
    {
      "inputs": [],
      "name": "owner",
      "outputs": [
        {
          "internalType": "address",
          "name": "",
          "type": "address"
        }
      ],
      "stateMutability": "view",
      "type": "function"
    },
    {
      "inputs": [
        {
          "internalType": "uint256",
          "name": "_shares",
          "type": "uint256"
        }
      ],
      "name": "removeLiquidity",
      "outputs": [
        {
          "internalType": "uint256",
          "name": "amountA",
          "type": "uint256"
        },
        {
          "internalType": "uint256",
          "name": "amountB",
          "type": "uint256"
        }
      ],
      "stateMutability": "nonpayable",
      "type": "function"
    },
    {
      "inputs": [
        {
          "internalType": "address",
          "name": "_tokenIn",
          "type": "address"
        },
        {
          "internalType": "uint256",
          "name": "_amountIn",
          "type": "uint256"
        }
      ],
      "name": "swap",
      "outputs": [
        {
          "internalType": "uint256",
          "name": "_amountOut",
          "type": "uint256"
        }
      ],
      "stateMutability": "nonpayable",
      "type": "function"
    },
    {
      "inputs": [],
      "name": "symbol",
      "outputs": [
        {
          "internalType": "string",
          "name": "",
          "type": "string"
        }
      ],
      "stateMutability": "view",
      "type": "function"
    },
    {
      "inputs": [],
      "name": "tokenA",
      "outputs": [
        {
          "internalType": "contract ERC20Base",
          "name": "",
          "type": "address"
        }
      ],
      "stateMutability": "view",
      "type": "function"
    },
    {
      "inputs": [],
      "name": "tokenAreserve",
      "outputs": [
        {
          "internalType": "uint256",
          "name": "",
          "type": "uint256"
        }
      ],
      "stateMutability": "view",
      "type": "function"
    },
    {
      "inputs": [],
      "name": "tokenB",
      "outputs": [
        {
          "internalType": "contract ERC20Base",
          "name": "",
          "type": "address"
        }
      ],
      "stateMutability": "view",
      "type": "function"
    },
    {
      "inputs": [],
      "name": "tokenBreserve",
      "outputs": [
        {
          "internalType": "uint256",
          "name": "",
          "type": "uint256"
        }
      ],
      "stateMutability": "view",
      "type": "function"
    },
    {
      "inputs": [],
      "name": "totalSupply",
      "outputs": [
        {
          "internalType": "uint256",
          "name": "",
          "type": "uint256"
        }
      ],
      "stateMutability": "view",
      "type": "function"
    },
    {
      "inputs": [],
      "name": "totalTokens",
      "outputs": [
        {
          "internalType": "uint256",
          "name": "",
          "type": "uint256"
        }
      ],
      "stateMutability": "view",
      "type": "function"
    },
    {
      "inputs": [
        {
          "internalType": "address",
          "name": "to",
          "type": "address"
        },
        {
          "internalType": "uint256",
          "name": "amount",
          "type": "uint256"
        }
      ],
      "name": "transfer",
      "outputs": [
        {
          "internalType": "bool",
          "name": "",
          "type": "bool"
        }
      ],
      "stateMutability": "nonpayable",
      "type": "function"
    },
    {
      "inputs": [
        {
          "internalType": "address",
          "name": "sender",
          "type": "address"
        },
        {
          "internalType": "address",
          "name": "recipient",
          "type": "address"
        },
        {
          "internalType": "uint256",
          "name": "amount",
          "type": "uint256"
        }
      ],
      "name": "transferFrom",
      "outputs": [
        {
          "internalType": "bool",
          "name": "",
          "type": "bool"
        }
      ],
      "stateMutability": "nonpayable",
      "type": "function"
    }
  ],
  "bytecode": "0x608060405234801561001057600080fd5b506040516130f53803806130f5833981810160405281019061003291906102f9565b6040518060400160405280600881526020017f4c5020546f6b656e0000000000000000000000000000000000000000000000008152506040518060400160405280600381526020017f4c5054000000000000000000000000000000000000000000000000000000000081525060003383600490816100b09190610589565b5082600590816100c09190610589565b50336000806101000a81548173ffffffffffffffffffffffffffffffffffffffff021916908373ffffffffffffffffffffffffffffffffffffffff16021790555061011182826101a660201b60201c565b50505050600160068190555081600760006101000a81548173ffffffffffffffffffffffffffffffffffffffff021916908373ffffffffffffffffffffffffffffffffffffffff16021790555080600860006101000a81548173ffffffffffffffffffffffffffffffffffffffff021916908373ffffffffffffffffffffffffffffffffffffffff16021790555050506106e8565b6101b86000828461029160201b60201c565b81600160008282546101ca919061068a565b9250508190555081600260008373ffffffffffffffffffffffffffffffffffffffff1673ffffffffffffffffffffffffffffffffffffffff1681526020019081526020016000206000828254610220919061068a565b925050819055508073ffffffffffffffffffffffffffffffffffffffff16600073ffffffffffffffffffffffffffffffffffffffff167fddf252ad1be2c89b69c2b068fc378daa952ba7f163c4a11628f55a4df523b3ef8460405161028591906106cd565b60405180910390a35050565b505050565b600080fd5b600073ffffffffffffffffffffffffffffffffffffffff82169050919050565b60006102c68261029b565b9050919050565b6102d6816102bb565b81146102e157600080fd5b50565b6000815190506102f3816102cd565b92915050565b600080604083850312156103105761030f610296565b5b600061031e858286016102e4565b925050602061032f858286016102e4565b9150509250929050565b600081519050919050565b7f4e487b7100000000000000000000000000000000000000000000000000000000600052604160045260246000fd5b7f4e487b7100000000000000000000000000000000000000000000000000000000600052602260045260246000fd5b600060028204905060018216806103ba57607f821691505b6020821081036103cd576103cc610373565b5b50919050565b60008190508160005260206000209050919050565b60006020601f8301049050919050565b600082821b905092915050565b6000600883026104357fffffffffffffffffffffffffffffffffffffffffffffffffffffffffffffffff826103f8565b61043f86836103f8565b95508019841693508086168417925050509392505050565b6000819050919050565b6000819050919050565b600061048661048161047c84610457565b610461565b610457565b9050919050565b6000819050919050565b6104a08361046b565b6104b46104ac8261048d565b848454610405565b825550505050565b600090565b6104c96104bc565b6104d4818484610497565b505050565b5b818110156104f8576104ed6000826104c1565b6001810190506104da565b5050565b601f82111561053d5761050e816103d3565b610517846103e8565b81016020851015610526578190505b61053a610532856103e8565b8301826104d9565b50505b505050565b600082821c905092915050565b600061056060001984600802610542565b1980831691505092915050565b6000610579838361054f565b9150826002028217905092915050565b61059282610339565b67ffffffffffffffff8111156105ab576105aa610344565b5b6105b582546103a2565b6105c08282856104fc565b600060209050601f8311600181146105f357600084156105e1578287015190505b6105eb858261056d565b865550610653565b601f198416610601866103d3565b60005b8281101561062957848901518255600182019150602085019450602081019050610604565b868310156106465784890151610642601f89168261054f565b8355505b6001600288020188555050505b505050505050565b7f4e487b7100000000000000000000000000000000000000000000000000000000600052601160045260246000fd5b600061069582610457565b91506106a083610457565b92508282019050808211156106b8576106b761065b565b5b92915050565b6106c781610457565b82525050565b60006020820190506106e260008301846106be565b92915050565b6129fe806106f76000396000f3fe6080604052600436106101355760003560e01c806370a08231116100ab57806395d89b411161006f57806395d89b41146104545780639c8f9f231461047f5780639cd441da146104bd578063a9059cbb146104ed578063d004f0f71461052a578063dd62ed3e1461056757610135565b806370a082311461036d5780637e1c0c09146103aa57806380d7af28146103d55780638da5cb5b1461040057806394bf804d1461042b57610135565b80631bc8ef96116100fd5780631bc8ef961461023557806323b872dd1461026057806327e235e31461029d578063313ce567146102da57806355b6ed5c146103055780635f64b55b1461034257610135565b806306fdde031461013a578063095ea7b3146101655780630fc63d10146101a257806317581e84146101cd57806318160ddd1461020a575b600080fd5b34801561014657600080fd5b5061014f6105a4565b60405161015c9190611f9c565b60405180910390f35b34801561017157600080fd5b5061018c60048036038101906101879190612057565b610636565b60405161019991906120b2565b60405180910390f35b3480156101ae57600080fd5b506101b761064d565b6040516101c4919061212c565b60405180910390f35b3480156101d957600080fd5b506101f460048036038101906101ef9190612147565b610673565b6040516102019190612183565b60405180910390f35b34801561021657600080fd5b5061021f61068b565b60405161022c9190612183565b60405180910390f35b34801561024157600080fd5b5061024a610695565b6040516102579190612183565b60405180910390f35b34801561026c57600080fd5b506102876004803603810190610282919061219e565b61069b565b60405161029491906120b2565b60405180910390f35b3480156102a957600080fd5b506102c460048036038101906102bf9190612147565b610916565b6040516102d19190612183565b60405180910390f35b3480156102e657600080fd5b506102ef61092e565b6040516102fc9190612183565b60405180910390f35b34801561031157600080fd5b5061032c600480360381019061032791906121f1565b610937565b6040516103399190612183565b60405180910390f35b34801561034e57600080fd5b5061035761095c565b604051610364919061212c565b60405180910390f35b34801561037957600080fd5b50610394600480360381019061038f9190612147565b610982565b6040516103a19190612183565b60405180910390f35b3480156103b657600080fd5b506103bf6109cb565b6040516103cc9190612183565b60405180910390f35b3480156103e157600080fd5b506103ea6109d1565b6040516103f79190612183565b60405180910390f35b34801561040c57600080fd5b506104156109d7565b6040516104229190612240565b60405180910390f35b34801561043757600080fd5b50610452600480360381019061044d919061225b565b6109fb565b005b34801561046057600080fd5b50610469610a97565b6040516104769190611f9c565b60405180910390f35b34801561048b57600080fd5b506104a660048036038101906104a1919061229b565b610b29565b6040516104b49291906122c8565b60405180910390f35b6104d760048036038101906104d291906122f1565b610e74565b6040516104e49190612183565b60405180910390f35b3480156104f957600080fd5b50610514600480360381019061050f9190612057565b61129b565b60405161052191906120b2565b60405180910390f35b34801561053657600080fd5b50610551600480360381019061054c9190612057565b611412565b60405161055e9190612183565b60405180910390f35b34801561057357600080fd5b5061058e600480360381019061058991906121f1565b61190d565b60405161059b9190612183565b60405180910390f35b6060600480546105b390612360565b80601f01602080910402602001604051908101604052809291908181526020018280546105df90612360565b801561062c5780601f106106015761010080835404028352916020019161062c565b820191906000526020600020905b81548152906001019060200180831161060f57829003601f168201915b5050505050905090565b6000610643338484611994565b6001905092915050565b600760009054906101000a900473ffffffffffffffffffffffffffffffffffffffff1681565b600b6020528060005260406000206000915090505481565b6000600154905090565b60095481565b600081600360008673ffffffffffffffffffffffffffffffffffffffff1673ffffffffffffffffffffffffffffffffffffffff16815260200190815260200160002060003373ffffffffffffffffffffffffffffffffffffffff1673ffffffffffffffffffffffffffffffffffffffff16815260200190815260200160002054101561075c576040517f08c379a0000000000000000000000000000000000000000000000000000000008152600401610753906123dd565b60405180910390fd5b610767848484611a7f565b81600360008673ffffffffffffffffffffffffffffffffffffffff1673ffffffffffffffffffffffffffffffffffffffff16815260200190815260200160002060003373ffffffffffffffffffffffffffffffffffffffff1673ffffffffffffffffffffffffffffffffffffffff16815260200190815260200160002060008282546107f3919061242c565b9250508190555081600260008673ffffffffffffffffffffffffffffffffffffffff1673ffffffffffffffffffffffffffffffffffffffff1681526020019081526020016000206000828254610849919061242c565b9250508190555081600260008573ffffffffffffffffffffffffffffffffffffffff1673ffffffffffffffffffffffffffffffffffffffff168152602001908152602001600020600082825461089f9190612460565b925050819055508273ffffffffffffffffffffffffffffffffffffffff168473ffffffffffffffffffffffffffffffffffffffff167fddf252ad1be2c89b69c2b068fc378daa952ba7f163c4a11628f55a4df523b3ef846040516109039190612183565b60405180910390a3600190509392505050565b60026020528060005260406000206000915090505481565b60006012905090565b6003602052816000526040600020602052806000526040600020600091509150505481565b600860009054906101000a900473ffffffffffffffffffffffffffffffffffffffff1681565b6000600260008373ffffffffffffffffffffffffffffffffffffffff1673ffffffffffffffffffffffffffffffffffffffff168152602001908152602001600020549050919050565b60015481565b600a5481565b60008054906101000a900473ffffffffffffffffffffffffffffffffffffffff1681565b3373ffffffffffffffffffffffffffffffffffffffff1660008054906101000a900473ffffffffffffffffffffffffffffffffffffffff1673ffffffffffffffffffffffffffffffffffffffff1614610a89576040517f08c379a0000000000000000000000000000000000000000000000000000000008152600401610a80906124e0565b60405180910390fd5b610a938282611a84565b5050565b606060058054610aa690612360565b80601f0160208091040260200160405190810160405280929190818152602001828054610ad290612360565b8015610b1f5780601f10610af457610100808354040283529160200191610b1f565b820191906000526020600020905b815481529060010190602001808311610b0257829003601f168201915b5050505050905090565b6000806000600760009054906101000a900473ffffffffffffffffffffffffffffffffffffffff1673ffffffffffffffffffffffffffffffffffffffff166370a08231306040518263ffffffff1660e01b8152600401610b899190612240565b602060405180830381865afa158015610ba6573d6000803e3d6000fd5b505050506040513d601f19601f82011682018060405250810190610bca9190612515565b90506000600860009054906101000a900473ffffffffffffffffffffffffffffffffffffffff1673ffffffffffffffffffffffffffffffffffffffff166370a08231306040518263ffffffff1660e01b8152600401610c299190612240565b602060405180830381865afa158015610c46573d6000803e3d6000fd5b505050506040513d601f19601f82011682018060405250810190610c6a9190612515565b90506000610c7661068b565b8387610c829190612542565b610c8c91906125b3565b90506000610c9861068b565b8388610ca49190612542565b610cae91906125b3565b9050600082118015610cc05750600081115b610cff576040517f08c379a0000000000000000000000000000000000000000000000000000000008152600401610cf690612630565b60405180910390fd5b610d093388611b69565b610d298285610d18919061242c565b8285610d24919061242c565b611cd0565b600760009054906101000a900473ffffffffffffffffffffffffffffffffffffffff1673ffffffffffffffffffffffffffffffffffffffff1663a9059cbb33846040518363ffffffff1660e01b8152600401610d86929190612650565b6020604051808303816000875af1158015610da5573d6000803e3d6000fd5b505050506040513d601f19601f82011682018060405250810190610dc991906126a5565b50600860009054906101000a900473ffffffffffffffffffffffffffffffffffffffff1673ffffffffffffffffffffffffffffffffffffffff1663a9059cbb33836040518363ffffffff1660e01b8152600401610e27929190612650565b6020604051808303816000875af1158015610e46573d6000803e3d6000fd5b505050506040513d601f19601f82011682018060405250810190610e6a91906126a5565b5050505050915091565b6000610e7e611ce2565b600760009054906101000a900473ffffffffffffffffffffffffffffffffffffffff1673ffffffffffffffffffffffffffffffffffffffff166323b872dd3330866040518463ffffffff1660e01b8152600401610edd939291906126d2565b6020604051808303816000875af1158015610efc573d6000803e3d6000fd5b505050506040513d601f19601f82011682018060405250810190610f2091906126a5565b50600860009054906101000a900473ffffffffffffffffffffffffffffffffffffffff1673ffffffffffffffffffffffffffffffffffffffff166323b872dd3330856040518463ffffffff1660e01b8152600401610f80939291906126d2565b6020604051808303816000875af1158015610f9f573d6000803e3d6000fd5b505050506040513d601f19601f82011682018060405250810190610fc391906126a5565b5060006009541180610fd757506000600a54115b156110395781600a54610fea9190612542565b83600954610ff89190612542565b14611038576040517f08c379a000000000000000000000000000000000000000000000000000000000815260040161102f90612755565b60405180910390fd5b5b600061104361068b565b036110635761105c82846110579190612542565b611d28565b90506110ae565b6110ab60095461107161068b565b8561107c9190612542565b61108691906125b3565b600a5461109161068b565b8561109c9190612542565b6110a691906125b3565b611ec5565b90505b600081116110f1576040517f08c379a00000000000000000000000000000000000000000000000000000000081526004016110e8906127c1565b60405180910390fd5b6110fb8133611a84565b61123b600760009054906101000a900473ffffffffffffffffffffffffffffffffffffffff1673ffffffffffffffffffffffffffffffffffffffff166370a08231306040518263ffffffff1660e01b81526004016111599190612240565b602060405180830381865afa158015611176573d6000803e3d6000fd5b505050506040513d601f19601f8201168201806040525081019061119a9190612515565b600860009054906101000a900473ffffffffffffffffffffffffffffffffffffffff1673ffffffffffffffffffffffffffffffffffffffff166370a08231306040518263ffffffff1660e01b81526004016111f59190612240565b602060405180830381865afa158015611212573d6000803e3d6000fd5b505050506040513d601f19601f820116820180604052508101906112369190612515565b611cd0565b3373ffffffffffffffffffffffffffffffffffffffff167f64b83944e79c3ce8d4c297411de637c3e102d064677aac0c163976ebdcd6f50e848484604051611285939291906127e1565b60405180910390a2611295611edc565b92915050565b60003382806112a983610982565b10156112ea576040517f08c379a00000000000000000000000000000000000000000000000000000000081526004016112e190612864565b60405180910390fd5b6112f5338686611a7f565b83600260003373ffffffffffffffffffffffffffffffffffffffff1673ffffffffffffffffffffffffffffffffffffffff1681526020019081526020016000206000828254611344919061242c565b9250508190555083600260008773ffffffffffffffffffffffffffffffffffffffff1673ffffffffffffffffffffffffffffffffffffffff168152602001908152602001600020600082825461139a9190612460565b925050819055508473ffffffffffffffffffffffffffffffffffffffff163373ffffffffffffffffffffffffffffffffffffffff167fddf252ad1be2c89b69c2b068fc378daa952ba7f163c4a11628f55a4df523b3ef866040516113fe9190612183565b60405180910390a360019250505092915050565b6000600760009054906101000a900473ffffffffffffffffffffffffffffffffffffffff1673ffffffffffffffffffffffffffffffffffffffff168373ffffffffffffffffffffffffffffffffffffffff1614806114bd5750600860009054906101000a900473ffffffffffffffffffffffffffffffffffffffff1673ffffffffffffffffffffffffffffffffffffffff168373ffffffffffffffffffffffffffffffffffffffff16145b6114fc576040517f08c379a00000000000000000000000000000000000000000000000000000000081526004016114f3906128d0565b60405180910390fd5b6000821161153f576040517f08c379a00000000000000000000000000000000000000000000000000000000081526004016115369061293c565b60405180910390fd5b6000600760009054906101000a900473ffffffffffffffffffffffffffffffffffffffff1673ffffffffffffffffffffffffffffffffffffffff168473ffffffffffffffffffffffffffffffffffffffff16149050600080600080846115f057600860009054906101000a900473ffffffffffffffffffffffffffffffffffffffff16600760009054906101000a900473ffffffffffffffffffffffffffffffffffffffff16600a5460095461163d565b600760009054906101000a900473ffffffffffffffffffffffffffffffffffffffff16600860009054906101000a900473ffffffffffffffffffffffffffffffffffffffff16600954600a545b93509350935093508373ffffffffffffffffffffffffffffffffffffffff166323b872dd33308a6040518463ffffffff1660e01b8152600401611682939291906126d2565b6020604051808303816000875af11580156116a1573d6000803e3d6000fd5b505050506040513d601f19601f820116820180604052508101906116c591906126a5565b5060006103e86103e3896116d99190612542565b6116e391906125b3565b905080836116f19190612460565b81836116fd9190612542565b61170791906125b3565b96508373ffffffffffffffffffffffffffffffffffffffff1663a9059cbb33896040518363ffffffff1660e01b8152600401611744929190612650565b6020604051808303816000875af1158015611763573d6000803e3d6000fd5b505050506040513d601f19601f8201168201806040525081019061178791906126a5565b506118c8600760009054906101000a900473ffffffffffffffffffffffffffffffffffffffff1673ffffffffffffffffffffffffffffffffffffffff166370a08231306040518263ffffffff1660e01b81526004016117e69190612240565b602060405180830381865afa158015611803573d6000803e3d6000fd5b505050506040513d601f19601f820116820180604052508101906118279190612515565b600860009054906101000a900473ffffffffffffffffffffffffffffffffffffffff1673ffffffffffffffffffffffffffffffffffffffff166370a08231306040518263ffffffff1660e01b81526004016118829190612240565b602060405180830381865afa15801561189f573d6000803e3d6000fd5b505050506040513d601f19601f820116820180604052508101906118c39190612515565b611cd0565b7f4c14a9ab14ad61c2cf657e5f4303c9813a10b6d630e12e480e85305ae57b377933886040516118f9929190612650565b60405180910390a150505050505092915050565b6000600360008473ffffffffffffffffffffffffffffffffffffffff1673ffffffffffffffffffffffffffffffffffffffff16815260200190815260200160002060008373ffffffffffffffffffffffffffffffffffffffff1673ffffffffffffffffffffffffffffffffffffffff16815260200190815260200160002054905092915050565b80600360008573ffffffffffffffffffffffffffffffffffffffff1673ffffffffffffffffffffffffffffffffffffffff16815260200190815260200160002060008473ffffffffffffffffffffffffffffffffffffffff1673ffffffffffffffffffffffffffffffffffffffff168152602001908152602001600020819055508173ffffffffffffffffffffffffffffffffffffffff168373ffffffffffffffffffffffffffffffffffffffff167f8c5be1e5ebec7d5bd14f71427d1e84f3dd0314c0f7b2291e5b200ac8c7c3b92583604051611a729190612183565b60405180910390a3505050565b505050565b611a9060008284611a7f565b8160016000828254611aa29190612460565b9250508190555081600260008373ffffffffffffffffffffffffffffffffffffffff1673ffffffffffffffffffffffffffffffffffffffff1681526020019081526020016000206000828254611af89190612460565b925050819055508073ffffffffffffffffffffffffffffffffffffffff16600073ffffffffffffffffffffffffffffffffffffffff167fddf252ad1be2c89b69c2b068fc378daa952ba7f163c4a11628f55a4df523b3ef84604051611b5d9190612183565b60405180910390a35050565b611b7582600083611a7f565b80600260008473ffffffffffffffffffffffffffffffffffffffff1673ffffffffffffffffffffffffffffffffffffffff168152602001908152602001600020541015611bf7576040517f08c379a0000000000000000000000000000000000000000000000000000000008152600401611bee906129a8565b60405180910390fd5b80600260008473ffffffffffffffffffffffffffffffffffffffff1673ffffffffffffffffffffffffffffffffffffffff1681526020019081526020016000206000828254611c46919061242c565b925050819055508060016000828254611c5f919061242c565b92505081905550600073ffffffffffffffffffffffffffffffffffffffff168273ffffffffffffffffffffffffffffffffffffffff167fddf252ad1be2c89b69c2b068fc378daa952ba7f163c4a11628f55a4df523b3ef83604051611cc49190612183565b60405180910390a35050565b8160098190555080600a819055505050565b600260065403611d1e576040517f3ee5aeb500000000000000000000000000000000000000000000000000000000815260040160405180910390fd5b6002600681905550565b600060018211611d3a57819050611ec0565b60008290506000600190507001000000000000000000000000000000008210611d6c57608082901c9150604081901b90505b680100000000000000008210611d8b57604082901c9150602081901b90505b6401000000008210611da657602082901c9150601081901b90505b620100008210611dbf57601082901c9150600881901b90505b6101008210611dd757600882901c9150600481901b90505b60108210611dee57600482901c9150600281901b90505b60048210611dfe57600181901b90505b600181600302901c90506001818581611e1a57611e19612584565b5b048201901c90506001818581611e3357611e32612584565b5b048201901c90506001818581611e4c57611e4b612584565b5b048201901c90506001818581611e6557611e64612584565b5b048201901c90506001818581611e7e57611e7d612584565b5b048201901c90506001818581611e9757611e96612584565b5b048201901c9050611eb9818581611eb157611eb0612584565b5b048211611ee6565b8103925050505b919050565b6000611ed48284108484611ef2565b905092915050565b6001600681905550565b60008115159050919050565b6000611efd84611ee6565b82841802821890509392505050565b600081519050919050565b600082825260208201905092915050565b60005b83811015611f46578082015181840152602081019050611f2b565b60008484015250505050565b6000601f19601f8301169050919050565b6000611f6e82611f0c565b611f788185611f17565b9350611f88818560208601611f28565b611f9181611f52565b840191505092915050565b60006020820190508181036000830152611fb68184611f63565b905092915050565b600080fd5b600073ffffffffffffffffffffffffffffffffffffffff82169050919050565b6000611fee82611fc3565b9050919050565b611ffe81611fe3565b811461200957600080fd5b50565b60008135905061201b81611ff5565b92915050565b6000819050919050565b61203481612021565b811461203f57600080fd5b50565b6000813590506120518161202b565b92915050565b6000806040838503121561206e5761206d611fbe565b5b600061207c8582860161200c565b925050602061208d85828601612042565b9150509250929050565b60008115159050919050565b6120ac81612097565b82525050565b60006020820190506120c760008301846120a3565b92915050565b6000819050919050565b60006120f26120ed6120e884611fc3565b6120cd565b611fc3565b9050919050565b6000612104826120d7565b9050919050565b6000612116826120f9565b9050919050565b6121268161210b565b82525050565b6000602082019050612141600083018461211d565b92915050565b60006020828403121561215d5761215c611fbe565b5b600061216b8482850161200c565b91505092915050565b61217d81612021565b82525050565b60006020820190506121986000830184612174565b92915050565b6000806000606084860312156121b7576121b6611fbe565b5b60006121c58682870161200c565b93505060206121d68682870161200c565b92505060406121e786828701612042565b9150509250925092565b6000806040838503121561220857612207611fbe565b5b60006122168582860161200c565b92505060206122278582860161200c565b9150509250929050565b61223a81611fe3565b82525050565b60006020820190506122556000830184612231565b92915050565b6000806040838503121561227257612271611fbe565b5b600061228085828601612042565b92505060206122918582860161200c565b9150509250929050565b6000602082840312156122b1576122b0611fbe565b5b60006122bf84828501612042565b91505092915050565b60006040820190506122dd6000830185612174565b6122ea6020830184612174565b9392505050565b6000806040838503121561230857612307611fbe565b5b600061231685828601612042565b925050602061232785828601612042565b9150509250929050565b7f4e487b7100000000000000000000000000000000000000000000000000000000600052602260045260246000fd5b6000600282049050600182168061237857607f821691505b60208210810361238b5761238a612331565b5b50919050565b7f416c6c6f77616e636520746f6f206c6f77000000000000000000000000000000600082015250565b60006123c7601183611f17565b91506123d282612391565b602082019050919050565b600060208201905081810360008301526123f6816123ba565b9050919050565b7f4e487b7100000000000000000000000000000000000000000000000000000000600052601160045260246000fd5b600061243782612021565b915061244283612021565b925082820390508181111561245a576124596123fd565b5b92915050565b600061246b82612021565b915061247683612021565b925082820190508082111561248e5761248d6123fd565b5b92915050565b7f4e6f7420616e206f776e64657221000000000000000000000000000000000000600082015250565b60006124ca600e83611f17565b91506124d582612494565b602082019050919050565b600060208201905081810360008301526124f9816124bd565b9050919050565b60008151905061250f8161202b565b92915050565b60006020828403121561252b5761252a611fbe565b5b600061253984828501612500565b91505092915050565b600061254d82612021565b915061255883612021565b925082820261256681612021565b9150828204841483151761257d5761257c6123fd565b5b5092915050565b7f4e487b7100000000000000000000000000000000000000000000000000000000600052601260045260246000fd5b60006125be82612021565b91506125c983612021565b9250826125d9576125d8612584565b5b828204905092915050565b7f696e76616c69642062616c616e63650000000000000000000000000000000000600082015250565b600061261a600f83611f17565b9150612625826125e4565b602082019050919050565b600060208201905081810360008301526126498161260d565b9050919050565b60006040820190506126656000830185612231565b6126726020830184612174565b9392505050565b61268281612097565b811461268d57600080fd5b50565b60008151905061269f81612679565b92915050565b6000602082840312156126bb576126ba611fbe565b5b60006126c984828501612690565b91505092915050565b60006060820190506126e76000830186612231565b6126f46020830185612231565b6127016040830184612174565b949350505050565b7f78202a207920213d206478202a20647900000000000000000000000000000000600082015250565b600061273f601083611f17565b915061274a82612709565b602082019050919050565b6000602082019050818103600083015261276e81612732565b9050919050565b7f736861726573203d300000000000000000000000000000000000000000000000600082015250565b60006127ab600983611f17565b91506127b682612775565b602082019050919050565b600060208201905081810360008301526127da8161279e565b9050919050565b60006060820190506127f66000830186612174565b6128036020830185612174565b6128106040830184612174565b949350505050565b7f4e6f7420656e6f75676820746f6b656e73210000000000000000000000000000600082015250565b600061284e601283611f17565b915061285982612818565b602082019050919050565b6000602082019050818103600083015261287d81612841565b9050919050565b7f696e76616c696420746f6b656e21000000000000000000000000000000000000600082015250565b60006128ba600e83611f17565b91506128c582612884565b602082019050919050565b600060208201905081810360008301526128e9816128ad565b9050919050565b7f616d6f756e74206d757374206265203e30210000000000000000000000000000600082015250565b6000612926601283611f17565b9150612931826128f0565b602082019050919050565b6000602082019050818103600083015261295581612919565b9050919050565b7f4e6f7420656e6f75676820746f6b656e7320746f206275726e00000000000000600082015250565b6000612992601983611f17565b915061299d8261295c565b602082019050919050565b600060208201905081810360008301526129c181612985565b905091905056fea2646970667358221220a05a1e18bcd680a4f0f7fcbc9cb08e674fe358c07fa71aedeebcd29950f4e08264736f6c634300081d0033",
  "linkReferences": {},
  "deployedLinkReferences": {}
}