{
  "_format": "hh-sol-artifact-1",
  "contractName": "AMM",
  "sourceName": "contracts/AMM.sol",
  "abi": [
    {
      "inputs": [
        {
          "internalType": "address",
          "name": "_tokenA",
          "type": "address"
        },
        {
          "internalType": "address",
          "name": "_tokenB",
          "type": "address"
        }
      ],
      "stateMutability": "nonpayable",
      "type": "constructor"
    },
    {
      "inputs": [],
      "name": "AccessControlBadConfirmation",
      "type": "error"
    },
    {
      "inputs": [
        {
          "internalType": "address",
          "name": "account",
          "type": "address"
        },
        {
          "internalType": "bytes32",
          "name": "neededRole",
          "type": "bytes32"
        }
      ],
      "name": "AccessControlUnauthorizedAccount",
      "type": "error"
    },
    {
      "inputs": [],
      "name": "ReentrancyGuardReentrantCall",
      "type": "error"
    },
    {
      "anonymous": false,
      "inputs": [
        {
          "indexed": true,
          "internalType": "address",
          "name": "owner",
          "type": "address"
        },
        {
          "indexed": true,
          "internalType": "address",
          "name": "spender",
          "type": "address"
        },
        {
          "indexed": false,
          "internalType": "uint256",
          "name": "amount",
          "type": "uint256"
        }
      ],
      "name": "Approval",
      "type": "event"
    },
    {
      "anonymous": false,
      "inputs": [
        {
          "indexed": true,
          "internalType": "address",
          "name": "provider",
          "type": "address"
        },
        {
          "indexed": false,
          "internalType": "uint256",
          "name": "amountA",
          "type": "uint256"
        },
        {
          "indexed": false,
          "internalType": "uint256",
          "name": "amountB",
          "type": "uint256"
        },
        {
          "indexed": false,
          "internalType": "uint256",
          "name": "shares",
          "type": "uint256"
        }
      ],
      "name": "LiquidityAdded",
      "type": "event"
    },
    {
      "anonymous": false,
      "inputs": [
        {
          "indexed": true,
          "internalType": "bytes32",
          "name": "role",
          "type": "bytes32"
        },
        {
          "indexed": true,
          "internalType": "bytes32",
          "name": "previousAdminRole",
          "type": "bytes32"
        },
        {
          "indexed": true,
          "internalType": "bytes32",
          "name": "newAdminRole",
          "type": "bytes32"
        }
      ],
      "name": "RoleAdminChanged",
      "type": "event"
    },
    {
      "anonymous": false,
      "inputs": [
        {
          "indexed": true,
          "internalType": "bytes32",
          "name": "role",
          "type": "bytes32"
        },
        {
          "indexed": true,
          "internalType": "address",
          "name": "account",
          "type": "address"
        },
        {
          "indexed": true,
          "internalType": "address",
          "name": "sender",
          "type": "address"
        }
      ],
      "name": "RoleGranted",
      "type": "event"
    },
    {
      "anonymous": false,
      "inputs": [
        {
          "indexed": true,
          "internalType": "bytes32",
          "name": "role",
          "type": "bytes32"
        },
        {
          "indexed": true,
          "internalType": "address",
          "name": "account",
          "type": "address"
        },
        {
          "indexed": true,
          "internalType": "address",
          "name": "sender",
          "type": "address"
        }
      ],
      "name": "RoleRevoked",
      "type": "event"
    },
    {
      "anonymous": false,
      "inputs": [
        {
          "indexed": false,
          "internalType": "address",
          "name": "recipient",
          "type": "address"
        },
        {
          "indexed": false,
          "internalType": "uint256",
          "name": "amount",
          "type": "uint256"
        }
      ],
      "name": "TokenSwaped",
      "type": "event"
    },
    {
      "anonymous": false,
      "inputs": [
        {
          "indexed": true,
          "internalType": "address",
          "name": "from",
          "type": "address"
        },
        {
          "indexed": true,
          "internalType": "address",
          "name": "to",
          "type": "address"
        },
        {
          "indexed": false,
          "internalType": "uint256",
          "name": "amount",
          "type": "uint256"
        }
      ],
      "name": "Transfer",
      "type": "event"
    },
    {
      "inputs": [],
      "name": "DEFAULT_ADMIN_ROLE",
      "outputs": [
        {
          "internalType": "bytes32",
          "name": "",
          "type": "bytes32"
        }
      ],
      "stateMutability": "view",
      "type": "function"
    },
    {
      "inputs": [],
      "name": "MINTER_ROLE",
      "outputs": [
        {
          "internalType": "bytes32",
          "name": "",
          "type": "bytes32"
        }
      ],
      "stateMutability": "view",
      "type": "function"
    },
    {
      "inputs": [
        {
          "internalType": "uint256",
          "name": "_amountA",
          "type": "uint256"
        },
        {
          "internalType": "uint256",
          "name": "_amountB",
          "type": "uint256"
        }
      ],
      "name": "addLiquidity",
      "outputs": [
        {
          "internalType": "uint256",
          "name": "shares",
          "type": "uint256"
        }
      ],
      "stateMutability": "payable",
      "type": "function"
    },
    {
      "inputs": [
        {
          "internalType": "address",
          "name": "_owner",
          "type": "address"
        },
        {
          "internalType": "address",
          "name": "spender",
          "type": "address"
        }
      ],
      "name": "allowance",
      "outputs": [
        {
          "internalType": "uint256",
          "name": "",
          "type": "uint256"
        }
      ],
      "stateMutability": "view",
      "type": "function"
    },
    {
      "inputs": [
        {
          "internalType": "address",
          "name": "",
          "type": "address"
        },
        {
          "internalType": "address",
          "name": "",
          "type": "address"
        }
      ],
      "name": "allowances",
      "outputs": [
        {
          "internalType": "uint256",
          "name": "",
          "type": "uint256"
        }
      ],
      "stateMutability": "view",
      "type": "function"
    },
    {
      "inputs": [
        {
          "internalType": "address",
          "name": "spender",
          "type": "address"
        },
        {
          "internalType": "uint256",
          "name": "amount",
          "type": "uint256"
        }
      ],
      "name": "approve",
      "outputs": [
        {
          "internalType": "bool",
          "name": "",
          "type": "bool"
        }
      ],
      "stateMutability": "nonpayable",
      "type": "function"
    },
    {
      "inputs": [
        {
          "internalType": "address",
          "name": "account",
          "type": "address"
        }
      ],
      "name": "balanceOf",
      "outputs": [
        {
          "internalType": "uint256",
          "name": "",
          "type": "uint256"
        }
      ],
      "stateMutability": "view",
      "type": "function"
    },
    {
      "inputs": [
        {
          "internalType": "address",
          "name": "",
          "type": "address"
        }
      ],
      "name": "balanceOfaccount",
      "outputs": [
        {
          "internalType": "uint256",
          "name": "",
          "type": "uint256"
        }
      ],
      "stateMutability": "view",
      "type": "function"
    },
    {
      "inputs": [
        {
          "internalType": "address",
          "name": "",
          "type": "address"
        }
      ],
      "name": "balances",
      "outputs": [
        {
          "internalType": "uint256",
          "name": "",
          "type": "uint256"
        }
      ],
      "stateMutability": "view",
      "type": "function"
    },
    {
      "inputs": [],
      "name": "decimals",
      "outputs": [
        {
          "internalType": "uint256",
          "name": "",
          "type": "uint256"
        }
      ],
      "stateMutability": "pure",
      "type": "function"
    },
    {
      "inputs": [
        {
          "internalType": "bytes32",
          "name": "role",
          "type": "bytes32"
        }
      ],
      "name": "getRoleAdmin",
      "outputs": [
        {
          "internalType": "bytes32",
          "name": "",
          "type": "bytes32"
        }
      ],
      "stateMutability": "view",
      "type": "function"
    },
    {
      "inputs": [
        {
          "internalType": "bytes32",
          "name": "role",
          "type": "bytes32"
        },
        {
          "internalType": "address",
          "name": "account",
          "type": "address"
        }
      ],
      "name": "grantRole",
      "outputs": [],
      "stateMutability": "nonpayable",
      "type": "function"
    },
    {
      "inputs": [
        {
          "internalType": "bytes32",
          "name": "role",
          "type": "bytes32"
        },
        {
          "internalType": "address",
          "name": "account",
          "type": "address"
        }
      ],
      "name": "hasRole",
      "outputs": [
        {
          "internalType": "bool",
          "name": "",
          "type": "bool"
        }
      ],
      "stateMutability": "view",
      "type": "function"
    },
    {
      "inputs": [
        {
          "internalType": "uint256",
          "name": "amount",
          "type": "uint256"
        },
        {
          "internalType": "address",
          "name": "to",
          "type": "address"
        }
      ],
      "name": "mint",
      "outputs": [],
      "stateMutability": "nonpayable",
      "type": "function"
    },
    {
      "inputs": [],
      "name": "name",
      "outputs": [
        {
          "internalType": "string",
          "name": "",
          "type": "string"
        }
      ],
      "stateMutability": "view",
      "type": "function"
    },
    {
      "inputs": [],
      "name": "owner",
      "outputs": [
        {
          "internalType": "address",
          "name": "",
          "type": "address"
        }
      ],
      "stateMutability": "view",
      "type": "function"
    },
    {
      "inputs": [
        {
          "internalType": "uint256",
          "name": "_shares",
          "type": "uint256"
        }
      ],
      "name": "removeLiquidity",
      "outputs": [
        {
          "internalType": "uint256",
          "name": "amountA",
          "type": "uint256"
        },
        {
          "internalType": "uint256",
          "name": "amountB",
          "type": "uint256"
        }
      ],
      "stateMutability": "nonpayable",
      "type": "function"
    },
    {
      "inputs": [
        {
          "internalType": "bytes32",
          "name": "role",
          "type": "bytes32"
        },
        {
          "internalType": "address",
          "name": "callerConfirmation",
          "type": "address"
        }
      ],
      "name": "renounceRole",
      "outputs": [],
      "stateMutability": "nonpayable",
      "type": "function"
    },
    {
      "inputs": [
        {
          "internalType": "bytes32",
          "name": "role",
          "type": "bytes32"
        },
        {
          "internalType": "address",
          "name": "account",
          "type": "address"
        }
      ],
      "name": "revokeRole",
      "outputs": [],
      "stateMutability": "nonpayable",
      "type": "function"
    },
    {
      "inputs": [
        {
          "internalType": "bytes4",
          "name": "interfaceId",
          "type": "bytes4"
        }
      ],
      "name": "supportsInterface",
      "outputs": [
        {
          "internalType": "bool",
          "name": "",
          "type": "bool"
        }
      ],
      "stateMutability": "view",
      "type": "function"
    },
    {
      "inputs": [
        {
          "internalType": "address",
          "name": "_tokenIn",
          "type": "address"
        },
        {
          "internalType": "uint256",
          "name": "_amountIn",
          "type": "uint256"
        }
      ],
      "name": "swap",
      "outputs": [
        {
          "internalType": "uint256",
          "name": "_amountOut",
          "type": "uint256"
        }
      ],
      "stateMutability": "nonpayable",
      "type": "function"
    },
    {
      "inputs": [],
      "name": "symbol",
      "outputs": [
        {
          "internalType": "string",
          "name": "",
          "type": "string"
        }
      ],
      "stateMutability": "view",
      "type": "function"
    },
    {
      "inputs": [],
      "name": "tokenA",
      "outputs": [
        {
          "internalType": "contract ERC20Base",
          "name": "",
          "type": "address"
        }
      ],
      "stateMutability": "view",
      "type": "function"
    },
    {
      "inputs": [],
      "name": "tokenAreserve",
      "outputs": [
        {
          "internalType": "uint256",
          "name": "",
          "type": "uint256"
        }
      ],
      "stateMutability": "view",
      "type": "function"
    },
    {
      "inputs": [],
      "name": "tokenB",
      "outputs": [
        {
          "internalType": "contract ERC20Base",
          "name": "",
          "type": "address"
        }
      ],
      "stateMutability": "view",
      "type": "function"
    },
    {
      "inputs": [],
      "name": "tokenBreserve",
      "outputs": [
        {
          "internalType": "uint256",
          "name": "",
          "type": "uint256"
        }
      ],
      "stateMutability": "view",
      "type": "function"
    },
    {
      "inputs": [],
      "name": "totalSupply",
      "outputs": [
        {
          "internalType": "uint256",
          "name": "",
          "type": "uint256"
        }
      ],
      "stateMutability": "view",
      "type": "function"
    },
    {
      "inputs": [],
      "name": "totalTokens",
      "outputs": [
        {
          "internalType": "uint256",
          "name": "",
          "type": "uint256"
        }
      ],
      "stateMutability": "view",
      "type": "function"
    },
    {
      "inputs": [
        {
          "internalType": "address",
          "name": "to",
          "type": "address"
        },
        {
          "internalType": "uint256",
          "name": "amount",
          "type": "uint256"
        }
      ],
      "name": "transfer",
      "outputs": [
        {
          "internalType": "bool",
          "name": "",
          "type": "bool"
        }
      ],
      "stateMutability": "nonpayable",
      "type": "function"
    },
    {
      "inputs": [
        {
          "internalType": "address",
          "name": "sender",
          "type": "address"
        },
        {
          "internalType": "address",
          "name": "recipient",
          "type": "address"
        },
        {
          "internalType": "uint256",
          "name": "amount",
          "type": "uint256"
        }
      ],
      "name": "transferFrom",
      "outputs": [
        {
          "internalType": "bool",
          "name": "",
          "type": "bool"
        }
      ],
      "stateMutability": "nonpayable",
      "type": "function"
    }
  ],
  "bytecode": "0x608060405234801561001057600080fd5b506040516149c33803806149c3833981810160405281019061003291906106d6565b6040518060400160405280600881526020017f4c5020546f6b656e0000000000000000000000000000000000000000000000008152506040518060400160405280600381526020017f4c505400000000000000000000000000000000000000000000000000000000008152506000336100bb67095b155cf6d9c19060c01b61033e60201b60201c565b6100d567c48a048845c04e0360c01b61033e60201b60201c565b83600590816100e49190610966565b506100ff67fce4add7a47cd1de60c01b61033e60201b60201c565b826006908161010e9190610966565b50610129675d77481302ee259460c01b61033e60201b60201c565b33600160006101000a81548173ffffffffffffffffffffffffffffffffffffffff021916908373ffffffffffffffffffffffffffffffffffffffff1602179055506101846798ecce922869863060c01b61033e60201b60201c565b61019e6792c70149599dcb6060c01b61033e60201b60201c565b6101b16000801b3361034160201b60201c565b506101cc6795d7b506648afe1560c01b61033e60201b60201c565b6101e667a05bb122d9d2c7b960c01b61033e60201b60201c565b6102167f9f2df0fed2c77648de5860a4cc508cd0818c85b8b8a1ab4ceeef8d981c8956a63361034160201b60201c565b5061023167e1011750af3a833060c01b61033e60201b60201c565b61024b67d43df1072bb8661160c01b61033e60201b60201c565b61025b828261043e60201b60201c565b505050506001600781905550610281676b67551a366f29f260c01b6105df60201b60201c565b61029b674b3a32456f401bd160c01b6105df60201b60201c565b81600860006101000a81548173ffffffffffffffffffffffffffffffffffffffff021916908373ffffffffffffffffffffffffffffffffffffffff1602179055506102f6676c088af579b5d78560c01b6105df60201b60201c565b80600960006101000a81548173ffffffffffffffffffffffffffffffffffffffff021916908373ffffffffffffffffffffffffffffffffffffffff1602179055505050610ac5565b50565b600061035383836105e260201b60201c565b61043357600160008085815260200190815260200160002060000160008473ffffffffffffffffffffffffffffffffffffffff1673ffffffffffffffffffffffffffffffffffffffff16815260200190815260200160002060006101000a81548160ff0219169083151502179055506103d061064c60201b60201c565b73ffffffffffffffffffffffffffffffffffffffff168273ffffffffffffffffffffffffffffffffffffffff16847f2f8788117e7eff1d82e926ec794901d17c78024a50270940304540a733656f0d60405160405180910390a460019050610438565b600090505b92915050565b610458675a8a94001b57559a60c01b61033e60201b60201c565b61047267b449d6c2b7c71e2060c01b61033e60201b60201c565b61048c670efe204c2570e34260c01b61033e60201b60201c565b61049e6000828461065460201b60201c565b6104b867240778decfadd69360c01b61033e60201b60201c565b81600260008282546104ca9190610a67565b925050819055506104eb67263f0bab53cedc9260c01b61033e60201b60201c565b81600360008373ffffffffffffffffffffffffffffffffffffffff1673ffffffffffffffffffffffffffffffffffffffff168152602001908152602001600020600082825461053a9190610a67565b9250508190555061055b6760beb66d330b2f9f60c01b61033e60201b60201c565b6105756766710ce464cfd5df60c01b61033e60201b60201c565b8073ffffffffffffffffffffffffffffffffffffffff16600073ffffffffffffffffffffffffffffffffffffffff167fddf252ad1be2c89b69c2b068fc378daa952ba7f163c4a11628f55a4df523b3ef846040516105d39190610aaa565b60405180910390a35050565b50565b600080600084815260200190815260200160002060000160008373ffffffffffffffffffffffffffffffffffffffff1673ffffffffffffffffffffffffffffffffffffffff16815260200190815260200160002060009054906101000a900460ff16905092915050565b600033905090565b61066e678bc2096aa525334360c01b61033e60201b60201c565b505050565b600080fd5b600073ffffffffffffffffffffffffffffffffffffffff82169050919050565b60006106a382610678565b9050919050565b6106b381610698565b81146106be57600080fd5b50565b6000815190506106d0816106aa565b92915050565b600080604083850312156106ed576106ec610673565b5b60006106fb858286016106c1565b925050602061070c858286016106c1565b9150509250929050565b600081519050919050565b7f4e487b7100000000000000000000000000000000000000000000000000000000600052604160045260246000fd5b7f4e487b7100000000000000000000000000000000000000000000000000000000600052602260045260246000fd5b6000600282049050600182168061079757607f821691505b6020821081036107aa576107a9610750565b5b50919050565b60008190508160005260206000209050919050565b60006020601f8301049050919050565b600082821b905092915050565b6000600883026108127fffffffffffffffffffffffffffffffffffffffffffffffffffffffffffffffff826107d5565b61081c86836107d5565b95508019841693508086168417925050509392505050565b6000819050919050565b6000819050919050565b600061086361085e61085984610834565b61083e565b610834565b9050919050565b6000819050919050565b61087d83610848565b6108916108898261086a565b8484546107e2565b825550505050565b600090565b6108a6610899565b6108b1818484610874565b505050565b5b818110156108d5576108ca60008261089e565b6001810190506108b7565b5050565b601f82111561091a576108eb816107b0565b6108f4846107c5565b81016020851015610903578190505b61091761090f856107c5565b8301826108b6565b50505b505050565b600082821c905092915050565b600061093d6000198460080261091f565b1980831691505092915050565b6000610956838361092c565b9150826002028217905092915050565b61096f82610716565b67ffffffffffffffff81111561098857610987610721565b5b610992825461077f565b61099d8282856108d9565b600060209050601f8311600181146109d057600084156109be578287015190505b6109c8858261094a565b865550610a30565b601f1984166109de866107b0565b60005b82811015610a06578489015182556001820191506020850194506020810190506109e1565b86831015610a235784890151610a1f601f89168261092c565b8355505b6001600288020188555050505b505050505050565b7f4e487b7100000000000000000000000000000000000000000000000000000000600052601160045260246000fd5b6000610a7282610834565b9150610a7d83610834565b9250828201905080821115610a9557610a94610a38565b5b92915050565b610aa481610834565b82525050565b6000602082019050610abf6000830184610a9b565b92915050565b613eef80610ad46000396000f3fe6080604052600436106101cd5760003560e01c806370a08231116100f75780639c8f9f2311610095578063d004f0f711610064578063d004f0f7146106f6578063d539139314610733578063d547741f1461075e578063dd62ed3e14610787576101cd565b80639c8f9f23146106205780639cd441da1461065e578063a217fddf1461068e578063a9059cbb146106b9576101cd565b80638da5cb5b116100d15780638da5cb5b1461056457806391d148541461058f57806394bf804d146105cc57806395d89b41146105f5576101cd565b806370a08231146104d15780637e1c0c091461050e57806380d7af2814610539576101cd565b806323b872dd1161016f578063313ce5671161013e578063313ce5671461041557806336568abe1461044057806355b6ed5c146104695780635f64b55b146104a6576101cd565b806323b872dd14610335578063248a9ca31461037257806327e235e3146103af5780632f2ff15d146103ec576101cd565b80630fc63d10116101ab5780630fc63d101461027757806317581e84146102a257806318160ddd146102df5780631bc8ef961461030a576101cd565b806301ffc9a7146101d257806306fdde031461020f578063095ea7b31461023a575b600080fd5b3480156101de57600080fd5b506101f960048036038101906101f49190613325565b6107c4565b604051610206919061336d565b60405180910390f35b34801561021b57600080fd5b5061022461083e565b6040516102319190613418565b60405180910390f35b34801561024657600080fd5b50610261600480360381019061025c91906134ce565b61090c565b60405161026e919061336d565b60405180910390f35b34801561028357600080fd5b5061028c610987565b604051610299919061356d565b60405180910390f35b3480156102ae57600080fd5b506102c960048036038101906102c49190613588565b6109ad565b6040516102d691906135c4565b60405180910390f35b3480156102eb57600080fd5b506102f46109c5565b60405161030191906135c4565b60405180910390f35b34801561031657600080fd5b5061031f610a0b565b60405161032c91906135c4565b60405180910390f35b34801561034157600080fd5b5061035c600480360381019061035791906135df565b610a11565b604051610369919061336d565b60405180910390f35b34801561037e57600080fd5b5061039960048036038101906103949190613668565b610da4565b6040516103a691906136a4565b60405180910390f35b3480156103bb57600080fd5b506103d660048036038101906103d19190613588565b610dc3565b6040516103e391906135c4565b60405180910390f35b3480156103f857600080fd5b50610413600480360381019061040e91906136bf565b610ddb565b005b34801561042157600080fd5b5061042a610dfd565b60405161043791906135c4565b60405180910390f35b34801561044c57600080fd5b50610467600480360381019061046291906136bf565b610e41565b005b34801561047557600080fd5b50610490600480360381019061048b91906136ff565b610ebc565b60405161049d91906135c4565b60405180910390f35b3480156104b257600080fd5b506104bb610ee1565b6040516104c8919061356d565b60405180910390f35b3480156104dd57600080fd5b506104f860048036038101906104f39190613588565b610f07565b60405161050591906135c4565b60405180910390f35b34801561051a57600080fd5b50610523610f8c565b60405161053091906135c4565b60405180910390f35b34801561054557600080fd5b5061054e610f92565b60405161055b91906135c4565b60405180910390f35b34801561057057600080fd5b50610579610f98565b604051610586919061374e565b60405180910390f35b34801561059b57600080fd5b506105b660048036038101906105b191906136bf565b610fbe565b6040516105c3919061336d565b60405180910390f35b3480156105d857600080fd5b506105f360048036038101906105ee9190613769565b611028565b005b34801561060157600080fd5b5061060a6110c5565b6040516106179190613418565b60405180910390f35b34801561062c57600080fd5b50610647600480360381019061064291906137a9565b611193565b6040516106559291906137d6565b60405180910390f35b610678600480360381019061067391906137ff565b611682565b60405161068591906135c4565b60405180910390f35b34801561069a57600080fd5b506106a3611d51565b6040516106b091906136a4565b60405180910390f35b3480156106c557600080fd5b506106e060048036038101906106db91906134ce565b611d58565b6040516106ed919061336d565b60405180910390f35b34801561070257600080fd5b5061071d600480360381019061071891906134ce565b612023565b60405161072a91906135c4565b60405180910390f35b34801561073f57600080fd5b5061074861276d565b60405161075591906136a4565b60405180910390f35b34801561076a57600080fd5b50610785600480360381019061078091906136bf565b612791565b005b34801561079357600080fd5b506107ae60048036038101906107a991906136ff565b6127b3565b6040516107bb91906135c4565b60405180910390f35b60007f7965db0b000000000000000000000000000000000000000000000000000000007bffffffffffffffffffffffffffffffffffffffffffffffffffffffff1916827bffffffffffffffffffffffffffffffffffffffffffffffffffffffff19161480610837575061083682612876565b5b9050919050565b606061085467416512be65a24bb060c01b6128e0565b61086867728b032badea352160c01b6128e0565b61087c67049230eb3811d36e60c01b6128e0565b600580546108899061386e565b80601f01602080910402602001604051908101604052809291908181526020018280546108b59061386e565b80156109025780601f106108d757610100808354040283529160200191610902565b820191906000526020600020905b8154815290600101906020018083116108e557829003601f168201915b5050505050905090565b600061092267a305ccb493bf739660c01b6128e0565b61093667c4f4dfeedaf1d63260c01b6128e0565b61094a67ed9dcc78ac313ec760c01b6128e0565b6109553384846128e3565b61096967a8fba518191363c560c01b6128e0565b61097d67c7c4fc7fd49a8b9560c01b6128e0565b6001905092915050565b600860009054906101000a900473ffffffffffffffffffffffffffffffffffffffff1681565b600c6020528060005260406000206000915090505481565b60006109db67dcf87b56d98bd0af60c01b6128e0565b6109ef673cd1b1882289cb2460c01b6128e0565b610a03677637f504e950c2ac60c01b6128e0565b600254905090565b600a5481565b6000610a27673ad24d2ef20178cf60c01b6128e0565b610a3b679271f925335bd6d560c01b6128e0565b610a4f67fbd0b2cb35e254c160c01b6128e0565b610a63673a5dc271bc68ec5660c01b6128e0565b81600460008673ffffffffffffffffffffffffffffffffffffffff1673ffffffffffffffffffffffffffffffffffffffff16815260200190815260200160002060003373ffffffffffffffffffffffffffffffffffffffff1673ffffffffffffffffffffffffffffffffffffffff168152602001908152602001600020541015610b22576040517f08c379a0000000000000000000000000000000000000000000000000000000008152600401610b19906138eb565b60405180910390fd5b610b36676c07fe1d0ff2a7d160c01b6128e0565b610b4a67749f5af00f7bd82460c01b6128e0565b610b5e67e7e9deaeb0f9d19060c01b6128e0565b610b69848484612a1e565b610b7d6708c4a2eb2eeed7fd60c01b6128e0565b81600460008673ffffffffffffffffffffffffffffffffffffffff1673ffffffffffffffffffffffffffffffffffffffff16815260200190815260200160002060003373ffffffffffffffffffffffffffffffffffffffff1673ffffffffffffffffffffffffffffffffffffffff1681526020019081526020016000206000828254610c09919061393a565b92505081905550610c2467f39e25129c485aef60c01b6128e0565b81600360008673ffffffffffffffffffffffffffffffffffffffff1673ffffffffffffffffffffffffffffffffffffffff1681526020019081526020016000206000828254610c73919061393a565b92505081905550610c8e672d7c712fc796569d60c01b6128e0565b81600360008573ffffffffffffffffffffffffffffffffffffffff1673ffffffffffffffffffffffffffffffffffffffff1681526020019081526020016000206000828254610cdd919061396e565b92505081905550610cf867bf7ae113320d77e260c01b6128e0565b610d0c670a14e011512fe04960c01b6128e0565b8273ffffffffffffffffffffffffffffffffffffffff168473ffffffffffffffffffffffffffffffffffffffff167fddf252ad1be2c89b69c2b068fc378daa952ba7f163c4a11628f55a4df523b3ef84604051610d6991906135c4565b60405180910390a3610d856767a435d0b83cdd5b60c01b6128e0565b610d99671d1885812e9f441360c01b6128e0565b600190509392505050565b6000806000838152602001908152602001600020600101549050919050565b60036020528060005260406000206000915090505481565b610de482610da4565b610ded81612a37565b610df78383612a4b565b50505050565b6000610e12669077671fcafd6960c01b6128e0565b610e2667f3ea140b4e17653f60c01b6128e0565b610e3a6767b0c3a7c958fcd460c01b6128e0565b6012905090565b610e49612b3c565b73ffffffffffffffffffffffffffffffffffffffff168173ffffffffffffffffffffffffffffffffffffffff1614610ead576040517f6697b23200000000000000000000000000000000000000000000000000000000815260040160405180910390fd5b610eb78282612b44565b505050565b6004602052816000526040600020602052806000526040600020600091509150505481565b600960009054906101000a900473ffffffffffffffffffffffffffffffffffffffff1681565b6000610f1d67fb45b114467e2bcb60c01b6128e0565b610f31671c84f10f6ac177cf60c01b6128e0565b610f4567ae92cb35ecf7e0ca60c01b6128e0565b600360008373ffffffffffffffffffffffffffffffffffffffff1673ffffffffffffffffffffffffffffffffffffffff168152602001908152602001600020549050919050565b60025481565b600b5481565b600160009054906101000a900473ffffffffffffffffffffffffffffffffffffffff1681565b600080600084815260200190815260200160002060000160008373ffffffffffffffffffffffffffffffffffffffff1673ffffffffffffffffffffffffffffffffffffffff16815260200190815260200160002060009054906101000a900460ff16905092915050565b61103c67ee90cb3f2bbeebf260c01b6128e0565b7f9f2df0fed2c77648de5860a4cc508cd0818c85b8b8a1ab4ceeef8d981c8956a661106681612a37565b61107a67d88d16ea1982f15c60c01b6128e0565b61108e6722b8b7c30427c68a60c01b6128e0565b6110a2670847c58224fcee5c60c01b6128e0565b6110b6672f1fbc009e1f483260c01b6128e0565b6110c08383612c36565b505050565b60606110db673fb88017a9a1e78960c01b6128e0565b6110ef67c5a7d0064792ee1f60c01b6128e0565b61110367f9db599fc41e6d6e60c01b6128e0565b600680546111109061386e565b80601f016020809104026020016040519081016040528092919081815260200182805461113c9061386e565b80156111895780601f1061115e57610100808354040283529160200191611189565b820191906000526020600020905b81548152906001019060200180831161116c57829003601f168201915b5050505050905090565b6000806111aa6752bb217b07e2becc60c01b612da7565b6111be67ba42cb841dc1b4cd60c01b612da7565b6111d267382d5297f0b5bd5b60c01b612da7565b6000600860009054906101000a900473ffffffffffffffffffffffffffffffffffffffff1673ffffffffffffffffffffffffffffffffffffffff166370a08231306040518263ffffffff1660e01b815260040161122f919061374e565b602060405180830381865afa15801561124c573d6000803e3d6000fd5b505050506040513d601f19601f8201168201806040525081019061127091906139b7565b9050611286671c0488ce56e51a9160c01b612da7565b61129a670f0447faf721c68860c01b612da7565b6000600960009054906101000a900473ffffffffffffffffffffffffffffffffffffffff1673ffffffffffffffffffffffffffffffffffffffff166370a08231306040518263ffffffff1660e01b81526004016112f7919061374e565b602060405180830381865afa158015611314573d6000803e3d6000fd5b505050506040513d601f19601f8201168201806040525081019061133891906139b7565b905061134e674de9541ddb0773c160c01b612da7565b611362677543f52f5dccfc3260c01b612da7565b600061136c6109c5565b838761137891906139e4565b6113829190613a55565b9050611398676a85e668c2ab098160c01b612da7565b6113ac6709428cec7d7be02860c01b612da7565b60006113b66109c5565b83886113c291906139e4565b6113cc9190613a55565b90506113e267e8229e83ccf4171660c01b612da7565b6113f6675b5a6fd5f352572760c01b612da7565b61140a6736562fe328c7cfcd60c01b612da7565b60008211801561141a5750600081115b611459576040517f08c379a000000000000000000000000000000000000000000000000000000000815260040161145090613ad2565b60405180910390fd5b61146d6784b2966e823cc13b60c01b612da7565b611481671fe7d0f0639ba03960c01b612da7565b6114956792cc45ee00cac15860c01b612da7565b61149f3388612daa565b6114b3675cfaf95bc9e411aa60c01b612da7565b6114c7676ffdcbda6ea756a960c01b612da7565b6114e782856114d6919061393a565b82856114e2919061393a565b612fed565b6114fb6753d1ba3b041c458960c01b612da7565b61150f67548885cbbb75465760c01b612da7565b600860009054906101000a900473ffffffffffffffffffffffffffffffffffffffff1673ffffffffffffffffffffffffffffffffffffffff1663a9059cbb33846040518363ffffffff1660e01b815260040161156c929190613af2565b6020604051808303816000875af115801561158b573d6000803e3d6000fd5b505050506040513d601f19601f820116820180604052508101906115af9190613b47565b506115c467862bb12328b036ef60c01b612da7565b6115d86744bfcc8d6221cd1060c01b612da7565b600960009054906101000a900473ffffffffffffffffffffffffffffffffffffffff1673ffffffffffffffffffffffffffffffffffffffff1663a9059cbb33836040518363ffffffff1660e01b8152600401611635929190613af2565b6020604051808303816000875af1158015611654573d6000803e3d6000fd5b505050506040513d601f19601f820116820180604052508101906116789190613b47565b5050505050915091565b6000611698674a70e4b2438d0f9160c01b612da7565b6116a061303b565b6116b467ce9e5b8efd6ce21c60c01b612da7565b6116c8670ca0be3f9c418e5d60c01b612da7565b6116dc672a0535bca8a4602460c01b612da7565b6116f067f78c8ac8fef354d460c01b612da7565b600860009054906101000a900473ffffffffffffffffffffffffffffffffffffffff1673ffffffffffffffffffffffffffffffffffffffff166323b872dd3330866040518463ffffffff1660e01b815260040161174f93929190613b74565b6020604051808303816000875af115801561176e573d6000803e3d6000fd5b505050506040513d601f19601f820116820180604052508101906117929190613b47565b506117a76794f95ed9e4a636bf60c01b612da7565b6117bb672c0cfecd141076b760c01b612da7565b600960009054906101000a900473ffffffffffffffffffffffffffffffffffffffff1673ffffffffffffffffffffffffffffffffffffffff166323b872dd3330856040518463ffffffff1660e01b815260040161181a93929190613b74565b6020604051808303816000875af1158015611839573d6000803e3d6000fd5b505050506040513d601f19601f8201168201806040525081019061185d9190613b47565b50611872675363006a667a561360c01b612da7565b611886679ce8ed01c72fdb8660c01b612da7565b6000600a541180156118a857506118a767ff3ac768d32bbf0860c01b613081565b5b806118d157506000600b541180156118d057506118cf67267659b15731276260c01b613081565b5b5b1561199b576118ea679e733369afb28e8360c01b612da7565b6118fe676e995c245ef6ec5360c01b612da7565b6119126725f5bdbd997dc8e660c01b612da7565b61192667c4222556b875225460c01b612da7565b81600b5461193491906139e4565b83600a5461194291906139e4565b14611982576040517f08c379a000000000000000000000000000000000000000000000000000000000815260040161197990613bf7565b60405180910390fd5b6119966755ee96679978b08e60c01b612da7565b6119b0565b6119af6747b23032c0d09ea760c01b612da7565b5b6119c46764026f8ebd45ac0d60c01b612da7565b6119d8670274e6a895d2cb7760c01b612da7565b60006119e26109c5565b03611a2a576119fb67a9c81326eeb88c8460c01b612da7565b611a0f675a26f70efa15ae1a60c01b612da7565b611a238284611a1e91906139e4565b61308c565b9050611a9d565b611a3e6720b0ada01282abc660c01b612da7565b611a52672cc20432cac1600960c01b612da7565b611a9a600a54611a606109c5565b85611a6b91906139e4565b611a759190613a55565b600b54611a806109c5565b85611a8b91906139e4565b611a959190613a55565b613229565b90505b611ab167a1b510d9d1c6683660c01b612da7565b611ac56746b09a4ae3ed5bed60c01b612da7565b611ad96742c29413bf7187ac60c01b612da7565b60008111611b1c576040517f08c379a0000000000000000000000000000000000000000000000000000000008152600401611b1390613c63565b60405180910390fd5b611b3067a7b458778bd6ea5f60c01b612da7565b611b44676e9273ddb4a23faa60c01b612da7565b611b5867bebc790a0354b41760c01b612da7565b611b628133612c36565b611b7667ca4b46765fa3d46a60c01b612da7565b611b8a675e0f69a103194c7d60c01b612da7565b611cca600860009054906101000a900473ffffffffffffffffffffffffffffffffffffffff1673ffffffffffffffffffffffffffffffffffffffff166370a08231306040518263ffffffff1660e01b8152600401611be8919061374e565b602060405180830381865afa158015611c05573d6000803e3d6000fd5b505050506040513d601f19601f82011682018060405250810190611c2991906139b7565b600960009054906101000a900473ffffffffffffffffffffffffffffffffffffffff1673ffffffffffffffffffffffffffffffffffffffff166370a08231306040518263ffffffff1660e01b8152600401611c84919061374e565b602060405180830381865afa158015611ca1573d6000803e3d6000fd5b505050506040513d601f19601f82011682018060405250810190611cc591906139b7565b612fed565b611cde677fa566cbc48c4f4260c01b612da7565b611cf166b9b42cdfdf6e0b60c01b612da7565b3373ffffffffffffffffffffffffffffffffffffffff167f64b83944e79c3ce8d4c297411de637c3e102d064677aac0c163976ebdcd6f50e848484604051611d3b93929190613c83565b60405180910390a2611d4b613240565b92915050565b6000801b81565b6000611d6e675d0dfb1aeab620ce60c01b6128e0565b3382611d84679494b21fd752516f60c01b6128e0565b611d98676bdc75efc91c5d7f60c01b6128e0565b611dac6705ab94315383c38b60c01b6128e0565b611dc067adef7acae8aadb1c60c01b6128e0565b80611dca83610f07565b1015611e0b576040517f08c379a0000000000000000000000000000000000000000000000000000000008152600401611e0290613d2c565b60405180910390fd5b611e1f675e14173d3f1a337960c01b6128e0565b611e336724970d2d233abbbd60c01b6128e0565b611e4767b6d193f2cbca0bd560c01b6128e0565b611e5b67fe0e446f0e89907160c01b6128e0565b611e6f6710b9da6ececfc09760c01b6128e0565b611e83676fd0e9243100904d60c01b6128e0565b611e8e338686612a1e565b611ea26766511f1848c1253160c01b6128e0565b83600360003373ffffffffffffffffffffffffffffffffffffffff1673ffffffffffffffffffffffffffffffffffffffff1681526020019081526020016000206000828254611ef1919061393a565b92505081905550611f0c675e405516f978a71060c01b6128e0565b83600360008773ffffffffffffffffffffffffffffffffffffffff1673ffffffffffffffffffffffffffffffffffffffff1681526020019081526020016000206000828254611f5b919061396e565b92505081905550611f76678c12e516d35cf28760c01b6128e0565b611f8a67fac498aee86bd17460c01b6128e0565b8473ffffffffffffffffffffffffffffffffffffffff163373ffffffffffffffffffffffffffffffffffffffff167fddf252ad1be2c89b69c2b068fc378daa952ba7f163c4a11628f55a4df523b3ef86604051611fe791906135c4565b60405180910390a3612003672689603fd7fa59b960c01b6128e0565b612017674524c87b0e2d1f1d60c01b6128e0565b60019250505092915050565b600061203967fbfe62145b383b9460c01b612da7565b61204d67ac98b0f51e66a35c60c01b612da7565b61206167d2ad7fc75cac9ce960c01b612da7565b61207567735193c0e6368a9560c01b612da7565b600860009054906101000a900473ffffffffffffffffffffffffffffffffffffffff1673ffffffffffffffffffffffffffffffffffffffff168373ffffffffffffffffffffffffffffffffffffffff161480156120e257506120e167f7720b222719c55460c01b613081565b5b806121565750600960009054906101000a900473ffffffffffffffffffffffffffffffffffffffff1673ffffffffffffffffffffffffffffffffffffffff168373ffffffffffffffffffffffffffffffffffffffff161480156121555750612154679134b9a9284748d060c01b613081565b5b5b612195576040517f08c379a000000000000000000000000000000000000000000000000000000000815260040161218c90613d98565b60405180910390fd5b6121a967462695870997a46a60c01b612da7565b6121bd67b5e1bcabbb344a2260c01b612da7565b6121d1679f438bc9bd1de6e460c01b612da7565b6121e567afe7efea741db1c260c01b612da7565b60008211612228576040517f08c379a000000000000000000000000000000000000000000000000000000000815260040161221f90613e04565b60405180910390fd5b61223c676fb6b23685e1502060c01b612da7565b61225067a6c8c5383631a66c60c01b612da7565b612264673b86e7be4210193960c01b612da7565b6000600860009054906101000a900473ffffffffffffffffffffffffffffffffffffffff1673ffffffffffffffffffffffffffffffffffffffff168473ffffffffffffffffffffffffffffffffffffffff161490506122cd6716dcd0ef4039504360c01b612da7565b6122e1672eae5160321bb0e060c01b612da7565b6000806000808480612303575061230267c9dbbb7303c386cb60c01b61324a565b5b801561231f575061231e67b50b9563b2b0cb7660c01b613081565b5b61237457600960009054906101000a900473ffffffffffffffffffffffffffffffffffffffff16600860009054906101000a900473ffffffffffffffffffffffffffffffffffffffff16600b54600a546123c1565b600860009054906101000a900473ffffffffffffffffffffffffffffffffffffffff16600960009054906101000a900473ffffffffffffffffffffffffffffffffffffffff16600a54600b545b93509350935093506123dd67f3a8146c342da00960c01b612da7565b6123f167caaee53c1f54e6a960c01b612da7565b8373ffffffffffffffffffffffffffffffffffffffff166323b872dd33308a6040518463ffffffff1660e01b815260040161242e93929190613b74565b6020604051808303816000875af115801561244d573d6000803e3d6000fd5b505050506040513d601f19601f820116820180604052508101906124719190613b47565b5061248667d926be8e82f05c6d60c01b612da7565b61249a67ac36e3b0b73cab7a60c01b612da7565b60006103e86103e3896124ad91906139e4565b6124b79190613a55565b90506124cd67a1d4534858f0542260c01b612da7565b80836124d9919061396e565b81836124e591906139e4565b6124ef9190613a55565b965061250567c90b6e90de382a1160c01b612da7565b61251967e3d6f5438c5286ea60c01b612da7565b8373ffffffffffffffffffffffffffffffffffffffff1663a9059cbb33896040518363ffffffff1660e01b8152600401612554929190613af2565b6020604051808303816000875af1158015612573573d6000803e3d6000fd5b505050506040513d601f19601f820116820180604052508101906125979190613b47565b506125ac679c0ad0fece6c13c860c01b612da7565b6125c067caa92e6420dbe71c60c01b612da7565b612700600860009054906101000a900473ffffffffffffffffffffffffffffffffffffffff1673ffffffffffffffffffffffffffffffffffffffff166370a08231306040518263ffffffff1660e01b815260040161261e919061374e565b602060405180830381865afa15801561263b573d6000803e3d6000fd5b505050506040513d601f19601f8201168201806040525081019061265f91906139b7565b600960009054906101000a900473ffffffffffffffffffffffffffffffffffffffff1673ffffffffffffffffffffffffffffffffffffffff166370a08231306040518263ffffffff1660e01b81526004016126ba919061374e565b602060405180830381865afa1580156126d7573d6000803e3d6000fd5b505050506040513d601f19601f820116820180604052508101906126fb91906139b7565b612fed565b61271467820b7feda0a99d9960c01b612da7565b6127286701acb7b78b6ca91560c01b612da7565b7f4c14a9ab14ad61c2cf657e5f4303c9813a10b6d630e12e480e85305ae57b37793388604051612759929190613af2565b60405180910390a150505050505092915050565b7f9f2df0fed2c77648de5860a4cc508cd0818c85b8b8a1ab4ceeef8d981c8956a681565b61279a82610da4565b6127a381612a37565b6127ad8383612b44565b50505050565b60006127c96760255968d814a67760c01b6128e0565b6127dd6772fa8d09411de6fa60c01b6128e0565b6127f16745de33cf9862fde660c01b6128e0565b600460008473ffffffffffffffffffffffffffffffffffffffff1673ffffffffffffffffffffffffffffffffffffffff16815260200190815260200160002060008373ffffffffffffffffffffffffffffffffffffffff1673ffffffffffffffffffffffffffffffffffffffff16815260200190815260200160002054905092915050565b60007f01ffc9a7000000000000000000000000000000000000000000000000000000007bffffffffffffffffffffffffffffffffffffffffffffffffffffffff1916827bffffffffffffffffffffffffffffffffffffffffffffffffffffffff1916149050919050565b50565b6128f76770220d169a18952a60c01b6128e0565b61290b67a979bf5641704cae60c01b6128e0565b80600460008573ffffffffffffffffffffffffffffffffffffffff1673ffffffffffffffffffffffffffffffffffffffff16815260200190815260200160002060008473ffffffffffffffffffffffffffffffffffffffff1673ffffffffffffffffffffffffffffffffffffffff168152602001908152602001600020819055506129a067269e78817fc1811960c01b6128e0565b6129b467a93aaf8d746ba80260c01b6128e0565b8173ffffffffffffffffffffffffffffffffffffffff168373ffffffffffffffffffffffffffffffffffffffff167f8c5be1e5ebec7d5bd14f71427d1e84f3dd0314c0f7b2291e5b200ac8c7c3b92583604051612a1191906135c4565b60405180910390a3505050565b612a32678bc2096aa525334360c01b6128e0565b505050565b612a4881612a43612b3c565b613251565b50565b6000612a578383610fbe565b612b3157600160008085815260200190815260200160002060000160008473ffffffffffffffffffffffffffffffffffffffff1673ffffffffffffffffffffffffffffffffffffffff16815260200190815260200160002060006101000a81548160ff021916908315150217905550612ace612b3c565b73ffffffffffffffffffffffffffffffffffffffff168273ffffffffffffffffffffffffffffffffffffffff16847f2f8788117e7eff1d82e926ec794901d17c78024a50270940304540a733656f0d60405160405180910390a460019050612b36565b600090505b92915050565b600033905090565b6000612b508383610fbe565b15612c2b57600080600085815260200190815260200160002060000160008473ffffffffffffffffffffffffffffffffffffffff1673ffffffffffffffffffffffffffffffffffffffff16815260200190815260200160002060006101000a81548160ff021916908315150217905550612bc8612b3c565b73ffffffffffffffffffffffffffffffffffffffff168273ffffffffffffffffffffffffffffffffffffffff16847ff6391f5c32d9c69d2a47ea670b442974b53935d1edc7fd64eb21e047a839171b60405160405180910390a460019050612c30565b600090505b92915050565b612c4a675a8a94001b57559a60c01b6128e0565b612c5e67b449d6c2b7c71e2060c01b6128e0565b612c72670efe204c2570e34260c01b6128e0565b612c7e60008284612a1e565b612c9267240778decfadd69360c01b6128e0565b8160026000828254612ca4919061396e565b92505081905550612cbf67263f0bab53cedc9260c01b6128e0565b81600360008373ffffffffffffffffffffffffffffffffffffffff1673ffffffffffffffffffffffffffffffffffffffff1681526020019081526020016000206000828254612d0e919061396e565b92505081905550612d296760beb66d330b2f9f60c01b6128e0565b612d3d6766710ce464cfd5df60c01b6128e0565b8073ffffffffffffffffffffffffffffffffffffffff16600073ffffffffffffffffffffffffffffffffffffffff167fddf252ad1be2c89b69c2b068fc378daa952ba7f163c4a11628f55a4df523b3ef84604051612d9b91906135c4565b60405180910390a35050565b50565b612dbe6798b2ef85e89789c160c01b6128e0565b612dd2677ff92e56802abfad60c01b6128e0565b612de667492a85945c00d6ee60c01b6128e0565b612df282600083612a1e565b612e066702f30127d048765660c01b6128e0565b612e1a67d04cb70834b5dc7860c01b6128e0565b612e2e67481ae834f3fb1ad160c01b6128e0565b80600360008473ffffffffffffffffffffffffffffffffffffffff1673ffffffffffffffffffffffffffffffffffffffff168152602001908152602001600020541015612eb0576040517f08c379a0000000000000000000000000000000000000000000000000000000008152600401612ea790613e70565b60405180910390fd5b612ec467fcfc9e3fdd33532160c01b6128e0565b612ed8675eb3d98d59e8d36c60c01b6128e0565b80600360008473ffffffffffffffffffffffffffffffffffffffff1673ffffffffffffffffffffffffffffffffffffffff1681526020019081526020016000206000828254612f27919061393a565b92505081905550612f42675d822f95073c2f3a60c01b6128e0565b8060026000828254612f54919061393a565b92505081905550612f6f67d324e8f1040770ec60c01b6128e0565b612f8367fc9e3c2b36ed39f060c01b6128e0565b600073ffffffffffffffffffffffffffffffffffffffff168273ffffffffffffffffffffffffffffffffffffffff167fddf252ad1be2c89b69c2b068fc378daa952ba7f163c4a11628f55a4df523b3ef83604051612fe191906135c4565b60405180910390a35050565b613001679d49734f4f48084360c01b612da7565b61301567faeed0c7e84944e160c01b612da7565b81600a8190555061303067dde8e603b54ed59960c01b612da7565b80600b819055505050565b600260075403613077576040517f3ee5aeb500000000000000000000000000000000000000000000000000000000815260040160405180910390fd5b6002600781905550565b600060019050919050565b60006001821161309e57819050613224565b600082905060006001905070010000000000000000000000000000000082106130d057608082901c9150604081901b90505b6801000000000000000082106130ef57604082901c9150602081901b90505b640100000000821061310a57602082901c9150601081901b90505b62010000821061312357601082901c9150600881901b90505b610100821061313b57600882901c9150600481901b90505b6010821061315257600482901c9150600281901b90505b6004821061316257600181901b90505b600181600302901c9050600181858161317e5761317d613a26565b5b048201901c9050600181858161319757613196613a26565b5b048201901c905060018185816131b0576131af613a26565b5b048201901c905060018185816131c9576131c8613a26565b5b048201901c905060018185816131e2576131e1613a26565b5b048201901c905060018185816131fb576131fa613a26565b5b048201901c905061321d81858161321557613214613a26565b5b0482116132a2565b8103925050505b919050565b600061323882841084846132ae565b905092915050565b6001600781905550565b6000919050565b61325b8282610fbe565b61329e5780826040517fe2517d3f000000000000000000000000000000000000000000000000000000008152600401613295929190613e90565b60405180910390fd5b5050565b60008115159050919050565b60006132b9846132a2565b82841802821890509392505050565b600080fd5b60007fffffffff0000000000000000000000000000000000000000000000000000000082169050919050565b613302816132cd565b811461330d57600080fd5b50565b60008135905061331f816132f9565b92915050565b60006020828403121561333b5761333a6132c8565b5b600061334984828501613310565b91505092915050565b60008115159050919050565b61336781613352565b82525050565b6000602082019050613382600083018461335e565b92915050565b600081519050919050565b600082825260208201905092915050565b60005b838110156133c25780820151818401526020810190506133a7565b60008484015250505050565b6000601f19601f8301169050919050565b60006133ea82613388565b6133f48185613393565b93506134048185602086016133a4565b61340d816133ce565b840191505092915050565b6000602082019050818103600083015261343281846133df565b905092915050565b600073ffffffffffffffffffffffffffffffffffffffff82169050919050565b60006134658261343a565b9050919050565b6134758161345a565b811461348057600080fd5b50565b6000813590506134928161346c565b92915050565b6000819050919050565b6134ab81613498565b81146134b657600080fd5b50565b6000813590506134c8816134a2565b92915050565b600080604083850312156134e5576134e46132c8565b5b60006134f385828601613483565b9250506020613504858286016134b9565b9150509250929050565b6000819050919050565b600061353361352e6135298461343a565b61350e565b61343a565b9050919050565b600061354582613518565b9050919050565b60006135578261353a565b9050919050565b6135678161354c565b82525050565b6000602082019050613582600083018461355e565b92915050565b60006020828403121561359e5761359d6132c8565b5b60006135ac84828501613483565b91505092915050565b6135be81613498565b82525050565b60006020820190506135d960008301846135b5565b92915050565b6000806000606084860312156135f8576135f76132c8565b5b600061360686828701613483565b935050602061361786828701613483565b9250506040613628868287016134b9565b9150509250925092565b6000819050919050565b61364581613632565b811461365057600080fd5b50565b6000813590506136628161363c565b92915050565b60006020828403121561367e5761367d6132c8565b5b600061368c84828501613653565b91505092915050565b61369e81613632565b82525050565b60006020820190506136b96000830184613695565b92915050565b600080604083850312156136d6576136d56132c8565b5b60006136e485828601613653565b92505060206136f585828601613483565b9150509250929050565b60008060408385031215613716576137156132c8565b5b600061372485828601613483565b925050602061373585828601613483565b9150509250929050565b6137488161345a565b82525050565b6000602082019050613763600083018461373f565b92915050565b600080604083850312156137805761377f6132c8565b5b600061378e858286016134b9565b925050602061379f85828601613483565b9150509250929050565b6000602082840312156137bf576137be6132c8565b5b60006137cd848285016134b9565b91505092915050565b60006040820190506137eb60008301856135b5565b6137f860208301846135b5565b9392505050565b60008060408385031215613816576138156132c8565b5b6000613824858286016134b9565b9250506020613835858286016134b9565b9150509250929050565b7f4e487b7100000000000000000000000000000000000000000000000000000000600052602260045260246000fd5b6000600282049050600182168061388657607f821691505b6020821081036138995761389861383f565b5b50919050565b7f416c6c6f77616e636520746f6f206c6f77000000000000000000000000000000600082015250565b60006138d5601183613393565b91506138e08261389f565b602082019050919050565b60006020820190508181036000830152613904816138c8565b9050919050565b7f4e487b7100000000000000000000000000000000000000000000000000000000600052601160045260246000fd5b600061394582613498565b915061395083613498565b92508282039050818111156139685761396761390b565b5b92915050565b600061397982613498565b915061398483613498565b925082820190508082111561399c5761399b61390b565b5b92915050565b6000815190506139b1816134a2565b92915050565b6000602082840312156139cd576139cc6132c8565b5b60006139db848285016139a2565b91505092915050565b60006139ef82613498565b91506139fa83613498565b9250828202613a0881613498565b91508282048414831517613a1f57613a1e61390b565b5b5092915050565b7f4e487b7100000000000000000000000000000000000000000000000000000000600052601260045260246000fd5b6000613a6082613498565b9150613a6b83613498565b925082613a7b57613a7a613a26565b5b828204905092915050565b7f696e76616c69642062616c616e63650000000000000000000000000000000000600082015250565b6000613abc600f83613393565b9150613ac782613a86565b602082019050919050565b60006020820190508181036000830152613aeb81613aaf565b9050919050565b6000604082019050613b07600083018561373f565b613b1460208301846135b5565b9392505050565b613b2481613352565b8114613b2f57600080fd5b50565b600081519050613b4181613b1b565b92915050565b600060208284031215613b5d57613b5c6132c8565b5b6000613b6b84828501613b32565b91505092915050565b6000606082019050613b89600083018661373f565b613b96602083018561373f565b613ba360408301846135b5565b949350505050565b7f78202a207920213d206478202a20647900000000000000000000000000000000600082015250565b6000613be1601083613393565b9150613bec82613bab565b602082019050919050565b60006020820190508181036000830152613c1081613bd4565b9050919050565b7f736861726573203d300000000000000000000000000000000000000000000000600082015250565b6000613c4d600983613393565b9150613c5882613c17565b602082019050919050565b60006020820190508181036000830152613c7c81613c40565b9050919050565b6000606082019050613c9860008301866135b5565b613ca560208301856135b5565b613cb260408301846135b5565b949350505050565b7f596f75206861766520746f6f206c6f7720616d6f756e74206f6620746f6b656e60008201527f7300000000000000000000000000000000000000000000000000000000000000602082015250565b6000613d16602183613393565b9150613d2182613cba565b604082019050919050565b60006020820190508181036000830152613d4581613d09565b9050919050565b7f696e76616c696420746f6b656e21000000000000000000000000000000000000600082015250565b6000613d82600e83613393565b9150613d8d82613d4c565b602082019050919050565b60006020820190508181036000830152613db181613d75565b9050919050565b7f616d6f756e74206d757374206265203e30210000000000000000000000000000600082015250565b6000613dee601283613393565b9150613df982613db8565b602082019050919050565b60006020820190508181036000830152613e1d81613de1565b9050919050565b7f4e6f7420656e6f75676820746f6b656e7320746f206275726e00000000000000600082015250565b6000613e5a601983613393565b9150613e6582613e24565b602082019050919050565b60006020820190508181036000830152613e8981613e4d565b9050919050565b6000604082019050613ea5600083018561373f565b613eb26020830184613695565b939250505056fea2646970667358221220b62f51d979e6debf8a1aee6aa80063baec4341a13e4066ca03cbef8f5dd5659664736f6c634300081d0033",
  "linkReferences": {},
  "deployedLinkReferences": {}
}