{
  "_format": "hh-sol-artifact-1",
  "contractName": "AMM",
  "sourceName": "contracts/AMM.sol",
  "abi": [
    {
      "inputs": [
        {
          "internalType": "address",
          "name": "_tokenA",
          "type": "address"
        },
        {
          "internalType": "address",
          "name": "_tokenB",
          "type": "address"
        }
      ],
      "stateMutability": "nonpayable",
      "type": "constructor"
    },
    {
      "inputs": [],
      "name": "AccessControlBadConfirmation",
      "type": "error"
    },
    {
      "inputs": [
        {
          "internalType": "address",
          "name": "account",
          "type": "address"
        },
        {
          "internalType": "bytes32",
          "name": "neededRole",
          "type": "bytes32"
        }
      ],
      "name": "AccessControlUnauthorizedAccount",
      "type": "error"
    },
    {
      "inputs": [],
      "name": "ReentrancyGuardReentrantCall",
      "type": "error"
    },
    {
      "anonymous": false,
      "inputs": [
        {
          "indexed": true,
          "internalType": "address",
          "name": "owner",
          "type": "address"
        },
        {
          "indexed": true,
          "internalType": "address",
          "name": "spender",
          "type": "address"
        },
        {
          "indexed": false,
          "internalType": "uint256",
          "name": "amount",
          "type": "uint256"
        }
      ],
      "name": "Approval",
      "type": "event"
    },
    {
      "anonymous": false,
      "inputs": [
        {
          "indexed": true,
          "internalType": "address",
          "name": "provider",
          "type": "address"
        },
        {
          "indexed": false,
          "internalType": "uint256",
          "name": "amountA",
          "type": "uint256"
        },
        {
          "indexed": false,
          "internalType": "uint256",
          "name": "amountB",
          "type": "uint256"
        },
        {
          "indexed": false,
          "internalType": "uint256",
          "name": "shares",
          "type": "uint256"
        }
      ],
      "name": "LiquidityAdded",
      "type": "event"
    },
    {
      "anonymous": false,
      "inputs": [
        {
          "indexed": true,
          "internalType": "bytes32",
          "name": "role",
          "type": "bytes32"
        },
        {
          "indexed": true,
          "internalType": "bytes32",
          "name": "previousAdminRole",
          "type": "bytes32"
        },
        {
          "indexed": true,
          "internalType": "bytes32",
          "name": "newAdminRole",
          "type": "bytes32"
        }
      ],
      "name": "RoleAdminChanged",
      "type": "event"
    },
    {
      "anonymous": false,
      "inputs": [
        {
          "indexed": true,
          "internalType": "bytes32",
          "name": "role",
          "type": "bytes32"
        },
        {
          "indexed": true,
          "internalType": "address",
          "name": "account",
          "type": "address"
        },
        {
          "indexed": true,
          "internalType": "address",
          "name": "sender",
          "type": "address"
        }
      ],
      "name": "RoleGranted",
      "type": "event"
    },
    {
      "anonymous": false,
      "inputs": [
        {
          "indexed": true,
          "internalType": "bytes32",
          "name": "role",
          "type": "bytes32"
        },
        {
          "indexed": true,
          "internalType": "address",
          "name": "account",
          "type": "address"
        },
        {
          "indexed": true,
          "internalType": "address",
          "name": "sender",
          "type": "address"
        }
      ],
      "name": "RoleRevoked",
      "type": "event"
    },
    {
      "anonymous": false,
      "inputs": [
        {
          "indexed": false,
          "internalType": "address",
          "name": "recipient",
          "type": "address"
        },
        {
          "indexed": false,
          "internalType": "uint256",
          "name": "amount",
          "type": "uint256"
        }
      ],
      "name": "TokenSwaped",
      "type": "event"
    },
    {
      "anonymous": false,
      "inputs": [
        {
          "indexed": true,
          "internalType": "address",
          "name": "from",
          "type": "address"
        },
        {
          "indexed": true,
          "internalType": "address",
          "name": "to",
          "type": "address"
        },
        {
          "indexed": false,
          "internalType": "uint256",
          "name": "amount",
          "type": "uint256"
        }
      ],
      "name": "Transfer",
      "type": "event"
    },
    {
      "inputs": [],
      "name": "DEFAULT_ADMIN_ROLE",
      "outputs": [
        {
          "internalType": "bytes32",
          "name": "",
          "type": "bytes32"
        }
      ],
      "stateMutability": "view",
      "type": "function"
    },
    {
      "inputs": [],
      "name": "MINTER_ROLE",
      "outputs": [
        {
          "internalType": "bytes32",
          "name": "",
          "type": "bytes32"
        }
      ],
      "stateMutability": "view",
      "type": "function"
    },
    {
      "inputs": [
        {
          "internalType": "uint256",
          "name": "_amountA",
          "type": "uint256"
        },
        {
          "internalType": "uint256",
          "name": "_amountB",
          "type": "uint256"
        }
      ],
      "name": "addLiquidity",
      "outputs": [
        {
          "internalType": "uint256",
          "name": "shares",
          "type": "uint256"
        }
      ],
      "stateMutability": "payable",
      "type": "function"
    },
    {
      "inputs": [
        {
          "internalType": "address",
          "name": "_owner",
          "type": "address"
        },
        {
          "internalType": "address",
          "name": "spender",
          "type": "address"
        }
      ],
      "name": "allowance",
      "outputs": [
        {
          "internalType": "uint256",
          "name": "",
          "type": "uint256"
        }
      ],
      "stateMutability": "view",
      "type": "function"
    },
    {
      "inputs": [
        {
          "internalType": "address",
          "name": "",
          "type": "address"
        },
        {
          "internalType": "address",
          "name": "",
          "type": "address"
        }
      ],
      "name": "allowances",
      "outputs": [
        {
          "internalType": "uint256",
          "name": "",
          "type": "uint256"
        }
      ],
      "stateMutability": "view",
      "type": "function"
    },
    {
      "inputs": [
        {
          "internalType": "address",
          "name": "spender",
          "type": "address"
        },
        {
          "internalType": "uint256",
          "name": "amount",
          "type": "uint256"
        }
      ],
      "name": "approve",
      "outputs": [
        {
          "internalType": "bool",
          "name": "",
          "type": "bool"
        }
      ],
      "stateMutability": "nonpayable",
      "type": "function"
    },
    {
      "inputs": [
        {
          "internalType": "address",
          "name": "account",
          "type": "address"
        }
      ],
      "name": "balanceOf",
      "outputs": [
        {
          "internalType": "uint256",
          "name": "",
          "type": "uint256"
        }
      ],
      "stateMutability": "view",
      "type": "function"
    },
    {
      "inputs": [
        {
          "internalType": "address",
          "name": "",
          "type": "address"
        }
      ],
      "name": "balanceOfaccount",
      "outputs": [
        {
          "internalType": "uint256",
          "name": "",
          "type": "uint256"
        }
      ],
      "stateMutability": "view",
      "type": "function"
    },
    {
      "inputs": [
        {
          "internalType": "address",
          "name": "",
          "type": "address"
        }
      ],
      "name": "balances",
      "outputs": [
        {
          "internalType": "uint256",
          "name": "",
          "type": "uint256"
        }
      ],
      "stateMutability": "view",
      "type": "function"
    },
    {
      "inputs": [
        {
          "internalType": "uint256",
          "name": "amount",
          "type": "uint256"
        }
      ],
      "name": "burn",
      "outputs": [],
      "stateMutability": "nonpayable",
      "type": "function"
    },
    {
      "inputs": [],
      "name": "decimals",
      "outputs": [
        {
          "internalType": "uint256",
          "name": "",
          "type": "uint256"
        }
      ],
      "stateMutability": "pure",
      "type": "function"
    },
    {
      "inputs": [
        {
          "internalType": "bytes32",
          "name": "role",
          "type": "bytes32"
        }
      ],
      "name": "getRoleAdmin",
      "outputs": [
        {
          "internalType": "bytes32",
          "name": "",
          "type": "bytes32"
        }
      ],
      "stateMutability": "view",
      "type": "function"
    },
    {
      "inputs": [
        {
          "internalType": "bytes32",
          "name": "role",
          "type": "bytes32"
        },
        {
          "internalType": "address",
          "name": "account",
          "type": "address"
        }
      ],
      "name": "grantRole",
      "outputs": [],
      "stateMutability": "nonpayable",
      "type": "function"
    },
    {
      "inputs": [
        {
          "internalType": "bytes32",
          "name": "role",
          "type": "bytes32"
        },
        {
          "internalType": "address",
          "name": "account",
          "type": "address"
        }
      ],
      "name": "hasRole",
      "outputs": [
        {
          "internalType": "bool",
          "name": "",
          "type": "bool"
        }
      ],
      "stateMutability": "view",
      "type": "function"
    },
    {
      "inputs": [
        {
          "internalType": "uint256",
          "name": "amount",
          "type": "uint256"
        },
        {
          "internalType": "address",
          "name": "to",
          "type": "address"
        }
      ],
      "name": "mint",
      "outputs": [],
      "stateMutability": "nonpayable",
      "type": "function"
    },
    {
      "inputs": [],
      "name": "name",
      "outputs": [
        {
          "internalType": "string",
          "name": "",
          "type": "string"
        }
      ],
      "stateMutability": "view",
      "type": "function"
    },
    {
      "inputs": [],
      "name": "owner",
      "outputs": [
        {
          "internalType": "address",
          "name": "",
          "type": "address"
        }
      ],
      "stateMutability": "view",
      "type": "function"
    },
    {
      "inputs": [
        {
          "internalType": "uint256",
          "name": "_shares",
          "type": "uint256"
        }
      ],
      "name": "removeLiquidity",
      "outputs": [
        {
          "internalType": "uint256",
          "name": "amountA",
          "type": "uint256"
        },
        {
          "internalType": "uint256",
          "name": "amountB",
          "type": "uint256"
        }
      ],
      "stateMutability": "nonpayable",
      "type": "function"
    },
    {
      "inputs": [
        {
          "internalType": "bytes32",
          "name": "role",
          "type": "bytes32"
        },
        {
          "internalType": "address",
          "name": "callerConfirmation",
          "type": "address"
        }
      ],
      "name": "renounceRole",
      "outputs": [],
      "stateMutability": "nonpayable",
      "type": "function"
    },
    {
      "inputs": [
        {
          "internalType": "bytes32",
          "name": "role",
          "type": "bytes32"
        },
        {
          "internalType": "address",
          "name": "account",
          "type": "address"
        }
      ],
      "name": "revokeRole",
      "outputs": [],
      "stateMutability": "nonpayable",
      "type": "function"
    },
    {
      "inputs": [
        {
          "internalType": "bytes4",
          "name": "interfaceId",
          "type": "bytes4"
        }
      ],
      "name": "supportsInterface",
      "outputs": [
        {
          "internalType": "bool",
          "name": "",
          "type": "bool"
        }
      ],
      "stateMutability": "view",
      "type": "function"
    },
    {
      "inputs": [
        {
          "internalType": "address",
          "name": "_tokenIn",
          "type": "address"
        },
        {
          "internalType": "uint256",
          "name": "_amountIn",
          "type": "uint256"
        }
      ],
      "name": "swap",
      "outputs": [
        {
          "internalType": "uint256",
          "name": "_amountOut",
          "type": "uint256"
        }
      ],
      "stateMutability": "nonpayable",
      "type": "function"
    },
    {
      "inputs": [],
      "name": "symbol",
      "outputs": [
        {
          "internalType": "string",
          "name": "",
          "type": "string"
        }
      ],
      "stateMutability": "view",
      "type": "function"
    },
    {
      "inputs": [],
      "name": "tokenA",
      "outputs": [
        {
          "internalType": "contract ERC20Base",
          "name": "",
          "type": "address"
        }
      ],
      "stateMutability": "view",
      "type": "function"
    },
    {
      "inputs": [],
      "name": "tokenAreserve",
      "outputs": [
        {
          "internalType": "uint256",
          "name": "",
          "type": "uint256"
        }
      ],
      "stateMutability": "view",
      "type": "function"
    },
    {
      "inputs": [],
      "name": "tokenB",
      "outputs": [
        {
          "internalType": "contract ERC20Base",
          "name": "",
          "type": "address"
        }
      ],
      "stateMutability": "view",
      "type": "function"
    },
    {
      "inputs": [],
      "name": "tokenBreserve",
      "outputs": [
        {
          "internalType": "uint256",
          "name": "",
          "type": "uint256"
        }
      ],
      "stateMutability": "view",
      "type": "function"
    },
    {
      "inputs": [],
      "name": "totalSupply",
      "outputs": [
        {
          "internalType": "uint256",
          "name": "",
          "type": "uint256"
        }
      ],
      "stateMutability": "view",
      "type": "function"
    },
    {
      "inputs": [],
      "name": "totalTokens",
      "outputs": [
        {
          "internalType": "uint256",
          "name": "",
          "type": "uint256"
        }
      ],
      "stateMutability": "view",
      "type": "function"
    },
    {
      "inputs": [
        {
          "internalType": "address",
          "name": "to",
          "type": "address"
        },
        {
          "internalType": "uint256",
          "name": "amount",
          "type": "uint256"
        }
      ],
      "name": "transfer",
      "outputs": [
        {
          "internalType": "bool",
          "name": "",
          "type": "bool"
        }
      ],
      "stateMutability": "nonpayable",
      "type": "function"
    },
    {
      "inputs": [
        {
          "internalType": "address",
          "name": "sender",
          "type": "address"
        },
        {
          "internalType": "address",
          "name": "recipient",
          "type": "address"
        },
        {
          "internalType": "uint256",
          "name": "amount",
          "type": "uint256"
        }
      ],
      "name": "transferFrom",
      "outputs": [
        {
          "internalType": "bool",
          "name": "",
          "type": "bool"
        }
      ],
      "stateMutability": "nonpayable",
      "type": "function"
    }
  ],
  "bytecode": "0x608060405234801561001057600080fd5b50604051614a40380380614a40833981810160405281019061003291906106d6565b6040518060400160405280600881526020017f4c5020546f6b656e0000000000000000000000000000000000000000000000008152506040518060400160405280600381526020017f4c505400000000000000000000000000000000000000000000000000000000008152506000336100bb676b5420ff76a3644a60c01b61033e60201b60201c565b6100d567532ac57a3a538aea60c01b61033e60201b60201c565b83600590816100e49190610966565b506100ff67ce82acdffdd180e460c01b61033e60201b60201c565b826006908161010e9190610966565b5061012967095b155cf6d9c19060c01b61033e60201b60201c565b33600160006101000a81548173ffffffffffffffffffffffffffffffffffffffff021916908373ffffffffffffffffffffffffffffffffffffffff16021790555061018467c48a048845c04e0360c01b61033e60201b60201c565b61019e67fce4add7a47cd1de60c01b61033e60201b60201c565b6101b16000801b3361034160201b60201c565b506101cc675d77481302ee259460c01b61033e60201b60201c565b6101e66798ecce922869863060c01b61033e60201b60201c565b6102167f9f2df0fed2c77648de5860a4cc508cd0818c85b8b8a1ab4ceeef8d981c8956a63361034160201b60201c565b506102316792c70149599dcb6060c01b61033e60201b60201c565b61024b6795d7b506648afe1560c01b61033e60201b60201c565b61025b828261043e60201b60201c565b505050506001600781905550610281676b67551a366f29f260c01b6105df60201b60201c565b61029b674b3a32456f401bd160c01b6105df60201b60201c565b81600860006101000a81548173ffffffffffffffffffffffffffffffffffffffff021916908373ffffffffffffffffffffffffffffffffffffffff1602179055506102f6676c088af579b5d78560c01b6105df60201b60201c565b80600960006101000a81548173ffffffffffffffffffffffffffffffffffffffff021916908373ffffffffffffffffffffffffffffffffffffffff1602179055505050610ac5565b50565b600061035383836105e260201b60201c565b61043357600160008085815260200190815260200160002060000160008473ffffffffffffffffffffffffffffffffffffffff1673ffffffffffffffffffffffffffffffffffffffff16815260200190815260200160002060006101000a81548160ff0219169083151502179055506103d061064c60201b60201c565b73ffffffffffffffffffffffffffffffffffffffff168273ffffffffffffffffffffffffffffffffffffffff16847f2f8788117e7eff1d82e926ec794901d17c78024a50270940304540a733656f0d60405160405180910390a460019050610438565b600090505b92915050565b6104586722b8b7c30427c68a60c01b61033e60201b60201c565b610472670847c58224fcee5c60c01b61033e60201b60201c565b61048c672f1fbc009e1f483260c01b61033e60201b60201c565b61049e6000828461065460201b60201c565b6104b8675a8a94001b57559a60c01b61033e60201b60201c565b81600260008282546104ca9190610a67565b925050819055506104eb67b449d6c2b7c71e2060c01b61033e60201b60201c565b81600360008373ffffffffffffffffffffffffffffffffffffffff1673ffffffffffffffffffffffffffffffffffffffff168152602001908152602001600020600082825461053a9190610a67565b9250508190555061055b670efe204c2570e34260c01b61033e60201b60201c565b61057567240778decfadd69360c01b61033e60201b60201c565b8073ffffffffffffffffffffffffffffffffffffffff16600073ffffffffffffffffffffffffffffffffffffffff167fddf252ad1be2c89b69c2b068fc378daa952ba7f163c4a11628f55a4df523b3ef846040516105d39190610aaa565b60405180910390a35050565b50565b600080600084815260200190815260200160002060000160008373ffffffffffffffffffffffffffffffffffffffff1673ffffffffffffffffffffffffffffffffffffffff16815260200190815260200160002060009054906101000a900460ff16905092915050565b600033905090565b61066e678bc2096aa525334360c01b61033e60201b60201c565b505050565b600080fd5b600073ffffffffffffffffffffffffffffffffffffffff82169050919050565b60006106a382610678565b9050919050565b6106b381610698565b81146106be57600080fd5b50565b6000815190506106d0816106aa565b92915050565b600080604083850312156106ed576106ec610673565b5b60006106fb858286016106c1565b925050602061070c858286016106c1565b9150509250929050565b600081519050919050565b7f4e487b7100000000000000000000000000000000000000000000000000000000600052604160045260246000fd5b7f4e487b7100000000000000000000000000000000000000000000000000000000600052602260045260246000fd5b6000600282049050600182168061079757607f821691505b6020821081036107aa576107a9610750565b5b50919050565b60008190508160005260206000209050919050565b60006020601f8301049050919050565b600082821b905092915050565b6000600883026108127fffffffffffffffffffffffffffffffffffffffffffffffffffffffffffffffff826107d5565b61081c86836107d5565b95508019841693508086168417925050509392505050565b6000819050919050565b6000819050919050565b600061086361085e61085984610834565b61083e565b610834565b9050919050565b6000819050919050565b61087d83610848565b6108916108898261086a565b8484546107e2565b825550505050565b600090565b6108a6610899565b6108b1818484610874565b505050565b5b818110156108d5576108ca60008261089e565b6001810190506108b7565b5050565b601f82111561091a576108eb816107b0565b6108f4846107c5565b81016020851015610903578190505b61091761090f856107c5565b8301826108b6565b50505b505050565b600082821c905092915050565b600061093d6000198460080261091f565b1980831691505092915050565b6000610956838361092c565b9150826002028217905092915050565b61096f82610716565b67ffffffffffffffff81111561098857610987610721565b5b610992825461077f565b61099d8282856108d9565b600060209050601f8311600181146109d057600084156109be578287015190505b6109c8858261094a565b865550610a30565b601f1984166109de866107b0565b60005b82811015610a06578489015182556001820191506020850194506020810190506109e1565b86831015610a235784890151610a1f601f89168261092c565b8355505b6001600288020188555050505b505050505050565b7f4e487b7100000000000000000000000000000000000000000000000000000000600052601160045260246000fd5b6000610a7282610834565b9150610a7d83610834565b9250828201905080821115610a9557610a94610a38565b5b92915050565b610aa481610834565b82525050565b6000602082019050610abf6000830184610a9b565b92915050565b613f6c80610ad46000396000f3fe6080604052600436106101d85760003560e01c80635f64b55b116101025780639c8f9f2311610095578063d004f0f711610064578063d004f0f71461072a578063d539139314610767578063d547741f14610792578063dd62ed3e146107bb576101d8565b80639c8f9f23146106545780639cd441da14610692578063a217fddf146106c2578063a9059cbb146106ed576101d8565b80638da5cb5b116100d15780638da5cb5b1461059857806391d14854146105c357806394bf804d1461060057806395d89b4114610629576101d8565b80635f64b55b146104da57806370a08231146105055780637e1c0c091461054257806380d7af281461056d576101d8565b806323b872dd1161017a578063313ce56711610149578063313ce5671461042057806336568abe1461044b57806342966c681461047457806355b6ed5c1461049d576101d8565b806323b872dd14610340578063248a9ca31461037d57806327e235e3146103ba5780632f2ff15d146103f7576101d8565b80630fc63d10116101b65780630fc63d101461028257806317581e84146102ad57806318160ddd146102ea5780631bc8ef9614610315576101d8565b806301ffc9a7146101dd57806306fdde031461021a578063095ea7b314610245575b600080fd5b3480156101e957600080fd5b5061020460048036038101906101ff91906133a2565b6107f8565b60405161021191906133ea565b60405180910390f35b34801561022657600080fd5b5061022f610872565b60405161023c9190613495565b60405180910390f35b34801561025157600080fd5b5061026c6004803603810190610267919061354b565b610940565b60405161027991906133ea565b60405180910390f35b34801561028e57600080fd5b506102976109bb565b6040516102a491906135ea565b60405180910390f35b3480156102b957600080fd5b506102d460048036038101906102cf9190613605565b6109e1565b6040516102e19190613641565b60405180910390f35b3480156102f657600080fd5b506102ff6109f9565b60405161030c9190613641565b60405180910390f35b34801561032157600080fd5b5061032a610a3e565b6040516103379190613641565b60405180910390f35b34801561034c57600080fd5b506103676004803603810190610362919061365c565b610a44565b60405161037491906133ea565b60405180910390f35b34801561038957600080fd5b506103a4600480360381019061039f91906136e5565b610dd7565b6040516103b19190613721565b60405180910390f35b3480156103c657600080fd5b506103e160048036038101906103dc9190613605565b610df6565b6040516103ee9190613641565b60405180910390f35b34801561040357600080fd5b5061041e6004803603810190610419919061373c565b610e0e565b005b34801561042c57600080fd5b50610435610e30565b6040516104429190613641565b60405180910390f35b34801561045757600080fd5b50610472600480360381019061046d919061373c565b610e75565b005b34801561048057600080fd5b5061049b6004803603810190610496919061377c565b610ef0565b005b3480156104a957600080fd5b506104c460048036038101906104bf91906137a9565b610f39565b6040516104d19190613641565b60405180910390f35b3480156104e657600080fd5b506104ef610f5e565b6040516104fc91906135ea565b60405180910390f35b34801561051157600080fd5b5061052c60048036038101906105279190613605565b610f84565b6040516105399190613641565b60405180910390f35b34801561054e57600080fd5b50610557611009565b6040516105649190613641565b60405180910390f35b34801561057957600080fd5b5061058261100f565b60405161058f9190613641565b60405180910390f35b3480156105a457600080fd5b506105ad611015565b6040516105ba91906137f8565b60405180910390f35b3480156105cf57600080fd5b506105ea60048036038101906105e5919061373c565b61103b565b6040516105f791906133ea565b60405180910390f35b34801561060c57600080fd5b5061062760048036038101906106229190613813565b6110a5565b005b34801561063557600080fd5b5061063e611142565b60405161064b9190613495565b60405180910390f35b34801561066057600080fd5b5061067b6004803603810190610676919061377c565b611210565b604051610689929190613853565b60405180910390f35b6106ac60048036038101906106a7919061387c565b6116ff565b6040516106b99190613641565b60405180910390f35b3480156106ce57600080fd5b506106d7611dce565b6040516106e49190613721565b60405180910390f35b3480156106f957600080fd5b50610714600480360381019061070f919061354b565b611dd5565b60405161072191906133ea565b60405180910390f35b34801561073657600080fd5b50610751600480360381019061074c919061354b565b6120a0565b60405161075e9190613641565b60405180910390f35b34801561077357600080fd5b5061077c6127ea565b6040516107899190613721565b60405180910390f35b34801561079e57600080fd5b506107b960048036038101906107b4919061373c565b61280e565b005b3480156107c757600080fd5b506107e260048036038101906107dd91906137a9565b612830565b6040516107ef9190613641565b60405180910390f35b60007f7965db0b000000000000000000000000000000000000000000000000000000007bffffffffffffffffffffffffffffffffffffffffffffffffffffffff1916827bffffffffffffffffffffffffffffffffffffffffffffffffffffffff1916148061086b575061086a826128f3565b5b9050919050565b606061088867a05bb122d9d2c7b960c01b61295d565b61089c67e1011750af3a833060c01b61295d565b6108b067d43df1072bb8661160c01b61295d565b600580546108bd906138eb565b80601f01602080910402602001604051908101604052809291908181526020018280546108e9906138eb565b80156109365780601f1061090b57610100808354040283529160200191610936565b820191906000526020600020905b81548152906001019060200180831161091957829003601f168201915b5050505050905090565b600061095667a305ccb493bf739660c01b61295d565b61096a67c4f4dfeedaf1d63260c01b61295d565b61097e67ed9dcc78ac313ec760c01b61295d565b610989338484612960565b61099d67a8fba518191363c560c01b61295d565b6109b167c7c4fc7fd49a8b9560c01b61295d565b6001905092915050565b600860009054906101000a900473ffffffffffffffffffffffffffffffffffffffff1681565b600c6020528060005260406000206000915090505481565b6000610a0e669077671fcafd6960c01b61295d565b610a2267f3ea140b4e17653f60c01b61295d565b610a366767b0c3a7c958fcd460c01b61295d565b600254905090565b600a5481565b6000610a5a673d508fd4a72d0a6c60c01b61295d565b610a6e673fab12e3d4f3acbf60c01b61295d565b610a8267f74bde090b0df8b860c01b61295d565b610a96673ad24d2ef20178cf60c01b61295d565b81600460008673ffffffffffffffffffffffffffffffffffffffff1673ffffffffffffffffffffffffffffffffffffffff16815260200190815260200160002060003373ffffffffffffffffffffffffffffffffffffffff1673ffffffffffffffffffffffffffffffffffffffff168152602001908152602001600020541015610b55576040517f08c379a0000000000000000000000000000000000000000000000000000000008152600401610b4c90613968565b60405180910390fd5b610b69679271f925335bd6d560c01b61295d565b610b7d67fbd0b2cb35e254c160c01b61295d565b610b91673a5dc271bc68ec5660c01b61295d565b610b9c848484612a9b565b610bb0676c07fe1d0ff2a7d160c01b61295d565b81600460008673ffffffffffffffffffffffffffffffffffffffff1673ffffffffffffffffffffffffffffffffffffffff16815260200190815260200160002060003373ffffffffffffffffffffffffffffffffffffffff1673ffffffffffffffffffffffffffffffffffffffff1681526020019081526020016000206000828254610c3c91906139b7565b92505081905550610c5767749f5af00f7bd82460c01b61295d565b81600360008673ffffffffffffffffffffffffffffffffffffffff1673ffffffffffffffffffffffffffffffffffffffff1681526020019081526020016000206000828254610ca691906139b7565b92505081905550610cc167e7e9deaeb0f9d19060c01b61295d565b81600360008573ffffffffffffffffffffffffffffffffffffffff1673ffffffffffffffffffffffffffffffffffffffff1681526020019081526020016000206000828254610d1091906139eb565b92505081905550610d2b6708c4a2eb2eeed7fd60c01b61295d565b610d3f67f39e25129c485aef60c01b61295d565b8273ffffffffffffffffffffffffffffffffffffffff168473ffffffffffffffffffffffffffffffffffffffff167fddf252ad1be2c89b69c2b068fc378daa952ba7f163c4a11628f55a4df523b3ef84604051610d9c9190613641565b60405180910390a3610db8672d7c712fc796569d60c01b61295d565b610dcc67bf7ae113320d77e260c01b61295d565b600190509392505050565b6000806000838152602001908152602001600020600101549050919050565b60036020528060005260406000206000915090505481565b610e1782610dd7565b610e2081612ab4565b610e2a8383612ac8565b50505050565b6000610e46673fb88017a9a1e78960c01b61295d565b610e5a67c5a7d0064792ee1f60c01b61295d565b610e6e67f9db599fc41e6d6e60c01b61295d565b6012905090565b610e7d612bb9565b73ffffffffffffffffffffffffffffffffffffffff168173ffffffffffffffffffffffffffffffffffffffff1614610ee1576040517f6697b23200000000000000000000000000000000000000000000000000000000815260040160405180910390fd5b610eeb8282612bc1565b505050565b610f04675d822f95073c2f3a60c01b61295d565b610f1867d324e8f1040770ec60c01b61295d565b610f2c67fc9e3c2b36ed39f060c01b61295d565b610f363382612cb3565b50565b6004602052816000526040600020602052806000526040600020600091509150505481565b600960009054906101000a900473ffffffffffffffffffffffffffffffffffffffff1681565b6000610f9a67dcf87b56d98bd0af60c01b61295d565b610fae673cd1b1882289cb2460c01b61295d565b610fc2677637f504e950c2ac60c01b61295d565b600360008373ffffffffffffffffffffffffffffffffffffffff1673ffffffffffffffffffffffffffffffffffffffff168152602001908152602001600020549050919050565b60025481565b600b5481565b600160009054906101000a900473ffffffffffffffffffffffffffffffffffffffff1681565b600080600084815260200190815260200160002060000160008373ffffffffffffffffffffffffffffffffffffffff1673ffffffffffffffffffffffffffffffffffffffff16815260200190815260200160002060009054906101000a900460ff16905092915050565b6110b967f3d4b1a7cea2d17c60c01b61295d565b7f9f2df0fed2c77648de5860a4cc508cd0818c85b8b8a1ab4ceeef8d981c8956a66110e381612ab4565b6110f7677db29ead327918c260c01b61295d565b61110b671d1885812e9f441360c01b61295d565b61111f67455c15dbe0d472b160c01b61295d565b611133676f73bb57c404b26360c01b61295d565b61113d8383612ef6565b505050565b606061115867416512be65a24bb060c01b61295d565b61116c67728b032badea352160c01b61295d565b61118067049230eb3811d36e60c01b61295d565b6006805461118d906138eb565b80601f01602080910402602001604051908101604052809291908181526020018280546111b9906138eb565b80156112065780601f106111db57610100808354040283529160200191611206565b820191906000526020600020905b8154815290600101906020018083116111e957829003601f168201915b5050505050905090565b6000806112276752bb217b07e2becc60c01b613067565b61123b67ba42cb841dc1b4cd60c01b613067565b61124f67382d5297f0b5bd5b60c01b613067565b6000600860009054906101000a900473ffffffffffffffffffffffffffffffffffffffff1673ffffffffffffffffffffffffffffffffffffffff166370a08231306040518263ffffffff1660e01b81526004016112ac91906137f8565b602060405180830381865afa1580156112c9573d6000803e3d6000fd5b505050506040513d601f19601f820116820180604052508101906112ed9190613a34565b9050611303671c0488ce56e51a9160c01b613067565b611317670f0447faf721c68860c01b613067565b6000600960009054906101000a900473ffffffffffffffffffffffffffffffffffffffff1673ffffffffffffffffffffffffffffffffffffffff166370a08231306040518263ffffffff1660e01b815260040161137491906137f8565b602060405180830381865afa158015611391573d6000803e3d6000fd5b505050506040513d601f19601f820116820180604052508101906113b59190613a34565b90506113cb674de9541ddb0773c160c01b613067565b6113df677543f52f5dccfc3260c01b613067565b60006113e96109f9565b83876113f59190613a61565b6113ff9190613ad2565b9050611415676a85e668c2ab098160c01b613067565b6114296709428cec7d7be02860c01b613067565b60006114336109f9565b838861143f9190613a61565b6114499190613ad2565b905061145f67e8229e83ccf4171660c01b613067565b611473675b5a6fd5f352572760c01b613067565b6114876736562fe328c7cfcd60c01b613067565b6000821180156114975750600081115b6114d6576040517f08c379a00000000000000000000000000000000000000000000000000000000081526004016114cd90613b4f565b60405180910390fd5b6114ea6784b2966e823cc13b60c01b613067565b6114fe671fe7d0f0639ba03960c01b613067565b6115126792cc45ee00cac15860c01b613067565b61151c3388612cb3565b611530675cfaf95bc9e411aa60c01b613067565b611544676ffdcbda6ea756a960c01b613067565b611564828561155391906139b7565b828561155f91906139b7565b61306a565b6115786753d1ba3b041c458960c01b613067565b61158c67548885cbbb75465760c01b613067565b600860009054906101000a900473ffffffffffffffffffffffffffffffffffffffff1673ffffffffffffffffffffffffffffffffffffffff1663a9059cbb33846040518363ffffffff1660e01b81526004016115e9929190613b6f565b6020604051808303816000875af1158015611608573d6000803e3d6000fd5b505050506040513d601f19601f8201168201806040525081019061162c9190613bc4565b5061164167862bb12328b036ef60c01b613067565b6116556744bfcc8d6221cd1060c01b613067565b600960009054906101000a900473ffffffffffffffffffffffffffffffffffffffff1673ffffffffffffffffffffffffffffffffffffffff1663a9059cbb33836040518363ffffffff1660e01b81526004016116b2929190613b6f565b6020604051808303816000875af11580156116d1573d6000803e3d6000fd5b505050506040513d601f19601f820116820180604052508101906116f59190613bc4565b5050505050915091565b6000611715674a70e4b2438d0f9160c01b613067565b61171d6130b8565b61173167ce9e5b8efd6ce21c60c01b613067565b611745670ca0be3f9c418e5d60c01b613067565b611759672a0535bca8a4602460c01b613067565b61176d67f78c8ac8fef354d460c01b613067565b600860009054906101000a900473ffffffffffffffffffffffffffffffffffffffff1673ffffffffffffffffffffffffffffffffffffffff166323b872dd3330866040518463ffffffff1660e01b81526004016117cc93929190613bf1565b6020604051808303816000875af11580156117eb573d6000803e3d6000fd5b505050506040513d601f19601f8201168201806040525081019061180f9190613bc4565b506118246794f95ed9e4a636bf60c01b613067565b611838672c0cfecd141076b760c01b613067565b600960009054906101000a900473ffffffffffffffffffffffffffffffffffffffff1673ffffffffffffffffffffffffffffffffffffffff166323b872dd3330856040518463ffffffff1660e01b815260040161189793929190613bf1565b6020604051808303816000875af11580156118b6573d6000803e3d6000fd5b505050506040513d601f19601f820116820180604052508101906118da9190613bc4565b506118ef675363006a667a561360c01b613067565b611903679ce8ed01c72fdb8660c01b613067565b6000600a54118015611925575061192467ff3ac768d32bbf0860c01b6130fe565b5b8061194e57506000600b5411801561194d575061194c67267659b15731276260c01b6130fe565b5b5b15611a1857611967679e733369afb28e8360c01b613067565b61197b676e995c245ef6ec5360c01b613067565b61198f6725f5bdbd997dc8e660c01b613067565b6119a367c4222556b875225460c01b613067565b81600b546119b19190613a61565b83600a546119bf9190613a61565b146119ff576040517f08c379a00000000000000000000000000000000000000000000000000000000081526004016119f690613c74565b60405180910390fd5b611a136755ee96679978b08e60c01b613067565b611a2d565b611a2c6747b23032c0d09ea760c01b613067565b5b611a416764026f8ebd45ac0d60c01b613067565b611a55670274e6a895d2cb7760c01b613067565b6000611a5f6109f9565b03611aa757611a7867a9c81326eeb88c8460c01b613067565b611a8c675a26f70efa15ae1a60c01b613067565b611aa08284611a9b9190613a61565b613109565b9050611b1a565b611abb6720b0ada01282abc660c01b613067565b611acf672cc20432cac1600960c01b613067565b611b17600a54611add6109f9565b85611ae89190613a61565b611af29190613ad2565b600b54611afd6109f9565b85611b089190613a61565b611b129190613ad2565b6132a6565b90505b611b2e67a1b510d9d1c6683660c01b613067565b611b426746b09a4ae3ed5bed60c01b613067565b611b566742c29413bf7187ac60c01b613067565b60008111611b99576040517f08c379a0000000000000000000000000000000000000000000000000000000008152600401611b9090613ce0565b60405180910390fd5b611bad67a7b458778bd6ea5f60c01b613067565b611bc1676e9273ddb4a23faa60c01b613067565b611bd567bebc790a0354b41760c01b613067565b611bdf8133612ef6565b611bf367ca4b46765fa3d46a60c01b613067565b611c07675e0f69a103194c7d60c01b613067565b611d47600860009054906101000a900473ffffffffffffffffffffffffffffffffffffffff1673ffffffffffffffffffffffffffffffffffffffff166370a08231306040518263ffffffff1660e01b8152600401611c6591906137f8565b602060405180830381865afa158015611c82573d6000803e3d6000fd5b505050506040513d601f19601f82011682018060405250810190611ca69190613a34565b600960009054906101000a900473ffffffffffffffffffffffffffffffffffffffff1673ffffffffffffffffffffffffffffffffffffffff166370a08231306040518263ffffffff1660e01b8152600401611d0191906137f8565b602060405180830381865afa158015611d1e573d6000803e3d6000fd5b505050506040513d601f19601f82011682018060405250810190611d429190613a34565b61306a565b611d5b677fa566cbc48c4f4260c01b613067565b611d6e66b9b42cdfdf6e0b60c01b613067565b3373ffffffffffffffffffffffffffffffffffffffff167f64b83944e79c3ce8d4c297411de637c3e102d064677aac0c163976ebdcd6f50e848484604051611db893929190613d00565b60405180910390a2611dc86132bd565b92915050565b6000801b81565b6000611deb67bca1436569a0587660c01b61295d565b3382611e0167adef7acae8aadb1c60c01b61295d565b611e15675e14173d3f1a337960c01b61295d565b611e296724970d2d233abbbd60c01b61295d565b611e3d67489927f16f9c5ebc60c01b61295d565b80611e4783610f84565b1015611e88576040517f08c379a0000000000000000000000000000000000000000000000000000000008152600401611e7f90613da9565b60405180910390fd5b611e9c67f18d95916ab17b4e60c01b61295d565b611eb067426b600231e3c21160c01b61295d565b611ec4677df4802f87b1f83a60c01b61295d565b611ed867ae92cb35ecf7e0ca60c01b61295d565b611eec67ff9f1837ed664eac60c01b61295d565b611f0067b560e715a103c15460c01b61295d565b611f0b338686612a9b565b611f1f67fe0e446f0e89907160c01b61295d565b83600360003373ffffffffffffffffffffffffffffffffffffffff1673ffffffffffffffffffffffffffffffffffffffff1681526020019081526020016000206000828254611f6e91906139b7565b92505081905550611f896710b9da6ececfc09760c01b61295d565b83600360008773ffffffffffffffffffffffffffffffffffffffff1673ffffffffffffffffffffffffffffffffffffffff1681526020019081526020016000206000828254611fd891906139eb565b92505081905550611ff3676fd0e9243100904d60c01b61295d565b6120076766511f1848c1253160c01b61295d565b8473ffffffffffffffffffffffffffffffffffffffff163373ffffffffffffffffffffffffffffffffffffffff167fddf252ad1be2c89b69c2b068fc378daa952ba7f163c4a11628f55a4df523b3ef866040516120649190613641565b60405180910390a3612080675e405516f978a71060c01b61295d565b612094678c12e516d35cf28760c01b61295d565b60019250505092915050565b60006120b667fbfe62145b383b9460c01b613067565b6120ca67ac98b0f51e66a35c60c01b613067565b6120de67d2ad7fc75cac9ce960c01b613067565b6120f267735193c0e6368a9560c01b613067565b600860009054906101000a900473ffffffffffffffffffffffffffffffffffffffff1673ffffffffffffffffffffffffffffffffffffffff168373ffffffffffffffffffffffffffffffffffffffff1614801561215f575061215e67f7720b222719c55460c01b6130fe565b5b806121d35750600960009054906101000a900473ffffffffffffffffffffffffffffffffffffffff1673ffffffffffffffffffffffffffffffffffffffff168373ffffffffffffffffffffffffffffffffffffffff161480156121d257506121d1679134b9a9284748d060c01b6130fe565b5b5b612212576040517f08c379a000000000000000000000000000000000000000000000000000000000815260040161220990613e15565b60405180910390fd5b61222667462695870997a46a60c01b613067565b61223a67b5e1bcabbb344a2260c01b613067565b61224e679f438bc9bd1de6e460c01b613067565b61226267afe7efea741db1c260c01b613067565b600082116122a5576040517f08c379a000000000000000000000000000000000000000000000000000000000815260040161229c90613e81565b60405180910390fd5b6122b9676fb6b23685e1502060c01b613067565b6122cd67a6c8c5383631a66c60c01b613067565b6122e1673b86e7be4210193960c01b613067565b6000600860009054906101000a900473ffffffffffffffffffffffffffffffffffffffff1673ffffffffffffffffffffffffffffffffffffffff168473ffffffffffffffffffffffffffffffffffffffff1614905061234a6716dcd0ef4039504360c01b613067565b61235e672eae5160321bb0e060c01b613067565b6000806000808480612380575061237f67c9dbbb7303c386cb60c01b6132c7565b5b801561239c575061239b67b50b9563b2b0cb7660c01b6130fe565b5b6123f157600960009054906101000a900473ffffffffffffffffffffffffffffffffffffffff16600860009054906101000a900473ffffffffffffffffffffffffffffffffffffffff16600b54600a5461243e565b600860009054906101000a900473ffffffffffffffffffffffffffffffffffffffff16600960009054906101000a900473ffffffffffffffffffffffffffffffffffffffff16600a54600b545b935093509350935061245a67f3a8146c342da00960c01b613067565b61246e67caaee53c1f54e6a960c01b613067565b8373ffffffffffffffffffffffffffffffffffffffff166323b872dd33308a6040518463ffffffff1660e01b81526004016124ab93929190613bf1565b6020604051808303816000875af11580156124ca573d6000803e3d6000fd5b505050506040513d601f19601f820116820180604052508101906124ee9190613bc4565b5061250367d926be8e82f05c6d60c01b613067565b61251767ac36e3b0b73cab7a60c01b613067565b60006103e86103e38961252a9190613a61565b6125349190613ad2565b905061254a67a1d4534858f0542260c01b613067565b808361255691906139eb565b81836125629190613a61565b61256c9190613ad2565b965061258267c90b6e90de382a1160c01b613067565b61259667e3d6f5438c5286ea60c01b613067565b8373ffffffffffffffffffffffffffffffffffffffff1663a9059cbb33896040518363ffffffff1660e01b81526004016125d1929190613b6f565b6020604051808303816000875af11580156125f0573d6000803e3d6000fd5b505050506040513d601f19601f820116820180604052508101906126149190613bc4565b50612629679c0ad0fece6c13c860c01b613067565b61263d67caa92e6420dbe71c60c01b613067565b61277d600860009054906101000a900473ffffffffffffffffffffffffffffffffffffffff1673ffffffffffffffffffffffffffffffffffffffff166370a08231306040518263ffffffff1660e01b815260040161269b91906137f8565b602060405180830381865afa1580156126b8573d6000803e3d6000fd5b505050506040513d601f19601f820116820180604052508101906126dc9190613a34565b600960009054906101000a900473ffffffffffffffffffffffffffffffffffffffff1673ffffffffffffffffffffffffffffffffffffffff166370a08231306040518263ffffffff1660e01b815260040161273791906137f8565b602060405180830381865afa158015612754573d6000803e3d6000fd5b505050506040513d601f19601f820116820180604052508101906127789190613a34565b61306a565b61279167820b7feda0a99d9960c01b613067565b6127a56701acb7b78b6ca91560c01b613067565b7f4c14a9ab14ad61c2cf657e5f4303c9813a10b6d630e12e480e85305ae57b377933886040516127d6929190613b6f565b60405180910390a150505050505092915050565b7f9f2df0fed2c77648de5860a4cc508cd0818c85b8b8a1ab4ceeef8d981c8956a681565b61281782610dd7565b61282081612ab4565b61282a8383612bc1565b50505050565b60006128466760255968d814a67760c01b61295d565b61285a6772fa8d09411de6fa60c01b61295d565b61286e6745de33cf9862fde660c01b61295d565b600460008473ffffffffffffffffffffffffffffffffffffffff1673ffffffffffffffffffffffffffffffffffffffff16815260200190815260200160002060008373ffffffffffffffffffffffffffffffffffffffff1673ffffffffffffffffffffffffffffffffffffffff16815260200190815260200160002054905092915050565b60007f01ffc9a7000000000000000000000000000000000000000000000000000000007bffffffffffffffffffffffffffffffffffffffffffffffffffffffff1916827bffffffffffffffffffffffffffffffffffffffffffffffffffffffff1916149050919050565b50565b6129746770220d169a18952a60c01b61295d565b61298867a979bf5641704cae60c01b61295d565b80600460008573ffffffffffffffffffffffffffffffffffffffff1673ffffffffffffffffffffffffffffffffffffffff16815260200190815260200160002060008473ffffffffffffffffffffffffffffffffffffffff1673ffffffffffffffffffffffffffffffffffffffff16815260200190815260200160002081905550612a1d67269e78817fc1811960c01b61295d565b612a3167a93aaf8d746ba80260c01b61295d565b8173ffffffffffffffffffffffffffffffffffffffff168373ffffffffffffffffffffffffffffffffffffffff167f8c5be1e5ebec7d5bd14f71427d1e84f3dd0314c0f7b2291e5b200ac8c7c3b92583604051612a8e9190613641565b60405180910390a3505050565b612aaf678bc2096aa525334360c01b61295d565b505050565b612ac581612ac0612bb9565b6132ce565b50565b6000612ad4838361103b565b612bae57600160008085815260200190815260200160002060000160008473ffffffffffffffffffffffffffffffffffffffff1673ffffffffffffffffffffffffffffffffffffffff16815260200190815260200160002060006101000a81548160ff021916908315150217905550612b4b612bb9565b73ffffffffffffffffffffffffffffffffffffffff168273ffffffffffffffffffffffffffffffffffffffff16847f2f8788117e7eff1d82e926ec794901d17c78024a50270940304540a733656f0d60405160405180910390a460019050612bb3565b600090505b92915050565b600033905090565b6000612bcd838361103b565b15612ca857600080600085815260200190815260200160002060000160008473ffffffffffffffffffffffffffffffffffffffff1673ffffffffffffffffffffffffffffffffffffffff16815260200190815260200160002060006101000a81548160ff021916908315150217905550612c45612bb9565b73ffffffffffffffffffffffffffffffffffffffff168273ffffffffffffffffffffffffffffffffffffffff16847ff6391f5c32d9c69d2a47ea670b442974b53935d1edc7fd64eb21e047a839171b60405160405180910390a460019050612cad565b600090505b92915050565b612cc767263f0bab53cedc9260c01b61295d565b612cdb6760beb66d330b2f9f60c01b61295d565b612cef6766710ce464cfd5df60c01b61295d565b612cfb82600083612a9b565b612d0f6798b2ef85e89789c160c01b61295d565b612d23677ff92e56802abfad60c01b61295d565b612d3767492a85945c00d6ee60c01b61295d565b80600360008473ffffffffffffffffffffffffffffffffffffffff1673ffffffffffffffffffffffffffffffffffffffff168152602001908152602001600020541015612db9576040517f08c379a0000000000000000000000000000000000000000000000000000000008152600401612db090613eed565b60405180910390fd5b612dcd6702f30127d048765660c01b61295d565b612de167d04cb70834b5dc7860c01b61295d565b80600360008473ffffffffffffffffffffffffffffffffffffffff1673ffffffffffffffffffffffffffffffffffffffff1681526020019081526020016000206000828254612e3091906139b7565b92505081905550612e4b67481ae834f3fb1ad160c01b61295d565b8060026000828254612e5d91906139b7565b92505081905550612e7867fcfc9e3fdd33532160c01b61295d565b612e8c675eb3d98d59e8d36c60c01b61295d565b600073ffffffffffffffffffffffffffffffffffffffff168273ffffffffffffffffffffffffffffffffffffffff167fddf252ad1be2c89b69c2b068fc378daa952ba7f163c4a11628f55a4df523b3ef83604051612eea9190613641565b60405180910390a35050565b612f0a6722b8b7c30427c68a60c01b61295d565b612f1e670847c58224fcee5c60c01b61295d565b612f32672f1fbc009e1f483260c01b61295d565b612f3e60008284612a9b565b612f52675a8a94001b57559a60c01b61295d565b8160026000828254612f6491906139eb565b92505081905550612f7f67b449d6c2b7c71e2060c01b61295d565b81600360008373ffffffffffffffffffffffffffffffffffffffff1673ffffffffffffffffffffffffffffffffffffffff1681526020019081526020016000206000828254612fce91906139eb565b92505081905550612fe9670efe204c2570e34260c01b61295d565b612ffd67240778decfadd69360c01b61295d565b8073ffffffffffffffffffffffffffffffffffffffff16600073ffffffffffffffffffffffffffffffffffffffff167fddf252ad1be2c89b69c2b068fc378daa952ba7f163c4a11628f55a4df523b3ef8460405161305b9190613641565b60405180910390a35050565b50565b61307e679d49734f4f48084360c01b613067565b61309267faeed0c7e84944e160c01b613067565b81600a819055506130ad67dde8e603b54ed59960c01b613067565b80600b819055505050565b6002600754036130f4576040517f3ee5aeb500000000000000000000000000000000000000000000000000000000815260040160405180910390fd5b6002600781905550565b600060019050919050565b60006001821161311b578190506132a1565b6000829050600060019050700100000000000000000000000000000000821061314d57608082901c9150604081901b90505b68010000000000000000821061316c57604082901c9150602081901b90505b640100000000821061318757602082901c9150601081901b90505b6201000082106131a057601082901c9150600881901b90505b61010082106131b857600882901c9150600481901b90505b601082106131cf57600482901c9150600281901b90505b600482106131df57600181901b90505b600181600302901c905060018185816131fb576131fa613aa3565b5b048201901c9050600181858161321457613213613aa3565b5b048201901c9050600181858161322d5761322c613aa3565b5b048201901c9050600181858161324657613245613aa3565b5b048201901c9050600181858161325f5761325e613aa3565b5b048201901c9050600181858161327857613277613aa3565b5b048201901c905061329a81858161329257613291613aa3565b5b04821161331f565b8103925050505b919050565b60006132b5828410848461332b565b905092915050565b6001600781905550565b6000919050565b6132d8828261103b565b61331b5780826040517fe2517d3f000000000000000000000000000000000000000000000000000000008152600401613312929190613f0d565b60405180910390fd5b5050565b60008115159050919050565b60006133368461331f565b82841802821890509392505050565b600080fd5b60007fffffffff0000000000000000000000000000000000000000000000000000000082169050919050565b61337f8161334a565b811461338a57600080fd5b50565b60008135905061339c81613376565b92915050565b6000602082840312156133b8576133b7613345565b5b60006133c68482850161338d565b91505092915050565b60008115159050919050565b6133e4816133cf565b82525050565b60006020820190506133ff60008301846133db565b92915050565b600081519050919050565b600082825260208201905092915050565b60005b8381101561343f578082015181840152602081019050613424565b60008484015250505050565b6000601f19601f8301169050919050565b600061346782613405565b6134718185613410565b9350613481818560208601613421565b61348a8161344b565b840191505092915050565b600060208201905081810360008301526134af818461345c565b905092915050565b600073ffffffffffffffffffffffffffffffffffffffff82169050919050565b60006134e2826134b7565b9050919050565b6134f2816134d7565b81146134fd57600080fd5b50565b60008135905061350f816134e9565b92915050565b6000819050919050565b61352881613515565b811461353357600080fd5b50565b6000813590506135458161351f565b92915050565b6000806040838503121561356257613561613345565b5b600061357085828601613500565b925050602061358185828601613536565b9150509250929050565b6000819050919050565b60006135b06135ab6135a6846134b7565b61358b565b6134b7565b9050919050565b60006135c282613595565b9050919050565b60006135d4826135b7565b9050919050565b6135e4816135c9565b82525050565b60006020820190506135ff60008301846135db565b92915050565b60006020828403121561361b5761361a613345565b5b600061362984828501613500565b91505092915050565b61363b81613515565b82525050565b60006020820190506136566000830184613632565b92915050565b60008060006060848603121561367557613674613345565b5b600061368386828701613500565b935050602061369486828701613500565b92505060406136a586828701613536565b9150509250925092565b6000819050919050565b6136c2816136af565b81146136cd57600080fd5b50565b6000813590506136df816136b9565b92915050565b6000602082840312156136fb576136fa613345565b5b6000613709848285016136d0565b91505092915050565b61371b816136af565b82525050565b60006020820190506137366000830184613712565b92915050565b6000806040838503121561375357613752613345565b5b6000613761858286016136d0565b925050602061377285828601613500565b9150509250929050565b60006020828403121561379257613791613345565b5b60006137a084828501613536565b91505092915050565b600080604083850312156137c0576137bf613345565b5b60006137ce85828601613500565b92505060206137df85828601613500565b9150509250929050565b6137f2816134d7565b82525050565b600060208201905061380d60008301846137e9565b92915050565b6000806040838503121561382a57613829613345565b5b600061383885828601613536565b925050602061384985828601613500565b9150509250929050565b60006040820190506138686000830185613632565b6138756020830184613632565b9392505050565b6000806040838503121561389357613892613345565b5b60006138a185828601613536565b92505060206138b285828601613536565b9150509250929050565b7f4e487b7100000000000000000000000000000000000000000000000000000000600052602260045260246000fd5b6000600282049050600182168061390357607f821691505b602082108103613916576139156138bc565b5b50919050565b7f416c6c6f77616e636520746f6f206c6f77000000000000000000000000000000600082015250565b6000613952601183613410565b915061395d8261391c565b602082019050919050565b6000602082019050818103600083015261398181613945565b9050919050565b7f4e487b7100000000000000000000000000000000000000000000000000000000600052601160045260246000fd5b60006139c282613515565b91506139cd83613515565b92508282039050818111156139e5576139e4613988565b5b92915050565b60006139f682613515565b9150613a0183613515565b9250828201905080821115613a1957613a18613988565b5b92915050565b600081519050613a2e8161351f565b92915050565b600060208284031215613a4a57613a49613345565b5b6000613a5884828501613a1f565b91505092915050565b6000613a6c82613515565b9150613a7783613515565b9250828202613a8581613515565b91508282048414831517613a9c57613a9b613988565b5b5092915050565b7f4e487b7100000000000000000000000000000000000000000000000000000000600052601260045260246000fd5b6000613add82613515565b9150613ae883613515565b925082613af857613af7613aa3565b5b828204905092915050565b7f696e76616c69642062616c616e63650000000000000000000000000000000000600082015250565b6000613b39600f83613410565b9150613b4482613b03565b602082019050919050565b60006020820190508181036000830152613b6881613b2c565b9050919050565b6000604082019050613b8460008301856137e9565b613b916020830184613632565b9392505050565b613ba1816133cf565b8114613bac57600080fd5b50565b600081519050613bbe81613b98565b92915050565b600060208284031215613bda57613bd9613345565b5b6000613be884828501613baf565b91505092915050565b6000606082019050613c0660008301866137e9565b613c1360208301856137e9565b613c206040830184613632565b949350505050565b7f78202a207920213d206478202a20647900000000000000000000000000000000600082015250565b6000613c5e601083613410565b9150613c6982613c28565b602082019050919050565b60006020820190508181036000830152613c8d81613c51565b9050919050565b7f736861726573203d300000000000000000000000000000000000000000000000600082015250565b6000613cca600983613410565b9150613cd582613c94565b602082019050919050565b60006020820190508181036000830152613cf981613cbd565b9050919050565b6000606082019050613d156000830186613632565b613d226020830185613632565b613d2f6040830184613632565b949350505050565b7f596f75206861766520746f6f206c6f7720616d6f756e74206f6620746f6b656e60008201527f7300000000000000000000000000000000000000000000000000000000000000602082015250565b6000613d93602183613410565b9150613d9e82613d37565b604082019050919050565b60006020820190508181036000830152613dc281613d86565b9050919050565b7f696e76616c696420746f6b656e21000000000000000000000000000000000000600082015250565b6000613dff600e83613410565b9150613e0a82613dc9565b602082019050919050565b60006020820190508181036000830152613e2e81613df2565b9050919050565b7f616d6f756e74206d757374206265203e30210000000000000000000000000000600082015250565b6000613e6b601283613410565b9150613e7682613e35565b602082019050919050565b60006020820190508181036000830152613e9a81613e5e565b9050919050565b7f4e6f7420656e6f75676820746f6b656e7320746f206275726e00000000000000600082015250565b6000613ed7601983613410565b9150613ee282613ea1565b602082019050919050565b60006020820190508181036000830152613f0681613eca565b9050919050565b6000604082019050613f2260008301856137e9565b613f2f6020830184613712565b939250505056fea26469706673582212200a1ff36db03a6c5c1ace02daf05214672710d9a4df7f63d81513ed44b77c78fb64736f6c634300081d0033",
  "linkReferences": {},
  "deployedLinkReferences": {}
}