{
	"LibraryStorage/LibraryStorage.sol": {
		"LibraryStorage": {
			"abi": [
				{
					"anonymous": false,
					"inputs": [
						{
							"indexed": true,
							"internalType": "string",
							"name": "bookName",
							"type": "string"
						}
					],
					"name": "newBookAdded",
					"type": "event"
				},
				{
					"anonymous": false,
					"inputs": [
						{
							"indexed": true,
							"internalType": "string",
							"name": "bookName",
							"type": "string"
						},
						{
							"indexed": false,
							"internalType": "address",
							"name": "owner",
							"type": "address"
						}
					],
					"name": "newBookTaken",
					"type": "event"
				},
				{
					"inputs": [
						{
							"internalType": "string",
							"name": "_bookName",
							"type": "string"
						}
					],
					"name": "addBook",
					"outputs": [],
					"stateMutability": "nonpayable",
					"type": "function"
				},
				{
					"inputs": [],
					"name": "allReservedBooks",
					"outputs": [
						{
							"components": [
								{
									"internalType": "string",
									"name": "bookName",
									"type": "string"
								},
								{
									"internalType": "address",
									"name": "owner",
									"type": "address"
								}
							],
							"internalType": "struct LibraryStorage.Book[]",
							"name": "",
							"type": "tuple[]"
						}
					],
					"stateMutability": "view",
					"type": "function"
				},
				{
					"inputs": [
						{
							"internalType": "address",
							"name": "",
							"type": "address"
						}
					],
					"name": "bookOwner",
					"outputs": [
						{
							"internalType": "uint256",
							"name": "",
							"type": "uint256"
						}
					],
					"stateMutability": "view",
					"type": "function"
				},
				{
					"inputs": [
						{
							"internalType": "uint256",
							"name": "",
							"type": "uint256"
						}
					],
					"name": "books",
					"outputs": [
						{
							"internalType": "string",
							"name": "bookName",
							"type": "string"
						},
						{
							"internalType": "address",
							"name": "owner",
							"type": "address"
						}
					],
					"stateMutability": "view",
					"type": "function"
				},
				{
					"inputs": [
						{
							"internalType": "uint256",
							"name": "bookId",
							"type": "uint256"
						}
					],
					"name": "borrowBook",
					"outputs": [],
					"stateMutability": "nonpayable",
					"type": "function"
				},
				{
					"inputs": [
						{
							"internalType": "uint256",
							"name": "bookId",
							"type": "uint256"
						}
					],
					"name": "cancelReservation",
					"outputs": [],
					"stateMutability": "nonpayable",
					"type": "function"
				},
				{
					"inputs": [],
					"name": "getAvailableBook",
					"outputs": [
						{
							"components": [
								{
									"internalType": "string",
									"name": "bookName",
									"type": "string"
								},
								{
									"internalType": "address",
									"name": "owner",
									"type": "address"
								}
							],
							"internalType": "struct LibraryStorage.Book[]",
							"name": "",
							"type": "tuple[]"
						}
					],
					"stateMutability": "view",
					"type": "function"
				},
				{
					"inputs": [
						{
							"internalType": "uint256",
							"name": "bookId",
							"type": "uint256"
						}
					],
					"name": "getMyReservations",
					"outputs": [
						{
							"internalType": "address[]",
							"name": "",
							"type": "address[]"
						}
					],
					"stateMutability": "view",
					"type": "function"
				},
				{
					"inputs": [
						{
							"internalType": "uint256",
							"name": "bookId",
							"type": "uint256"
						}
					],
					"name": "reserv",
					"outputs": [],
					"stateMutability": "nonpayable",
					"type": "function"
				},
				{
					"inputs": [
						{
							"internalType": "uint256",
							"name": "bookId",
							"type": "uint256"
						}
					],
					"name": "returnBook",
					"outputs": [],
					"stateMutability": "nonpayable",
					"type": "function"
				}
			],
			"devdoc": {
				"kind": "dev",
				"methods": {},
				"version": 1
			},
			"evm": {
				"assembly": "    /* \"LibraryStorage/LibraryStorage.sol\":58:3133  contract LibraryStorage {\r... */\n  mstore(0x40, 0x80)\n  callvalue\n  dup1\n  iszero\n  tag_1\n  jumpi\n  0x00\n  dup1\n  revert\ntag_1:\n  pop\n  dataSize(sub_0)\n  dup1\n  dataOffset(sub_0)\n  0x00\n  codecopy\n  0x00\n  return\nstop\n\nsub_0: assembly {\n        /* \"LibraryStorage/LibraryStorage.sol\":58:3133  contract LibraryStorage {\r... */\n      mstore(0x40, 0x80)\n      callvalue\n      dup1\n      iszero\n      tag_1\n      jumpi\n      0x00\n      dup1\n      revert\n    tag_1:\n      pop\n      jumpi(tag_2, lt(calldatasize, 0x04))\n      shr(0xe0, calldataload(0x00))\n      dup1\n      0x7e490a9e\n      gt\n      tag_13\n      jumpi\n      dup1\n      0x7e490a9e\n      eq\n      tag_8\n      jumpi\n      dup1\n      0x87ed34ec\n      eq\n      tag_9\n      jumpi\n      dup1\n      0xae5e6cf4\n      eq\n      tag_10\n      jumpi\n      dup1\n      0xca5140c9\n      eq\n      tag_11\n      jumpi\n      dup1\n      0xe35d207c\n      eq\n      tag_12\n      jumpi\n      jump(tag_2)\n    tag_13:\n      dup1\n      0x03d24c49\n      eq\n      tag_3\n      jumpi\n      dup1\n      0x057e11c9\n      eq\n      tag_4\n      jumpi\n      dup1\n      0x3bc5f48a\n      eq\n      tag_5\n      jumpi\n      dup1\n      0x5a63bf0b\n      eq\n      tag_6\n      jumpi\n      dup1\n      0x68744046\n      eq\n      tag_7\n      jumpi\n    tag_2:\n      0x00\n      dup1\n      revert\n        /* \"LibraryStorage/LibraryStorage.sol\":135:176  mapping(address => uint) public bookOwner */\n    tag_3:\n      tag_14\n      0x04\n      dup1\n      calldatasize\n      sub\n      dup2\n      add\n      swap1\n      tag_15\n      swap2\n      swap1\n      tag_16\n      jump\t// in\n    tag_15:\n      tag_17\n      jump\t// in\n    tag_14:\n      mload(0x40)\n      tag_18\n      swap2\n      swap1\n      tag_19\n      jump\t// in\n    tag_18:\n      mload(0x40)\n      dup1\n      swap2\n      sub\n      swap1\n      return\n        /* \"LibraryStorage/LibraryStorage.sol\":1797:2235  function allReservedBooks() external view returns(Book[] memory) {\r... */\n    tag_4:\n      tag_20\n      tag_21\n      jump\t// in\n    tag_20:\n      mload(0x40)\n      tag_22\n      swap2\n      swap1\n      tag_23\n      jump\t// in\n    tag_22:\n      mload(0x40)\n      dup1\n      swap2\n      sub\n      swap1\n      return\n        /* \"LibraryStorage/LibraryStorage.sol\":402:612  function addBook(string memory _bookName) external {\r... */\n    tag_5:\n      tag_24\n      0x04\n      dup1\n      calldatasize\n      sub\n      dup2\n      add\n      swap1\n      tag_25\n      swap2\n      swap1\n      tag_26\n      jump\t// in\n    tag_25:\n      tag_27\n      jump\t// in\n    tag_24:\n      stop\n        /* \"LibraryStorage/LibraryStorage.sol\":2422:2544  function getMyReservations(uint bookId) external view returns(address[] memory) {\r... */\n    tag_6:\n      tag_28\n      0x04\n      dup1\n      calldatasize\n      sub\n      dup2\n      add\n      swap1\n      tag_29\n      swap2\n      swap1\n      tag_30\n      jump\t// in\n    tag_29:\n      tag_31\n      jump\t// in\n    tag_28:\n      mload(0x40)\n      tag_32\n      swap2\n      swap1\n      tag_33\n      jump\t// in\n    tag_32:\n      mload(0x40)\n      dup1\n      swap2\n      sub\n      swap1\n      return\n        /* \"LibraryStorage/LibraryStorage.sol\":258:278  Book [] public books */\n    tag_7:\n      tag_34\n      0x04\n      dup1\n      calldatasize\n      sub\n      dup2\n      add\n      swap1\n      tag_35\n      swap2\n      swap1\n      tag_30\n      jump\t// in\n    tag_35:\n      tag_36\n      jump\t// in\n    tag_34:\n      mload(0x40)\n      tag_37\n      swap3\n      swap2\n      swap1\n      tag_38\n      jump\t// in\n    tag_37:\n      mload(0x40)\n      dup1\n      swap2\n      sub\n      swap1\n      return\n        /* \"LibraryStorage/LibraryStorage.sol\":618:1022  function borrowBook(uint bookId) external {\r... */\n    tag_8:\n      tag_39\n      0x04\n      dup1\n      calldatasize\n      sub\n      dup2\n      add\n      swap1\n      tag_40\n      swap2\n      swap1\n      tag_30\n      jump\t// in\n    tag_40:\n      tag_41\n      jump\t// in\n    tag_39:\n      stop\n        /* \"LibraryStorage/LibraryStorage.sol\":2241:2416  function reserv(uint bookId) external {\r... */\n    tag_9:\n      tag_42\n      0x04\n      dup1\n      calldatasize\n      sub\n      dup2\n      add\n      swap1\n      tag_43\n      swap2\n      swap1\n      tag_30\n      jump\t// in\n    tag_43:\n      tag_44\n      jump\t// in\n    tag_42:\n      stop\n        /* \"LibraryStorage/LibraryStorage.sol\":2551:3130  function cancelReservation(uint bookId) external {\r... */\n    tag_10:\n      tag_45\n      0x04\n      dup1\n      calldatasize\n      sub\n      dup2\n      add\n      swap1\n      tag_46\n      swap2\n      swap1\n      tag_30\n      jump\t// in\n    tag_46:\n      tag_47\n      jump\t// in\n    tag_45:\n      stop\n        /* \"LibraryStorage/LibraryStorage.sol\":1027:1215  function returnBook(uint bookId) external {\r... */\n    tag_11:\n      tag_48\n      0x04\n      dup1\n      calldatasize\n      sub\n      dup2\n      add\n      swap1\n      tag_49\n      swap2\n      swap1\n      tag_30\n      jump\t// in\n    tag_49:\n      tag_50\n      jump\t// in\n    tag_48:\n      stop\n        /* \"LibraryStorage/LibraryStorage.sol\":1221:1791  function getAvailableBook() external view returns (Book[] memory) {\r... */\n    tag_12:\n      tag_51\n      tag_52\n      jump\t// in\n    tag_51:\n      mload(0x40)\n      tag_53\n      swap2\n      swap1\n      tag_23\n      jump\t// in\n    tag_53:\n      mload(0x40)\n      dup1\n      swap2\n      sub\n      swap1\n      return\n        /* \"LibraryStorage/LibraryStorage.sol\":135:176  mapping(address => uint) public bookOwner */\n    tag_17:\n      mstore(0x20, 0x01)\n      dup1\n      0x00\n      mstore\n      keccak256(0x00, 0x40)\n      0x00\n      swap2\n      pop\n      swap1\n      pop\n      sload\n      dup2\n      jump\t// out\n        /* \"LibraryStorage/LibraryStorage.sol\":1797:2235  function allReservedBooks() external view returns(Book[] memory) {\r... */\n    tag_21:\n        /* \"LibraryStorage/LibraryStorage.sol\":1847:1860  Book[] memory */\n      0x60\n        /* \"LibraryStorage/LibraryStorage.sol\":1869:1879  uint count */\n      0x00\n        /* \"LibraryStorage/LibraryStorage.sol\":1895:1901  uint i */\n      dup1\n        /* \"LibraryStorage/LibraryStorage.sol\":1890:2013  for (uint i =0; i < books.length; i++) {\r... */\n    tag_55:\n        /* \"LibraryStorage/LibraryStorage.sol\":1910:1915  books */\n      0x02\n        /* \"LibraryStorage/LibraryStorage.sol\":1910:1922  books.length */\n      dup1\n      sload\n      swap1\n      pop\n        /* \"LibraryStorage/LibraryStorage.sol\":1906:1907  i */\n      dup2\n        /* \"LibraryStorage/LibraryStorage.sol\":1906:1922  i < books.length */\n      lt\n        /* \"LibraryStorage/LibraryStorage.sol\":1890:2013  for (uint i =0; i < books.length; i++) {\r... */\n      iszero\n      tag_56\n      jumpi\n        /* \"LibraryStorage/LibraryStorage.sol\":1969:1970  0 */\n      0x00\n        /* \"LibraryStorage/LibraryStorage.sol\":1943:1971  books[i].owner != address(0) */\n      0xffffffffffffffffffffffffffffffffffffffff\n      and\n        /* \"LibraryStorage/LibraryStorage.sol\":1943:1948  books */\n      0x02\n        /* \"LibraryStorage/LibraryStorage.sol\":1949:1950  i */\n      dup3\n        /* \"LibraryStorage/LibraryStorage.sol\":1943:1951  books[i] */\n      dup2\n      sload\n      dup2\n      lt\n      tag_58\n      jumpi\n      mstore(0x00, 0x4e487b7100000000000000000000000000000000000000000000000000000000)\n      mstore(0x04, 0x32)\n      revert(0x00, 0x24)\n    tag_58:\n      swap1\n      0x00\n      mstore\n      keccak256(0x00, 0x20)\n      swap1\n      0x02\n      mul\n      add\n        /* \"LibraryStorage/LibraryStorage.sol\":1943:1957  books[i].owner */\n      0x01\n      add\n      0x00\n      swap1\n      sload\n      swap1\n      0x0100\n      exp\n      swap1\n      div\n      0xffffffffffffffffffffffffffffffffffffffff\n      and\n        /* \"LibraryStorage/LibraryStorage.sol\":1943:1971  books[i].owner != address(0) */\n      0xffffffffffffffffffffffffffffffffffffffff\n      and\n      eq\n        /* \"LibraryStorage/LibraryStorage.sol\":1940:2006  if(books[i].owner != address(0)){\r... */\n      tag_60\n      jumpi\n        /* \"LibraryStorage/LibraryStorage.sol\":1987:1994  count++ */\n      dup2\n      dup1\n      tag_61\n      swap1\n      tag_62\n      jump\t// in\n    tag_61:\n      swap3\n      pop\n      pop\n        /* \"LibraryStorage/LibraryStorage.sol\":1940:2006  if(books[i].owner != address(0)){\r... */\n    tag_60:\n        /* \"LibraryStorage/LibraryStorage.sol\":1924:1927  i++ */\n      dup1\n      dup1\n      tag_63\n      swap1\n      tag_62\n      jump\t// in\n    tag_63:\n      swap2\n      pop\n      pop\n        /* \"LibraryStorage/LibraryStorage.sol\":1890:2013  for (uint i =0; i < books.length; i++) {\r... */\n      jump(tag_55)\n    tag_56:\n      pop\n        /* \"LibraryStorage/LibraryStorage.sol\":2019:2046  Book[] memory reservedBooks */\n      0x00\n        /* \"LibraryStorage/LibraryStorage.sol\":2061:2066  count */\n      dup2\n        /* \"LibraryStorage/LibraryStorage.sol\":2049:2067  new Book[] (count) */\n      0xffffffffffffffff\n      dup2\n      gt\n      iszero\n      tag_64\n      jumpi\n      mstore(0x00, 0x4e487b7100000000000000000000000000000000000000000000000000000000)\n      mstore(0x04, 0x41)\n      revert(0x00, 0x24)\n    tag_64:\n      mload(0x40)\n      swap1\n      dup1\n      dup3\n      mstore\n      dup1\n      0x20\n      mul\n      0x20\n      add\n      dup3\n      add\n      0x40\n      mstore\n      dup1\n      iszero\n      tag_65\n      jumpi\n      dup2\n      0x20\n      add\n    tag_66:\n      tag_67\n      tag_68\n      jump\t// in\n    tag_67:\n      dup2\n      mstore\n      0x20\n      add\n      swap1\n      0x01\n      swap1\n      sub\n      swap1\n      dup2\n      tag_66\n      jumpi\n      swap1\n      pop\n    tag_65:\n      pop\n        /* \"LibraryStorage/LibraryStorage.sol\":2019:2067  Book[] memory reservedBooks = new Book[] (count) */\n      swap1\n      pop\n        /* \"LibraryStorage/LibraryStorage.sol\":2074:2084  uint index */\n      0x00\n        /* \"LibraryStorage/LibraryStorage.sol\":2099:2105  uint i */\n      dup1\n        /* \"LibraryStorage/LibraryStorage.sol\":2095:2201  for(uint i = 0; i < books.length; i++){\r... */\n    tag_69:\n        /* \"LibraryStorage/LibraryStorage.sol\":2115:2120  books */\n      0x02\n        /* \"LibraryStorage/LibraryStorage.sol\":2115:2127  books.length */\n      dup1\n      sload\n      swap1\n      pop\n        /* \"LibraryStorage/LibraryStorage.sol\":2111:2112  i */\n      dup2\n        /* \"LibraryStorage/LibraryStorage.sol\":2111:2127  i < books.length */\n      lt\n        /* \"LibraryStorage/LibraryStorage.sol\":2095:2201  for(uint i = 0; i < books.length; i++){\r... */\n      iszero\n      tag_70\n      jumpi\n        /* \"LibraryStorage/LibraryStorage.sol\":2167:2172  books */\n      0x02\n        /* \"LibraryStorage/LibraryStorage.sol\":2173:2174  i */\n      dup2\n        /* \"LibraryStorage/LibraryStorage.sol\":2167:2175  books[i] */\n      dup2\n      sload\n      dup2\n      lt\n      tag_72\n      jumpi\n      mstore(0x00, 0x4e487b7100000000000000000000000000000000000000000000000000000000)\n      mstore(0x04, 0x32)\n      revert(0x00, 0x24)\n    tag_72:\n      swap1\n      0x00\n      mstore\n      keccak256(0x00, 0x20)\n      swap1\n      0x02\n      mul\n      add\n        /* \"LibraryStorage/LibraryStorage.sol\":2144:2175  reservedBooks[index] = books[i] */\n      mload(0x40)\n      dup1\n      0x40\n      add\n      0x40\n      mstore\n      swap1\n      dup2\n      0x00\n      dup3\n      add\n      dup1\n      sload\n      tag_74\n      swap1\n      tag_75\n      jump\t// in\n    tag_74:\n      dup1\n      0x1f\n      add\n      0x20\n      dup1\n      swap2\n      div\n      mul\n      0x20\n      add\n      mload(0x40)\n      swap1\n      dup2\n      add\n      0x40\n      mstore\n      dup1\n      swap3\n      swap2\n      swap1\n      dup2\n      dup2\n      mstore\n      0x20\n      add\n      dup3\n      dup1\n      sload\n      tag_76\n      swap1\n      tag_75\n      jump\t// in\n    tag_76:\n      dup1\n      iszero\n      tag_77\n      jumpi\n      dup1\n      0x1f\n      lt\n      tag_78\n      jumpi\n      0x0100\n      dup1\n      dup4\n      sload\n      div\n      mul\n      dup4\n      mstore\n      swap2\n      0x20\n      add\n      swap2\n      jump(tag_77)\n    tag_78:\n      dup3\n      add\n      swap2\n      swap1\n      0x00\n      mstore\n      keccak256(0x00, 0x20)\n      swap1\n    tag_79:\n      dup2\n      sload\n      dup2\n      mstore\n      swap1\n      0x01\n      add\n      swap1\n      0x20\n      add\n      dup1\n      dup4\n      gt\n      tag_79\n      jumpi\n      dup3\n      swap1\n      sub\n      0x1f\n      and\n      dup3\n      add\n      swap2\n    tag_77:\n      pop\n      pop\n      pop\n      pop\n      pop\n      dup2\n      mstore\n      0x20\n      add\n      0x01\n      dup3\n      add\n      0x00\n      swap1\n      sload\n      swap1\n      0x0100\n      exp\n      swap1\n      div\n      0xffffffffffffffffffffffffffffffffffffffff\n      and\n      0xffffffffffffffffffffffffffffffffffffffff\n      and\n      0xffffffffffffffffffffffffffffffffffffffff\n      and\n      dup2\n      mstore\n      pop\n      pop\n        /* \"LibraryStorage/LibraryStorage.sol\":2144:2157  reservedBooks */\n      dup4\n        /* \"LibraryStorage/LibraryStorage.sol\":2158:2163  index */\n      dup4\n        /* \"LibraryStorage/LibraryStorage.sol\":2144:2164  reservedBooks[index] */\n      dup2\n      mload\n      dup2\n      lt\n      tag_80\n      jumpi\n      mstore(0x00, 0x4e487b7100000000000000000000000000000000000000000000000000000000)\n      mstore(0x04, 0x32)\n      revert(0x00, 0x24)\n    tag_80:\n      0x20\n      mul\n      0x20\n      add\n      add\n        /* \"LibraryStorage/LibraryStorage.sol\":2144:2175  reservedBooks[index] = books[i] */\n      dup2\n      swap1\n      mstore\n      pop\n        /* \"LibraryStorage/LibraryStorage.sol\":2186:2193  index++ */\n      dup2\n      dup1\n      tag_81\n      swap1\n      tag_62\n      jump\t// in\n    tag_81:\n      swap3\n      pop\n      pop\n        /* \"LibraryStorage/LibraryStorage.sol\":2129:2132  i++ */\n      dup1\n      dup1\n      tag_82\n      swap1\n      tag_62\n      jump\t// in\n    tag_82:\n      swap2\n      pop\n      pop\n        /* \"LibraryStorage/LibraryStorage.sol\":2095:2201  for(uint i = 0; i < books.length; i++){\r... */\n      jump(tag_69)\n    tag_70:\n      pop\n        /* \"LibraryStorage/LibraryStorage.sol\":2214:2227  reservedBooks */\n      dup2\n        /* \"LibraryStorage/LibraryStorage.sol\":2207:2227  return reservedBooks */\n      swap4\n      pop\n      pop\n      pop\n      pop\n        /* \"LibraryStorage/LibraryStorage.sol\":1797:2235  function allReservedBooks() external view returns(Book[] memory) {\r... */\n      swap1\n      jump\t// out\n        /* \"LibraryStorage/LibraryStorage.sol\":402:612  function addBook(string memory _bookName) external {\r... */\n    tag_27:\n        /* \"LibraryStorage/LibraryStorage.sol\":464:469  books */\n      0x02\n        /* \"LibraryStorage/LibraryStorage.sol\":475:558  Book({\r... */\n      mload(0x40)\n      dup1\n      0x40\n      add\n      0x40\n      mstore\n      dup1\n        /* \"LibraryStorage/LibraryStorage.sol\":505:514  _bookName */\n      dup4\n        /* \"LibraryStorage/LibraryStorage.sol\":475:558  Book({\r... */\n      dup2\n      mstore\n      0x20\n      add\n        /* \"LibraryStorage/LibraryStorage.sol\":544:545  0 */\n      0x00\n        /* \"LibraryStorage/LibraryStorage.sol\":475:558  Book({\r... */\n      0xffffffffffffffffffffffffffffffffffffffff\n      and\n      dup2\n      mstore\n      pop\n        /* \"LibraryStorage/LibraryStorage.sol\":464:559  books.push(Book({\r... */\n      swap1\n      dup1\n      0x01\n      dup2\n      sload\n      add\n      dup1\n      dup3\n      sstore\n      dup1\n      swap2\n      pop\n      pop\n      0x01\n      swap1\n      sub\n      swap1\n      0x00\n      mstore\n      keccak256(0x00, 0x20)\n      swap1\n      0x02\n      mul\n      add\n      0x00\n      swap1\n      swap2\n      swap1\n      swap2\n      swap1\n      swap2\n      pop\n      0x00\n      dup3\n      add\n      mload\n      dup2\n      0x00\n      add\n      swap1\n      dup1\n      mload\n      swap1\n      0x20\n      add\n      swap1\n      tag_85\n      swap3\n      swap2\n      swap1\n      tag_86\n      jump\t// in\n    tag_85:\n      pop\n      0x20\n      dup3\n      add\n      mload\n      dup2\n      0x01\n      add\n      exp(0x0100, 0x00)\n      dup2\n      sload\n      dup2\n      0xffffffffffffffffffffffffffffffffffffffff\n      mul\n      not\n      and\n      swap1\n      dup4\n      0xffffffffffffffffffffffffffffffffffffffff\n      and\n      mul\n      or\n      swap1\n      sstore\n      pop\n      pop\n      pop\n        /* \"LibraryStorage/LibraryStorage.sol\":594:603  _bookName */\n      dup1\n        /* \"LibraryStorage/LibraryStorage.sol\":581:604  newBookAdded(_bookName) */\n      mload(0x40)\n      tag_87\n      swap2\n      swap1\n      tag_88\n      jump\t// in\n    tag_87:\n      mload(0x40)\n      dup1\n      swap2\n      sub\n      swap1\n      keccak256\n      0x389883c247948e6a90f461d8febcbc3d72029c3e696e10f6c68cbb65d7e23fc9\n      mload(0x40)\n      mload(0x40)\n      dup1\n      swap2\n      sub\n      swap1\n      log2\n        /* \"LibraryStorage/LibraryStorage.sol\":402:612  function addBook(string memory _bookName) external {\r... */\n      pop\n      jump\t// out\n        /* \"LibraryStorage/LibraryStorage.sol\":2422:2544  function getMyReservations(uint bookId) external view returns(address[] memory) {\r... */\n    tag_31:\n        /* \"LibraryStorage/LibraryStorage.sol\":2484:2500  address[] memory */\n      0x60\n        /* \"LibraryStorage/LibraryStorage.sol\":2516:2528  reservations */\n      0x00\n        /* \"LibraryStorage/LibraryStorage.sol\":2516:2536  reservations[bookId] */\n      dup1\n        /* \"LibraryStorage/LibraryStorage.sol\":2529:2535  bookId */\n      dup4\n        /* \"LibraryStorage/LibraryStorage.sol\":2516:2536  reservations[bookId] */\n      dup2\n      mstore\n      0x20\n      add\n      swap1\n      dup2\n      mstore\n      0x20\n      add\n      0x00\n      keccak256\n        /* \"LibraryStorage/LibraryStorage.sol\":2509:2536  return reservations[bookId] */\n      dup1\n      sload\n      dup1\n      0x20\n      mul\n      0x20\n      add\n      mload(0x40)\n      swap1\n      dup2\n      add\n      0x40\n      mstore\n      dup1\n      swap3\n      swap2\n      swap1\n      dup2\n      dup2\n      mstore\n      0x20\n      add\n      dup3\n      dup1\n      sload\n      dup1\n      iszero\n      tag_90\n      jumpi\n      0x20\n      mul\n      dup3\n      add\n      swap2\n      swap1\n      0x00\n      mstore\n      keccak256(0x00, 0x20)\n      swap1\n    tag_91:\n      dup2\n      0x00\n      swap1\n      sload\n      swap1\n      0x0100\n      exp\n      swap1\n      div\n      0xffffffffffffffffffffffffffffffffffffffff\n      and\n      0xffffffffffffffffffffffffffffffffffffffff\n      and\n      dup2\n      mstore\n      0x20\n      add\n      swap1\n      0x01\n      add\n      swap1\n      dup1\n      dup4\n      gt\n      tag_91\n      jumpi\n    tag_90:\n      pop\n      pop\n      pop\n      pop\n      pop\n      swap1\n      pop\n        /* \"LibraryStorage/LibraryStorage.sol\":2422:2544  function getMyReservations(uint bookId) external view returns(address[] memory) {\r... */\n      swap2\n      swap1\n      pop\n      jump\t// out\n        /* \"LibraryStorage/LibraryStorage.sol\":258:278  Book [] public books */\n    tag_36:\n      0x02\n      dup2\n      dup2\n      sload\n      dup2\n      lt\n      tag_92\n      jumpi\n      0x00\n      dup1\n      revert\n    tag_92:\n      swap1\n      0x00\n      mstore\n      keccak256(0x00, 0x20)\n      swap1\n      0x02\n      mul\n      add\n      0x00\n      swap2\n      pop\n      swap1\n      pop\n      dup1\n      0x00\n      add\n      dup1\n      sload\n      tag_94\n      swap1\n      tag_75\n      jump\t// in\n    tag_94:\n      dup1\n      0x1f\n      add\n      0x20\n      dup1\n      swap2\n      div\n      mul\n      0x20\n      add\n      mload(0x40)\n      swap1\n      dup2\n      add\n      0x40\n      mstore\n      dup1\n      swap3\n      swap2\n      swap1\n      dup2\n      dup2\n      mstore\n      0x20\n      add\n      dup3\n      dup1\n      sload\n      tag_95\n      swap1\n      tag_75\n      jump\t// in\n    tag_95:\n      dup1\n      iszero\n      tag_96\n      jumpi\n      dup1\n      0x1f\n      lt\n      tag_97\n      jumpi\n      0x0100\n      dup1\n      dup4\n      sload\n      div\n      mul\n      dup4\n      mstore\n      swap2\n      0x20\n      add\n      swap2\n      jump(tag_96)\n    tag_97:\n      dup3\n      add\n      swap2\n      swap1\n      0x00\n      mstore\n      keccak256(0x00, 0x20)\n      swap1\n    tag_98:\n      dup2\n      sload\n      dup2\n      mstore\n      swap1\n      0x01\n      add\n      swap1\n      0x20\n      add\n      dup1\n      dup4\n      gt\n      tag_98\n      jumpi\n      dup3\n      swap1\n      sub\n      0x1f\n      and\n      dup3\n      add\n      swap2\n    tag_96:\n      pop\n      pop\n      pop\n      pop\n      pop\n      swap1\n      dup1\n      0x01\n      add\n      0x00\n      swap1\n      sload\n      swap1\n      0x0100\n      exp\n      swap1\n      div\n      0xffffffffffffffffffffffffffffffffffffffff\n      and\n      swap1\n      pop\n      dup3\n      jump\t// out\n        /* \"LibraryStorage/LibraryStorage.sol\":618:1022  function borrowBook(uint bookId) external {\r... */\n    tag_41:\n        /* \"LibraryStorage/LibraryStorage.sol\":688:693  books */\n      0x02\n        /* \"LibraryStorage/LibraryStorage.sol\":688:700  books.length */\n      dup1\n      sload\n      swap1\n      pop\n        /* \"LibraryStorage/LibraryStorage.sol\":679:685  bookId */\n      dup2\n        /* \"LibraryStorage/LibraryStorage.sol\":679:700  bookId < books.length */\n      lt\n        /* \"LibraryStorage/LibraryStorage.sol\":671:713  require(bookId < books.length, \"Wrong ID\") */\n      tag_100\n      jumpi\n      mload(0x40)\n      0x08c379a000000000000000000000000000000000000000000000000000000000\n      dup2\n      mstore\n      0x04\n      add\n      tag_101\n      swap1\n      tag_102\n      jump\t// in\n    tag_101:\n      mload(0x40)\n      dup1\n      swap2\n      sub\n      swap1\n      revert\n    tag_100:\n        /* \"LibraryStorage/LibraryStorage.sol\":763:764  0 */\n      0x00\n        /* \"LibraryStorage/LibraryStorage.sol\":732:765  books[bookId].owner == address(0) */\n      0xffffffffffffffffffffffffffffffffffffffff\n      and\n        /* \"LibraryStorage/LibraryStorage.sol\":732:737  books */\n      0x02\n        /* \"LibraryStorage/LibraryStorage.sol\":738:744  bookId */\n      dup3\n        /* \"LibraryStorage/LibraryStorage.sol\":732:745  books[bookId] */\n      dup2\n      sload\n      dup2\n      lt\n      tag_103\n      jumpi\n      mstore(0x00, 0x4e487b7100000000000000000000000000000000000000000000000000000000)\n      mstore(0x04, 0x32)\n      revert(0x00, 0x24)\n    tag_103:\n      swap1\n      0x00\n      mstore\n      keccak256(0x00, 0x20)\n      swap1\n      0x02\n      mul\n      add\n        /* \"LibraryStorage/LibraryStorage.sol\":732:751  books[bookId].owner */\n      0x01\n      add\n      0x00\n      swap1\n      sload\n      swap1\n      0x0100\n      exp\n      swap1\n      div\n      0xffffffffffffffffffffffffffffffffffffffff\n      and\n        /* \"LibraryStorage/LibraryStorage.sol\":732:765  books[bookId].owner == address(0) */\n      0xffffffffffffffffffffffffffffffffffffffff\n      and\n      eq\n        /* \"LibraryStorage/LibraryStorage.sol\":724:789  require(books[bookId].owner == address(0), \"Book already taken!\") */\n      tag_105\n      jumpi\n      mload(0x40)\n      0x08c379a000000000000000000000000000000000000000000000000000000000\n      dup2\n      mstore\n      0x04\n      add\n      tag_106\n      swap1\n      tag_107\n      jump\t// in\n    tag_106:\n      mload(0x40)\n      dup1\n      swap2\n      sub\n      swap1\n      revert\n    tag_105:\n        /* \"LibraryStorage/LibraryStorage.sol\":833:834  1 */\n      0x01\n        /* \"LibraryStorage/LibraryStorage.sol\":808:817  bookOwner */\n      dup1\n        /* \"LibraryStorage/LibraryStorage.sol\":808:829  bookOwner[msg.sender] */\n      0x00\n        /* \"LibraryStorage/LibraryStorage.sol\":818:828  msg.sender */\n      caller\n        /* \"LibraryStorage/LibraryStorage.sol\":808:829  bookOwner[msg.sender] */\n      0xffffffffffffffffffffffffffffffffffffffff\n      and\n      0xffffffffffffffffffffffffffffffffffffffff\n      and\n      dup2\n      mstore\n      0x20\n      add\n      swap1\n      dup2\n      mstore\n      0x20\n      add\n      0x00\n      keccak256\n      sload\n        /* \"LibraryStorage/LibraryStorage.sol\":808:834  bookOwner[msg.sender] != 1 */\n      eq\n      iszero\n        /* \"LibraryStorage/LibraryStorage.sol\":800:865  require(bookOwner[msg.sender] != 1, \"U've already taken a book!\") */\n      tag_108\n      jumpi\n      mload(0x40)\n      0x08c379a000000000000000000000000000000000000000000000000000000000\n      dup2\n      mstore\n      0x04\n      add\n      tag_109\n      swap1\n      tag_110\n      jump\t// in\n    tag_109:\n      mload(0x40)\n      dup1\n      swap2\n      sub\n      swap1\n      revert\n    tag_108:\n        /* \"LibraryStorage/LibraryStorage.sol\":896:906  msg.sender */\n      caller\n        /* \"LibraryStorage/LibraryStorage.sol\":876:881  books */\n      0x02\n        /* \"LibraryStorage/LibraryStorage.sol\":882:888  bookId */\n      dup3\n        /* \"LibraryStorage/LibraryStorage.sol\":876:889  books[bookId] */\n      dup2\n      sload\n      dup2\n      lt\n      tag_111\n      jumpi\n      mstore(0x00, 0x4e487b7100000000000000000000000000000000000000000000000000000000)\n      mstore(0x04, 0x32)\n      revert(0x00, 0x24)\n    tag_111:\n      swap1\n      0x00\n      mstore\n      keccak256(0x00, 0x20)\n      swap1\n      0x02\n      mul\n      add\n        /* \"LibraryStorage/LibraryStorage.sol\":876:895  books[bookId].owner */\n      0x01\n      add\n      0x00\n        /* \"LibraryStorage/LibraryStorage.sol\":876:906  books[bookId].owner=msg.sender */\n      0x0100\n      exp\n      dup2\n      sload\n      dup2\n      0xffffffffffffffffffffffffffffffffffffffff\n      mul\n      not\n      and\n      swap1\n      dup4\n      0xffffffffffffffffffffffffffffffffffffffff\n      and\n      mul\n      or\n      swap1\n      sstore\n      pop\n        /* \"LibraryStorage/LibraryStorage.sol\":949:950  1 */\n      0x01\n        /* \"LibraryStorage/LibraryStorage.sol\":940:946  bookId */\n      dup2\n        /* \"LibraryStorage/LibraryStorage.sol\":940:950  bookId + 1 */\n      tag_113\n      swap2\n      swap1\n      tag_114\n      jump\t// in\n    tag_113:\n        /* \"LibraryStorage/LibraryStorage.sol\":917:926  bookOwner */\n      0x01\n        /* \"LibraryStorage/LibraryStorage.sol\":917:938  bookOwner[msg.sender] */\n      0x00\n        /* \"LibraryStorage/LibraryStorage.sol\":927:937  msg.sender */\n      caller\n        /* \"LibraryStorage/LibraryStorage.sol\":917:938  bookOwner[msg.sender] */\n      0xffffffffffffffffffffffffffffffffffffffff\n      and\n      0xffffffffffffffffffffffffffffffffffffffff\n      and\n      dup2\n      mstore\n      0x20\n      add\n      swap1\n      dup2\n      mstore\n      0x20\n      add\n      0x00\n      keccak256\n        /* \"LibraryStorage/LibraryStorage.sol\":917:950  bookOwner[msg.sender]= bookId + 1 */\n      dup2\n      swap1\n      sstore\n      pop\n        /* \"LibraryStorage/LibraryStorage.sol\":979:984  books */\n      0x02\n        /* \"LibraryStorage/LibraryStorage.sol\":985:991  bookId */\n      dup2\n        /* \"LibraryStorage/LibraryStorage.sol\":979:992  books[bookId] */\n      dup2\n      sload\n      dup2\n      lt\n      tag_115\n      jumpi\n      mstore(0x00, 0x4e487b7100000000000000000000000000000000000000000000000000000000)\n      mstore(0x04, 0x32)\n      revert(0x00, 0x24)\n    tag_115:\n      swap1\n      0x00\n      mstore\n      keccak256(0x00, 0x20)\n      swap1\n      0x02\n      mul\n      add\n        /* \"LibraryStorage/LibraryStorage.sol\":979:1001  books[bookId].bookName */\n      0x00\n      add\n        /* \"LibraryStorage/LibraryStorage.sol\":966:1014  newBookTaken(books[bookId].bookName, msg.sender) */\n      mload(0x40)\n      tag_117\n      swap2\n      swap1\n      tag_118\n      jump\t// in\n    tag_117:\n      mload(0x40)\n      dup1\n      swap2\n      sub\n      swap1\n      keccak256\n      0x4bd98b3223c39f335bc6f823093ab65d500345beda2bd23303ae81271e26810d\n        /* \"LibraryStorage/LibraryStorage.sol\":1003:1013  msg.sender */\n      caller\n        /* \"LibraryStorage/LibraryStorage.sol\":966:1014  newBookTaken(books[bookId].bookName, msg.sender) */\n      mload(0x40)\n      tag_119\n      swap2\n      swap1\n      tag_120\n      jump\t// in\n    tag_119:\n      mload(0x40)\n      dup1\n      swap2\n      sub\n      swap1\n      log2\n        /* \"LibraryStorage/LibraryStorage.sol\":618:1022  function borrowBook(uint bookId) external {\r... */\n      pop\n      jump\t// out\n        /* \"LibraryStorage/LibraryStorage.sol\":2241:2416  function reserv(uint bookId) external {\r... */\n    tag_44:\n        /* \"LibraryStorage/LibraryStorage.sol\":2329:2330  0 */\n      0x00\n        /* \"LibraryStorage/LibraryStorage.sol\":2298:2331  books[bookId].owner != address(0) */\n      0xffffffffffffffffffffffffffffffffffffffff\n      and\n        /* \"LibraryStorage/LibraryStorage.sol\":2298:2303  books */\n      0x02\n        /* \"LibraryStorage/LibraryStorage.sol\":2304:2310  bookId */\n      dup3\n        /* \"LibraryStorage/LibraryStorage.sol\":2298:2311  books[bookId] */\n      dup2\n      sload\n      dup2\n      lt\n      tag_122\n      jumpi\n      mstore(0x00, 0x4e487b7100000000000000000000000000000000000000000000000000000000)\n      mstore(0x04, 0x32)\n      revert(0x00, 0x24)\n    tag_122:\n      swap1\n      0x00\n      mstore\n      keccak256(0x00, 0x20)\n      swap1\n      0x02\n      mul\n      add\n        /* \"LibraryStorage/LibraryStorage.sol\":2298:2317  books[bookId].owner */\n      0x01\n      add\n      0x00\n      swap1\n      sload\n      swap1\n      0x0100\n      exp\n      swap1\n      div\n      0xffffffffffffffffffffffffffffffffffffffff\n      and\n        /* \"LibraryStorage/LibraryStorage.sol\":2298:2331  books[bookId].owner != address(0) */\n      0xffffffffffffffffffffffffffffffffffffffff\n      and\n      eq\n      iszero\n        /* \"LibraryStorage/LibraryStorage.sol\":2290:2360  require(books[bookId].owner != address(0), \"Book is free to be taken\") */\n      tag_124\n      jumpi\n      mload(0x40)\n      0x08c379a000000000000000000000000000000000000000000000000000000000\n      dup2\n      mstore\n      0x04\n      add\n      tag_125\n      swap1\n      tag_126\n      jump\t// in\n    tag_125:\n      mload(0x40)\n      dup1\n      swap2\n      sub\n      swap1\n      revert\n    tag_124:\n        /* \"LibraryStorage/LibraryStorage.sol\":2371:2383  reservations */\n      0x00\n        /* \"LibraryStorage/LibraryStorage.sol\":2371:2391  reservations[bookId] */\n      dup1\n        /* \"LibraryStorage/LibraryStorage.sol\":2384:2390  bookId */\n      dup3\n        /* \"LibraryStorage/LibraryStorage.sol\":2371:2391  reservations[bookId] */\n      dup2\n      mstore\n      0x20\n      add\n      swap1\n      dup2\n      mstore\n      0x20\n      add\n      0x00\n      keccak256\n        /* \"LibraryStorage/LibraryStorage.sol\":2397:2407  msg.sender */\n      caller\n        /* \"LibraryStorage/LibraryStorage.sol\":2371:2408  reservations[bookId].push(msg.sender) */\n      swap1\n      dup1\n      0x01\n      dup2\n      sload\n      add\n      dup1\n      dup3\n      sstore\n      dup1\n      swap2\n      pop\n      pop\n      0x01\n      swap1\n      sub\n      swap1\n      0x00\n      mstore\n      keccak256(0x00, 0x20)\n      add\n      0x00\n      swap1\n      swap2\n      swap1\n      swap2\n      swap1\n      swap2\n      0x0100\n      exp\n      dup2\n      sload\n      dup2\n      0xffffffffffffffffffffffffffffffffffffffff\n      mul\n      not\n      and\n      swap1\n      dup4\n      0xffffffffffffffffffffffffffffffffffffffff\n      and\n      mul\n      or\n      swap1\n      sstore\n      pop\n        /* \"LibraryStorage/LibraryStorage.sol\":2241:2416  function reserv(uint bookId) external {\r... */\n      pop\n      jump\t// out\n        /* \"LibraryStorage/LibraryStorage.sol\":2551:3130  function cancelReservation(uint bookId) external {\r... */\n    tag_47:\n        /* \"LibraryStorage/LibraryStorage.sol\":2611:2633  address[] storage list */\n      0x00\n        /* \"LibraryStorage/LibraryStorage.sol\":2636:2648  reservations */\n      dup1\n        /* \"LibraryStorage/LibraryStorage.sol\":2636:2656  reservations[bookId] */\n      0x00\n        /* \"LibraryStorage/LibraryStorage.sol\":2649:2655  bookId */\n      dup4\n        /* \"LibraryStorage/LibraryStorage.sol\":2636:2656  reservations[bookId] */\n      dup2\n      mstore\n      0x20\n      add\n      swap1\n      dup2\n      mstore\n      0x20\n      add\n      0x00\n      keccak256\n        /* \"LibraryStorage/LibraryStorage.sol\":2611:2656  address[] storage list = reservations[bookId] */\n      swap1\n      pop\n        /* \"LibraryStorage/LibraryStorage.sol\":2667:2678  uint length */\n      0x00\n        /* \"LibraryStorage/LibraryStorage.sol\":2681:2685  list */\n      dup2\n        /* \"LibraryStorage/LibraryStorage.sol\":2681:2692  list.length */\n      dup1\n      sload\n      swap1\n      pop\n        /* \"LibraryStorage/LibraryStorage.sol\":2667:2692  uint length = list.length */\n      swap1\n      pop\n        /* \"LibraryStorage/LibraryStorage.sol\":2720:2721  0 */\n      0x00\n        /* \"LibraryStorage/LibraryStorage.sol\":2711:2717  length */\n      dup2\n        /* \"LibraryStorage/LibraryStorage.sol\":2711:2721  length > 0 */\n      gt\n        /* \"LibraryStorage/LibraryStorage.sol\":2703:2748  require(length > 0, \"No reservations found!\") */\n      tag_129\n      jumpi\n      mload(0x40)\n      0x08c379a000000000000000000000000000000000000000000000000000000000\n      dup2\n      mstore\n      0x04\n      add\n      tag_130\n      swap1\n      tag_131\n      jump\t// in\n    tag_130:\n      mload(0x40)\n      dup1\n      swap2\n      sub\n      swap1\n      revert\n    tag_129:\n        /* \"LibraryStorage/LibraryStorage.sol\":2761:2771  bool found */\n      0x00\n        /* \"LibraryStorage/LibraryStorage.sol\":2794:2800  uint i */\n      dup1\n        /* \"LibraryStorage/LibraryStorage.sol\":2790:3076  for(uint i=0; i < length; i++) {\r... */\n    tag_132:\n        /* \"LibraryStorage/LibraryStorage.sol\":2808:2814  length */\n      dup3\n        /* \"LibraryStorage/LibraryStorage.sol\":2804:2805  i */\n      dup2\n        /* \"LibraryStorage/LibraryStorage.sol\":2804:2814  i < length */\n      lt\n        /* \"LibraryStorage/LibraryStorage.sol\":2790:3076  for(uint i=0; i < length; i++) {\r... */\n      iszero\n      tag_133\n      jumpi\n        /* \"LibraryStorage/LibraryStorage.sol\":2849:2859  msg.sender */\n      caller\n        /* \"LibraryStorage/LibraryStorage.sol\":2839:2859  list[i]== msg.sender */\n      0xffffffffffffffffffffffffffffffffffffffff\n      and\n        /* \"LibraryStorage/LibraryStorage.sol\":2839:2843  list */\n      dup5\n        /* \"LibraryStorage/LibraryStorage.sol\":2844:2845  i */\n      dup3\n        /* \"LibraryStorage/LibraryStorage.sol\":2839:2846  list[i] */\n      dup2\n      sload\n      dup2\n      lt\n      tag_135\n      jumpi\n      mstore(0x00, 0x4e487b7100000000000000000000000000000000000000000000000000000000)\n      mstore(0x04, 0x32)\n      revert(0x00, 0x24)\n    tag_135:\n      swap1\n      0x00\n      mstore\n      keccak256(0x00, 0x20)\n      add\n      0x00\n      swap1\n      sload\n      swap1\n      0x0100\n      exp\n      swap1\n      div\n      0xffffffffffffffffffffffffffffffffffffffff\n      and\n        /* \"LibraryStorage/LibraryStorage.sol\":2839:2859  list[i]== msg.sender */\n      0xffffffffffffffffffffffffffffffffffffffff\n      and\n      eq\n        /* \"LibraryStorage/LibraryStorage.sol\":2836:3065  if(list[i]== msg.sender){\r... */\n      iszero\n      tag_137\n      jumpi\n        /* \"LibraryStorage/LibraryStorage.sol\":2883:2889  uint j */\n      0x00\n        /* \"LibraryStorage/LibraryStorage.sol\":2890:2891  i */\n      dup2\n        /* \"LibraryStorage/LibraryStorage.sol\":2883:2891  uint j=i */\n      swap1\n      pop\n        /* \"LibraryStorage/LibraryStorage.sol\":2879:2968  for(uint j=i; j<length; j++){\r... */\n    tag_138:\n        /* \"LibraryStorage/LibraryStorage.sol\":2895:2901  length */\n      dup4\n        /* \"LibraryStorage/LibraryStorage.sol\":2893:2894  j */\n      dup2\n        /* \"LibraryStorage/LibraryStorage.sol\":2893:2901  j<length */\n      lt\n        /* \"LibraryStorage/LibraryStorage.sol\":2879:2968  for(uint j=i; j<length; j++){\r... */\n      iszero\n      tag_139\n      jumpi\n        /* \"LibraryStorage/LibraryStorage.sol\":2939:2943  list */\n      dup5\n        /* \"LibraryStorage/LibraryStorage.sol\":2946:2947  1 */\n      0x01\n        /* \"LibraryStorage/LibraryStorage.sol\":2944:2945  j */\n      dup3\n        /* \"LibraryStorage/LibraryStorage.sol\":2944:2947  j+1 */\n      tag_141\n      swap2\n      swap1\n      tag_114\n      jump\t// in\n    tag_141:\n        /* \"LibraryStorage/LibraryStorage.sol\":2939:2948  list[j+1] */\n      dup2\n      sload\n      dup2\n      lt\n      tag_142\n      jumpi\n      mstore(0x00, 0x4e487b7100000000000000000000000000000000000000000000000000000000)\n      mstore(0x04, 0x32)\n      revert(0x00, 0x24)\n    tag_142:\n      swap1\n      0x00\n      mstore\n      keccak256(0x00, 0x20)\n      add\n      0x00\n      swap1\n      sload\n      swap1\n      0x0100\n      exp\n      swap1\n      div\n      0xffffffffffffffffffffffffffffffffffffffff\n      and\n        /* \"LibraryStorage/LibraryStorage.sol\":2930:2934  list */\n      dup6\n        /* \"LibraryStorage/LibraryStorage.sol\":2935:2936  j */\n      dup3\n        /* \"LibraryStorage/LibraryStorage.sol\":2930:2937  list[j] */\n      dup2\n      sload\n      dup2\n      lt\n      tag_144\n      jumpi\n      mstore(0x00, 0x4e487b7100000000000000000000000000000000000000000000000000000000)\n      mstore(0x04, 0x32)\n      revert(0x00, 0x24)\n    tag_144:\n      swap1\n      0x00\n      mstore\n      keccak256(0x00, 0x20)\n      add\n      0x00\n        /* \"LibraryStorage/LibraryStorage.sol\":2930:2948  list[j]= list[j+1] */\n      0x0100\n      exp\n      dup2\n      sload\n      dup2\n      0xffffffffffffffffffffffffffffffffffffffff\n      mul\n      not\n      and\n      swap1\n      dup4\n      0xffffffffffffffffffffffffffffffffffffffff\n      and\n      mul\n      or\n      swap1\n      sstore\n      pop\n        /* \"LibraryStorage/LibraryStorage.sol\":2903:2906  j++ */\n      dup1\n      dup1\n      tag_146\n      swap1\n      tag_62\n      jump\t// in\n    tag_146:\n      swap2\n      pop\n      pop\n        /* \"LibraryStorage/LibraryStorage.sol\":2879:2968  for(uint j=i; j<length; j++){\r... */\n      jump(tag_138)\n    tag_139:\n      pop\n        /* \"LibraryStorage/LibraryStorage.sol\":2986:2990  list */\n      dup4\n        /* \"LibraryStorage/LibraryStorage.sol\":2986:2996  list.pop() */\n      dup1\n      sload\n      dup1\n      tag_147\n      jumpi\n      mstore(0x00, 0x4e487b7100000000000000000000000000000000000000000000000000000000)\n      mstore(0x04, 0x31)\n      revert(0x00, 0x24)\n    tag_147:\n      0x01\n      swap1\n      sub\n      dup2\n      dup2\n      swap1\n      0x00\n      mstore\n      keccak256(0x00, 0x20)\n      add\n      exp(0x0100, 0x00)\n      dup2\n      sload\n      swap1\n      0xffffffffffffffffffffffffffffffffffffffff\n      mul\n      not\n      and\n      swap1\n      sstore\n      swap1\n      sstore\n        /* \"LibraryStorage/LibraryStorage.sol\":3021:3025  true */\n      0x01\n        /* \"LibraryStorage/LibraryStorage.sol\":3015:3025  found=true */\n      swap2\n      pop\n        /* \"LibraryStorage/LibraryStorage.sol\":3044:3049  break */\n      jump(tag_133)\n        /* \"LibraryStorage/LibraryStorage.sol\":2836:3065  if(list[i]== msg.sender){\r... */\n    tag_137:\n        /* \"LibraryStorage/LibraryStorage.sol\":2816:2819  i++ */\n      dup1\n      dup1\n      tag_149\n      swap1\n      tag_62\n      jump\t// in\n    tag_149:\n      swap2\n      pop\n      pop\n        /* \"LibraryStorage/LibraryStorage.sol\":2790:3076  for(uint i=0; i < length; i++) {\r... */\n      jump(tag_132)\n    tag_133:\n      pop\n        /* \"LibraryStorage/LibraryStorage.sol\":3094:3099  found */\n      dup1\n        /* \"LibraryStorage/LibraryStorage.sol\":3086:3126  require(found, \"Reservation not found!\") */\n      tag_150\n      jumpi\n      mload(0x40)\n      0x08c379a000000000000000000000000000000000000000000000000000000000\n      dup2\n      mstore\n      0x04\n      add\n      tag_151\n      swap1\n      tag_152\n      jump\t// in\n    tag_151:\n      mload(0x40)\n      dup1\n      swap2\n      sub\n      swap1\n      revert\n    tag_150:\n        /* \"LibraryStorage/LibraryStorage.sol\":2551:3130  function cancelReservation(uint bookId) external {\r... */\n      pop\n      pop\n      pop\n      pop\n      jump\t// out\n        /* \"LibraryStorage/LibraryStorage.sol\":1027:1215  function returnBook(uint bookId) external {\r... */\n    tag_50:\n        /* \"LibraryStorage/LibraryStorage.sol\":1097:1102  books */\n      0x02\n        /* \"LibraryStorage/LibraryStorage.sol\":1103:1109  bookId */\n      dup2\n        /* \"LibraryStorage/LibraryStorage.sol\":1097:1110  books[bookId] */\n      dup2\n      sload\n      dup2\n      lt\n      tag_154\n      jumpi\n      mstore(0x00, 0x4e487b7100000000000000000000000000000000000000000000000000000000)\n      mstore(0x04, 0x32)\n      revert(0x00, 0x24)\n    tag_154:\n      swap1\n      0x00\n      mstore\n      keccak256(0x00, 0x20)\n      swap1\n      0x02\n      mul\n      add\n        /* \"LibraryStorage/LibraryStorage.sol\":1097:1116  books[bookId].owner */\n      0x01\n      add\n      0x00\n      swap1\n      sload\n      swap1\n      0x0100\n      exp\n      swap1\n      div\n      0xffffffffffffffffffffffffffffffffffffffff\n      and\n        /* \"LibraryStorage/LibraryStorage.sol\":1084:1116  msg.sender ==books[bookId].owner */\n      0xffffffffffffffffffffffffffffffffffffffff\n      and\n        /* \"LibraryStorage/LibraryStorage.sol\":1084:1094  msg.sender */\n      caller\n        /* \"LibraryStorage/LibraryStorage.sol\":1084:1116  msg.sender ==books[bookId].owner */\n      0xffffffffffffffffffffffffffffffffffffffff\n      and\n      eq\n        /* \"LibraryStorage/LibraryStorage.sol\":1076:1142  require(msg.sender ==books[bookId].owner,\"Only owner can return!\") */\n      tag_156\n      jumpi\n      mload(0x40)\n      0x08c379a000000000000000000000000000000000000000000000000000000000\n      dup2\n      mstore\n      0x04\n      add\n      tag_157\n      swap1\n      tag_158\n      jump\t// in\n    tag_157:\n      mload(0x40)\n      dup1\n      swap2\n      sub\n      swap1\n      revert\n    tag_156:\n        /* \"LibraryStorage/LibraryStorage.sol\":1179:1180  0 */\n      0x00\n        /* \"LibraryStorage/LibraryStorage.sol\":1149:1154  books */\n      0x02\n        /* \"LibraryStorage/LibraryStorage.sol\":1155:1161  bookId */\n      dup3\n        /* \"LibraryStorage/LibraryStorage.sol\":1149:1162  books[bookId] */\n      dup2\n      sload\n      dup2\n      lt\n      tag_159\n      jumpi\n      mstore(0x00, 0x4e487b7100000000000000000000000000000000000000000000000000000000)\n      mstore(0x04, 0x32)\n      revert(0x00, 0x24)\n    tag_159:\n      swap1\n      0x00\n      mstore\n      keccak256(0x00, 0x20)\n      swap1\n      0x02\n      mul\n      add\n        /* \"LibraryStorage/LibraryStorage.sol\":1149:1168  books[bookId].owner */\n      0x01\n      add\n      0x00\n        /* \"LibraryStorage/LibraryStorage.sol\":1149:1181  books[bookId].owner = address(0) */\n      0x0100\n      exp\n      dup2\n      sload\n      dup2\n      0xffffffffffffffffffffffffffffffffffffffff\n      mul\n      not\n      and\n      swap1\n      dup4\n      0xffffffffffffffffffffffffffffffffffffffff\n      and\n      mul\n      or\n      swap1\n      sstore\n      pop\n        /* \"LibraryStorage/LibraryStorage.sol\":1210:1211  0 */\n      0x00\n        /* \"LibraryStorage/LibraryStorage.sol\":1188:1197  bookOwner */\n      0x01\n        /* \"LibraryStorage/LibraryStorage.sol\":1188:1209  bookOwner[msg.sender] */\n      0x00\n        /* \"LibraryStorage/LibraryStorage.sol\":1198:1208  msg.sender */\n      caller\n        /* \"LibraryStorage/LibraryStorage.sol\":1188:1209  bookOwner[msg.sender] */\n      0xffffffffffffffffffffffffffffffffffffffff\n      and\n      0xffffffffffffffffffffffffffffffffffffffff\n      and\n      dup2\n      mstore\n      0x20\n      add\n      swap1\n      dup2\n      mstore\n      0x20\n      add\n      0x00\n      keccak256\n        /* \"LibraryStorage/LibraryStorage.sol\":1188:1211  bookOwner[msg.sender]=0 */\n      dup2\n      swap1\n      sstore\n      pop\n        /* \"LibraryStorage/LibraryStorage.sol\":1027:1215  function returnBook(uint bookId) external {\r... */\n      pop\n      jump\t// out\n        /* \"LibraryStorage/LibraryStorage.sol\":1221:1791  function getAvailableBook() external view returns (Book[] memory) {\r... */\n    tag_52:\n        /* \"LibraryStorage/LibraryStorage.sol\":1272:1285  Book[] memory */\n      0x60\n        /* \"LibraryStorage/LibraryStorage.sol\":1298:1308  uint count */\n      0x00\n        /* \"LibraryStorage/LibraryStorage.sol\":1328:1334  uint i */\n      dup1\n        /* \"LibraryStorage/LibraryStorage.sol\":1323:1465  for (uint i = 0; i < books.length; i++) {\r... */\n    tag_162:\n        /* \"LibraryStorage/LibraryStorage.sol\":1344:1349  books */\n      0x02\n        /* \"LibraryStorage/LibraryStorage.sol\":1344:1356  books.length */\n      dup1\n      sload\n      swap1\n      pop\n        /* \"LibraryStorage/LibraryStorage.sol\":1340:1341  i */\n      dup2\n        /* \"LibraryStorage/LibraryStorage.sol\":1340:1356  i < books.length */\n      lt\n        /* \"LibraryStorage/LibraryStorage.sol\":1323:1465  for (uint i = 0; i < books.length; i++) {\r... */\n      iszero\n      tag_163\n      jumpi\n        /* \"LibraryStorage/LibraryStorage.sol\":1408:1409  0 */\n      0x00\n        /* \"LibraryStorage/LibraryStorage.sol\":1382:1410  books[i].owner == address(0) */\n      0xffffffffffffffffffffffffffffffffffffffff\n      and\n        /* \"LibraryStorage/LibraryStorage.sol\":1382:1387  books */\n      0x02\n        /* \"LibraryStorage/LibraryStorage.sol\":1388:1389  i */\n      dup3\n        /* \"LibraryStorage/LibraryStorage.sol\":1382:1390  books[i] */\n      dup2\n      sload\n      dup2\n      lt\n      tag_165\n      jumpi\n      mstore(0x00, 0x4e487b7100000000000000000000000000000000000000000000000000000000)\n      mstore(0x04, 0x32)\n      revert(0x00, 0x24)\n    tag_165:\n      swap1\n      0x00\n      mstore\n      keccak256(0x00, 0x20)\n      swap1\n      0x02\n      mul\n      add\n        /* \"LibraryStorage/LibraryStorage.sol\":1382:1396  books[i].owner */\n      0x01\n      add\n      0x00\n      swap1\n      sload\n      swap1\n      0x0100\n      exp\n      swap1\n      div\n      0xffffffffffffffffffffffffffffffffffffffff\n      and\n        /* \"LibraryStorage/LibraryStorage.sol\":1382:1410  books[i].owner == address(0) */\n      0xffffffffffffffffffffffffffffffffffffffff\n      and\n      eq\n        /* \"LibraryStorage/LibraryStorage.sol\":1378:1454  if (books[i].owner == address(0)) {\r... */\n      iszero\n      tag_167\n      jumpi\n        /* \"LibraryStorage/LibraryStorage.sol\":1431:1438  count++ */\n      dup2\n      dup1\n      tag_168\n      swap1\n      tag_62\n      jump\t// in\n    tag_168:\n      swap3\n      pop\n      pop\n        /* \"LibraryStorage/LibraryStorage.sol\":1378:1454  if (books[i].owner == address(0)) {\r... */\n    tag_167:\n        /* \"LibraryStorage/LibraryStorage.sol\":1358:1361  i++ */\n      dup1\n      dup1\n      tag_169\n      swap1\n      tag_62\n      jump\t// in\n    tag_169:\n      swap2\n      pop\n      pop\n        /* \"LibraryStorage/LibraryStorage.sol\":1323:1465  for (uint i = 0; i < books.length; i++) {\r... */\n      jump(tag_162)\n    tag_163:\n      pop\n        /* \"LibraryStorage/LibraryStorage.sol\":1475:1503  Book[] memory availableBooks */\n      0x00\n        /* \"LibraryStorage/LibraryStorage.sol\":1517:1522  count */\n      dup2\n        /* \"LibraryStorage/LibraryStorage.sol\":1506:1523  new Book[](count) */\n      0xffffffffffffffff\n      dup2\n      gt\n      iszero\n      tag_170\n      jumpi\n      mstore(0x00, 0x4e487b7100000000000000000000000000000000000000000000000000000000)\n      mstore(0x04, 0x41)\n      revert(0x00, 0x24)\n    tag_170:\n      mload(0x40)\n      swap1\n      dup1\n      dup3\n      mstore\n      dup1\n      0x20\n      mul\n      0x20\n      add\n      dup3\n      add\n      0x40\n      mstore\n      dup1\n      iszero\n      tag_171\n      jumpi\n      dup2\n      0x20\n      add\n    tag_172:\n      tag_173\n      tag_68\n      jump\t// in\n    tag_173:\n      dup2\n      mstore\n      0x20\n      add\n      swap1\n      0x01\n      swap1\n      sub\n      swap1\n      dup2\n      tag_172\n      jumpi\n      swap1\n      pop\n    tag_171:\n      pop\n        /* \"LibraryStorage/LibraryStorage.sol\":1475:1523  Book[] memory availableBooks = new Book[](count) */\n      swap1\n      pop\n        /* \"LibraryStorage/LibraryStorage.sol\":1534:1544  uint index */\n      0x00\n        /* \"LibraryStorage/LibraryStorage.sol\":1564:1570  uint i */\n      dup1\n        /* \"LibraryStorage/LibraryStorage.sol\":1559:1752  for (uint i = 0; i < books.length; i++) {\r... */\n    tag_174:\n        /* \"LibraryStorage/LibraryStorage.sol\":1580:1585  books */\n      0x02\n        /* \"LibraryStorage/LibraryStorage.sol\":1580:1592  books.length */\n      dup1\n      sload\n      swap1\n      pop\n        /* \"LibraryStorage/LibraryStorage.sol\":1576:1577  i */\n      dup2\n        /* \"LibraryStorage/LibraryStorage.sol\":1576:1592  i < books.length */\n      lt\n        /* \"LibraryStorage/LibraryStorage.sol\":1559:1752  for (uint i = 0; i < books.length; i++) {\r... */\n      iszero\n      tag_175\n      jumpi\n        /* \"LibraryStorage/LibraryStorage.sol\":1644:1645  0 */\n      0x00\n        /* \"LibraryStorage/LibraryStorage.sol\":1618:1646  books[i].owner == address(0) */\n      0xffffffffffffffffffffffffffffffffffffffff\n      and\n        /* \"LibraryStorage/LibraryStorage.sol\":1618:1623  books */\n      0x02\n        /* \"LibraryStorage/LibraryStorage.sol\":1624:1625  i */\n      dup3\n        /* \"LibraryStorage/LibraryStorage.sol\":1618:1626  books[i] */\n      dup2\n      sload\n      dup2\n      lt\n      tag_177\n      jumpi\n      mstore(0x00, 0x4e487b7100000000000000000000000000000000000000000000000000000000)\n      mstore(0x04, 0x32)\n      revert(0x00, 0x24)\n    tag_177:\n      swap1\n      0x00\n      mstore\n      keccak256(0x00, 0x20)\n      swap1\n      0x02\n      mul\n      add\n        /* \"LibraryStorage/LibraryStorage.sol\":1618:1632  books[i].owner */\n      0x01\n      add\n      0x00\n      swap1\n      sload\n      swap1\n      0x0100\n      exp\n      swap1\n      div\n      0xffffffffffffffffffffffffffffffffffffffff\n      and\n        /* \"LibraryStorage/LibraryStorage.sol\":1618:1646  books[i].owner == address(0) */\n      0xffffffffffffffffffffffffffffffffffffffff\n      and\n      eq\n        /* \"LibraryStorage/LibraryStorage.sol\":1614:1741  if (books[i].owner == address(0)) {\r... */\n      iszero\n      tag_179\n      jumpi\n        /* \"LibraryStorage/LibraryStorage.sol\":1691:1696  books */\n      0x02\n        /* \"LibraryStorage/LibraryStorage.sol\":1697:1698  i */\n      dup2\n        /* \"LibraryStorage/LibraryStorage.sol\":1691:1699  books[i] */\n      dup2\n      sload\n      dup2\n      lt\n      tag_180\n      jumpi\n      mstore(0x00, 0x4e487b7100000000000000000000000000000000000000000000000000000000)\n      mstore(0x04, 0x32)\n      revert(0x00, 0x24)\n    tag_180:\n      swap1\n      0x00\n      mstore\n      keccak256(0x00, 0x20)\n      swap1\n      0x02\n      mul\n      add\n        /* \"LibraryStorage/LibraryStorage.sol\":1667:1699  availableBooks[index] = books[i] */\n      mload(0x40)\n      dup1\n      0x40\n      add\n      0x40\n      mstore\n      swap1\n      dup2\n      0x00\n      dup3\n      add\n      dup1\n      sload\n      tag_182\n      swap1\n      tag_75\n      jump\t// in\n    tag_182:\n      dup1\n      0x1f\n      add\n      0x20\n      dup1\n      swap2\n      div\n      mul\n      0x20\n      add\n      mload(0x40)\n      swap1\n      dup2\n      add\n      0x40\n      mstore\n      dup1\n      swap3\n      swap2\n      swap1\n      dup2\n      dup2\n      mstore\n      0x20\n      add\n      dup3\n      dup1\n      sload\n      tag_183\n      swap1\n      tag_75\n      jump\t// in\n    tag_183:\n      dup1\n      iszero\n      tag_184\n      jumpi\n      dup1\n      0x1f\n      lt\n      tag_185\n      jumpi\n      0x0100\n      dup1\n      dup4\n      sload\n      div\n      mul\n      dup4\n      mstore\n      swap2\n      0x20\n      add\n      swap2\n      jump(tag_184)\n    tag_185:\n      dup3\n      add\n      swap2\n      swap1\n      0x00\n      mstore\n      keccak256(0x00, 0x20)\n      swap1\n    tag_186:\n      dup2\n      sload\n      dup2\n      mstore\n      swap1\n      0x01\n      add\n      swap1\n      0x20\n      add\n      dup1\n      dup4\n      gt\n      tag_186\n      jumpi\n      dup3\n      swap1\n      sub\n      0x1f\n      and\n      dup3\n      add\n      swap2\n    tag_184:\n      pop\n      pop\n      pop\n      pop\n      pop\n      dup2\n      mstore\n      0x20\n      add\n      0x01\n      dup3\n      add\n      0x00\n      swap1\n      sload\n      swap1\n      0x0100\n      exp\n      swap1\n      div\n      0xffffffffffffffffffffffffffffffffffffffff\n      and\n      0xffffffffffffffffffffffffffffffffffffffff\n      and\n      0xffffffffffffffffffffffffffffffffffffffff\n      and\n      dup2\n      mstore\n      pop\n      pop\n        /* \"LibraryStorage/LibraryStorage.sol\":1667:1681  availableBooks */\n      dup4\n        /* \"LibraryStorage/LibraryStorage.sol\":1682:1687  index */\n      dup4\n        /* \"LibraryStorage/LibraryStorage.sol\":1667:1688  availableBooks[index] */\n      dup2\n      mload\n      dup2\n      lt\n      tag_187\n      jumpi\n      mstore(0x00, 0x4e487b7100000000000000000000000000000000000000000000000000000000)\n      mstore(0x04, 0x32)\n      revert(0x00, 0x24)\n    tag_187:\n      0x20\n      mul\n      0x20\n      add\n      add\n        /* \"LibraryStorage/LibraryStorage.sol\":1667:1699  availableBooks[index] = books[i] */\n      dup2\n      swap1\n      mstore\n      pop\n        /* \"LibraryStorage/LibraryStorage.sol\":1718:1725  index++ */\n      dup2\n      dup1\n      tag_188\n      swap1\n      tag_62\n      jump\t// in\n    tag_188:\n      swap3\n      pop\n      pop\n        /* \"LibraryStorage/LibraryStorage.sol\":1614:1741  if (books[i].owner == address(0)) {\r... */\n    tag_179:\n        /* \"LibraryStorage/LibraryStorage.sol\":1594:1597  i++ */\n      dup1\n      dup1\n      tag_189\n      swap1\n      tag_62\n      jump\t// in\n    tag_189:\n      swap2\n      pop\n      pop\n        /* \"LibraryStorage/LibraryStorage.sol\":1559:1752  for (uint i = 0; i < books.length; i++) {\r... */\n      jump(tag_174)\n    tag_175:\n      pop\n        /* \"LibraryStorage/LibraryStorage.sol\":1769:1783  availableBooks */\n      dup2\n        /* \"LibraryStorage/LibraryStorage.sol\":1762:1783  return availableBooks */\n      swap4\n      pop\n      pop\n      pop\n      pop\n        /* \"LibraryStorage/LibraryStorage.sol\":1221:1791  function getAvailableBook() external view returns (Book[] memory) {\r... */\n      swap1\n      jump\t// out\n    tag_68:\n      mload(0x40)\n      dup1\n      0x40\n      add\n      0x40\n      mstore\n      dup1\n      0x60\n      dup2\n      mstore\n      0x20\n      add\n      and(0xffffffffffffffffffffffffffffffffffffffff, 0x00)\n      dup2\n      mstore\n      pop\n      swap1\n      jump\t// out\n    tag_86:\n      dup3\n      dup1\n      sload\n      tag_190\n      swap1\n      tag_75\n      jump\t// in\n    tag_190:\n      swap1\n      0x00\n      mstore\n      keccak256(0x00, 0x20)\n      swap1\n      0x1f\n      add\n      0x20\n      swap1\n      div\n      dup2\n      add\n      swap3\n      dup3\n      tag_192\n      jumpi\n      0x00\n      dup6\n      sstore\n      jump(tag_191)\n    tag_192:\n      dup3\n      0x1f\n      lt\n      tag_193\n      jumpi\n      dup1\n      mload\n      not(0xff)\n      and\n      dup4\n      dup1\n      add\n      or\n      dup6\n      sstore\n      jump(tag_191)\n    tag_193:\n      dup3\n      dup1\n      add\n      0x01\n      add\n      dup6\n      sstore\n      dup3\n      iszero\n      tag_191\n      jumpi\n      swap2\n      dup3\n      add\n    tag_194:\n      dup3\n      dup2\n      gt\n      iszero\n      tag_195\n      jumpi\n      dup3\n      mload\n      dup3\n      sstore\n      swap2\n      0x20\n      add\n      swap2\n      swap1\n      0x01\n      add\n      swap1\n      jump(tag_194)\n    tag_195:\n    tag_191:\n      pop\n      swap1\n      pop\n      tag_196\n      swap2\n      swap1\n      tag_197\n      jump\t// in\n    tag_196:\n      pop\n      swap1\n      jump\t// out\n    tag_197:\n    tag_198:\n      dup1\n      dup3\n      gt\n      iszero\n      tag_199\n      jumpi\n      0x00\n      dup2\n      0x00\n      swap1\n      sstore\n      pop\n      0x01\n      add\n      jump(tag_198)\n    tag_199:\n      pop\n      swap1\n      jump\t// out\n        /* \"#utility.yul\":7:351   */\n    tag_201:\n      0x00\n        /* \"#utility.yul\":110:175   */\n      tag_203\n        /* \"#utility.yul\":125:174   */\n      tag_204\n        /* \"#utility.yul\":167:173   */\n      dup5\n        /* \"#utility.yul\":125:174   */\n      tag_205\n      jump\t// in\n    tag_204:\n        /* \"#utility.yul\":110:175   */\n      tag_206\n      jump\t// in\n    tag_203:\n        /* \"#utility.yul\":101:175   */\n      swap1\n      pop\n        /* \"#utility.yul\":198:204   */\n      dup3\n        /* \"#utility.yul\":191:196   */\n      dup2\n        /* \"#utility.yul\":184:205   */\n      mstore\n        /* \"#utility.yul\":236:240   */\n      0x20\n        /* \"#utility.yul\":229:234   */\n      dup2\n        /* \"#utility.yul\":225:241   */\n      add\n        /* \"#utility.yul\":274:277   */\n      dup5\n        /* \"#utility.yul\":265:271   */\n      dup5\n        /* \"#utility.yul\":260:263   */\n      dup5\n        /* \"#utility.yul\":256:272   */\n      add\n        /* \"#utility.yul\":253:278   */\n      gt\n        /* \"#utility.yul\":250:252   */\n      iszero\n      tag_207\n      jumpi\n        /* \"#utility.yul\":291:292   */\n      0x00\n        /* \"#utility.yul\":288:289   */\n      dup1\n        /* \"#utility.yul\":281:293   */\n      revert\n        /* \"#utility.yul\":250:252   */\n    tag_207:\n        /* \"#utility.yul\":304:345   */\n      tag_208\n        /* \"#utility.yul\":338:344   */\n      dup5\n        /* \"#utility.yul\":333:336   */\n      dup3\n        /* \"#utility.yul\":328:331   */\n      dup6\n        /* \"#utility.yul\":304:345   */\n      tag_209\n      jump\t// in\n    tag_208:\n        /* \"#utility.yul\":91:351   */\n      pop\n      swap4\n      swap3\n      pop\n      pop\n      pop\n      jump\t// out\n        /* \"#utility.yul\":357:496   */\n    tag_210:\n      0x00\n        /* \"#utility.yul\":441:447   */\n      dup2\n        /* \"#utility.yul\":428:448   */\n      calldataload\n        /* \"#utility.yul\":419:448   */\n      swap1\n      pop\n        /* \"#utility.yul\":457:490   */\n      tag_212\n        /* \"#utility.yul\":484:489   */\n      dup2\n        /* \"#utility.yul\":457:490   */\n      tag_213\n      jump\t// in\n    tag_212:\n        /* \"#utility.yul\":409:496   */\n      swap3\n      swap2\n      pop\n      pop\n      jump\t// out\n        /* \"#utility.yul\":516:789   */\n    tag_214:\n      0x00\n        /* \"#utility.yul\":621:624   */\n      dup3\n        /* \"#utility.yul\":614:618   */\n      0x1f\n        /* \"#utility.yul\":606:612   */\n      dup4\n        /* \"#utility.yul\":602:619   */\n      add\n        /* \"#utility.yul\":598:625   */\n      slt\n        /* \"#utility.yul\":588:590   */\n      tag_216\n      jumpi\n        /* \"#utility.yul\":639:640   */\n      0x00\n        /* \"#utility.yul\":636:637   */\n      dup1\n        /* \"#utility.yul\":629:641   */\n      revert\n        /* \"#utility.yul\":588:590   */\n    tag_216:\n        /* \"#utility.yul\":679:685   */\n      dup2\n        /* \"#utility.yul\":666:686   */\n      calldataload\n        /* \"#utility.yul\":704:783   */\n      tag_217\n        /* \"#utility.yul\":779:782   */\n      dup5\n        /* \"#utility.yul\":771:777   */\n      dup3\n        /* \"#utility.yul\":764:768   */\n      0x20\n        /* \"#utility.yul\":756:762   */\n      dup7\n        /* \"#utility.yul\":752:769   */\n      add\n        /* \"#utility.yul\":704:783   */\n      tag_201\n      jump\t// in\n    tag_217:\n        /* \"#utility.yul\":695:783   */\n      swap2\n      pop\n        /* \"#utility.yul\":578:789   */\n      pop\n      swap3\n      swap2\n      pop\n      pop\n      jump\t// out\n        /* \"#utility.yul\":795:934   */\n    tag_218:\n      0x00\n        /* \"#utility.yul\":879:885   */\n      dup2\n        /* \"#utility.yul\":866:886   */\n      calldataload\n        /* \"#utility.yul\":857:886   */\n      swap1\n      pop\n        /* \"#utility.yul\":895:928   */\n      tag_220\n        /* \"#utility.yul\":922:927   */\n      dup2\n        /* \"#utility.yul\":895:928   */\n      tag_221\n      jump\t// in\n    tag_220:\n        /* \"#utility.yul\":847:934   */\n      swap3\n      swap2\n      pop\n      pop\n      jump\t// out\n        /* \"#utility.yul\":940:1202   */\n    tag_16:\n      0x00\n        /* \"#utility.yul\":1048:1050   */\n      0x20\n        /* \"#utility.yul\":1036:1045   */\n      dup3\n        /* \"#utility.yul\":1027:1034   */\n      dup5\n        /* \"#utility.yul\":1023:1046   */\n      sub\n        /* \"#utility.yul\":1019:1051   */\n      slt\n        /* \"#utility.yul\":1016:1018   */\n      iszero\n      tag_223\n      jumpi\n        /* \"#utility.yul\":1064:1065   */\n      0x00\n        /* \"#utility.yul\":1061:1062   */\n      dup1\n        /* \"#utility.yul\":1054:1066   */\n      revert\n        /* \"#utility.yul\":1016:1018   */\n    tag_223:\n        /* \"#utility.yul\":1107:1108   */\n      0x00\n        /* \"#utility.yul\":1132:1185   */\n      tag_224\n        /* \"#utility.yul\":1177:1184   */\n      dup5\n        /* \"#utility.yul\":1168:1174   */\n      dup3\n        /* \"#utility.yul\":1157:1166   */\n      dup6\n        /* \"#utility.yul\":1153:1175   */\n      add\n        /* \"#utility.yul\":1132:1185   */\n      tag_210\n      jump\t// in\n    tag_224:\n        /* \"#utility.yul\":1122:1185   */\n      swap2\n      pop\n        /* \"#utility.yul\":1078:1195   */\n      pop\n        /* \"#utility.yul\":1006:1202   */\n      swap3\n      swap2\n      pop\n      pop\n      jump\t// out\n        /* \"#utility.yul\":1208:1583   */\n    tag_26:\n      0x00\n        /* \"#utility.yul\":1326:1328   */\n      0x20\n        /* \"#utility.yul\":1314:1323   */\n      dup3\n        /* \"#utility.yul\":1305:1312   */\n      dup5\n        /* \"#utility.yul\":1301:1324   */\n      sub\n        /* \"#utility.yul\":1297:1329   */\n      slt\n        /* \"#utility.yul\":1294:1296   */\n      iszero\n      tag_226\n      jumpi\n        /* \"#utility.yul\":1342:1343   */\n      0x00\n        /* \"#utility.yul\":1339:1340   */\n      dup1\n        /* \"#utility.yul\":1332:1344   */\n      revert\n        /* \"#utility.yul\":1294:1296   */\n    tag_226:\n        /* \"#utility.yul\":1413:1414   */\n      0x00\n        /* \"#utility.yul\":1402:1411   */\n      dup3\n        /* \"#utility.yul\":1398:1415   */\n      add\n        /* \"#utility.yul\":1385:1416   */\n      calldataload\n        /* \"#utility.yul\":1443:1461   */\n      0xffffffffffffffff\n        /* \"#utility.yul\":1435:1441   */\n      dup2\n        /* \"#utility.yul\":1432:1462   */\n      gt\n        /* \"#utility.yul\":1429:1431   */\n      iszero\n      tag_227\n      jumpi\n        /* \"#utility.yul\":1475:1476   */\n      0x00\n        /* \"#utility.yul\":1472:1473   */\n      dup1\n        /* \"#utility.yul\":1465:1477   */\n      revert\n        /* \"#utility.yul\":1429:1431   */\n    tag_227:\n        /* \"#utility.yul\":1503:1566   */\n      tag_228\n        /* \"#utility.yul\":1558:1565   */\n      dup5\n        /* \"#utility.yul\":1549:1555   */\n      dup3\n        /* \"#utility.yul\":1538:1547   */\n      dup6\n        /* \"#utility.yul\":1534:1556   */\n      add\n        /* \"#utility.yul\":1503:1566   */\n      tag_214\n      jump\t// in\n    tag_228:\n        /* \"#utility.yul\":1493:1566   */\n      swap2\n      pop\n        /* \"#utility.yul\":1356:1576   */\n      pop\n        /* \"#utility.yul\":1284:1583   */\n      swap3\n      swap2\n      pop\n      pop\n      jump\t// out\n        /* \"#utility.yul\":1589:1851   */\n    tag_30:\n      0x00\n        /* \"#utility.yul\":1697:1699   */\n      0x20\n        /* \"#utility.yul\":1685:1694   */\n      dup3\n        /* \"#utility.yul\":1676:1683   */\n      dup5\n        /* \"#utility.yul\":1672:1695   */\n      sub\n        /* \"#utility.yul\":1668:1700   */\n      slt\n        /* \"#utility.yul\":1665:1667   */\n      iszero\n      tag_230\n      jumpi\n        /* \"#utility.yul\":1713:1714   */\n      0x00\n        /* \"#utility.yul\":1710:1711   */\n      dup1\n        /* \"#utility.yul\":1703:1715   */\n      revert\n        /* \"#utility.yul\":1665:1667   */\n    tag_230:\n        /* \"#utility.yul\":1756:1757   */\n      0x00\n        /* \"#utility.yul\":1781:1834   */\n      tag_231\n        /* \"#utility.yul\":1826:1833   */\n      dup5\n        /* \"#utility.yul\":1817:1823   */\n      dup3\n        /* \"#utility.yul\":1806:1815   */\n      dup6\n        /* \"#utility.yul\":1802:1824   */\n      add\n        /* \"#utility.yul\":1781:1834   */\n      tag_218\n      jump\t// in\n    tag_231:\n        /* \"#utility.yul\":1771:1834   */\n      swap2\n      pop\n        /* \"#utility.yul\":1727:1844   */\n      pop\n        /* \"#utility.yul\":1655:1851   */\n      swap3\n      swap2\n      pop\n      pop\n      jump\t// out\n        /* \"#utility.yul\":1857:2036   */\n    tag_232:\n      0x00\n        /* \"#utility.yul\":1947:1993   */\n      tag_234\n        /* \"#utility.yul\":1989:1992   */\n      dup4\n        /* \"#utility.yul\":1981:1987   */\n      dup4\n        /* \"#utility.yul\":1947:1993   */\n      tag_235\n      jump\t// in\n    tag_234:\n        /* \"#utility.yul\":2025:2029   */\n      0x20\n        /* \"#utility.yul\":2020:2023   */\n      dup4\n        /* \"#utility.yul\":2016:2030   */\n      add\n        /* \"#utility.yul\":2002:2030   */\n      swap1\n      pop\n        /* \"#utility.yul\":1937:2036   */\n      swap3\n      swap2\n      pop\n      pop\n      jump\t// out\n        /* \"#utility.yul\":2042:2278   */\n    tag_236:\n      0x00\n        /* \"#utility.yul\":2186:2272   */\n      tag_238\n        /* \"#utility.yul\":2268:2271   */\n      dup4\n        /* \"#utility.yul\":2260:2266   */\n      dup4\n        /* \"#utility.yul\":2186:2272   */\n      tag_239\n      jump\t// in\n    tag_238:\n        /* \"#utility.yul\":2172:2272   */\n      swap1\n      pop\n        /* \"#utility.yul\":2162:2278   */\n      swap3\n      swap2\n      pop\n      pop\n      jump\t// out\n        /* \"#utility.yul\":2284:2392   */\n    tag_235:\n        /* \"#utility.yul\":2361:2385   */\n      tag_241\n        /* \"#utility.yul\":2379:2384   */\n      dup2\n        /* \"#utility.yul\":2361:2385   */\n      tag_242\n      jump\t// in\n    tag_241:\n        /* \"#utility.yul\":2356:2359   */\n      dup3\n        /* \"#utility.yul\":2349:2386   */\n      mstore\n        /* \"#utility.yul\":2339:2392   */\n      pop\n      pop\n      jump\t// out\n        /* \"#utility.yul\":2398:2516   */\n    tag_243:\n        /* \"#utility.yul\":2485:2509   */\n      tag_245\n        /* \"#utility.yul\":2503:2508   */\n      dup2\n        /* \"#utility.yul\":2485:2509   */\n      tag_242\n      jump\t// in\n    tag_245:\n        /* \"#utility.yul\":2480:2483   */\n      dup3\n        /* \"#utility.yul\":2473:2510   */\n      mstore\n        /* \"#utility.yul\":2463:2516   */\n      pop\n      pop\n      jump\t// out\n        /* \"#utility.yul\":2552:3284   */\n    tag_246:\n      0x00\n        /* \"#utility.yul\":2700:2754   */\n      tag_248\n        /* \"#utility.yul\":2748:2753   */\n      dup3\n        /* \"#utility.yul\":2700:2754   */\n      tag_249\n      jump\t// in\n    tag_248:\n        /* \"#utility.yul\":2770:2856   */\n      tag_250\n        /* \"#utility.yul\":2849:2855   */\n      dup2\n        /* \"#utility.yul\":2844:2847   */\n      dup6\n        /* \"#utility.yul\":2770:2856   */\n      tag_251\n      jump\t// in\n    tag_250:\n        /* \"#utility.yul\":2763:2856   */\n      swap4\n      pop\n        /* \"#utility.yul\":2880:2936   */\n      tag_252\n        /* \"#utility.yul\":2930:2935   */\n      dup4\n        /* \"#utility.yul\":2880:2936   */\n      tag_253\n      jump\t// in\n    tag_252:\n        /* \"#utility.yul\":2959:2966   */\n      dup1\n        /* \"#utility.yul\":2990:2991   */\n      0x00\n        /* \"#utility.yul\":2975:3259   */\n    tag_254:\n        /* \"#utility.yul\":3000:3006   */\n      dup4\n        /* \"#utility.yul\":2997:2998   */\n      dup2\n        /* \"#utility.yul\":2994:3007   */\n      lt\n        /* \"#utility.yul\":2975:3259   */\n      iszero\n      tag_256\n      jumpi\n        /* \"#utility.yul\":3076:3082   */\n      dup2\n        /* \"#utility.yul\":3070:3083   */\n      mload\n        /* \"#utility.yul\":3103:3166   */\n      tag_257\n        /* \"#utility.yul\":3162:3165   */\n      dup9\n        /* \"#utility.yul\":3147:3160   */\n      dup3\n        /* \"#utility.yul\":3103:3166   */\n      tag_232\n      jump\t// in\n    tag_257:\n        /* \"#utility.yul\":3096:3166   */\n      swap8\n      pop\n        /* \"#utility.yul\":3189:3249   */\n      tag_258\n        /* \"#utility.yul\":3242:3248   */\n      dup4\n        /* \"#utility.yul\":3189:3249   */\n      tag_259\n      jump\t// in\n    tag_258:\n        /* \"#utility.yul\":3179:3249   */\n      swap3\n      pop\n        /* \"#utility.yul\":3035:3259   */\n      pop\n        /* \"#utility.yul\":3022:3023   */\n      0x01\n        /* \"#utility.yul\":3019:3020   */\n      dup2\n        /* \"#utility.yul\":3015:3024   */\n      add\n        /* \"#utility.yul\":3010:3024   */\n      swap1\n      pop\n        /* \"#utility.yul\":2975:3259   */\n      jump(tag_254)\n    tag_256:\n        /* \"#utility.yul\":2979:2993   */\n      pop\n        /* \"#utility.yul\":3275:3278   */\n      dup6\n        /* \"#utility.yul\":3268:3278   */\n      swap4\n      pop\n        /* \"#utility.yul\":2676:3284   */\n      pop\n      pop\n      pop\n      swap3\n      swap2\n      pop\n      pop\n      jump\t// out\n        /* \"#utility.yul\":3358:4429   */\n    tag_260:\n      0x00\n        /* \"#utility.yul\":3546:3620   */\n      tag_262\n        /* \"#utility.yul\":3614:3619   */\n      dup3\n        /* \"#utility.yul\":3546:3620   */\n      tag_263\n      jump\t// in\n    tag_262:\n        /* \"#utility.yul\":3636:3742   */\n      tag_264\n        /* \"#utility.yul\":3735:3741   */\n      dup2\n        /* \"#utility.yul\":3730:3733   */\n      dup6\n        /* \"#utility.yul\":3636:3742   */\n      tag_265\n      jump\t// in\n    tag_264:\n        /* \"#utility.yul\":3629:3742   */\n      swap4\n      pop\n        /* \"#utility.yul\":3768:3771   */\n      dup4\n        /* \"#utility.yul\":3813:3817   */\n      0x20\n        /* \"#utility.yul\":3805:3811   */\n      dup3\n        /* \"#utility.yul\":3801:3818   */\n      mul\n        /* \"#utility.yul\":3796:3799   */\n      dup6\n        /* \"#utility.yul\":3792:3819   */\n      add\n        /* \"#utility.yul\":3843:3919   */\n      tag_266\n        /* \"#utility.yul\":3913:3918   */\n      dup6\n        /* \"#utility.yul\":3843:3919   */\n      tag_267\n      jump\t// in\n    tag_266:\n        /* \"#utility.yul\":3942:3949   */\n      dup1\n        /* \"#utility.yul\":3973:3974   */\n      0x00\n        /* \"#utility.yul\":3958:4384   */\n    tag_268:\n        /* \"#utility.yul\":3983:3989   */\n      dup6\n        /* \"#utility.yul\":3980:3981   */\n      dup2\n        /* \"#utility.yul\":3977:3990   */\n      lt\n        /* \"#utility.yul\":3958:4384   */\n      iszero\n      tag_270\n      jumpi\n        /* \"#utility.yul\":4054:4063   */\n      dup5\n        /* \"#utility.yul\":4048:4052   */\n      dup5\n        /* \"#utility.yul\":4044:4064   */\n      sub\n        /* \"#utility.yul\":4039:4042   */\n      dup10\n        /* \"#utility.yul\":4032:4065   */\n      mstore\n        /* \"#utility.yul\":4105:4111   */\n      dup2\n        /* \"#utility.yul\":4099:4112   */\n      mload\n        /* \"#utility.yul\":4133:4237   */\n      tag_271\n        /* \"#utility.yul\":4232:4236   */\n      dup6\n        /* \"#utility.yul\":4217:4230   */\n      dup3\n        /* \"#utility.yul\":4133:4237   */\n      tag_236\n      jump\t// in\n    tag_271:\n        /* \"#utility.yul\":4125:4237   */\n      swap5\n      pop\n        /* \"#utility.yul\":4260:4340   */\n      tag_272\n        /* \"#utility.yul\":4333:4339   */\n      dup4\n        /* \"#utility.yul\":4260:4340   */\n      tag_273\n      jump\t// in\n    tag_272:\n        /* \"#utility.yul\":4250:4340   */\n      swap3\n      pop\n        /* \"#utility.yul\":4369:4373   */\n      0x20\n        /* \"#utility.yul\":4364:4367   */\n      dup11\n        /* \"#utility.yul\":4360:4374   */\n      add\n        /* \"#utility.yul\":4353:4374   */\n      swap10\n      pop\n        /* \"#utility.yul\":4018:4384   */\n      pop\n        /* \"#utility.yul\":4005:4006   */\n      0x01\n        /* \"#utility.yul\":4002:4003   */\n      dup2\n        /* \"#utility.yul\":3998:4007   */\n      add\n        /* \"#utility.yul\":3993:4007   */\n      swap1\n      pop\n        /* \"#utility.yul\":3958:4384   */\n      jump(tag_268)\n    tag_270:\n        /* \"#utility.yul\":3962:3976   */\n      pop\n        /* \"#utility.yul\":4400:4404   */\n      dup3\n        /* \"#utility.yul\":4393:4404   */\n      swap8\n      pop\n        /* \"#utility.yul\":4420:4423   */\n      dup8\n        /* \"#utility.yul\":4413:4423   */\n      swap6\n      pop\n        /* \"#utility.yul\":3522:4429   */\n      pop\n      pop\n      pop\n      pop\n      pop\n      swap3\n      swap2\n      pop\n      pop\n      jump\t// out\n        /* \"#utility.yul\":4435:4779   */\n    tag_274:\n      0x00\n        /* \"#utility.yul\":4541:4580   */\n      tag_276\n        /* \"#utility.yul\":4574:4579   */\n      dup3\n        /* \"#utility.yul\":4541:4580   */\n      tag_277\n      jump\t// in\n    tag_276:\n        /* \"#utility.yul\":4596:4657   */\n      tag_278\n        /* \"#utility.yul\":4650:4656   */\n      dup2\n        /* \"#utility.yul\":4645:4648   */\n      dup6\n        /* \"#utility.yul\":4596:4657   */\n      tag_279\n      jump\t// in\n    tag_278:\n        /* \"#utility.yul\":4589:4657   */\n      swap4\n      pop\n        /* \"#utility.yul\":4666:4718   */\n      tag_280\n        /* \"#utility.yul\":4711:4717   */\n      dup2\n        /* \"#utility.yul\":4706:4709   */\n      dup6\n        /* \"#utility.yul\":4699:4703   */\n      0x20\n        /* \"#utility.yul\":4692:4697   */\n      dup7\n        /* \"#utility.yul\":4688:4704   */\n      add\n        /* \"#utility.yul\":4666:4718   */\n      tag_281\n      jump\t// in\n    tag_280:\n        /* \"#utility.yul\":4743:4772   */\n      tag_282\n        /* \"#utility.yul\":4765:4771   */\n      dup2\n        /* \"#utility.yul\":4743:4772   */\n      tag_283\n      jump\t// in\n    tag_282:\n        /* \"#utility.yul\":4738:4741   */\n      dup5\n        /* \"#utility.yul\":4734:4773   */\n      add\n        /* \"#utility.yul\":4727:4773   */\n      swap2\n      pop\n        /* \"#utility.yul\":4517:4779   */\n      pop\n      swap3\n      swap2\n      pop\n      pop\n      jump\t// out\n        /* \"#utility.yul\":4785:5149   */\n    tag_284:\n      0x00\n        /* \"#utility.yul\":4901:4940   */\n      tag_286\n        /* \"#utility.yul\":4934:4939   */\n      dup3\n        /* \"#utility.yul\":4901:4940   */\n      tag_277\n      jump\t// in\n    tag_286:\n        /* \"#utility.yul\":4956:5027   */\n      tag_287\n        /* \"#utility.yul\":5020:5026   */\n      dup2\n        /* \"#utility.yul\":5015:5018   */\n      dup6\n        /* \"#utility.yul\":4956:5027   */\n      tag_288\n      jump\t// in\n    tag_287:\n        /* \"#utility.yul\":4949:5027   */\n      swap4\n      pop\n        /* \"#utility.yul\":5036:5088   */\n      tag_289\n        /* \"#utility.yul\":5081:5087   */\n      dup2\n        /* \"#utility.yul\":5076:5079   */\n      dup6\n        /* \"#utility.yul\":5069:5073   */\n      0x20\n        /* \"#utility.yul\":5062:5067   */\n      dup7\n        /* \"#utility.yul\":5058:5074   */\n      add\n        /* \"#utility.yul\":5036:5088   */\n      tag_281\n      jump\t// in\n    tag_289:\n        /* \"#utility.yul\":5113:5142   */\n      tag_290\n        /* \"#utility.yul\":5135:5141   */\n      dup2\n        /* \"#utility.yul\":5113:5142   */\n      tag_283\n      jump\t// in\n    tag_290:\n        /* \"#utility.yul\":5108:5111   */\n      dup5\n        /* \"#utility.yul\":5104:5143   */\n      add\n        /* \"#utility.yul\":5097:5143   */\n      swap2\n      pop\n        /* \"#utility.yul\":4877:5149   */\n      pop\n      swap3\n      swap2\n      pop\n      pop\n      jump\t// out\n        /* \"#utility.yul\":5155:5532   */\n    tag_291:\n      0x00\n        /* \"#utility.yul\":5289:5328   */\n      tag_293\n        /* \"#utility.yul\":5322:5327   */\n      dup3\n        /* \"#utility.yul\":5289:5328   */\n      tag_277\n      jump\t// in\n    tag_293:\n        /* \"#utility.yul\":5344:5433   */\n      tag_294\n        /* \"#utility.yul\":5426:5432   */\n      dup2\n        /* \"#utility.yul\":5421:5424   */\n      dup6\n        /* \"#utility.yul\":5344:5433   */\n      tag_295\n      jump\t// in\n    tag_294:\n        /* \"#utility.yul\":5337:5433   */\n      swap4\n      pop\n        /* \"#utility.yul\":5442:5494   */\n      tag_296\n        /* \"#utility.yul\":5487:5493   */\n      dup2\n        /* \"#utility.yul\":5482:5485   */\n      dup6\n        /* \"#utility.yul\":5475:5479   */\n      0x20\n        /* \"#utility.yul\":5468:5473   */\n      dup7\n        /* \"#utility.yul\":5464:5480   */\n      add\n        /* \"#utility.yul\":5442:5494   */\n      tag_281\n      jump\t// in\n    tag_296:\n        /* \"#utility.yul\":5519:5525   */\n      dup1\n        /* \"#utility.yul\":5514:5517   */\n      dup5\n        /* \"#utility.yul\":5510:5526   */\n      add\n        /* \"#utility.yul\":5503:5526   */\n      swap2\n      pop\n        /* \"#utility.yul\":5265:5532   */\n      pop\n      swap3\n      swap2\n      pop\n      pop\n      jump\t// out\n        /* \"#utility.yul\":5562:6407   */\n    tag_297:\n      0x00\n        /* \"#utility.yul\":5702:5707   */\n      dup2\n        /* \"#utility.yul\":5696:5708   */\n      sload\n        /* \"#utility.yul\":5731:5767   */\n      tag_299\n        /* \"#utility.yul\":5757:5766   */\n      dup2\n        /* \"#utility.yul\":5731:5767   */\n      tag_75\n      jump\t// in\n    tag_299:\n        /* \"#utility.yul\":5783:5872   */\n      tag_300\n        /* \"#utility.yul\":5865:5871   */\n      dup2\n        /* \"#utility.yul\":5860:5863   */\n      dup7\n        /* \"#utility.yul\":5783:5872   */\n      tag_295\n      jump\t// in\n    tag_300:\n        /* \"#utility.yul\":5776:5872   */\n      swap5\n      pop\n        /* \"#utility.yul\":5903:5904   */\n      0x01\n        /* \"#utility.yul\":5892:5901   */\n      dup3\n        /* \"#utility.yul\":5888:5905   */\n      and\n        /* \"#utility.yul\":5919:5920   */\n      0x00\n        /* \"#utility.yul\":5914:6051   */\n      dup2\n      eq\n      tag_302\n      jumpi\n        /* \"#utility.yul\":6065:6066   */\n      0x01\n        /* \"#utility.yul\":6060:6401   */\n      dup2\n      eq\n      tag_303\n      jumpi\n        /* \"#utility.yul\":5881:6401   */\n      jump(tag_301)\n        /* \"#utility.yul\":5914:6051   */\n    tag_302:\n        /* \"#utility.yul\":5998:6002   */\n      0xff\n        /* \"#utility.yul\":5994:6003   */\n      not\n        /* \"#utility.yul\":5983:5992   */\n      dup4\n        /* \"#utility.yul\":5979:6004   */\n      and\n        /* \"#utility.yul\":5974:5977   */\n      dup7\n        /* \"#utility.yul\":5967:6005   */\n      mstore\n        /* \"#utility.yul\":6034:6040   */\n      dup2\n        /* \"#utility.yul\":6029:6032   */\n      dup7\n        /* \"#utility.yul\":6025:6041   */\n      add\n        /* \"#utility.yul\":6018:6041   */\n      swap4\n      pop\n        /* \"#utility.yul\":5914:6051   */\n      jump(tag_301)\n        /* \"#utility.yul\":6060:6401   */\n    tag_303:\n        /* \"#utility.yul\":6127:6165   */\n      tag_304\n        /* \"#utility.yul\":6159:6164   */\n      dup6\n        /* \"#utility.yul\":6127:6165   */\n      tag_305\n      jump\t// in\n    tag_304:\n        /* \"#utility.yul\":6187:6188   */\n      0x00\n        /* \"#utility.yul\":6201:6355   */\n    tag_306:\n        /* \"#utility.yul\":6215:6221   */\n      dup4\n        /* \"#utility.yul\":6212:6213   */\n      dup2\n        /* \"#utility.yul\":6209:6222   */\n      lt\n        /* \"#utility.yul\":6201:6355   */\n      iszero\n      tag_308\n      jumpi\n        /* \"#utility.yul\":6289:6296   */\n      dup2\n        /* \"#utility.yul\":6283:6297   */\n      sload\n        /* \"#utility.yul\":6279:6280   */\n      dup2\n        /* \"#utility.yul\":6274:6277   */\n      dup10\n        /* \"#utility.yul\":6270:6281   */\n      add\n        /* \"#utility.yul\":6263:6298   */\n      mstore\n        /* \"#utility.yul\":6339:6340   */\n      0x01\n        /* \"#utility.yul\":6330:6337   */\n      dup3\n        /* \"#utility.yul\":6326:6341   */\n      add\n        /* \"#utility.yul\":6315:6341   */\n      swap2\n      pop\n        /* \"#utility.yul\":6237:6241   */\n      0x20\n        /* \"#utility.yul\":6234:6235   */\n      dup2\n        /* \"#utility.yul\":6230:6242   */\n      add\n        /* \"#utility.yul\":6225:6242   */\n      swap1\n      pop\n        /* \"#utility.yul\":6201:6355   */\n      jump(tag_306)\n    tag_308:\n        /* \"#utility.yul\":6384:6390   */\n      dup4\n        /* \"#utility.yul\":6379:6382   */\n      dup9\n        /* \"#utility.yul\":6375:6391   */\n      add\n        /* \"#utility.yul\":6368:6391   */\n      swap6\n      pop\n        /* \"#utility.yul\":6067:6401   */\n      pop\n      pop\n        /* \"#utility.yul\":5881:6401   */\n    tag_301:\n      pop\n        /* \"#utility.yul\":5669:6407   */\n      pop\n      pop\n      swap3\n      swap2\n      pop\n      pop\n      jump\t// out\n        /* \"#utility.yul\":6413:6733   */\n    tag_309:\n      0x00\n        /* \"#utility.yul\":6576:6643   */\n      tag_311\n        /* \"#utility.yul\":6640:6642   */\n      0x16\n        /* \"#utility.yul\":6635:6638   */\n      dup4\n        /* \"#utility.yul\":6576:6643   */\n      tag_288\n      jump\t// in\n    tag_311:\n        /* \"#utility.yul\":6569:6643   */\n      swap2\n      pop\n        /* \"#utility.yul\":6673:6697   */\n      0x4f6e6c79206f776e65722063616e2072657475726e2100000000000000000000\n        /* \"#utility.yul\":6669:6670   */\n      0x00\n        /* \"#utility.yul\":6664:6667   */\n      dup4\n        /* \"#utility.yul\":6660:6671   */\n      add\n        /* \"#utility.yul\":6653:6698   */\n      mstore\n        /* \"#utility.yul\":6724:6726   */\n      0x20\n        /* \"#utility.yul\":6719:6722   */\n      dup3\n        /* \"#utility.yul\":6715:6727   */\n      add\n        /* \"#utility.yul\":6708:6727   */\n      swap1\n      pop\n        /* \"#utility.yul\":6559:6733   */\n      swap2\n      swap1\n      pop\n      jump\t// out\n        /* \"#utility.yul\":6739:7056   */\n    tag_312:\n      0x00\n        /* \"#utility.yul\":6902:6969   */\n      tag_314\n        /* \"#utility.yul\":6966:6968   */\n      0x13\n        /* \"#utility.yul\":6961:6964   */\n      dup4\n        /* \"#utility.yul\":6902:6969   */\n      tag_288\n      jump\t// in\n    tag_314:\n        /* \"#utility.yul\":6895:6969   */\n      swap2\n      pop\n        /* \"#utility.yul\":6999:7020   */\n      0x426f6f6b20616c72656164792074616b656e2100000000000000000000000000\n        /* \"#utility.yul\":6995:6996   */\n      0x00\n        /* \"#utility.yul\":6990:6993   */\n      dup4\n        /* \"#utility.yul\":6986:6997   */\n      add\n        /* \"#utility.yul\":6979:7021   */\n      mstore\n        /* \"#utility.yul\":7047:7049   */\n      0x20\n        /* \"#utility.yul\":7042:7045   */\n      dup3\n        /* \"#utility.yul\":7038:7050   */\n      add\n        /* \"#utility.yul\":7031:7050   */\n      swap1\n      pop\n        /* \"#utility.yul\":6885:7056   */\n      swap2\n      swap1\n      pop\n      jump\t// out\n        /* \"#utility.yul\":7062:7384   */\n    tag_315:\n      0x00\n        /* \"#utility.yul\":7225:7292   */\n      tag_317\n        /* \"#utility.yul\":7289:7291   */\n      0x18\n        /* \"#utility.yul\":7284:7287   */\n      dup4\n        /* \"#utility.yul\":7225:7292   */\n      tag_288\n      jump\t// in\n    tag_317:\n        /* \"#utility.yul\":7218:7292   */\n      swap2\n      pop\n        /* \"#utility.yul\":7322:7348   */\n      0x426f6f6b206973206672656520746f2062652074616b656e0000000000000000\n        /* \"#utility.yul\":7318:7319   */\n      0x00\n        /* \"#utility.yul\":7313:7316   */\n      dup4\n        /* \"#utility.yul\":7309:7320   */\n      add\n        /* \"#utility.yul\":7302:7349   */\n      mstore\n        /* \"#utility.yul\":7375:7377   */\n      0x20\n        /* \"#utility.yul\":7370:7373   */\n      dup3\n        /* \"#utility.yul\":7366:7378   */\n      add\n        /* \"#utility.yul\":7359:7378   */\n      swap1\n      pop\n        /* \"#utility.yul\":7208:7384   */\n      swap2\n      swap1\n      pop\n      jump\t// out\n        /* \"#utility.yul\":7390:7714   */\n    tag_318:\n      0x00\n        /* \"#utility.yul\":7553:7620   */\n      tag_320\n        /* \"#utility.yul\":7617:7619   */\n      0x1a\n        /* \"#utility.yul\":7612:7615   */\n      dup4\n        /* \"#utility.yul\":7553:7620   */\n      tag_288\n      jump\t// in\n    tag_320:\n        /* \"#utility.yul\":7546:7620   */\n      swap2\n      pop\n        /* \"#utility.yul\":7650:7678   */\n      0x5527766520616c72656164792074616b656e206120626f6f6b21000000000000\n        /* \"#utility.yul\":7646:7647   */\n      0x00\n        /* \"#utility.yul\":7641:7644   */\n      dup4\n        /* \"#utility.yul\":7637:7648   */\n      add\n        /* \"#utility.yul\":7630:7679   */\n      mstore\n        /* \"#utility.yul\":7705:7707   */\n      0x20\n        /* \"#utility.yul\":7700:7703   */\n      dup3\n        /* \"#utility.yul\":7696:7708   */\n      add\n        /* \"#utility.yul\":7689:7708   */\n      swap1\n      pop\n        /* \"#utility.yul\":7536:7714   */\n      swap2\n      swap1\n      pop\n      jump\t// out\n        /* \"#utility.yul\":7720:8040   */\n    tag_321:\n      0x00\n        /* \"#utility.yul\":7883:7950   */\n      tag_323\n        /* \"#utility.yul\":7947:7949   */\n      0x16\n        /* \"#utility.yul\":7942:7945   */\n      dup4\n        /* \"#utility.yul\":7883:7950   */\n      tag_288\n      jump\t// in\n    tag_323:\n        /* \"#utility.yul\":7876:7950   */\n      swap2\n      pop\n        /* \"#utility.yul\":7980:8004   */\n      0x5265736572766174696f6e206e6f7420666f756e642100000000000000000000\n        /* \"#utility.yul\":7976:7977   */\n      0x00\n        /* \"#utility.yul\":7971:7974   */\n      dup4\n        /* \"#utility.yul\":7967:7978   */\n      add\n        /* \"#utility.yul\":7960:8005   */\n      mstore\n        /* \"#utility.yul\":8031:8033   */\n      0x20\n        /* \"#utility.yul\":8026:8029   */\n      dup3\n        /* \"#utility.yul\":8022:8034   */\n      add\n        /* \"#utility.yul\":8015:8034   */\n      swap1\n      pop\n        /* \"#utility.yul\":7866:8040   */\n      swap2\n      swap1\n      pop\n      jump\t// out\n        /* \"#utility.yul\":8046:8351   */\n    tag_324:\n      0x00\n        /* \"#utility.yul\":8209:8275   */\n      tag_326\n        /* \"#utility.yul\":8273:8274   */\n      0x08\n        /* \"#utility.yul\":8268:8271   */\n      dup4\n        /* \"#utility.yul\":8209:8275   */\n      tag_288\n      jump\t// in\n    tag_326:\n        /* \"#utility.yul\":8202:8275   */\n      swap2\n      pop\n        /* \"#utility.yul\":8305:8315   */\n      0x57726f6e67204944000000000000000000000000000000000000000000000000\n        /* \"#utility.yul\":8301:8302   */\n      0x00\n        /* \"#utility.yul\":8296:8299   */\n      dup4\n        /* \"#utility.yul\":8292:8303   */\n      add\n        /* \"#utility.yul\":8285:8316   */\n      mstore\n        /* \"#utility.yul\":8342:8344   */\n      0x20\n        /* \"#utility.yul\":8337:8340   */\n      dup3\n        /* \"#utility.yul\":8333:8345   */\n      add\n        /* \"#utility.yul\":8326:8345   */\n      swap1\n      pop\n        /* \"#utility.yul\":8192:8351   */\n      swap2\n      swap1\n      pop\n      jump\t// out\n        /* \"#utility.yul\":8357:8677   */\n    tag_327:\n      0x00\n        /* \"#utility.yul\":8520:8587   */\n      tag_329\n        /* \"#utility.yul\":8584:8586   */\n      0x16\n        /* \"#utility.yul\":8579:8582   */\n      dup4\n        /* \"#utility.yul\":8520:8587   */\n      tag_288\n      jump\t// in\n    tag_329:\n        /* \"#utility.yul\":8513:8587   */\n      swap2\n      pop\n        /* \"#utility.yul\":8617:8641   */\n      0x4e6f207265736572766174696f6e7320666f756e642100000000000000000000\n        /* \"#utility.yul\":8613:8614   */\n      0x00\n        /* \"#utility.yul\":8608:8611   */\n      dup4\n        /* \"#utility.yul\":8604:8615   */\n      add\n        /* \"#utility.yul\":8597:8642   */\n      mstore\n        /* \"#utility.yul\":8668:8670   */\n      0x20\n        /* \"#utility.yul\":8663:8666   */\n      dup3\n        /* \"#utility.yul\":8659:8671   */\n      add\n        /* \"#utility.yul\":8652:8671   */\n      swap1\n      pop\n        /* \"#utility.yul\":8503:8677   */\n      swap2\n      swap1\n      pop\n      jump\t// out\n        /* \"#utility.yul\":8747:9338   */\n    tag_239:\n      0x00\n        /* \"#utility.yul\":8882:8886   */\n      0x40\n        /* \"#utility.yul\":8877:8880   */\n      dup4\n        /* \"#utility.yul\":8873:8887   */\n      add\n        /* \"#utility.yul\":8973:8977   */\n      0x00\n        /* \"#utility.yul\":8966:8971   */\n      dup4\n        /* \"#utility.yul\":8962:8978   */\n      add\n        /* \"#utility.yul\":8956:8979   */\n      mload\n        /* \"#utility.yul\":9026:9029   */\n      dup5\n        /* \"#utility.yul\":9020:9024   */\n      dup3\n        /* \"#utility.yul\":9016:9030   */\n      sub\n        /* \"#utility.yul\":9009:9013   */\n      0x00\n        /* \"#utility.yul\":9004:9007   */\n      dup7\n        /* \"#utility.yul\":9000:9014   */\n      add\n        /* \"#utility.yul\":8993:9031   */\n      mstore\n        /* \"#utility.yul\":9052:9125   */\n      tag_331\n        /* \"#utility.yul\":9120:9124   */\n      dup3\n        /* \"#utility.yul\":9106:9118   */\n      dup3\n        /* \"#utility.yul\":9052:9125   */\n      tag_274\n      jump\t// in\n    tag_331:\n        /* \"#utility.yul\":9044:9125   */\n      swap2\n      pop\n        /* \"#utility.yul\":8897:9136   */\n      pop\n        /* \"#utility.yul\":9219:9223   */\n      0x20\n        /* \"#utility.yul\":9212:9217   */\n      dup4\n        /* \"#utility.yul\":9208:9224   */\n      add\n        /* \"#utility.yul\":9202:9225   */\n      mload\n        /* \"#utility.yul\":9238:9301   */\n      tag_332\n        /* \"#utility.yul\":9295:9299   */\n      0x20\n        /* \"#utility.yul\":9290:9293   */\n      dup7\n        /* \"#utility.yul\":9286:9300   */\n      add\n        /* \"#utility.yul\":9272:9284   */\n      dup3\n        /* \"#utility.yul\":9238:9301   */\n      tag_235\n      jump\t// in\n    tag_332:\n        /* \"#utility.yul\":9146:9311   */\n      pop\n        /* \"#utility.yul\":9328:9332   */\n      dup1\n        /* \"#utility.yul\":9321:9332   */\n      swap2\n      pop\n        /* \"#utility.yul\":8851:9338   */\n      pop\n      swap3\n      swap2\n      pop\n      pop\n      jump\t// out\n        /* \"#utility.yul\":9344:9462   */\n    tag_333:\n        /* \"#utility.yul\":9431:9455   */\n      tag_335\n        /* \"#utility.yul\":9449:9454   */\n      dup2\n        /* \"#utility.yul\":9431:9455   */\n      tag_336\n      jump\t// in\n    tag_335:\n        /* \"#utility.yul\":9426:9429   */\n      dup3\n        /* \"#utility.yul\":9419:9456   */\n      mstore\n        /* \"#utility.yul\":9409:9462   */\n      pop\n      pop\n      jump\t// out\n        /* \"#utility.yul\":9468:9743   */\n    tag_88:\n      0x00\n        /* \"#utility.yul\":9622:9717   */\n      tag_338\n        /* \"#utility.yul\":9713:9716   */\n      dup3\n        /* \"#utility.yul\":9704:9710   */\n      dup5\n        /* \"#utility.yul\":9622:9717   */\n      tag_291\n      jump\t// in\n    tag_338:\n        /* \"#utility.yul\":9615:9717   */\n      swap2\n      pop\n        /* \"#utility.yul\":9734:9737   */\n      dup2\n        /* \"#utility.yul\":9727:9737   */\n      swap1\n      pop\n        /* \"#utility.yul\":9604:9743   */\n      swap3\n      swap2\n      pop\n      pop\n      jump\t// out\n        /* \"#utility.yul\":9749:10018   */\n    tag_118:\n      0x00\n        /* \"#utility.yul\":9900:9992   */\n      tag_340\n        /* \"#utility.yul\":9988:9991   */\n      dup3\n        /* \"#utility.yul\":9979:9985   */\n      dup5\n        /* \"#utility.yul\":9900:9992   */\n      tag_297\n      jump\t// in\n    tag_340:\n        /* \"#utility.yul\":9893:9992   */\n      swap2\n      pop\n        /* \"#utility.yul\":10009:10012   */\n      dup2\n        /* \"#utility.yul\":10002:10012   */\n      swap1\n      pop\n        /* \"#utility.yul\":9882:10018   */\n      swap3\n      swap2\n      pop\n      pop\n      jump\t// out\n        /* \"#utility.yul\":10024:10246   */\n    tag_120:\n      0x00\n        /* \"#utility.yul\":10155:10157   */\n      0x20\n        /* \"#utility.yul\":10144:10153   */\n      dup3\n        /* \"#utility.yul\":10140:10158   */\n      add\n        /* \"#utility.yul\":10132:10158   */\n      swap1\n      pop\n        /* \"#utility.yul\":10168:10239   */\n      tag_342\n        /* \"#utility.yul\":10236:10237   */\n      0x00\n        /* \"#utility.yul\":10225:10234   */\n      dup4\n        /* \"#utility.yul\":10221:10238   */\n      add\n        /* \"#utility.yul\":10212:10218   */\n      dup5\n        /* \"#utility.yul\":10168:10239   */\n      tag_243\n      jump\t// in\n    tag_342:\n        /* \"#utility.yul\":10122:10246   */\n      swap3\n      swap2\n      pop\n      pop\n      jump\t// out\n        /* \"#utility.yul\":10252:10625   */\n    tag_33:\n      0x00\n        /* \"#utility.yul\":10433:10435   */\n      0x20\n        /* \"#utility.yul\":10422:10431   */\n      dup3\n        /* \"#utility.yul\":10418:10436   */\n      add\n        /* \"#utility.yul\":10410:10436   */\n      swap1\n      pop\n        /* \"#utility.yul\":10482:10491   */\n      dup2\n        /* \"#utility.yul\":10476:10480   */\n      dup2\n        /* \"#utility.yul\":10472:10492   */\n      sub\n        /* \"#utility.yul\":10468:10469   */\n      0x00\n        /* \"#utility.yul\":10457:10466   */\n      dup4\n        /* \"#utility.yul\":10453:10470   */\n      add\n        /* \"#utility.yul\":10446:10493   */\n      mstore\n        /* \"#utility.yul\":10510:10618   */\n      tag_344\n        /* \"#utility.yul\":10613:10617   */\n      dup2\n        /* \"#utility.yul\":10604:10610   */\n      dup5\n        /* \"#utility.yul\":10510:10618   */\n      tag_246\n      jump\t// in\n    tag_344:\n        /* \"#utility.yul\":10502:10618   */\n      swap1\n      pop\n        /* \"#utility.yul\":10400:10625   */\n      swap3\n      swap2\n      pop\n      pop\n      jump\t// out\n        /* \"#utility.yul\":10631:11084   */\n    tag_23:\n      0x00\n        /* \"#utility.yul\":10852:10854   */\n      0x20\n        /* \"#utility.yul\":10841:10850   */\n      dup3\n        /* \"#utility.yul\":10837:10855   */\n      add\n        /* \"#utility.yul\":10829:10855   */\n      swap1\n      pop\n        /* \"#utility.yul\":10901:10910   */\n      dup2\n        /* \"#utility.yul\":10895:10899   */\n      dup2\n        /* \"#utility.yul\":10891:10911   */\n      sub\n        /* \"#utility.yul\":10887:10888   */\n      0x00\n        /* \"#utility.yul\":10876:10885   */\n      dup4\n        /* \"#utility.yul\":10872:10889   */\n      add\n        /* \"#utility.yul\":10865:10912   */\n      mstore\n        /* \"#utility.yul\":10929:11077   */\n      tag_346\n        /* \"#utility.yul\":11072:11076   */\n      dup2\n        /* \"#utility.yul\":11063:11069   */\n      dup5\n        /* \"#utility.yul\":10929:11077   */\n      tag_260\n      jump\t// in\n    tag_346:\n        /* \"#utility.yul\":10921:11077   */\n      swap1\n      pop\n        /* \"#utility.yul\":10819:11084   */\n      swap3\n      swap2\n      pop\n      pop\n      jump\t// out\n        /* \"#utility.yul\":11090:11513   */\n    tag_38:\n      0x00\n        /* \"#utility.yul\":11269:11271   */\n      0x40\n        /* \"#utility.yul\":11258:11267   */\n      dup3\n        /* \"#utility.yul\":11254:11272   */\n      add\n        /* \"#utility.yul\":11246:11272   */\n      swap1\n      pop\n        /* \"#utility.yul\":11318:11327   */\n      dup2\n        /* \"#utility.yul\":11312:11316   */\n      dup2\n        /* \"#utility.yul\":11308:11328   */\n      sub\n        /* \"#utility.yul\":11304:11305   */\n      0x00\n        /* \"#utility.yul\":11293:11302   */\n      dup4\n        /* \"#utility.yul\":11289:11306   */\n      add\n        /* \"#utility.yul\":11282:11329   */\n      mstore\n        /* \"#utility.yul\":11346:11424   */\n      tag_348\n        /* \"#utility.yul\":11419:11423   */\n      dup2\n        /* \"#utility.yul\":11410:11416   */\n      dup6\n        /* \"#utility.yul\":11346:11424   */\n      tag_284\n      jump\t// in\n    tag_348:\n        /* \"#utility.yul\":11338:11424   */\n      swap1\n      pop\n        /* \"#utility.yul\":11434:11506   */\n      tag_349\n        /* \"#utility.yul\":11502:11504   */\n      0x20\n        /* \"#utility.yul\":11491:11500   */\n      dup4\n        /* \"#utility.yul\":11487:11505   */\n      add\n        /* \"#utility.yul\":11478:11484   */\n      dup5\n        /* \"#utility.yul\":11434:11506   */\n      tag_243\n      jump\t// in\n    tag_349:\n        /* \"#utility.yul\":11236:11513   */\n      swap4\n      swap3\n      pop\n      pop\n      pop\n      jump\t// out\n        /* \"#utility.yul\":11519:11938   */\n    tag_158:\n      0x00\n        /* \"#utility.yul\":11723:11725   */\n      0x20\n        /* \"#utility.yul\":11712:11721   */\n      dup3\n        /* \"#utility.yul\":11708:11726   */\n      add\n        /* \"#utility.yul\":11700:11726   */\n      swap1\n      pop\n        /* \"#utility.yul\":11772:11781   */\n      dup2\n        /* \"#utility.yul\":11766:11770   */\n      dup2\n        /* \"#utility.yul\":11762:11782   */\n      sub\n        /* \"#utility.yul\":11758:11759   */\n      0x00\n        /* \"#utility.yul\":11747:11756   */\n      dup4\n        /* \"#utility.yul\":11743:11760   */\n      add\n        /* \"#utility.yul\":11736:11783   */\n      mstore\n        /* \"#utility.yul\":11800:11931   */\n      tag_351\n        /* \"#utility.yul\":11926:11930   */\n      dup2\n        /* \"#utility.yul\":11800:11931   */\n      tag_309\n      jump\t// in\n    tag_351:\n        /* \"#utility.yul\":11792:11931   */\n      swap1\n      pop\n        /* \"#utility.yul\":11690:11938   */\n      swap2\n      swap1\n      pop\n      jump\t// out\n        /* \"#utility.yul\":11944:12363   */\n    tag_107:\n      0x00\n        /* \"#utility.yul\":12148:12150   */\n      0x20\n        /* \"#utility.yul\":12137:12146   */\n      dup3\n        /* \"#utility.yul\":12133:12151   */\n      add\n        /* \"#utility.yul\":12125:12151   */\n      swap1\n      pop\n        /* \"#utility.yul\":12197:12206   */\n      dup2\n        /* \"#utility.yul\":12191:12195   */\n      dup2\n        /* \"#utility.yul\":12187:12207   */\n      sub\n        /* \"#utility.yul\":12183:12184   */\n      0x00\n        /* \"#utility.yul\":12172:12181   */\n      dup4\n        /* \"#utility.yul\":12168:12185   */\n      add\n        /* \"#utility.yul\":12161:12208   */\n      mstore\n        /* \"#utility.yul\":12225:12356   */\n      tag_353\n        /* \"#utility.yul\":12351:12355   */\n      dup2\n        /* \"#utility.yul\":12225:12356   */\n      tag_312\n      jump\t// in\n    tag_353:\n        /* \"#utility.yul\":12217:12356   */\n      swap1\n      pop\n        /* \"#utility.yul\":12115:12363   */\n      swap2\n      swap1\n      pop\n      jump\t// out\n        /* \"#utility.yul\":12369:12788   */\n    tag_126:\n      0x00\n        /* \"#utility.yul\":12573:12575   */\n      0x20\n        /* \"#utility.yul\":12562:12571   */\n      dup3\n        /* \"#utility.yul\":12558:12576   */\n      add\n        /* \"#utility.yul\":12550:12576   */\n      swap1\n      pop\n        /* \"#utility.yul\":12622:12631   */\n      dup2\n        /* \"#utility.yul\":12616:12620   */\n      dup2\n        /* \"#utility.yul\":12612:12632   */\n      sub\n        /* \"#utility.yul\":12608:12609   */\n      0x00\n        /* \"#utility.yul\":12597:12606   */\n      dup4\n        /* \"#utility.yul\":12593:12610   */\n      add\n        /* \"#utility.yul\":12586:12633   */\n      mstore\n        /* \"#utility.yul\":12650:12781   */\n      tag_355\n        /* \"#utility.yul\":12776:12780   */\n      dup2\n        /* \"#utility.yul\":12650:12781   */\n      tag_315\n      jump\t// in\n    tag_355:\n        /* \"#utility.yul\":12642:12781   */\n      swap1\n      pop\n        /* \"#utility.yul\":12540:12788   */\n      swap2\n      swap1\n      pop\n      jump\t// out\n        /* \"#utility.yul\":12794:13213   */\n    tag_110:\n      0x00\n        /* \"#utility.yul\":12998:13000   */\n      0x20\n        /* \"#utility.yul\":12987:12996   */\n      dup3\n        /* \"#utility.yul\":12983:13001   */\n      add\n        /* \"#utility.yul\":12975:13001   */\n      swap1\n      pop\n        /* \"#utility.yul\":13047:13056   */\n      dup2\n        /* \"#utility.yul\":13041:13045   */\n      dup2\n        /* \"#utility.yul\":13037:13057   */\n      sub\n        /* \"#utility.yul\":13033:13034   */\n      0x00\n        /* \"#utility.yul\":13022:13031   */\n      dup4\n        /* \"#utility.yul\":13018:13035   */\n      add\n        /* \"#utility.yul\":13011:13058   */\n      mstore\n        /* \"#utility.yul\":13075:13206   */\n      tag_357\n        /* \"#utility.yul\":13201:13205   */\n      dup2\n        /* \"#utility.yul\":13075:13206   */\n      tag_318\n      jump\t// in\n    tag_357:\n        /* \"#utility.yul\":13067:13206   */\n      swap1\n      pop\n        /* \"#utility.yul\":12965:13213   */\n      swap2\n      swap1\n      pop\n      jump\t// out\n        /* \"#utility.yul\":13219:13638   */\n    tag_152:\n      0x00\n        /* \"#utility.yul\":13423:13425   */\n      0x20\n        /* \"#utility.yul\":13412:13421   */\n      dup3\n        /* \"#utility.yul\":13408:13426   */\n      add\n        /* \"#utility.yul\":13400:13426   */\n      swap1\n      pop\n        /* \"#utility.yul\":13472:13481   */\n      dup2\n        /* \"#utility.yul\":13466:13470   */\n      dup2\n        /* \"#utility.yul\":13462:13482   */\n      sub\n        /* \"#utility.yul\":13458:13459   */\n      0x00\n        /* \"#utility.yul\":13447:13456   */\n      dup4\n        /* \"#utility.yul\":13443:13460   */\n      add\n        /* \"#utility.yul\":13436:13483   */\n      mstore\n        /* \"#utility.yul\":13500:13631   */\n      tag_359\n        /* \"#utility.yul\":13626:13630   */\n      dup2\n        /* \"#utility.yul\":13500:13631   */\n      tag_321\n      jump\t// in\n    tag_359:\n        /* \"#utility.yul\":13492:13631   */\n      swap1\n      pop\n        /* \"#utility.yul\":13390:13638   */\n      swap2\n      swap1\n      pop\n      jump\t// out\n        /* \"#utility.yul\":13644:14063   */\n    tag_102:\n      0x00\n        /* \"#utility.yul\":13848:13850   */\n      0x20\n        /* \"#utility.yul\":13837:13846   */\n      dup3\n        /* \"#utility.yul\":13833:13851   */\n      add\n        /* \"#utility.yul\":13825:13851   */\n      swap1\n      pop\n        /* \"#utility.yul\":13897:13906   */\n      dup2\n        /* \"#utility.yul\":13891:13895   */\n      dup2\n        /* \"#utility.yul\":13887:13907   */\n      sub\n        /* \"#utility.yul\":13883:13884   */\n      0x00\n        /* \"#utility.yul\":13872:13881   */\n      dup4\n        /* \"#utility.yul\":13868:13885   */\n      add\n        /* \"#utility.yul\":13861:13908   */\n      mstore\n        /* \"#utility.yul\":13925:14056   */\n      tag_361\n        /* \"#utility.yul\":14051:14055   */\n      dup2\n        /* \"#utility.yul\":13925:14056   */\n      tag_324\n      jump\t// in\n    tag_361:\n        /* \"#utility.yul\":13917:14056   */\n      swap1\n      pop\n        /* \"#utility.yul\":13815:14063   */\n      swap2\n      swap1\n      pop\n      jump\t// out\n        /* \"#utility.yul\":14069:14488   */\n    tag_131:\n      0x00\n        /* \"#utility.yul\":14273:14275   */\n      0x20\n        /* \"#utility.yul\":14262:14271   */\n      dup3\n        /* \"#utility.yul\":14258:14276   */\n      add\n        /* \"#utility.yul\":14250:14276   */\n      swap1\n      pop\n        /* \"#utility.yul\":14322:14331   */\n      dup2\n        /* \"#utility.yul\":14316:14320   */\n      dup2\n        /* \"#utility.yul\":14312:14332   */\n      sub\n        /* \"#utility.yul\":14308:14309   */\n      0x00\n        /* \"#utility.yul\":14297:14306   */\n      dup4\n        /* \"#utility.yul\":14293:14310   */\n      add\n        /* \"#utility.yul\":14286:14333   */\n      mstore\n        /* \"#utility.yul\":14350:14481   */\n      tag_363\n        /* \"#utility.yul\":14476:14480   */\n      dup2\n        /* \"#utility.yul\":14350:14481   */\n      tag_327\n      jump\t// in\n    tag_363:\n        /* \"#utility.yul\":14342:14481   */\n      swap1\n      pop\n        /* \"#utility.yul\":14240:14488   */\n      swap2\n      swap1\n      pop\n      jump\t// out\n        /* \"#utility.yul\":14494:14716   */\n    tag_19:\n      0x00\n        /* \"#utility.yul\":14625:14627   */\n      0x20\n        /* \"#utility.yul\":14614:14623   */\n      dup3\n        /* \"#utility.yul\":14610:14628   */\n      add\n        /* \"#utility.yul\":14602:14628   */\n      swap1\n      pop\n        /* \"#utility.yul\":14638:14709   */\n      tag_365\n        /* \"#utility.yul\":14706:14707   */\n      0x00\n        /* \"#utility.yul\":14695:14704   */\n      dup4\n        /* \"#utility.yul\":14691:14708   */\n      add\n        /* \"#utility.yul\":14682:14688   */\n      dup5\n        /* \"#utility.yul\":14638:14709   */\n      tag_333\n      jump\t// in\n    tag_365:\n        /* \"#utility.yul\":14592:14716   */\n      swap3\n      swap2\n      pop\n      pop\n      jump\t// out\n        /* \"#utility.yul\":14722:15005   */\n    tag_206:\n      0x00\n        /* \"#utility.yul\":14788:14790   */\n      0x40\n        /* \"#utility.yul\":14782:14791   */\n      mload\n        /* \"#utility.yul\":14772:14791   */\n      swap1\n      pop\n        /* \"#utility.yul\":14830:14834   */\n      dup2\n        /* \"#utility.yul\":14822:14828   */\n      dup2\n        /* \"#utility.yul\":14818:14835   */\n      add\n        /* \"#utility.yul\":14937:14943   */\n      dup2\n        /* \"#utility.yul\":14925:14935   */\n      dup2\n        /* \"#utility.yul\":14922:14944   */\n      lt\n        /* \"#utility.yul\":14901:14919   */\n      0xffffffffffffffff\n        /* \"#utility.yul\":14889:14899   */\n      dup3\n        /* \"#utility.yul\":14886:14920   */\n      gt\n        /* \"#utility.yul\":14883:14945   */\n      or\n        /* \"#utility.yul\":14880:14882   */\n      iszero\n      tag_367\n      jumpi\n        /* \"#utility.yul\":14948:14966   */\n      tag_368\n      tag_369\n      jump\t// in\n    tag_368:\n        /* \"#utility.yul\":14880:14882   */\n    tag_367:\n        /* \"#utility.yul\":14988:14998   */\n      dup1\n        /* \"#utility.yul\":14984:14986   */\n      0x40\n        /* \"#utility.yul\":14977:14999   */\n      mstore\n        /* \"#utility.yul\":14762:15005   */\n      pop\n      swap2\n      swap1\n      pop\n      jump\t// out\n        /* \"#utility.yul\":15011:15343   */\n    tag_205:\n      0x00\n        /* \"#utility.yul\":15163:15181   */\n      0xffffffffffffffff\n        /* \"#utility.yul\":15155:15161   */\n      dup3\n        /* \"#utility.yul\":15152:15182   */\n      gt\n        /* \"#utility.yul\":15149:15151   */\n      iszero\n      tag_371\n      jumpi\n        /* \"#utility.yul\":15185:15203   */\n      tag_372\n      tag_369\n      jump\t// in\n    tag_372:\n        /* \"#utility.yul\":15149:15151   */\n    tag_371:\n        /* \"#utility.yul\":15270:15274   */\n      0x1f\n        /* \"#utility.yul\":15266:15275   */\n      not\n        /* \"#utility.yul\":15259:15263   */\n      0x1f\n        /* \"#utility.yul\":15251:15257   */\n      dup4\n        /* \"#utility.yul\":15247:15264   */\n      add\n        /* \"#utility.yul\":15243:15276   */\n      and\n        /* \"#utility.yul\":15235:15276   */\n      swap1\n      pop\n        /* \"#utility.yul\":15331:15335   */\n      0x20\n        /* \"#utility.yul\":15325:15329   */\n      dup2\n        /* \"#utility.yul\":15321:15336   */\n      add\n        /* \"#utility.yul\":15313:15336   */\n      swap1\n      pop\n        /* \"#utility.yul\":15078:15343   */\n      swap2\n      swap1\n      pop\n      jump\t// out\n        /* \"#utility.yul\":15349:15481   */\n    tag_253:\n      0x00\n        /* \"#utility.yul\":15439:15442   */\n      dup2\n        /* \"#utility.yul\":15431:15442   */\n      swap1\n      pop\n        /* \"#utility.yul\":15469:15473   */\n      0x20\n        /* \"#utility.yul\":15464:15467   */\n      dup3\n        /* \"#utility.yul\":15460:15474   */\n      add\n        /* \"#utility.yul\":15452:15474   */\n      swap1\n      pop\n        /* \"#utility.yul\":15421:15481   */\n      swap2\n      swap1\n      pop\n      jump\t// out\n        /* \"#utility.yul\":15487:15639   */\n    tag_267:\n      0x00\n        /* \"#utility.yul\":15597:15600   */\n      dup2\n        /* \"#utility.yul\":15589:15600   */\n      swap1\n      pop\n        /* \"#utility.yul\":15627:15631   */\n      0x20\n        /* \"#utility.yul\":15622:15625   */\n      dup3\n        /* \"#utility.yul\":15618:15632   */\n      add\n        /* \"#utility.yul\":15610:15632   */\n      swap1\n      pop\n        /* \"#utility.yul\":15579:15639   */\n      swap2\n      swap1\n      pop\n      jump\t// out\n        /* \"#utility.yul\":15645:15786   */\n    tag_305:\n      0x00\n        /* \"#utility.yul\":15717:15720   */\n      dup2\n        /* \"#utility.yul\":15709:15720   */\n      swap1\n      pop\n        /* \"#utility.yul\":15740:15743   */\n      dup2\n        /* \"#utility.yul\":15737:15738   */\n      0x00\n        /* \"#utility.yul\":15730:15744   */\n      mstore\n        /* \"#utility.yul\":15774:15778   */\n      0x20\n        /* \"#utility.yul\":15771:15772   */\n      0x00\n        /* \"#utility.yul\":15761:15779   */\n      keccak256\n        /* \"#utility.yul\":15753:15779   */\n      swap1\n      pop\n        /* \"#utility.yul\":15699:15786   */\n      swap2\n      swap1\n      pop\n      jump\t// out\n        /* \"#utility.yul\":15792:15906   */\n    tag_249:\n      0x00\n        /* \"#utility.yul\":15893:15898   */\n      dup2\n        /* \"#utility.yul\":15887:15899   */\n      mload\n        /* \"#utility.yul\":15877:15899   */\n      swap1\n      pop\n        /* \"#utility.yul\":15866:15906   */\n      swap2\n      swap1\n      pop\n      jump\t// out\n        /* \"#utility.yul\":15912:16046   */\n    tag_263:\n      0x00\n        /* \"#utility.yul\":16033:16038   */\n      dup2\n        /* \"#utility.yul\":16027:16039   */\n      mload\n        /* \"#utility.yul\":16017:16039   */\n      swap1\n      pop\n        /* \"#utility.yul\":16006:16046   */\n      swap2\n      swap1\n      pop\n      jump\t// out\n        /* \"#utility.yul\":16052:16151   */\n    tag_277:\n      0x00\n        /* \"#utility.yul\":16138:16143   */\n      dup2\n        /* \"#utility.yul\":16132:16144   */\n      mload\n        /* \"#utility.yul\":16122:16144   */\n      swap1\n      pop\n        /* \"#utility.yul\":16111:16151   */\n      swap2\n      swap1\n      pop\n      jump\t// out\n        /* \"#utility.yul\":16157:16270   */\n    tag_259:\n      0x00\n        /* \"#utility.yul\":16259:16263   */\n      0x20\n        /* \"#utility.yul\":16254:16257   */\n      dup3\n        /* \"#utility.yul\":16250:16264   */\n      add\n        /* \"#utility.yul\":16242:16264   */\n      swap1\n      pop\n        /* \"#utility.yul\":16232:16270   */\n      swap2\n      swap1\n      pop\n      jump\t// out\n        /* \"#utility.yul\":16276:16409   */\n    tag_273:\n      0x00\n        /* \"#utility.yul\":16398:16402   */\n      0x20\n        /* \"#utility.yul\":16393:16396   */\n      dup3\n        /* \"#utility.yul\":16389:16403   */\n      add\n        /* \"#utility.yul\":16381:16403   */\n      swap1\n      pop\n        /* \"#utility.yul\":16371:16409   */\n      swap2\n      swap1\n      pop\n      jump\t// out\n        /* \"#utility.yul\":16415:16599   */\n    tag_251:\n      0x00\n        /* \"#utility.yul\":16548:16554   */\n      dup3\n        /* \"#utility.yul\":16543:16546   */\n      dup3\n        /* \"#utility.yul\":16536:16555   */\n      mstore\n        /* \"#utility.yul\":16588:16592   */\n      0x20\n        /* \"#utility.yul\":16583:16586   */\n      dup3\n        /* \"#utility.yul\":16579:16593   */\n      add\n        /* \"#utility.yul\":16564:16593   */\n      swap1\n      pop\n        /* \"#utility.yul\":16526:16599   */\n      swap3\n      swap2\n      pop\n      pop\n      jump\t// out\n        /* \"#utility.yul\":16605:16809   */\n    tag_265:\n      0x00\n        /* \"#utility.yul\":16758:16764   */\n      dup3\n        /* \"#utility.yul\":16753:16756   */\n      dup3\n        /* \"#utility.yul\":16746:16765   */\n      mstore\n        /* \"#utility.yul\":16798:16802   */\n      0x20\n        /* \"#utility.yul\":16793:16796   */\n      dup3\n        /* \"#utility.yul\":16789:16803   */\n      add\n        /* \"#utility.yul\":16774:16803   */\n      swap1\n      pop\n        /* \"#utility.yul\":16736:16809   */\n      swap3\n      swap2\n      pop\n      pop\n      jump\t// out\n        /* \"#utility.yul\":16815:16974   */\n    tag_279:\n      0x00\n        /* \"#utility.yul\":16923:16929   */\n      dup3\n        /* \"#utility.yul\":16918:16921   */\n      dup3\n        /* \"#utility.yul\":16911:16930   */\n      mstore\n        /* \"#utility.yul\":16963:16967   */\n      0x20\n        /* \"#utility.yul\":16958:16961   */\n      dup3\n        /* \"#utility.yul\":16954:16968   */\n      add\n        /* \"#utility.yul\":16939:16968   */\n      swap1\n      pop\n        /* \"#utility.yul\":16901:16974   */\n      swap3\n      swap2\n      pop\n      pop\n      jump\t// out\n        /* \"#utility.yul\":16980:17149   */\n    tag_288:\n      0x00\n        /* \"#utility.yul\":17098:17104   */\n      dup3\n        /* \"#utility.yul\":17093:17096   */\n      dup3\n        /* \"#utility.yul\":17086:17105   */\n      mstore\n        /* \"#utility.yul\":17138:17142   */\n      0x20\n        /* \"#utility.yul\":17133:17136   */\n      dup3\n        /* \"#utility.yul\":17129:17143   */\n      add\n        /* \"#utility.yul\":17114:17143   */\n      swap1\n      pop\n        /* \"#utility.yul\":17076:17149   */\n      swap3\n      swap2\n      pop\n      pop\n      jump\t// out\n        /* \"#utility.yul\":17155:17303   */\n    tag_295:\n      0x00\n        /* \"#utility.yul\":17294:17297   */\n      dup2\n        /* \"#utility.yul\":17279:17297   */\n      swap1\n      pop\n        /* \"#utility.yul\":17269:17303   */\n      swap3\n      swap2\n      pop\n      pop\n      jump\t// out\n        /* \"#utility.yul\":17309:17614   */\n    tag_114:\n      0x00\n        /* \"#utility.yul\":17368:17388   */\n      tag_387\n        /* \"#utility.yul\":17386:17387   */\n      dup3\n        /* \"#utility.yul\":17368:17388   */\n      tag_336\n      jump\t// in\n    tag_387:\n        /* \"#utility.yul\":17363:17388   */\n      swap2\n      pop\n        /* \"#utility.yul\":17402:17422   */\n      tag_388\n        /* \"#utility.yul\":17420:17421   */\n      dup4\n        /* \"#utility.yul\":17402:17422   */\n      tag_336\n      jump\t// in\n    tag_388:\n        /* \"#utility.yul\":17397:17422   */\n      swap3\n      pop\n        /* \"#utility.yul\":17556:17557   */\n      dup3\n        /* \"#utility.yul\":17488:17554   */\n      0xffffffffffffffffffffffffffffffffffffffffffffffffffffffffffffffff\n        /* \"#utility.yul\":17484:17558   */\n      sub\n        /* \"#utility.yul\":17481:17482   */\n      dup3\n        /* \"#utility.yul\":17478:17559   */\n      gt\n        /* \"#utility.yul\":17475:17477   */\n      iszero\n      tag_389\n      jumpi\n        /* \"#utility.yul\":17562:17580   */\n      tag_390\n      tag_391\n      jump\t// in\n    tag_390:\n        /* \"#utility.yul\":17475:17477   */\n    tag_389:\n        /* \"#utility.yul\":17606:17607   */\n      dup3\n        /* \"#utility.yul\":17603:17604   */\n      dup3\n        /* \"#utility.yul\":17599:17608   */\n      add\n        /* \"#utility.yul\":17592:17608   */\n      swap1\n      pop\n        /* \"#utility.yul\":17353:17614   */\n      swap3\n      swap2\n      pop\n      pop\n      jump\t// out\n        /* \"#utility.yul\":17620:17716   */\n    tag_242:\n      0x00\n        /* \"#utility.yul\":17686:17710   */\n      tag_393\n        /* \"#utility.yul\":17704:17709   */\n      dup3\n        /* \"#utility.yul\":17686:17710   */\n      tag_394\n      jump\t// in\n    tag_393:\n        /* \"#utility.yul\":17675:17710   */\n      swap1\n      pop\n        /* \"#utility.yul\":17665:17716   */\n      swap2\n      swap1\n      pop\n      jump\t// out\n        /* \"#utility.yul\":17722:17848   */\n    tag_394:\n      0x00\n        /* \"#utility.yul\":17799:17841   */\n      0xffffffffffffffffffffffffffffffffffffffff\n        /* \"#utility.yul\":17792:17797   */\n      dup3\n        /* \"#utility.yul\":17788:17842   */\n      and\n        /* \"#utility.yul\":17777:17842   */\n      swap1\n      pop\n        /* \"#utility.yul\":17767:17848   */\n      swap2\n      swap1\n      pop\n      jump\t// out\n        /* \"#utility.yul\":17854:17931   */\n    tag_336:\n      0x00\n        /* \"#utility.yul\":17920:17925   */\n      dup2\n        /* \"#utility.yul\":17909:17925   */\n      swap1\n      pop\n        /* \"#utility.yul\":17899:17931   */\n      swap2\n      swap1\n      pop\n      jump\t// out\n        /* \"#utility.yul\":17937:18091   */\n    tag_209:\n        /* \"#utility.yul\":18021:18027   */\n      dup3\n        /* \"#utility.yul\":18016:18019   */\n      dup2\n        /* \"#utility.yul\":18011:18014   */\n      dup4\n        /* \"#utility.yul\":17998:18028   */\n      calldatacopy\n        /* \"#utility.yul\":18083:18084   */\n      0x00\n        /* \"#utility.yul\":18074:18080   */\n      dup4\n        /* \"#utility.yul\":18069:18072   */\n      dup4\n        /* \"#utility.yul\":18065:18081   */\n      add\n        /* \"#utility.yul\":18058:18085   */\n      mstore\n        /* \"#utility.yul\":17988:18091   */\n      pop\n      pop\n      pop\n      jump\t// out\n        /* \"#utility.yul\":18097:18404   */\n    tag_281:\n        /* \"#utility.yul\":18165:18166   */\n      0x00\n        /* \"#utility.yul\":18175:18288   */\n    tag_399:\n        /* \"#utility.yul\":18189:18195   */\n      dup4\n        /* \"#utility.yul\":18186:18187   */\n      dup2\n        /* \"#utility.yul\":18183:18196   */\n      lt\n        /* \"#utility.yul\":18175:18288   */\n      iszero\n      tag_401\n      jumpi\n        /* \"#utility.yul\":18274:18275   */\n      dup1\n        /* \"#utility.yul\":18269:18272   */\n      dup3\n        /* \"#utility.yul\":18265:18276   */\n      add\n        /* \"#utility.yul\":18259:18277   */\n      mload\n        /* \"#utility.yul\":18255:18256   */\n      dup2\n        /* \"#utility.yul\":18250:18253   */\n      dup5\n        /* \"#utility.yul\":18246:18257   */\n      add\n        /* \"#utility.yul\":18239:18278   */\n      mstore\n        /* \"#utility.yul\":18211:18213   */\n      0x20\n        /* \"#utility.yul\":18208:18209   */\n      dup2\n        /* \"#utility.yul\":18204:18214   */\n      add\n        /* \"#utility.yul\":18199:18214   */\n      swap1\n      pop\n        /* \"#utility.yul\":18175:18288   */\n      jump(tag_399)\n    tag_401:\n        /* \"#utility.yul\":18306:18312   */\n      dup4\n        /* \"#utility.yul\":18303:18304   */\n      dup2\n        /* \"#utility.yul\":18300:18313   */\n      gt\n        /* \"#utility.yul\":18297:18299   */\n      iszero\n      tag_402\n      jumpi\n        /* \"#utility.yul\":18386:18387   */\n      0x00\n        /* \"#utility.yul\":18377:18383   */\n      dup5\n        /* \"#utility.yul\":18372:18375   */\n      dup5\n        /* \"#utility.yul\":18368:18384   */\n      add\n        /* \"#utility.yul\":18361:18388   */\n      mstore\n        /* \"#utility.yul\":18297:18299   */\n    tag_402:\n        /* \"#utility.yul\":18146:18404   */\n      pop\n      pop\n      pop\n      pop\n      jump\t// out\n        /* \"#utility.yul\":18410:18730   */\n    tag_75:\n      0x00\n        /* \"#utility.yul\":18491:18492   */\n      0x02\n        /* \"#utility.yul\":18485:18489   */\n      dup3\n        /* \"#utility.yul\":18481:18493   */\n      div\n        /* \"#utility.yul\":18471:18493   */\n      swap1\n      pop\n        /* \"#utility.yul\":18538:18539   */\n      0x01\n        /* \"#utility.yul\":18532:18536   */\n      dup3\n        /* \"#utility.yul\":18528:18540   */\n      and\n        /* \"#utility.yul\":18559:18577   */\n      dup1\n        /* \"#utility.yul\":18549:18551   */\n      tag_404\n      jumpi\n        /* \"#utility.yul\":18615:18619   */\n      0x7f\n        /* \"#utility.yul\":18607:18613   */\n      dup3\n        /* \"#utility.yul\":18603:18620   */\n      and\n        /* \"#utility.yul\":18593:18620   */\n      swap2\n      pop\n        /* \"#utility.yul\":18549:18551   */\n    tag_404:\n        /* \"#utility.yul\":18677:18679   */\n      0x20\n        /* \"#utility.yul\":18669:18675   */\n      dup3\n        /* \"#utility.yul\":18666:18680   */\n      lt\n        /* \"#utility.yul\":18646:18664   */\n      dup2\n        /* \"#utility.yul\":18643:18681   */\n      eq\n        /* \"#utility.yul\":18640:18642   */\n      iszero\n      tag_405\n      jumpi\n        /* \"#utility.yul\":18696:18714   */\n      tag_406\n      tag_407\n      jump\t// in\n    tag_406:\n        /* \"#utility.yul\":18640:18642   */\n    tag_405:\n        /* \"#utility.yul\":18461:18730   */\n      pop\n      swap2\n      swap1\n      pop\n      jump\t// out\n        /* \"#utility.yul\":18736:18969   */\n    tag_62:\n      0x00\n        /* \"#utility.yul\":18798:18822   */\n      tag_409\n        /* \"#utility.yul\":18816:18821   */\n      dup3\n        /* \"#utility.yul\":18798:18822   */\n      tag_336\n      jump\t// in\n    tag_409:\n        /* \"#utility.yul\":18789:18822   */\n      swap2\n      pop\n        /* \"#utility.yul\":18844:18910   */\n      0xffffffffffffffffffffffffffffffffffffffffffffffffffffffffffffffff\n        /* \"#utility.yul\":18837:18842   */\n      dup3\n        /* \"#utility.yul\":18834:18911   */\n      eq\n        /* \"#utility.yul\":18831:18833   */\n      iszero\n      tag_410\n      jumpi\n        /* \"#utility.yul\":18914:18932   */\n      tag_411\n      tag_391\n      jump\t// in\n    tag_411:\n        /* \"#utility.yul\":18831:18833   */\n    tag_410:\n        /* \"#utility.yul\":18961:18962   */\n      0x01\n        /* \"#utility.yul\":18954:18959   */\n      dup3\n        /* \"#utility.yul\":18950:18963   */\n      add\n        /* \"#utility.yul\":18943:18963   */\n      swap1\n      pop\n        /* \"#utility.yul\":18779:18969   */\n      swap2\n      swap1\n      pop\n      jump\t// out\n        /* \"#utility.yul\":18975:19155   */\n    tag_391:\n        /* \"#utility.yul\":19023:19100   */\n      0x4e487b7100000000000000000000000000000000000000000000000000000000\n        /* \"#utility.yul\":19020:19021   */\n      0x00\n        /* \"#utility.yul\":19013:19101   */\n      mstore\n        /* \"#utility.yul\":19120:19124   */\n      0x11\n        /* \"#utility.yul\":19117:19118   */\n      0x04\n        /* \"#utility.yul\":19110:19125   */\n      mstore\n        /* \"#utility.yul\":19144:19148   */\n      0x24\n        /* \"#utility.yul\":19141:19142   */\n      0x00\n        /* \"#utility.yul\":19134:19149   */\n      revert\n        /* \"#utility.yul\":19161:19341   */\n    tag_407:\n        /* \"#utility.yul\":19209:19286   */\n      0x4e487b7100000000000000000000000000000000000000000000000000000000\n        /* \"#utility.yul\":19206:19207   */\n      0x00\n        /* \"#utility.yul\":19199:19287   */\n      mstore\n        /* \"#utility.yul\":19306:19310   */\n      0x22\n        /* \"#utility.yul\":19303:19304   */\n      0x04\n        /* \"#utility.yul\":19296:19311   */\n      mstore\n        /* \"#utility.yul\":19330:19334   */\n      0x24\n        /* \"#utility.yul\":19327:19328   */\n      0x00\n        /* \"#utility.yul\":19320:19335   */\n      revert\n        /* \"#utility.yul\":19347:19527   */\n    tag_369:\n        /* \"#utility.yul\":19395:19472   */\n      0x4e487b7100000000000000000000000000000000000000000000000000000000\n        /* \"#utility.yul\":19392:19393   */\n      0x00\n        /* \"#utility.yul\":19385:19473   */\n      mstore\n        /* \"#utility.yul\":19492:19496   */\n      0x41\n        /* \"#utility.yul\":19489:19490   */\n      0x04\n        /* \"#utility.yul\":19482:19497   */\n      mstore\n        /* \"#utility.yul\":19516:19520   */\n      0x24\n        /* \"#utility.yul\":19513:19514   */\n      0x00\n        /* \"#utility.yul\":19506:19521   */\n      revert\n        /* \"#utility.yul\":19533:19635   */\n    tag_283:\n      0x00\n        /* \"#utility.yul\":19625:19627   */\n      0x1f\n        /* \"#utility.yul\":19621:19628   */\n      not\n        /* \"#utility.yul\":19616:19618   */\n      0x1f\n        /* \"#utility.yul\":19609:19614   */\n      dup4\n        /* \"#utility.yul\":19605:19619   */\n      add\n        /* \"#utility.yul\":19601:19629   */\n      and\n        /* \"#utility.yul\":19591:19629   */\n      swap1\n      pop\n        /* \"#utility.yul\":19581:19635   */\n      swap2\n      swap1\n      pop\n      jump\t// out\n        /* \"#utility.yul\":19641:19763   */\n    tag_213:\n        /* \"#utility.yul\":19714:19738   */\n      tag_417\n        /* \"#utility.yul\":19732:19737   */\n      dup2\n        /* \"#utility.yul\":19714:19738   */\n      tag_242\n      jump\t// in\n    tag_417:\n        /* \"#utility.yul\":19707:19712   */\n      dup2\n        /* \"#utility.yul\":19704:19739   */\n      eq\n        /* \"#utility.yul\":19694:19696   */\n      tag_418\n      jumpi\n        /* \"#utility.yul\":19753:19754   */\n      0x00\n        /* \"#utility.yul\":19750:19751   */\n      dup1\n        /* \"#utility.yul\":19743:19755   */\n      revert\n        /* \"#utility.yul\":19694:19696   */\n    tag_418:\n        /* \"#utility.yul\":19684:19763   */\n      pop\n      jump\t// out\n        /* \"#utility.yul\":19769:19891   */\n    tag_221:\n        /* \"#utility.yul\":19842:19866   */\n      tag_420\n        /* \"#utility.yul\":19860:19865   */\n      dup2\n        /* \"#utility.yul\":19842:19866   */\n      tag_336\n      jump\t// in\n    tag_420:\n        /* \"#utility.yul\":19835:19840   */\n      dup2\n        /* \"#utility.yul\":19832:19867   */\n      eq\n        /* \"#utility.yul\":19822:19824   */\n      tag_421\n      jumpi\n        /* \"#utility.yul\":19881:19882   */\n      0x00\n        /* \"#utility.yul\":19878:19879   */\n      dup1\n        /* \"#utility.yul\":19871:19883   */\n      revert\n        /* \"#utility.yul\":19822:19824   */\n    tag_421:\n        /* \"#utility.yul\":19812:19891   */\n      pop\n      jump\t// out\n\n    auxdata: 0xa264697066735822122064dd4d9ce4ecb62a1ade5baa4afdf1d3a903f53fada97fa425bd3ceaa759ea5b64736f6c63430008000033\n}\n",
				"bytecode": {
					"linkReferences": {},
					"object": "608060405234801561001057600080fd5b50611fb7806100206000396000f3fe608060405234801561001057600080fd5b506004361061009e5760003560e01c80637e490a9e116100665780637e490a9e1461016e57806387ed34ec1461018a578063ae5e6cf4146101a6578063ca5140c9146101c2578063e35d207c146101de5761009e565b806303d24c49146100a3578063057e11c9146100d35780633bc5f48a146100f15780635a63bf0b1461010d578063687440461461013d575b600080fd5b6100bd60048036038101906100b891906115b0565b6101fc565b6040516100ca9190611c2b565b60405180910390f35b6100db610214565b6040516100e89190611af9565b60405180910390f35b61010b600480360381019061010691906115d9565b610522565b005b6101276004803603810190610122919061161a565b610624565b6040516101349190611ad7565b60405180910390f35b6101576004803603810190610152919061161a565b6106c4565b604051610165929190611b1b565b60405180910390f35b6101886004803603810190610183919061161a565b6107a0565b005b6101a4600480360381019061019f919061161a565b610ab7565b005b6101c060048036038101906101bb919061161a565b610c08565b005b6101dc60048036038101906101d7919061161a565b610eef565b005b6101e661109b565b6040516101f39190611af9565b60405180910390f35b60016020528060005260406000206000915090505481565b60606000805b6002805490508110156102e857600073ffffffffffffffffffffffffffffffffffffffff1660028281548110610279577f4e487b7100000000000000000000000000000000000000000000000000000000600052603260045260246000fd5b906000526020600020906002020160010160009054906101000a900473ffffffffffffffffffffffffffffffffffffffff1673ffffffffffffffffffffffffffffffffffffffff16146102d55781806102d190611e6c565b9250505b80806102e090611e6c565b91505061021a565b5060008167ffffffffffffffff81111561032b577f4e487b7100000000000000000000000000000000000000000000000000000000600052604160045260246000fd5b60405190808252806020026020018201604052801561036457816020015b61035161144b565b8152602001906001900390816103495790505b5090506000805b60028054905081101561051857600281815481106103b2577f4e487b7100000000000000000000000000000000000000000000000000000000600052603260045260246000fd5b90600052602060002090600202016040518060400160405290816000820180546103db90611e3a565b80601f016020809104026020016040519081016040528092919081815260200182805461040790611e3a565b80156104545780601f1061042957610100808354040283529160200191610454565b820191906000526020600020905b81548152906001019060200180831161043757829003601f168201915b505050505081526020016001820160009054906101000a900473ffffffffffffffffffffffffffffffffffffffff1673ffffffffffffffffffffffffffffffffffffffff1673ffffffffffffffffffffffffffffffffffffffff16815250508383815181106104ec577f4e487b7100000000000000000000000000000000000000000000000000000000600052603260045260246000fd5b6020026020010181905250818061050290611e6c565b925050808061051090611e6c565b91505061036b565b5081935050505090565b60026040518060400160405280838152602001600073ffffffffffffffffffffffffffffffffffffffff168152509080600181540180825580915050600190039060005260206000209060020201600090919091909150600082015181600001908051906020019061059592919061147b565b5060208201518160010160006101000a81548173ffffffffffffffffffffffffffffffffffffffff021916908373ffffffffffffffffffffffffffffffffffffffff1602179055505050806040516105ed9190611a8e565b60405180910390207f389883c247948e6a90f461d8febcbc3d72029c3e696e10f6c68cbb65d7e23fc960405160405180910390a250565b60606000808381526020019081526020016000208054806020026020016040519081016040528092919081815260200182805480156106b857602002820191906000526020600020905b8160009054906101000a900473ffffffffffffffffffffffffffffffffffffffff1673ffffffffffffffffffffffffffffffffffffffff168152602001906001019080831161066e575b50505050509050919050565b600281815481106106d457600080fd5b90600052602060002090600202016000915090508060000180546106f790611e3a565b80601f016020809104026020016040519081016040528092919081815260200182805461072390611e3a565b80156107705780601f1061074557610100808354040283529160200191610770565b820191906000526020600020905b81548152906001019060200180831161075357829003601f168201915b5050505050908060010160009054906101000a900473ffffffffffffffffffffffffffffffffffffffff16905082565b60028054905081106107e7576040517f08c379a00000000000000000000000000000000000000000000000000000000081526004016107de90611beb565b60405180910390fd5b600073ffffffffffffffffffffffffffffffffffffffff1660028281548110610839577f4e487b7100000000000000000000000000000000000000000000000000000000600052603260045260246000fd5b906000526020600020906002020160010160009054906101000a900473ffffffffffffffffffffffffffffffffffffffff1673ffffffffffffffffffffffffffffffffffffffff16146108c1576040517f08c379a00000000000000000000000000000000000000000000000000000000081526004016108b890611b6b565b60405180910390fd5b60018060003373ffffffffffffffffffffffffffffffffffffffff1673ffffffffffffffffffffffffffffffffffffffff168152602001908152602001600020541415610943576040517f08c379a000000000000000000000000000000000000000000000000000000000815260040161093a90611bab565b60405180910390fd5b336002828154811061097e577f4e487b7100000000000000000000000000000000000000000000000000000000600052603260045260246000fd5b906000526020600020906002020160010160006101000a81548173ffffffffffffffffffffffffffffffffffffffff021916908373ffffffffffffffffffffffffffffffffffffffff1602179055506001816109da9190611d66565b600160003373ffffffffffffffffffffffffffffffffffffffff1673ffffffffffffffffffffffffffffffffffffffff1681526020019081526020016000208190555060028181548110610a57577f4e487b7100000000000000000000000000000000000000000000000000000000600052603260045260246000fd5b9060005260206000209060020201600001604051610a759190611aa5565b60405180910390207f4bd98b3223c39f335bc6f823093ab65d500345beda2bd23303ae81271e26810d33604051610aac9190611abc565b60405180910390a250565b600073ffffffffffffffffffffffffffffffffffffffff1660028281548110610b09577f4e487b7100000000000000000000000000000000000000000000000000000000600052603260045260246000fd5b906000526020600020906002020160010160009054906101000a900473ffffffffffffffffffffffffffffffffffffffff1673ffffffffffffffffffffffffffffffffffffffff161415610b92576040517f08c379a0000000000000000000000000000000000000000000000000000000008152600401610b8990611b8b565b60405180910390fd5b600080828152602001908152602001600020339080600181540180825580915050600190039060005260206000200160009091909190916101000a81548173ffffffffffffffffffffffffffffffffffffffff021916908373ffffffffffffffffffffffffffffffffffffffff16021790555050565b6000806000838152602001908152602001600020905060008180549050905060008111610c6a576040517f08c379a0000000000000000000000000000000000000000000000000000000008152600401610c6190611c0b565b60405180910390fd5b6000805b82811015610ea8573373ffffffffffffffffffffffffffffffffffffffff16848281548110610cc6577f4e487b7100000000000000000000000000000000000000000000000000000000600052603260045260246000fd5b9060005260206000200160009054906101000a900473ffffffffffffffffffffffffffffffffffffffff1673ffffffffffffffffffffffffffffffffffffffff161415610e955760008190505b83811015610e1f5784600182610d299190611d66565b81548110610d60577f4e487b7100000000000000000000000000000000000000000000000000000000600052603260045260246000fd5b9060005260206000200160009054906101000a900473ffffffffffffffffffffffffffffffffffffffff16858281548110610dc4577f4e487b7100000000000000000000000000000000000000000000000000000000600052603260045260246000fd5b9060005260206000200160006101000a81548173ffffffffffffffffffffffffffffffffffffffff021916908373ffffffffffffffffffffffffffffffffffffffff1602179055508080610e1790611e6c565b915050610d13565b5083805480610e57577f4e487b7100000000000000000000000000000000000000000000000000000000600052603160045260246000fd5b6001900381819060005260206000200160006101000a81549073ffffffffffffffffffffffffffffffffffffffff0219169055905560019150610ea8565b8080610ea090611e6c565b915050610c6e565b5080610ee9576040517f08c379a0000000000000000000000000000000000000000000000000000000008152600401610ee090611bcb565b60405180910390fd5b50505050565b60028181548110610f29577f4e487b7100000000000000000000000000000000000000000000000000000000600052603260045260246000fd5b906000526020600020906002020160010160009054906101000a900473ffffffffffffffffffffffffffffffffffffffff1673ffffffffffffffffffffffffffffffffffffffff163373ffffffffffffffffffffffffffffffffffffffff1614610fc8576040517f08c379a0000000000000000000000000000000000000000000000000000000008152600401610fbf90611b4b565b60405180910390fd5b600060028281548110611004577f4e487b7100000000000000000000000000000000000000000000000000000000600052603260045260246000fd5b906000526020600020906002020160010160006101000a81548173ffffffffffffffffffffffffffffffffffffffff021916908373ffffffffffffffffffffffffffffffffffffffff1602179055506000600160003373ffffffffffffffffffffffffffffffffffffffff1673ffffffffffffffffffffffffffffffffffffffff1681526020019081526020016000208190555050565b60606000805b60028054905081101561117057600073ffffffffffffffffffffffffffffffffffffffff1660028281548110611100577f4e487b7100000000000000000000000000000000000000000000000000000000600052603260045260246000fd5b906000526020600020906002020160010160009054906101000a900473ffffffffffffffffffffffffffffffffffffffff1673ffffffffffffffffffffffffffffffffffffffff16141561115d57818061115990611e6c565b9250505b808061116890611e6c565b9150506110a1565b5060008167ffffffffffffffff8111156111b3577f4e487b7100000000000000000000000000000000000000000000000000000000600052604160045260246000fd5b6040519080825280602002602001820160405280156111ec57816020015b6111d961144b565b8152602001906001900390816111d15790505b5090506000805b60028054905081101561144157600073ffffffffffffffffffffffffffffffffffffffff1660028281548110611252577f4e487b7100000000000000000000000000000000000000000000000000000000600052603260045260246000fd5b906000526020600020906002020160010160009054906101000a900473ffffffffffffffffffffffffffffffffffffffff1673ffffffffffffffffffffffffffffffffffffffff16141561142e57600281815481106112da577f4e487b7100000000000000000000000000000000000000000000000000000000600052603260045260246000fd5b906000526020600020906002020160405180604001604052908160008201805461130390611e3a565b80601f016020809104026020016040519081016040528092919081815260200182805461132f90611e3a565b801561137c5780601f106113515761010080835404028352916020019161137c565b820191906000526020600020905b81548152906001019060200180831161135f57829003601f168201915b505050505081526020016001820160009054906101000a900473ffffffffffffffffffffffffffffffffffffffff1673ffffffffffffffffffffffffffffffffffffffff1673ffffffffffffffffffffffffffffffffffffffff1681525050838381518110611414577f4e487b7100000000000000000000000000000000000000000000000000000000600052603260045260246000fd5b6020026020010181905250818061142a90611e6c565b9250505b808061143990611e6c565b9150506111f3565b5081935050505090565b604051806040016040528060608152602001600073ffffffffffffffffffffffffffffffffffffffff1681525090565b82805461148790611e3a565b90600052602060002090601f0160209004810192826114a957600085556114f0565b82601f106114c257805160ff19168380011785556114f0565b828001600101855582156114f0579182015b828111156114ef5782518255916020019190600101906114d4565b5b5090506114fd9190611501565b5090565b5b8082111561151a576000816000905550600101611502565b5090565b600061153161152c84611c77565b611c46565b90508281526020810184848401111561154957600080fd5b611554848285611df8565b509392505050565b60008135905061156b81611f53565b92915050565b600082601f83011261158257600080fd5b813561159284826020860161151e565b91505092915050565b6000813590506115aa81611f6a565b92915050565b6000602082840312156115c257600080fd5b60006115d08482850161155c565b91505092915050565b6000602082840312156115eb57600080fd5b600082013567ffffffffffffffff81111561160557600080fd5b61161184828501611571565b91505092915050565b60006020828403121561162c57600080fd5b600061163a8482850161159b565b91505092915050565b600061164f838361166f565b60208301905092915050565b60006116678383611a42565b905092915050565b61167881611dbc565b82525050565b61168781611dbc565b82525050565b600061169882611cdc565b6116a28185611d17565b93506116ad83611ca7565b8060005b838110156116de5781516116c58882611643565b97506116d083611cfd565b9250506001810190506116b1565b5085935050505092915050565b60006116f682611ce7565b6117008185611d28565b93508360208202850161171285611cb7565b8060005b8581101561174e578484038952815161172f858261165b565b945061173a83611d0a565b925060208a01995050600181019050611716565b50829750879550505050505092915050565b600061176b82611cf2565b6117758185611d39565b9350611785818560208601611e07565b61178e81611f42565b840191505092915050565b60006117a482611cf2565b6117ae8185611d4a565b93506117be818560208601611e07565b6117c781611f42565b840191505092915050565b60006117dd82611cf2565b6117e78185611d5b565b93506117f7818560208601611e07565b80840191505092915050565b6000815461181081611e3a565b61181a8186611d5b565b94506001821660008114611835576001811461184657611879565b60ff19831686528186019350611879565b61184f85611cc7565b60005b8381101561187157815481890152600182019150602081019050611852565b838801955050505b50505092915050565b600061188f601683611d4a565b91507f4f6e6c79206f776e65722063616e2072657475726e21000000000000000000006000830152602082019050919050565b60006118cf601383611d4a565b91507f426f6f6b20616c72656164792074616b656e21000000000000000000000000006000830152602082019050919050565b600061190f601883611d4a565b91507f426f6f6b206973206672656520746f2062652074616b656e00000000000000006000830152602082019050919050565b600061194f601a83611d4a565b91507f5527766520616c72656164792074616b656e206120626f6f6b210000000000006000830152602082019050919050565b600061198f601683611d4a565b91507f5265736572766174696f6e206e6f7420666f756e6421000000000000000000006000830152602082019050919050565b60006119cf600883611d4a565b91507f57726f6e672049440000000000000000000000000000000000000000000000006000830152602082019050919050565b6000611a0f601683611d4a565b91507f4e6f207265736572766174696f6e7320666f756e6421000000000000000000006000830152602082019050919050565b60006040830160008301518482036000860152611a5f8282611760565b9150506020830151611a74602086018261166f565b508091505092915050565b611a8881611dee565b82525050565b6000611a9a82846117d2565b915081905092915050565b6000611ab18284611803565b915081905092915050565b6000602082019050611ad1600083018461167e565b92915050565b60006020820190508181036000830152611af1818461168d565b905092915050565b60006020820190508181036000830152611b1381846116eb565b905092915050565b60006040820190508181036000830152611b358185611799565b9050611b44602083018461167e565b9392505050565b60006020820190508181036000830152611b6481611882565b9050919050565b60006020820190508181036000830152611b84816118c2565b9050919050565b60006020820190508181036000830152611ba481611902565b9050919050565b60006020820190508181036000830152611bc481611942565b9050919050565b60006020820190508181036000830152611be481611982565b9050919050565b60006020820190508181036000830152611c04816119c2565b9050919050565b60006020820190508181036000830152611c2481611a02565b9050919050565b6000602082019050611c406000830184611a7f565b92915050565b6000604051905081810181811067ffffffffffffffff82111715611c6d57611c6c611f13565b5b8060405250919050565b600067ffffffffffffffff821115611c9257611c91611f13565b5b601f19601f8301169050602081019050919050565b6000819050602082019050919050565b6000819050602082019050919050565b60008190508160005260206000209050919050565b600081519050919050565b600081519050919050565b600081519050919050565b6000602082019050919050565b6000602082019050919050565b600082825260208201905092915050565b600082825260208201905092915050565b600082825260208201905092915050565b600082825260208201905092915050565b600081905092915050565b6000611d7182611dee565b9150611d7c83611dee565b9250827fffffffffffffffffffffffffffffffffffffffffffffffffffffffffffffffff03821115611db157611db0611eb5565b5b828201905092915050565b6000611dc782611dce565b9050919050565b600073ffffffffffffffffffffffffffffffffffffffff82169050919050565b6000819050919050565b82818337600083830152505050565b60005b83811015611e25578082015181840152602081019050611e0a565b83811115611e34576000848401525b50505050565b60006002820490506001821680611e5257607f821691505b60208210811415611e6657611e65611ee4565b5b50919050565b6000611e7782611dee565b91507fffffffffffffffffffffffffffffffffffffffffffffffffffffffffffffffff821415611eaa57611ea9611eb5565b5b600182019050919050565b7f4e487b7100000000000000000000000000000000000000000000000000000000600052601160045260246000fd5b7f4e487b7100000000000000000000000000000000000000000000000000000000600052602260045260246000fd5b7f4e487b7100000000000000000000000000000000000000000000000000000000600052604160045260246000fd5b6000601f19601f8301169050919050565b611f5c81611dbc565b8114611f6757600080fd5b50565b611f7381611dee565b8114611f7e57600080fd5b5056fea264697066735822122064dd4d9ce4ecb62a1ade5baa4afdf1d3a903f53fada97fa425bd3ceaa759ea5b64736f6c63430008000033",
					"opcodes": "PUSH1 0x80 PUSH1 0x40 MSTORE CALLVALUE DUP1 ISZERO PUSH2 0x10 JUMPI PUSH1 0x0 DUP1 REVERT JUMPDEST POP PUSH2 0x1FB7 DUP1 PUSH2 0x20 PUSH1 0x0 CODECOPY PUSH1 0x0 RETURN INVALID PUSH1 0x80 PUSH1 0x40 MSTORE CALLVALUE DUP1 ISZERO PUSH2 0x10 JUMPI PUSH1 0x0 DUP1 REVERT JUMPDEST POP PUSH1 0x4 CALLDATASIZE LT PUSH2 0x9E JUMPI PUSH1 0x0 CALLDATALOAD PUSH1 0xE0 SHR DUP1 PUSH4 0x7E490A9E GT PUSH2 0x66 JUMPI DUP1 PUSH4 0x7E490A9E EQ PUSH2 0x16E JUMPI DUP1 PUSH4 0x87ED34EC EQ PUSH2 0x18A JUMPI DUP1 PUSH4 0xAE5E6CF4 EQ PUSH2 0x1A6 JUMPI DUP1 PUSH4 0xCA5140C9 EQ PUSH2 0x1C2 JUMPI DUP1 PUSH4 0xE35D207C EQ PUSH2 0x1DE JUMPI PUSH2 0x9E JUMP JUMPDEST DUP1 PUSH4 0x3D24C49 EQ PUSH2 0xA3 JUMPI DUP1 PUSH4 0x57E11C9 EQ PUSH2 0xD3 JUMPI DUP1 PUSH4 0x3BC5F48A EQ PUSH2 0xF1 JUMPI DUP1 PUSH4 0x5A63BF0B EQ PUSH2 0x10D JUMPI DUP1 PUSH4 0x68744046 EQ PUSH2 0x13D JUMPI JUMPDEST PUSH1 0x0 DUP1 REVERT JUMPDEST PUSH2 0xBD PUSH1 0x4 DUP1 CALLDATASIZE SUB DUP2 ADD SWAP1 PUSH2 0xB8 SWAP2 SWAP1 PUSH2 0x15B0 JUMP JUMPDEST PUSH2 0x1FC JUMP JUMPDEST PUSH1 0x40 MLOAD PUSH2 0xCA SWAP2 SWAP1 PUSH2 0x1C2B JUMP JUMPDEST PUSH1 0x40 MLOAD DUP1 SWAP2 SUB SWAP1 RETURN JUMPDEST PUSH2 0xDB PUSH2 0x214 JUMP JUMPDEST PUSH1 0x40 MLOAD PUSH2 0xE8 SWAP2 SWAP1 PUSH2 0x1AF9 JUMP JUMPDEST PUSH1 0x40 MLOAD DUP1 SWAP2 SUB SWAP1 RETURN JUMPDEST PUSH2 0x10B PUSH1 0x4 DUP1 CALLDATASIZE SUB DUP2 ADD SWAP1 PUSH2 0x106 SWAP2 SWAP1 PUSH2 0x15D9 JUMP JUMPDEST PUSH2 0x522 JUMP JUMPDEST STOP JUMPDEST PUSH2 0x127 PUSH1 0x4 DUP1 CALLDATASIZE SUB DUP2 ADD SWAP1 PUSH2 0x122 SWAP2 SWAP1 PUSH2 0x161A JUMP JUMPDEST PUSH2 0x624 JUMP JUMPDEST PUSH1 0x40 MLOAD PUSH2 0x134 SWAP2 SWAP1 PUSH2 0x1AD7 JUMP JUMPDEST PUSH1 0x40 MLOAD DUP1 SWAP2 SUB SWAP1 RETURN JUMPDEST PUSH2 0x157 PUSH1 0x4 DUP1 CALLDATASIZE SUB DUP2 ADD SWAP1 PUSH2 0x152 SWAP2 SWAP1 PUSH2 0x161A JUMP JUMPDEST PUSH2 0x6C4 JUMP JUMPDEST PUSH1 0x40 MLOAD PUSH2 0x165 SWAP3 SWAP2 SWAP1 PUSH2 0x1B1B JUMP JUMPDEST PUSH1 0x40 MLOAD DUP1 SWAP2 SUB SWAP1 RETURN JUMPDEST PUSH2 0x188 PUSH1 0x4 DUP1 CALLDATASIZE SUB DUP2 ADD SWAP1 PUSH2 0x183 SWAP2 SWAP1 PUSH2 0x161A JUMP JUMPDEST PUSH2 0x7A0 JUMP JUMPDEST STOP JUMPDEST PUSH2 0x1A4 PUSH1 0x4 DUP1 CALLDATASIZE SUB DUP2 ADD SWAP1 PUSH2 0x19F SWAP2 SWAP1 PUSH2 0x161A JUMP JUMPDEST PUSH2 0xAB7 JUMP JUMPDEST STOP JUMPDEST PUSH2 0x1C0 PUSH1 0x4 DUP1 CALLDATASIZE SUB DUP2 ADD SWAP1 PUSH2 0x1BB SWAP2 SWAP1 PUSH2 0x161A JUMP JUMPDEST PUSH2 0xC08 JUMP JUMPDEST STOP JUMPDEST PUSH2 0x1DC PUSH1 0x4 DUP1 CALLDATASIZE SUB DUP2 ADD SWAP1 PUSH2 0x1D7 SWAP2 SWAP1 PUSH2 0x161A JUMP JUMPDEST PUSH2 0xEEF JUMP JUMPDEST STOP JUMPDEST PUSH2 0x1E6 PUSH2 0x109B JUMP JUMPDEST PUSH1 0x40 MLOAD PUSH2 0x1F3 SWAP2 SWAP1 PUSH2 0x1AF9 JUMP JUMPDEST PUSH1 0x40 MLOAD DUP1 SWAP2 SUB SWAP1 RETURN JUMPDEST PUSH1 0x1 PUSH1 0x20 MSTORE DUP1 PUSH1 0x0 MSTORE PUSH1 0x40 PUSH1 0x0 KECCAK256 PUSH1 0x0 SWAP2 POP SWAP1 POP SLOAD DUP2 JUMP JUMPDEST PUSH1 0x60 PUSH1 0x0 DUP1 JUMPDEST PUSH1 0x2 DUP1 SLOAD SWAP1 POP DUP2 LT ISZERO PUSH2 0x2E8 JUMPI PUSH1 0x0 PUSH20 0xFFFFFFFFFFFFFFFFFFFFFFFFFFFFFFFFFFFFFFFF AND PUSH1 0x2 DUP3 DUP2 SLOAD DUP2 LT PUSH2 0x279 JUMPI PUSH32 0x4E487B7100000000000000000000000000000000000000000000000000000000 PUSH1 0x0 MSTORE PUSH1 0x32 PUSH1 0x4 MSTORE PUSH1 0x24 PUSH1 0x0 REVERT JUMPDEST SWAP1 PUSH1 0x0 MSTORE PUSH1 0x20 PUSH1 0x0 KECCAK256 SWAP1 PUSH1 0x2 MUL ADD PUSH1 0x1 ADD PUSH1 0x0 SWAP1 SLOAD SWAP1 PUSH2 0x100 EXP SWAP1 DIV PUSH20 0xFFFFFFFFFFFFFFFFFFFFFFFFFFFFFFFFFFFFFFFF AND PUSH20 0xFFFFFFFFFFFFFFFFFFFFFFFFFFFFFFFFFFFFFFFF AND EQ PUSH2 0x2D5 JUMPI DUP2 DUP1 PUSH2 0x2D1 SWAP1 PUSH2 0x1E6C JUMP JUMPDEST SWAP3 POP POP JUMPDEST DUP1 DUP1 PUSH2 0x2E0 SWAP1 PUSH2 0x1E6C JUMP JUMPDEST SWAP2 POP POP PUSH2 0x21A JUMP JUMPDEST POP PUSH1 0x0 DUP2 PUSH8 0xFFFFFFFFFFFFFFFF DUP2 GT ISZERO PUSH2 0x32B JUMPI PUSH32 0x4E487B7100000000000000000000000000000000000000000000000000000000 PUSH1 0x0 MSTORE PUSH1 0x41 PUSH1 0x4 MSTORE PUSH1 0x24 PUSH1 0x0 REVERT JUMPDEST PUSH1 0x40 MLOAD SWAP1 DUP1 DUP3 MSTORE DUP1 PUSH1 0x20 MUL PUSH1 0x20 ADD DUP3 ADD PUSH1 0x40 MSTORE DUP1 ISZERO PUSH2 0x364 JUMPI DUP2 PUSH1 0x20 ADD JUMPDEST PUSH2 0x351 PUSH2 0x144B JUMP JUMPDEST DUP2 MSTORE PUSH1 0x20 ADD SWAP1 PUSH1 0x1 SWAP1 SUB SWAP1 DUP2 PUSH2 0x349 JUMPI SWAP1 POP JUMPDEST POP SWAP1 POP PUSH1 0x0 DUP1 JUMPDEST PUSH1 0x2 DUP1 SLOAD SWAP1 POP DUP2 LT ISZERO PUSH2 0x518 JUMPI PUSH1 0x2 DUP2 DUP2 SLOAD DUP2 LT PUSH2 0x3B2 JUMPI PUSH32 0x4E487B7100000000000000000000000000000000000000000000000000000000 PUSH1 0x0 MSTORE PUSH1 0x32 PUSH1 0x4 MSTORE PUSH1 0x24 PUSH1 0x0 REVERT JUMPDEST SWAP1 PUSH1 0x0 MSTORE PUSH1 0x20 PUSH1 0x0 KECCAK256 SWAP1 PUSH1 0x2 MUL ADD PUSH1 0x40 MLOAD DUP1 PUSH1 0x40 ADD PUSH1 0x40 MSTORE SWAP1 DUP2 PUSH1 0x0 DUP3 ADD DUP1 SLOAD PUSH2 0x3DB SWAP1 PUSH2 0x1E3A JUMP JUMPDEST DUP1 PUSH1 0x1F ADD PUSH1 0x20 DUP1 SWAP2 DIV MUL PUSH1 0x20 ADD PUSH1 0x40 MLOAD SWAP1 DUP2 ADD PUSH1 0x40 MSTORE DUP1 SWAP3 SWAP2 SWAP1 DUP2 DUP2 MSTORE PUSH1 0x20 ADD DUP3 DUP1 SLOAD PUSH2 0x407 SWAP1 PUSH2 0x1E3A JUMP JUMPDEST DUP1 ISZERO PUSH2 0x454 JUMPI DUP1 PUSH1 0x1F LT PUSH2 0x429 JUMPI PUSH2 0x100 DUP1 DUP4 SLOAD DIV MUL DUP4 MSTORE SWAP2 PUSH1 0x20 ADD SWAP2 PUSH2 0x454 JUMP JUMPDEST DUP3 ADD SWAP2 SWAP1 PUSH1 0x0 MSTORE PUSH1 0x20 PUSH1 0x0 KECCAK256 SWAP1 JUMPDEST DUP2 SLOAD DUP2 MSTORE SWAP1 PUSH1 0x1 ADD SWAP1 PUSH1 0x20 ADD DUP1 DUP4 GT PUSH2 0x437 JUMPI DUP3 SWAP1 SUB PUSH1 0x1F AND DUP3 ADD SWAP2 JUMPDEST POP POP POP POP POP DUP2 MSTORE PUSH1 0x20 ADD PUSH1 0x1 DUP3 ADD PUSH1 0x0 SWAP1 SLOAD SWAP1 PUSH2 0x100 EXP SWAP1 DIV PUSH20 0xFFFFFFFFFFFFFFFFFFFFFFFFFFFFFFFFFFFFFFFF AND PUSH20 0xFFFFFFFFFFFFFFFFFFFFFFFFFFFFFFFFFFFFFFFF AND PUSH20 0xFFFFFFFFFFFFFFFFFFFFFFFFFFFFFFFFFFFFFFFF AND DUP2 MSTORE POP POP DUP4 DUP4 DUP2 MLOAD DUP2 LT PUSH2 0x4EC JUMPI PUSH32 0x4E487B7100000000000000000000000000000000000000000000000000000000 PUSH1 0x0 MSTORE PUSH1 0x32 PUSH1 0x4 MSTORE PUSH1 0x24 PUSH1 0x0 REVERT JUMPDEST PUSH1 0x20 MUL PUSH1 0x20 ADD ADD DUP2 SWAP1 MSTORE POP DUP2 DUP1 PUSH2 0x502 SWAP1 PUSH2 0x1E6C JUMP JUMPDEST SWAP3 POP POP DUP1 DUP1 PUSH2 0x510 SWAP1 PUSH2 0x1E6C JUMP JUMPDEST SWAP2 POP POP PUSH2 0x36B JUMP JUMPDEST POP DUP2 SWAP4 POP POP POP POP SWAP1 JUMP JUMPDEST PUSH1 0x2 PUSH1 0x40 MLOAD DUP1 PUSH1 0x40 ADD PUSH1 0x40 MSTORE DUP1 DUP4 DUP2 MSTORE PUSH1 0x20 ADD PUSH1 0x0 PUSH20 0xFFFFFFFFFFFFFFFFFFFFFFFFFFFFFFFFFFFFFFFF AND DUP2 MSTORE POP SWAP1 DUP1 PUSH1 0x1 DUP2 SLOAD ADD DUP1 DUP3 SSTORE DUP1 SWAP2 POP POP PUSH1 0x1 SWAP1 SUB SWAP1 PUSH1 0x0 MSTORE PUSH1 0x20 PUSH1 0x0 KECCAK256 SWAP1 PUSH1 0x2 MUL ADD PUSH1 0x0 SWAP1 SWAP2 SWAP1 SWAP2 SWAP1 SWAP2 POP PUSH1 0x0 DUP3 ADD MLOAD DUP2 PUSH1 0x0 ADD SWAP1 DUP1 MLOAD SWAP1 PUSH1 0x20 ADD SWAP1 PUSH2 0x595 SWAP3 SWAP2 SWAP1 PUSH2 0x147B JUMP JUMPDEST POP PUSH1 0x20 DUP3 ADD MLOAD DUP2 PUSH1 0x1 ADD PUSH1 0x0 PUSH2 0x100 EXP DUP2 SLOAD DUP2 PUSH20 0xFFFFFFFFFFFFFFFFFFFFFFFFFFFFFFFFFFFFFFFF MUL NOT AND SWAP1 DUP4 PUSH20 0xFFFFFFFFFFFFFFFFFFFFFFFFFFFFFFFFFFFFFFFF AND MUL OR SWAP1 SSTORE POP POP POP DUP1 PUSH1 0x40 MLOAD PUSH2 0x5ED SWAP2 SWAP1 PUSH2 0x1A8E JUMP JUMPDEST PUSH1 0x40 MLOAD DUP1 SWAP2 SUB SWAP1 KECCAK256 PUSH32 0x389883C247948E6A90F461D8FEBCBC3D72029C3E696E10F6C68CBB65D7E23FC9 PUSH1 0x40 MLOAD PUSH1 0x40 MLOAD DUP1 SWAP2 SUB SWAP1 LOG2 POP JUMP JUMPDEST PUSH1 0x60 PUSH1 0x0 DUP1 DUP4 DUP2 MSTORE PUSH1 0x20 ADD SWAP1 DUP2 MSTORE PUSH1 0x20 ADD PUSH1 0x0 KECCAK256 DUP1 SLOAD DUP1 PUSH1 0x20 MUL PUSH1 0x20 ADD PUSH1 0x40 MLOAD SWAP1 DUP2 ADD PUSH1 0x40 MSTORE DUP1 SWAP3 SWAP2 SWAP1 DUP2 DUP2 MSTORE PUSH1 0x20 ADD DUP3 DUP1 SLOAD DUP1 ISZERO PUSH2 0x6B8 JUMPI PUSH1 0x20 MUL DUP3 ADD SWAP2 SWAP1 PUSH1 0x0 MSTORE PUSH1 0x20 PUSH1 0x0 KECCAK256 SWAP1 JUMPDEST DUP2 PUSH1 0x0 SWAP1 SLOAD SWAP1 PUSH2 0x100 EXP SWAP1 DIV PUSH20 0xFFFFFFFFFFFFFFFFFFFFFFFFFFFFFFFFFFFFFFFF AND PUSH20 0xFFFFFFFFFFFFFFFFFFFFFFFFFFFFFFFFFFFFFFFF AND DUP2 MSTORE PUSH1 0x20 ADD SWAP1 PUSH1 0x1 ADD SWAP1 DUP1 DUP4 GT PUSH2 0x66E JUMPI JUMPDEST POP POP POP POP POP SWAP1 POP SWAP2 SWAP1 POP JUMP JUMPDEST PUSH1 0x2 DUP2 DUP2 SLOAD DUP2 LT PUSH2 0x6D4 JUMPI PUSH1 0x0 DUP1 REVERT JUMPDEST SWAP1 PUSH1 0x0 MSTORE PUSH1 0x20 PUSH1 0x0 KECCAK256 SWAP1 PUSH1 0x2 MUL ADD PUSH1 0x0 SWAP2 POP SWAP1 POP DUP1 PUSH1 0x0 ADD DUP1 SLOAD PUSH2 0x6F7 SWAP1 PUSH2 0x1E3A JUMP JUMPDEST DUP1 PUSH1 0x1F ADD PUSH1 0x20 DUP1 SWAP2 DIV MUL PUSH1 0x20 ADD PUSH1 0x40 MLOAD SWAP1 DUP2 ADD PUSH1 0x40 MSTORE DUP1 SWAP3 SWAP2 SWAP1 DUP2 DUP2 MSTORE PUSH1 0x20 ADD DUP3 DUP1 SLOAD PUSH2 0x723 SWAP1 PUSH2 0x1E3A JUMP JUMPDEST DUP1 ISZERO PUSH2 0x770 JUMPI DUP1 PUSH1 0x1F LT PUSH2 0x745 JUMPI PUSH2 0x100 DUP1 DUP4 SLOAD DIV MUL DUP4 MSTORE SWAP2 PUSH1 0x20 ADD SWAP2 PUSH2 0x770 JUMP JUMPDEST DUP3 ADD SWAP2 SWAP1 PUSH1 0x0 MSTORE PUSH1 0x20 PUSH1 0x0 KECCAK256 SWAP1 JUMPDEST DUP2 SLOAD DUP2 MSTORE SWAP1 PUSH1 0x1 ADD SWAP1 PUSH1 0x20 ADD DUP1 DUP4 GT PUSH2 0x753 JUMPI DUP3 SWAP1 SUB PUSH1 0x1F AND DUP3 ADD SWAP2 JUMPDEST POP POP POP POP POP SWAP1 DUP1 PUSH1 0x1 ADD PUSH1 0x0 SWAP1 SLOAD SWAP1 PUSH2 0x100 EXP SWAP1 DIV PUSH20 0xFFFFFFFFFFFFFFFFFFFFFFFFFFFFFFFFFFFFFFFF AND SWAP1 POP DUP3 JUMP JUMPDEST PUSH1 0x2 DUP1 SLOAD SWAP1 POP DUP2 LT PUSH2 0x7E7 JUMPI PUSH1 0x40 MLOAD PUSH32 0x8C379A000000000000000000000000000000000000000000000000000000000 DUP2 MSTORE PUSH1 0x4 ADD PUSH2 0x7DE SWAP1 PUSH2 0x1BEB JUMP JUMPDEST PUSH1 0x40 MLOAD DUP1 SWAP2 SUB SWAP1 REVERT JUMPDEST PUSH1 0x0 PUSH20 0xFFFFFFFFFFFFFFFFFFFFFFFFFFFFFFFFFFFFFFFF AND PUSH1 0x2 DUP3 DUP2 SLOAD DUP2 LT PUSH2 0x839 JUMPI PUSH32 0x4E487B7100000000000000000000000000000000000000000000000000000000 PUSH1 0x0 MSTORE PUSH1 0x32 PUSH1 0x4 MSTORE PUSH1 0x24 PUSH1 0x0 REVERT JUMPDEST SWAP1 PUSH1 0x0 MSTORE PUSH1 0x20 PUSH1 0x0 KECCAK256 SWAP1 PUSH1 0x2 MUL ADD PUSH1 0x1 ADD PUSH1 0x0 SWAP1 SLOAD SWAP1 PUSH2 0x100 EXP SWAP1 DIV PUSH20 0xFFFFFFFFFFFFFFFFFFFFFFFFFFFFFFFFFFFFFFFF AND PUSH20 0xFFFFFFFFFFFFFFFFFFFFFFFFFFFFFFFFFFFFFFFF AND EQ PUSH2 0x8C1 JUMPI PUSH1 0x40 MLOAD PUSH32 0x8C379A000000000000000000000000000000000000000000000000000000000 DUP2 MSTORE PUSH1 0x4 ADD PUSH2 0x8B8 SWAP1 PUSH2 0x1B6B JUMP JUMPDEST PUSH1 0x40 MLOAD DUP1 SWAP2 SUB SWAP1 REVERT JUMPDEST PUSH1 0x1 DUP1 PUSH1 0x0 CALLER PUSH20 0xFFFFFFFFFFFFFFFFFFFFFFFFFFFFFFFFFFFFFFFF AND PUSH20 0xFFFFFFFFFFFFFFFFFFFFFFFFFFFFFFFFFFFFFFFF AND DUP2 MSTORE PUSH1 0x20 ADD SWAP1 DUP2 MSTORE PUSH1 0x20 ADD PUSH1 0x0 KECCAK256 SLOAD EQ ISZERO PUSH2 0x943 JUMPI PUSH1 0x40 MLOAD PUSH32 0x8C379A000000000000000000000000000000000000000000000000000000000 DUP2 MSTORE PUSH1 0x4 ADD PUSH2 0x93A SWAP1 PUSH2 0x1BAB JUMP JUMPDEST PUSH1 0x40 MLOAD DUP1 SWAP2 SUB SWAP1 REVERT JUMPDEST CALLER PUSH1 0x2 DUP3 DUP2 SLOAD DUP2 LT PUSH2 0x97E JUMPI PUSH32 0x4E487B7100000000000000000000000000000000000000000000000000000000 PUSH1 0x0 MSTORE PUSH1 0x32 PUSH1 0x4 MSTORE PUSH1 0x24 PUSH1 0x0 REVERT JUMPDEST SWAP1 PUSH1 0x0 MSTORE PUSH1 0x20 PUSH1 0x0 KECCAK256 SWAP1 PUSH1 0x2 MUL ADD PUSH1 0x1 ADD PUSH1 0x0 PUSH2 0x100 EXP DUP2 SLOAD DUP2 PUSH20 0xFFFFFFFFFFFFFFFFFFFFFFFFFFFFFFFFFFFFFFFF MUL NOT AND SWAP1 DUP4 PUSH20 0xFFFFFFFFFFFFFFFFFFFFFFFFFFFFFFFFFFFFFFFF AND MUL OR SWAP1 SSTORE POP PUSH1 0x1 DUP2 PUSH2 0x9DA SWAP2 SWAP1 PUSH2 0x1D66 JUMP JUMPDEST PUSH1 0x1 PUSH1 0x0 CALLER PUSH20 0xFFFFFFFFFFFFFFFFFFFFFFFFFFFFFFFFFFFFFFFF AND PUSH20 0xFFFFFFFFFFFFFFFFFFFFFFFFFFFFFFFFFFFFFFFF AND DUP2 MSTORE PUSH1 0x20 ADD SWAP1 DUP2 MSTORE PUSH1 0x20 ADD PUSH1 0x0 KECCAK256 DUP2 SWAP1 SSTORE POP PUSH1 0x2 DUP2 DUP2 SLOAD DUP2 LT PUSH2 0xA57 JUMPI PUSH32 0x4E487B7100000000000000000000000000000000000000000000000000000000 PUSH1 0x0 MSTORE PUSH1 0x32 PUSH1 0x4 MSTORE PUSH1 0x24 PUSH1 0x0 REVERT JUMPDEST SWAP1 PUSH1 0x0 MSTORE PUSH1 0x20 PUSH1 0x0 KECCAK256 SWAP1 PUSH1 0x2 MUL ADD PUSH1 0x0 ADD PUSH1 0x40 MLOAD PUSH2 0xA75 SWAP2 SWAP1 PUSH2 0x1AA5 JUMP JUMPDEST PUSH1 0x40 MLOAD DUP1 SWAP2 SUB SWAP1 KECCAK256 PUSH32 0x4BD98B3223C39F335BC6F823093AB65D500345BEDA2BD23303AE81271E26810D CALLER PUSH1 0x40 MLOAD PUSH2 0xAAC SWAP2 SWAP1 PUSH2 0x1ABC JUMP JUMPDEST PUSH1 0x40 MLOAD DUP1 SWAP2 SUB SWAP1 LOG2 POP JUMP JUMPDEST PUSH1 0x0 PUSH20 0xFFFFFFFFFFFFFFFFFFFFFFFFFFFFFFFFFFFFFFFF AND PUSH1 0x2 DUP3 DUP2 SLOAD DUP2 LT PUSH2 0xB09 JUMPI PUSH32 0x4E487B7100000000000000000000000000000000000000000000000000000000 PUSH1 0x0 MSTORE PUSH1 0x32 PUSH1 0x4 MSTORE PUSH1 0x24 PUSH1 0x0 REVERT JUMPDEST SWAP1 PUSH1 0x0 MSTORE PUSH1 0x20 PUSH1 0x0 KECCAK256 SWAP1 PUSH1 0x2 MUL ADD PUSH1 0x1 ADD PUSH1 0x0 SWAP1 SLOAD SWAP1 PUSH2 0x100 EXP SWAP1 DIV PUSH20 0xFFFFFFFFFFFFFFFFFFFFFFFFFFFFFFFFFFFFFFFF AND PUSH20 0xFFFFFFFFFFFFFFFFFFFFFFFFFFFFFFFFFFFFFFFF AND EQ ISZERO PUSH2 0xB92 JUMPI PUSH1 0x40 MLOAD PUSH32 0x8C379A000000000000000000000000000000000000000000000000000000000 DUP2 MSTORE PUSH1 0x4 ADD PUSH2 0xB89 SWAP1 PUSH2 0x1B8B JUMP JUMPDEST PUSH1 0x40 MLOAD DUP1 SWAP2 SUB SWAP1 REVERT JUMPDEST PUSH1 0x0 DUP1 DUP3 DUP2 MSTORE PUSH1 0x20 ADD SWAP1 DUP2 MSTORE PUSH1 0x20 ADD PUSH1 0x0 KECCAK256 CALLER SWAP1 DUP1 PUSH1 0x1 DUP2 SLOAD ADD DUP1 DUP3 SSTORE DUP1 SWAP2 POP POP PUSH1 0x1 SWAP1 SUB SWAP1 PUSH1 0x0 MSTORE PUSH1 0x20 PUSH1 0x0 KECCAK256 ADD PUSH1 0x0 SWAP1 SWAP2 SWAP1 SWAP2 SWAP1 SWAP2 PUSH2 0x100 EXP DUP2 SLOAD DUP2 PUSH20 0xFFFFFFFFFFFFFFFFFFFFFFFFFFFFFFFFFFFFFFFF MUL NOT AND SWAP1 DUP4 PUSH20 0xFFFFFFFFFFFFFFFFFFFFFFFFFFFFFFFFFFFFFFFF AND MUL OR SWAP1 SSTORE POP POP JUMP JUMPDEST PUSH1 0x0 DUP1 PUSH1 0x0 DUP4 DUP2 MSTORE PUSH1 0x20 ADD SWAP1 DUP2 MSTORE PUSH1 0x20 ADD PUSH1 0x0 KECCAK256 SWAP1 POP PUSH1 0x0 DUP2 DUP1 SLOAD SWAP1 POP SWAP1 POP PUSH1 0x0 DUP2 GT PUSH2 0xC6A JUMPI PUSH1 0x40 MLOAD PUSH32 0x8C379A000000000000000000000000000000000000000000000000000000000 DUP2 MSTORE PUSH1 0x4 ADD PUSH2 0xC61 SWAP1 PUSH2 0x1C0B JUMP JUMPDEST PUSH1 0x40 MLOAD DUP1 SWAP2 SUB SWAP1 REVERT JUMPDEST PUSH1 0x0 DUP1 JUMPDEST DUP3 DUP2 LT ISZERO PUSH2 0xEA8 JUMPI CALLER PUSH20 0xFFFFFFFFFFFFFFFFFFFFFFFFFFFFFFFFFFFFFFFF AND DUP5 DUP3 DUP2 SLOAD DUP2 LT PUSH2 0xCC6 JUMPI PUSH32 0x4E487B7100000000000000000000000000000000000000000000000000000000 PUSH1 0x0 MSTORE PUSH1 0x32 PUSH1 0x4 MSTORE PUSH1 0x24 PUSH1 0x0 REVERT JUMPDEST SWAP1 PUSH1 0x0 MSTORE PUSH1 0x20 PUSH1 0x0 KECCAK256 ADD PUSH1 0x0 SWAP1 SLOAD SWAP1 PUSH2 0x100 EXP SWAP1 DIV PUSH20 0xFFFFFFFFFFFFFFFFFFFFFFFFFFFFFFFFFFFFFFFF AND PUSH20 0xFFFFFFFFFFFFFFFFFFFFFFFFFFFFFFFFFFFFFFFF AND EQ ISZERO PUSH2 0xE95 JUMPI PUSH1 0x0 DUP2 SWAP1 POP JUMPDEST DUP4 DUP2 LT ISZERO PUSH2 0xE1F JUMPI DUP5 PUSH1 0x1 DUP3 PUSH2 0xD29 SWAP2 SWAP1 PUSH2 0x1D66 JUMP JUMPDEST DUP2 SLOAD DUP2 LT PUSH2 0xD60 JUMPI PUSH32 0x4E487B7100000000000000000000000000000000000000000000000000000000 PUSH1 0x0 MSTORE PUSH1 0x32 PUSH1 0x4 MSTORE PUSH1 0x24 PUSH1 0x0 REVERT JUMPDEST SWAP1 PUSH1 0x0 MSTORE PUSH1 0x20 PUSH1 0x0 KECCAK256 ADD PUSH1 0x0 SWAP1 SLOAD SWAP1 PUSH2 0x100 EXP SWAP1 DIV PUSH20 0xFFFFFFFFFFFFFFFFFFFFFFFFFFFFFFFFFFFFFFFF AND DUP6 DUP3 DUP2 SLOAD DUP2 LT PUSH2 0xDC4 JUMPI PUSH32 0x4E487B7100000000000000000000000000000000000000000000000000000000 PUSH1 0x0 MSTORE PUSH1 0x32 PUSH1 0x4 MSTORE PUSH1 0x24 PUSH1 0x0 REVERT JUMPDEST SWAP1 PUSH1 0x0 MSTORE PUSH1 0x20 PUSH1 0x0 KECCAK256 ADD PUSH1 0x0 PUSH2 0x100 EXP DUP2 SLOAD DUP2 PUSH20 0xFFFFFFFFFFFFFFFFFFFFFFFFFFFFFFFFFFFFFFFF MUL NOT AND SWAP1 DUP4 PUSH20 0xFFFFFFFFFFFFFFFFFFFFFFFFFFFFFFFFFFFFFFFF AND MUL OR SWAP1 SSTORE POP DUP1 DUP1 PUSH2 0xE17 SWAP1 PUSH2 0x1E6C JUMP JUMPDEST SWAP2 POP POP PUSH2 0xD13 JUMP JUMPDEST POP DUP4 DUP1 SLOAD DUP1 PUSH2 0xE57 JUMPI PUSH32 0x4E487B7100000000000000000000000000000000000000000000000000000000 PUSH1 0x0 MSTORE PUSH1 0x31 PUSH1 0x4 MSTORE PUSH1 0x24 PUSH1 0x0 REVERT JUMPDEST PUSH1 0x1 SWAP1 SUB DUP2 DUP2 SWAP1 PUSH1 0x0 MSTORE PUSH1 0x20 PUSH1 0x0 KECCAK256 ADD PUSH1 0x0 PUSH2 0x100 EXP DUP2 SLOAD SWAP1 PUSH20 0xFFFFFFFFFFFFFFFFFFFFFFFFFFFFFFFFFFFFFFFF MUL NOT AND SWAP1 SSTORE SWAP1 SSTORE PUSH1 0x1 SWAP2 POP PUSH2 0xEA8 JUMP JUMPDEST DUP1 DUP1 PUSH2 0xEA0 SWAP1 PUSH2 0x1E6C JUMP JUMPDEST SWAP2 POP POP PUSH2 0xC6E JUMP JUMPDEST POP DUP1 PUSH2 0xEE9 JUMPI PUSH1 0x40 MLOAD PUSH32 0x8C379A000000000000000000000000000000000000000000000000000000000 DUP2 MSTORE PUSH1 0x4 ADD PUSH2 0xEE0 SWAP1 PUSH2 0x1BCB JUMP JUMPDEST PUSH1 0x40 MLOAD DUP1 SWAP2 SUB SWAP1 REVERT JUMPDEST POP POP POP POP JUMP JUMPDEST PUSH1 0x2 DUP2 DUP2 SLOAD DUP2 LT PUSH2 0xF29 JUMPI PUSH32 0x4E487B7100000000000000000000000000000000000000000000000000000000 PUSH1 0x0 MSTORE PUSH1 0x32 PUSH1 0x4 MSTORE PUSH1 0x24 PUSH1 0x0 REVERT JUMPDEST SWAP1 PUSH1 0x0 MSTORE PUSH1 0x20 PUSH1 0x0 KECCAK256 SWAP1 PUSH1 0x2 MUL ADD PUSH1 0x1 ADD PUSH1 0x0 SWAP1 SLOAD SWAP1 PUSH2 0x100 EXP SWAP1 DIV PUSH20 0xFFFFFFFFFFFFFFFFFFFFFFFFFFFFFFFFFFFFFFFF AND PUSH20 0xFFFFFFFFFFFFFFFFFFFFFFFFFFFFFFFFFFFFFFFF AND CALLER PUSH20 0xFFFFFFFFFFFFFFFFFFFFFFFFFFFFFFFFFFFFFFFF AND EQ PUSH2 0xFC8 JUMPI PUSH1 0x40 MLOAD PUSH32 0x8C379A000000000000000000000000000000000000000000000000000000000 DUP2 MSTORE PUSH1 0x4 ADD PUSH2 0xFBF SWAP1 PUSH2 0x1B4B JUMP JUMPDEST PUSH1 0x40 MLOAD DUP1 SWAP2 SUB SWAP1 REVERT JUMPDEST PUSH1 0x0 PUSH1 0x2 DUP3 DUP2 SLOAD DUP2 LT PUSH2 0x1004 JUMPI PUSH32 0x4E487B7100000000000000000000000000000000000000000000000000000000 PUSH1 0x0 MSTORE PUSH1 0x32 PUSH1 0x4 MSTORE PUSH1 0x24 PUSH1 0x0 REVERT JUMPDEST SWAP1 PUSH1 0x0 MSTORE PUSH1 0x20 PUSH1 0x0 KECCAK256 SWAP1 PUSH1 0x2 MUL ADD PUSH1 0x1 ADD PUSH1 0x0 PUSH2 0x100 EXP DUP2 SLOAD DUP2 PUSH20 0xFFFFFFFFFFFFFFFFFFFFFFFFFFFFFFFFFFFFFFFF MUL NOT AND SWAP1 DUP4 PUSH20 0xFFFFFFFFFFFFFFFFFFFFFFFFFFFFFFFFFFFFFFFF AND MUL OR SWAP1 SSTORE POP PUSH1 0x0 PUSH1 0x1 PUSH1 0x0 CALLER PUSH20 0xFFFFFFFFFFFFFFFFFFFFFFFFFFFFFFFFFFFFFFFF AND PUSH20 0xFFFFFFFFFFFFFFFFFFFFFFFFFFFFFFFFFFFFFFFF AND DUP2 MSTORE PUSH1 0x20 ADD SWAP1 DUP2 MSTORE PUSH1 0x20 ADD PUSH1 0x0 KECCAK256 DUP2 SWAP1 SSTORE POP POP JUMP JUMPDEST PUSH1 0x60 PUSH1 0x0 DUP1 JUMPDEST PUSH1 0x2 DUP1 SLOAD SWAP1 POP DUP2 LT ISZERO PUSH2 0x1170 JUMPI PUSH1 0x0 PUSH20 0xFFFFFFFFFFFFFFFFFFFFFFFFFFFFFFFFFFFFFFFF AND PUSH1 0x2 DUP3 DUP2 SLOAD DUP2 LT PUSH2 0x1100 JUMPI PUSH32 0x4E487B7100000000000000000000000000000000000000000000000000000000 PUSH1 0x0 MSTORE PUSH1 0x32 PUSH1 0x4 MSTORE PUSH1 0x24 PUSH1 0x0 REVERT JUMPDEST SWAP1 PUSH1 0x0 MSTORE PUSH1 0x20 PUSH1 0x0 KECCAK256 SWAP1 PUSH1 0x2 MUL ADD PUSH1 0x1 ADD PUSH1 0x0 SWAP1 SLOAD SWAP1 PUSH2 0x100 EXP SWAP1 DIV PUSH20 0xFFFFFFFFFFFFFFFFFFFFFFFFFFFFFFFFFFFFFFFF AND PUSH20 0xFFFFFFFFFFFFFFFFFFFFFFFFFFFFFFFFFFFFFFFF AND EQ ISZERO PUSH2 0x115D JUMPI DUP2 DUP1 PUSH2 0x1159 SWAP1 PUSH2 0x1E6C JUMP JUMPDEST SWAP3 POP POP JUMPDEST DUP1 DUP1 PUSH2 0x1168 SWAP1 PUSH2 0x1E6C JUMP JUMPDEST SWAP2 POP POP PUSH2 0x10A1 JUMP JUMPDEST POP PUSH1 0x0 DUP2 PUSH8 0xFFFFFFFFFFFFFFFF DUP2 GT ISZERO PUSH2 0x11B3 JUMPI PUSH32 0x4E487B7100000000000000000000000000000000000000000000000000000000 PUSH1 0x0 MSTORE PUSH1 0x41 PUSH1 0x4 MSTORE PUSH1 0x24 PUSH1 0x0 REVERT JUMPDEST PUSH1 0x40 MLOAD SWAP1 DUP1 DUP3 MSTORE DUP1 PUSH1 0x20 MUL PUSH1 0x20 ADD DUP3 ADD PUSH1 0x40 MSTORE DUP1 ISZERO PUSH2 0x11EC JUMPI DUP2 PUSH1 0x20 ADD JUMPDEST PUSH2 0x11D9 PUSH2 0x144B JUMP JUMPDEST DUP2 MSTORE PUSH1 0x20 ADD SWAP1 PUSH1 0x1 SWAP1 SUB SWAP1 DUP2 PUSH2 0x11D1 JUMPI SWAP1 POP JUMPDEST POP SWAP1 POP PUSH1 0x0 DUP1 JUMPDEST PUSH1 0x2 DUP1 SLOAD SWAP1 POP DUP2 LT ISZERO PUSH2 0x1441 JUMPI PUSH1 0x0 PUSH20 0xFFFFFFFFFFFFFFFFFFFFFFFFFFFFFFFFFFFFFFFF AND PUSH1 0x2 DUP3 DUP2 SLOAD DUP2 LT PUSH2 0x1252 JUMPI PUSH32 0x4E487B7100000000000000000000000000000000000000000000000000000000 PUSH1 0x0 MSTORE PUSH1 0x32 PUSH1 0x4 MSTORE PUSH1 0x24 PUSH1 0x0 REVERT JUMPDEST SWAP1 PUSH1 0x0 MSTORE PUSH1 0x20 PUSH1 0x0 KECCAK256 SWAP1 PUSH1 0x2 MUL ADD PUSH1 0x1 ADD PUSH1 0x0 SWAP1 SLOAD SWAP1 PUSH2 0x100 EXP SWAP1 DIV PUSH20 0xFFFFFFFFFFFFFFFFFFFFFFFFFFFFFFFFFFFFFFFF AND PUSH20 0xFFFFFFFFFFFFFFFFFFFFFFFFFFFFFFFFFFFFFFFF AND EQ ISZERO PUSH2 0x142E JUMPI PUSH1 0x2 DUP2 DUP2 SLOAD DUP2 LT PUSH2 0x12DA JUMPI PUSH32 0x4E487B7100000000000000000000000000000000000000000000000000000000 PUSH1 0x0 MSTORE PUSH1 0x32 PUSH1 0x4 MSTORE PUSH1 0x24 PUSH1 0x0 REVERT JUMPDEST SWAP1 PUSH1 0x0 MSTORE PUSH1 0x20 PUSH1 0x0 KECCAK256 SWAP1 PUSH1 0x2 MUL ADD PUSH1 0x40 MLOAD DUP1 PUSH1 0x40 ADD PUSH1 0x40 MSTORE SWAP1 DUP2 PUSH1 0x0 DUP3 ADD DUP1 SLOAD PUSH2 0x1303 SWAP1 PUSH2 0x1E3A JUMP JUMPDEST DUP1 PUSH1 0x1F ADD PUSH1 0x20 DUP1 SWAP2 DIV MUL PUSH1 0x20 ADD PUSH1 0x40 MLOAD SWAP1 DUP2 ADD PUSH1 0x40 MSTORE DUP1 SWAP3 SWAP2 SWAP1 DUP2 DUP2 MSTORE PUSH1 0x20 ADD DUP3 DUP1 SLOAD PUSH2 0x132F SWAP1 PUSH2 0x1E3A JUMP JUMPDEST DUP1 ISZERO PUSH2 0x137C JUMPI DUP1 PUSH1 0x1F LT PUSH2 0x1351 JUMPI PUSH2 0x100 DUP1 DUP4 SLOAD DIV MUL DUP4 MSTORE SWAP2 PUSH1 0x20 ADD SWAP2 PUSH2 0x137C JUMP JUMPDEST DUP3 ADD SWAP2 SWAP1 PUSH1 0x0 MSTORE PUSH1 0x20 PUSH1 0x0 KECCAK256 SWAP1 JUMPDEST DUP2 SLOAD DUP2 MSTORE SWAP1 PUSH1 0x1 ADD SWAP1 PUSH1 0x20 ADD DUP1 DUP4 GT PUSH2 0x135F JUMPI DUP3 SWAP1 SUB PUSH1 0x1F AND DUP3 ADD SWAP2 JUMPDEST POP POP POP POP POP DUP2 MSTORE PUSH1 0x20 ADD PUSH1 0x1 DUP3 ADD PUSH1 0x0 SWAP1 SLOAD SWAP1 PUSH2 0x100 EXP SWAP1 DIV PUSH20 0xFFFFFFFFFFFFFFFFFFFFFFFFFFFFFFFFFFFFFFFF AND PUSH20 0xFFFFFFFFFFFFFFFFFFFFFFFFFFFFFFFFFFFFFFFF AND PUSH20 0xFFFFFFFFFFFFFFFFFFFFFFFFFFFFFFFFFFFFFFFF AND DUP2 MSTORE POP POP DUP4 DUP4 DUP2 MLOAD DUP2 LT PUSH2 0x1414 JUMPI PUSH32 0x4E487B7100000000000000000000000000000000000000000000000000000000 PUSH1 0x0 MSTORE PUSH1 0x32 PUSH1 0x4 MSTORE PUSH1 0x24 PUSH1 0x0 REVERT JUMPDEST PUSH1 0x20 MUL PUSH1 0x20 ADD ADD DUP2 SWAP1 MSTORE POP DUP2 DUP1 PUSH2 0x142A SWAP1 PUSH2 0x1E6C JUMP JUMPDEST SWAP3 POP POP JUMPDEST DUP1 DUP1 PUSH2 0x1439 SWAP1 PUSH2 0x1E6C JUMP JUMPDEST SWAP2 POP POP PUSH2 0x11F3 JUMP JUMPDEST POP DUP2 SWAP4 POP POP POP POP SWAP1 JUMP JUMPDEST PUSH1 0x40 MLOAD DUP1 PUSH1 0x40 ADD PUSH1 0x40 MSTORE DUP1 PUSH1 0x60 DUP2 MSTORE PUSH1 0x20 ADD PUSH1 0x0 PUSH20 0xFFFFFFFFFFFFFFFFFFFFFFFFFFFFFFFFFFFFFFFF AND DUP2 MSTORE POP SWAP1 JUMP JUMPDEST DUP3 DUP1 SLOAD PUSH2 0x1487 SWAP1 PUSH2 0x1E3A JUMP JUMPDEST SWAP1 PUSH1 0x0 MSTORE PUSH1 0x20 PUSH1 0x0 KECCAK256 SWAP1 PUSH1 0x1F ADD PUSH1 0x20 SWAP1 DIV DUP2 ADD SWAP3 DUP3 PUSH2 0x14A9 JUMPI PUSH1 0x0 DUP6 SSTORE PUSH2 0x14F0 JUMP JUMPDEST DUP3 PUSH1 0x1F LT PUSH2 0x14C2 JUMPI DUP1 MLOAD PUSH1 0xFF NOT AND DUP4 DUP1 ADD OR DUP6 SSTORE PUSH2 0x14F0 JUMP JUMPDEST DUP3 DUP1 ADD PUSH1 0x1 ADD DUP6 SSTORE DUP3 ISZERO PUSH2 0x14F0 JUMPI SWAP2 DUP3 ADD JUMPDEST DUP3 DUP2 GT ISZERO PUSH2 0x14EF JUMPI DUP3 MLOAD DUP3 SSTORE SWAP2 PUSH1 0x20 ADD SWAP2 SWAP1 PUSH1 0x1 ADD SWAP1 PUSH2 0x14D4 JUMP JUMPDEST JUMPDEST POP SWAP1 POP PUSH2 0x14FD SWAP2 SWAP1 PUSH2 0x1501 JUMP JUMPDEST POP SWAP1 JUMP JUMPDEST JUMPDEST DUP1 DUP3 GT ISZERO PUSH2 0x151A JUMPI PUSH1 0x0 DUP2 PUSH1 0x0 SWAP1 SSTORE POP PUSH1 0x1 ADD PUSH2 0x1502 JUMP JUMPDEST POP SWAP1 JUMP JUMPDEST PUSH1 0x0 PUSH2 0x1531 PUSH2 0x152C DUP5 PUSH2 0x1C77 JUMP JUMPDEST PUSH2 0x1C46 JUMP JUMPDEST SWAP1 POP DUP3 DUP2 MSTORE PUSH1 0x20 DUP2 ADD DUP5 DUP5 DUP5 ADD GT ISZERO PUSH2 0x1549 JUMPI PUSH1 0x0 DUP1 REVERT JUMPDEST PUSH2 0x1554 DUP5 DUP3 DUP6 PUSH2 0x1DF8 JUMP JUMPDEST POP SWAP4 SWAP3 POP POP POP JUMP JUMPDEST PUSH1 0x0 DUP2 CALLDATALOAD SWAP1 POP PUSH2 0x156B DUP2 PUSH2 0x1F53 JUMP JUMPDEST SWAP3 SWAP2 POP POP JUMP JUMPDEST PUSH1 0x0 DUP3 PUSH1 0x1F DUP4 ADD SLT PUSH2 0x1582 JUMPI PUSH1 0x0 DUP1 REVERT JUMPDEST DUP2 CALLDATALOAD PUSH2 0x1592 DUP5 DUP3 PUSH1 0x20 DUP7 ADD PUSH2 0x151E JUMP JUMPDEST SWAP2 POP POP SWAP3 SWAP2 POP POP JUMP JUMPDEST PUSH1 0x0 DUP2 CALLDATALOAD SWAP1 POP PUSH2 0x15AA DUP2 PUSH2 0x1F6A JUMP JUMPDEST SWAP3 SWAP2 POP POP JUMP JUMPDEST PUSH1 0x0 PUSH1 0x20 DUP3 DUP5 SUB SLT ISZERO PUSH2 0x15C2 JUMPI PUSH1 0x0 DUP1 REVERT JUMPDEST PUSH1 0x0 PUSH2 0x15D0 DUP5 DUP3 DUP6 ADD PUSH2 0x155C JUMP JUMPDEST SWAP2 POP POP SWAP3 SWAP2 POP POP JUMP JUMPDEST PUSH1 0x0 PUSH1 0x20 DUP3 DUP5 SUB SLT ISZERO PUSH2 0x15EB JUMPI PUSH1 0x0 DUP1 REVERT JUMPDEST PUSH1 0x0 DUP3 ADD CALLDATALOAD PUSH8 0xFFFFFFFFFFFFFFFF DUP2 GT ISZERO PUSH2 0x1605 JUMPI PUSH1 0x0 DUP1 REVERT JUMPDEST PUSH2 0x1611 DUP5 DUP3 DUP6 ADD PUSH2 0x1571 JUMP JUMPDEST SWAP2 POP POP SWAP3 SWAP2 POP POP JUMP JUMPDEST PUSH1 0x0 PUSH1 0x20 DUP3 DUP5 SUB SLT ISZERO PUSH2 0x162C JUMPI PUSH1 0x0 DUP1 REVERT JUMPDEST PUSH1 0x0 PUSH2 0x163A DUP5 DUP3 DUP6 ADD PUSH2 0x159B JUMP JUMPDEST SWAP2 POP POP SWAP3 SWAP2 POP POP JUMP JUMPDEST PUSH1 0x0 PUSH2 0x164F DUP4 DUP4 PUSH2 0x166F JUMP JUMPDEST PUSH1 0x20 DUP4 ADD SWAP1 POP SWAP3 SWAP2 POP POP JUMP JUMPDEST PUSH1 0x0 PUSH2 0x1667 DUP4 DUP4 PUSH2 0x1A42 JUMP JUMPDEST SWAP1 POP SWAP3 SWAP2 POP POP JUMP JUMPDEST PUSH2 0x1678 DUP2 PUSH2 0x1DBC JUMP JUMPDEST DUP3 MSTORE POP POP JUMP JUMPDEST PUSH2 0x1687 DUP2 PUSH2 0x1DBC JUMP JUMPDEST DUP3 MSTORE POP POP JUMP JUMPDEST PUSH1 0x0 PUSH2 0x1698 DUP3 PUSH2 0x1CDC JUMP JUMPDEST PUSH2 0x16A2 DUP2 DUP6 PUSH2 0x1D17 JUMP JUMPDEST SWAP4 POP PUSH2 0x16AD DUP4 PUSH2 0x1CA7 JUMP JUMPDEST DUP1 PUSH1 0x0 JUMPDEST DUP4 DUP2 LT ISZERO PUSH2 0x16DE JUMPI DUP2 MLOAD PUSH2 0x16C5 DUP9 DUP3 PUSH2 0x1643 JUMP JUMPDEST SWAP8 POP PUSH2 0x16D0 DUP4 PUSH2 0x1CFD JUMP JUMPDEST SWAP3 POP POP PUSH1 0x1 DUP2 ADD SWAP1 POP PUSH2 0x16B1 JUMP JUMPDEST POP DUP6 SWAP4 POP POP POP POP SWAP3 SWAP2 POP POP JUMP JUMPDEST PUSH1 0x0 PUSH2 0x16F6 DUP3 PUSH2 0x1CE7 JUMP JUMPDEST PUSH2 0x1700 DUP2 DUP6 PUSH2 0x1D28 JUMP JUMPDEST SWAP4 POP DUP4 PUSH1 0x20 DUP3 MUL DUP6 ADD PUSH2 0x1712 DUP6 PUSH2 0x1CB7 JUMP JUMPDEST DUP1 PUSH1 0x0 JUMPDEST DUP6 DUP2 LT ISZERO PUSH2 0x174E JUMPI DUP5 DUP5 SUB DUP10 MSTORE DUP2 MLOAD PUSH2 0x172F DUP6 DUP3 PUSH2 0x165B JUMP JUMPDEST SWAP5 POP PUSH2 0x173A DUP4 PUSH2 0x1D0A JUMP JUMPDEST SWAP3 POP PUSH1 0x20 DUP11 ADD SWAP10 POP POP PUSH1 0x1 DUP2 ADD SWAP1 POP PUSH2 0x1716 JUMP JUMPDEST POP DUP3 SWAP8 POP DUP8 SWAP6 POP POP POP POP POP POP SWAP3 SWAP2 POP POP JUMP JUMPDEST PUSH1 0x0 PUSH2 0x176B DUP3 PUSH2 0x1CF2 JUMP JUMPDEST PUSH2 0x1775 DUP2 DUP6 PUSH2 0x1D39 JUMP JUMPDEST SWAP4 POP PUSH2 0x1785 DUP2 DUP6 PUSH1 0x20 DUP7 ADD PUSH2 0x1E07 JUMP JUMPDEST PUSH2 0x178E DUP2 PUSH2 0x1F42 JUMP JUMPDEST DUP5 ADD SWAP2 POP POP SWAP3 SWAP2 POP POP JUMP JUMPDEST PUSH1 0x0 PUSH2 0x17A4 DUP3 PUSH2 0x1CF2 JUMP JUMPDEST PUSH2 0x17AE DUP2 DUP6 PUSH2 0x1D4A JUMP JUMPDEST SWAP4 POP PUSH2 0x17BE DUP2 DUP6 PUSH1 0x20 DUP7 ADD PUSH2 0x1E07 JUMP JUMPDEST PUSH2 0x17C7 DUP2 PUSH2 0x1F42 JUMP JUMPDEST DUP5 ADD SWAP2 POP POP SWAP3 SWAP2 POP POP JUMP JUMPDEST PUSH1 0x0 PUSH2 0x17DD DUP3 PUSH2 0x1CF2 JUMP JUMPDEST PUSH2 0x17E7 DUP2 DUP6 PUSH2 0x1D5B JUMP JUMPDEST SWAP4 POP PUSH2 0x17F7 DUP2 DUP6 PUSH1 0x20 DUP7 ADD PUSH2 0x1E07 JUMP JUMPDEST DUP1 DUP5 ADD SWAP2 POP POP SWAP3 SWAP2 POP POP JUMP JUMPDEST PUSH1 0x0 DUP2 SLOAD PUSH2 0x1810 DUP2 PUSH2 0x1E3A JUMP JUMPDEST PUSH2 0x181A DUP2 DUP7 PUSH2 0x1D5B JUMP JUMPDEST SWAP5 POP PUSH1 0x1 DUP3 AND PUSH1 0x0 DUP2 EQ PUSH2 0x1835 JUMPI PUSH1 0x1 DUP2 EQ PUSH2 0x1846 JUMPI PUSH2 0x1879 JUMP JUMPDEST PUSH1 0xFF NOT DUP4 AND DUP7 MSTORE DUP2 DUP7 ADD SWAP4 POP PUSH2 0x1879 JUMP JUMPDEST PUSH2 0x184F DUP6 PUSH2 0x1CC7 JUMP JUMPDEST PUSH1 0x0 JUMPDEST DUP4 DUP2 LT ISZERO PUSH2 0x1871 JUMPI DUP2 SLOAD DUP2 DUP10 ADD MSTORE PUSH1 0x1 DUP3 ADD SWAP2 POP PUSH1 0x20 DUP2 ADD SWAP1 POP PUSH2 0x1852 JUMP JUMPDEST DUP4 DUP9 ADD SWAP6 POP POP POP JUMPDEST POP POP POP SWAP3 SWAP2 POP POP JUMP JUMPDEST PUSH1 0x0 PUSH2 0x188F PUSH1 0x16 DUP4 PUSH2 0x1D4A JUMP JUMPDEST SWAP2 POP PUSH32 0x4F6E6C79206F776E65722063616E2072657475726E2100000000000000000000 PUSH1 0x0 DUP4 ADD MSTORE PUSH1 0x20 DUP3 ADD SWAP1 POP SWAP2 SWAP1 POP JUMP JUMPDEST PUSH1 0x0 PUSH2 0x18CF PUSH1 0x13 DUP4 PUSH2 0x1D4A JUMP JUMPDEST SWAP2 POP PUSH32 0x426F6F6B20616C72656164792074616B656E2100000000000000000000000000 PUSH1 0x0 DUP4 ADD MSTORE PUSH1 0x20 DUP3 ADD SWAP1 POP SWAP2 SWAP1 POP JUMP JUMPDEST PUSH1 0x0 PUSH2 0x190F PUSH1 0x18 DUP4 PUSH2 0x1D4A JUMP JUMPDEST SWAP2 POP PUSH32 0x426F6F6B206973206672656520746F2062652074616B656E0000000000000000 PUSH1 0x0 DUP4 ADD MSTORE PUSH1 0x20 DUP3 ADD SWAP1 POP SWAP2 SWAP1 POP JUMP JUMPDEST PUSH1 0x0 PUSH2 0x194F PUSH1 0x1A DUP4 PUSH2 0x1D4A JUMP JUMPDEST SWAP2 POP PUSH32 0x5527766520616C72656164792074616B656E206120626F6F6B21000000000000 PUSH1 0x0 DUP4 ADD MSTORE PUSH1 0x20 DUP3 ADD SWAP1 POP SWAP2 SWAP1 POP JUMP JUMPDEST PUSH1 0x0 PUSH2 0x198F PUSH1 0x16 DUP4 PUSH2 0x1D4A JUMP JUMPDEST SWAP2 POP PUSH32 0x5265736572766174696F6E206E6F7420666F756E642100000000000000000000 PUSH1 0x0 DUP4 ADD MSTORE PUSH1 0x20 DUP3 ADD SWAP1 POP SWAP2 SWAP1 POP JUMP JUMPDEST PUSH1 0x0 PUSH2 0x19CF PUSH1 0x8 DUP4 PUSH2 0x1D4A JUMP JUMPDEST SWAP2 POP PUSH32 0x57726F6E67204944000000000000000000000000000000000000000000000000 PUSH1 0x0 DUP4 ADD MSTORE PUSH1 0x20 DUP3 ADD SWAP1 POP SWAP2 SWAP1 POP JUMP JUMPDEST PUSH1 0x0 PUSH2 0x1A0F PUSH1 0x16 DUP4 PUSH2 0x1D4A JUMP JUMPDEST SWAP2 POP PUSH32 0x4E6F207265736572766174696F6E7320666F756E642100000000000000000000 PUSH1 0x0 DUP4 ADD MSTORE PUSH1 0x20 DUP3 ADD SWAP1 POP SWAP2 SWAP1 POP JUMP JUMPDEST PUSH1 0x0 PUSH1 0x40 DUP4 ADD PUSH1 0x0 DUP4 ADD MLOAD DUP5 DUP3 SUB PUSH1 0x0 DUP7 ADD MSTORE PUSH2 0x1A5F DUP3 DUP3 PUSH2 0x1760 JUMP JUMPDEST SWAP2 POP POP PUSH1 0x20 DUP4 ADD MLOAD PUSH2 0x1A74 PUSH1 0x20 DUP7 ADD DUP3 PUSH2 0x166F JUMP JUMPDEST POP DUP1 SWAP2 POP POP SWAP3 SWAP2 POP POP JUMP JUMPDEST PUSH2 0x1A88 DUP2 PUSH2 0x1DEE JUMP JUMPDEST DUP3 MSTORE POP POP JUMP JUMPDEST PUSH1 0x0 PUSH2 0x1A9A DUP3 DUP5 PUSH2 0x17D2 JUMP JUMPDEST SWAP2 POP DUP2 SWAP1 POP SWAP3 SWAP2 POP POP JUMP JUMPDEST PUSH1 0x0 PUSH2 0x1AB1 DUP3 DUP5 PUSH2 0x1803 JUMP JUMPDEST SWAP2 POP DUP2 SWAP1 POP SWAP3 SWAP2 POP POP JUMP JUMPDEST PUSH1 0x0 PUSH1 0x20 DUP3 ADD SWAP1 POP PUSH2 0x1AD1 PUSH1 0x0 DUP4 ADD DUP5 PUSH2 0x167E JUMP JUMPDEST SWAP3 SWAP2 POP POP JUMP JUMPDEST PUSH1 0x0 PUSH1 0x20 DUP3 ADD SWAP1 POP DUP2 DUP2 SUB PUSH1 0x0 DUP4 ADD MSTORE PUSH2 0x1AF1 DUP2 DUP5 PUSH2 0x168D JUMP JUMPDEST SWAP1 POP SWAP3 SWAP2 POP POP JUMP JUMPDEST PUSH1 0x0 PUSH1 0x20 DUP3 ADD SWAP1 POP DUP2 DUP2 SUB PUSH1 0x0 DUP4 ADD MSTORE PUSH2 0x1B13 DUP2 DUP5 PUSH2 0x16EB JUMP JUMPDEST SWAP1 POP SWAP3 SWAP2 POP POP JUMP JUMPDEST PUSH1 0x0 PUSH1 0x40 DUP3 ADD SWAP1 POP DUP2 DUP2 SUB PUSH1 0x0 DUP4 ADD MSTORE PUSH2 0x1B35 DUP2 DUP6 PUSH2 0x1799 JUMP JUMPDEST SWAP1 POP PUSH2 0x1B44 PUSH1 0x20 DUP4 ADD DUP5 PUSH2 0x167E JUMP JUMPDEST SWAP4 SWAP3 POP POP POP JUMP JUMPDEST PUSH1 0x0 PUSH1 0x20 DUP3 ADD SWAP1 POP DUP2 DUP2 SUB PUSH1 0x0 DUP4 ADD MSTORE PUSH2 0x1B64 DUP2 PUSH2 0x1882 JUMP JUMPDEST SWAP1 POP SWAP2 SWAP1 POP JUMP JUMPDEST PUSH1 0x0 PUSH1 0x20 DUP3 ADD SWAP1 POP DUP2 DUP2 SUB PUSH1 0x0 DUP4 ADD MSTORE PUSH2 0x1B84 DUP2 PUSH2 0x18C2 JUMP JUMPDEST SWAP1 POP SWAP2 SWAP1 POP JUMP JUMPDEST PUSH1 0x0 PUSH1 0x20 DUP3 ADD SWAP1 POP DUP2 DUP2 SUB PUSH1 0x0 DUP4 ADD MSTORE PUSH2 0x1BA4 DUP2 PUSH2 0x1902 JUMP JUMPDEST SWAP1 POP SWAP2 SWAP1 POP JUMP JUMPDEST PUSH1 0x0 PUSH1 0x20 DUP3 ADD SWAP1 POP DUP2 DUP2 SUB PUSH1 0x0 DUP4 ADD MSTORE PUSH2 0x1BC4 DUP2 PUSH2 0x1942 JUMP JUMPDEST SWAP1 POP SWAP2 SWAP1 POP JUMP JUMPDEST PUSH1 0x0 PUSH1 0x20 DUP3 ADD SWAP1 POP DUP2 DUP2 SUB PUSH1 0x0 DUP4 ADD MSTORE PUSH2 0x1BE4 DUP2 PUSH2 0x1982 JUMP JUMPDEST SWAP1 POP SWAP2 SWAP1 POP JUMP JUMPDEST PUSH1 0x0 PUSH1 0x20 DUP3 ADD SWAP1 POP DUP2 DUP2 SUB PUSH1 0x0 DUP4 ADD MSTORE PUSH2 0x1C04 DUP2 PUSH2 0x19C2 JUMP JUMPDEST SWAP1 POP SWAP2 SWAP1 POP JUMP JUMPDEST PUSH1 0x0 PUSH1 0x20 DUP3 ADD SWAP1 POP DUP2 DUP2 SUB PUSH1 0x0 DUP4 ADD MSTORE PUSH2 0x1C24 DUP2 PUSH2 0x1A02 JUMP JUMPDEST SWAP1 POP SWAP2 SWAP1 POP JUMP JUMPDEST PUSH1 0x0 PUSH1 0x20 DUP3 ADD SWAP1 POP PUSH2 0x1C40 PUSH1 0x0 DUP4 ADD DUP5 PUSH2 0x1A7F JUMP JUMPDEST SWAP3 SWAP2 POP POP JUMP JUMPDEST PUSH1 0x0 PUSH1 0x40 MLOAD SWAP1 POP DUP2 DUP2 ADD DUP2 DUP2 LT PUSH8 0xFFFFFFFFFFFFFFFF DUP3 GT OR ISZERO PUSH2 0x1C6D JUMPI PUSH2 0x1C6C PUSH2 0x1F13 JUMP JUMPDEST JUMPDEST DUP1 PUSH1 0x40 MSTORE POP SWAP2 SWAP1 POP JUMP JUMPDEST PUSH1 0x0 PUSH8 0xFFFFFFFFFFFFFFFF DUP3 GT ISZERO PUSH2 0x1C92 JUMPI PUSH2 0x1C91 PUSH2 0x1F13 JUMP JUMPDEST JUMPDEST PUSH1 0x1F NOT PUSH1 0x1F DUP4 ADD AND SWAP1 POP PUSH1 0x20 DUP2 ADD SWAP1 POP SWAP2 SWAP1 POP JUMP JUMPDEST PUSH1 0x0 DUP2 SWAP1 POP PUSH1 0x20 DUP3 ADD SWAP1 POP SWAP2 SWAP1 POP JUMP JUMPDEST PUSH1 0x0 DUP2 SWAP1 POP PUSH1 0x20 DUP3 ADD SWAP1 POP SWAP2 SWAP1 POP JUMP JUMPDEST PUSH1 0x0 DUP2 SWAP1 POP DUP2 PUSH1 0x0 MSTORE PUSH1 0x20 PUSH1 0x0 KECCAK256 SWAP1 POP SWAP2 SWAP1 POP JUMP JUMPDEST PUSH1 0x0 DUP2 MLOAD SWAP1 POP SWAP2 SWAP1 POP JUMP JUMPDEST PUSH1 0x0 DUP2 MLOAD SWAP1 POP SWAP2 SWAP1 POP JUMP JUMPDEST PUSH1 0x0 DUP2 MLOAD SWAP1 POP SWAP2 SWAP1 POP JUMP JUMPDEST PUSH1 0x0 PUSH1 0x20 DUP3 ADD SWAP1 POP SWAP2 SWAP1 POP JUMP JUMPDEST PUSH1 0x0 PUSH1 0x20 DUP3 ADD SWAP1 POP SWAP2 SWAP1 POP JUMP JUMPDEST PUSH1 0x0 DUP3 DUP3 MSTORE PUSH1 0x20 DUP3 ADD SWAP1 POP SWAP3 SWAP2 POP POP JUMP JUMPDEST PUSH1 0x0 DUP3 DUP3 MSTORE PUSH1 0x20 DUP3 ADD SWAP1 POP SWAP3 SWAP2 POP POP JUMP JUMPDEST PUSH1 0x0 DUP3 DUP3 MSTORE PUSH1 0x20 DUP3 ADD SWAP1 POP SWAP3 SWAP2 POP POP JUMP JUMPDEST PUSH1 0x0 DUP3 DUP3 MSTORE PUSH1 0x20 DUP3 ADD SWAP1 POP SWAP3 SWAP2 POP POP JUMP JUMPDEST PUSH1 0x0 DUP2 SWAP1 POP SWAP3 SWAP2 POP POP JUMP JUMPDEST PUSH1 0x0 PUSH2 0x1D71 DUP3 PUSH2 0x1DEE JUMP JUMPDEST SWAP2 POP PUSH2 0x1D7C DUP4 PUSH2 0x1DEE JUMP JUMPDEST SWAP3 POP DUP3 PUSH32 0xFFFFFFFFFFFFFFFFFFFFFFFFFFFFFFFFFFFFFFFFFFFFFFFFFFFFFFFFFFFFFFFF SUB DUP3 GT ISZERO PUSH2 0x1DB1 JUMPI PUSH2 0x1DB0 PUSH2 0x1EB5 JUMP JUMPDEST JUMPDEST DUP3 DUP3 ADD SWAP1 POP SWAP3 SWAP2 POP POP JUMP JUMPDEST PUSH1 0x0 PUSH2 0x1DC7 DUP3 PUSH2 0x1DCE JUMP JUMPDEST SWAP1 POP SWAP2 SWAP1 POP JUMP JUMPDEST PUSH1 0x0 PUSH20 0xFFFFFFFFFFFFFFFFFFFFFFFFFFFFFFFFFFFFFFFF DUP3 AND SWAP1 POP SWAP2 SWAP1 POP JUMP JUMPDEST PUSH1 0x0 DUP2 SWAP1 POP SWAP2 SWAP1 POP JUMP JUMPDEST DUP3 DUP2 DUP4 CALLDATACOPY PUSH1 0x0 DUP4 DUP4 ADD MSTORE POP POP POP JUMP JUMPDEST PUSH1 0x0 JUMPDEST DUP4 DUP2 LT ISZERO PUSH2 0x1E25 JUMPI DUP1 DUP3 ADD MLOAD DUP2 DUP5 ADD MSTORE PUSH1 0x20 DUP2 ADD SWAP1 POP PUSH2 0x1E0A JUMP JUMPDEST DUP4 DUP2 GT ISZERO PUSH2 0x1E34 JUMPI PUSH1 0x0 DUP5 DUP5 ADD MSTORE JUMPDEST POP POP POP POP JUMP JUMPDEST PUSH1 0x0 PUSH1 0x2 DUP3 DIV SWAP1 POP PUSH1 0x1 DUP3 AND DUP1 PUSH2 0x1E52 JUMPI PUSH1 0x7F DUP3 AND SWAP2 POP JUMPDEST PUSH1 0x20 DUP3 LT DUP2 EQ ISZERO PUSH2 0x1E66 JUMPI PUSH2 0x1E65 PUSH2 0x1EE4 JUMP JUMPDEST JUMPDEST POP SWAP2 SWAP1 POP JUMP JUMPDEST PUSH1 0x0 PUSH2 0x1E77 DUP3 PUSH2 0x1DEE JUMP JUMPDEST SWAP2 POP PUSH32 0xFFFFFFFFFFFFFFFFFFFFFFFFFFFFFFFFFFFFFFFFFFFFFFFFFFFFFFFFFFFFFFFF DUP3 EQ ISZERO PUSH2 0x1EAA JUMPI PUSH2 0x1EA9 PUSH2 0x1EB5 JUMP JUMPDEST JUMPDEST PUSH1 0x1 DUP3 ADD SWAP1 POP SWAP2 SWAP1 POP JUMP JUMPDEST PUSH32 0x4E487B7100000000000000000000000000000000000000000000000000000000 PUSH1 0x0 MSTORE PUSH1 0x11 PUSH1 0x4 MSTORE PUSH1 0x24 PUSH1 0x0 REVERT JUMPDEST PUSH32 0x4E487B7100000000000000000000000000000000000000000000000000000000 PUSH1 0x0 MSTORE PUSH1 0x22 PUSH1 0x4 MSTORE PUSH1 0x24 PUSH1 0x0 REVERT JUMPDEST PUSH32 0x4E487B7100000000000000000000000000000000000000000000000000000000 PUSH1 0x0 MSTORE PUSH1 0x41 PUSH1 0x4 MSTORE PUSH1 0x24 PUSH1 0x0 REVERT JUMPDEST PUSH1 0x0 PUSH1 0x1F NOT PUSH1 0x1F DUP4 ADD AND SWAP1 POP SWAP2 SWAP1 POP JUMP JUMPDEST PUSH2 0x1F5C DUP2 PUSH2 0x1DBC JUMP JUMPDEST DUP2 EQ PUSH2 0x1F67 JUMPI PUSH1 0x0 DUP1 REVERT JUMPDEST POP JUMP JUMPDEST PUSH2 0x1F73 DUP2 PUSH2 0x1DEE JUMP JUMPDEST DUP2 EQ PUSH2 0x1F7E JUMPI PUSH1 0x0 DUP1 REVERT JUMPDEST POP JUMP INVALID LOG2 PUSH5 0x6970667358 0x22 SLT KECCAK256 PUSH5 0xDD4D9CE4EC 0xB6 0x2A BYTE 0xDE JUMPDEST 0xAA 0x4A REVERT CALL 0xD3 0xA9 SUB CREATE2 EXTCODEHASH 0xAD 0xA9 PUSH32 0xA425BD3CEAA759EA5B64736F6C63430008000033000000000000000000000000 "
				},
				"gasEstimates": {
					"creation": {
						"codeDepositCost": "1623800",
						"executionCost": "1701",
						"totalCost": "1625501"
					},
					"external": {
						"addBook(string)": "infinite",
						"allReservedBooks()": "infinite",
						"bookOwner(address)": "1515",
						"books(uint256)": "infinite",
						"borrowBook(uint256)": "infinite",
						"cancelReservation(uint256)": "infinite",
						"getAvailableBook()": "infinite",
						"getMyReservations(uint256)": "infinite",
						"reserv(uint256)": "44055",
						"returnBook(uint256)": "29106"
					}
				},
				"methodIdentifiers": {
					"addBook(string)": "3bc5f48a",
					"allReservedBooks()": "057e11c9",
					"bookOwner(address)": "03d24c49",
					"books(uint256)": "68744046",
					"borrowBook(uint256)": "7e490a9e",
					"cancelReservation(uint256)": "ae5e6cf4",
					"getAvailableBook()": "e35d207c",
					"getMyReservations(uint256)": "5a63bf0b",
					"reserv(uint256)": "87ed34ec",
					"returnBook(uint256)": "ca5140c9"
				}
			},
			"storageLayout": {
				"storage": [
					{
						"astId": 6,
						"contract": "LibraryStorage/LibraryStorage.sol:LibraryStorage",
						"label": "reservations",
						"offset": 0,
						"slot": "0",
						"type": "t_mapping(t_uint256,t_array(t_address)dyn_storage)"
					},
					{
						"astId": 10,
						"contract": "LibraryStorage/LibraryStorage.sol:LibraryStorage",
						"label": "bookOwner",
						"offset": 0,
						"slot": "1",
						"type": "t_mapping(t_address,t_uint256)"
					},
					{
						"astId": 19,
						"contract": "LibraryStorage/LibraryStorage.sol:LibraryStorage",
						"label": "books",
						"offset": 0,
						"slot": "2",
						"type": "t_array(t_struct(Book)15_storage)dyn_storage"
					}
				],
				"types": {
					"t_address": {
						"encoding": "inplace",
						"label": "address",
						"numberOfBytes": "20"
					},
					"t_array(t_address)dyn_storage": {
						"base": "t_address",
						"encoding": "dynamic_array",
						"label": "address[]",
						"numberOfBytes": "32"
					},
					"t_array(t_struct(Book)15_storage)dyn_storage": {
						"base": "t_struct(Book)15_storage",
						"encoding": "dynamic_array",
						"label": "struct LibraryStorage.Book[]",
						"numberOfBytes": "32"
					},
					"t_mapping(t_address,t_uint256)": {
						"encoding": "mapping",
						"key": "t_address",
						"label": "mapping(address => uint256)",
						"numberOfBytes": "32",
						"value": "t_uint256"
					},
					"t_mapping(t_uint256,t_array(t_address)dyn_storage)": {
						"encoding": "mapping",
						"key": "t_uint256",
						"label": "mapping(uint256 => address[])",
						"numberOfBytes": "32",
						"value": "t_array(t_address)dyn_storage"
					},
					"t_string_storage": {
						"encoding": "bytes",
						"label": "string",
						"numberOfBytes": "32"
					},
					"t_struct(Book)15_storage": {
						"encoding": "inplace",
						"label": "struct LibraryStorage.Book",
						"members": [
							{
								"astId": 12,
								"contract": "LibraryStorage/LibraryStorage.sol:LibraryStorage",
								"label": "bookName",
								"offset": 0,
								"slot": "0",
								"type": "t_string_storage"
							},
							{
								"astId": 14,
								"contract": "LibraryStorage/LibraryStorage.sol:LibraryStorage",
								"label": "owner",
								"offset": 0,
								"slot": "1",
								"type": "t_address"
							}
						],
						"numberOfBytes": "64"
					},
					"t_uint256": {
						"encoding": "inplace",
						"label": "uint256",
						"numberOfBytes": "32"
					}
				}
			},
			"userdoc": {
				"kind": "user",
				"methods": {},
				"version": 1
			}
		}
	}
}