{
	"LibraryStorage/LibraryStorage.sol": {
		"LibraryStorage": {
			"abi": [
				{
					"anonymous": false,
					"inputs": [
						{
							"indexed": true,
							"internalType": "string",
							"name": "bookName",
							"type": "string"
						}
					],
					"name": "newBookAdded",
					"type": "event"
				},
				{
					"anonymous": false,
					"inputs": [
						{
							"indexed": true,
							"internalType": "string",
							"name": "bookName",
							"type": "string"
						},
						{
							"indexed": false,
							"internalType": "address",
							"name": "owner",
							"type": "address"
						}
					],
					"name": "newBookTaken",
					"type": "event"
				},
				{
					"inputs": [
						{
							"internalType": "string",
							"name": "_bookName",
							"type": "string"
						}
					],
					"name": "addBook",
					"outputs": [],
					"stateMutability": "nonpayable",
					"type": "function"
				},
				{
					"inputs": [],
					"name": "allReservedBooks",
					"outputs": [
						{
							"components": [
								{
									"internalType": "string",
									"name": "bookName",
									"type": "string"
								},
								{
									"internalType": "address",
									"name": "owner",
									"type": "address"
								}
							],
							"internalType": "struct LibraryStorage.Book[]",
							"name": "",
							"type": "tuple[]"
						}
					],
					"stateMutability": "view",
					"type": "function"
				},
				{
					"inputs": [
						{
							"internalType": "address",
							"name": "",
							"type": "address"
						}
					],
					"name": "bookOwner",
					"outputs": [
						{
							"internalType": "uint256",
							"name": "",
							"type": "uint256"
						}
					],
					"stateMutability": "view",
					"type": "function"
				},
				{
					"inputs": [
						{
							"internalType": "uint256",
							"name": "",
							"type": "uint256"
						}
					],
					"name": "books",
					"outputs": [
						{
							"internalType": "string",
							"name": "bookName",
							"type": "string"
						},
						{
							"internalType": "address",
							"name": "owner",
							"type": "address"
						}
					],
					"stateMutability": "view",
					"type": "function"
				},
				{
					"inputs": [
						{
							"internalType": "uint256",
							"name": "bookId",
							"type": "uint256"
						}
					],
					"name": "borrowBook",
					"outputs": [],
					"stateMutability": "nonpayable",
					"type": "function"
				},
				{
					"inputs": [],
					"name": "getAvailableBook",
					"outputs": [
						{
							"components": [
								{
									"internalType": "string",
									"name": "bookName",
									"type": "string"
								},
								{
									"internalType": "address",
									"name": "owner",
									"type": "address"
								}
							],
							"internalType": "struct LibraryStorage.Book[]",
							"name": "",
							"type": "tuple[]"
						}
					],
					"stateMutability": "view",
					"type": "function"
				},
				{
					"inputs": [
						{
							"internalType": "uint256",
							"name": "bookId",
							"type": "uint256"
						}
					],
					"name": "returnBook",
					"outputs": [],
					"stateMutability": "nonpayable",
					"type": "function"
				}
			],
			"devdoc": {
				"kind": "dev",
				"methods": {},
				"version": 1
			},
			"evm": {
				"assembly": "    /* \"LibraryStorage/LibraryStorage.sol\":60:2208  contract LibraryStorage {\r... */\n  mstore(0x40, 0x80)\n  callvalue\n  dup1\n  iszero\n  tag_1\n  jumpi\n  0x00\n  dup1\n  revert\ntag_1:\n  pop\n  dataSize(sub_0)\n  dup1\n  dataOffset(sub_0)\n  0x00\n  codecopy\n  0x00\n  return\nstop\n\nsub_0: assembly {\n        /* \"LibraryStorage/LibraryStorage.sol\":60:2208  contract LibraryStorage {\r... */\n      mstore(0x40, 0x80)\n      callvalue\n      dup1\n      iszero\n      tag_1\n      jumpi\n      0x00\n      dup1\n      revert\n    tag_1:\n      pop\n      jumpi(tag_2, lt(calldatasize, 0x04))\n      shr(0xe0, calldataload(0x00))\n      dup1\n      0x68744046\n      gt\n      tag_10\n      jumpi\n      dup1\n      0x68744046\n      eq\n      tag_6\n      jumpi\n      dup1\n      0x7e490a9e\n      eq\n      tag_7\n      jumpi\n      dup1\n      0xca5140c9\n      eq\n      tag_8\n      jumpi\n      dup1\n      0xe35d207c\n      eq\n      tag_9\n      jumpi\n      jump(tag_2)\n    tag_10:\n      dup1\n      0x03d24c49\n      eq\n      tag_3\n      jumpi\n      dup1\n      0x057e11c9\n      eq\n      tag_4\n      jumpi\n      dup1\n      0x3bc5f48a\n      eq\n      tag_5\n      jumpi\n    tag_2:\n      0x00\n      dup1\n      revert\n        /* \"LibraryStorage/LibraryStorage.sol\":91:132  mapping(address => uint) public bookOwner */\n    tag_3:\n      tag_11\n      0x04\n      dup1\n      calldatasize\n      sub\n      dup2\n      add\n      swap1\n      tag_12\n      swap2\n      swap1\n      tag_13\n      jump\t// in\n    tag_12:\n      tag_14\n      jump\t// in\n    tag_11:\n      mload(0x40)\n      tag_15\n      swap2\n      swap1\n      tag_16\n      jump\t// in\n    tag_15:\n      mload(0x40)\n      dup1\n      swap2\n      sub\n      swap1\n      return\n        /* \"LibraryStorage/LibraryStorage.sol\":1761:2205  function allReservedBooks() external view returns(Book[] memory) {\r... */\n    tag_4:\n      tag_17\n      tag_18\n      jump\t// in\n    tag_17:\n      mload(0x40)\n      tag_19\n      swap2\n      swap1\n      tag_20\n      jump\t// in\n    tag_19:\n      mload(0x40)\n      dup1\n      swap2\n      sub\n      swap1\n      return\n        /* \"LibraryStorage/LibraryStorage.sol\":358:572  function addBook(string memory _bookName) external {\r... */\n    tag_5:\n      tag_21\n      0x04\n      dup1\n      calldatasize\n      sub\n      dup2\n      add\n      swap1\n      tag_22\n      swap2\n      swap1\n      tag_23\n      jump\t// in\n    tag_22:\n      tag_24\n      jump\t// in\n    tag_21:\n      stop\n        /* \"LibraryStorage/LibraryStorage.sol\":214:234  Book [] public books */\n    tag_6:\n      tag_25\n      0x04\n      dup1\n      calldatasize\n      sub\n      dup2\n      add\n      swap1\n      tag_26\n      swap2\n      swap1\n      tag_27\n      jump\t// in\n    tag_26:\n      tag_28\n      jump\t// in\n    tag_25:\n      mload(0x40)\n      tag_29\n      swap3\n      swap2\n      swap1\n      tag_30\n      jump\t// in\n    tag_29:\n      mload(0x40)\n      dup1\n      swap2\n      sub\n      swap1\n      return\n        /* \"LibraryStorage/LibraryStorage.sol\":578:982  function borrowBook(uint bookId) external {\r... */\n    tag_7:\n      tag_31\n      0x04\n      dup1\n      calldatasize\n      sub\n      dup2\n      add\n      swap1\n      tag_32\n      swap2\n      swap1\n      tag_27\n      jump\t// in\n    tag_32:\n      tag_33\n      jump\t// in\n    tag_31:\n      stop\n        /* \"LibraryStorage/LibraryStorage.sol\":987:1175  function returnBook(uint bookId) external {\r... */\n    tag_8:\n      tag_34\n      0x04\n      dup1\n      calldatasize\n      sub\n      dup2\n      add\n      swap1\n      tag_35\n      swap2\n      swap1\n      tag_27\n      jump\t// in\n    tag_35:\n      tag_36\n      jump\t// in\n    tag_34:\n      stop\n        /* \"LibraryStorage/LibraryStorage.sol\":1181:1755  function getAvailableBook() external view returns (Book[] memory) {\r... */\n    tag_9:\n      tag_37\n      tag_38\n      jump\t// in\n    tag_37:\n      mload(0x40)\n      tag_39\n      swap2\n      swap1\n      tag_20\n      jump\t// in\n    tag_39:\n      mload(0x40)\n      dup1\n      swap2\n      sub\n      swap1\n      return\n        /* \"LibraryStorage/LibraryStorage.sol\":91:132  mapping(address => uint) public bookOwner */\n    tag_14:\n      mstore(0x20, 0x00)\n      dup1\n      0x00\n      mstore\n      keccak256(0x00, 0x40)\n      0x00\n      swap2\n      pop\n      swap1\n      pop\n      sload\n      dup2\n      jump\t// out\n        /* \"LibraryStorage/LibraryStorage.sol\":1761:2205  function allReservedBooks() external view returns(Book[] memory) {\r... */\n    tag_18:\n        /* \"LibraryStorage/LibraryStorage.sol\":1811:1824  Book[] memory */\n      0x60\n        /* \"LibraryStorage/LibraryStorage.sol\":1833:1843  uint count */\n      0x00\n        /* \"LibraryStorage/LibraryStorage.sol\":1859:1865  uint i */\n      dup1\n        /* \"LibraryStorage/LibraryStorage.sol\":1854:1977  for (uint i =0; i < books.length; i++) {\r... */\n    tag_41:\n        /* \"LibraryStorage/LibraryStorage.sol\":1874:1879  books */\n      0x01\n        /* \"LibraryStorage/LibraryStorage.sol\":1874:1886  books.length */\n      dup1\n      sload\n      swap1\n      pop\n        /* \"LibraryStorage/LibraryStorage.sol\":1870:1871  i */\n      dup2\n        /* \"LibraryStorage/LibraryStorage.sol\":1870:1886  i < books.length */\n      lt\n        /* \"LibraryStorage/LibraryStorage.sol\":1854:1977  for (uint i =0; i < books.length; i++) {\r... */\n      iszero\n      tag_42\n      jumpi\n        /* \"LibraryStorage/LibraryStorage.sol\":1933:1934  0 */\n      0x00\n        /* \"LibraryStorage/LibraryStorage.sol\":1907:1935  books[i].owner != address(0) */\n      0xffffffffffffffffffffffffffffffffffffffff\n      and\n        /* \"LibraryStorage/LibraryStorage.sol\":1907:1912  books */\n      0x01\n        /* \"LibraryStorage/LibraryStorage.sol\":1913:1914  i */\n      dup3\n        /* \"LibraryStorage/LibraryStorage.sol\":1907:1915  books[i] */\n      dup2\n      sload\n      dup2\n      lt\n      tag_44\n      jumpi\n      mstore(0x00, 0x4e487b7100000000000000000000000000000000000000000000000000000000)\n      mstore(0x04, 0x32)\n      revert(0x00, 0x24)\n    tag_44:\n      swap1\n      0x00\n      mstore\n      keccak256(0x00, 0x20)\n      swap1\n      0x02\n      mul\n      add\n        /* \"LibraryStorage/LibraryStorage.sol\":1907:1921  books[i].owner */\n      0x01\n      add\n      0x00\n      swap1\n      sload\n      swap1\n      0x0100\n      exp\n      swap1\n      div\n      0xffffffffffffffffffffffffffffffffffffffff\n      and\n        /* \"LibraryStorage/LibraryStorage.sol\":1907:1935  books[i].owner != address(0) */\n      0xffffffffffffffffffffffffffffffffffffffff\n      and\n      eq\n        /* \"LibraryStorage/LibraryStorage.sol\":1904:1970  if(books[i].owner != address(0)){\r... */\n      tag_46\n      jumpi\n        /* \"LibraryStorage/LibraryStorage.sol\":1951:1958  count++ */\n      dup2\n      dup1\n      tag_47\n      swap1\n      tag_48\n      jump\t// in\n    tag_47:\n      swap3\n      pop\n      pop\n        /* \"LibraryStorage/LibraryStorage.sol\":1904:1970  if(books[i].owner != address(0)){\r... */\n    tag_46:\n        /* \"LibraryStorage/LibraryStorage.sol\":1888:1891  i++ */\n      dup1\n      dup1\n      tag_49\n      swap1\n      tag_48\n      jump\t// in\n    tag_49:\n      swap2\n      pop\n      pop\n        /* \"LibraryStorage/LibraryStorage.sol\":1854:1977  for (uint i =0; i < books.length; i++) {\r... */\n      jump(tag_41)\n    tag_42:\n      pop\n        /* \"LibraryStorage/LibraryStorage.sol\":1989:2016  Book[] memory reservedBooks */\n      0x00\n        /* \"LibraryStorage/LibraryStorage.sol\":2031:2036  count */\n      dup2\n        /* \"LibraryStorage/LibraryStorage.sol\":2019:2037  new Book[] (count) */\n      0xffffffffffffffff\n      dup2\n      gt\n      iszero\n      tag_50\n      jumpi\n      mstore(0x00, 0x4e487b7100000000000000000000000000000000000000000000000000000000)\n      mstore(0x04, 0x41)\n      revert(0x00, 0x24)\n    tag_50:\n      mload(0x40)\n      swap1\n      dup1\n      dup3\n      mstore\n      dup1\n      0x20\n      mul\n      0x20\n      add\n      dup3\n      add\n      0x40\n      mstore\n      dup1\n      iszero\n      tag_51\n      jumpi\n      dup2\n      0x20\n      add\n    tag_52:\n      tag_53\n      tag_54\n      jump\t// in\n    tag_53:\n      dup2\n      mstore\n      0x20\n      add\n      swap1\n      0x01\n      swap1\n      sub\n      swap1\n      dup2\n      tag_52\n      jumpi\n      swap1\n      pop\n    tag_51:\n      pop\n        /* \"LibraryStorage/LibraryStorage.sol\":1989:2037  Book[] memory reservedBooks = new Book[] (count) */\n      swap1\n      pop\n        /* \"LibraryStorage/LibraryStorage.sol\":2044:2054  uint index */\n      0x00\n        /* \"LibraryStorage/LibraryStorage.sol\":2069:2075  uint i */\n      dup1\n        /* \"LibraryStorage/LibraryStorage.sol\":2065:2171  for(uint i = 0; i < books.length; i++){\r... */\n    tag_55:\n        /* \"LibraryStorage/LibraryStorage.sol\":2085:2090  books */\n      0x01\n        /* \"LibraryStorage/LibraryStorage.sol\":2085:2097  books.length */\n      dup1\n      sload\n      swap1\n      pop\n        /* \"LibraryStorage/LibraryStorage.sol\":2081:2082  i */\n      dup2\n        /* \"LibraryStorage/LibraryStorage.sol\":2081:2097  i < books.length */\n      lt\n        /* \"LibraryStorage/LibraryStorage.sol\":2065:2171  for(uint i = 0; i < books.length; i++){\r... */\n      iszero\n      tag_56\n      jumpi\n        /* \"LibraryStorage/LibraryStorage.sol\":2137:2142  books */\n      0x01\n        /* \"LibraryStorage/LibraryStorage.sol\":2143:2144  i */\n      dup2\n        /* \"LibraryStorage/LibraryStorage.sol\":2137:2145  books[i] */\n      dup2\n      sload\n      dup2\n      lt\n      tag_58\n      jumpi\n      mstore(0x00, 0x4e487b7100000000000000000000000000000000000000000000000000000000)\n      mstore(0x04, 0x32)\n      revert(0x00, 0x24)\n    tag_58:\n      swap1\n      0x00\n      mstore\n      keccak256(0x00, 0x20)\n      swap1\n      0x02\n      mul\n      add\n        /* \"LibraryStorage/LibraryStorage.sol\":2114:2145  reservedBooks[index] = books[i] */\n      mload(0x40)\n      dup1\n      0x40\n      add\n      0x40\n      mstore\n      swap1\n      dup2\n      0x00\n      dup3\n      add\n      dup1\n      sload\n      tag_60\n      swap1\n      tag_61\n      jump\t// in\n    tag_60:\n      dup1\n      0x1f\n      add\n      0x20\n      dup1\n      swap2\n      div\n      mul\n      0x20\n      add\n      mload(0x40)\n      swap1\n      dup2\n      add\n      0x40\n      mstore\n      dup1\n      swap3\n      swap2\n      swap1\n      dup2\n      dup2\n      mstore\n      0x20\n      add\n      dup3\n      dup1\n      sload\n      tag_62\n      swap1\n      tag_61\n      jump\t// in\n    tag_62:\n      dup1\n      iszero\n      tag_63\n      jumpi\n      dup1\n      0x1f\n      lt\n      tag_64\n      jumpi\n      0x0100\n      dup1\n      dup4\n      sload\n      div\n      mul\n      dup4\n      mstore\n      swap2\n      0x20\n      add\n      swap2\n      jump(tag_63)\n    tag_64:\n      dup3\n      add\n      swap2\n      swap1\n      0x00\n      mstore\n      keccak256(0x00, 0x20)\n      swap1\n    tag_65:\n      dup2\n      sload\n      dup2\n      mstore\n      swap1\n      0x01\n      add\n      swap1\n      0x20\n      add\n      dup1\n      dup4\n      gt\n      tag_65\n      jumpi\n      dup3\n      swap1\n      sub\n      0x1f\n      and\n      dup3\n      add\n      swap2\n    tag_63:\n      pop\n      pop\n      pop\n      pop\n      pop\n      dup2\n      mstore\n      0x20\n      add\n      0x01\n      dup3\n      add\n      0x00\n      swap1\n      sload\n      swap1\n      0x0100\n      exp\n      swap1\n      div\n      0xffffffffffffffffffffffffffffffffffffffff\n      and\n      0xffffffffffffffffffffffffffffffffffffffff\n      and\n      0xffffffffffffffffffffffffffffffffffffffff\n      and\n      dup2\n      mstore\n      pop\n      pop\n        /* \"LibraryStorage/LibraryStorage.sol\":2114:2127  reservedBooks */\n      dup4\n        /* \"LibraryStorage/LibraryStorage.sol\":2128:2133  index */\n      dup4\n        /* \"LibraryStorage/LibraryStorage.sol\":2114:2134  reservedBooks[index] */\n      dup2\n      mload\n      dup2\n      lt\n      tag_66\n      jumpi\n      mstore(0x00, 0x4e487b7100000000000000000000000000000000000000000000000000000000)\n      mstore(0x04, 0x32)\n      revert(0x00, 0x24)\n    tag_66:\n      0x20\n      mul\n      0x20\n      add\n      add\n        /* \"LibraryStorage/LibraryStorage.sol\":2114:2145  reservedBooks[index] = books[i] */\n      dup2\n      swap1\n      mstore\n      pop\n        /* \"LibraryStorage/LibraryStorage.sol\":2156:2163  index++ */\n      dup2\n      dup1\n      tag_67\n      swap1\n      tag_48\n      jump\t// in\n    tag_67:\n      swap3\n      pop\n      pop\n        /* \"LibraryStorage/LibraryStorage.sol\":2099:2102  i++ */\n      dup1\n      dup1\n      tag_68\n      swap1\n      tag_48\n      jump\t// in\n    tag_68:\n      swap2\n      pop\n      pop\n        /* \"LibraryStorage/LibraryStorage.sol\":2065:2171  for(uint i = 0; i < books.length; i++){\r... */\n      jump(tag_55)\n    tag_56:\n      pop\n        /* \"LibraryStorage/LibraryStorage.sol\":2184:2197  reservedBooks */\n      dup2\n        /* \"LibraryStorage/LibraryStorage.sol\":2177:2197  return reservedBooks */\n      swap4\n      pop\n      pop\n      pop\n      pop\n        /* \"LibraryStorage/LibraryStorage.sol\":1761:2205  function allReservedBooks() external view returns(Book[] memory) {\r... */\n      swap1\n      jump\t// out\n        /* \"LibraryStorage/LibraryStorage.sol\":358:572  function addBook(string memory _bookName) external {\r... */\n    tag_24:\n        /* \"LibraryStorage/LibraryStorage.sol\":420:425  books */\n      0x01\n        /* \"LibraryStorage/LibraryStorage.sol\":431:514  Book({\r... */\n      mload(0x40)\n      dup1\n      0x40\n      add\n      0x40\n      mstore\n      dup1\n        /* \"LibraryStorage/LibraryStorage.sol\":461:470  _bookName */\n      dup4\n        /* \"LibraryStorage/LibraryStorage.sol\":431:514  Book({\r... */\n      dup2\n      mstore\n      0x20\n      add\n        /* \"LibraryStorage/LibraryStorage.sol\":500:501  0 */\n      0x00\n        /* \"LibraryStorage/LibraryStorage.sol\":431:514  Book({\r... */\n      0xffffffffffffffffffffffffffffffffffffffff\n      and\n      dup2\n      mstore\n      pop\n        /* \"LibraryStorage/LibraryStorage.sol\":420:515  books.push(Book({\r... */\n      swap1\n      dup1\n      0x01\n      dup2\n      sload\n      add\n      dup1\n      dup3\n      sstore\n      dup1\n      swap2\n      pop\n      pop\n      0x01\n      swap1\n      sub\n      swap1\n      0x00\n      mstore\n      keccak256(0x00, 0x20)\n      swap1\n      0x02\n      mul\n      add\n      0x00\n      swap1\n      swap2\n      swap1\n      swap2\n      swap1\n      swap2\n      pop\n      0x00\n      dup3\n      add\n      mload\n      dup2\n      0x00\n      add\n      swap1\n      dup1\n      mload\n      swap1\n      0x20\n      add\n      swap1\n      tag_71\n      swap3\n      swap2\n      swap1\n      tag_72\n      jump\t// in\n    tag_71:\n      pop\n      0x20\n      dup3\n      add\n      mload\n      dup2\n      0x01\n      add\n      exp(0x0100, 0x00)\n      dup2\n      sload\n      dup2\n      0xffffffffffffffffffffffffffffffffffffffff\n      mul\n      not\n      and\n      swap1\n      dup4\n      0xffffffffffffffffffffffffffffffffffffffff\n      and\n      mul\n      or\n      swap1\n      sstore\n      pop\n      pop\n      pop\n        /* \"LibraryStorage/LibraryStorage.sol\":554:563  _bookName */\n      dup1\n        /* \"LibraryStorage/LibraryStorage.sol\":541:564  newBookAdded(_bookName) */\n      mload(0x40)\n      tag_73\n      swap2\n      swap1\n      tag_74\n      jump\t// in\n    tag_73:\n      mload(0x40)\n      dup1\n      swap2\n      sub\n      swap1\n      keccak256\n      0x389883c247948e6a90f461d8febcbc3d72029c3e696e10f6c68cbb65d7e23fc9\n      mload(0x40)\n      mload(0x40)\n      dup1\n      swap2\n      sub\n      swap1\n      log2\n        /* \"LibraryStorage/LibraryStorage.sol\":358:572  function addBook(string memory _bookName) external {\r... */\n      pop\n      jump\t// out\n        /* \"LibraryStorage/LibraryStorage.sol\":214:234  Book [] public books */\n    tag_28:\n      0x01\n      dup2\n      dup2\n      sload\n      dup2\n      lt\n      tag_75\n      jumpi\n      0x00\n      dup1\n      revert\n    tag_75:\n      swap1\n      0x00\n      mstore\n      keccak256(0x00, 0x20)\n      swap1\n      0x02\n      mul\n      add\n      0x00\n      swap2\n      pop\n      swap1\n      pop\n      dup1\n      0x00\n      add\n      dup1\n      sload\n      tag_77\n      swap1\n      tag_61\n      jump\t// in\n    tag_77:\n      dup1\n      0x1f\n      add\n      0x20\n      dup1\n      swap2\n      div\n      mul\n      0x20\n      add\n      mload(0x40)\n      swap1\n      dup2\n      add\n      0x40\n      mstore\n      dup1\n      swap3\n      swap2\n      swap1\n      dup2\n      dup2\n      mstore\n      0x20\n      add\n      dup3\n      dup1\n      sload\n      tag_78\n      swap1\n      tag_61\n      jump\t// in\n    tag_78:\n      dup1\n      iszero\n      tag_79\n      jumpi\n      dup1\n      0x1f\n      lt\n      tag_80\n      jumpi\n      0x0100\n      dup1\n      dup4\n      sload\n      div\n      mul\n      dup4\n      mstore\n      swap2\n      0x20\n      add\n      swap2\n      jump(tag_79)\n    tag_80:\n      dup3\n      add\n      swap2\n      swap1\n      0x00\n      mstore\n      keccak256(0x00, 0x20)\n      swap1\n    tag_81:\n      dup2\n      sload\n      dup2\n      mstore\n      swap1\n      0x01\n      add\n      swap1\n      0x20\n      add\n      dup1\n      dup4\n      gt\n      tag_81\n      jumpi\n      dup3\n      swap1\n      sub\n      0x1f\n      and\n      dup3\n      add\n      swap2\n    tag_79:\n      pop\n      pop\n      pop\n      pop\n      pop\n      swap1\n      dup1\n      0x01\n      add\n      0x00\n      swap1\n      sload\n      swap1\n      0x0100\n      exp\n      swap1\n      div\n      0xffffffffffffffffffffffffffffffffffffffff\n      and\n      swap1\n      pop\n      dup3\n      jump\t// out\n        /* \"LibraryStorage/LibraryStorage.sol\":578:982  function borrowBook(uint bookId) external {\r... */\n    tag_33:\n        /* \"LibraryStorage/LibraryStorage.sol\":648:653  books */\n      0x01\n        /* \"LibraryStorage/LibraryStorage.sol\":648:660  books.length */\n      dup1\n      sload\n      swap1\n      pop\n        /* \"LibraryStorage/LibraryStorage.sol\":639:645  bookId */\n      dup2\n        /* \"LibraryStorage/LibraryStorage.sol\":639:660  bookId < books.length */\n      lt\n        /* \"LibraryStorage/LibraryStorage.sol\":631:673  require(bookId < books.length, \"Wrong ID\") */\n      tag_83\n      jumpi\n      mload(0x40)\n      0x08c379a000000000000000000000000000000000000000000000000000000000\n      dup2\n      mstore\n      0x04\n      add\n      tag_84\n      swap1\n      tag_85\n      jump\t// in\n    tag_84:\n      mload(0x40)\n      dup1\n      swap2\n      sub\n      swap1\n      revert\n    tag_83:\n        /* \"LibraryStorage/LibraryStorage.sol\":723:724  0 */\n      0x00\n        /* \"LibraryStorage/LibraryStorage.sol\":692:725  books[bookId].owner == address(0) */\n      0xffffffffffffffffffffffffffffffffffffffff\n      and\n        /* \"LibraryStorage/LibraryStorage.sol\":692:697  books */\n      0x01\n        /* \"LibraryStorage/LibraryStorage.sol\":698:704  bookId */\n      dup3\n        /* \"LibraryStorage/LibraryStorage.sol\":692:705  books[bookId] */\n      dup2\n      sload\n      dup2\n      lt\n      tag_86\n      jumpi\n      mstore(0x00, 0x4e487b7100000000000000000000000000000000000000000000000000000000)\n      mstore(0x04, 0x32)\n      revert(0x00, 0x24)\n    tag_86:\n      swap1\n      0x00\n      mstore\n      keccak256(0x00, 0x20)\n      swap1\n      0x02\n      mul\n      add\n        /* \"LibraryStorage/LibraryStorage.sol\":692:711  books[bookId].owner */\n      0x01\n      add\n      0x00\n      swap1\n      sload\n      swap1\n      0x0100\n      exp\n      swap1\n      div\n      0xffffffffffffffffffffffffffffffffffffffff\n      and\n        /* \"LibraryStorage/LibraryStorage.sol\":692:725  books[bookId].owner == address(0) */\n      0xffffffffffffffffffffffffffffffffffffffff\n      and\n      eq\n        /* \"LibraryStorage/LibraryStorage.sol\":684:749  require(books[bookId].owner == address(0), \"Book already taken!\") */\n      tag_88\n      jumpi\n      mload(0x40)\n      0x08c379a000000000000000000000000000000000000000000000000000000000\n      dup2\n      mstore\n      0x04\n      add\n      tag_89\n      swap1\n      tag_90\n      jump\t// in\n    tag_89:\n      mload(0x40)\n      dup1\n      swap2\n      sub\n      swap1\n      revert\n    tag_88:\n        /* \"LibraryStorage/LibraryStorage.sol\":793:794  1 */\n      0x01\n        /* \"LibraryStorage/LibraryStorage.sol\":768:777  bookOwner */\n      0x00\n        /* \"LibraryStorage/LibraryStorage.sol\":768:789  bookOwner[msg.sender] */\n      dup1\n        /* \"LibraryStorage/LibraryStorage.sol\":778:788  msg.sender */\n      caller\n        /* \"LibraryStorage/LibraryStorage.sol\":768:789  bookOwner[msg.sender] */\n      0xffffffffffffffffffffffffffffffffffffffff\n      and\n      0xffffffffffffffffffffffffffffffffffffffff\n      and\n      dup2\n      mstore\n      0x20\n      add\n      swap1\n      dup2\n      mstore\n      0x20\n      add\n      0x00\n      keccak256\n      sload\n        /* \"LibraryStorage/LibraryStorage.sol\":768:794  bookOwner[msg.sender] != 1 */\n      eq\n      iszero\n        /* \"LibraryStorage/LibraryStorage.sol\":760:825  require(bookOwner[msg.sender] != 1, \"U've already taken a book!\") */\n      tag_91\n      jumpi\n      mload(0x40)\n      0x08c379a000000000000000000000000000000000000000000000000000000000\n      dup2\n      mstore\n      0x04\n      add\n      tag_92\n      swap1\n      tag_93\n      jump\t// in\n    tag_92:\n      mload(0x40)\n      dup1\n      swap2\n      sub\n      swap1\n      revert\n    tag_91:\n        /* \"LibraryStorage/LibraryStorage.sol\":856:866  msg.sender */\n      caller\n        /* \"LibraryStorage/LibraryStorage.sol\":836:841  books */\n      0x01\n        /* \"LibraryStorage/LibraryStorage.sol\":842:848  bookId */\n      dup3\n        /* \"LibraryStorage/LibraryStorage.sol\":836:849  books[bookId] */\n      dup2\n      sload\n      dup2\n      lt\n      tag_94\n      jumpi\n      mstore(0x00, 0x4e487b7100000000000000000000000000000000000000000000000000000000)\n      mstore(0x04, 0x32)\n      revert(0x00, 0x24)\n    tag_94:\n      swap1\n      0x00\n      mstore\n      keccak256(0x00, 0x20)\n      swap1\n      0x02\n      mul\n      add\n        /* \"LibraryStorage/LibraryStorage.sol\":836:855  books[bookId].owner */\n      0x01\n      add\n      0x00\n        /* \"LibraryStorage/LibraryStorage.sol\":836:866  books[bookId].owner=msg.sender */\n      0x0100\n      exp\n      dup2\n      sload\n      dup2\n      0xffffffffffffffffffffffffffffffffffffffff\n      mul\n      not\n      and\n      swap1\n      dup4\n      0xffffffffffffffffffffffffffffffffffffffff\n      and\n      mul\n      or\n      swap1\n      sstore\n      pop\n        /* \"LibraryStorage/LibraryStorage.sol\":909:910  1 */\n      0x01\n        /* \"LibraryStorage/LibraryStorage.sol\":900:906  bookId */\n      dup2\n        /* \"LibraryStorage/LibraryStorage.sol\":900:910  bookId + 1 */\n      tag_96\n      swap2\n      swap1\n      tag_97\n      jump\t// in\n    tag_96:\n        /* \"LibraryStorage/LibraryStorage.sol\":877:886  bookOwner */\n      0x00\n        /* \"LibraryStorage/LibraryStorage.sol\":877:898  bookOwner[msg.sender] */\n      dup1\n        /* \"LibraryStorage/LibraryStorage.sol\":887:897  msg.sender */\n      caller\n        /* \"LibraryStorage/LibraryStorage.sol\":877:898  bookOwner[msg.sender] */\n      0xffffffffffffffffffffffffffffffffffffffff\n      and\n      0xffffffffffffffffffffffffffffffffffffffff\n      and\n      dup2\n      mstore\n      0x20\n      add\n      swap1\n      dup2\n      mstore\n      0x20\n      add\n      0x00\n      keccak256\n        /* \"LibraryStorage/LibraryStorage.sol\":877:910  bookOwner[msg.sender]= bookId + 1 */\n      dup2\n      swap1\n      sstore\n      pop\n        /* \"LibraryStorage/LibraryStorage.sol\":939:944  books */\n      0x01\n        /* \"LibraryStorage/LibraryStorage.sol\":945:951  bookId */\n      dup2\n        /* \"LibraryStorage/LibraryStorage.sol\":939:952  books[bookId] */\n      dup2\n      sload\n      dup2\n      lt\n      tag_98\n      jumpi\n      mstore(0x00, 0x4e487b7100000000000000000000000000000000000000000000000000000000)\n      mstore(0x04, 0x32)\n      revert(0x00, 0x24)\n    tag_98:\n      swap1\n      0x00\n      mstore\n      keccak256(0x00, 0x20)\n      swap1\n      0x02\n      mul\n      add\n        /* \"LibraryStorage/LibraryStorage.sol\":939:961  books[bookId].bookName */\n      0x00\n      add\n        /* \"LibraryStorage/LibraryStorage.sol\":926:974  newBookTaken(books[bookId].bookName, msg.sender) */\n      mload(0x40)\n      tag_100\n      swap2\n      swap1\n      tag_101\n      jump\t// in\n    tag_100:\n      mload(0x40)\n      dup1\n      swap2\n      sub\n      swap1\n      keccak256\n      0x4bd98b3223c39f335bc6f823093ab65d500345beda2bd23303ae81271e26810d\n        /* \"LibraryStorage/LibraryStorage.sol\":963:973  msg.sender */\n      caller\n        /* \"LibraryStorage/LibraryStorage.sol\":926:974  newBookTaken(books[bookId].bookName, msg.sender) */\n      mload(0x40)\n      tag_102\n      swap2\n      swap1\n      tag_103\n      jump\t// in\n    tag_102:\n      mload(0x40)\n      dup1\n      swap2\n      sub\n      swap1\n      log2\n        /* \"LibraryStorage/LibraryStorage.sol\":578:982  function borrowBook(uint bookId) external {\r... */\n      pop\n      jump\t// out\n        /* \"LibraryStorage/LibraryStorage.sol\":987:1175  function returnBook(uint bookId) external {\r... */\n    tag_36:\n        /* \"LibraryStorage/LibraryStorage.sol\":1057:1062  books */\n      0x01\n        /* \"LibraryStorage/LibraryStorage.sol\":1063:1069  bookId */\n      dup2\n        /* \"LibraryStorage/LibraryStorage.sol\":1057:1070  books[bookId] */\n      dup2\n      sload\n      dup2\n      lt\n      tag_105\n      jumpi\n      mstore(0x00, 0x4e487b7100000000000000000000000000000000000000000000000000000000)\n      mstore(0x04, 0x32)\n      revert(0x00, 0x24)\n    tag_105:\n      swap1\n      0x00\n      mstore\n      keccak256(0x00, 0x20)\n      swap1\n      0x02\n      mul\n      add\n        /* \"LibraryStorage/LibraryStorage.sol\":1057:1076  books[bookId].owner */\n      0x01\n      add\n      0x00\n      swap1\n      sload\n      swap1\n      0x0100\n      exp\n      swap1\n      div\n      0xffffffffffffffffffffffffffffffffffffffff\n      and\n        /* \"LibraryStorage/LibraryStorage.sol\":1044:1076  msg.sender ==books[bookId].owner */\n      0xffffffffffffffffffffffffffffffffffffffff\n      and\n        /* \"LibraryStorage/LibraryStorage.sol\":1044:1054  msg.sender */\n      caller\n        /* \"LibraryStorage/LibraryStorage.sol\":1044:1076  msg.sender ==books[bookId].owner */\n      0xffffffffffffffffffffffffffffffffffffffff\n      and\n      eq\n        /* \"LibraryStorage/LibraryStorage.sol\":1036:1102  require(msg.sender ==books[bookId].owner,\"Only owner can return!\") */\n      tag_107\n      jumpi\n      mload(0x40)\n      0x08c379a000000000000000000000000000000000000000000000000000000000\n      dup2\n      mstore\n      0x04\n      add\n      tag_108\n      swap1\n      tag_109\n      jump\t// in\n    tag_108:\n      mload(0x40)\n      dup1\n      swap2\n      sub\n      swap1\n      revert\n    tag_107:\n        /* \"LibraryStorage/LibraryStorage.sol\":1139:1140  0 */\n      0x00\n        /* \"LibraryStorage/LibraryStorage.sol\":1109:1114  books */\n      0x01\n        /* \"LibraryStorage/LibraryStorage.sol\":1115:1121  bookId */\n      dup3\n        /* \"LibraryStorage/LibraryStorage.sol\":1109:1122  books[bookId] */\n      dup2\n      sload\n      dup2\n      lt\n      tag_110\n      jumpi\n      mstore(0x00, 0x4e487b7100000000000000000000000000000000000000000000000000000000)\n      mstore(0x04, 0x32)\n      revert(0x00, 0x24)\n    tag_110:\n      swap1\n      0x00\n      mstore\n      keccak256(0x00, 0x20)\n      swap1\n      0x02\n      mul\n      add\n        /* \"LibraryStorage/LibraryStorage.sol\":1109:1128  books[bookId].owner */\n      0x01\n      add\n      0x00\n        /* \"LibraryStorage/LibraryStorage.sol\":1109:1141  books[bookId].owner = address(0) */\n      0x0100\n      exp\n      dup2\n      sload\n      dup2\n      0xffffffffffffffffffffffffffffffffffffffff\n      mul\n      not\n      and\n      swap1\n      dup4\n      0xffffffffffffffffffffffffffffffffffffffff\n      and\n      mul\n      or\n      swap1\n      sstore\n      pop\n        /* \"LibraryStorage/LibraryStorage.sol\":1170:1171  0 */\n      0x00\n        /* \"LibraryStorage/LibraryStorage.sol\":1148:1157  bookOwner */\n      dup1\n        /* \"LibraryStorage/LibraryStorage.sol\":1148:1169  bookOwner[msg.sender] */\n      0x00\n        /* \"LibraryStorage/LibraryStorage.sol\":1158:1168  msg.sender */\n      caller\n        /* \"LibraryStorage/LibraryStorage.sol\":1148:1169  bookOwner[msg.sender] */\n      0xffffffffffffffffffffffffffffffffffffffff\n      and\n      0xffffffffffffffffffffffffffffffffffffffff\n      and\n      dup2\n      mstore\n      0x20\n      add\n      swap1\n      dup2\n      mstore\n      0x20\n      add\n      0x00\n      keccak256\n        /* \"LibraryStorage/LibraryStorage.sol\":1148:1171  bookOwner[msg.sender]=0 */\n      dup2\n      swap1\n      sstore\n      pop\n        /* \"LibraryStorage/LibraryStorage.sol\":987:1175  function returnBook(uint bookId) external {\r... */\n      pop\n      jump\t// out\n        /* \"LibraryStorage/LibraryStorage.sol\":1181:1755  function getAvailableBook() external view returns (Book[] memory) {\r... */\n    tag_38:\n        /* \"LibraryStorage/LibraryStorage.sol\":1232:1245  Book[] memory */\n      0x60\n        /* \"LibraryStorage/LibraryStorage.sol\":1258:1268  uint count */\n      0x00\n        /* \"LibraryStorage/LibraryStorage.sol\":1288:1294  uint i */\n      dup1\n        /* \"LibraryStorage/LibraryStorage.sol\":1283:1425  for (uint i = 0; i < books.length; i++) {\r... */\n    tag_113:\n        /* \"LibraryStorage/LibraryStorage.sol\":1304:1309  books */\n      0x01\n        /* \"LibraryStorage/LibraryStorage.sol\":1304:1316  books.length */\n      dup1\n      sload\n      swap1\n      pop\n        /* \"LibraryStorage/LibraryStorage.sol\":1300:1301  i */\n      dup2\n        /* \"LibraryStorage/LibraryStorage.sol\":1300:1316  i < books.length */\n      lt\n        /* \"LibraryStorage/LibraryStorage.sol\":1283:1425  for (uint i = 0; i < books.length; i++) {\r... */\n      iszero\n      tag_114\n      jumpi\n        /* \"LibraryStorage/LibraryStorage.sol\":1368:1369  0 */\n      0x00\n        /* \"LibraryStorage/LibraryStorage.sol\":1342:1370  books[i].owner == address(0) */\n      0xffffffffffffffffffffffffffffffffffffffff\n      and\n        /* \"LibraryStorage/LibraryStorage.sol\":1342:1347  books */\n      0x01\n        /* \"LibraryStorage/LibraryStorage.sol\":1348:1349  i */\n      dup3\n        /* \"LibraryStorage/LibraryStorage.sol\":1342:1350  books[i] */\n      dup2\n      sload\n      dup2\n      lt\n      tag_116\n      jumpi\n      mstore(0x00, 0x4e487b7100000000000000000000000000000000000000000000000000000000)\n      mstore(0x04, 0x32)\n      revert(0x00, 0x24)\n    tag_116:\n      swap1\n      0x00\n      mstore\n      keccak256(0x00, 0x20)\n      swap1\n      0x02\n      mul\n      add\n        /* \"LibraryStorage/LibraryStorage.sol\":1342:1356  books[i].owner */\n      0x01\n      add\n      0x00\n      swap1\n      sload\n      swap1\n      0x0100\n      exp\n      swap1\n      div\n      0xffffffffffffffffffffffffffffffffffffffff\n      and\n        /* \"LibraryStorage/LibraryStorage.sol\":1342:1370  books[i].owner == address(0) */\n      0xffffffffffffffffffffffffffffffffffffffff\n      and\n      eq\n        /* \"LibraryStorage/LibraryStorage.sol\":1338:1414  if (books[i].owner == address(0)) {\r... */\n      iszero\n      tag_118\n      jumpi\n        /* \"LibraryStorage/LibraryStorage.sol\":1391:1398  count++ */\n      dup2\n      dup1\n      tag_119\n      swap1\n      tag_48\n      jump\t// in\n    tag_119:\n      swap3\n      pop\n      pop\n        /* \"LibraryStorage/LibraryStorage.sol\":1338:1414  if (books[i].owner == address(0)) {\r... */\n    tag_118:\n        /* \"LibraryStorage/LibraryStorage.sol\":1318:1321  i++ */\n      dup1\n      dup1\n      tag_120\n      swap1\n      tag_48\n      jump\t// in\n    tag_120:\n      swap2\n      pop\n      pop\n        /* \"LibraryStorage/LibraryStorage.sol\":1283:1425  for (uint i = 0; i < books.length; i++) {\r... */\n      jump(tag_113)\n    tag_114:\n      pop\n        /* \"LibraryStorage/LibraryStorage.sol\":1437:1465  Book[] memory availableBooks */\n      0x00\n        /* \"LibraryStorage/LibraryStorage.sol\":1479:1484  count */\n      dup2\n        /* \"LibraryStorage/LibraryStorage.sol\":1468:1485  new Book[](count) */\n      0xffffffffffffffff\n      dup2\n      gt\n      iszero\n      tag_121\n      jumpi\n      mstore(0x00, 0x4e487b7100000000000000000000000000000000000000000000000000000000)\n      mstore(0x04, 0x41)\n      revert(0x00, 0x24)\n    tag_121:\n      mload(0x40)\n      swap1\n      dup1\n      dup3\n      mstore\n      dup1\n      0x20\n      mul\n      0x20\n      add\n      dup3\n      add\n      0x40\n      mstore\n      dup1\n      iszero\n      tag_122\n      jumpi\n      dup2\n      0x20\n      add\n    tag_123:\n      tag_124\n      tag_54\n      jump\t// in\n    tag_124:\n      dup2\n      mstore\n      0x20\n      add\n      swap1\n      0x01\n      swap1\n      sub\n      swap1\n      dup2\n      tag_123\n      jumpi\n      swap1\n      pop\n    tag_122:\n      pop\n        /* \"LibraryStorage/LibraryStorage.sol\":1437:1485  Book[] memory availableBooks = new Book[](count) */\n      swap1\n      pop\n        /* \"LibraryStorage/LibraryStorage.sol\":1496:1506  uint index */\n      0x00\n        /* \"LibraryStorage/LibraryStorage.sol\":1526:1532  uint i */\n      dup1\n        /* \"LibraryStorage/LibraryStorage.sol\":1521:1714  for (uint i = 0; i < books.length; i++) {\r... */\n    tag_125:\n        /* \"LibraryStorage/LibraryStorage.sol\":1542:1547  books */\n      0x01\n        /* \"LibraryStorage/LibraryStorage.sol\":1542:1554  books.length */\n      dup1\n      sload\n      swap1\n      pop\n        /* \"LibraryStorage/LibraryStorage.sol\":1538:1539  i */\n      dup2\n        /* \"LibraryStorage/LibraryStorage.sol\":1538:1554  i < books.length */\n      lt\n        /* \"LibraryStorage/LibraryStorage.sol\":1521:1714  for (uint i = 0; i < books.length; i++) {\r... */\n      iszero\n      tag_126\n      jumpi\n        /* \"LibraryStorage/LibraryStorage.sol\":1606:1607  0 */\n      0x00\n        /* \"LibraryStorage/LibraryStorage.sol\":1580:1608  books[i].owner == address(0) */\n      0xffffffffffffffffffffffffffffffffffffffff\n      and\n        /* \"LibraryStorage/LibraryStorage.sol\":1580:1585  books */\n      0x01\n        /* \"LibraryStorage/LibraryStorage.sol\":1586:1587  i */\n      dup3\n        /* \"LibraryStorage/LibraryStorage.sol\":1580:1588  books[i] */\n      dup2\n      sload\n      dup2\n      lt\n      tag_128\n      jumpi\n      mstore(0x00, 0x4e487b7100000000000000000000000000000000000000000000000000000000)\n      mstore(0x04, 0x32)\n      revert(0x00, 0x24)\n    tag_128:\n      swap1\n      0x00\n      mstore\n      keccak256(0x00, 0x20)\n      swap1\n      0x02\n      mul\n      add\n        /* \"LibraryStorage/LibraryStorage.sol\":1580:1594  books[i].owner */\n      0x01\n      add\n      0x00\n      swap1\n      sload\n      swap1\n      0x0100\n      exp\n      swap1\n      div\n      0xffffffffffffffffffffffffffffffffffffffff\n      and\n        /* \"LibraryStorage/LibraryStorage.sol\":1580:1608  books[i].owner == address(0) */\n      0xffffffffffffffffffffffffffffffffffffffff\n      and\n      eq\n        /* \"LibraryStorage/LibraryStorage.sol\":1576:1703  if (books[i].owner == address(0)) {\r... */\n      iszero\n      tag_130\n      jumpi\n        /* \"LibraryStorage/LibraryStorage.sol\":1653:1658  books */\n      0x01\n        /* \"LibraryStorage/LibraryStorage.sol\":1659:1660  i */\n      dup2\n        /* \"LibraryStorage/LibraryStorage.sol\":1653:1661  books[i] */\n      dup2\n      sload\n      dup2\n      lt\n      tag_131\n      jumpi\n      mstore(0x00, 0x4e487b7100000000000000000000000000000000000000000000000000000000)\n      mstore(0x04, 0x32)\n      revert(0x00, 0x24)\n    tag_131:\n      swap1\n      0x00\n      mstore\n      keccak256(0x00, 0x20)\n      swap1\n      0x02\n      mul\n      add\n        /* \"LibraryStorage/LibraryStorage.sol\":1629:1661  availableBooks[index] = books[i] */\n      mload(0x40)\n      dup1\n      0x40\n      add\n      0x40\n      mstore\n      swap1\n      dup2\n      0x00\n      dup3\n      add\n      dup1\n      sload\n      tag_133\n      swap1\n      tag_61\n      jump\t// in\n    tag_133:\n      dup1\n      0x1f\n      add\n      0x20\n      dup1\n      swap2\n      div\n      mul\n      0x20\n      add\n      mload(0x40)\n      swap1\n      dup2\n      add\n      0x40\n      mstore\n      dup1\n      swap3\n      swap2\n      swap1\n      dup2\n      dup2\n      mstore\n      0x20\n      add\n      dup3\n      dup1\n      sload\n      tag_134\n      swap1\n      tag_61\n      jump\t// in\n    tag_134:\n      dup1\n      iszero\n      tag_135\n      jumpi\n      dup1\n      0x1f\n      lt\n      tag_136\n      jumpi\n      0x0100\n      dup1\n      dup4\n      sload\n      div\n      mul\n      dup4\n      mstore\n      swap2\n      0x20\n      add\n      swap2\n      jump(tag_135)\n    tag_136:\n      dup3\n      add\n      swap2\n      swap1\n      0x00\n      mstore\n      keccak256(0x00, 0x20)\n      swap1\n    tag_137:\n      dup2\n      sload\n      dup2\n      mstore\n      swap1\n      0x01\n      add\n      swap1\n      0x20\n      add\n      dup1\n      dup4\n      gt\n      tag_137\n      jumpi\n      dup3\n      swap1\n      sub\n      0x1f\n      and\n      dup3\n      add\n      swap2\n    tag_135:\n      pop\n      pop\n      pop\n      pop\n      pop\n      dup2\n      mstore\n      0x20\n      add\n      0x01\n      dup3\n      add\n      0x00\n      swap1\n      sload\n      swap1\n      0x0100\n      exp\n      swap1\n      div\n      0xffffffffffffffffffffffffffffffffffffffff\n      and\n      0xffffffffffffffffffffffffffffffffffffffff\n      and\n      0xffffffffffffffffffffffffffffffffffffffff\n      and\n      dup2\n      mstore\n      pop\n      pop\n        /* \"LibraryStorage/LibraryStorage.sol\":1629:1643  availableBooks */\n      dup4\n        /* \"LibraryStorage/LibraryStorage.sol\":1644:1649  index */\n      dup4\n        /* \"LibraryStorage/LibraryStorage.sol\":1629:1650  availableBooks[index] */\n      dup2\n      mload\n      dup2\n      lt\n      tag_138\n      jumpi\n      mstore(0x00, 0x4e487b7100000000000000000000000000000000000000000000000000000000)\n      mstore(0x04, 0x32)\n      revert(0x00, 0x24)\n    tag_138:\n      0x20\n      mul\n      0x20\n      add\n      add\n        /* \"LibraryStorage/LibraryStorage.sol\":1629:1661  availableBooks[index] = books[i] */\n      dup2\n      swap1\n      mstore\n      pop\n        /* \"LibraryStorage/LibraryStorage.sol\":1680:1687  index++ */\n      dup2\n      dup1\n      tag_139\n      swap1\n      tag_48\n      jump\t// in\n    tag_139:\n      swap3\n      pop\n      pop\n        /* \"LibraryStorage/LibraryStorage.sol\":1576:1703  if (books[i].owner == address(0)) {\r... */\n    tag_130:\n        /* \"LibraryStorage/LibraryStorage.sol\":1556:1559  i++ */\n      dup1\n      dup1\n      tag_140\n      swap1\n      tag_48\n      jump\t// in\n    tag_140:\n      swap2\n      pop\n      pop\n        /* \"LibraryStorage/LibraryStorage.sol\":1521:1714  for (uint i = 0; i < books.length; i++) {\r... */\n      jump(tag_125)\n    tag_126:\n      pop\n        /* \"LibraryStorage/LibraryStorage.sol\":1733:1747  availableBooks */\n      dup2\n        /* \"LibraryStorage/LibraryStorage.sol\":1726:1747  return availableBooks */\n      swap4\n      pop\n      pop\n      pop\n      pop\n        /* \"LibraryStorage/LibraryStorage.sol\":1181:1755  function getAvailableBook() external view returns (Book[] memory) {\r... */\n      swap1\n      jump\t// out\n    tag_54:\n      mload(0x40)\n      dup1\n      0x40\n      add\n      0x40\n      mstore\n      dup1\n      0x60\n      dup2\n      mstore\n      0x20\n      add\n      and(0xffffffffffffffffffffffffffffffffffffffff, 0x00)\n      dup2\n      mstore\n      pop\n      swap1\n      jump\t// out\n    tag_72:\n      dup3\n      dup1\n      sload\n      tag_141\n      swap1\n      tag_61\n      jump\t// in\n    tag_141:\n      swap1\n      0x00\n      mstore\n      keccak256(0x00, 0x20)\n      swap1\n      0x1f\n      add\n      0x20\n      swap1\n      div\n      dup2\n      add\n      swap3\n      dup3\n      tag_143\n      jumpi\n      0x00\n      dup6\n      sstore\n      jump(tag_142)\n    tag_143:\n      dup3\n      0x1f\n      lt\n      tag_144\n      jumpi\n      dup1\n      mload\n      not(0xff)\n      and\n      dup4\n      dup1\n      add\n      or\n      dup6\n      sstore\n      jump(tag_142)\n    tag_144:\n      dup3\n      dup1\n      add\n      0x01\n      add\n      dup6\n      sstore\n      dup3\n      iszero\n      tag_142\n      jumpi\n      swap2\n      dup3\n      add\n    tag_145:\n      dup3\n      dup2\n      gt\n      iszero\n      tag_146\n      jumpi\n      dup3\n      mload\n      dup3\n      sstore\n      swap2\n      0x20\n      add\n      swap2\n      swap1\n      0x01\n      add\n      swap1\n      jump(tag_145)\n    tag_146:\n    tag_142:\n      pop\n      swap1\n      pop\n      tag_147\n      swap2\n      swap1\n      tag_148\n      jump\t// in\n    tag_147:\n      pop\n      swap1\n      jump\t// out\n    tag_148:\n    tag_149:\n      dup1\n      dup3\n      gt\n      iszero\n      tag_150\n      jumpi\n      0x00\n      dup2\n      0x00\n      swap1\n      sstore\n      pop\n      0x01\n      add\n      jump(tag_149)\n    tag_150:\n      pop\n      swap1\n      jump\t// out\n        /* \"#utility.yul\":7:351   */\n    tag_152:\n      0x00\n        /* \"#utility.yul\":110:175   */\n      tag_154\n        /* \"#utility.yul\":125:174   */\n      tag_155\n        /* \"#utility.yul\":167:173   */\n      dup5\n        /* \"#utility.yul\":125:174   */\n      tag_156\n      jump\t// in\n    tag_155:\n        /* \"#utility.yul\":110:175   */\n      tag_157\n      jump\t// in\n    tag_154:\n        /* \"#utility.yul\":101:175   */\n      swap1\n      pop\n        /* \"#utility.yul\":198:204   */\n      dup3\n        /* \"#utility.yul\":191:196   */\n      dup2\n        /* \"#utility.yul\":184:205   */\n      mstore\n        /* \"#utility.yul\":236:240   */\n      0x20\n        /* \"#utility.yul\":229:234   */\n      dup2\n        /* \"#utility.yul\":225:241   */\n      add\n        /* \"#utility.yul\":274:277   */\n      dup5\n        /* \"#utility.yul\":265:271   */\n      dup5\n        /* \"#utility.yul\":260:263   */\n      dup5\n        /* \"#utility.yul\":256:272   */\n      add\n        /* \"#utility.yul\":253:278   */\n      gt\n        /* \"#utility.yul\":250:252   */\n      iszero\n      tag_158\n      jumpi\n        /* \"#utility.yul\":291:292   */\n      0x00\n        /* \"#utility.yul\":288:289   */\n      dup1\n        /* \"#utility.yul\":281:293   */\n      revert\n        /* \"#utility.yul\":250:252   */\n    tag_158:\n        /* \"#utility.yul\":304:345   */\n      tag_159\n        /* \"#utility.yul\":338:344   */\n      dup5\n        /* \"#utility.yul\":333:336   */\n      dup3\n        /* \"#utility.yul\":328:331   */\n      dup6\n        /* \"#utility.yul\":304:345   */\n      tag_160\n      jump\t// in\n    tag_159:\n        /* \"#utility.yul\":91:351   */\n      pop\n      swap4\n      swap3\n      pop\n      pop\n      pop\n      jump\t// out\n        /* \"#utility.yul\":357:496   */\n    tag_161:\n      0x00\n        /* \"#utility.yul\":441:447   */\n      dup2\n        /* \"#utility.yul\":428:448   */\n      calldataload\n        /* \"#utility.yul\":419:448   */\n      swap1\n      pop\n        /* \"#utility.yul\":457:490   */\n      tag_163\n        /* \"#utility.yul\":484:489   */\n      dup2\n        /* \"#utility.yul\":457:490   */\n      tag_164\n      jump\t// in\n    tag_163:\n        /* \"#utility.yul\":409:496   */\n      swap3\n      swap2\n      pop\n      pop\n      jump\t// out\n        /* \"#utility.yul\":516:789   */\n    tag_165:\n      0x00\n        /* \"#utility.yul\":621:624   */\n      dup3\n        /* \"#utility.yul\":614:618   */\n      0x1f\n        /* \"#utility.yul\":606:612   */\n      dup4\n        /* \"#utility.yul\":602:619   */\n      add\n        /* \"#utility.yul\":598:625   */\n      slt\n        /* \"#utility.yul\":588:590   */\n      tag_167\n      jumpi\n        /* \"#utility.yul\":639:640   */\n      0x00\n        /* \"#utility.yul\":636:637   */\n      dup1\n        /* \"#utility.yul\":629:641   */\n      revert\n        /* \"#utility.yul\":588:590   */\n    tag_167:\n        /* \"#utility.yul\":679:685   */\n      dup2\n        /* \"#utility.yul\":666:686   */\n      calldataload\n        /* \"#utility.yul\":704:783   */\n      tag_168\n        /* \"#utility.yul\":779:782   */\n      dup5\n        /* \"#utility.yul\":771:777   */\n      dup3\n        /* \"#utility.yul\":764:768   */\n      0x20\n        /* \"#utility.yul\":756:762   */\n      dup7\n        /* \"#utility.yul\":752:769   */\n      add\n        /* \"#utility.yul\":704:783   */\n      tag_152\n      jump\t// in\n    tag_168:\n        /* \"#utility.yul\":695:783   */\n      swap2\n      pop\n        /* \"#utility.yul\":578:789   */\n      pop\n      swap3\n      swap2\n      pop\n      pop\n      jump\t// out\n        /* \"#utility.yul\":795:934   */\n    tag_169:\n      0x00\n        /* \"#utility.yul\":879:885   */\n      dup2\n        /* \"#utility.yul\":866:886   */\n      calldataload\n        /* \"#utility.yul\":857:886   */\n      swap1\n      pop\n        /* \"#utility.yul\":895:928   */\n      tag_171\n        /* \"#utility.yul\":922:927   */\n      dup2\n        /* \"#utility.yul\":895:928   */\n      tag_172\n      jump\t// in\n    tag_171:\n        /* \"#utility.yul\":847:934   */\n      swap3\n      swap2\n      pop\n      pop\n      jump\t// out\n        /* \"#utility.yul\":940:1202   */\n    tag_13:\n      0x00\n        /* \"#utility.yul\":1048:1050   */\n      0x20\n        /* \"#utility.yul\":1036:1045   */\n      dup3\n        /* \"#utility.yul\":1027:1034   */\n      dup5\n        /* \"#utility.yul\":1023:1046   */\n      sub\n        /* \"#utility.yul\":1019:1051   */\n      slt\n        /* \"#utility.yul\":1016:1018   */\n      iszero\n      tag_174\n      jumpi\n        /* \"#utility.yul\":1064:1065   */\n      0x00\n        /* \"#utility.yul\":1061:1062   */\n      dup1\n        /* \"#utility.yul\":1054:1066   */\n      revert\n        /* \"#utility.yul\":1016:1018   */\n    tag_174:\n        /* \"#utility.yul\":1107:1108   */\n      0x00\n        /* \"#utility.yul\":1132:1185   */\n      tag_175\n        /* \"#utility.yul\":1177:1184   */\n      dup5\n        /* \"#utility.yul\":1168:1174   */\n      dup3\n        /* \"#utility.yul\":1157:1166   */\n      dup6\n        /* \"#utility.yul\":1153:1175   */\n      add\n        /* \"#utility.yul\":1132:1185   */\n      tag_161\n      jump\t// in\n    tag_175:\n        /* \"#utility.yul\":1122:1185   */\n      swap2\n      pop\n        /* \"#utility.yul\":1078:1195   */\n      pop\n        /* \"#utility.yul\":1006:1202   */\n      swap3\n      swap2\n      pop\n      pop\n      jump\t// out\n        /* \"#utility.yul\":1208:1583   */\n    tag_23:\n      0x00\n        /* \"#utility.yul\":1326:1328   */\n      0x20\n        /* \"#utility.yul\":1314:1323   */\n      dup3\n        /* \"#utility.yul\":1305:1312   */\n      dup5\n        /* \"#utility.yul\":1301:1324   */\n      sub\n        /* \"#utility.yul\":1297:1329   */\n      slt\n        /* \"#utility.yul\":1294:1296   */\n      iszero\n      tag_177\n      jumpi\n        /* \"#utility.yul\":1342:1343   */\n      0x00\n        /* \"#utility.yul\":1339:1340   */\n      dup1\n        /* \"#utility.yul\":1332:1344   */\n      revert\n        /* \"#utility.yul\":1294:1296   */\n    tag_177:\n        /* \"#utility.yul\":1413:1414   */\n      0x00\n        /* \"#utility.yul\":1402:1411   */\n      dup3\n        /* \"#utility.yul\":1398:1415   */\n      add\n        /* \"#utility.yul\":1385:1416   */\n      calldataload\n        /* \"#utility.yul\":1443:1461   */\n      0xffffffffffffffff\n        /* \"#utility.yul\":1435:1441   */\n      dup2\n        /* \"#utility.yul\":1432:1462   */\n      gt\n        /* \"#utility.yul\":1429:1431   */\n      iszero\n      tag_178\n      jumpi\n        /* \"#utility.yul\":1475:1476   */\n      0x00\n        /* \"#utility.yul\":1472:1473   */\n      dup1\n        /* \"#utility.yul\":1465:1477   */\n      revert\n        /* \"#utility.yul\":1429:1431   */\n    tag_178:\n        /* \"#utility.yul\":1503:1566   */\n      tag_179\n        /* \"#utility.yul\":1558:1565   */\n      dup5\n        /* \"#utility.yul\":1549:1555   */\n      dup3\n        /* \"#utility.yul\":1538:1547   */\n      dup6\n        /* \"#utility.yul\":1534:1556   */\n      add\n        /* \"#utility.yul\":1503:1566   */\n      tag_165\n      jump\t// in\n    tag_179:\n        /* \"#utility.yul\":1493:1566   */\n      swap2\n      pop\n        /* \"#utility.yul\":1356:1576   */\n      pop\n        /* \"#utility.yul\":1284:1583   */\n      swap3\n      swap2\n      pop\n      pop\n      jump\t// out\n        /* \"#utility.yul\":1589:1851   */\n    tag_27:\n      0x00\n        /* \"#utility.yul\":1697:1699   */\n      0x20\n        /* \"#utility.yul\":1685:1694   */\n      dup3\n        /* \"#utility.yul\":1676:1683   */\n      dup5\n        /* \"#utility.yul\":1672:1695   */\n      sub\n        /* \"#utility.yul\":1668:1700   */\n      slt\n        /* \"#utility.yul\":1665:1667   */\n      iszero\n      tag_181\n      jumpi\n        /* \"#utility.yul\":1713:1714   */\n      0x00\n        /* \"#utility.yul\":1710:1711   */\n      dup1\n        /* \"#utility.yul\":1703:1715   */\n      revert\n        /* \"#utility.yul\":1665:1667   */\n    tag_181:\n        /* \"#utility.yul\":1756:1757   */\n      0x00\n        /* \"#utility.yul\":1781:1834   */\n      tag_182\n        /* \"#utility.yul\":1826:1833   */\n      dup5\n        /* \"#utility.yul\":1817:1823   */\n      dup3\n        /* \"#utility.yul\":1806:1815   */\n      dup6\n        /* \"#utility.yul\":1802:1824   */\n      add\n        /* \"#utility.yul\":1781:1834   */\n      tag_169\n      jump\t// in\n    tag_182:\n        /* \"#utility.yul\":1771:1834   */\n      swap2\n      pop\n        /* \"#utility.yul\":1727:1844   */\n      pop\n        /* \"#utility.yul\":1655:1851   */\n      swap3\n      swap2\n      pop\n      pop\n      jump\t// out\n        /* \"#utility.yul\":1857:2093   */\n    tag_183:\n      0x00\n        /* \"#utility.yul\":2001:2087   */\n      tag_185\n        /* \"#utility.yul\":2083:2086   */\n      dup4\n        /* \"#utility.yul\":2075:2081   */\n      dup4\n        /* \"#utility.yul\":2001:2087   */\n      tag_186\n      jump\t// in\n    tag_185:\n        /* \"#utility.yul\":1987:2087   */\n      swap1\n      pop\n        /* \"#utility.yul\":1977:2093   */\n      swap3\n      swap2\n      pop\n      pop\n      jump\t// out\n        /* \"#utility.yul\":2099:2207   */\n    tag_187:\n        /* \"#utility.yul\":2176:2200   */\n      tag_189\n        /* \"#utility.yul\":2194:2199   */\n      dup2\n        /* \"#utility.yul\":2176:2200   */\n      tag_190\n      jump\t// in\n    tag_189:\n        /* \"#utility.yul\":2171:2174   */\n      dup3\n        /* \"#utility.yul\":2164:2201   */\n      mstore\n        /* \"#utility.yul\":2154:2207   */\n      pop\n      pop\n      jump\t// out\n        /* \"#utility.yul\":2213:2331   */\n    tag_191:\n        /* \"#utility.yul\":2300:2324   */\n      tag_193\n        /* \"#utility.yul\":2318:2323   */\n      dup2\n        /* \"#utility.yul\":2300:2324   */\n      tag_190\n      jump\t// in\n    tag_193:\n        /* \"#utility.yul\":2295:2298   */\n      dup3\n        /* \"#utility.yul\":2288:2325   */\n      mstore\n        /* \"#utility.yul\":2278:2331   */\n      pop\n      pop\n      jump\t// out\n        /* \"#utility.yul\":2405:3476   */\n    tag_194:\n      0x00\n        /* \"#utility.yul\":2593:2667   */\n      tag_196\n        /* \"#utility.yul\":2661:2666   */\n      dup3\n        /* \"#utility.yul\":2593:2667   */\n      tag_197\n      jump\t// in\n    tag_196:\n        /* \"#utility.yul\":2683:2789   */\n      tag_198\n        /* \"#utility.yul\":2782:2788   */\n      dup2\n        /* \"#utility.yul\":2777:2780   */\n      dup6\n        /* \"#utility.yul\":2683:2789   */\n      tag_199\n      jump\t// in\n    tag_198:\n        /* \"#utility.yul\":2676:2789   */\n      swap4\n      pop\n        /* \"#utility.yul\":2815:2818   */\n      dup4\n        /* \"#utility.yul\":2860:2864   */\n      0x20\n        /* \"#utility.yul\":2852:2858   */\n      dup3\n        /* \"#utility.yul\":2848:2865   */\n      mul\n        /* \"#utility.yul\":2843:2846   */\n      dup6\n        /* \"#utility.yul\":2839:2866   */\n      add\n        /* \"#utility.yul\":2890:2966   */\n      tag_200\n        /* \"#utility.yul\":2960:2965   */\n      dup6\n        /* \"#utility.yul\":2890:2966   */\n      tag_201\n      jump\t// in\n    tag_200:\n        /* \"#utility.yul\":2989:2996   */\n      dup1\n        /* \"#utility.yul\":3020:3021   */\n      0x00\n        /* \"#utility.yul\":3005:3431   */\n    tag_202:\n        /* \"#utility.yul\":3030:3036   */\n      dup6\n        /* \"#utility.yul\":3027:3028   */\n      dup2\n        /* \"#utility.yul\":3024:3037   */\n      lt\n        /* \"#utility.yul\":3005:3431   */\n      iszero\n      tag_204\n      jumpi\n        /* \"#utility.yul\":3101:3110   */\n      dup5\n        /* \"#utility.yul\":3095:3099   */\n      dup5\n        /* \"#utility.yul\":3091:3111   */\n      sub\n        /* \"#utility.yul\":3086:3089   */\n      dup10\n        /* \"#utility.yul\":3079:3112   */\n      mstore\n        /* \"#utility.yul\":3152:3158   */\n      dup2\n        /* \"#utility.yul\":3146:3159   */\n      mload\n        /* \"#utility.yul\":3180:3284   */\n      tag_205\n        /* \"#utility.yul\":3279:3283   */\n      dup6\n        /* \"#utility.yul\":3264:3277   */\n      dup3\n        /* \"#utility.yul\":3180:3284   */\n      tag_183\n      jump\t// in\n    tag_205:\n        /* \"#utility.yul\":3172:3284   */\n      swap5\n      pop\n        /* \"#utility.yul\":3307:3387   */\n      tag_206\n        /* \"#utility.yul\":3380:3386   */\n      dup4\n        /* \"#utility.yul\":3307:3387   */\n      tag_207\n      jump\t// in\n    tag_206:\n        /* \"#utility.yul\":3297:3387   */\n      swap3\n      pop\n        /* \"#utility.yul\":3416:3420   */\n      0x20\n        /* \"#utility.yul\":3411:3414   */\n      dup11\n        /* \"#utility.yul\":3407:3421   */\n      add\n        /* \"#utility.yul\":3400:3421   */\n      swap10\n      pop\n        /* \"#utility.yul\":3065:3431   */\n      pop\n        /* \"#utility.yul\":3052:3053   */\n      0x01\n        /* \"#utility.yul\":3049:3050   */\n      dup2\n        /* \"#utility.yul\":3045:3054   */\n      add\n        /* \"#utility.yul\":3040:3054   */\n      swap1\n      pop\n        /* \"#utility.yul\":3005:3431   */\n      jump(tag_202)\n    tag_204:\n        /* \"#utility.yul\":3009:3023   */\n      pop\n        /* \"#utility.yul\":3447:3451   */\n      dup3\n        /* \"#utility.yul\":3440:3451   */\n      swap8\n      pop\n        /* \"#utility.yul\":3467:3470   */\n      dup8\n        /* \"#utility.yul\":3460:3470   */\n      swap6\n      pop\n        /* \"#utility.yul\":2569:3476   */\n      pop\n      pop\n      pop\n      pop\n      pop\n      swap3\n      swap2\n      pop\n      pop\n      jump\t// out\n        /* \"#utility.yul\":3482:3826   */\n    tag_208:\n      0x00\n        /* \"#utility.yul\":3588:3627   */\n      tag_210\n        /* \"#utility.yul\":3621:3626   */\n      dup3\n        /* \"#utility.yul\":3588:3627   */\n      tag_211\n      jump\t// in\n    tag_210:\n        /* \"#utility.yul\":3643:3704   */\n      tag_212\n        /* \"#utility.yul\":3697:3703   */\n      dup2\n        /* \"#utility.yul\":3692:3695   */\n      dup6\n        /* \"#utility.yul\":3643:3704   */\n      tag_213\n      jump\t// in\n    tag_212:\n        /* \"#utility.yul\":3636:3704   */\n      swap4\n      pop\n        /* \"#utility.yul\":3713:3765   */\n      tag_214\n        /* \"#utility.yul\":3758:3764   */\n      dup2\n        /* \"#utility.yul\":3753:3756   */\n      dup6\n        /* \"#utility.yul\":3746:3750   */\n      0x20\n        /* \"#utility.yul\":3739:3744   */\n      dup7\n        /* \"#utility.yul\":3735:3751   */\n      add\n        /* \"#utility.yul\":3713:3765   */\n      tag_215\n      jump\t// in\n    tag_214:\n        /* \"#utility.yul\":3790:3819   */\n      tag_216\n        /* \"#utility.yul\":3812:3818   */\n      dup2\n        /* \"#utility.yul\":3790:3819   */\n      tag_217\n      jump\t// in\n    tag_216:\n        /* \"#utility.yul\":3785:3788   */\n      dup5\n        /* \"#utility.yul\":3781:3820   */\n      add\n        /* \"#utility.yul\":3774:3820   */\n      swap2\n      pop\n        /* \"#utility.yul\":3564:3826   */\n      pop\n      swap3\n      swap2\n      pop\n      pop\n      jump\t// out\n        /* \"#utility.yul\":3832:4196   */\n    tag_218:\n      0x00\n        /* \"#utility.yul\":3948:3987   */\n      tag_220\n        /* \"#utility.yul\":3981:3986   */\n      dup3\n        /* \"#utility.yul\":3948:3987   */\n      tag_211\n      jump\t// in\n    tag_220:\n        /* \"#utility.yul\":4003:4074   */\n      tag_221\n        /* \"#utility.yul\":4067:4073   */\n      dup2\n        /* \"#utility.yul\":4062:4065   */\n      dup6\n        /* \"#utility.yul\":4003:4074   */\n      tag_222\n      jump\t// in\n    tag_221:\n        /* \"#utility.yul\":3996:4074   */\n      swap4\n      pop\n        /* \"#utility.yul\":4083:4135   */\n      tag_223\n        /* \"#utility.yul\":4128:4134   */\n      dup2\n        /* \"#utility.yul\":4123:4126   */\n      dup6\n        /* \"#utility.yul\":4116:4120   */\n      0x20\n        /* \"#utility.yul\":4109:4114   */\n      dup7\n        /* \"#utility.yul\":4105:4121   */\n      add\n        /* \"#utility.yul\":4083:4135   */\n      tag_215\n      jump\t// in\n    tag_223:\n        /* \"#utility.yul\":4160:4189   */\n      tag_224\n        /* \"#utility.yul\":4182:4188   */\n      dup2\n        /* \"#utility.yul\":4160:4189   */\n      tag_217\n      jump\t// in\n    tag_224:\n        /* \"#utility.yul\":4155:4158   */\n      dup5\n        /* \"#utility.yul\":4151:4190   */\n      add\n        /* \"#utility.yul\":4144:4190   */\n      swap2\n      pop\n        /* \"#utility.yul\":3924:4196   */\n      pop\n      swap3\n      swap2\n      pop\n      pop\n      jump\t// out\n        /* \"#utility.yul\":4202:4579   */\n    tag_225:\n      0x00\n        /* \"#utility.yul\":4336:4375   */\n      tag_227\n        /* \"#utility.yul\":4369:4374   */\n      dup3\n        /* \"#utility.yul\":4336:4375   */\n      tag_211\n      jump\t// in\n    tag_227:\n        /* \"#utility.yul\":4391:4480   */\n      tag_228\n        /* \"#utility.yul\":4473:4479   */\n      dup2\n        /* \"#utility.yul\":4468:4471   */\n      dup6\n        /* \"#utility.yul\":4391:4480   */\n      tag_229\n      jump\t// in\n    tag_228:\n        /* \"#utility.yul\":4384:4480   */\n      swap4\n      pop\n        /* \"#utility.yul\":4489:4541   */\n      tag_230\n        /* \"#utility.yul\":4534:4540   */\n      dup2\n        /* \"#utility.yul\":4529:4532   */\n      dup6\n        /* \"#utility.yul\":4522:4526   */\n      0x20\n        /* \"#utility.yul\":4515:4520   */\n      dup7\n        /* \"#utility.yul\":4511:4527   */\n      add\n        /* \"#utility.yul\":4489:4541   */\n      tag_215\n      jump\t// in\n    tag_230:\n        /* \"#utility.yul\":4566:4572   */\n      dup1\n        /* \"#utility.yul\":4561:4564   */\n      dup5\n        /* \"#utility.yul\":4557:4573   */\n      add\n        /* \"#utility.yul\":4550:4573   */\n      swap2\n      pop\n        /* \"#utility.yul\":4312:4579   */\n      pop\n      swap3\n      swap2\n      pop\n      pop\n      jump\t// out\n        /* \"#utility.yul\":4609:5454   */\n    tag_231:\n      0x00\n        /* \"#utility.yul\":4749:4754   */\n      dup2\n        /* \"#utility.yul\":4743:4755   */\n      sload\n        /* \"#utility.yul\":4778:4814   */\n      tag_233\n        /* \"#utility.yul\":4804:4813   */\n      dup2\n        /* \"#utility.yul\":4778:4814   */\n      tag_61\n      jump\t// in\n    tag_233:\n        /* \"#utility.yul\":4830:4919   */\n      tag_234\n        /* \"#utility.yul\":4912:4918   */\n      dup2\n        /* \"#utility.yul\":4907:4910   */\n      dup7\n        /* \"#utility.yul\":4830:4919   */\n      tag_229\n      jump\t// in\n    tag_234:\n        /* \"#utility.yul\":4823:4919   */\n      swap5\n      pop\n        /* \"#utility.yul\":4950:4951   */\n      0x01\n        /* \"#utility.yul\":4939:4948   */\n      dup3\n        /* \"#utility.yul\":4935:4952   */\n      and\n        /* \"#utility.yul\":4966:4967   */\n      0x00\n        /* \"#utility.yul\":4961:5098   */\n      dup2\n      eq\n      tag_236\n      jumpi\n        /* \"#utility.yul\":5112:5113   */\n      0x01\n        /* \"#utility.yul\":5107:5448   */\n      dup2\n      eq\n      tag_237\n      jumpi\n        /* \"#utility.yul\":4928:5448   */\n      jump(tag_235)\n        /* \"#utility.yul\":4961:5098   */\n    tag_236:\n        /* \"#utility.yul\":5045:5049   */\n      0xff\n        /* \"#utility.yul\":5041:5050   */\n      not\n        /* \"#utility.yul\":5030:5039   */\n      dup4\n        /* \"#utility.yul\":5026:5051   */\n      and\n        /* \"#utility.yul\":5021:5024   */\n      dup7\n        /* \"#utility.yul\":5014:5052   */\n      mstore\n        /* \"#utility.yul\":5081:5087   */\n      dup2\n        /* \"#utility.yul\":5076:5079   */\n      dup7\n        /* \"#utility.yul\":5072:5088   */\n      add\n        /* \"#utility.yul\":5065:5088   */\n      swap4\n      pop\n        /* \"#utility.yul\":4961:5098   */\n      jump(tag_235)\n        /* \"#utility.yul\":5107:5448   */\n    tag_237:\n        /* \"#utility.yul\":5174:5212   */\n      tag_238\n        /* \"#utility.yul\":5206:5211   */\n      dup6\n        /* \"#utility.yul\":5174:5212   */\n      tag_239\n      jump\t// in\n    tag_238:\n        /* \"#utility.yul\":5234:5235   */\n      0x00\n        /* \"#utility.yul\":5248:5402   */\n    tag_240:\n        /* \"#utility.yul\":5262:5268   */\n      dup4\n        /* \"#utility.yul\":5259:5260   */\n      dup2\n        /* \"#utility.yul\":5256:5269   */\n      lt\n        /* \"#utility.yul\":5248:5402   */\n      iszero\n      tag_242\n      jumpi\n        /* \"#utility.yul\":5336:5343   */\n      dup2\n        /* \"#utility.yul\":5330:5344   */\n      sload\n        /* \"#utility.yul\":5326:5327   */\n      dup2\n        /* \"#utility.yul\":5321:5324   */\n      dup10\n        /* \"#utility.yul\":5317:5328   */\n      add\n        /* \"#utility.yul\":5310:5345   */\n      mstore\n        /* \"#utility.yul\":5386:5387   */\n      0x01\n        /* \"#utility.yul\":5377:5384   */\n      dup3\n        /* \"#utility.yul\":5373:5388   */\n      add\n        /* \"#utility.yul\":5362:5388   */\n      swap2\n      pop\n        /* \"#utility.yul\":5284:5288   */\n      0x20\n        /* \"#utility.yul\":5281:5282   */\n      dup2\n        /* \"#utility.yul\":5277:5289   */\n      add\n        /* \"#utility.yul\":5272:5289   */\n      swap1\n      pop\n        /* \"#utility.yul\":5248:5402   */\n      jump(tag_240)\n    tag_242:\n        /* \"#utility.yul\":5431:5437   */\n      dup4\n        /* \"#utility.yul\":5426:5429   */\n      dup9\n        /* \"#utility.yul\":5422:5438   */\n      add\n        /* \"#utility.yul\":5415:5438   */\n      swap6\n      pop\n        /* \"#utility.yul\":5114:5448   */\n      pop\n      pop\n        /* \"#utility.yul\":4928:5448   */\n    tag_235:\n      pop\n        /* \"#utility.yul\":4716:5454   */\n      pop\n      pop\n      swap3\n      swap2\n      pop\n      pop\n      jump\t// out\n        /* \"#utility.yul\":5460:5780   */\n    tag_243:\n      0x00\n        /* \"#utility.yul\":5623:5690   */\n      tag_245\n        /* \"#utility.yul\":5687:5689   */\n      0x16\n        /* \"#utility.yul\":5682:5685   */\n      dup4\n        /* \"#utility.yul\":5623:5690   */\n      tag_222\n      jump\t// in\n    tag_245:\n        /* \"#utility.yul\":5616:5690   */\n      swap2\n      pop\n        /* \"#utility.yul\":5720:5744   */\n      0x4f6e6c79206f776e65722063616e2072657475726e2100000000000000000000\n        /* \"#utility.yul\":5716:5717   */\n      0x00\n        /* \"#utility.yul\":5711:5714   */\n      dup4\n        /* \"#utility.yul\":5707:5718   */\n      add\n        /* \"#utility.yul\":5700:5745   */\n      mstore\n        /* \"#utility.yul\":5771:5773   */\n      0x20\n        /* \"#utility.yul\":5766:5769   */\n      dup3\n        /* \"#utility.yul\":5762:5774   */\n      add\n        /* \"#utility.yul\":5755:5774   */\n      swap1\n      pop\n        /* \"#utility.yul\":5606:5780   */\n      swap2\n      swap1\n      pop\n      jump\t// out\n        /* \"#utility.yul\":5786:6103   */\n    tag_246:\n      0x00\n        /* \"#utility.yul\":5949:6016   */\n      tag_248\n        /* \"#utility.yul\":6013:6015   */\n      0x13\n        /* \"#utility.yul\":6008:6011   */\n      dup4\n        /* \"#utility.yul\":5949:6016   */\n      tag_222\n      jump\t// in\n    tag_248:\n        /* \"#utility.yul\":5942:6016   */\n      swap2\n      pop\n        /* \"#utility.yul\":6046:6067   */\n      0x426f6f6b20616c72656164792074616b656e2100000000000000000000000000\n        /* \"#utility.yul\":6042:6043   */\n      0x00\n        /* \"#utility.yul\":6037:6040   */\n      dup4\n        /* \"#utility.yul\":6033:6044   */\n      add\n        /* \"#utility.yul\":6026:6068   */\n      mstore\n        /* \"#utility.yul\":6094:6096   */\n      0x20\n        /* \"#utility.yul\":6089:6092   */\n      dup3\n        /* \"#utility.yul\":6085:6097   */\n      add\n        /* \"#utility.yul\":6078:6097   */\n      swap1\n      pop\n        /* \"#utility.yul\":5932:6103   */\n      swap2\n      swap1\n      pop\n      jump\t// out\n        /* \"#utility.yul\":6109:6433   */\n    tag_249:\n      0x00\n        /* \"#utility.yul\":6272:6339   */\n      tag_251\n        /* \"#utility.yul\":6336:6338   */\n      0x1a\n        /* \"#utility.yul\":6331:6334   */\n      dup4\n        /* \"#utility.yul\":6272:6339   */\n      tag_222\n      jump\t// in\n    tag_251:\n        /* \"#utility.yul\":6265:6339   */\n      swap2\n      pop\n        /* \"#utility.yul\":6369:6397   */\n      0x5527766520616c72656164792074616b656e206120626f6f6b21000000000000\n        /* \"#utility.yul\":6365:6366   */\n      0x00\n        /* \"#utility.yul\":6360:6363   */\n      dup4\n        /* \"#utility.yul\":6356:6367   */\n      add\n        /* \"#utility.yul\":6349:6398   */\n      mstore\n        /* \"#utility.yul\":6424:6426   */\n      0x20\n        /* \"#utility.yul\":6419:6422   */\n      dup3\n        /* \"#utility.yul\":6415:6427   */\n      add\n        /* \"#utility.yul\":6408:6427   */\n      swap1\n      pop\n        /* \"#utility.yul\":6255:6433   */\n      swap2\n      swap1\n      pop\n      jump\t// out\n        /* \"#utility.yul\":6439:6744   */\n    tag_252:\n      0x00\n        /* \"#utility.yul\":6602:6668   */\n      tag_254\n        /* \"#utility.yul\":6666:6667   */\n      0x08\n        /* \"#utility.yul\":6661:6664   */\n      dup4\n        /* \"#utility.yul\":6602:6668   */\n      tag_222\n      jump\t// in\n    tag_254:\n        /* \"#utility.yul\":6595:6668   */\n      swap2\n      pop\n        /* \"#utility.yul\":6698:6708   */\n      0x57726f6e67204944000000000000000000000000000000000000000000000000\n        /* \"#utility.yul\":6694:6695   */\n      0x00\n        /* \"#utility.yul\":6689:6692   */\n      dup4\n        /* \"#utility.yul\":6685:6696   */\n      add\n        /* \"#utility.yul\":6678:6709   */\n      mstore\n        /* \"#utility.yul\":6735:6737   */\n      0x20\n        /* \"#utility.yul\":6730:6733   */\n      dup3\n        /* \"#utility.yul\":6726:6738   */\n      add\n        /* \"#utility.yul\":6719:6738   */\n      swap1\n      pop\n        /* \"#utility.yul\":6585:6744   */\n      swap2\n      swap1\n      pop\n      jump\t// out\n        /* \"#utility.yul\":6814:7405   */\n    tag_186:\n      0x00\n        /* \"#utility.yul\":6949:6953   */\n      0x40\n        /* \"#utility.yul\":6944:6947   */\n      dup4\n        /* \"#utility.yul\":6940:6954   */\n      add\n        /* \"#utility.yul\":7040:7044   */\n      0x00\n        /* \"#utility.yul\":7033:7038   */\n      dup4\n        /* \"#utility.yul\":7029:7045   */\n      add\n        /* \"#utility.yul\":7023:7046   */\n      mload\n        /* \"#utility.yul\":7093:7096   */\n      dup5\n        /* \"#utility.yul\":7087:7091   */\n      dup3\n        /* \"#utility.yul\":7083:7097   */\n      sub\n        /* \"#utility.yul\":7076:7080   */\n      0x00\n        /* \"#utility.yul\":7071:7074   */\n      dup7\n        /* \"#utility.yul\":7067:7081   */\n      add\n        /* \"#utility.yul\":7060:7098   */\n      mstore\n        /* \"#utility.yul\":7119:7192   */\n      tag_256\n        /* \"#utility.yul\":7187:7191   */\n      dup3\n        /* \"#utility.yul\":7173:7185   */\n      dup3\n        /* \"#utility.yul\":7119:7192   */\n      tag_208\n      jump\t// in\n    tag_256:\n        /* \"#utility.yul\":7111:7192   */\n      swap2\n      pop\n        /* \"#utility.yul\":6964:7203   */\n      pop\n        /* \"#utility.yul\":7286:7290   */\n      0x20\n        /* \"#utility.yul\":7279:7284   */\n      dup4\n        /* \"#utility.yul\":7275:7291   */\n      add\n        /* \"#utility.yul\":7269:7292   */\n      mload\n        /* \"#utility.yul\":7305:7368   */\n      tag_257\n        /* \"#utility.yul\":7362:7366   */\n      0x20\n        /* \"#utility.yul\":7357:7360   */\n      dup7\n        /* \"#utility.yul\":7353:7367   */\n      add\n        /* \"#utility.yul\":7339:7351   */\n      dup3\n        /* \"#utility.yul\":7305:7368   */\n      tag_187\n      jump\t// in\n    tag_257:\n        /* \"#utility.yul\":7213:7378   */\n      pop\n        /* \"#utility.yul\":7395:7399   */\n      dup1\n        /* \"#utility.yul\":7388:7399   */\n      swap2\n      pop\n        /* \"#utility.yul\":6918:7405   */\n      pop\n      swap3\n      swap2\n      pop\n      pop\n      jump\t// out\n        /* \"#utility.yul\":7411:7529   */\n    tag_258:\n        /* \"#utility.yul\":7498:7522   */\n      tag_260\n        /* \"#utility.yul\":7516:7521   */\n      dup2\n        /* \"#utility.yul\":7498:7522   */\n      tag_261\n      jump\t// in\n    tag_260:\n        /* \"#utility.yul\":7493:7496   */\n      dup3\n        /* \"#utility.yul\":7486:7523   */\n      mstore\n        /* \"#utility.yul\":7476:7529   */\n      pop\n      pop\n      jump\t// out\n        /* \"#utility.yul\":7535:7810   */\n    tag_74:\n      0x00\n        /* \"#utility.yul\":7689:7784   */\n      tag_263\n        /* \"#utility.yul\":7780:7783   */\n      dup3\n        /* \"#utility.yul\":7771:7777   */\n      dup5\n        /* \"#utility.yul\":7689:7784   */\n      tag_225\n      jump\t// in\n    tag_263:\n        /* \"#utility.yul\":7682:7784   */\n      swap2\n      pop\n        /* \"#utility.yul\":7801:7804   */\n      dup2\n        /* \"#utility.yul\":7794:7804   */\n      swap1\n      pop\n        /* \"#utility.yul\":7671:7810   */\n      swap3\n      swap2\n      pop\n      pop\n      jump\t// out\n        /* \"#utility.yul\":7816:8085   */\n    tag_101:\n      0x00\n        /* \"#utility.yul\":7967:8059   */\n      tag_265\n        /* \"#utility.yul\":8055:8058   */\n      dup3\n        /* \"#utility.yul\":8046:8052   */\n      dup5\n        /* \"#utility.yul\":7967:8059   */\n      tag_231\n      jump\t// in\n    tag_265:\n        /* \"#utility.yul\":7960:8059   */\n      swap2\n      pop\n        /* \"#utility.yul\":8076:8079   */\n      dup2\n        /* \"#utility.yul\":8069:8079   */\n      swap1\n      pop\n        /* \"#utility.yul\":7949:8085   */\n      swap3\n      swap2\n      pop\n      pop\n      jump\t// out\n        /* \"#utility.yul\":8091:8313   */\n    tag_103:\n      0x00\n        /* \"#utility.yul\":8222:8224   */\n      0x20\n        /* \"#utility.yul\":8211:8220   */\n      dup3\n        /* \"#utility.yul\":8207:8225   */\n      add\n        /* \"#utility.yul\":8199:8225   */\n      swap1\n      pop\n        /* \"#utility.yul\":8235:8306   */\n      tag_267\n        /* \"#utility.yul\":8303:8304   */\n      0x00\n        /* \"#utility.yul\":8292:8301   */\n      dup4\n        /* \"#utility.yul\":8288:8305   */\n      add\n        /* \"#utility.yul\":8279:8285   */\n      dup5\n        /* \"#utility.yul\":8235:8306   */\n      tag_191\n      jump\t// in\n    tag_267:\n        /* \"#utility.yul\":8189:8313   */\n      swap3\n      swap2\n      pop\n      pop\n      jump\t// out\n        /* \"#utility.yul\":8319:8772   */\n    tag_20:\n      0x00\n        /* \"#utility.yul\":8540:8542   */\n      0x20\n        /* \"#utility.yul\":8529:8538   */\n      dup3\n        /* \"#utility.yul\":8525:8543   */\n      add\n        /* \"#utility.yul\":8517:8543   */\n      swap1\n      pop\n        /* \"#utility.yul\":8589:8598   */\n      dup2\n        /* \"#utility.yul\":8583:8587   */\n      dup2\n        /* \"#utility.yul\":8579:8599   */\n      sub\n        /* \"#utility.yul\":8575:8576   */\n      0x00\n        /* \"#utility.yul\":8564:8573   */\n      dup4\n        /* \"#utility.yul\":8560:8577   */\n      add\n        /* \"#utility.yul\":8553:8600   */\n      mstore\n        /* \"#utility.yul\":8617:8765   */\n      tag_269\n        /* \"#utility.yul\":8760:8764   */\n      dup2\n        /* \"#utility.yul\":8751:8757   */\n      dup5\n        /* \"#utility.yul\":8617:8765   */\n      tag_194\n      jump\t// in\n    tag_269:\n        /* \"#utility.yul\":8609:8765   */\n      swap1\n      pop\n        /* \"#utility.yul\":8507:8772   */\n      swap3\n      swap2\n      pop\n      pop\n      jump\t// out\n        /* \"#utility.yul\":8778:9201   */\n    tag_30:\n      0x00\n        /* \"#utility.yul\":8957:8959   */\n      0x40\n        /* \"#utility.yul\":8946:8955   */\n      dup3\n        /* \"#utility.yul\":8942:8960   */\n      add\n        /* \"#utility.yul\":8934:8960   */\n      swap1\n      pop\n        /* \"#utility.yul\":9006:9015   */\n      dup2\n        /* \"#utility.yul\":9000:9004   */\n      dup2\n        /* \"#utility.yul\":8996:9016   */\n      sub\n        /* \"#utility.yul\":8992:8993   */\n      0x00\n        /* \"#utility.yul\":8981:8990   */\n      dup4\n        /* \"#utility.yul\":8977:8994   */\n      add\n        /* \"#utility.yul\":8970:9017   */\n      mstore\n        /* \"#utility.yul\":9034:9112   */\n      tag_271\n        /* \"#utility.yul\":9107:9111   */\n      dup2\n        /* \"#utility.yul\":9098:9104   */\n      dup6\n        /* \"#utility.yul\":9034:9112   */\n      tag_218\n      jump\t// in\n    tag_271:\n        /* \"#utility.yul\":9026:9112   */\n      swap1\n      pop\n        /* \"#utility.yul\":9122:9194   */\n      tag_272\n        /* \"#utility.yul\":9190:9192   */\n      0x20\n        /* \"#utility.yul\":9179:9188   */\n      dup4\n        /* \"#utility.yul\":9175:9193   */\n      add\n        /* \"#utility.yul\":9166:9172   */\n      dup5\n        /* \"#utility.yul\":9122:9194   */\n      tag_191\n      jump\t// in\n    tag_272:\n        /* \"#utility.yul\":8924:9201   */\n      swap4\n      swap3\n      pop\n      pop\n      pop\n      jump\t// out\n        /* \"#utility.yul\":9207:9626   */\n    tag_109:\n      0x00\n        /* \"#utility.yul\":9411:9413   */\n      0x20\n        /* \"#utility.yul\":9400:9409   */\n      dup3\n        /* \"#utility.yul\":9396:9414   */\n      add\n        /* \"#utility.yul\":9388:9414   */\n      swap1\n      pop\n        /* \"#utility.yul\":9460:9469   */\n      dup2\n        /* \"#utility.yul\":9454:9458   */\n      dup2\n        /* \"#utility.yul\":9450:9470   */\n      sub\n        /* \"#utility.yul\":9446:9447   */\n      0x00\n        /* \"#utility.yul\":9435:9444   */\n      dup4\n        /* \"#utility.yul\":9431:9448   */\n      add\n        /* \"#utility.yul\":9424:9471   */\n      mstore\n        /* \"#utility.yul\":9488:9619   */\n      tag_274\n        /* \"#utility.yul\":9614:9618   */\n      dup2\n        /* \"#utility.yul\":9488:9619   */\n      tag_243\n      jump\t// in\n    tag_274:\n        /* \"#utility.yul\":9480:9619   */\n      swap1\n      pop\n        /* \"#utility.yul\":9378:9626   */\n      swap2\n      swap1\n      pop\n      jump\t// out\n        /* \"#utility.yul\":9632:10051   */\n    tag_90:\n      0x00\n        /* \"#utility.yul\":9836:9838   */\n      0x20\n        /* \"#utility.yul\":9825:9834   */\n      dup3\n        /* \"#utility.yul\":9821:9839   */\n      add\n        /* \"#utility.yul\":9813:9839   */\n      swap1\n      pop\n        /* \"#utility.yul\":9885:9894   */\n      dup2\n        /* \"#utility.yul\":9879:9883   */\n      dup2\n        /* \"#utility.yul\":9875:9895   */\n      sub\n        /* \"#utility.yul\":9871:9872   */\n      0x00\n        /* \"#utility.yul\":9860:9869   */\n      dup4\n        /* \"#utility.yul\":9856:9873   */\n      add\n        /* \"#utility.yul\":9849:9896   */\n      mstore\n        /* \"#utility.yul\":9913:10044   */\n      tag_276\n        /* \"#utility.yul\":10039:10043   */\n      dup2\n        /* \"#utility.yul\":9913:10044   */\n      tag_246\n      jump\t// in\n    tag_276:\n        /* \"#utility.yul\":9905:10044   */\n      swap1\n      pop\n        /* \"#utility.yul\":9803:10051   */\n      swap2\n      swap1\n      pop\n      jump\t// out\n        /* \"#utility.yul\":10057:10476   */\n    tag_93:\n      0x00\n        /* \"#utility.yul\":10261:10263   */\n      0x20\n        /* \"#utility.yul\":10250:10259   */\n      dup3\n        /* \"#utility.yul\":10246:10264   */\n      add\n        /* \"#utility.yul\":10238:10264   */\n      swap1\n      pop\n        /* \"#utility.yul\":10310:10319   */\n      dup2\n        /* \"#utility.yul\":10304:10308   */\n      dup2\n        /* \"#utility.yul\":10300:10320   */\n      sub\n        /* \"#utility.yul\":10296:10297   */\n      0x00\n        /* \"#utility.yul\":10285:10294   */\n      dup4\n        /* \"#utility.yul\":10281:10298   */\n      add\n        /* \"#utility.yul\":10274:10321   */\n      mstore\n        /* \"#utility.yul\":10338:10469   */\n      tag_278\n        /* \"#utility.yul\":10464:10468   */\n      dup2\n        /* \"#utility.yul\":10338:10469   */\n      tag_249\n      jump\t// in\n    tag_278:\n        /* \"#utility.yul\":10330:10469   */\n      swap1\n      pop\n        /* \"#utility.yul\":10228:10476   */\n      swap2\n      swap1\n      pop\n      jump\t// out\n        /* \"#utility.yul\":10482:10901   */\n    tag_85:\n      0x00\n        /* \"#utility.yul\":10686:10688   */\n      0x20\n        /* \"#utility.yul\":10675:10684   */\n      dup3\n        /* \"#utility.yul\":10671:10689   */\n      add\n        /* \"#utility.yul\":10663:10689   */\n      swap1\n      pop\n        /* \"#utility.yul\":10735:10744   */\n      dup2\n        /* \"#utility.yul\":10729:10733   */\n      dup2\n        /* \"#utility.yul\":10725:10745   */\n      sub\n        /* \"#utility.yul\":10721:10722   */\n      0x00\n        /* \"#utility.yul\":10710:10719   */\n      dup4\n        /* \"#utility.yul\":10706:10723   */\n      add\n        /* \"#utility.yul\":10699:10746   */\n      mstore\n        /* \"#utility.yul\":10763:10894   */\n      tag_280\n        /* \"#utility.yul\":10889:10893   */\n      dup2\n        /* \"#utility.yul\":10763:10894   */\n      tag_252\n      jump\t// in\n    tag_280:\n        /* \"#utility.yul\":10755:10894   */\n      swap1\n      pop\n        /* \"#utility.yul\":10653:10901   */\n      swap2\n      swap1\n      pop\n      jump\t// out\n        /* \"#utility.yul\":10907:11129   */\n    tag_16:\n      0x00\n        /* \"#utility.yul\":11038:11040   */\n      0x20\n        /* \"#utility.yul\":11027:11036   */\n      dup3\n        /* \"#utility.yul\":11023:11041   */\n      add\n        /* \"#utility.yul\":11015:11041   */\n      swap1\n      pop\n        /* \"#utility.yul\":11051:11122   */\n      tag_282\n        /* \"#utility.yul\":11119:11120   */\n      0x00\n        /* \"#utility.yul\":11108:11117   */\n      dup4\n        /* \"#utility.yul\":11104:11121   */\n      add\n        /* \"#utility.yul\":11095:11101   */\n      dup5\n        /* \"#utility.yul\":11051:11122   */\n      tag_258\n      jump\t// in\n    tag_282:\n        /* \"#utility.yul\":11005:11129   */\n      swap3\n      swap2\n      pop\n      pop\n      jump\t// out\n        /* \"#utility.yul\":11135:11418   */\n    tag_157:\n      0x00\n        /* \"#utility.yul\":11201:11203   */\n      0x40\n        /* \"#utility.yul\":11195:11204   */\n      mload\n        /* \"#utility.yul\":11185:11204   */\n      swap1\n      pop\n        /* \"#utility.yul\":11243:11247   */\n      dup2\n        /* \"#utility.yul\":11235:11241   */\n      dup2\n        /* \"#utility.yul\":11231:11248   */\n      add\n        /* \"#utility.yul\":11350:11356   */\n      dup2\n        /* \"#utility.yul\":11338:11348   */\n      dup2\n        /* \"#utility.yul\":11335:11357   */\n      lt\n        /* \"#utility.yul\":11314:11332   */\n      0xffffffffffffffff\n        /* \"#utility.yul\":11302:11312   */\n      dup3\n        /* \"#utility.yul\":11299:11333   */\n      gt\n        /* \"#utility.yul\":11296:11358   */\n      or\n        /* \"#utility.yul\":11293:11295   */\n      iszero\n      tag_284\n      jumpi\n        /* \"#utility.yul\":11361:11379   */\n      tag_285\n      tag_286\n      jump\t// in\n    tag_285:\n        /* \"#utility.yul\":11293:11295   */\n    tag_284:\n        /* \"#utility.yul\":11401:11411   */\n      dup1\n        /* \"#utility.yul\":11397:11399   */\n      0x40\n        /* \"#utility.yul\":11390:11412   */\n      mstore\n        /* \"#utility.yul\":11175:11418   */\n      pop\n      swap2\n      swap1\n      pop\n      jump\t// out\n        /* \"#utility.yul\":11424:11756   */\n    tag_156:\n      0x00\n        /* \"#utility.yul\":11576:11594   */\n      0xffffffffffffffff\n        /* \"#utility.yul\":11568:11574   */\n      dup3\n        /* \"#utility.yul\":11565:11595   */\n      gt\n        /* \"#utility.yul\":11562:11564   */\n      iszero\n      tag_288\n      jumpi\n        /* \"#utility.yul\":11598:11616   */\n      tag_289\n      tag_286\n      jump\t// in\n    tag_289:\n        /* \"#utility.yul\":11562:11564   */\n    tag_288:\n        /* \"#utility.yul\":11683:11687   */\n      0x1f\n        /* \"#utility.yul\":11679:11688   */\n      not\n        /* \"#utility.yul\":11672:11676   */\n      0x1f\n        /* \"#utility.yul\":11664:11670   */\n      dup4\n        /* \"#utility.yul\":11660:11677   */\n      add\n        /* \"#utility.yul\":11656:11689   */\n      and\n        /* \"#utility.yul\":11648:11689   */\n      swap1\n      pop\n        /* \"#utility.yul\":11744:11748   */\n      0x20\n        /* \"#utility.yul\":11738:11742   */\n      dup2\n        /* \"#utility.yul\":11734:11749   */\n      add\n        /* \"#utility.yul\":11726:11749   */\n      swap1\n      pop\n        /* \"#utility.yul\":11491:11756   */\n      swap2\n      swap1\n      pop\n      jump\t// out\n        /* \"#utility.yul\":11762:11914   */\n    tag_201:\n      0x00\n        /* \"#utility.yul\":11872:11875   */\n      dup2\n        /* \"#utility.yul\":11864:11875   */\n      swap1\n      pop\n        /* \"#utility.yul\":11902:11906   */\n      0x20\n        /* \"#utility.yul\":11897:11900   */\n      dup3\n        /* \"#utility.yul\":11893:11907   */\n      add\n        /* \"#utility.yul\":11885:11907   */\n      swap1\n      pop\n        /* \"#utility.yul\":11854:11914   */\n      swap2\n      swap1\n      pop\n      jump\t// out\n        /* \"#utility.yul\":11920:12061   */\n    tag_239:\n      0x00\n        /* \"#utility.yul\":11992:11995   */\n      dup2\n        /* \"#utility.yul\":11984:11995   */\n      swap1\n      pop\n        /* \"#utility.yul\":12015:12018   */\n      dup2\n        /* \"#utility.yul\":12012:12013   */\n      0x00\n        /* \"#utility.yul\":12005:12019   */\n      mstore\n        /* \"#utility.yul\":12049:12053   */\n      0x20\n        /* \"#utility.yul\":12046:12047   */\n      0x00\n        /* \"#utility.yul\":12036:12054   */\n      keccak256\n        /* \"#utility.yul\":12028:12054   */\n      swap1\n      pop\n        /* \"#utility.yul\":11974:12061   */\n      swap2\n      swap1\n      pop\n      jump\t// out\n        /* \"#utility.yul\":12067:12201   */\n    tag_197:\n      0x00\n        /* \"#utility.yul\":12188:12193   */\n      dup2\n        /* \"#utility.yul\":12182:12194   */\n      mload\n        /* \"#utility.yul\":12172:12194   */\n      swap1\n      pop\n        /* \"#utility.yul\":12161:12201   */\n      swap2\n      swap1\n      pop\n      jump\t// out\n        /* \"#utility.yul\":12207:12306   */\n    tag_211:\n      0x00\n        /* \"#utility.yul\":12293:12298   */\n      dup2\n        /* \"#utility.yul\":12287:12299   */\n      mload\n        /* \"#utility.yul\":12277:12299   */\n      swap1\n      pop\n        /* \"#utility.yul\":12266:12306   */\n      swap2\n      swap1\n      pop\n      jump\t// out\n        /* \"#utility.yul\":12312:12445   */\n    tag_207:\n      0x00\n        /* \"#utility.yul\":12434:12438   */\n      0x20\n        /* \"#utility.yul\":12429:12432   */\n      dup3\n        /* \"#utility.yul\":12425:12439   */\n      add\n        /* \"#utility.yul\":12417:12439   */\n      swap1\n      pop\n        /* \"#utility.yul\":12407:12445   */\n      swap2\n      swap1\n      pop\n      jump\t// out\n        /* \"#utility.yul\":12451:12655   */\n    tag_199:\n      0x00\n        /* \"#utility.yul\":12604:12610   */\n      dup3\n        /* \"#utility.yul\":12599:12602   */\n      dup3\n        /* \"#utility.yul\":12592:12611   */\n      mstore\n        /* \"#utility.yul\":12644:12648   */\n      0x20\n        /* \"#utility.yul\":12639:12642   */\n      dup3\n        /* \"#utility.yul\":12635:12649   */\n      add\n        /* \"#utility.yul\":12620:12649   */\n      swap1\n      pop\n        /* \"#utility.yul\":12582:12655   */\n      swap3\n      swap2\n      pop\n      pop\n      jump\t// out\n        /* \"#utility.yul\":12661:12820   */\n    tag_213:\n      0x00\n        /* \"#utility.yul\":12769:12775   */\n      dup3\n        /* \"#utility.yul\":12764:12767   */\n      dup3\n        /* \"#utility.yul\":12757:12776   */\n      mstore\n        /* \"#utility.yul\":12809:12813   */\n      0x20\n        /* \"#utility.yul\":12804:12807   */\n      dup3\n        /* \"#utility.yul\":12800:12814   */\n      add\n        /* \"#utility.yul\":12785:12814   */\n      swap1\n      pop\n        /* \"#utility.yul\":12747:12820   */\n      swap3\n      swap2\n      pop\n      pop\n      jump\t// out\n        /* \"#utility.yul\":12826:12995   */\n    tag_222:\n      0x00\n        /* \"#utility.yul\":12944:12950   */\n      dup3\n        /* \"#utility.yul\":12939:12942   */\n      dup3\n        /* \"#utility.yul\":12932:12951   */\n      mstore\n        /* \"#utility.yul\":12984:12988   */\n      0x20\n        /* \"#utility.yul\":12979:12982   */\n      dup3\n        /* \"#utility.yul\":12975:12989   */\n      add\n        /* \"#utility.yul\":12960:12989   */\n      swap1\n      pop\n        /* \"#utility.yul\":12922:12995   */\n      swap3\n      swap2\n      pop\n      pop\n      jump\t// out\n        /* \"#utility.yul\":13001:13149   */\n    tag_229:\n      0x00\n        /* \"#utility.yul\":13140:13143   */\n      dup2\n        /* \"#utility.yul\":13125:13143   */\n      swap1\n      pop\n        /* \"#utility.yul\":13115:13149   */\n      swap3\n      swap2\n      pop\n      pop\n      jump\t// out\n        /* \"#utility.yul\":13155:13460   */\n    tag_97:\n      0x00\n        /* \"#utility.yul\":13214:13234   */\n      tag_300\n        /* \"#utility.yul\":13232:13233   */\n      dup3\n        /* \"#utility.yul\":13214:13234   */\n      tag_261\n      jump\t// in\n    tag_300:\n        /* \"#utility.yul\":13209:13234   */\n      swap2\n      pop\n        /* \"#utility.yul\":13248:13268   */\n      tag_301\n        /* \"#utility.yul\":13266:13267   */\n      dup4\n        /* \"#utility.yul\":13248:13268   */\n      tag_261\n      jump\t// in\n    tag_301:\n        /* \"#utility.yul\":13243:13268   */\n      swap3\n      pop\n        /* \"#utility.yul\":13402:13403   */\n      dup3\n        /* \"#utility.yul\":13334:13400   */\n      0xffffffffffffffffffffffffffffffffffffffffffffffffffffffffffffffff\n        /* \"#utility.yul\":13330:13404   */\n      sub\n        /* \"#utility.yul\":13327:13328   */\n      dup3\n        /* \"#utility.yul\":13324:13405   */\n      gt\n        /* \"#utility.yul\":13321:13323   */\n      iszero\n      tag_302\n      jumpi\n        /* \"#utility.yul\":13408:13426   */\n      tag_303\n      tag_304\n      jump\t// in\n    tag_303:\n        /* \"#utility.yul\":13321:13323   */\n    tag_302:\n        /* \"#utility.yul\":13452:13453   */\n      dup3\n        /* \"#utility.yul\":13449:13450   */\n      dup3\n        /* \"#utility.yul\":13445:13454   */\n      add\n        /* \"#utility.yul\":13438:13454   */\n      swap1\n      pop\n        /* \"#utility.yul\":13199:13460   */\n      swap3\n      swap2\n      pop\n      pop\n      jump\t// out\n        /* \"#utility.yul\":13466:13562   */\n    tag_190:\n      0x00\n        /* \"#utility.yul\":13532:13556   */\n      tag_306\n        /* \"#utility.yul\":13550:13555   */\n      dup3\n        /* \"#utility.yul\":13532:13556   */\n      tag_307\n      jump\t// in\n    tag_306:\n        /* \"#utility.yul\":13521:13556   */\n      swap1\n      pop\n        /* \"#utility.yul\":13511:13562   */\n      swap2\n      swap1\n      pop\n      jump\t// out\n        /* \"#utility.yul\":13568:13694   */\n    tag_307:\n      0x00\n        /* \"#utility.yul\":13645:13687   */\n      0xffffffffffffffffffffffffffffffffffffffff\n        /* \"#utility.yul\":13638:13643   */\n      dup3\n        /* \"#utility.yul\":13634:13688   */\n      and\n        /* \"#utility.yul\":13623:13688   */\n      swap1\n      pop\n        /* \"#utility.yul\":13613:13694   */\n      swap2\n      swap1\n      pop\n      jump\t// out\n        /* \"#utility.yul\":13700:13777   */\n    tag_261:\n      0x00\n        /* \"#utility.yul\":13766:13771   */\n      dup2\n        /* \"#utility.yul\":13755:13771   */\n      swap1\n      pop\n        /* \"#utility.yul\":13745:13777   */\n      swap2\n      swap1\n      pop\n      jump\t// out\n        /* \"#utility.yul\":13783:13937   */\n    tag_160:\n        /* \"#utility.yul\":13867:13873   */\n      dup3\n        /* \"#utility.yul\":13862:13865   */\n      dup2\n        /* \"#utility.yul\":13857:13860   */\n      dup4\n        /* \"#utility.yul\":13844:13874   */\n      calldatacopy\n        /* \"#utility.yul\":13929:13930   */\n      0x00\n        /* \"#utility.yul\":13920:13926   */\n      dup4\n        /* \"#utility.yul\":13915:13918   */\n      dup4\n        /* \"#utility.yul\":13911:13927   */\n      add\n        /* \"#utility.yul\":13904:13931   */\n      mstore\n        /* \"#utility.yul\":13834:13937   */\n      pop\n      pop\n      pop\n      jump\t// out\n        /* \"#utility.yul\":13943:14250   */\n    tag_215:\n        /* \"#utility.yul\":14011:14012   */\n      0x00\n        /* \"#utility.yul\":14021:14134   */\n    tag_312:\n        /* \"#utility.yul\":14035:14041   */\n      dup4\n        /* \"#utility.yul\":14032:14033   */\n      dup2\n        /* \"#utility.yul\":14029:14042   */\n      lt\n        /* \"#utility.yul\":14021:14134   */\n      iszero\n      tag_314\n      jumpi\n        /* \"#utility.yul\":14120:14121   */\n      dup1\n        /* \"#utility.yul\":14115:14118   */\n      dup3\n        /* \"#utility.yul\":14111:14122   */\n      add\n        /* \"#utility.yul\":14105:14123   */\n      mload\n        /* \"#utility.yul\":14101:14102   */\n      dup2\n        /* \"#utility.yul\":14096:14099   */\n      dup5\n        /* \"#utility.yul\":14092:14103   */\n      add\n        /* \"#utility.yul\":14085:14124   */\n      mstore\n        /* \"#utility.yul\":14057:14059   */\n      0x20\n        /* \"#utility.yul\":14054:14055   */\n      dup2\n        /* \"#utility.yul\":14050:14060   */\n      add\n        /* \"#utility.yul\":14045:14060   */\n      swap1\n      pop\n        /* \"#utility.yul\":14021:14134   */\n      jump(tag_312)\n    tag_314:\n        /* \"#utility.yul\":14152:14158   */\n      dup4\n        /* \"#utility.yul\":14149:14150   */\n      dup2\n        /* \"#utility.yul\":14146:14159   */\n      gt\n        /* \"#utility.yul\":14143:14145   */\n      iszero\n      tag_315\n      jumpi\n        /* \"#utility.yul\":14232:14233   */\n      0x00\n        /* \"#utility.yul\":14223:14229   */\n      dup5\n        /* \"#utility.yul\":14218:14221   */\n      dup5\n        /* \"#utility.yul\":14214:14230   */\n      add\n        /* \"#utility.yul\":14207:14234   */\n      mstore\n        /* \"#utility.yul\":14143:14145   */\n    tag_315:\n        /* \"#utility.yul\":13992:14250   */\n      pop\n      pop\n      pop\n      pop\n      jump\t// out\n        /* \"#utility.yul\":14256:14576   */\n    tag_61:\n      0x00\n        /* \"#utility.yul\":14337:14338   */\n      0x02\n        /* \"#utility.yul\":14331:14335   */\n      dup3\n        /* \"#utility.yul\":14327:14339   */\n      div\n        /* \"#utility.yul\":14317:14339   */\n      swap1\n      pop\n        /* \"#utility.yul\":14384:14385   */\n      0x01\n        /* \"#utility.yul\":14378:14382   */\n      dup3\n        /* \"#utility.yul\":14374:14386   */\n      and\n        /* \"#utility.yul\":14405:14423   */\n      dup1\n        /* \"#utility.yul\":14395:14397   */\n      tag_317\n      jumpi\n        /* \"#utility.yul\":14461:14465   */\n      0x7f\n        /* \"#utility.yul\":14453:14459   */\n      dup3\n        /* \"#utility.yul\":14449:14466   */\n      and\n        /* \"#utility.yul\":14439:14466   */\n      swap2\n      pop\n        /* \"#utility.yul\":14395:14397   */\n    tag_317:\n        /* \"#utility.yul\":14523:14525   */\n      0x20\n        /* \"#utility.yul\":14515:14521   */\n      dup3\n        /* \"#utility.yul\":14512:14526   */\n      lt\n        /* \"#utility.yul\":14492:14510   */\n      dup2\n        /* \"#utility.yul\":14489:14527   */\n      eq\n        /* \"#utility.yul\":14486:14488   */\n      iszero\n      tag_318\n      jumpi\n        /* \"#utility.yul\":14542:14560   */\n      tag_319\n      tag_320\n      jump\t// in\n    tag_319:\n        /* \"#utility.yul\":14486:14488   */\n    tag_318:\n        /* \"#utility.yul\":14307:14576   */\n      pop\n      swap2\n      swap1\n      pop\n      jump\t// out\n        /* \"#utility.yul\":14582:14815   */\n    tag_48:\n      0x00\n        /* \"#utility.yul\":14644:14668   */\n      tag_322\n        /* \"#utility.yul\":14662:14667   */\n      dup3\n        /* \"#utility.yul\":14644:14668   */\n      tag_261\n      jump\t// in\n    tag_322:\n        /* \"#utility.yul\":14635:14668   */\n      swap2\n      pop\n        /* \"#utility.yul\":14690:14756   */\n      0xffffffffffffffffffffffffffffffffffffffffffffffffffffffffffffffff\n        /* \"#utility.yul\":14683:14688   */\n      dup3\n        /* \"#utility.yul\":14680:14757   */\n      eq\n        /* \"#utility.yul\":14677:14679   */\n      iszero\n      tag_323\n      jumpi\n        /* \"#utility.yul\":14760:14778   */\n      tag_324\n      tag_304\n      jump\t// in\n    tag_324:\n        /* \"#utility.yul\":14677:14679   */\n    tag_323:\n        /* \"#utility.yul\":14807:14808   */\n      0x01\n        /* \"#utility.yul\":14800:14805   */\n      dup3\n        /* \"#utility.yul\":14796:14809   */\n      add\n        /* \"#utility.yul\":14789:14809   */\n      swap1\n      pop\n        /* \"#utility.yul\":14625:14815   */\n      swap2\n      swap1\n      pop\n      jump\t// out\n        /* \"#utility.yul\":14821:15001   */\n    tag_304:\n        /* \"#utility.yul\":14869:14946   */\n      0x4e487b7100000000000000000000000000000000000000000000000000000000\n        /* \"#utility.yul\":14866:14867   */\n      0x00\n        /* \"#utility.yul\":14859:14947   */\n      mstore\n        /* \"#utility.yul\":14966:14970   */\n      0x11\n        /* \"#utility.yul\":14963:14964   */\n      0x04\n        /* \"#utility.yul\":14956:14971   */\n      mstore\n        /* \"#utility.yul\":14990:14994   */\n      0x24\n        /* \"#utility.yul\":14987:14988   */\n      0x00\n        /* \"#utility.yul\":14980:14995   */\n      revert\n        /* \"#utility.yul\":15007:15187   */\n    tag_320:\n        /* \"#utility.yul\":15055:15132   */\n      0x4e487b7100000000000000000000000000000000000000000000000000000000\n        /* \"#utility.yul\":15052:15053   */\n      0x00\n        /* \"#utility.yul\":15045:15133   */\n      mstore\n        /* \"#utility.yul\":15152:15156   */\n      0x22\n        /* \"#utility.yul\":15149:15150   */\n      0x04\n        /* \"#utility.yul\":15142:15157   */\n      mstore\n        /* \"#utility.yul\":15176:15180   */\n      0x24\n        /* \"#utility.yul\":15173:15174   */\n      0x00\n        /* \"#utility.yul\":15166:15181   */\n      revert\n        /* \"#utility.yul\":15193:15373   */\n    tag_286:\n        /* \"#utility.yul\":15241:15318   */\n      0x4e487b7100000000000000000000000000000000000000000000000000000000\n        /* \"#utility.yul\":15238:15239   */\n      0x00\n        /* \"#utility.yul\":15231:15319   */\n      mstore\n        /* \"#utility.yul\":15338:15342   */\n      0x41\n        /* \"#utility.yul\":15335:15336   */\n      0x04\n        /* \"#utility.yul\":15328:15343   */\n      mstore\n        /* \"#utility.yul\":15362:15366   */\n      0x24\n        /* \"#utility.yul\":15359:15360   */\n      0x00\n        /* \"#utility.yul\":15352:15367   */\n      revert\n        /* \"#utility.yul\":15379:15481   */\n    tag_217:\n      0x00\n        /* \"#utility.yul\":15471:15473   */\n      0x1f\n        /* \"#utility.yul\":15467:15474   */\n      not\n        /* \"#utility.yul\":15462:15464   */\n      0x1f\n        /* \"#utility.yul\":15455:15460   */\n      dup4\n        /* \"#utility.yul\":15451:15465   */\n      add\n        /* \"#utility.yul\":15447:15475   */\n      and\n        /* \"#utility.yul\":15437:15475   */\n      swap1\n      pop\n        /* \"#utility.yul\":15427:15481   */\n      swap2\n      swap1\n      pop\n      jump\t// out\n        /* \"#utility.yul\":15487:15609   */\n    tag_164:\n        /* \"#utility.yul\":15560:15584   */\n      tag_330\n        /* \"#utility.yul\":15578:15583   */\n      dup2\n        /* \"#utility.yul\":15560:15584   */\n      tag_190\n      jump\t// in\n    tag_330:\n        /* \"#utility.yul\":15553:15558   */\n      dup2\n        /* \"#utility.yul\":15550:15585   */\n      eq\n        /* \"#utility.yul\":15540:15542   */\n      tag_331\n      jumpi\n        /* \"#utility.yul\":15599:15600   */\n      0x00\n        /* \"#utility.yul\":15596:15597   */\n      dup1\n        /* \"#utility.yul\":15589:15601   */\n      revert\n        /* \"#utility.yul\":15540:15542   */\n    tag_331:\n        /* \"#utility.yul\":15530:15609   */\n      pop\n      jump\t// out\n        /* \"#utility.yul\":15615:15737   */\n    tag_172:\n        /* \"#utility.yul\":15688:15712   */\n      tag_333\n        /* \"#utility.yul\":15706:15711   */\n      dup2\n        /* \"#utility.yul\":15688:15712   */\n      tag_261\n      jump\t// in\n    tag_333:\n        /* \"#utility.yul\":15681:15686   */\n      dup2\n        /* \"#utility.yul\":15678:15713   */\n      eq\n        /* \"#utility.yul\":15668:15670   */\n      tag_334\n      jumpi\n        /* \"#utility.yul\":15727:15728   */\n      0x00\n        /* \"#utility.yul\":15724:15725   */\n      dup1\n        /* \"#utility.yul\":15717:15729   */\n      revert\n        /* \"#utility.yul\":15668:15670   */\n    tag_334:\n        /* \"#utility.yul\":15658:15737   */\n      pop\n      jump\t// out\n\n    auxdata: 0xa264697066735822122047250f39440b07a04d67dbad8b0733478addd28b4ae6303e3324fd6bb8715cbf64736f6c63430008000033\n}\n",
				"bytecode": {
					"linkReferences": {},
					"object": "608060405234801561001057600080fd5b50611863806100206000396000f3fe608060405234801561001057600080fd5b506004361061007d5760003560e01c8063687440461161005b57806368744046146100ec5780637e490a9e1461011d578063ca5140c914610139578063e35d207c146101555761007d565b806303d24c4914610082578063057e11c9146100b25780633bc5f48a146100d0575b600080fd5b61009c6004803603810190610097919061104d565b610173565b6040516100a99190611510565b60405180910390f35b6100ba61018b565b6040516100c7919061143e565b60405180910390f35b6100ea60048036038101906100e59190611076565b610499565b005b610106600480360381019061010191906110b7565b61059b565b604051610114929190611460565b60405180910390f35b610137600480360381019061013291906110b7565b610677565b005b610153600480360381019061014e91906110b7565b61098d565b005b61015d610b38565b60405161016a919061143e565b60405180910390f35b60006020528060005260406000206000915090505481565b60606000805b60018054905081101561025f57600073ffffffffffffffffffffffffffffffffffffffff16600182815481106101f0577f4e487b7100000000000000000000000000000000000000000000000000000000600052603260045260246000fd5b906000526020600020906002020160010160009054906101000a900473ffffffffffffffffffffffffffffffffffffffff1673ffffffffffffffffffffffffffffffffffffffff161461024c57818061024890611718565b9250505b808061025790611718565b915050610191565b5060008167ffffffffffffffff8111156102a2577f4e487b7100000000000000000000000000000000000000000000000000000000600052604160045260246000fd5b6040519080825280602002602001820160405280156102db57816020015b6102c8610ee8565b8152602001906001900390816102c05790505b5090506000805b60018054905081101561048f5760018181548110610329577f4e487b7100000000000000000000000000000000000000000000000000000000600052603260045260246000fd5b9060005260206000209060020201604051806040016040529081600082018054610352906116e6565b80601f016020809104026020016040519081016040528092919081815260200182805461037e906116e6565b80156103cb5780601f106103a0576101008083540402835291602001916103cb565b820191906000526020600020905b8154815290600101906020018083116103ae57829003601f168201915b505050505081526020016001820160009054906101000a900473ffffffffffffffffffffffffffffffffffffffff1673ffffffffffffffffffffffffffffffffffffffff1673ffffffffffffffffffffffffffffffffffffffff1681525050838381518110610463577f4e487b7100000000000000000000000000000000000000000000000000000000600052603260045260246000fd5b6020026020010181905250818061047990611718565b925050808061048790611718565b9150506102e2565b5081935050505090565b60016040518060400160405280838152602001600073ffffffffffffffffffffffffffffffffffffffff168152509080600181540180825580915050600190039060005260206000209060020201600090919091909150600082015181600001908051906020019061050c929190610f18565b5060208201518160010160006101000a81548173ffffffffffffffffffffffffffffffffffffffff021916908373ffffffffffffffffffffffffffffffffffffffff16021790555050508060405161056491906113f5565b60405180910390207f389883c247948e6a90f461d8febcbc3d72029c3e696e10f6c68cbb65d7e23fc960405160405180910390a250565b600181815481106105ab57600080fd5b90600052602060002090600202016000915090508060000180546105ce906116e6565b80601f01602080910402602001604051908101604052809291908181526020018280546105fa906116e6565b80156106475780601f1061061c57610100808354040283529160200191610647565b820191906000526020600020905b81548152906001019060200180831161062a57829003601f168201915b5050505050908060010160009054906101000a900473ffffffffffffffffffffffffffffffffffffffff16905082565b60018054905081106106be576040517f08c379a00000000000000000000000000000000000000000000000000000000081526004016106b5906114f0565b60405180910390fd5b600073ffffffffffffffffffffffffffffffffffffffff1660018281548110610710577f4e487b7100000000000000000000000000000000000000000000000000000000600052603260045260246000fd5b906000526020600020906002020160010160009054906101000a900473ffffffffffffffffffffffffffffffffffffffff1673ffffffffffffffffffffffffffffffffffffffff1614610798576040517f08c379a000000000000000000000000000000000000000000000000000000000815260040161078f906114b0565b60405180910390fd5b60016000803373ffffffffffffffffffffffffffffffffffffffff1673ffffffffffffffffffffffffffffffffffffffff16815260200190815260200160002054141561081a576040517f08c379a0000000000000000000000000000000000000000000000000000000008152600401610811906114d0565b60405180910390fd5b3360018281548110610855577f4e487b7100000000000000000000000000000000000000000000000000000000600052603260045260246000fd5b906000526020600020906002020160010160006101000a81548173ffffffffffffffffffffffffffffffffffffffff021916908373ffffffffffffffffffffffffffffffffffffffff1602179055506001816108b19190611612565b6000803373ffffffffffffffffffffffffffffffffffffffff1673ffffffffffffffffffffffffffffffffffffffff168152602001908152602001600020819055506001818154811061092d577f4e487b7100000000000000000000000000000000000000000000000000000000600052603260045260246000fd5b906000526020600020906002020160000160405161094b919061140c565b60405180910390207f4bd98b3223c39f335bc6f823093ab65d500345beda2bd23303ae81271e26810d336040516109829190611423565b60405180910390a250565b600181815481106109c7577f4e487b7100000000000000000000000000000000000000000000000000000000600052603260045260246000fd5b906000526020600020906002020160010160009054906101000a900473ffffffffffffffffffffffffffffffffffffffff1673ffffffffffffffffffffffffffffffffffffffff163373ffffffffffffffffffffffffffffffffffffffff1614610a66576040517f08c379a0000000000000000000000000000000000000000000000000000000008152600401610a5d90611490565b60405180910390fd5b600060018281548110610aa2577f4e487b7100000000000000000000000000000000000000000000000000000000600052603260045260246000fd5b906000526020600020906002020160010160006101000a81548173ffffffffffffffffffffffffffffffffffffffff021916908373ffffffffffffffffffffffffffffffffffffffff16021790555060008060003373ffffffffffffffffffffffffffffffffffffffff1673ffffffffffffffffffffffffffffffffffffffff1681526020019081526020016000208190555050565b60606000805b600180549050811015610c0d57600073ffffffffffffffffffffffffffffffffffffffff1660018281548110610b9d577f4e487b7100000000000000000000000000000000000000000000000000000000600052603260045260246000fd5b906000526020600020906002020160010160009054906101000a900473ffffffffffffffffffffffffffffffffffffffff1673ffffffffffffffffffffffffffffffffffffffff161415610bfa578180610bf690611718565b9250505b8080610c0590611718565b915050610b3e565b5060008167ffffffffffffffff811115610c50577f4e487b7100000000000000000000000000000000000000000000000000000000600052604160045260246000fd5b604051908082528060200260200182016040528015610c8957816020015b610c76610ee8565b815260200190600190039081610c6e5790505b5090506000805b600180549050811015610ede57600073ffffffffffffffffffffffffffffffffffffffff1660018281548110610cef577f4e487b7100000000000000000000000000000000000000000000000000000000600052603260045260246000fd5b906000526020600020906002020160010160009054906101000a900473ffffffffffffffffffffffffffffffffffffffff1673ffffffffffffffffffffffffffffffffffffffff161415610ecb5760018181548110610d77577f4e487b7100000000000000000000000000000000000000000000000000000000600052603260045260246000fd5b9060005260206000209060020201604051806040016040529081600082018054610da0906116e6565b80601f0160208091040260200160405190810160405280929190818152602001828054610dcc906116e6565b8015610e195780601f10610dee57610100808354040283529160200191610e19565b820191906000526020600020905b815481529060010190602001808311610dfc57829003601f168201915b505050505081526020016001820160009054906101000a900473ffffffffffffffffffffffffffffffffffffffff1673ffffffffffffffffffffffffffffffffffffffff1673ffffffffffffffffffffffffffffffffffffffff1681525050838381518110610eb1577f4e487b7100000000000000000000000000000000000000000000000000000000600052603260045260246000fd5b60200260200101819052508180610ec790611718565b9250505b8080610ed690611718565b915050610c90565b5081935050505090565b604051806040016040528060608152602001600073ffffffffffffffffffffffffffffffffffffffff1681525090565b828054610f24906116e6565b90600052602060002090601f016020900481019282610f465760008555610f8d565b82601f10610f5f57805160ff1916838001178555610f8d565b82800160010185558215610f8d579182015b82811115610f8c578251825591602001919060010190610f71565b5b509050610f9a9190610f9e565b5090565b5b80821115610fb7576000816000905550600101610f9f565b5090565b6000610fce610fc98461155c565b61152b565b905082815260208101848484011115610fe657600080fd5b610ff18482856116a4565b509392505050565b600081359050611008816117ff565b92915050565b600082601f83011261101f57600080fd5b813561102f848260208601610fbb565b91505092915050565b60008135905061104781611816565b92915050565b60006020828403121561105f57600080fd5b600061106d84828501610ff9565b91505092915050565b60006020828403121561108857600080fd5b600082013567ffffffffffffffff8111156110a257600080fd5b6110ae8482850161100e565b91505092915050565b6000602082840312156110c957600080fd5b60006110d784828501611038565b91505092915050565b60006110ec83836113a9565b905092915050565b6110fd81611668565b82525050565b61110c81611668565b82525050565b600061111d826115b1565b61112781856115d4565b9350836020820285016111398561158c565b8060005b85811015611175578484038952815161115685826110e0565b9450611161836115c7565b925060208a0199505060018101905061113d565b50829750879550505050505092915050565b6000611192826115bc565b61119c81856115e5565b93506111ac8185602086016116b3565b6111b5816117ee565b840191505092915050565b60006111cb826115bc565b6111d581856115f6565b93506111e58185602086016116b3565b6111ee816117ee565b840191505092915050565b6000611204826115bc565b61120e8185611607565b935061121e8185602086016116b3565b80840191505092915050565b60008154611237816116e6565b6112418186611607565b9450600182166000811461125c576001811461126d576112a0565b60ff198316865281860193506112a0565b6112768561159c565b60005b8381101561129857815481890152600182019150602081019050611279565b838801955050505b50505092915050565b60006112b66016836115f6565b91507f4f6e6c79206f776e65722063616e2072657475726e21000000000000000000006000830152602082019050919050565b60006112f66013836115f6565b91507f426f6f6b20616c72656164792074616b656e21000000000000000000000000006000830152602082019050919050565b6000611336601a836115f6565b91507f5527766520616c72656164792074616b656e206120626f6f6b210000000000006000830152602082019050919050565b60006113766008836115f6565b91507f57726f6e672049440000000000000000000000000000000000000000000000006000830152602082019050919050565b600060408301600083015184820360008601526113c68282611187565b91505060208301516113db60208601826110f4565b508091505092915050565b6113ef8161169a565b82525050565b600061140182846111f9565b915081905092915050565b6000611418828461122a565b915081905092915050565b60006020820190506114386000830184611103565b92915050565b600060208201905081810360008301526114588184611112565b905092915050565b6000604082019050818103600083015261147a81856111c0565b90506114896020830184611103565b9392505050565b600060208201905081810360008301526114a9816112a9565b9050919050565b600060208201905081810360008301526114c9816112e9565b9050919050565b600060208201905081810360008301526114e981611329565b9050919050565b6000602082019050818103600083015261150981611369565b9050919050565b600060208201905061152560008301846113e6565b92915050565b6000604051905081810181811067ffffffffffffffff82111715611552576115516117bf565b5b8060405250919050565b600067ffffffffffffffff821115611577576115766117bf565b5b601f19601f8301169050602081019050919050565b6000819050602082019050919050565b60008190508160005260206000209050919050565b600081519050919050565b600081519050919050565b6000602082019050919050565b600082825260208201905092915050565b600082825260208201905092915050565b600082825260208201905092915050565b600081905092915050565b600061161d8261169a565b91506116288361169a565b9250827fffffffffffffffffffffffffffffffffffffffffffffffffffffffffffffffff0382111561165d5761165c611761565b5b828201905092915050565b60006116738261167a565b9050919050565b600073ffffffffffffffffffffffffffffffffffffffff82169050919050565b6000819050919050565b82818337600083830152505050565b60005b838110156116d15780820151818401526020810190506116b6565b838111156116e0576000848401525b50505050565b600060028204905060018216806116fe57607f821691505b6020821081141561171257611711611790565b5b50919050565b60006117238261169a565b91507fffffffffffffffffffffffffffffffffffffffffffffffffffffffffffffffff82141561175657611755611761565b5b600182019050919050565b7f4e487b7100000000000000000000000000000000000000000000000000000000600052601160045260246000fd5b7f4e487b7100000000000000000000000000000000000000000000000000000000600052602260045260246000fd5b7f4e487b7100000000000000000000000000000000000000000000000000000000600052604160045260246000fd5b6000601f19601f8301169050919050565b61180881611668565b811461181357600080fd5b50565b61181f8161169a565b811461182a57600080fd5b5056fea264697066735822122047250f39440b07a04d67dbad8b0733478addd28b4ae6303e3324fd6bb8715cbf64736f6c63430008000033",
					"opcodes": "PUSH1 0x80 PUSH1 0x40 MSTORE CALLVALUE DUP1 ISZERO PUSH2 0x10 JUMPI PUSH1 0x0 DUP1 REVERT JUMPDEST POP PUSH2 0x1863 DUP1 PUSH2 0x20 PUSH1 0x0 CODECOPY PUSH1 0x0 RETURN INVALID PUSH1 0x80 PUSH1 0x40 MSTORE CALLVALUE DUP1 ISZERO PUSH2 0x10 JUMPI PUSH1 0x0 DUP1 REVERT JUMPDEST POP PUSH1 0x4 CALLDATASIZE LT PUSH2 0x7D JUMPI PUSH1 0x0 CALLDATALOAD PUSH1 0xE0 SHR DUP1 PUSH4 0x68744046 GT PUSH2 0x5B JUMPI DUP1 PUSH4 0x68744046 EQ PUSH2 0xEC JUMPI DUP1 PUSH4 0x7E490A9E EQ PUSH2 0x11D JUMPI DUP1 PUSH4 0xCA5140C9 EQ PUSH2 0x139 JUMPI DUP1 PUSH4 0xE35D207C EQ PUSH2 0x155 JUMPI PUSH2 0x7D JUMP JUMPDEST DUP1 PUSH4 0x3D24C49 EQ PUSH2 0x82 JUMPI DUP1 PUSH4 0x57E11C9 EQ PUSH2 0xB2 JUMPI DUP1 PUSH4 0x3BC5F48A EQ PUSH2 0xD0 JUMPI JUMPDEST PUSH1 0x0 DUP1 REVERT JUMPDEST PUSH2 0x9C PUSH1 0x4 DUP1 CALLDATASIZE SUB DUP2 ADD SWAP1 PUSH2 0x97 SWAP2 SWAP1 PUSH2 0x104D JUMP JUMPDEST PUSH2 0x173 JUMP JUMPDEST PUSH1 0x40 MLOAD PUSH2 0xA9 SWAP2 SWAP1 PUSH2 0x1510 JUMP JUMPDEST PUSH1 0x40 MLOAD DUP1 SWAP2 SUB SWAP1 RETURN JUMPDEST PUSH2 0xBA PUSH2 0x18B JUMP JUMPDEST PUSH1 0x40 MLOAD PUSH2 0xC7 SWAP2 SWAP1 PUSH2 0x143E JUMP JUMPDEST PUSH1 0x40 MLOAD DUP1 SWAP2 SUB SWAP1 RETURN JUMPDEST PUSH2 0xEA PUSH1 0x4 DUP1 CALLDATASIZE SUB DUP2 ADD SWAP1 PUSH2 0xE5 SWAP2 SWAP1 PUSH2 0x1076 JUMP JUMPDEST PUSH2 0x499 JUMP JUMPDEST STOP JUMPDEST PUSH2 0x106 PUSH1 0x4 DUP1 CALLDATASIZE SUB DUP2 ADD SWAP1 PUSH2 0x101 SWAP2 SWAP1 PUSH2 0x10B7 JUMP JUMPDEST PUSH2 0x59B JUMP JUMPDEST PUSH1 0x40 MLOAD PUSH2 0x114 SWAP3 SWAP2 SWAP1 PUSH2 0x1460 JUMP JUMPDEST PUSH1 0x40 MLOAD DUP1 SWAP2 SUB SWAP1 RETURN JUMPDEST PUSH2 0x137 PUSH1 0x4 DUP1 CALLDATASIZE SUB DUP2 ADD SWAP1 PUSH2 0x132 SWAP2 SWAP1 PUSH2 0x10B7 JUMP JUMPDEST PUSH2 0x677 JUMP JUMPDEST STOP JUMPDEST PUSH2 0x153 PUSH1 0x4 DUP1 CALLDATASIZE SUB DUP2 ADD SWAP1 PUSH2 0x14E SWAP2 SWAP1 PUSH2 0x10B7 JUMP JUMPDEST PUSH2 0x98D JUMP JUMPDEST STOP JUMPDEST PUSH2 0x15D PUSH2 0xB38 JUMP JUMPDEST PUSH1 0x40 MLOAD PUSH2 0x16A SWAP2 SWAP1 PUSH2 0x143E JUMP JUMPDEST PUSH1 0x40 MLOAD DUP1 SWAP2 SUB SWAP1 RETURN JUMPDEST PUSH1 0x0 PUSH1 0x20 MSTORE DUP1 PUSH1 0x0 MSTORE PUSH1 0x40 PUSH1 0x0 KECCAK256 PUSH1 0x0 SWAP2 POP SWAP1 POP SLOAD DUP2 JUMP JUMPDEST PUSH1 0x60 PUSH1 0x0 DUP1 JUMPDEST PUSH1 0x1 DUP1 SLOAD SWAP1 POP DUP2 LT ISZERO PUSH2 0x25F JUMPI PUSH1 0x0 PUSH20 0xFFFFFFFFFFFFFFFFFFFFFFFFFFFFFFFFFFFFFFFF AND PUSH1 0x1 DUP3 DUP2 SLOAD DUP2 LT PUSH2 0x1F0 JUMPI PUSH32 0x4E487B7100000000000000000000000000000000000000000000000000000000 PUSH1 0x0 MSTORE PUSH1 0x32 PUSH1 0x4 MSTORE PUSH1 0x24 PUSH1 0x0 REVERT JUMPDEST SWAP1 PUSH1 0x0 MSTORE PUSH1 0x20 PUSH1 0x0 KECCAK256 SWAP1 PUSH1 0x2 MUL ADD PUSH1 0x1 ADD PUSH1 0x0 SWAP1 SLOAD SWAP1 PUSH2 0x100 EXP SWAP1 DIV PUSH20 0xFFFFFFFFFFFFFFFFFFFFFFFFFFFFFFFFFFFFFFFF AND PUSH20 0xFFFFFFFFFFFFFFFFFFFFFFFFFFFFFFFFFFFFFFFF AND EQ PUSH2 0x24C JUMPI DUP2 DUP1 PUSH2 0x248 SWAP1 PUSH2 0x1718 JUMP JUMPDEST SWAP3 POP POP JUMPDEST DUP1 DUP1 PUSH2 0x257 SWAP1 PUSH2 0x1718 JUMP JUMPDEST SWAP2 POP POP PUSH2 0x191 JUMP JUMPDEST POP PUSH1 0x0 DUP2 PUSH8 0xFFFFFFFFFFFFFFFF DUP2 GT ISZERO PUSH2 0x2A2 JUMPI PUSH32 0x4E487B7100000000000000000000000000000000000000000000000000000000 PUSH1 0x0 MSTORE PUSH1 0x41 PUSH1 0x4 MSTORE PUSH1 0x24 PUSH1 0x0 REVERT JUMPDEST PUSH1 0x40 MLOAD SWAP1 DUP1 DUP3 MSTORE DUP1 PUSH1 0x20 MUL PUSH1 0x20 ADD DUP3 ADD PUSH1 0x40 MSTORE DUP1 ISZERO PUSH2 0x2DB JUMPI DUP2 PUSH1 0x20 ADD JUMPDEST PUSH2 0x2C8 PUSH2 0xEE8 JUMP JUMPDEST DUP2 MSTORE PUSH1 0x20 ADD SWAP1 PUSH1 0x1 SWAP1 SUB SWAP1 DUP2 PUSH2 0x2C0 JUMPI SWAP1 POP JUMPDEST POP SWAP1 POP PUSH1 0x0 DUP1 JUMPDEST PUSH1 0x1 DUP1 SLOAD SWAP1 POP DUP2 LT ISZERO PUSH2 0x48F JUMPI PUSH1 0x1 DUP2 DUP2 SLOAD DUP2 LT PUSH2 0x329 JUMPI PUSH32 0x4E487B7100000000000000000000000000000000000000000000000000000000 PUSH1 0x0 MSTORE PUSH1 0x32 PUSH1 0x4 MSTORE PUSH1 0x24 PUSH1 0x0 REVERT JUMPDEST SWAP1 PUSH1 0x0 MSTORE PUSH1 0x20 PUSH1 0x0 KECCAK256 SWAP1 PUSH1 0x2 MUL ADD PUSH1 0x40 MLOAD DUP1 PUSH1 0x40 ADD PUSH1 0x40 MSTORE SWAP1 DUP2 PUSH1 0x0 DUP3 ADD DUP1 SLOAD PUSH2 0x352 SWAP1 PUSH2 0x16E6 JUMP JUMPDEST DUP1 PUSH1 0x1F ADD PUSH1 0x20 DUP1 SWAP2 DIV MUL PUSH1 0x20 ADD PUSH1 0x40 MLOAD SWAP1 DUP2 ADD PUSH1 0x40 MSTORE DUP1 SWAP3 SWAP2 SWAP1 DUP2 DUP2 MSTORE PUSH1 0x20 ADD DUP3 DUP1 SLOAD PUSH2 0x37E SWAP1 PUSH2 0x16E6 JUMP JUMPDEST DUP1 ISZERO PUSH2 0x3CB JUMPI DUP1 PUSH1 0x1F LT PUSH2 0x3A0 JUMPI PUSH2 0x100 DUP1 DUP4 SLOAD DIV MUL DUP4 MSTORE SWAP2 PUSH1 0x20 ADD SWAP2 PUSH2 0x3CB JUMP JUMPDEST DUP3 ADD SWAP2 SWAP1 PUSH1 0x0 MSTORE PUSH1 0x20 PUSH1 0x0 KECCAK256 SWAP1 JUMPDEST DUP2 SLOAD DUP2 MSTORE SWAP1 PUSH1 0x1 ADD SWAP1 PUSH1 0x20 ADD DUP1 DUP4 GT PUSH2 0x3AE JUMPI DUP3 SWAP1 SUB PUSH1 0x1F AND DUP3 ADD SWAP2 JUMPDEST POP POP POP POP POP DUP2 MSTORE PUSH1 0x20 ADD PUSH1 0x1 DUP3 ADD PUSH1 0x0 SWAP1 SLOAD SWAP1 PUSH2 0x100 EXP SWAP1 DIV PUSH20 0xFFFFFFFFFFFFFFFFFFFFFFFFFFFFFFFFFFFFFFFF AND PUSH20 0xFFFFFFFFFFFFFFFFFFFFFFFFFFFFFFFFFFFFFFFF AND PUSH20 0xFFFFFFFFFFFFFFFFFFFFFFFFFFFFFFFFFFFFFFFF AND DUP2 MSTORE POP POP DUP4 DUP4 DUP2 MLOAD DUP2 LT PUSH2 0x463 JUMPI PUSH32 0x4E487B7100000000000000000000000000000000000000000000000000000000 PUSH1 0x0 MSTORE PUSH1 0x32 PUSH1 0x4 MSTORE PUSH1 0x24 PUSH1 0x0 REVERT JUMPDEST PUSH1 0x20 MUL PUSH1 0x20 ADD ADD DUP2 SWAP1 MSTORE POP DUP2 DUP1 PUSH2 0x479 SWAP1 PUSH2 0x1718 JUMP JUMPDEST SWAP3 POP POP DUP1 DUP1 PUSH2 0x487 SWAP1 PUSH2 0x1718 JUMP JUMPDEST SWAP2 POP POP PUSH2 0x2E2 JUMP JUMPDEST POP DUP2 SWAP4 POP POP POP POP SWAP1 JUMP JUMPDEST PUSH1 0x1 PUSH1 0x40 MLOAD DUP1 PUSH1 0x40 ADD PUSH1 0x40 MSTORE DUP1 DUP4 DUP2 MSTORE PUSH1 0x20 ADD PUSH1 0x0 PUSH20 0xFFFFFFFFFFFFFFFFFFFFFFFFFFFFFFFFFFFFFFFF AND DUP2 MSTORE POP SWAP1 DUP1 PUSH1 0x1 DUP2 SLOAD ADD DUP1 DUP3 SSTORE DUP1 SWAP2 POP POP PUSH1 0x1 SWAP1 SUB SWAP1 PUSH1 0x0 MSTORE PUSH1 0x20 PUSH1 0x0 KECCAK256 SWAP1 PUSH1 0x2 MUL ADD PUSH1 0x0 SWAP1 SWAP2 SWAP1 SWAP2 SWAP1 SWAP2 POP PUSH1 0x0 DUP3 ADD MLOAD DUP2 PUSH1 0x0 ADD SWAP1 DUP1 MLOAD SWAP1 PUSH1 0x20 ADD SWAP1 PUSH2 0x50C SWAP3 SWAP2 SWAP1 PUSH2 0xF18 JUMP JUMPDEST POP PUSH1 0x20 DUP3 ADD MLOAD DUP2 PUSH1 0x1 ADD PUSH1 0x0 PUSH2 0x100 EXP DUP2 SLOAD DUP2 PUSH20 0xFFFFFFFFFFFFFFFFFFFFFFFFFFFFFFFFFFFFFFFF MUL NOT AND SWAP1 DUP4 PUSH20 0xFFFFFFFFFFFFFFFFFFFFFFFFFFFFFFFFFFFFFFFF AND MUL OR SWAP1 SSTORE POP POP POP DUP1 PUSH1 0x40 MLOAD PUSH2 0x564 SWAP2 SWAP1 PUSH2 0x13F5 JUMP JUMPDEST PUSH1 0x40 MLOAD DUP1 SWAP2 SUB SWAP1 KECCAK256 PUSH32 0x389883C247948E6A90F461D8FEBCBC3D72029C3E696E10F6C68CBB65D7E23FC9 PUSH1 0x40 MLOAD PUSH1 0x40 MLOAD DUP1 SWAP2 SUB SWAP1 LOG2 POP JUMP JUMPDEST PUSH1 0x1 DUP2 DUP2 SLOAD DUP2 LT PUSH2 0x5AB JUMPI PUSH1 0x0 DUP1 REVERT JUMPDEST SWAP1 PUSH1 0x0 MSTORE PUSH1 0x20 PUSH1 0x0 KECCAK256 SWAP1 PUSH1 0x2 MUL ADD PUSH1 0x0 SWAP2 POP SWAP1 POP DUP1 PUSH1 0x0 ADD DUP1 SLOAD PUSH2 0x5CE SWAP1 PUSH2 0x16E6 JUMP JUMPDEST DUP1 PUSH1 0x1F ADD PUSH1 0x20 DUP1 SWAP2 DIV MUL PUSH1 0x20 ADD PUSH1 0x40 MLOAD SWAP1 DUP2 ADD PUSH1 0x40 MSTORE DUP1 SWAP3 SWAP2 SWAP1 DUP2 DUP2 MSTORE PUSH1 0x20 ADD DUP3 DUP1 SLOAD PUSH2 0x5FA SWAP1 PUSH2 0x16E6 JUMP JUMPDEST DUP1 ISZERO PUSH2 0x647 JUMPI DUP1 PUSH1 0x1F LT PUSH2 0x61C JUMPI PUSH2 0x100 DUP1 DUP4 SLOAD DIV MUL DUP4 MSTORE SWAP2 PUSH1 0x20 ADD SWAP2 PUSH2 0x647 JUMP JUMPDEST DUP3 ADD SWAP2 SWAP1 PUSH1 0x0 MSTORE PUSH1 0x20 PUSH1 0x0 KECCAK256 SWAP1 JUMPDEST DUP2 SLOAD DUP2 MSTORE SWAP1 PUSH1 0x1 ADD SWAP1 PUSH1 0x20 ADD DUP1 DUP4 GT PUSH2 0x62A JUMPI DUP3 SWAP1 SUB PUSH1 0x1F AND DUP3 ADD SWAP2 JUMPDEST POP POP POP POP POP SWAP1 DUP1 PUSH1 0x1 ADD PUSH1 0x0 SWAP1 SLOAD SWAP1 PUSH2 0x100 EXP SWAP1 DIV PUSH20 0xFFFFFFFFFFFFFFFFFFFFFFFFFFFFFFFFFFFFFFFF AND SWAP1 POP DUP3 JUMP JUMPDEST PUSH1 0x1 DUP1 SLOAD SWAP1 POP DUP2 LT PUSH2 0x6BE JUMPI PUSH1 0x40 MLOAD PUSH32 0x8C379A000000000000000000000000000000000000000000000000000000000 DUP2 MSTORE PUSH1 0x4 ADD PUSH2 0x6B5 SWAP1 PUSH2 0x14F0 JUMP JUMPDEST PUSH1 0x40 MLOAD DUP1 SWAP2 SUB SWAP1 REVERT JUMPDEST PUSH1 0x0 PUSH20 0xFFFFFFFFFFFFFFFFFFFFFFFFFFFFFFFFFFFFFFFF AND PUSH1 0x1 DUP3 DUP2 SLOAD DUP2 LT PUSH2 0x710 JUMPI PUSH32 0x4E487B7100000000000000000000000000000000000000000000000000000000 PUSH1 0x0 MSTORE PUSH1 0x32 PUSH1 0x4 MSTORE PUSH1 0x24 PUSH1 0x0 REVERT JUMPDEST SWAP1 PUSH1 0x0 MSTORE PUSH1 0x20 PUSH1 0x0 KECCAK256 SWAP1 PUSH1 0x2 MUL ADD PUSH1 0x1 ADD PUSH1 0x0 SWAP1 SLOAD SWAP1 PUSH2 0x100 EXP SWAP1 DIV PUSH20 0xFFFFFFFFFFFFFFFFFFFFFFFFFFFFFFFFFFFFFFFF AND PUSH20 0xFFFFFFFFFFFFFFFFFFFFFFFFFFFFFFFFFFFFFFFF AND EQ PUSH2 0x798 JUMPI PUSH1 0x40 MLOAD PUSH32 0x8C379A000000000000000000000000000000000000000000000000000000000 DUP2 MSTORE PUSH1 0x4 ADD PUSH2 0x78F SWAP1 PUSH2 0x14B0 JUMP JUMPDEST PUSH1 0x40 MLOAD DUP1 SWAP2 SUB SWAP1 REVERT JUMPDEST PUSH1 0x1 PUSH1 0x0 DUP1 CALLER PUSH20 0xFFFFFFFFFFFFFFFFFFFFFFFFFFFFFFFFFFFFFFFF AND PUSH20 0xFFFFFFFFFFFFFFFFFFFFFFFFFFFFFFFFFFFFFFFF AND DUP2 MSTORE PUSH1 0x20 ADD SWAP1 DUP2 MSTORE PUSH1 0x20 ADD PUSH1 0x0 KECCAK256 SLOAD EQ ISZERO PUSH2 0x81A JUMPI PUSH1 0x40 MLOAD PUSH32 0x8C379A000000000000000000000000000000000000000000000000000000000 DUP2 MSTORE PUSH1 0x4 ADD PUSH2 0x811 SWAP1 PUSH2 0x14D0 JUMP JUMPDEST PUSH1 0x40 MLOAD DUP1 SWAP2 SUB SWAP1 REVERT JUMPDEST CALLER PUSH1 0x1 DUP3 DUP2 SLOAD DUP2 LT PUSH2 0x855 JUMPI PUSH32 0x4E487B7100000000000000000000000000000000000000000000000000000000 PUSH1 0x0 MSTORE PUSH1 0x32 PUSH1 0x4 MSTORE PUSH1 0x24 PUSH1 0x0 REVERT JUMPDEST SWAP1 PUSH1 0x0 MSTORE PUSH1 0x20 PUSH1 0x0 KECCAK256 SWAP1 PUSH1 0x2 MUL ADD PUSH1 0x1 ADD PUSH1 0x0 PUSH2 0x100 EXP DUP2 SLOAD DUP2 PUSH20 0xFFFFFFFFFFFFFFFFFFFFFFFFFFFFFFFFFFFFFFFF MUL NOT AND SWAP1 DUP4 PUSH20 0xFFFFFFFFFFFFFFFFFFFFFFFFFFFFFFFFFFFFFFFF AND MUL OR SWAP1 SSTORE POP PUSH1 0x1 DUP2 PUSH2 0x8B1 SWAP2 SWAP1 PUSH2 0x1612 JUMP JUMPDEST PUSH1 0x0 DUP1 CALLER PUSH20 0xFFFFFFFFFFFFFFFFFFFFFFFFFFFFFFFFFFFFFFFF AND PUSH20 0xFFFFFFFFFFFFFFFFFFFFFFFFFFFFFFFFFFFFFFFF AND DUP2 MSTORE PUSH1 0x20 ADD SWAP1 DUP2 MSTORE PUSH1 0x20 ADD PUSH1 0x0 KECCAK256 DUP2 SWAP1 SSTORE POP PUSH1 0x1 DUP2 DUP2 SLOAD DUP2 LT PUSH2 0x92D JUMPI PUSH32 0x4E487B7100000000000000000000000000000000000000000000000000000000 PUSH1 0x0 MSTORE PUSH1 0x32 PUSH1 0x4 MSTORE PUSH1 0x24 PUSH1 0x0 REVERT JUMPDEST SWAP1 PUSH1 0x0 MSTORE PUSH1 0x20 PUSH1 0x0 KECCAK256 SWAP1 PUSH1 0x2 MUL ADD PUSH1 0x0 ADD PUSH1 0x40 MLOAD PUSH2 0x94B SWAP2 SWAP1 PUSH2 0x140C JUMP JUMPDEST PUSH1 0x40 MLOAD DUP1 SWAP2 SUB SWAP1 KECCAK256 PUSH32 0x4BD98B3223C39F335BC6F823093AB65D500345BEDA2BD23303AE81271E26810D CALLER PUSH1 0x40 MLOAD PUSH2 0x982 SWAP2 SWAP1 PUSH2 0x1423 JUMP JUMPDEST PUSH1 0x40 MLOAD DUP1 SWAP2 SUB SWAP1 LOG2 POP JUMP JUMPDEST PUSH1 0x1 DUP2 DUP2 SLOAD DUP2 LT PUSH2 0x9C7 JUMPI PUSH32 0x4E487B7100000000000000000000000000000000000000000000000000000000 PUSH1 0x0 MSTORE PUSH1 0x32 PUSH1 0x4 MSTORE PUSH1 0x24 PUSH1 0x0 REVERT JUMPDEST SWAP1 PUSH1 0x0 MSTORE PUSH1 0x20 PUSH1 0x0 KECCAK256 SWAP1 PUSH1 0x2 MUL ADD PUSH1 0x1 ADD PUSH1 0x0 SWAP1 SLOAD SWAP1 PUSH2 0x100 EXP SWAP1 DIV PUSH20 0xFFFFFFFFFFFFFFFFFFFFFFFFFFFFFFFFFFFFFFFF AND PUSH20 0xFFFFFFFFFFFFFFFFFFFFFFFFFFFFFFFFFFFFFFFF AND CALLER PUSH20 0xFFFFFFFFFFFFFFFFFFFFFFFFFFFFFFFFFFFFFFFF AND EQ PUSH2 0xA66 JUMPI PUSH1 0x40 MLOAD PUSH32 0x8C379A000000000000000000000000000000000000000000000000000000000 DUP2 MSTORE PUSH1 0x4 ADD PUSH2 0xA5D SWAP1 PUSH2 0x1490 JUMP JUMPDEST PUSH1 0x40 MLOAD DUP1 SWAP2 SUB SWAP1 REVERT JUMPDEST PUSH1 0x0 PUSH1 0x1 DUP3 DUP2 SLOAD DUP2 LT PUSH2 0xAA2 JUMPI PUSH32 0x4E487B7100000000000000000000000000000000000000000000000000000000 PUSH1 0x0 MSTORE PUSH1 0x32 PUSH1 0x4 MSTORE PUSH1 0x24 PUSH1 0x0 REVERT JUMPDEST SWAP1 PUSH1 0x0 MSTORE PUSH1 0x20 PUSH1 0x0 KECCAK256 SWAP1 PUSH1 0x2 MUL ADD PUSH1 0x1 ADD PUSH1 0x0 PUSH2 0x100 EXP DUP2 SLOAD DUP2 PUSH20 0xFFFFFFFFFFFFFFFFFFFFFFFFFFFFFFFFFFFFFFFF MUL NOT AND SWAP1 DUP4 PUSH20 0xFFFFFFFFFFFFFFFFFFFFFFFFFFFFFFFFFFFFFFFF AND MUL OR SWAP1 SSTORE POP PUSH1 0x0 DUP1 PUSH1 0x0 CALLER PUSH20 0xFFFFFFFFFFFFFFFFFFFFFFFFFFFFFFFFFFFFFFFF AND PUSH20 0xFFFFFFFFFFFFFFFFFFFFFFFFFFFFFFFFFFFFFFFF AND DUP2 MSTORE PUSH1 0x20 ADD SWAP1 DUP2 MSTORE PUSH1 0x20 ADD PUSH1 0x0 KECCAK256 DUP2 SWAP1 SSTORE POP POP JUMP JUMPDEST PUSH1 0x60 PUSH1 0x0 DUP1 JUMPDEST PUSH1 0x1 DUP1 SLOAD SWAP1 POP DUP2 LT ISZERO PUSH2 0xC0D JUMPI PUSH1 0x0 PUSH20 0xFFFFFFFFFFFFFFFFFFFFFFFFFFFFFFFFFFFFFFFF AND PUSH1 0x1 DUP3 DUP2 SLOAD DUP2 LT PUSH2 0xB9D JUMPI PUSH32 0x4E487B7100000000000000000000000000000000000000000000000000000000 PUSH1 0x0 MSTORE PUSH1 0x32 PUSH1 0x4 MSTORE PUSH1 0x24 PUSH1 0x0 REVERT JUMPDEST SWAP1 PUSH1 0x0 MSTORE PUSH1 0x20 PUSH1 0x0 KECCAK256 SWAP1 PUSH1 0x2 MUL ADD PUSH1 0x1 ADD PUSH1 0x0 SWAP1 SLOAD SWAP1 PUSH2 0x100 EXP SWAP1 DIV PUSH20 0xFFFFFFFFFFFFFFFFFFFFFFFFFFFFFFFFFFFFFFFF AND PUSH20 0xFFFFFFFFFFFFFFFFFFFFFFFFFFFFFFFFFFFFFFFF AND EQ ISZERO PUSH2 0xBFA JUMPI DUP2 DUP1 PUSH2 0xBF6 SWAP1 PUSH2 0x1718 JUMP JUMPDEST SWAP3 POP POP JUMPDEST DUP1 DUP1 PUSH2 0xC05 SWAP1 PUSH2 0x1718 JUMP JUMPDEST SWAP2 POP POP PUSH2 0xB3E JUMP JUMPDEST POP PUSH1 0x0 DUP2 PUSH8 0xFFFFFFFFFFFFFFFF DUP2 GT ISZERO PUSH2 0xC50 JUMPI PUSH32 0x4E487B7100000000000000000000000000000000000000000000000000000000 PUSH1 0x0 MSTORE PUSH1 0x41 PUSH1 0x4 MSTORE PUSH1 0x24 PUSH1 0x0 REVERT JUMPDEST PUSH1 0x40 MLOAD SWAP1 DUP1 DUP3 MSTORE DUP1 PUSH1 0x20 MUL PUSH1 0x20 ADD DUP3 ADD PUSH1 0x40 MSTORE DUP1 ISZERO PUSH2 0xC89 JUMPI DUP2 PUSH1 0x20 ADD JUMPDEST PUSH2 0xC76 PUSH2 0xEE8 JUMP JUMPDEST DUP2 MSTORE PUSH1 0x20 ADD SWAP1 PUSH1 0x1 SWAP1 SUB SWAP1 DUP2 PUSH2 0xC6E JUMPI SWAP1 POP JUMPDEST POP SWAP1 POP PUSH1 0x0 DUP1 JUMPDEST PUSH1 0x1 DUP1 SLOAD SWAP1 POP DUP2 LT ISZERO PUSH2 0xEDE JUMPI PUSH1 0x0 PUSH20 0xFFFFFFFFFFFFFFFFFFFFFFFFFFFFFFFFFFFFFFFF AND PUSH1 0x1 DUP3 DUP2 SLOAD DUP2 LT PUSH2 0xCEF JUMPI PUSH32 0x4E487B7100000000000000000000000000000000000000000000000000000000 PUSH1 0x0 MSTORE PUSH1 0x32 PUSH1 0x4 MSTORE PUSH1 0x24 PUSH1 0x0 REVERT JUMPDEST SWAP1 PUSH1 0x0 MSTORE PUSH1 0x20 PUSH1 0x0 KECCAK256 SWAP1 PUSH1 0x2 MUL ADD PUSH1 0x1 ADD PUSH1 0x0 SWAP1 SLOAD SWAP1 PUSH2 0x100 EXP SWAP1 DIV PUSH20 0xFFFFFFFFFFFFFFFFFFFFFFFFFFFFFFFFFFFFFFFF AND PUSH20 0xFFFFFFFFFFFFFFFFFFFFFFFFFFFFFFFFFFFFFFFF AND EQ ISZERO PUSH2 0xECB JUMPI PUSH1 0x1 DUP2 DUP2 SLOAD DUP2 LT PUSH2 0xD77 JUMPI PUSH32 0x4E487B7100000000000000000000000000000000000000000000000000000000 PUSH1 0x0 MSTORE PUSH1 0x32 PUSH1 0x4 MSTORE PUSH1 0x24 PUSH1 0x0 REVERT JUMPDEST SWAP1 PUSH1 0x0 MSTORE PUSH1 0x20 PUSH1 0x0 KECCAK256 SWAP1 PUSH1 0x2 MUL ADD PUSH1 0x40 MLOAD DUP1 PUSH1 0x40 ADD PUSH1 0x40 MSTORE SWAP1 DUP2 PUSH1 0x0 DUP3 ADD DUP1 SLOAD PUSH2 0xDA0 SWAP1 PUSH2 0x16E6 JUMP JUMPDEST DUP1 PUSH1 0x1F ADD PUSH1 0x20 DUP1 SWAP2 DIV MUL PUSH1 0x20 ADD PUSH1 0x40 MLOAD SWAP1 DUP2 ADD PUSH1 0x40 MSTORE DUP1 SWAP3 SWAP2 SWAP1 DUP2 DUP2 MSTORE PUSH1 0x20 ADD DUP3 DUP1 SLOAD PUSH2 0xDCC SWAP1 PUSH2 0x16E6 JUMP JUMPDEST DUP1 ISZERO PUSH2 0xE19 JUMPI DUP1 PUSH1 0x1F LT PUSH2 0xDEE JUMPI PUSH2 0x100 DUP1 DUP4 SLOAD DIV MUL DUP4 MSTORE SWAP2 PUSH1 0x20 ADD SWAP2 PUSH2 0xE19 JUMP JUMPDEST DUP3 ADD SWAP2 SWAP1 PUSH1 0x0 MSTORE PUSH1 0x20 PUSH1 0x0 KECCAK256 SWAP1 JUMPDEST DUP2 SLOAD DUP2 MSTORE SWAP1 PUSH1 0x1 ADD SWAP1 PUSH1 0x20 ADD DUP1 DUP4 GT PUSH2 0xDFC JUMPI DUP3 SWAP1 SUB PUSH1 0x1F AND DUP3 ADD SWAP2 JUMPDEST POP POP POP POP POP DUP2 MSTORE PUSH1 0x20 ADD PUSH1 0x1 DUP3 ADD PUSH1 0x0 SWAP1 SLOAD SWAP1 PUSH2 0x100 EXP SWAP1 DIV PUSH20 0xFFFFFFFFFFFFFFFFFFFFFFFFFFFFFFFFFFFFFFFF AND PUSH20 0xFFFFFFFFFFFFFFFFFFFFFFFFFFFFFFFFFFFFFFFF AND PUSH20 0xFFFFFFFFFFFFFFFFFFFFFFFFFFFFFFFFFFFFFFFF AND DUP2 MSTORE POP POP DUP4 DUP4 DUP2 MLOAD DUP2 LT PUSH2 0xEB1 JUMPI PUSH32 0x4E487B7100000000000000000000000000000000000000000000000000000000 PUSH1 0x0 MSTORE PUSH1 0x32 PUSH1 0x4 MSTORE PUSH1 0x24 PUSH1 0x0 REVERT JUMPDEST PUSH1 0x20 MUL PUSH1 0x20 ADD ADD DUP2 SWAP1 MSTORE POP DUP2 DUP1 PUSH2 0xEC7 SWAP1 PUSH2 0x1718 JUMP JUMPDEST SWAP3 POP POP JUMPDEST DUP1 DUP1 PUSH2 0xED6 SWAP1 PUSH2 0x1718 JUMP JUMPDEST SWAP2 POP POP PUSH2 0xC90 JUMP JUMPDEST POP DUP2 SWAP4 POP POP POP POP SWAP1 JUMP JUMPDEST PUSH1 0x40 MLOAD DUP1 PUSH1 0x40 ADD PUSH1 0x40 MSTORE DUP1 PUSH1 0x60 DUP2 MSTORE PUSH1 0x20 ADD PUSH1 0x0 PUSH20 0xFFFFFFFFFFFFFFFFFFFFFFFFFFFFFFFFFFFFFFFF AND DUP2 MSTORE POP SWAP1 JUMP JUMPDEST DUP3 DUP1 SLOAD PUSH2 0xF24 SWAP1 PUSH2 0x16E6 JUMP JUMPDEST SWAP1 PUSH1 0x0 MSTORE PUSH1 0x20 PUSH1 0x0 KECCAK256 SWAP1 PUSH1 0x1F ADD PUSH1 0x20 SWAP1 DIV DUP2 ADD SWAP3 DUP3 PUSH2 0xF46 JUMPI PUSH1 0x0 DUP6 SSTORE PUSH2 0xF8D JUMP JUMPDEST DUP3 PUSH1 0x1F LT PUSH2 0xF5F JUMPI DUP1 MLOAD PUSH1 0xFF NOT AND DUP4 DUP1 ADD OR DUP6 SSTORE PUSH2 0xF8D JUMP JUMPDEST DUP3 DUP1 ADD PUSH1 0x1 ADD DUP6 SSTORE DUP3 ISZERO PUSH2 0xF8D JUMPI SWAP2 DUP3 ADD JUMPDEST DUP3 DUP2 GT ISZERO PUSH2 0xF8C JUMPI DUP3 MLOAD DUP3 SSTORE SWAP2 PUSH1 0x20 ADD SWAP2 SWAP1 PUSH1 0x1 ADD SWAP1 PUSH2 0xF71 JUMP JUMPDEST JUMPDEST POP SWAP1 POP PUSH2 0xF9A SWAP2 SWAP1 PUSH2 0xF9E JUMP JUMPDEST POP SWAP1 JUMP JUMPDEST JUMPDEST DUP1 DUP3 GT ISZERO PUSH2 0xFB7 JUMPI PUSH1 0x0 DUP2 PUSH1 0x0 SWAP1 SSTORE POP PUSH1 0x1 ADD PUSH2 0xF9F JUMP JUMPDEST POP SWAP1 JUMP JUMPDEST PUSH1 0x0 PUSH2 0xFCE PUSH2 0xFC9 DUP5 PUSH2 0x155C JUMP JUMPDEST PUSH2 0x152B JUMP JUMPDEST SWAP1 POP DUP3 DUP2 MSTORE PUSH1 0x20 DUP2 ADD DUP5 DUP5 DUP5 ADD GT ISZERO PUSH2 0xFE6 JUMPI PUSH1 0x0 DUP1 REVERT JUMPDEST PUSH2 0xFF1 DUP5 DUP3 DUP6 PUSH2 0x16A4 JUMP JUMPDEST POP SWAP4 SWAP3 POP POP POP JUMP JUMPDEST PUSH1 0x0 DUP2 CALLDATALOAD SWAP1 POP PUSH2 0x1008 DUP2 PUSH2 0x17FF JUMP JUMPDEST SWAP3 SWAP2 POP POP JUMP JUMPDEST PUSH1 0x0 DUP3 PUSH1 0x1F DUP4 ADD SLT PUSH2 0x101F JUMPI PUSH1 0x0 DUP1 REVERT JUMPDEST DUP2 CALLDATALOAD PUSH2 0x102F DUP5 DUP3 PUSH1 0x20 DUP7 ADD PUSH2 0xFBB JUMP JUMPDEST SWAP2 POP POP SWAP3 SWAP2 POP POP JUMP JUMPDEST PUSH1 0x0 DUP2 CALLDATALOAD SWAP1 POP PUSH2 0x1047 DUP2 PUSH2 0x1816 JUMP JUMPDEST SWAP3 SWAP2 POP POP JUMP JUMPDEST PUSH1 0x0 PUSH1 0x20 DUP3 DUP5 SUB SLT ISZERO PUSH2 0x105F JUMPI PUSH1 0x0 DUP1 REVERT JUMPDEST PUSH1 0x0 PUSH2 0x106D DUP5 DUP3 DUP6 ADD PUSH2 0xFF9 JUMP JUMPDEST SWAP2 POP POP SWAP3 SWAP2 POP POP JUMP JUMPDEST PUSH1 0x0 PUSH1 0x20 DUP3 DUP5 SUB SLT ISZERO PUSH2 0x1088 JUMPI PUSH1 0x0 DUP1 REVERT JUMPDEST PUSH1 0x0 DUP3 ADD CALLDATALOAD PUSH8 0xFFFFFFFFFFFFFFFF DUP2 GT ISZERO PUSH2 0x10A2 JUMPI PUSH1 0x0 DUP1 REVERT JUMPDEST PUSH2 0x10AE DUP5 DUP3 DUP6 ADD PUSH2 0x100E JUMP JUMPDEST SWAP2 POP POP SWAP3 SWAP2 POP POP JUMP JUMPDEST PUSH1 0x0 PUSH1 0x20 DUP3 DUP5 SUB SLT ISZERO PUSH2 0x10C9 JUMPI PUSH1 0x0 DUP1 REVERT JUMPDEST PUSH1 0x0 PUSH2 0x10D7 DUP5 DUP3 DUP6 ADD PUSH2 0x1038 JUMP JUMPDEST SWAP2 POP POP SWAP3 SWAP2 POP POP JUMP JUMPDEST PUSH1 0x0 PUSH2 0x10EC DUP4 DUP4 PUSH2 0x13A9 JUMP JUMPDEST SWAP1 POP SWAP3 SWAP2 POP POP JUMP JUMPDEST PUSH2 0x10FD DUP2 PUSH2 0x1668 JUMP JUMPDEST DUP3 MSTORE POP POP JUMP JUMPDEST PUSH2 0x110C DUP2 PUSH2 0x1668 JUMP JUMPDEST DUP3 MSTORE POP POP JUMP JUMPDEST PUSH1 0x0 PUSH2 0x111D DUP3 PUSH2 0x15B1 JUMP JUMPDEST PUSH2 0x1127 DUP2 DUP6 PUSH2 0x15D4 JUMP JUMPDEST SWAP4 POP DUP4 PUSH1 0x20 DUP3 MUL DUP6 ADD PUSH2 0x1139 DUP6 PUSH2 0x158C JUMP JUMPDEST DUP1 PUSH1 0x0 JUMPDEST DUP6 DUP2 LT ISZERO PUSH2 0x1175 JUMPI DUP5 DUP5 SUB DUP10 MSTORE DUP2 MLOAD PUSH2 0x1156 DUP6 DUP3 PUSH2 0x10E0 JUMP JUMPDEST SWAP5 POP PUSH2 0x1161 DUP4 PUSH2 0x15C7 JUMP JUMPDEST SWAP3 POP PUSH1 0x20 DUP11 ADD SWAP10 POP POP PUSH1 0x1 DUP2 ADD SWAP1 POP PUSH2 0x113D JUMP JUMPDEST POP DUP3 SWAP8 POP DUP8 SWAP6 POP POP POP POP POP POP SWAP3 SWAP2 POP POP JUMP JUMPDEST PUSH1 0x0 PUSH2 0x1192 DUP3 PUSH2 0x15BC JUMP JUMPDEST PUSH2 0x119C DUP2 DUP6 PUSH2 0x15E5 JUMP JUMPDEST SWAP4 POP PUSH2 0x11AC DUP2 DUP6 PUSH1 0x20 DUP7 ADD PUSH2 0x16B3 JUMP JUMPDEST PUSH2 0x11B5 DUP2 PUSH2 0x17EE JUMP JUMPDEST DUP5 ADD SWAP2 POP POP SWAP3 SWAP2 POP POP JUMP JUMPDEST PUSH1 0x0 PUSH2 0x11CB DUP3 PUSH2 0x15BC JUMP JUMPDEST PUSH2 0x11D5 DUP2 DUP6 PUSH2 0x15F6 JUMP JUMPDEST SWAP4 POP PUSH2 0x11E5 DUP2 DUP6 PUSH1 0x20 DUP7 ADD PUSH2 0x16B3 JUMP JUMPDEST PUSH2 0x11EE DUP2 PUSH2 0x17EE JUMP JUMPDEST DUP5 ADD SWAP2 POP POP SWAP3 SWAP2 POP POP JUMP JUMPDEST PUSH1 0x0 PUSH2 0x1204 DUP3 PUSH2 0x15BC JUMP JUMPDEST PUSH2 0x120E DUP2 DUP6 PUSH2 0x1607 JUMP JUMPDEST SWAP4 POP PUSH2 0x121E DUP2 DUP6 PUSH1 0x20 DUP7 ADD PUSH2 0x16B3 JUMP JUMPDEST DUP1 DUP5 ADD SWAP2 POP POP SWAP3 SWAP2 POP POP JUMP JUMPDEST PUSH1 0x0 DUP2 SLOAD PUSH2 0x1237 DUP2 PUSH2 0x16E6 JUMP JUMPDEST PUSH2 0x1241 DUP2 DUP7 PUSH2 0x1607 JUMP JUMPDEST SWAP5 POP PUSH1 0x1 DUP3 AND PUSH1 0x0 DUP2 EQ PUSH2 0x125C JUMPI PUSH1 0x1 DUP2 EQ PUSH2 0x126D JUMPI PUSH2 0x12A0 JUMP JUMPDEST PUSH1 0xFF NOT DUP4 AND DUP7 MSTORE DUP2 DUP7 ADD SWAP4 POP PUSH2 0x12A0 JUMP JUMPDEST PUSH2 0x1276 DUP6 PUSH2 0x159C JUMP JUMPDEST PUSH1 0x0 JUMPDEST DUP4 DUP2 LT ISZERO PUSH2 0x1298 JUMPI DUP2 SLOAD DUP2 DUP10 ADD MSTORE PUSH1 0x1 DUP3 ADD SWAP2 POP PUSH1 0x20 DUP2 ADD SWAP1 POP PUSH2 0x1279 JUMP JUMPDEST DUP4 DUP9 ADD SWAP6 POP POP POP JUMPDEST POP POP POP SWAP3 SWAP2 POP POP JUMP JUMPDEST PUSH1 0x0 PUSH2 0x12B6 PUSH1 0x16 DUP4 PUSH2 0x15F6 JUMP JUMPDEST SWAP2 POP PUSH32 0x4F6E6C79206F776E65722063616E2072657475726E2100000000000000000000 PUSH1 0x0 DUP4 ADD MSTORE PUSH1 0x20 DUP3 ADD SWAP1 POP SWAP2 SWAP1 POP JUMP JUMPDEST PUSH1 0x0 PUSH2 0x12F6 PUSH1 0x13 DUP4 PUSH2 0x15F6 JUMP JUMPDEST SWAP2 POP PUSH32 0x426F6F6B20616C72656164792074616B656E2100000000000000000000000000 PUSH1 0x0 DUP4 ADD MSTORE PUSH1 0x20 DUP3 ADD SWAP1 POP SWAP2 SWAP1 POP JUMP JUMPDEST PUSH1 0x0 PUSH2 0x1336 PUSH1 0x1A DUP4 PUSH2 0x15F6 JUMP JUMPDEST SWAP2 POP PUSH32 0x5527766520616C72656164792074616B656E206120626F6F6B21000000000000 PUSH1 0x0 DUP4 ADD MSTORE PUSH1 0x20 DUP3 ADD SWAP1 POP SWAP2 SWAP1 POP JUMP JUMPDEST PUSH1 0x0 PUSH2 0x1376 PUSH1 0x8 DUP4 PUSH2 0x15F6 JUMP JUMPDEST SWAP2 POP PUSH32 0x57726F6E67204944000000000000000000000000000000000000000000000000 PUSH1 0x0 DUP4 ADD MSTORE PUSH1 0x20 DUP3 ADD SWAP1 POP SWAP2 SWAP1 POP JUMP JUMPDEST PUSH1 0x0 PUSH1 0x40 DUP4 ADD PUSH1 0x0 DUP4 ADD MLOAD DUP5 DUP3 SUB PUSH1 0x0 DUP7 ADD MSTORE PUSH2 0x13C6 DUP3 DUP3 PUSH2 0x1187 JUMP JUMPDEST SWAP2 POP POP PUSH1 0x20 DUP4 ADD MLOAD PUSH2 0x13DB PUSH1 0x20 DUP7 ADD DUP3 PUSH2 0x10F4 JUMP JUMPDEST POP DUP1 SWAP2 POP POP SWAP3 SWAP2 POP POP JUMP JUMPDEST PUSH2 0x13EF DUP2 PUSH2 0x169A JUMP JUMPDEST DUP3 MSTORE POP POP JUMP JUMPDEST PUSH1 0x0 PUSH2 0x1401 DUP3 DUP5 PUSH2 0x11F9 JUMP JUMPDEST SWAP2 POP DUP2 SWAP1 POP SWAP3 SWAP2 POP POP JUMP JUMPDEST PUSH1 0x0 PUSH2 0x1418 DUP3 DUP5 PUSH2 0x122A JUMP JUMPDEST SWAP2 POP DUP2 SWAP1 POP SWAP3 SWAP2 POP POP JUMP JUMPDEST PUSH1 0x0 PUSH1 0x20 DUP3 ADD SWAP1 POP PUSH2 0x1438 PUSH1 0x0 DUP4 ADD DUP5 PUSH2 0x1103 JUMP JUMPDEST SWAP3 SWAP2 POP POP JUMP JUMPDEST PUSH1 0x0 PUSH1 0x20 DUP3 ADD SWAP1 POP DUP2 DUP2 SUB PUSH1 0x0 DUP4 ADD MSTORE PUSH2 0x1458 DUP2 DUP5 PUSH2 0x1112 JUMP JUMPDEST SWAP1 POP SWAP3 SWAP2 POP POP JUMP JUMPDEST PUSH1 0x0 PUSH1 0x40 DUP3 ADD SWAP1 POP DUP2 DUP2 SUB PUSH1 0x0 DUP4 ADD MSTORE PUSH2 0x147A DUP2 DUP6 PUSH2 0x11C0 JUMP JUMPDEST SWAP1 POP PUSH2 0x1489 PUSH1 0x20 DUP4 ADD DUP5 PUSH2 0x1103 JUMP JUMPDEST SWAP4 SWAP3 POP POP POP JUMP JUMPDEST PUSH1 0x0 PUSH1 0x20 DUP3 ADD SWAP1 POP DUP2 DUP2 SUB PUSH1 0x0 DUP4 ADD MSTORE PUSH2 0x14A9 DUP2 PUSH2 0x12A9 JUMP JUMPDEST SWAP1 POP SWAP2 SWAP1 POP JUMP JUMPDEST PUSH1 0x0 PUSH1 0x20 DUP3 ADD SWAP1 POP DUP2 DUP2 SUB PUSH1 0x0 DUP4 ADD MSTORE PUSH2 0x14C9 DUP2 PUSH2 0x12E9 JUMP JUMPDEST SWAP1 POP SWAP2 SWAP1 POP JUMP JUMPDEST PUSH1 0x0 PUSH1 0x20 DUP3 ADD SWAP1 POP DUP2 DUP2 SUB PUSH1 0x0 DUP4 ADD MSTORE PUSH2 0x14E9 DUP2 PUSH2 0x1329 JUMP JUMPDEST SWAP1 POP SWAP2 SWAP1 POP JUMP JUMPDEST PUSH1 0x0 PUSH1 0x20 DUP3 ADD SWAP1 POP DUP2 DUP2 SUB PUSH1 0x0 DUP4 ADD MSTORE PUSH2 0x1509 DUP2 PUSH2 0x1369 JUMP JUMPDEST SWAP1 POP SWAP2 SWAP1 POP JUMP JUMPDEST PUSH1 0x0 PUSH1 0x20 DUP3 ADD SWAP1 POP PUSH2 0x1525 PUSH1 0x0 DUP4 ADD DUP5 PUSH2 0x13E6 JUMP JUMPDEST SWAP3 SWAP2 POP POP JUMP JUMPDEST PUSH1 0x0 PUSH1 0x40 MLOAD SWAP1 POP DUP2 DUP2 ADD DUP2 DUP2 LT PUSH8 0xFFFFFFFFFFFFFFFF DUP3 GT OR ISZERO PUSH2 0x1552 JUMPI PUSH2 0x1551 PUSH2 0x17BF JUMP JUMPDEST JUMPDEST DUP1 PUSH1 0x40 MSTORE POP SWAP2 SWAP1 POP JUMP JUMPDEST PUSH1 0x0 PUSH8 0xFFFFFFFFFFFFFFFF DUP3 GT ISZERO PUSH2 0x1577 JUMPI PUSH2 0x1576 PUSH2 0x17BF JUMP JUMPDEST JUMPDEST PUSH1 0x1F NOT PUSH1 0x1F DUP4 ADD AND SWAP1 POP PUSH1 0x20 DUP2 ADD SWAP1 POP SWAP2 SWAP1 POP JUMP JUMPDEST PUSH1 0x0 DUP2 SWAP1 POP PUSH1 0x20 DUP3 ADD SWAP1 POP SWAP2 SWAP1 POP JUMP JUMPDEST PUSH1 0x0 DUP2 SWAP1 POP DUP2 PUSH1 0x0 MSTORE PUSH1 0x20 PUSH1 0x0 KECCAK256 SWAP1 POP SWAP2 SWAP1 POP JUMP JUMPDEST PUSH1 0x0 DUP2 MLOAD SWAP1 POP SWAP2 SWAP1 POP JUMP JUMPDEST PUSH1 0x0 DUP2 MLOAD SWAP1 POP SWAP2 SWAP1 POP JUMP JUMPDEST PUSH1 0x0 PUSH1 0x20 DUP3 ADD SWAP1 POP SWAP2 SWAP1 POP JUMP JUMPDEST PUSH1 0x0 DUP3 DUP3 MSTORE PUSH1 0x20 DUP3 ADD SWAP1 POP SWAP3 SWAP2 POP POP JUMP JUMPDEST PUSH1 0x0 DUP3 DUP3 MSTORE PUSH1 0x20 DUP3 ADD SWAP1 POP SWAP3 SWAP2 POP POP JUMP JUMPDEST PUSH1 0x0 DUP3 DUP3 MSTORE PUSH1 0x20 DUP3 ADD SWAP1 POP SWAP3 SWAP2 POP POP JUMP JUMPDEST PUSH1 0x0 DUP2 SWAP1 POP SWAP3 SWAP2 POP POP JUMP JUMPDEST PUSH1 0x0 PUSH2 0x161D DUP3 PUSH2 0x169A JUMP JUMPDEST SWAP2 POP PUSH2 0x1628 DUP4 PUSH2 0x169A JUMP JUMPDEST SWAP3 POP DUP3 PUSH32 0xFFFFFFFFFFFFFFFFFFFFFFFFFFFFFFFFFFFFFFFFFFFFFFFFFFFFFFFFFFFFFFFF SUB DUP3 GT ISZERO PUSH2 0x165D JUMPI PUSH2 0x165C PUSH2 0x1761 JUMP JUMPDEST JUMPDEST DUP3 DUP3 ADD SWAP1 POP SWAP3 SWAP2 POP POP JUMP JUMPDEST PUSH1 0x0 PUSH2 0x1673 DUP3 PUSH2 0x167A JUMP JUMPDEST SWAP1 POP SWAP2 SWAP1 POP JUMP JUMPDEST PUSH1 0x0 PUSH20 0xFFFFFFFFFFFFFFFFFFFFFFFFFFFFFFFFFFFFFFFF DUP3 AND SWAP1 POP SWAP2 SWAP1 POP JUMP JUMPDEST PUSH1 0x0 DUP2 SWAP1 POP SWAP2 SWAP1 POP JUMP JUMPDEST DUP3 DUP2 DUP4 CALLDATACOPY PUSH1 0x0 DUP4 DUP4 ADD MSTORE POP POP POP JUMP JUMPDEST PUSH1 0x0 JUMPDEST DUP4 DUP2 LT ISZERO PUSH2 0x16D1 JUMPI DUP1 DUP3 ADD MLOAD DUP2 DUP5 ADD MSTORE PUSH1 0x20 DUP2 ADD SWAP1 POP PUSH2 0x16B6 JUMP JUMPDEST DUP4 DUP2 GT ISZERO PUSH2 0x16E0 JUMPI PUSH1 0x0 DUP5 DUP5 ADD MSTORE JUMPDEST POP POP POP POP JUMP JUMPDEST PUSH1 0x0 PUSH1 0x2 DUP3 DIV SWAP1 POP PUSH1 0x1 DUP3 AND DUP1 PUSH2 0x16FE JUMPI PUSH1 0x7F DUP3 AND SWAP2 POP JUMPDEST PUSH1 0x20 DUP3 LT DUP2 EQ ISZERO PUSH2 0x1712 JUMPI PUSH2 0x1711 PUSH2 0x1790 JUMP JUMPDEST JUMPDEST POP SWAP2 SWAP1 POP JUMP JUMPDEST PUSH1 0x0 PUSH2 0x1723 DUP3 PUSH2 0x169A JUMP JUMPDEST SWAP2 POP PUSH32 0xFFFFFFFFFFFFFFFFFFFFFFFFFFFFFFFFFFFFFFFFFFFFFFFFFFFFFFFFFFFFFFFF DUP3 EQ ISZERO PUSH2 0x1756 JUMPI PUSH2 0x1755 PUSH2 0x1761 JUMP JUMPDEST JUMPDEST PUSH1 0x1 DUP3 ADD SWAP1 POP SWAP2 SWAP1 POP JUMP JUMPDEST PUSH32 0x4E487B7100000000000000000000000000000000000000000000000000000000 PUSH1 0x0 MSTORE PUSH1 0x11 PUSH1 0x4 MSTORE PUSH1 0x24 PUSH1 0x0 REVERT JUMPDEST PUSH32 0x4E487B7100000000000000000000000000000000000000000000000000000000 PUSH1 0x0 MSTORE PUSH1 0x22 PUSH1 0x4 MSTORE PUSH1 0x24 PUSH1 0x0 REVERT JUMPDEST PUSH32 0x4E487B7100000000000000000000000000000000000000000000000000000000 PUSH1 0x0 MSTORE PUSH1 0x41 PUSH1 0x4 MSTORE PUSH1 0x24 PUSH1 0x0 REVERT JUMPDEST PUSH1 0x0 PUSH1 0x1F NOT PUSH1 0x1F DUP4 ADD AND SWAP1 POP SWAP2 SWAP1 POP JUMP JUMPDEST PUSH2 0x1808 DUP2 PUSH2 0x1668 JUMP JUMPDEST DUP2 EQ PUSH2 0x1813 JUMPI PUSH1 0x0 DUP1 REVERT JUMPDEST POP JUMP JUMPDEST PUSH2 0x181F DUP2 PUSH2 0x169A JUMP JUMPDEST DUP2 EQ PUSH2 0x182A JUMPI PUSH1 0x0 DUP1 REVERT JUMPDEST POP JUMP INVALID LOG2 PUSH5 0x6970667358 0x22 SLT KECCAK256 SELFBALANCE 0x25 0xF CODECOPY DIFFICULTY SIGNEXTEND SMOD LOG0 0x4D PUSH8 0xDBAD8B0733478ADD 0xD2 DUP12 0x4A 0xE6 ADDRESS RETURNDATACOPY CALLER 0x24 REVERT PUSH12 0xB8715CBF64736F6C63430008 STOP STOP CALLER "
				},
				"gasEstimates": {
					"creation": {
						"codeDepositCost": "1248600",
						"executionCost": "1302",
						"totalCost": "1249902"
					},
					"external": {
						"addBook(string)": "infinite",
						"allReservedBooks()": "infinite",
						"bookOwner(address)": "1515",
						"books(uint256)": "infinite",
						"borrowBook(uint256)": "infinite",
						"getAvailableBook()": "infinite",
						"returnBook(uint256)": "29084"
					}
				},
				"methodIdentifiers": {
					"addBook(string)": "3bc5f48a",
					"allReservedBooks()": "057e11c9",
					"bookOwner(address)": "03d24c49",
					"books(uint256)": "68744046",
					"borrowBook(uint256)": "7e490a9e",
					"getAvailableBook()": "e35d207c",
					"returnBook(uint256)": "ca5140c9"
				}
			},
			"storageLayout": {
				"storage": [
					{
						"astId": 5,
						"contract": "LibraryStorage/LibraryStorage.sol:LibraryStorage",
						"label": "bookOwner",
						"offset": 0,
						"slot": "0",
						"type": "t_mapping(t_address,t_uint256)"
					},
					{
						"astId": 14,
						"contract": "LibraryStorage/LibraryStorage.sol:LibraryStorage",
						"label": "books",
						"offset": 0,
						"slot": "1",
						"type": "t_array(t_struct(Book)10_storage)dyn_storage"
					}
				],
				"types": {
					"t_address": {
						"encoding": "inplace",
						"label": "address",
						"numberOfBytes": "20"
					},
					"t_array(t_struct(Book)10_storage)dyn_storage": {
						"base": "t_struct(Book)10_storage",
						"encoding": "dynamic_array",
						"label": "struct LibraryStorage.Book[]",
						"numberOfBytes": "32"
					},
					"t_mapping(t_address,t_uint256)": {
						"encoding": "mapping",
						"key": "t_address",
						"label": "mapping(address => uint256)",
						"numberOfBytes": "32",
						"value": "t_uint256"
					},
					"t_string_storage": {
						"encoding": "bytes",
						"label": "string",
						"numberOfBytes": "32"
					},
					"t_struct(Book)10_storage": {
						"encoding": "inplace",
						"label": "struct LibraryStorage.Book",
						"members": [
							{
								"astId": 7,
								"contract": "LibraryStorage/LibraryStorage.sol:LibraryStorage",
								"label": "bookName",
								"offset": 0,
								"slot": "0",
								"type": "t_string_storage"
							},
							{
								"astId": 9,
								"contract": "LibraryStorage/LibraryStorage.sol:LibraryStorage",
								"label": "owner",
								"offset": 0,
								"slot": "1",
								"type": "t_address"
							}
						],
						"numberOfBytes": "64"
					},
					"t_uint256": {
						"encoding": "inplace",
						"label": "uint256",
						"numberOfBytes": "32"
					}
				}
			},
			"userdoc": {
				"kind": "user",
				"methods": {},
				"version": 1
			}
		}
	}
}