{
  "_format": "hh-sol-artifact-1",
  "contractName": "Counter",
  "sourceName": "contracts/Counter.sol",
  "abi": [
    {
      "inputs": [],
      "name": "count",
      "outputs": [
        {
          "internalType": "uint256",
          "name": "",
          "type": "uint256"
        }
      ],
      "stateMutability": "view",
      "type": "function"
    },
    {
      "inputs": [],
      "name": "decrement",
      "outputs": [],
      "stateMutability": "nonpayable",
      "type": "function"
    },
    {
      "inputs": [],
      "name": "increment",
      "outputs": [],
      "stateMutability": "nonpayable",
      "type": "function"
    },
    {
      "inputs": [],
      "name": "reset",
      "outputs": [],
      "stateMutability": "nonpayable",
      "type": "function"
    }
  ],
  "bytecode": "0x6080604052348015600f57600080fd5b506102948061001f6000396000f3fe608060405234801561001057600080fd5b506004361061004c5760003560e01c806306661abd146100515780632baeceb71461006f578063d09de08a14610079578063d826f88f14610083575b600080fd5b61005961008d565b604051610066919061012f565b60405180910390f35b610077610093565b005b6100816100f2565b005b61008b61010d565b005b60005481565b60008054116100d7576040517f08c379a00000000000000000000000000000000000000000000000000000000081526004016100ce906101a7565b60405180910390fd5b60016000808282546100e991906101f6565b92505081905550565b6001600080828254610104919061022a565b92505081905550565b60008081905550565b6000819050919050565b61012981610116565b82525050565b60006020820190506101446000830184610120565b92915050565b600082825260208201905092915050565b7f636f756e74206d757374206265203e2030000000000000000000000000000000600082015250565b600061019160118361014a565b915061019c8261015b565b602082019050919050565b600060208201905081810360008301526101c081610184565b9050919050565b7f4e487b7100000000000000000000000000000000000000000000000000000000600052601160045260246000fd5b600061020182610116565b915061020c83610116565b9250828203905081811115610224576102236101c7565b5b92915050565b600061023582610116565b915061024083610116565b9250828201905080821115610258576102576101c7565b5b9291505056fea2646970667358221220ce9e87a6c8f1063c08a423ee9be3620f4988e73ef5cd567918f7872d6ce6b09a64736f6c634300081d0033",
  "linkReferences": {},
  "deployedLinkReferences": {}
}