{
  "_format": "hh-sol-artifact-1",
  "contractName": "TestProject",
  "sourceName": "contracts/TestProject.sol",
  "abi": [
    {
      "inputs": [
        {
          "internalType": "address",
          "name": "_fundAddress",
          "type": "address"
        }
      ],
      "stateMutability": "nonpayable",
      "type": "constructor"
    },
    {
      "inputs": [],
      "name": "projectFundAddress",
      "outputs": [
        {
          "internalType": "address",
          "name": "",
          "type": "address"
        }
      ],
      "stateMutability": "view",
      "type": "function"
    },
    {
      "inputs": [
        {
          "internalType": "string",
          "name": "_projectName",
          "type": "string"
        },
        {
          "internalType": "string",
          "name": "_message",
          "type": "string"
        }
      ],
      "name": "proxyDonate",
      "outputs": [],
      "stateMutability": "payable",
      "type": "function"
    }
  ],
  "bytecode": "0x608060405234801561001057600080fd5b5060405161060b38038061060b833981810160405281019061003291906100db565b806000806101000a81548173ffffffffffffffffffffffffffffffffffffffff021916908373ffffffffffffffffffffffffffffffffffffffff16021790555050610108565b600080fd5b600073ffffffffffffffffffffffffffffffffffffffff82169050919050565b60006100a88261007d565b9050919050565b6100b88161009d565b81146100c357600080fd5b50565b6000815190506100d5816100af565b92915050565b6000602082840312156100f1576100f0610078565b5b60006100ff848285016100c6565b91505092915050565b6104f4806101176000396000f3fe6080604052600436106100295760003560e01c806313c5d7a91461002e5780637d2dcaae14610059575b600080fd5b34801561003a57600080fd5b50610043610075565b60405161005091906101af565b60405180910390f35b610073600480360381019061006e9190610324565b610099565b005b60008054906101000a900473ffffffffffffffffffffffffffffffffffffffff1681565b600034116100dc576040517f08c379a00000000000000000000000000000000000000000000000000000000081526004016100d3906103f9565b60405180910390fd5b60008054906101000a900473ffffffffffffffffffffffffffffffffffffffff1673ffffffffffffffffffffffffffffffffffffffff16630319e9c53484846040518463ffffffff1660e01b8152600401610138929190610487565b6000604051808303818588803b15801561015157600080fd5b505af1158015610165573d6000803e3d6000fd5b50505050505050565b600073ffffffffffffffffffffffffffffffffffffffff82169050919050565b60006101998261016e565b9050919050565b6101a98161018e565b82525050565b60006020820190506101c460008301846101a0565b92915050565b6000604051905090565b600080fd5b600080fd5b600080fd5b600080fd5b6000601f19601f8301169050919050565b7f4e487b7100000000000000000000000000000000000000000000000000000000600052604160045260246000fd5b610231826101e8565b810181811067ffffffffffffffff821117156102505761024f6101f9565b5b80604052505050565b60006102636101ca565b905061026f8282610228565b919050565b600067ffffffffffffffff82111561028f5761028e6101f9565b5b610298826101e8565b9050602081019050919050565b82818337600083830152505050565b60006102c76102c284610274565b610259565b9050828152602081018484840111156102e3576102e26101e3565b5b6102ee8482856102a5565b509392505050565b600082601f83011261030b5761030a6101de565b5b813561031b8482602086016102b4565b91505092915050565b6000806040838503121561033b5761033a6101d4565b5b600083013567ffffffffffffffff811115610359576103586101d9565b5b610365858286016102f6565b925050602083013567ffffffffffffffff811115610386576103856101d9565b5b610392858286016102f6565b9150509250929050565b600082825260208201905092915050565b7f75206e65656420746f2068617665206574680000000000000000000000000000600082015250565b60006103e360128361039c565b91506103ee826103ad565b602082019050919050565b60006020820190508181036000830152610412816103d6565b9050919050565b600081519050919050565b60005b83811015610442578082015181840152602081019050610427565b60008484015250505050565b600061045982610419565b610463818561039c565b9350610473818560208601610424565b61047c816101e8565b840191505092915050565b600060408201905081810360008301526104a1818561044e565b905081810360208301526104b5818461044e565b9050939250505056fea2646970667358221220751cce86353f760db7e3128b8fb80d5b83376cc3e165496444e9aa2c700c31e164736f6c634300081d0033",
  "linkReferences": {},
  "deployedLinkReferences": {}
}