{
  "_format": "hh-sol-artifact-1",
  "contractName": "ProjectFund",
  "sourceName": "contracts/ProjectFund.sol",
  "abi": [
    {
      "inputs": [],
      "stateMutability": "nonpayable",
      "type": "constructor"
    },
    {
      "anonymous": false,
      "inputs": [
        {
          "indexed": true,
          "internalType": "string",
          "name": "projectName",
          "type": "string"
        },
        {
          "indexed": false,
          "internalType": "uint256",
          "name": "amount",
          "type": "uint256"
        },
        {
          "indexed": true,
          "internalType": "address",
          "name": "sender",
          "type": "address"
        },
        {
          "indexed": false,
          "internalType": "string",
          "name": "message",
          "type": "string"
        },
        {
          "indexed": false,
          "internalType": "uint256",
          "name": "timestamp",
          "type": "uint256"
        }
      ],
      "name": "newDonation",
      "type": "event"
    },
    {
      "stateMutability": "payable",
      "type": "fallback"
    },
    {
      "inputs": [
        {
          "internalType": "string",
          "name": "_projectName",
          "type": "string"
        },
        {
          "internalType": "string",
          "name": "_message",
          "type": "string"
        }
      ],
      "name": "donateToProject",
      "outputs": [],
      "stateMutability": "payable",
      "type": "function"
    },
    {
      "inputs": [
        {
          "internalType": "string",
          "name": "_projectName",
          "type": "string"
        }
      ],
      "name": "getProjectDonations",
      "outputs": [
        {
          "components": [
            {
              "internalType": "string",
              "name": "projectName",
              "type": "string"
            },
            {
              "internalType": "uint256",
              "name": "amount",
              "type": "uint256"
            },
            {
              "internalType": "address",
              "name": "sender",
              "type": "address"
            },
            {
              "internalType": "string",
              "name": "message",
              "type": "string"
            },
            {
              "internalType": "uint256",
              "name": "timestamp",
              "type": "uint256"
            }
          ],
          "internalType": "struct ProjectFund.ProjectDonation[]",
          "name": "",
          "type": "tuple[]"
        }
      ],
      "stateMutability": "view",
      "type": "function"
    },
    {
      "inputs": [
        {
          "internalType": "string",
          "name": "_projectName",
          "type": "string"
        }
      ],
      "name": "getProjectTotal",
      "outputs": [
        {
          "internalType": "uint256",
          "name": "",
          "type": "uint256"
        }
      ],
      "stateMutability": "view",
      "type": "function"
    },
    {
      "inputs": [],
      "name": "owner",
      "outputs": [
        {
          "internalType": "address",
          "name": "",
          "type": "address"
        }
      ],
      "stateMutability": "view",
      "type": "function"
    },
    {
      "inputs": [
        {
          "internalType": "string",
          "name": "",
          "type": "string"
        },
        {
          "internalType": "uint256",
          "name": "",
          "type": "uint256"
        }
      ],
      "name": "projectDonations",
      "outputs": [
        {
          "internalType": "string",
          "name": "projectName",
          "type": "string"
        },
        {
          "internalType": "uint256",
          "name": "amount",
          "type": "uint256"
        },
        {
          "internalType": "address",
          "name": "sender",
          "type": "address"
        },
        {
          "internalType": "string",
          "name": "message",
          "type": "string"
        },
        {
          "internalType": "uint256",
          "name": "timestamp",
          "type": "uint256"
        }
      ],
      "stateMutability": "view",
      "type": "function"
    },
    {
      "inputs": [
        {
          "internalType": "string",
          "name": "",
          "type": "string"
        }
      ],
      "name": "projectTotal",
      "outputs": [
        {
          "internalType": "uint256",
          "name": "",
          "type": "uint256"
        }
      ],
      "stateMutability": "view",
      "type": "function"
    },
    {
      "inputs": [
        {
          "internalType": "uint256",
          "name": "_amount",
          "type": "uint256"
        }
      ],
      "name": "withdraw",
      "outputs": [],
      "stateMutability": "nonpayable",
      "type": "function"
    },
    {
      "stateMutability": "payable",
      "type": "receive"
    }
  ],
  "bytecode": "0x6080604052348015600f57600080fd5b50336000806101000a81548173ffffffffffffffffffffffffffffffffffffffff021916908373ffffffffffffffffffffffffffffffffffffffff1602179055506115598061005f6000396000f3fe6080604052600436106100745760003560e01c80637317266a1161004e5780637317266a146100f9578063818dacb7146101365780638da5cb5b14610173578063ffe7e5d81461019e57610075565b80630319e9c5146100775780632e1a7d4d146100935780633d4cf975146100bc57610075565b5b005b610091600480360381019061008c9190610acc565b6101df565b005b34801561009f57600080fd5b506100ba60048036038101906100b59190610b7a565b6103d6565b005b3480156100c857600080fd5b506100e360048036038101906100de9190610ba7565b610554565b6040516100f09190610dfe565b60405180910390f35b34801561010557600080fd5b50610120600480360381019061011b9190610ba7565b61075f565b60405161012d9190610e2f565b60405180910390f35b34801561014257600080fd5b5061015d60048036038101906101589190610ba7565b610787565b60405161016a9190610e2f565b60405180910390f35b34801561017f57600080fd5b506101886107b5565b6040516101959190610e59565b60405180910390f35b3480156101aa57600080fd5b506101c560048036038101906101c09190610e74565b6107d9565b6040516101d6959493929190610f1a565b60405180910390f35b60003411610222576040517f08c379a000000000000000000000000000000000000000000000000000000000815260040161021990610fc7565b60405180910390fd5b60006040518060a001604052808481526020013481526020013373ffffffffffffffffffffffffffffffffffffffff1681526020018381526020014281525090506001836040516102739190611023565b908152602001604051809103902081908060018154018082558091505060019003906000526020600020906005020160009091909190915060008201518160000190816102c09190611246565b506020820151816001015560408201518160020160006101000a81548173ffffffffffffffffffffffffffffffffffffffff021916908373ffffffffffffffffffffffffffffffffffffffff16021790555060608201518160030190816103279190611246565b50608082015181600401555050346002846040516103459190611023565b908152602001604051809103902060008282546103629190611347565b925050819055503373ffffffffffffffffffffffffffffffffffffffff168360405161038e9190611023565b60405180910390207f3b97b2b4947faa60ae6ab643475f51fcbcb97a3d5c9694c37002b7cfe2623e563485426040516103c99392919061137b565b60405180910390a3505050565b60008054906101000a900473ffffffffffffffffffffffffffffffffffffffff1673ffffffffffffffffffffffffffffffffffffffff163373ffffffffffffffffffffffffffffffffffffffff1614610464576040517f08c379a000000000000000000000000000000000000000000000000000000000815260040161045b90611405565b60405180910390fd5b600081116104a7576040517f08c379a000000000000000000000000000000000000000000000000000000000815260040161049e90611471565b60405180910390fd5b478111156104ea576040517f08c379a00000000000000000000000000000000000000000000000000000000081526004016104e190611503565b60405180910390fd5b60008054906101000a900473ffffffffffffffffffffffffffffffffffffffff1673ffffffffffffffffffffffffffffffffffffffff166108fc829081150290604051600060405180830381858888f19350505050158015610550573d6000803e3d6000fd5b5050565b60606001826040516105669190611023565b9081526020016040518091039020805480602002602001604051908101604052809291908181526020016000905b8282101561075457838290600052602060002090600502016040518060a00160405290816000820180546105c790611069565b80601f01602080910402602001604051908101604052809291908181526020018280546105f390611069565b80156106405780601f1061061557610100808354040283529160200191610640565b820191906000526020600020905b81548152906001019060200180831161062357829003601f168201915b50505050508152602001600182015481526020016002820160009054906101000a900473ffffffffffffffffffffffffffffffffffffffff1673ffffffffffffffffffffffffffffffffffffffff1673ffffffffffffffffffffffffffffffffffffffff1681526020016003820180546106b990611069565b80601f01602080910402602001604051908101604052809291908181526020018280546106e590611069565b80156107325780601f1061070757610100808354040283529160200191610732565b820191906000526020600020905b81548152906001019060200180831161071557829003601f168201915b5050505050815260200160048201548152505081526020019060010190610594565b505050509050919050565b60006002826040516107719190611023565b9081526020016040518091039020549050919050565b6002818051602081018201805184825260208301602085012081835280955050505050506000915090505481565b60008054906101000a900473ffffffffffffffffffffffffffffffffffffffff1681565b600182805160208101820180518482526020830160208501208183528095505050505050818154811061080b57600080fd5b90600052602060002090600502016000915091505080600001805461082f90611069565b80601f016020809104026020016040519081016040528092919081815260200182805461085b90611069565b80156108a85780601f1061087d576101008083540402835291602001916108a8565b820191906000526020600020905b81548152906001019060200180831161088b57829003601f168201915b5050505050908060010154908060020160009054906101000a900473ffffffffffffffffffffffffffffffffffffffff16908060030180546108e990611069565b80601f016020809104026020016040519081016040528092919081815260200182805461091590611069565b80156109625780601f1061093757610100808354040283529160200191610962565b820191906000526020600020905b81548152906001019060200180831161094557829003601f168201915b5050505050908060040154905085565b6000604051905090565b600080fd5b600080fd5b600080fd5b600080fd5b6000601f19601f8301169050919050565b7f4e487b7100000000000000000000000000000000000000000000000000000000600052604160045260246000fd5b6109d982610990565b810181811067ffffffffffffffff821117156109f8576109f76109a1565b5b80604052505050565b6000610a0b610972565b9050610a1782826109d0565b919050565b600067ffffffffffffffff821115610a3757610a366109a1565b5b610a4082610990565b9050602081019050919050565b82818337600083830152505050565b6000610a6f610a6a84610a1c565b610a01565b905082815260208101848484011115610a8b57610a8a61098b565b5b610a96848285610a4d565b509392505050565b600082601f830112610ab357610ab2610986565b5b8135610ac3848260208601610a5c565b91505092915050565b60008060408385031215610ae357610ae261097c565b5b600083013567ffffffffffffffff811115610b0157610b00610981565b5b610b0d85828601610a9e565b925050602083013567ffffffffffffffff811115610b2e57610b2d610981565b5b610b3a85828601610a9e565b9150509250929050565b6000819050919050565b610b5781610b44565b8114610b6257600080fd5b50565b600081359050610b7481610b4e565b92915050565b600060208284031215610b9057610b8f61097c565b5b6000610b9e84828501610b65565b91505092915050565b600060208284031215610bbd57610bbc61097c565b5b600082013567ffffffffffffffff811115610bdb57610bda610981565b5b610be784828501610a9e565b91505092915050565b600081519050919050565b600082825260208201905092915050565b6000819050602082019050919050565b600081519050919050565b600082825260208201905092915050565b60005b83811015610c56578082015181840152602081019050610c3b565b60008484015250505050565b6000610c6d82610c1c565b610c778185610c27565b9350610c87818560208601610c38565b610c9081610990565b840191505092915050565b610ca481610b44565b82525050565b600073ffffffffffffffffffffffffffffffffffffffff82169050919050565b6000610cd582610caa565b9050919050565b610ce581610cca565b82525050565b600060a0830160008301518482036000860152610d088282610c62565b9150506020830151610d1d6020860182610c9b565b506040830151610d306040860182610cdc565b5060608301518482036060860152610d488282610c62565b9150506080830151610d5d6080860182610c9b565b508091505092915050565b6000610d748383610ceb565b905092915050565b6000602082019050919050565b6000610d9482610bf0565b610d9e8185610bfb565b935083602082028501610db085610c0c565b8060005b85811015610dec5784840389528151610dcd8582610d68565b9450610dd883610d7c565b925060208a01995050600181019050610db4565b50829750879550505050505092915050565b60006020820190508181036000830152610e188184610d89565b905092915050565b610e2981610b44565b82525050565b6000602082019050610e446000830184610e20565b92915050565b610e5381610cca565b82525050565b6000602082019050610e6e6000830184610e4a565b92915050565b60008060408385031215610e8b57610e8a61097c565b5b600083013567ffffffffffffffff811115610ea957610ea8610981565b5b610eb585828601610a9e565b9250506020610ec685828601610b65565b9150509250929050565b600082825260208201905092915050565b6000610eec82610c1c565b610ef68185610ed0565b9350610f06818560208601610c38565b610f0f81610990565b840191505092915050565b600060a0820190508181036000830152610f348188610ee1565b9050610f436020830187610e20565b610f506040830186610e4a565b8181036060830152610f628185610ee1565b9050610f716080830184610e20565b9695505050505050565b7f75206e65656420746f2068617665204554480000000000000000000000000000600082015250565b6000610fb1601283610ed0565b9150610fbc82610f7b565b602082019050919050565b60006020820190508181036000830152610fe081610fa4565b9050919050565b600081905092915050565b6000610ffd82610c1c565b6110078185610fe7565b9350611017818560208601610c38565b80840191505092915050565b600061102f8284610ff2565b915081905092915050565b7f4e487b7100000000000000000000000000000000000000000000000000000000600052602260045260246000fd5b6000600282049050600182168061108157607f821691505b6020821081036110945761109361103a565b5b50919050565b60008190508160005260206000209050919050565b60006020601f8301049050919050565b600082821b905092915050565b6000600883026110fc7fffffffffffffffffffffffffffffffffffffffffffffffffffffffffffffffff826110bf565b61110686836110bf565b95508019841693508086168417925050509392505050565b6000819050919050565b600061114361113e61113984610b44565b61111e565b610b44565b9050919050565b6000819050919050565b61115d83611128565b6111716111698261114a565b8484546110cc565b825550505050565b600090565b611186611179565b611191818484611154565b505050565b5b818110156111b5576111aa60008261117e565b600181019050611197565b5050565b601f8211156111fa576111cb8161109a565b6111d4846110af565b810160208510156111e3578190505b6111f76111ef856110af565b830182611196565b50505b505050565b600082821c905092915050565b600061121d600019846008026111ff565b1980831691505092915050565b6000611236838361120c565b9150826002028217905092915050565b61124f82610c1c565b67ffffffffffffffff811115611268576112676109a1565b5b6112728254611069565b61127d8282856111b9565b600060209050601f8311600181146112b0576000841561129e578287015190505b6112a8858261122a565b865550611310565b601f1984166112be8661109a565b60005b828110156112e6578489015182556001820191506020850194506020810190506112c1565b8683101561130357848901516112ff601f89168261120c565b8355505b6001600288020188555050505b505050505050565b7f4e487b7100000000000000000000000000000000000000000000000000000000600052601160045260246000fd5b600061135282610b44565b915061135d83610b44565b925082820190508082111561137557611374611318565b5b92915050565b60006060820190506113906000830186610e20565b81810360208301526113a28185610ee1565b90506113b16040830184610e20565b949350505050565b7f75206e65656420746f20626520616e206f776e65722100000000000000000000600082015250565b60006113ef601683610ed0565b91506113fa826113b9565b602082019050919050565b6000602082019050818103600083015261141e816113e2565b9050919050565b7f6e65656420455448000000000000000000000000000000000000000000000000600082015250565b600061145b600883610ed0565b915061146682611425565b602082019050919050565b6000602082019050818103600083015261148a8161144e565b9050919050565b7f6c6f7720616d6f756e74206f6e20636f6e747261637420746f2077697468647260008201527f6177000000000000000000000000000000000000000000000000000000000000602082015250565b60006114ed602283610ed0565b91506114f882611491565b604082019050919050565b6000602082019050818103600083015261151c816114e0565b905091905056fea264697066735822122085782b7860c91588eda0f1c249a63b276181677819d113182e853de40447fb8164736f6c634300081d0033",
  "linkReferences": {},
  "deployedLinkReferences": {}
}