{
  "_format": "hh-sol-artifact-1",
  "contractName": "ProjectFund",
  "sourceName": "contracts/ProjectFund.sol",
  "abi": [
    {
      "inputs": [],
      "stateMutability": "nonpayable",
      "type": "constructor"
    },
    {
      "anonymous": false,
      "inputs": [
        {
          "indexed": true,
          "internalType": "string",
          "name": "projectName",
          "type": "string"
        },
        {
          "indexed": false,
          "internalType": "uint256",
          "name": "amount",
          "type": "uint256"
        },
        {
          "indexed": true,
          "internalType": "address",
          "name": "sender",
          "type": "address"
        },
        {
          "indexed": false,
          "internalType": "string",
          "name": "message",
          "type": "string"
        },
        {
          "indexed": false,
          "internalType": "uint256",
          "name": "timestamp",
          "type": "uint256"
        }
      ],
      "name": "newDonation",
      "type": "event"
    },
    {
      "stateMutability": "payable",
      "type": "fallback"
    },
    {
      "inputs": [
        {
          "internalType": "string",
          "name": "_projectName",
          "type": "string"
        },
        {
          "internalType": "string",
          "name": "_message",
          "type": "string"
        }
      ],
      "name": "donateToProject",
      "outputs": [],
      "stateMutability": "payable",
      "type": "function"
    },
    {
      "inputs": [
        {
          "internalType": "string",
          "name": "_projectName",
          "type": "string"
        }
      ],
      "name": "getProjectDonations",
      "outputs": [
        {
          "components": [
            {
              "internalType": "string",
              "name": "projectName",
              "type": "string"
            },
            {
              "internalType": "uint256",
              "name": "amount",
              "type": "uint256"
            },
            {
              "internalType": "address",
              "name": "sender",
              "type": "address"
            },
            {
              "internalType": "string",
              "name": "message",
              "type": "string"
            },
            {
              "internalType": "uint256",
              "name": "timestamp",
              "type": "uint256"
            }
          ],
          "internalType": "struct ProjectFund.ProjectDonation[]",
          "name": "",
          "type": "tuple[]"
        }
      ],
      "stateMutability": "view",
      "type": "function"
    },
    {
      "inputs": [
        {
          "internalType": "string",
          "name": "_projectName",
          "type": "string"
        }
      ],
      "name": "getProjectTotal",
      "outputs": [
        {
          "internalType": "uint256",
          "name": "",
          "type": "uint256"
        }
      ],
      "stateMutability": "view",
      "type": "function"
    },
    {
      "inputs": [],
      "name": "owner",
      "outputs": [
        {
          "internalType": "address",
          "name": "",
          "type": "address"
        }
      ],
      "stateMutability": "view",
      "type": "function"
    },
    {
      "inputs": [
        {
          "internalType": "string",
          "name": "",
          "type": "string"
        },
        {
          "internalType": "uint256",
          "name": "",
          "type": "uint256"
        }
      ],
      "name": "projectDonations",
      "outputs": [
        {
          "internalType": "string",
          "name": "projectName",
          "type": "string"
        },
        {
          "internalType": "uint256",
          "name": "amount",
          "type": "uint256"
        },
        {
          "internalType": "address",
          "name": "sender",
          "type": "address"
        },
        {
          "internalType": "string",
          "name": "message",
          "type": "string"
        },
        {
          "internalType": "uint256",
          "name": "timestamp",
          "type": "uint256"
        }
      ],
      "stateMutability": "view",
      "type": "function"
    },
    {
      "inputs": [
        {
          "internalType": "string",
          "name": "",
          "type": "string"
        }
      ],
      "name": "projectTotal",
      "outputs": [
        {
          "internalType": "uint256",
          "name": "",
          "type": "uint256"
        }
      ],
      "stateMutability": "view",
      "type": "function"
    },
    {
      "stateMutability": "payable",
      "type": "receive"
    }
  ],
  "bytecode": "0x6080604052348015600f57600080fd5b506028676311b50d939c234360c01b608460201b60201c565b604067be7dabf6dc95014060c01b608460201b60201c565b336000806101000a81548173ffffffffffffffffffffffffffffffffffffffff021916908373ffffffffffffffffffffffffffffffffffffffff1602179055506087565b50565b611385806100966000396000f3fe6080604052600436106100595760003560e01c80630319e9c5146100765780633d4cf975146100925780637317266a146100cf578063818dacb71461010c5780638da5cb5b14610149578063ffe7e5d81461017457610060565b3661006057005b61007467da894346c5ad560c60c01b6101b5565b005b610090600480360381019061008b9190610a8f565b6101b8565b005b34801561009e57600080fd5b506100b960048036038101906100b49190610b07565b61049f565b6040516100c69190610d68565b60405180910390f35b3480156100db57600080fd5b506100f660048036038101906100f19190610b07565b6106e6565b6040516101039190610d99565b60405180910390f35b34801561011857600080fd5b50610133600480360381019061012e9190610b07565b61074a565b6040516101409190610d99565b60405180910390f35b34801561015557600080fd5b5061015e610778565b60405161016b9190610dc3565b60405180910390f35b34801561018057600080fd5b5061019b60048036038101906101969190610e0a565b61079c565b6040516101ac959493929190610eb0565b60405180910390f35b50565b6101cc678a339805dbb8d13960c01b6101b5565b6101e067f8a6dceddfd9413e60c01b6101b5565b6101f467b1d8bbc9ed71d98160c01b6101b5565b61020867dd66271a99a7ff6560c01b6101b5565b6000341161024b576040517f08c379a000000000000000000000000000000000000000000000000000000000815260040161024290610f5d565b60405180910390fd5b61025f67191d68772930b6e260c01b6101b5565b61027367aca633dcd4f8e4fc60c01b6101b5565b6102876750d93625673105ed60c01b6101b5565b60006040518060a001604052808481526020013481526020013373ffffffffffffffffffffffffffffffffffffffff1681526020018381526020014281525090506102dc67c4ebb42a6942b57a60c01b6101b5565b6102f06774e80e63da65e17960c01b6101b5565b6001836040516103009190610fb9565b9081526020016040518091039020819080600181540180825580915050600190039060005260206000209060050201600090919091909150600082015181600001908161034d91906111dc565b506020820151816001015560408201518160020160006101000a81548173ffffffffffffffffffffffffffffffffffffffff021916908373ffffffffffffffffffffffffffffffffffffffff16021790555060608201518160030190816103b491906111dc565b506080820151816004015550506103d5675b64b917138e693360c01b6101b5565b346002846040516103e69190610fb9565b9081526020016040518091039020600082825461040391906112dd565b9250508190555061041e67e09dfdd1fe0a59cd60c01b6101b5565b610432675c07eeaf404f868060c01b6101b5565b3373ffffffffffffffffffffffffffffffffffffffff16836040516104579190610fb9565b60405180910390207f3b97b2b4947faa60ae6ab643475f51fcbcb97a3d5c9694c37002b7cfe2623e5634854260405161049293929190611311565b60405180910390a3505050565b60606104b567b3095c13a54bff9460c01b6101b5565b6104c967d8c786ab55d7f58660c01b6101b5565b6104dd678fe45f9296d61afa60c01b6101b5565b6001826040516104ed9190610fb9565b9081526020016040518091039020805480602002602001604051908101604052809291908181526020016000905b828210156106db57838290600052602060002090600502016040518060a001604052908160008201805461054e90610fff565b80601f016020809104026020016040519081016040528092919081815260200182805461057a90610fff565b80156105c75780601f1061059c576101008083540402835291602001916105c7565b820191906000526020600020905b8154815290600101906020018083116105aa57829003601f168201915b50505050508152602001600182015481526020016002820160009054906101000a900473ffffffffffffffffffffffffffffffffffffffff1673ffffffffffffffffffffffffffffffffffffffff1673ffffffffffffffffffffffffffffffffffffffff16815260200160038201805461064090610fff565b80601f016020809104026020016040519081016040528092919081815260200182805461066c90610fff565b80156106b95780601f1061068e576101008083540402835291602001916106b9565b820191906000526020600020905b81548152906001019060200180831161069c57829003601f168201915b505050505081526020016004820154815250508152602001906001019061051b565b505050509050919050565b60006106fc67a0ecbdfec9408b1960c01b6101b5565b61071067bbac52e8989f6bcf60c01b6101b5565b61072467b86f4943eb1dbe1460c01b6101b5565b6002826040516107349190610fb9565b9081526020016040518091039020549050919050565b6002818051602081018201805184825260208301602085012081835280955050505050506000915090505481565b60008054906101000a900473ffffffffffffffffffffffffffffffffffffffff1681565b60018280516020810182018051848252602083016020850120818352809550505050505081815481106107ce57600080fd5b9060005260206000209060050201600091509150508060000180546107f290610fff565b80601f016020809104026020016040519081016040528092919081815260200182805461081e90610fff565b801561086b5780601f106108405761010080835404028352916020019161086b565b820191906000526020600020905b81548152906001019060200180831161084e57829003601f168201915b5050505050908060010154908060020160009054906101000a900473ffffffffffffffffffffffffffffffffffffffff16908060030180546108ac90610fff565b80601f01602080910402602001604051908101604052809291908181526020018280546108d890610fff565b80156109255780601f106108fa57610100808354040283529160200191610925565b820191906000526020600020905b81548152906001019060200180831161090857829003601f168201915b5050505050908060040154905085565b6000604051905090565b600080fd5b600080fd5b600080fd5b600080fd5b6000601f19601f8301169050919050565b7f4e487b7100000000000000000000000000000000000000000000000000000000600052604160045260246000fd5b61099c82610953565b810181811067ffffffffffffffff821117156109bb576109ba610964565b5b80604052505050565b60006109ce610935565b90506109da8282610993565b919050565b600067ffffffffffffffff8211156109fa576109f9610964565b5b610a0382610953565b9050602081019050919050565b82818337600083830152505050565b6000610a32610a2d846109df565b6109c4565b905082815260208101848484011115610a4e57610a4d61094e565b5b610a59848285610a10565b509392505050565b600082601f830112610a7657610a75610949565b5b8135610a86848260208601610a1f565b91505092915050565b60008060408385031215610aa657610aa561093f565b5b600083013567ffffffffffffffff811115610ac457610ac3610944565b5b610ad085828601610a61565b925050602083013567ffffffffffffffff811115610af157610af0610944565b5b610afd85828601610a61565b9150509250929050565b600060208284031215610b1d57610b1c61093f565b5b600082013567ffffffffffffffff811115610b3b57610b3a610944565b5b610b4784828501610a61565b91505092915050565b600081519050919050565b600082825260208201905092915050565b6000819050602082019050919050565b600081519050919050565b600082825260208201905092915050565b60005b83811015610bb6578082015181840152602081019050610b9b565b60008484015250505050565b6000610bcd82610b7c565b610bd78185610b87565b9350610be7818560208601610b98565b610bf081610953565b840191505092915050565b6000819050919050565b610c0e81610bfb565b82525050565b600073ffffffffffffffffffffffffffffffffffffffff82169050919050565b6000610c3f82610c14565b9050919050565b610c4f81610c34565b82525050565b600060a0830160008301518482036000860152610c728282610bc2565b9150506020830151610c876020860182610c05565b506040830151610c9a6040860182610c46565b5060608301518482036060860152610cb28282610bc2565b9150506080830151610cc76080860182610c05565b508091505092915050565b6000610cde8383610c55565b905092915050565b6000602082019050919050565b6000610cfe82610b50565b610d088185610b5b565b935083602082028501610d1a85610b6c565b8060005b85811015610d565784840389528151610d378582610cd2565b9450610d4283610ce6565b925060208a01995050600181019050610d1e565b50829750879550505050505092915050565b60006020820190508181036000830152610d828184610cf3565b905092915050565b610d9381610bfb565b82525050565b6000602082019050610dae6000830184610d8a565b92915050565b610dbd81610c34565b82525050565b6000602082019050610dd86000830184610db4565b92915050565b610de781610bfb565b8114610df257600080fd5b50565b600081359050610e0481610dde565b92915050565b60008060408385031215610e2157610e2061093f565b5b600083013567ffffffffffffffff811115610e3f57610e3e610944565b5b610e4b85828601610a61565b9250506020610e5c85828601610df5565b9150509250929050565b600082825260208201905092915050565b6000610e8282610b7c565b610e8c8185610e66565b9350610e9c818560208601610b98565b610ea581610953565b840191505092915050565b600060a0820190508181036000830152610eca8188610e77565b9050610ed96020830187610d8a565b610ee66040830186610db4565b8181036060830152610ef88185610e77565b9050610f076080830184610d8a565b9695505050505050565b7f75206e65656420746f2068617665204554480000000000000000000000000000600082015250565b6000610f47601283610e66565b9150610f5282610f11565b602082019050919050565b60006020820190508181036000830152610f7681610f3a565b9050919050565b600081905092915050565b6000610f9382610b7c565b610f9d8185610f7d565b9350610fad818560208601610b98565b80840191505092915050565b6000610fc58284610f88565b915081905092915050565b7f4e487b7100000000000000000000000000000000000000000000000000000000600052602260045260246000fd5b6000600282049050600182168061101757607f821691505b60208210810361102a57611029610fd0565b5b50919050565b60008190508160005260206000209050919050565b60006020601f8301049050919050565b600082821b905092915050565b6000600883026110927fffffffffffffffffffffffffffffffffffffffffffffffffffffffffffffffff82611055565b61109c8683611055565b95508019841693508086168417925050509392505050565b6000819050919050565b60006110d96110d46110cf84610bfb565b6110b4565b610bfb565b9050919050565b6000819050919050565b6110f3836110be565b6111076110ff826110e0565b848454611062565b825550505050565b600090565b61111c61110f565b6111278184846110ea565b505050565b5b8181101561114b57611140600082611114565b60018101905061112d565b5050565b601f8211156111905761116181611030565b61116a84611045565b81016020851015611179578190505b61118d61118585611045565b83018261112c565b50505b505050565b600082821c905092915050565b60006111b360001984600802611195565b1980831691505092915050565b60006111cc83836111a2565b9150826002028217905092915050565b6111e582610b7c565b67ffffffffffffffff8111156111fe576111fd610964565b5b6112088254610fff565b61121382828561114f565b600060209050601f8311600181146112465760008415611234578287015190505b61123e85826111c0565b8655506112a6565b601f19841661125486611030565b60005b8281101561127c57848901518255600182019150602085019450602081019050611257565b868310156112995784890151611295601f8916826111a2565b8355505b6001600288020188555050505b505050505050565b7f4e487b7100000000000000000000000000000000000000000000000000000000600052601160045260246000fd5b60006112e882610bfb565b91506112f383610bfb565b925082820190508082111561130b5761130a6112ae565b5b92915050565b60006060820190506113266000830186610d8a565b81810360208301526113388185610e77565b90506113476040830184610d8a565b94935050505056fea26469706673582212209f341cb93ad897f743bf35be5ae5dc64901ed3b3251d14599693d7af5d5e11fd64736f6c634300081d0033",
  "linkReferences": {},
  "deployedLinkReferences": {}
}