{
  "_format": "hh-sol-artifact-1",
  "contractName": "ProjectFund",
  "sourceName": "contracts/ProjectFund.sol",
  "abi": [
    {
      "inputs": [],
      "stateMutability": "nonpayable",
      "type": "constructor"
    },
    {
      "anonymous": false,
      "inputs": [
        {
          "indexed": true,
          "internalType": "string",
          "name": "projectName",
          "type": "string"
        },
        {
          "indexed": false,
          "internalType": "uint256",
          "name": "amount",
          "type": "uint256"
        },
        {
          "indexed": true,
          "internalType": "address",
          "name": "sender",
          "type": "address"
        },
        {
          "indexed": false,
          "internalType": "string",
          "name": "message",
          "type": "string"
        },
        {
          "indexed": false,
          "internalType": "uint256",
          "name": "timestamp",
          "type": "uint256"
        }
      ],
      "name": "newDonation",
      "type": "event"
    },
    {
      "stateMutability": "payable",
      "type": "fallback"
    },
    {
      "inputs": [
        {
          "internalType": "string",
          "name": "_projectName",
          "type": "string"
        },
        {
          "internalType": "string",
          "name": "_message",
          "type": "string"
        }
      ],
      "name": "donateToProject",
      "outputs": [],
      "stateMutability": "payable",
      "type": "function"
    },
    {
      "inputs": [
        {
          "internalType": "string",
          "name": "_projectName",
          "type": "string"
        }
      ],
      "name": "getProjectDonations",
      "outputs": [
        {
          "components": [
            {
              "internalType": "string",
              "name": "projectName",
              "type": "string"
            },
            {
              "internalType": "uint256",
              "name": "amount",
              "type": "uint256"
            },
            {
              "internalType": "address",
              "name": "sender",
              "type": "address"
            },
            {
              "internalType": "string",
              "name": "message",
              "type": "string"
            },
            {
              "internalType": "uint256",
              "name": "timestamp",
              "type": "uint256"
            }
          ],
          "internalType": "struct ProjectFund.ProjectDonation[]",
          "name": "",
          "type": "tuple[]"
        }
      ],
      "stateMutability": "view",
      "type": "function"
    },
    {
      "inputs": [
        {
          "internalType": "string",
          "name": "_projectName",
          "type": "string"
        }
      ],
      "name": "getProjectTotal",
      "outputs": [
        {
          "internalType": "uint256",
          "name": "",
          "type": "uint256"
        }
      ],
      "stateMutability": "view",
      "type": "function"
    },
    {
      "inputs": [],
      "name": "owner",
      "outputs": [
        {
          "internalType": "address",
          "name": "",
          "type": "address"
        }
      ],
      "stateMutability": "view",
      "type": "function"
    },
    {
      "inputs": [
        {
          "internalType": "string",
          "name": "",
          "type": "string"
        },
        {
          "internalType": "uint256",
          "name": "",
          "type": "uint256"
        }
      ],
      "name": "projectDonations",
      "outputs": [
        {
          "internalType": "string",
          "name": "projectName",
          "type": "string"
        },
        {
          "internalType": "uint256",
          "name": "amount",
          "type": "uint256"
        },
        {
          "internalType": "address",
          "name": "sender",
          "type": "address"
        },
        {
          "internalType": "string",
          "name": "message",
          "type": "string"
        },
        {
          "internalType": "uint256",
          "name": "timestamp",
          "type": "uint256"
        }
      ],
      "stateMutability": "view",
      "type": "function"
    },
    {
      "inputs": [
        {
          "internalType": "string",
          "name": "",
          "type": "string"
        }
      ],
      "name": "projectTotal",
      "outputs": [
        {
          "internalType": "uint256",
          "name": "",
          "type": "uint256"
        }
      ],
      "stateMutability": "view",
      "type": "function"
    },
    {
      "stateMutability": "payable",
      "type": "receive"
    }
  ],
  "bytecode": "0x6080604052348015600f57600080fd5b50336000806101000a81548173ffffffffffffffffffffffffffffffffffffffff021916908373ffffffffffffffffffffffffffffffffffffffff1602179055506112008061005f6000396000f3fe6080604052600436106100595760003560e01c80630319e9c51461005c5780633d4cf975146100785780637317266a146100b5578063818dacb7146100f25780638da5cb5b1461012f578063ffe7e5d81461015a5761005a565b5b005b6100766004803603810190610071919061090a565b61019b565b005b34801561008457600080fd5b5061009f600480360381019061009a9190610982565b610392565b6040516100ac9190610be3565b60405180910390f35b3480156100c157600080fd5b506100dc60048036038101906100d79190610982565b61059d565b6040516100e99190610c14565b60405180910390f35b3480156100fe57600080fd5b5061011960048036038101906101149190610982565b6105c5565b6040516101269190610c14565b60405180910390f35b34801561013b57600080fd5b506101446105f3565b6040516101519190610c3e565b60405180910390f35b34801561016657600080fd5b50610181600480360381019061017c9190610c85565b610617565b604051610192959493929190610d2b565b60405180910390f35b600034116101de576040517f08c379a00000000000000000000000000000000000000000000000000000000081526004016101d590610dd8565b60405180910390fd5b60006040518060a001604052808481526020013481526020013373ffffffffffffffffffffffffffffffffffffffff16815260200183815260200142815250905060018360405161022f9190610e34565b9081526020016040518091039020819080600181540180825580915050600190039060005260206000209060050201600090919091909150600082015181600001908161027c9190611057565b506020820151816001015560408201518160020160006101000a81548173ffffffffffffffffffffffffffffffffffffffff021916908373ffffffffffffffffffffffffffffffffffffffff16021790555060608201518160030190816102e39190611057565b50608082015181600401555050346002846040516103019190610e34565b9081526020016040518091039020600082825461031e9190611158565b925050819055503373ffffffffffffffffffffffffffffffffffffffff168360405161034a9190610e34565b60405180910390207f3b97b2b4947faa60ae6ab643475f51fcbcb97a3d5c9694c37002b7cfe2623e563485426040516103859392919061118c565b60405180910390a3505050565b60606001826040516103a49190610e34565b9081526020016040518091039020805480602002602001604051908101604052809291908181526020016000905b8282101561059257838290600052602060002090600502016040518060a001604052908160008201805461040590610e7a565b80601f016020809104026020016040519081016040528092919081815260200182805461043190610e7a565b801561047e5780601f106104535761010080835404028352916020019161047e565b820191906000526020600020905b81548152906001019060200180831161046157829003601f168201915b50505050508152602001600182015481526020016002820160009054906101000a900473ffffffffffffffffffffffffffffffffffffffff1673ffffffffffffffffffffffffffffffffffffffff1673ffffffffffffffffffffffffffffffffffffffff1681526020016003820180546104f790610e7a565b80601f016020809104026020016040519081016040528092919081815260200182805461052390610e7a565b80156105705780601f1061054557610100808354040283529160200191610570565b820191906000526020600020905b81548152906001019060200180831161055357829003601f168201915b50505050508152602001600482015481525050815260200190600101906103d2565b505050509050919050565b60006002826040516105af9190610e34565b9081526020016040518091039020549050919050565b6002818051602081018201805184825260208301602085012081835280955050505050506000915090505481565b60008054906101000a900473ffffffffffffffffffffffffffffffffffffffff1681565b600182805160208101820180518482526020830160208501208183528095505050505050818154811061064957600080fd5b90600052602060002090600502016000915091505080600001805461066d90610e7a565b80601f016020809104026020016040519081016040528092919081815260200182805461069990610e7a565b80156106e65780601f106106bb576101008083540402835291602001916106e6565b820191906000526020600020905b8154815290600101906020018083116106c957829003601f168201915b5050505050908060010154908060020160009054906101000a900473ffffffffffffffffffffffffffffffffffffffff169080600301805461072790610e7a565b80601f016020809104026020016040519081016040528092919081815260200182805461075390610e7a565b80156107a05780601f10610775576101008083540402835291602001916107a0565b820191906000526020600020905b81548152906001019060200180831161078357829003601f168201915b5050505050908060040154905085565b6000604051905090565b600080fd5b600080fd5b600080fd5b600080fd5b6000601f19601f8301169050919050565b7f4e487b7100000000000000000000000000000000000000000000000000000000600052604160045260246000fd5b610817826107ce565b810181811067ffffffffffffffff82111715610836576108356107df565b5b80604052505050565b60006108496107b0565b9050610855828261080e565b919050565b600067ffffffffffffffff821115610875576108746107df565b5b61087e826107ce565b9050602081019050919050565b82818337600083830152505050565b60006108ad6108a88461085a565b61083f565b9050828152602081018484840111156108c9576108c86107c9565b5b6108d484828561088b565b509392505050565b600082601f8301126108f1576108f06107c4565b5b813561090184826020860161089a565b91505092915050565b60008060408385031215610921576109206107ba565b5b600083013567ffffffffffffffff81111561093f5761093e6107bf565b5b61094b858286016108dc565b925050602083013567ffffffffffffffff81111561096c5761096b6107bf565b5b610978858286016108dc565b9150509250929050565b600060208284031215610998576109976107ba565b5b600082013567ffffffffffffffff8111156109b6576109b56107bf565b5b6109c2848285016108dc565b91505092915050565b600081519050919050565b600082825260208201905092915050565b6000819050602082019050919050565b600081519050919050565b600082825260208201905092915050565b60005b83811015610a31578082015181840152602081019050610a16565b60008484015250505050565b6000610a48826109f7565b610a528185610a02565b9350610a62818560208601610a13565b610a6b816107ce565b840191505092915050565b6000819050919050565b610a8981610a76565b82525050565b600073ffffffffffffffffffffffffffffffffffffffff82169050919050565b6000610aba82610a8f565b9050919050565b610aca81610aaf565b82525050565b600060a0830160008301518482036000860152610aed8282610a3d565b9150506020830151610b026020860182610a80565b506040830151610b156040860182610ac1565b5060608301518482036060860152610b2d8282610a3d565b9150506080830151610b426080860182610a80565b508091505092915050565b6000610b598383610ad0565b905092915050565b6000602082019050919050565b6000610b79826109cb565b610b8381856109d6565b935083602082028501610b95856109e7565b8060005b85811015610bd15784840389528151610bb28582610b4d565b9450610bbd83610b61565b925060208a01995050600181019050610b99565b50829750879550505050505092915050565b60006020820190508181036000830152610bfd8184610b6e565b905092915050565b610c0e81610a76565b82525050565b6000602082019050610c296000830184610c05565b92915050565b610c3881610aaf565b82525050565b6000602082019050610c536000830184610c2f565b92915050565b610c6281610a76565b8114610c6d57600080fd5b50565b600081359050610c7f81610c59565b92915050565b60008060408385031215610c9c57610c9b6107ba565b5b600083013567ffffffffffffffff811115610cba57610cb96107bf565b5b610cc6858286016108dc565b9250506020610cd785828601610c70565b9150509250929050565b600082825260208201905092915050565b6000610cfd826109f7565b610d078185610ce1565b9350610d17818560208601610a13565b610d20816107ce565b840191505092915050565b600060a0820190508181036000830152610d458188610cf2565b9050610d546020830187610c05565b610d616040830186610c2f565b8181036060830152610d738185610cf2565b9050610d826080830184610c05565b9695505050505050565b7f75206e65656420746f2068617665204554480000000000000000000000000000600082015250565b6000610dc2601283610ce1565b9150610dcd82610d8c565b602082019050919050565b60006020820190508181036000830152610df181610db5565b9050919050565b600081905092915050565b6000610e0e826109f7565b610e188185610df8565b9350610e28818560208601610a13565b80840191505092915050565b6000610e408284610e03565b915081905092915050565b7f4e487b7100000000000000000000000000000000000000000000000000000000600052602260045260246000fd5b60006002820490506001821680610e9257607f821691505b602082108103610ea557610ea4610e4b565b5b50919050565b60008190508160005260206000209050919050565b60006020601f8301049050919050565b600082821b905092915050565b600060088302610f0d7fffffffffffffffffffffffffffffffffffffffffffffffffffffffffffffffff82610ed0565b610f178683610ed0565b95508019841693508086168417925050509392505050565b6000819050919050565b6000610f54610f4f610f4a84610a76565b610f2f565b610a76565b9050919050565b6000819050919050565b610f6e83610f39565b610f82610f7a82610f5b565b848454610edd565b825550505050565b600090565b610f97610f8a565b610fa2818484610f65565b505050565b5b81811015610fc657610fbb600082610f8f565b600181019050610fa8565b5050565b601f82111561100b57610fdc81610eab565b610fe584610ec0565b81016020851015610ff4578190505b61100861100085610ec0565b830182610fa7565b50505b505050565b600082821c905092915050565b600061102e60001984600802611010565b1980831691505092915050565b6000611047838361101d565b9150826002028217905092915050565b611060826109f7565b67ffffffffffffffff811115611079576110786107df565b5b6110838254610e7a565b61108e828285610fca565b600060209050601f8311600181146110c157600084156110af578287015190505b6110b9858261103b565b865550611121565b601f1984166110cf86610eab565b60005b828110156110f7578489015182556001820191506020850194506020810190506110d2565b868310156111145784890151611110601f89168261101d565b8355505b6001600288020188555050505b505050505050565b7f4e487b7100000000000000000000000000000000000000000000000000000000600052601160045260246000fd5b600061116382610a76565b915061116e83610a76565b925082820190508082111561118657611185611129565b5b92915050565b60006060820190506111a16000830186610c05565b81810360208301526111b38185610cf2565b90506111c26040830184610c05565b94935050505056fea2646970667358221220814f2a37c97e10775e7d2b5152228fb1e953fb708ee1b00fbd529304a7f28bf864736f6c634300081d0033",
  "linkReferences": {},
  "deployedLinkReferences": {}
}