{
  "_format": "hh-sol-artifact-1",
  "contractName": "ProjectFund",
  "sourceName": "contracts/ProjectFund.sol",
  "abi": [
    {
      "inputs": [],
      "stateMutability": "nonpayable",
      "type": "constructor"
    },
    {
      "anonymous": false,
      "inputs": [
        {
          "indexed": true,
          "internalType": "string",
          "name": "projectName",
          "type": "string"
        },
        {
          "indexed": false,
          "internalType": "uint256",
          "name": "amount",
          "type": "uint256"
        },
        {
          "indexed": true,
          "internalType": "address",
          "name": "sender",
          "type": "address"
        },
        {
          "indexed": false,
          "internalType": "string",
          "name": "message",
          "type": "string"
        },
        {
          "indexed": false,
          "internalType": "uint256",
          "name": "timestamp",
          "type": "uint256"
        }
      ],
      "name": "newDonation",
      "type": "event"
    },
    {
      "stateMutability": "payable",
      "type": "fallback"
    },
    {
      "inputs": [
        {
          "internalType": "string",
          "name": "_projectName",
          "type": "string"
        },
        {
          "internalType": "string",
          "name": "_message",
          "type": "string"
        }
      ],
      "name": "donateToProject",
      "outputs": [],
      "stateMutability": "payable",
      "type": "function"
    },
    {
      "inputs": [
        {
          "internalType": "string",
          "name": "_projectName",
          "type": "string"
        }
      ],
      "name": "getProjectDonations",
      "outputs": [
        {
          "components": [
            {
              "internalType": "string",
              "name": "projectName",
              "type": "string"
            },
            {
              "internalType": "uint256",
              "name": "amount",
              "type": "uint256"
            },
            {
              "internalType": "address",
              "name": "sender",
              "type": "address"
            },
            {
              "internalType": "string",
              "name": "message",
              "type": "string"
            },
            {
              "internalType": "uint256",
              "name": "timestamp",
              "type": "uint256"
            }
          ],
          "internalType": "struct ProjectFund.ProjectDonation[]",
          "name": "",
          "type": "tuple[]"
        }
      ],
      "stateMutability": "view",
      "type": "function"
    },
    {
      "inputs": [
        {
          "internalType": "string",
          "name": "_projectName",
          "type": "string"
        }
      ],
      "name": "getProjectTotal",
      "outputs": [
        {
          "internalType": "uint256",
          "name": "",
          "type": "uint256"
        }
      ],
      "stateMutability": "view",
      "type": "function"
    },
    {
      "inputs": [],
      "name": "owner",
      "outputs": [
        {
          "internalType": "address",
          "name": "",
          "type": "address"
        }
      ],
      "stateMutability": "view",
      "type": "function"
    },
    {
      "inputs": [
        {
          "internalType": "string",
          "name": "",
          "type": "string"
        },
        {
          "internalType": "uint256",
          "name": "",
          "type": "uint256"
        }
      ],
      "name": "projectDonations",
      "outputs": [
        {
          "internalType": "string",
          "name": "projectName",
          "type": "string"
        },
        {
          "internalType": "uint256",
          "name": "amount",
          "type": "uint256"
        },
        {
          "internalType": "address",
          "name": "sender",
          "type": "address"
        },
        {
          "internalType": "string",
          "name": "message",
          "type": "string"
        },
        {
          "internalType": "uint256",
          "name": "timestamp",
          "type": "uint256"
        }
      ],
      "stateMutability": "view",
      "type": "function"
    },
    {
      "inputs": [
        {
          "internalType": "string",
          "name": "",
          "type": "string"
        }
      ],
      "name": "projectTotal",
      "outputs": [
        {
          "internalType": "uint256",
          "name": "",
          "type": "uint256"
        }
      ],
      "stateMutability": "view",
      "type": "function"
    },
    {
      "inputs": [
        {
          "internalType": "uint256",
          "name": "_amount",
          "type": "uint256"
        }
      ],
      "name": "withdraw",
      "outputs": [],
      "stateMutability": "nonpayable",
      "type": "function"
    },
    {
      "stateMutability": "payable",
      "type": "receive"
    }
  ],
  "bytecode": "0x6080604052348015600f57600080fd5b50602867117f0dec6ce73ed860c01b608460201b60201c565b604067f7dfe5540d085b1360c01b608460201b60201c565b336000806101000a81548173ffffffffffffffffffffffffffffffffffffffff021916908373ffffffffffffffffffffffffffffffffffffffff1602179055506087565b50565b611859806100966000396000f3fe6080604052600436106100745760003560e01c80637317266a1161004e5780637317266a14610113578063818dacb7146101505780638da5cb5b1461018d578063ffe7e5d8146101b85761007b565b80630319e9c5146100915780632e1a7d4d146100ad5780633d4cf975146100d65761007b565b3661007b57005b61008f6799a6735b4f77eb6b60c01b6101f9565b005b6100ab60048036038101906100a69190610dcc565b6101fc565b005b3480156100b957600080fd5b506100d460048036038101906100cf9190610e7a565b6104e3565b005b3480156100e257600080fd5b506100fd60048036038101906100f89190610ea7565b6107dc565b60405161010a91906110fe565b60405180910390f35b34801561011f57600080fd5b5061013a60048036038101906101359190610ea7565b610a23565b604051610147919061112f565b60405180910390f35b34801561015c57600080fd5b5061017760048036038101906101729190610ea7565b610a87565b604051610184919061112f565b60405180910390f35b34801561019957600080fd5b506101a2610ab5565b6040516101af9190611159565b60405180910390f35b3480156101c457600080fd5b506101df60048036038101906101da9190611174565b610ad9565b6040516101f095949392919061121a565b60405180910390f35b50565b61021067f91eaddeb57cd25a60c01b6101f9565b610224676311b50d939c234360c01b6101f9565b61023867be7dabf6dc95014060c01b6101f9565b61024c67310eda598b0028b660c01b6101f9565b6000341161028f576040517f08c379a0000000000000000000000000000000000000000000000000000000008152600401610286906112c7565b60405180910390fd5b6102a367300a8b5362ed84ae60c01b6101f9565b6102b767914603d58204299060c01b6101f9565b6102cb6718c48df3f8d5925e60c01b6101f9565b60006040518060a001604052808481526020013481526020013373ffffffffffffffffffffffffffffffffffffffff16815260200183815260200142815250905061032067e3e9a170aea4764d60c01b6101f9565b61033467331449e76d66f8b760c01b6101f9565b6001836040516103449190611323565b908152602001604051809103902081908060018154018082558091505060019003906000526020600020906005020160009091909190915060008201518160000190816103919190611546565b506020820151816001015560408201518160020160006101000a81548173ffffffffffffffffffffffffffffffffffffffff021916908373ffffffffffffffffffffffffffffffffffffffff16021790555060608201518160030190816103f89190611546565b5060808201518160040155505061041967da894346c5ad560c60c01b6101f9565b3460028460405161042a9190611323565b908152602001604051809103902060008282546104479190611647565b92505081905550610462678a339805dbb8d13960c01b6101f9565b61047667f8a6dceddfd9413e60c01b6101f9565b3373ffffffffffffffffffffffffffffffffffffffff168360405161049b9190611323565b60405180910390207f3b97b2b4947faa60ae6ab643475f51fcbcb97a3d5c9694c37002b7cfe2623e563485426040516104d69392919061167b565b60405180910390a3505050565b6104f666731aa82b8dfa4f60c01b6101f9565b61050a6776813746baa3be6a60c01b6101f9565b61051e67ded672bb29f55aa960c01b6101f9565b61053267171c062c404f1fb060c01b6101f9565b610546670d93f49d6076e0bf60c01b6101f9565b60008054906101000a900473ffffffffffffffffffffffffffffffffffffffff1673ffffffffffffffffffffffffffffffffffffffff163373ffffffffffffffffffffffffffffffffffffffff16146105d4576040517f08c379a00000000000000000000000000000000000000000000000000000000081526004016105cb90611705565b60405180910390fd5b6105e867c8166561df384dfd60c01b6101f9565b6105fc67201c276358ef1c5960c01b6101f9565b61061067807140e52bd2974760c01b6101f9565b61062467e09dfdd1fe0a59cd60c01b6101f9565b610638675c07eeaf404f868060c01b6101f9565b61064c67b3095c13a54bff9460c01b6101f9565b61066067d8c786ab55d7f58660c01b6101f9565b600081116106a3576040517f08c379a000000000000000000000000000000000000000000000000000000000815260040161069a90611771565b60405180910390fd5b6106b7678fe45f9296d61afa60c01b6101f9565b6106cb67a0ecbdfec9408b1960c01b6101f9565b6106df67bbac52e8989f6bcf60c01b6101f9565b6106f367b86f4943eb1dbe1460c01b6101f9565b47811115610736576040517f08c379a000000000000000000000000000000000000000000000000000000000815260040161072d90611803565b60405180910390fd5b61074a6715bff4d6aff2679b60c01b6101f9565b61075e67ce7cd5a81c286fda60c01b6101f9565b610772676096c3af7065339960c01b6101f9565b60008054906101000a900473ffffffffffffffffffffffffffffffffffffffff1673ffffffffffffffffffffffffffffffffffffffff166108fc829081150290604051600060405180830381858888f193505050501580156107d8573d6000803e3d6000fd5b5050565b60606107f267b1d8bbc9ed71d98160c01b6101f9565b61080667dd66271a99a7ff6560c01b6101f9565b61081a67191d68772930b6e260c01b6101f9565b60018260405161082a9190611323565b9081526020016040518091039020805480602002602001604051908101604052809291908181526020016000905b82821015610a1857838290600052602060002090600502016040518060a001604052908160008201805461088b90611369565b80601f01602080910402602001604051908101604052809291908181526020018280546108b790611369565b80156109045780601f106108d957610100808354040283529160200191610904565b820191906000526020600020905b8154815290600101906020018083116108e757829003601f168201915b50505050508152602001600182015481526020016002820160009054906101000a900473ffffffffffffffffffffffffffffffffffffffff1673ffffffffffffffffffffffffffffffffffffffff1673ffffffffffffffffffffffffffffffffffffffff16815260200160038201805461097d90611369565b80601f01602080910402602001604051908101604052809291908181526020018280546109a990611369565b80156109f65780601f106109cb576101008083540402835291602001916109f6565b820191906000526020600020905b8154815290600101906020018083116109d957829003601f168201915b5050505050815260200160048201548152505081526020019060010190610858565b505050509050919050565b6000610a3967aca633dcd4f8e4fc60c01b6101f9565b610a4d6750d93625673105ed60c01b6101f9565b610a6167c4ebb42a6942b57a60c01b6101f9565b600282604051610a719190611323565b9081526020016040518091039020549050919050565b6002818051602081018201805184825260208301602085012081835280955050505050506000915090505481565b60008054906101000a900473ffffffffffffffffffffffffffffffffffffffff1681565b6001828051602081018201805184825260208301602085012081835280955050505050508181548110610b0b57600080fd5b906000526020600020906005020160009150915050806000018054610b2f90611369565b80601f0160208091040260200160405190810160405280929190818152602001828054610b5b90611369565b8015610ba85780601f10610b7d57610100808354040283529160200191610ba8565b820191906000526020600020905b815481529060010190602001808311610b8b57829003601f168201915b5050505050908060010154908060020160009054906101000a900473ffffffffffffffffffffffffffffffffffffffff1690806003018054610be990611369565b80601f0160208091040260200160405190810160405280929190818152602001828054610c1590611369565b8015610c625780601f10610c3757610100808354040283529160200191610c62565b820191906000526020600020905b815481529060010190602001808311610c4557829003601f168201915b5050505050908060040154905085565b6000604051905090565b600080fd5b600080fd5b600080fd5b600080fd5b6000601f19601f8301169050919050565b7f4e487b7100000000000000000000000000000000000000000000000000000000600052604160045260246000fd5b610cd982610c90565b810181811067ffffffffffffffff82111715610cf857610cf7610ca1565b5b80604052505050565b6000610d0b610c72565b9050610d178282610cd0565b919050565b600067ffffffffffffffff821115610d3757610d36610ca1565b5b610d4082610c90565b9050602081019050919050565b82818337600083830152505050565b6000610d6f610d6a84610d1c565b610d01565b905082815260208101848484011115610d8b57610d8a610c8b565b5b610d96848285610d4d565b509392505050565b600082601f830112610db357610db2610c86565b5b8135610dc3848260208601610d5c565b91505092915050565b60008060408385031215610de357610de2610c7c565b5b600083013567ffffffffffffffff811115610e0157610e00610c81565b5b610e0d85828601610d9e565b925050602083013567ffffffffffffffff811115610e2e57610e2d610c81565b5b610e3a85828601610d9e565b9150509250929050565b6000819050919050565b610e5781610e44565b8114610e6257600080fd5b50565b600081359050610e7481610e4e565b92915050565b600060208284031215610e9057610e8f610c7c565b5b6000610e9e84828501610e65565b91505092915050565b600060208284031215610ebd57610ebc610c7c565b5b600082013567ffffffffffffffff811115610edb57610eda610c81565b5b610ee784828501610d9e565b91505092915050565b600081519050919050565b600082825260208201905092915050565b6000819050602082019050919050565b600081519050919050565b600082825260208201905092915050565b60005b83811015610f56578082015181840152602081019050610f3b565b60008484015250505050565b6000610f6d82610f1c565b610f778185610f27565b9350610f87818560208601610f38565b610f9081610c90565b840191505092915050565b610fa481610e44565b82525050565b600073ffffffffffffffffffffffffffffffffffffffff82169050919050565b6000610fd582610faa565b9050919050565b610fe581610fca565b82525050565b600060a08301600083015184820360008601526110088282610f62565b915050602083015161101d6020860182610f9b565b5060408301516110306040860182610fdc565b50606083015184820360608601526110488282610f62565b915050608083015161105d6080860182610f9b565b508091505092915050565b60006110748383610feb565b905092915050565b6000602082019050919050565b600061109482610ef0565b61109e8185610efb565b9350836020820285016110b085610f0c565b8060005b858110156110ec57848403895281516110cd8582611068565b94506110d88361107c565b925060208a019950506001810190506110b4565b50829750879550505050505092915050565b600060208201905081810360008301526111188184611089565b905092915050565b61112981610e44565b82525050565b60006020820190506111446000830184611120565b92915050565b61115381610fca565b82525050565b600060208201905061116e600083018461114a565b92915050565b6000806040838503121561118b5761118a610c7c565b5b600083013567ffffffffffffffff8111156111a9576111a8610c81565b5b6111b585828601610d9e565b92505060206111c685828601610e65565b9150509250929050565b600082825260208201905092915050565b60006111ec82610f1c565b6111f681856111d0565b9350611206818560208601610f38565b61120f81610c90565b840191505092915050565b600060a082019050818103600083015261123481886111e1565b90506112436020830187611120565b611250604083018661114a565b818103606083015261126281856111e1565b90506112716080830184611120565b9695505050505050565b7f75206e65656420746f2068617665204554480000000000000000000000000000600082015250565b60006112b16012836111d0565b91506112bc8261127b565b602082019050919050565b600060208201905081810360008301526112e0816112a4565b9050919050565b600081905092915050565b60006112fd82610f1c565b61130781856112e7565b9350611317818560208601610f38565b80840191505092915050565b600061132f82846112f2565b915081905092915050565b7f4e487b7100000000000000000000000000000000000000000000000000000000600052602260045260246000fd5b6000600282049050600182168061138157607f821691505b6020821081036113945761139361133a565b5b50919050565b60008190508160005260206000209050919050565b60006020601f8301049050919050565b600082821b905092915050565b6000600883026113fc7fffffffffffffffffffffffffffffffffffffffffffffffffffffffffffffffff826113bf565b61140686836113bf565b95508019841693508086168417925050509392505050565b6000819050919050565b600061144361143e61143984610e44565b61141e565b610e44565b9050919050565b6000819050919050565b61145d83611428565b6114716114698261144a565b8484546113cc565b825550505050565b600090565b611486611479565b611491818484611454565b505050565b5b818110156114b5576114aa60008261147e565b600181019050611497565b5050565b601f8211156114fa576114cb8161139a565b6114d4846113af565b810160208510156114e3578190505b6114f76114ef856113af565b830182611496565b50505b505050565b600082821c905092915050565b600061151d600019846008026114ff565b1980831691505092915050565b6000611536838361150c565b9150826002028217905092915050565b61154f82610f1c565b67ffffffffffffffff81111561156857611567610ca1565b5b6115728254611369565b61157d8282856114b9565b600060209050601f8311600181146115b0576000841561159e578287015190505b6115a8858261152a565b865550611610565b601f1984166115be8661139a565b60005b828110156115e6578489015182556001820191506020850194506020810190506115c1565b8683101561160357848901516115ff601f89168261150c565b8355505b6001600288020188555050505b505050505050565b7f4e487b7100000000000000000000000000000000000000000000000000000000600052601160045260246000fd5b600061165282610e44565b915061165d83610e44565b925082820190508082111561167557611674611618565b5b92915050565b60006060820190506116906000830186611120565b81810360208301526116a281856111e1565b90506116b16040830184611120565b949350505050565b7f75206e65656420746f20626520616e206f776e65722100000000000000000000600082015250565b60006116ef6016836111d0565b91506116fa826116b9565b602082019050919050565b6000602082019050818103600083015261171e816116e2565b9050919050565b7f6e65656420455448000000000000000000000000000000000000000000000000600082015250565b600061175b6008836111d0565b915061176682611725565b602082019050919050565b6000602082019050818103600083015261178a8161174e565b9050919050565b7f6c6f7720616d6f756e74206f6e20636f6e747261637420746f2077697468647260008201527f6177000000000000000000000000000000000000000000000000000000000000602082015250565b60006117ed6022836111d0565b91506117f882611791565b604082019050919050565b6000602082019050818103600083015261181c816117e0565b905091905056fea2646970667358221220a9264b326c170be5d5d84ddded3831c89ea5e0eb3ce9f751f2b863cae110b9eb64736f6c634300081d0033",
  "linkReferences": {},
  "deployedLinkReferences": {}
}